{"contracts/stakeBase.sol":{"StakeBase":{"abi":[{"inputs":[{"internalType":"uint24","name":"weekSeconds","type":"uint24"},{"internalType":"uint8","name":"maxWeeks","type":"uint8"},{"internalType":"uint256","name":"maxScale","type":"uint256"},{"internalType":"uint8","name":"lockWeeks","type":"uint8"},{"internalType":"uint256","name":"beginTime","type":"uint256"},{"internalType":"uint256","name":"endTime","type":"uint256"},{"internalType":"address","name":"_rewardToken","type":"address"}],"stateMutability":"nonpayable","type":"constructor"},{"anonymous":false,"inputs":[{"indexed":true,"internalType":"address","name":"user","type":"address"},{"indexed":false,"internalType":"uint256","name":"amount","type":"uint256"}],"name":"ClaimReward","type":"event"},{"anonymous":false,"inputs":[{"indexed":true,"internalType":"address","name":"user","type":"address"},{"indexed":false,"internalType":"uint256","name":"no","type":"uint256"},{"indexed":false,"internalType":"uint256","name":"amount","type":"uint256"}],"name":"SetReward","type":"event"},{"inputs":[],"name":"BEGIN_TIME","outputs":[{"internalType":"uint256","name":"","type":"uint256"}],"stateMutability":"view","type":"function"},{"inputs":[],"name":"END_TIME","outputs":[{"internalType":"uint256","name":"","type":"uint256"}],"stateMutability":"view","type":"function"},{"inputs":[],"name":"LOCK_WEEKNUM","outputs":[{"internalType":"uint8","name":"","type":"uint8"}],"stateMutability":"view","type":"function"},{"inputs":[],"name":"MAX_SCALE","outputs":[{"internalType":"uint256","name":"","type":"uint256"}],"stateMutability":"view","type":"function"},{"inputs":[],"name":"MAX_WEEKS","outputs":[{"internalType":"uint8","name":"","type":"uint8"}],"stateMutability":"view","type":"function"},{"inputs":[],"name":"WEEK_SECONDS","outputs":[{"internalType":"uint24","name":"","type":"uint24"}],"stateMutability":"view","type":"function"},{"inputs":[],"name":"acceptSetter","outputs":[],"stateMutability":"nonpayable","type":"function"},{"inputs":[{"internalType":"address","name":"user","type":"address"}],"name":"canClaimAmount","outputs":[{"internalType":"uint256","name":"","type":"uint256"}],"stateMutability":"view","type":"function"},{"inputs":[{"internalType":"uint256","name":"deadline","type":"uint256"}],"name":"claimReward","outputs":[],"stateMutability":"nonpayable","type":"function"},{"inputs":[{"internalType":"uint256","name":"amount","type":"uint256"},{"internalType":"uint8","name":"k","type":"uint8"}],"name":"getScore","outputs":[{"internalType":"uint256","name":"score","type":"uint256"}],"stateMutability":"view","type":"function"},{"inputs":[],"name":"latestNo","outputs":[{"internalType":"uint256","name":"","type":"uint256"}],"stateMutability":"view","type":"function"},{"inputs":[{"internalType":"address","name":"user","type":"address"}],"name":"lockedRewardAmount","outputs":[{"internalType":"uint256","name":"","type":"uint256"},{"internalType":"uint256[]","name":"","type":"uint256[]"}],"stateMutability":"view","type":"function"},{"inputs":[],"name":"owner","outputs":[{"internalType":"address","name":"","type":"address"}],"stateMutability":"view","type":"function"},{"inputs":[],"name":"rewardToken","outputs":[{"internalType":"address","name":"","type":"address"}],"stateMutability":"view","type":"function"},{"inputs":[{"internalType":"uint256","name":"","type":"uint256"}],"name":"rewardsOf","outputs":[{"internalType":"uint256","name":"","type":"uint256"}],"stateMutability":"view","type":"function"},{"inputs":[{"internalType":"uint256","name":"no","type":"uint256"},{"internalType":"uint256","name":"amount","type":"uint256"},{"internalType":"uint256","name":"deadline","type":"uint256"}],"name":"setReward","outputs":[],"stateMutability":"nonpayable","type":"function"},{"inputs":[{"internalType":"uint256[]","name":"nos","type":"uint256[]"},{"internalType":"uint256[]","name":"amounts","type":"uint256[]"},{"internalType":"uint256","name":"deadline","type":"uint256"}],"name":"setRewards","outputs":[],"stateMutability":"nonpayable","type":"function"},{"inputs":[{"internalType":"uint256","name":"","type":"uint256"}],"name":"totalScores","outputs":[{"internalType":"uint256","name":"","type":"uint256"}],"stateMutability":"view","type":"function"},{"inputs":[{"internalType":"address","name":"_owner","type":"address"}],"name":"transferOwner","outputs":[],"stateMutability":"nonpayable","type":"function"},{"inputs":[{"internalType":"address","name":"","type":"address"},{"internalType":"uint256","name":"","type":"uint256"}],"name":"userCanClaimWeeks","outputs":[{"internalType":"uint256","name":"","type":"uint256"}],"stateMutability":"view","type":"function"},{"inputs":[{"internalType":"address","name":"","type":"address"},{"internalType":"uint256","name":"","type":"uint256"}],"name":"userScores","outputs":[{"internalType":"uint256","name":"","type":"uint256"}],"stateMutability":"view","type":"function"}],"evm":{"bytecode":{"linkReferences":{},"object":"61016060405234801561001157600080fd5b5060405161133f38038061133f83398101604081905261003091610090565b6001600160a01b031660805262ffffff90951660a05260ff93841660c05260e092909252909116610100526101205261014052600080546001600160a01b0319163317905561011d565b805160ff8116811461008b57600080fd5b919050565b600080600080600080600060e0888a0312156100ab57600080fd5b875162ffffff811681146100be57600080fd5b96506100cc6020890161007a565b9550604088015194506100e16060890161007a565b608089015160a08a015160c08b015192965090945092506001600160a01b038116811461010d57600080fd5b8091505092959891949750929550565b60805160a05160c05160e0516101005161012051610140516111746101cb6000396000610210015260006102ce0152600081816101ae015281816103e2015281816105ea015281816108350152610b6501526000818161037d0152610b0101526000818161033001528181610a9d0152610ac80152600081816102f50152818161040b015281816105bc0152818161085e0152610b8e0152600081816103a4015261096001526111746000f3fe608060405234801561001057600080fd5b50600436106101375760003560e01c80638da5cb5b116100b8578063e11400bb1161007c578063e11400bb1461032b578063e1c05d9314610352578063ee3453ed14610365578063f6def7cf14610378578063f7c618c11461039f578063fa60c77c146103c657600080fd5b80638da5cb5b14610278578063ae169a50146102a3578063bb57852d146102b6578063c75363b6146102c9578063cd671a58146102f057600080fd5b806329ed1cfd116100ff57806329ed1cfd1461020257806337ba682d1461020b5780634fb2e45d146102325780635b680a45146102455780635f8e422f1461027057600080fd5b806302e9e4951461013c57806307c6e2fa146101665780630bce12841461017b5780630d437d40146101a9578063157775df146101e2575b600080fd5b61014f61014a366004610db4565b6103d9565b60405161015d929190610dcf565b60405180910390f35b610179610174366004610ece565b610628565b005b61019b610189366004610f3b565b60056020526000908152604090205481565b60405190815260200161015d565b6101d07f000000000000000000000000000000000000000000000000000000000000000081565b60405160ff909116815260200161015d565b61019b6101f0366004610f3b565b60046020526000908152604090205481565b61019b60065481565b61019b7f000000000000000000000000000000000000000000000000000000000000000081565b610179610240366004610db4565b610771565b61019b610253366004610f54565b600260209081526000928352604080842090915290825290205481565b6101796107bd565b60005461028b906001600160a01b031681565b6040516001600160a01b03909116815260200161015d565b6101796102b1366004610f3b565b61080e565b61019b6102c4366004610f54565b6109c2565b61019b7f000000000000000000000000000000000000000000000000000000000000000081565b6103177f000000000000000000000000000000000000000000000000000000000000000081565b60405162ffffff909116815260200161015d565b6101d07f000000000000000000000000000000000000000000000000000000000000000081565b610179610360366004610f7e565b6109e7565b61019b610373366004610faa565b610a94565b61019b7f000000000000000000000000000000000000000000000000000000000000000081565b61028b7f000000000000000000000000000000000000000000000000000000000000000081565b61019b6103d4366004610db4565b610b5e565b600060608160ff7f00000000000000000000000000000000000000000000000000000000000000001661043162ffffff7f00000000000000000000000000000000000000000000000000000000000000001642610ff6565b61043b9190611018565b610446906001611031565b6001600160a01b038516600090815260036020526040902090915081906001015411610485576040805160008152602081019091529094909350915050565b6001600160a01b0384166000908152600360205260408120805460019091015490918383116104b457836104b6565b825b905060006104c48284611018565b67ffffffffffffffff8111156104dc576104dc610e1d565b604051908082528060200260200182016040528015610505578160200160208202803683370190505b509050815b838110156105b05760008181526004602052604090205415610575576000818152600460209081526040808320546001600160a01b038d168452600283528184208585528352818420546005909352922054610566919061105a565b6105709190610ff6565b610578565b60005b826105838584611018565b8151811061059357610593611044565b6020908102919091010152806105a881611071565b91505061050a565b5060006105e262ffffff7f00000000000000000000000000000000000000000000000000000000000000001642610ff6565b61060f8460ff7f000000000000000000000000000000000000000000000000000000000000000016611031565b6106199190611018565b99919850909650505050505050565b80804211156106525760405162461bcd60e51b81526004016106499061108a565b60405180910390fd5b6000546001600160a01b0316331461067c5760405162461bcd60e51b8152600401610649906110b1565b82518451146106c05760405162461bcd60e51b815260206004820152601060248201526f3830b930b6b2ba32b9399032b93937b960811b6044820152606401610649565b6000805b8551811015610767578481815181106106df576106df611044565b6020026020010151600560008884815181106106fd576106fd611044565b60200260200101518152602001908152602001600020819055508186828151811061072a5761072a611044565b602002602001015111156107555785818151811061074a5761074a611044565b602002602001015191505b8061075f81611071565b9150506106c4565b5060065550505050565b6000546001600160a01b0316331461079b5760405162461bcd60e51b8152600401610649906110b1565b600180546001600160a01b0319166001600160a01b0392909216919091179055565b6001546001600160a01b031633146107e75760405162461bcd60e51b8152600401610649906110b1565b60018054600080546001600160a01b03199081166001600160a01b03841617909155169055565b808042111561082f5760405162461bcd60e51b81526004016106499061108a565b600060ff7f00000000000000000000000000000000000000000000000000000000000000001661088462ffffff7f00000000000000000000000000000000000000000000000000000000000000001642610ff6565b61088e9190611018565b3360009081526003602052604081205491925090805b3360009081526003602052604090206001015481101561094757838111610947576108d0816001611031565b600082815260046020526040902054909250156109355760008181526004602090815260408083205433845260028352818420858552835281842054600590935292205461091e919061105a565b6109289190610ff6565b6109329084611031565b92505b8061093f81611071565b9150506108a4565b50336000908152600360205260408120829101556109867f00000000000000000000000000000000000000000000000000000000000000003384610c8b565b60405182815233907fba8de60c3403ec381d1d484652ea1980e3c3e56359195c92525bff4ce47ad98e9060200160405180910390a25050505050565b600360205281600052604060002081600281106109de57600080fd5b01549150829050565b8080421115610a085760405162461bcd60e51b81526004016106499061108a565b6000546001600160a01b03163314610a325760405162461bcd60e51b8152600401610649906110b1565b6000848152600560205260409020839055600654841115610a535760068490555b604080518581526020810185905233917fc3991418cacd70a010fce559a44fcbb47534ca43bf7543964bdca2639f6e6e5a910160405180910390a250505050565b6000610ac160017f00000000000000000000000000000000000000000000000000000000000000006110d4565b60ff1660017f000000000000000000000000000000000000000000000000000000000000000060ff16600185610af791906110d4565b60ff16610b2560017f0000000000000000000000000000000000000000000000000000000000000000611018565b610b2f919061105a565b610b399190611031565b610b439190611018565b610b4d908561105a565b610b579190610ff6565b9392505050565b60008060ff7f000000000000000000000000000000000000000000000000000000000000000016610bb462ffffff7f00000000000000000000000000000000000000000000000000000000000000001642610ff6565b610bbe9190611018565b6001600160a01b038416600090815260036020526040812054919250905b6001600160a01b038516600090815260036020526040902060010154811015610c8357828111610c835760008181526004602052604090205415610c71576000818152600460209081526040808320546001600160a01b0389168452600283528184208585528352818420546005909352922054610c5a919061105a565b610c649190610ff6565b610c6e9083611031565b91505b80610c7b81611071565b915050610bdc565b509392505050565b604080516001600160a01b038481166024830152604480830185905283518084039091018152606490920183526020820180516001600160e01b031663a9059cbb60e01b1790529151600092839290871691610ce791906110ed565b6000604051808303816000865af19150503d8060008114610d24576040519150601f19603f3d011682016040523d82523d6000602084013e610d29565b606091505b5091509150818015610d53575080511580610d53575080806020019051810190610d53919061111c565b610d915760405162461bcd60e51b815260206004820152600f60248201526e1514905394d1915497d19052531151608a1b6044820152606401610649565b5050505050565b80356001600160a01b0381168114610daf57600080fd5b919050565b600060208284031215610dc657600080fd5b610b5782610d98565b6000604082018483526020604081850152818551808452606086019150828701935060005b81811015610e1057845183529383019391830191600101610df4565b5090979650505050505050565b634e487b7160e01b600052604160045260246000fd5b600082601f830112610e4457600080fd5b8135602067ffffffffffffffff80831115610e6157610e61610e1d565b8260051b604051601f19603f83011681018181108482111715610e8657610e86610e1d565b604052938452858101830193838101925087851115610ea457600080fd5b83870191505b84821015610ec357813583529183019190830190610eaa565b979650505050505050565b600080600060608486031215610ee357600080fd5b833567ffffffffffffffff80821115610efb57600080fd5b610f0787838801610e33565b94506020860135915080821115610f1d57600080fd5b50610f2a86828701610e33565b925050604084013590509250925092565b600060208284031215610f4d57600080fd5b5035919050565b60008060408385031215610f6757600080fd5b610f7083610d98565b946020939093013593505050565b600080600060608486031215610f9357600080fd5b505081359360208301359350604090920135919050565b60008060408385031215610fbd57600080fd5b82359150602083013560ff81168114610fd557600080fd5b809150509250929050565b634e487b7160e01b600052601160045260246000fd5b60008261101357634e487b7160e01b600052601260045260246000fd5b500490565b8181038181111561102b5761102b610fe0565b92915050565b8082018082111561102b5761102b610fe0565b634e487b7160e01b600052603260045260246000fd5b808202811582820484141761102b5761102b610fe0565b60006001820161108357611083610fe0565b5060010190565b6020808252600d908201526c6f76657220646561646c696e6560981b604082015260600190565b6020808252600990820152683337b93134b23232b760b91b604082015260600190565b60ff828116828216039081111561102b5761102b610fe0565b6000825160005b8181101561110e57602081860181015185830152016110f4565b506000920191825250919050565b60006020828403121561112e57600080fd5b81518015158114610b5757600080fdfea2646970667358221220077751b186f94dbb1926ac3a0138b2fd68196d7da70dfdc2dea3fea7d04d6e8364736f6c63430008110033","opcodes":"PUSH2 0x160 PUSH1 0x40 MSTORE CALLVALUE DUP1 ISZERO PUSH2 0x11 JUMPI PUSH1 0x0 DUP1 REVERT JUMPDEST POP PUSH1 0x40 MLOAD PUSH2 0x133F CODESIZE SUB DUP1 PUSH2 0x133F DUP4 CODECOPY DUP2 ADD PUSH1 0x40 DUP2 SWAP1 MSTORE PUSH2 0x30 SWAP2 PUSH2 0x90 JUMP JUMPDEST PUSH1 0x1 PUSH1 0x1 PUSH1 0xA0 SHL SUB AND PUSH1 0x80 MSTORE PUSH3 0xFFFFFF SWAP1 SWAP6 AND PUSH1 0xA0 MSTORE PUSH1 0xFF SWAP4 DUP5 AND PUSH1 0xC0 MSTORE PUSH1 0xE0 SWAP3 SWAP1 SWAP3 MSTORE SWAP1 SWAP2 AND PUSH2 0x100 MSTORE PUSH2 0x120 MSTORE PUSH2 0x140 MSTORE PUSH1 0x0 DUP1 SLOAD PUSH1 0x1 PUSH1 0x1 PUSH1 0xA0 SHL SUB NOT AND CALLER OR SWAP1 SSTORE PUSH2 0x11D JUMP JUMPDEST DUP1 MLOAD PUSH1 0xFF DUP2 AND DUP2 EQ PUSH2 0x8B JUMPI PUSH1 0x0 DUP1 REVERT JUMPDEST SWAP2 SWAP1 POP JUMP JUMPDEST PUSH1 0x0 DUP1 PUSH1 0x0 DUP1 PUSH1 0x0 DUP1 PUSH1 0x0 PUSH1 0xE0 DUP9 DUP11 SUB SLT ISZERO PUSH2 0xAB JUMPI PUSH1 0x0 DUP1 REVERT JUMPDEST DUP8 MLOAD PUSH3 0xFFFFFF DUP2 AND DUP2 EQ PUSH2 0xBE JUMPI PUSH1 0x0 DUP1 REVERT JUMPDEST SWAP7 POP PUSH2 0xCC PUSH1 0x20 DUP10 ADD PUSH2 0x7A JUMP JUMPDEST SWAP6 POP PUSH1 0x40 DUP9 ADD MLOAD SWAP5 POP PUSH2 0xE1 PUSH1 0x60 DUP10 ADD PUSH2 0x7A JUMP JUMPDEST PUSH1 0x80 DUP10 ADD MLOAD PUSH1 0xA0 DUP11 ADD MLOAD PUSH1 0xC0 DUP12 ADD MLOAD SWAP3 SWAP7 POP SWAP1 SWAP5 POP SWAP3 POP PUSH1 0x1 PUSH1 0x1 PUSH1 0xA0 SHL SUB DUP2 AND DUP2 EQ PUSH2 0x10D JUMPI PUSH1 0x0 DUP1 REVERT JUMPDEST DUP1 SWAP2 POP POP SWAP3 SWAP6 SWAP9 SWAP2 SWAP5 SWAP8 POP SWAP3 SWAP6 POP JUMP JUMPDEST PUSH1 0x80 MLOAD PUSH1 0xA0 MLOAD PUSH1 0xC0 MLOAD PUSH1 0xE0 MLOAD PUSH2 0x100 MLOAD PUSH2 0x120 MLOAD PUSH2 0x140 MLOAD PUSH2 0x1174 PUSH2 0x1CB PUSH1 0x0 CODECOPY PUSH1 0x0 PUSH2 0x210 ADD MSTORE PUSH1 0x0 PUSH2 0x2CE ADD MSTORE PUSH1 0x0 DUP2 DUP2 PUSH2 0x1AE ADD MSTORE DUP2 DUP2 PUSH2 0x3E2 ADD MSTORE DUP2 DUP2 PUSH2 0x5EA ADD MSTORE DUP2 DUP2 PUSH2 0x835 ADD MSTORE PUSH2 0xB65 ADD MSTORE PUSH1 0x0 DUP2 DUP2 PUSH2 0x37D ADD MSTORE PUSH2 0xB01 ADD MSTORE PUSH1 0x0 DUP2 DUP2 PUSH2 0x330 ADD MSTORE DUP2 DUP2 PUSH2 0xA9D ADD MSTORE PUSH2 0xAC8 ADD MSTORE PUSH1 0x0 DUP2 DUP2 PUSH2 0x2F5 ADD MSTORE DUP2 DUP2 PUSH2 0x40B ADD MSTORE DUP2 DUP2 PUSH2 0x5BC ADD MSTORE DUP2 DUP2 PUSH2 0x85E ADD MSTORE PUSH2 0xB8E ADD MSTORE PUSH1 0x0 DUP2 DUP2 PUSH2 0x3A4 ADD MSTORE PUSH2 0x960 ADD MSTORE PUSH2 0x1174 PUSH1 0x0 RETURN INVALID PUSH1 0x80 PUSH1 0x40 MSTORE CALLVALUE DUP1 ISZERO PUSH2 0x10 JUMPI PUSH1 0x0 DUP1 REVERT JUMPDEST POP PUSH1 0x4 CALLDATASIZE LT PUSH2 0x137 JUMPI PUSH1 0x0 CALLDATALOAD PUSH1 0xE0 SHR DUP1 PUSH4 0x8DA5CB5B GT PUSH2 0xB8 JUMPI DUP1 PUSH4 0xE11400BB GT PUSH2 0x7C JUMPI DUP1 PUSH4 0xE11400BB EQ PUSH2 0x32B JUMPI DUP1 PUSH4 0xE1C05D93 EQ PUSH2 0x352 JUMPI DUP1 PUSH4 0xEE3453ED EQ PUSH2 0x365 JUMPI DUP1 PUSH4 0xF6DEF7CF EQ PUSH2 0x378 JUMPI DUP1 PUSH4 0xF7C618C1 EQ PUSH2 0x39F JUMPI DUP1 PUSH4 0xFA60C77C EQ PUSH2 0x3C6 JUMPI PUSH1 0x0 DUP1 REVERT JUMPDEST DUP1 PUSH4 0x8DA5CB5B EQ PUSH2 0x278 JUMPI DUP1 PUSH4 0xAE169A50 EQ PUSH2 0x2A3 JUMPI DUP1 PUSH4 0xBB57852D EQ PUSH2 0x2B6 JUMPI DUP1 PUSH4 0xC75363B6 EQ PUSH2 0x2C9 JUMPI DUP1 PUSH4 0xCD671A58 EQ PUSH2 0x2F0 JUMPI PUSH1 0x0 DUP1 REVERT JUMPDEST DUP1 PUSH4 0x29ED1CFD GT PUSH2 0xFF JUMPI DUP1 PUSH4 0x29ED1CFD EQ PUSH2 0x202 JUMPI DUP1 PUSH4 0x37BA682D EQ PUSH2 0x20B JUMPI DUP1 PUSH4 0x4FB2E45D EQ PUSH2 0x232 JUMPI DUP1 PUSH4 0x5B680A45 EQ PUSH2 0x245 JUMPI DUP1 PUSH4 0x5F8E422F EQ PUSH2 0x270 JUMPI PUSH1 0x0 DUP1 REVERT JUMPDEST DUP1 PUSH4 0x2E9E495 EQ PUSH2 0x13C JUMPI DUP1 PUSH4 0x7C6E2FA EQ PUSH2 0x166 JUMPI DUP1 PUSH4 0xBCE1284 EQ PUSH2 0x17B JUMPI DUP1 PUSH4 0xD437D40 EQ PUSH2 0x1A9 JUMPI DUP1 PUSH4 0x157775DF EQ PUSH2 0x1E2 JUMPI JUMPDEST PUSH1 0x0 DUP1 REVERT JUMPDEST PUSH2 0x14F PUSH2 0x14A CALLDATASIZE PUSH1 0x4 PUSH2 0xDB4 JUMP JUMPDEST PUSH2 0x3D9 JUMP JUMPDEST PUSH1 0x40 MLOAD PUSH2 0x15D SWAP3 SWAP2 SWAP1 PUSH2 0xDCF JUMP JUMPDEST PUSH1 0x40 MLOAD DUP1 SWAP2 SUB SWAP1 RETURN JUMPDEST PUSH2 0x179 PUSH2 0x174 CALLDATASIZE PUSH1 0x4 PUSH2 0xECE JUMP JUMPDEST PUSH2 0x628 JUMP JUMPDEST STOP JUMPDEST PUSH2 0x19B PUSH2 0x189 CALLDATASIZE PUSH1 0x4 PUSH2 0xF3B JUMP JUMPDEST PUSH1 0x5 PUSH1 0x20 MSTORE PUSH1 0x0 SWAP1 DUP2 MSTORE PUSH1 0x40 SWAP1 KECCAK256 SLOAD DUP2 JUMP JUMPDEST PUSH1 0x40 MLOAD SWAP1 DUP2 MSTORE PUSH1 0x20 ADD PUSH2 0x15D JUMP JUMPDEST PUSH2 0x1D0 PUSH32 0x0 DUP2 JUMP JUMPDEST PUSH1 0x40 MLOAD PUSH1 0xFF SWAP1 SWAP2 AND DUP2 MSTORE PUSH1 0x20 ADD PUSH2 0x15D JUMP JUMPDEST PUSH2 0x19B PUSH2 0x1F0 CALLDATASIZE PUSH1 0x4 PUSH2 0xF3B JUMP JUMPDEST PUSH1 0x4 PUSH1 0x20 MSTORE PUSH1 0x0 SWAP1 DUP2 MSTORE PUSH1 0x40 SWAP1 KECCAK256 SLOAD DUP2 JUMP JUMPDEST PUSH2 0x19B PUSH1 0x6 SLOAD DUP2 JUMP JUMPDEST PUSH2 0x19B PUSH32 0x0 DUP2 JUMP JUMPDEST PUSH2 0x179 PUSH2 0x240 CALLDATASIZE PUSH1 0x4 PUSH2 0xDB4 JUMP JUMPDEST PUSH2 0x771 JUMP JUMPDEST PUSH2 0x19B PUSH2 0x253 CALLDATASIZE PUSH1 0x4 PUSH2 0xF54 JUMP JUMPDEST PUSH1 0x2 PUSH1 0x20 SWAP1 DUP2 MSTORE PUSH1 0x0 SWAP3 DUP4 MSTORE PUSH1 0x40 DUP1 DUP5 KECCAK256 SWAP1 SWAP2 MSTORE SWAP1 DUP3 MSTORE SWAP1 KECCAK256 SLOAD DUP2 JUMP JUMPDEST PUSH2 0x179 PUSH2 0x7BD JUMP JUMPDEST PUSH1 0x0 SLOAD PUSH2 0x28B SWAP1 PUSH1 0x1 PUSH1 0x1 PUSH1 0xA0 SHL SUB AND DUP2 JUMP JUMPDEST PUSH1 0x40 MLOAD PUSH1 0x1 PUSH1 0x1 PUSH1 0xA0 SHL SUB SWAP1 SWAP2 AND DUP2 MSTORE PUSH1 0x20 ADD PUSH2 0x15D JUMP JUMPDEST PUSH2 0x179 PUSH2 0x2B1 CALLDATASIZE PUSH1 0x4 PUSH2 0xF3B JUMP JUMPDEST PUSH2 0x80E JUMP JUMPDEST PUSH2 0x19B PUSH2 0x2C4 CALLDATASIZE PUSH1 0x4 PUSH2 0xF54 JUMP JUMPDEST PUSH2 0x9C2 JUMP JUMPDEST PUSH2 0x19B PUSH32 0x0 DUP2 JUMP JUMPDEST PUSH2 0x317 PUSH32 0x0 DUP2 JUMP JUMPDEST PUSH1 0x40 MLOAD PUSH3 0xFFFFFF SWAP1 SWAP2 AND DUP2 MSTORE PUSH1 0x20 ADD PUSH2 0x15D JUMP JUMPDEST PUSH2 0x1D0 PUSH32 0x0 DUP2 JUMP JUMPDEST PUSH2 0x179 PUSH2 0x360 CALLDATASIZE PUSH1 0x4 PUSH2 0xF7E JUMP JUMPDEST PUSH2 0x9E7 JUMP JUMPDEST PUSH2 0x19B PUSH2 0x373 CALLDATASIZE PUSH1 0x4 PUSH2 0xFAA JUMP JUMPDEST PUSH2 0xA94 JUMP JUMPDEST PUSH2 0x19B PUSH32 0x0 DUP2 JUMP JUMPDEST PUSH2 0x28B PUSH32 0x0 DUP2 JUMP JUMPDEST PUSH2 0x19B PUSH2 0x3D4 CALLDATASIZE PUSH1 0x4 PUSH2 0xDB4 JUMP JUMPDEST PUSH2 0xB5E JUMP JUMPDEST PUSH1 0x0 PUSH1 0x60 DUP2 PUSH1 0xFF PUSH32 0x0 AND PUSH2 0x431 PUSH3 0xFFFFFF PUSH32 0x0 AND TIMESTAMP PUSH2 0xFF6 JUMP JUMPDEST PUSH2 0x43B SWAP2 SWAP1 PUSH2 0x1018 JUMP JUMPDEST PUSH2 0x446 SWAP1 PUSH1 0x1 PUSH2 0x1031 JUMP JUMPDEST PUSH1 0x1 PUSH1 0x1 PUSH1 0xA0 SHL SUB DUP6 AND PUSH1 0x0 SWAP1 DUP2 MSTORE PUSH1 0x3 PUSH1 0x20 MSTORE PUSH1 0x40 SWAP1 KECCAK256 SWAP1 SWAP2 POP DUP2 SWAP1 PUSH1 0x1 ADD SLOAD GT PUSH2 0x485 JUMPI PUSH1 0x40 DUP1 MLOAD PUSH1 0x0 DUP2 MSTORE PUSH1 0x20 DUP2 ADD SWAP1 SWAP2 MSTORE SWAP1 SWAP5 SWAP1 SWAP4 POP SWAP2 POP POP JUMP JUMPDEST PUSH1 0x1 PUSH1 0x1 PUSH1 0xA0 SHL SUB DUP5 AND PUSH1 0x0 SWAP1 DUP2 MSTORE PUSH1 0x3 PUSH1 0x20 MSTORE PUSH1 0x40 DUP2 KECCAK256 DUP1 SLOAD PUSH1 0x1 SWAP1 SWAP2 ADD SLOAD SWAP1 SWAP2 DUP4 DUP4 GT PUSH2 0x4B4 JUMPI DUP4 PUSH2 0x4B6 JUMP JUMPDEST DUP3 JUMPDEST SWAP1 POP PUSH1 0x0 PUSH2 0x4C4 DUP3 DUP5 PUSH2 0x1018 JUMP JUMPDEST PUSH8 0xFFFFFFFFFFFFFFFF DUP2 GT ISZERO PUSH2 0x4DC JUMPI PUSH2 0x4DC PUSH2 0xE1D JUMP JUMPDEST PUSH1 0x40 MLOAD SWAP1 DUP1 DUP3 MSTORE DUP1 PUSH1 0x20 MUL PUSH1 0x20 ADD DUP3 ADD PUSH1 0x40 MSTORE DUP1 ISZERO PUSH2 0x505 JUMPI DUP2 PUSH1 0x20 ADD PUSH1 0x20 DUP3 MUL DUP1 CALLDATASIZE DUP4 CALLDATACOPY ADD SWAP1 POP JUMPDEST POP SWAP1 POP DUP2 JUMPDEST DUP4 DUP2 LT ISZERO PUSH2 0x5B0 JUMPI PUSH1 0x0 DUP2 DUP2 MSTORE PUSH1 0x4 PUSH1 0x20 MSTORE PUSH1 0x40 SWAP1 KECCAK256 SLOAD ISZERO PUSH2 0x575 JUMPI PUSH1 0x0 DUP2 DUP2 MSTORE PUSH1 0x4 PUSH1 0x20 SWAP1 DUP2 MSTORE PUSH1 0x40 DUP1 DUP4 KECCAK256 SLOAD PUSH1 0x1 PUSH1 0x1 PUSH1 0xA0 SHL SUB DUP14 AND DUP5 MSTORE PUSH1 0x2 DUP4 MSTORE DUP2 DUP5 KECCAK256 DUP6 DUP6 MSTORE DUP4 MSTORE DUP2 DUP5 KECCAK256 SLOAD PUSH1 0x5 SWAP1 SWAP4 MSTORE SWAP3 KECCAK256 SLOAD PUSH2 0x566 SWAP2 SWAP1 PUSH2 0x105A JUMP JUMPDEST PUSH2 0x570 SWAP2 SWAP1 PUSH2 0xFF6 JUMP JUMPDEST PUSH2 0x578 JUMP JUMPDEST PUSH1 0x0 JUMPDEST DUP3 PUSH2 0x583 DUP6 DUP5 PUSH2 0x1018 JUMP JUMPDEST DUP2 MLOAD DUP2 LT PUSH2 0x593 JUMPI PUSH2 0x593 PUSH2 0x1044 JUMP JUMPDEST PUSH1 0x20 SWAP1 DUP2 MUL SWAP2 SWAP1 SWAP2 ADD ADD MSTORE DUP1 PUSH2 0x5A8 DUP2 PUSH2 0x1071 JUMP JUMPDEST SWAP2 POP POP PUSH2 0x50A JUMP JUMPDEST POP PUSH1 0x0 PUSH2 0x5E2 PUSH3 0xFFFFFF PUSH32 0x0 AND TIMESTAMP PUSH2 0xFF6 JUMP JUMPDEST PUSH2 0x60F DUP5 PUSH1 0xFF PUSH32 0x0 AND PUSH2 0x1031 JUMP JUMPDEST PUSH2 0x619 SWAP2 SWAP1 PUSH2 0x1018 JUMP JUMPDEST SWAP10 SWAP2 SWAP9 POP SWAP1 SWAP7 POP POP POP POP POP POP POP JUMP JUMPDEST DUP1 DUP1 TIMESTAMP GT ISZERO PUSH2 0x652 JUMPI PUSH1 0x40 MLOAD PUSH3 0x461BCD PUSH1 0xE5 SHL DUP2 MSTORE PUSH1 0x4 ADD PUSH2 0x649 SWAP1 PUSH2 0x108A JUMP JUMPDEST PUSH1 0x40 MLOAD DUP1 SWAP2 SUB SWAP1 REVERT JUMPDEST PUSH1 0x0 SLOAD PUSH1 0x1 PUSH1 0x1 PUSH1 0xA0 SHL SUB AND CALLER EQ PUSH2 0x67C JUMPI PUSH1 0x40 MLOAD PUSH3 0x461BCD PUSH1 0xE5 SHL DUP2 MSTORE PUSH1 0x4 ADD PUSH2 0x649 SWAP1 PUSH2 0x10B1 JUMP JUMPDEST DUP3 MLOAD DUP5 MLOAD EQ PUSH2 0x6C0 JUMPI PUSH1 0x40 MLOAD PUSH3 0x461BCD PUSH1 0xE5 SHL DUP2 MSTORE PUSH1 0x20 PUSH1 0x4 DUP3 ADD MSTORE PUSH1 0x10 PUSH1 0x24 DUP3 ADD MSTORE PUSH16 0x3830B930B6B2BA32B9399032B93937B9 PUSH1 0x81 SHL PUSH1 0x44 DUP3 ADD MSTORE PUSH1 0x64 ADD PUSH2 0x649 JUMP JUMPDEST PUSH1 0x0 DUP1 JUMPDEST DUP6 MLOAD DUP2 LT ISZERO PUSH2 0x767 JUMPI DUP5 DUP2 DUP2 MLOAD DUP2 LT PUSH2 0x6DF JUMPI PUSH2 0x6DF PUSH2 0x1044 JUMP JUMPDEST PUSH1 0x20 MUL PUSH1 0x20 ADD ADD MLOAD PUSH1 0x5 PUSH1 0x0 DUP9 DUP5 DUP2 MLOAD DUP2 LT PUSH2 0x6FD JUMPI PUSH2 0x6FD PUSH2 0x1044 JUMP JUMPDEST PUSH1 0x20 MUL PUSH1 0x20 ADD ADD MLOAD DUP2 MSTORE PUSH1 0x20 ADD SWAP1 DUP2 MSTORE PUSH1 0x20 ADD PUSH1 0x0 KECCAK256 DUP2 SWAP1 SSTORE POP DUP2 DUP7 DUP3 DUP2 MLOAD DUP2 LT PUSH2 0x72A JUMPI PUSH2 0x72A PUSH2 0x1044 JUMP JUMPDEST PUSH1 0x20 MUL PUSH1 0x20 ADD ADD MLOAD GT ISZERO PUSH2 0x755 JUMPI DUP6 DUP2 DUP2 MLOAD DUP2 LT PUSH2 0x74A JUMPI PUSH2 0x74A PUSH2 0x1044 JUMP JUMPDEST PUSH1 0x20 MUL PUSH1 0x20 ADD ADD MLOAD SWAP2 POP JUMPDEST DUP1 PUSH2 0x75F DUP2 PUSH2 0x1071 JUMP JUMPDEST SWAP2 POP POP PUSH2 0x6C4 JUMP JUMPDEST POP PUSH1 0x6 SSTORE POP POP POP POP JUMP JUMPDEST PUSH1 0x0 SLOAD PUSH1 0x1 PUSH1 0x1 PUSH1 0xA0 SHL SUB AND CALLER EQ PUSH2 0x79B JUMPI PUSH1 0x40 MLOAD PUSH3 0x461BCD PUSH1 0xE5 SHL DUP2 MSTORE PUSH1 0x4 ADD PUSH2 0x649 SWAP1 PUSH2 0x10B1 JUMP JUMPDEST PUSH1 0x1 DUP1 SLOAD PUSH1 0x1 PUSH1 0x1 PUSH1 0xA0 SHL SUB NOT AND PUSH1 0x1 PUSH1 0x1 PUSH1 0xA0 SHL SUB SWAP3 SWAP1 SWAP3 AND SWAP2 SWAP1 SWAP2 OR SWAP1 SSTORE JUMP JUMPDEST PUSH1 0x1 SLOAD PUSH1 0x1 PUSH1 0x1 PUSH1 0xA0 SHL SUB AND CALLER EQ PUSH2 0x7E7 JUMPI PUSH1 0x40 MLOAD PUSH3 0x461BCD PUSH1 0xE5 SHL DUP2 MSTORE PUSH1 0x4 ADD PUSH2 0x649 SWAP1 PUSH2 0x10B1 JUMP JUMPDEST PUSH1 0x1 DUP1 SLOAD PUSH1 0x0 DUP1 SLOAD PUSH1 0x1 PUSH1 0x1 PUSH1 0xA0 SHL SUB NOT SWAP1 DUP2 AND PUSH1 0x1 PUSH1 0x1 PUSH1 0xA0 SHL SUB DUP5 AND OR SWAP1 SWAP2 SSTORE AND SWAP1 SSTORE JUMP JUMPDEST DUP1 DUP1 TIMESTAMP GT ISZERO PUSH2 0x82F JUMPI PUSH1 0x40 MLOAD PUSH3 0x461BCD PUSH1 0xE5 SHL DUP2 MSTORE PUSH1 0x4 ADD PUSH2 0x649 SWAP1 PUSH2 0x108A JUMP JUMPDEST PUSH1 0x0 PUSH1 0xFF PUSH32 0x0 AND PUSH2 0x884 PUSH3 0xFFFFFF PUSH32 0x0 AND TIMESTAMP PUSH2 0xFF6 JUMP JUMPDEST PUSH2 0x88E SWAP2 SWAP1 PUSH2 0x1018 JUMP JUMPDEST CALLER PUSH1 0x0 SWAP1 DUP2 MSTORE PUSH1 0x3 PUSH1 0x20 MSTORE PUSH1 0x40 DUP2 KECCAK256 SLOAD SWAP2 SWAP3 POP SWAP1 DUP1 JUMPDEST CALLER PUSH1 0x0 SWAP1 DUP2 MSTORE PUSH1 0x3 PUSH1 0x20 MSTORE PUSH1 0x40 SWAP1 KECCAK256 PUSH1 0x1 ADD SLOAD DUP2 LT ISZERO PUSH2 0x947 JUMPI DUP4 DUP2 GT PUSH2 0x947 JUMPI PUSH2 0x8D0 DUP2 PUSH1 0x1 PUSH2 0x1031 JUMP JUMPDEST PUSH1 0x0 DUP3 DUP2 MSTORE PUSH1 0x4 PUSH1 0x20 MSTORE PUSH1 0x40 SWAP1 KECCAK256 SLOAD SWAP1 SWAP3 POP ISZERO PUSH2 0x935 JUMPI PUSH1 0x0 DUP2 DUP2 MSTORE PUSH1 0x4 PUSH1 0x20 SWAP1 DUP2 MSTORE PUSH1 0x40 DUP1 DUP4 KECCAK256 SLOAD CALLER DUP5 MSTORE PUSH1 0x2 DUP4 MSTORE DUP2 DUP5 KECCAK256 DUP6 DUP6 MSTORE DUP4 MSTORE DUP2 DUP5 KECCAK256 SLOAD PUSH1 0x5 SWAP1 SWAP4 MSTORE SWAP3 KECCAK256 SLOAD PUSH2 0x91E SWAP2 SWAP1 PUSH2 0x105A JUMP JUMPDEST PUSH2 0x928 SWAP2 SWAP1 PUSH2 0xFF6 JUMP JUMPDEST PUSH2 0x932 SWAP1 DUP5 PUSH2 0x1031 JUMP JUMPDEST SWAP3 POP JUMPDEST DUP1 PUSH2 0x93F DUP2 PUSH2 0x1071 JUMP JUMPDEST SWAP2 POP POP PUSH2 0x8A4 JUMP JUMPDEST POP CALLER PUSH1 0x0 SWAP1 DUP2 MSTORE PUSH1 0x3 PUSH1 0x20 MSTORE PUSH1 0x40 DUP2 KECCAK256 DUP3 SWAP2 ADD SSTORE PUSH2 0x986 PUSH32 0x0 CALLER DUP5 PUSH2 0xC8B JUMP JUMPDEST PUSH1 0x40 MLOAD DUP3 DUP2 MSTORE CALLER SWAP1 PUSH32 0xBA8DE60C3403EC381D1D484652EA1980E3C3E56359195C92525BFF4CE47AD98E SWAP1 PUSH1 0x20 ADD PUSH1 0x40 MLOAD DUP1 SWAP2 SUB SWAP1 LOG2 POP POP POP POP POP JUMP JUMPDEST PUSH1 0x3 PUSH1 0x20 MSTORE DUP2 PUSH1 0x0 MSTORE PUSH1 0x40 PUSH1 0x0 KECCAK256 DUP2 PUSH1 0x2 DUP2 LT PUSH2 0x9DE JUMPI PUSH1 0x0 DUP1 REVERT JUMPDEST ADD SLOAD SWAP2 POP DUP3 SWAP1 POP JUMP JUMPDEST DUP1 DUP1 TIMESTAMP GT ISZERO PUSH2 0xA08 JUMPI PUSH1 0x40 MLOAD PUSH3 0x461BCD PUSH1 0xE5 SHL DUP2 MSTORE PUSH1 0x4 ADD PUSH2 0x649 SWAP1 PUSH2 0x108A JUMP JUMPDEST PUSH1 0x0 SLOAD PUSH1 0x1 PUSH1 0x1 PUSH1 0xA0 SHL SUB AND CALLER EQ PUSH2 0xA32 JUMPI PUSH1 0x40 MLOAD PUSH3 0x461BCD PUSH1 0xE5 SHL DUP2 MSTORE PUSH1 0x4 ADD PUSH2 0x649 SWAP1 PUSH2 0x10B1 JUMP JUMPDEST PUSH1 0x0 DUP5 DUP2 MSTORE PUSH1 0x5 PUSH1 0x20 MSTORE PUSH1 0x40 SWAP1 KECCAK256 DUP4 SWAP1 SSTORE PUSH1 0x6 SLOAD DUP5 GT ISZERO PUSH2 0xA53 JUMPI PUSH1 0x6 DUP5 SWAP1 SSTORE JUMPDEST PUSH1 0x40 DUP1 MLOAD DUP6 DUP2 MSTORE PUSH1 0x20 DUP2 ADD DUP6 SWAP1 MSTORE CALLER SWAP2 PUSH32 0xC3991418CACD70A010FCE559A44FCBB47534CA43BF7543964BDCA2639F6E6E5A SWAP2 ADD PUSH1 0x40 MLOAD DUP1 SWAP2 SUB SWAP1 LOG2 POP POP POP POP JUMP JUMPDEST PUSH1 0x0 PUSH2 0xAC1 PUSH1 0x1 PUSH32 0x0 PUSH2 0x10D4 JUMP JUMPDEST PUSH1 0xFF AND PUSH1 0x1 PUSH32 0x0 PUSH1 0xFF AND PUSH1 0x1 DUP6 PUSH2 0xAF7 SWAP2 SWAP1 PUSH2 0x10D4 JUMP JUMPDEST PUSH1 0xFF AND PUSH2 0xB25 PUSH1 0x1 PUSH32 0x0 PUSH2 0x1018 JUMP JUMPDEST PUSH2 0xB2F SWAP2 SWAP1 PUSH2 0x105A JUMP JUMPDEST PUSH2 0xB39 SWAP2 SWAP1 PUSH2 0x1031 JUMP JUMPDEST PUSH2 0xB43 SWAP2 SWAP1 PUSH2 0x1018 JUMP JUMPDEST PUSH2 0xB4D SWAP1 DUP6 PUSH2 0x105A JUMP JUMPDEST PUSH2 0xB57 SWAP2 SWAP1 PUSH2 0xFF6 JUMP JUMPDEST SWAP4 SWAP3 POP POP POP JUMP JUMPDEST PUSH1 0x0 DUP1 PUSH1 0xFF PUSH32 0x0 AND PUSH2 0xBB4 PUSH3 0xFFFFFF PUSH32 0x0 AND TIMESTAMP PUSH2 0xFF6 JUMP JUMPDEST PUSH2 0xBBE SWAP2 SWAP1 PUSH2 0x1018 JUMP JUMPDEST PUSH1 0x1 PUSH1 0x1 PUSH1 0xA0 SHL SUB DUP5 AND PUSH1 0x0 SWAP1 DUP2 MSTORE PUSH1 0x3 PUSH1 0x20 MSTORE PUSH1 0x40 DUP2 KECCAK256 SLOAD SWAP2 SWAP3 POP SWAP1 JUMPDEST PUSH1 0x1 PUSH1 0x1 PUSH1 0xA0 SHL SUB DUP6 AND PUSH1 0x0 SWAP1 DUP2 MSTORE PUSH1 0x3 PUSH1 0x20 MSTORE PUSH1 0x40 SWAP1 KECCAK256 PUSH1 0x1 ADD SLOAD DUP2 LT ISZERO PUSH2 0xC83 JUMPI DUP3 DUP2 GT PUSH2 0xC83 JUMPI PUSH1 0x0 DUP2 DUP2 MSTORE PUSH1 0x4 PUSH1 0x20 MSTORE PUSH1 0x40 SWAP1 KECCAK256 SLOAD ISZERO PUSH2 0xC71 JUMPI PUSH1 0x0 DUP2 DUP2 MSTORE PUSH1 0x4 PUSH1 0x20 SWAP1 DUP2 MSTORE PUSH1 0x40 DUP1 DUP4 KECCAK256 SLOAD PUSH1 0x1 PUSH1 0x1 PUSH1 0xA0 SHL SUB DUP10 AND DUP5 MSTORE PUSH1 0x2 DUP4 MSTORE DUP2 DUP5 KECCAK256 DUP6 DUP6 MSTORE DUP4 MSTORE DUP2 DUP5 KECCAK256 SLOAD PUSH1 0x5 SWAP1 SWAP4 MSTORE SWAP3 KECCAK256 SLOAD PUSH2 0xC5A SWAP2 SWAP1 PUSH2 0x105A JUMP JUMPDEST PUSH2 0xC64 SWAP2 SWAP1 PUSH2 0xFF6 JUMP JUMPDEST PUSH2 0xC6E SWAP1 DUP4 PUSH2 0x1031 JUMP JUMPDEST SWAP2 POP JUMPDEST DUP1 PUSH2 0xC7B DUP2 PUSH2 0x1071 JUMP JUMPDEST SWAP2 POP POP PUSH2 0xBDC JUMP JUMPDEST POP SWAP4 SWAP3 POP POP POP JUMP JUMPDEST PUSH1 0x40 DUP1 MLOAD PUSH1 0x1 PUSH1 0x1 PUSH1 0xA0 SHL SUB DUP5 DUP2 AND PUSH1 0x24 DUP4 ADD MSTORE PUSH1 0x44 DUP1 DUP4 ADD DUP6 SWAP1 MSTORE DUP4 MLOAD DUP1 DUP5 SUB SWAP1 SWAP2 ADD DUP2 MSTORE PUSH1 0x64 SWAP1 SWAP3 ADD DUP4 MSTORE PUSH1 0x20 DUP3 ADD DUP1 MLOAD PUSH1 0x1 PUSH1 0x1 PUSH1 0xE0 SHL SUB AND PUSH4 0xA9059CBB PUSH1 0xE0 SHL OR SWAP1 MSTORE SWAP2 MLOAD PUSH1 0x0 SWAP3 DUP4 SWAP3 SWAP1 DUP8 AND SWAP2 PUSH2 0xCE7 SWAP2 SWAP1 PUSH2 0x10ED JUMP JUMPDEST PUSH1 0x0 PUSH1 0x40 MLOAD DUP1 DUP4 SUB DUP2 PUSH1 0x0 DUP7 GAS CALL SWAP2 POP POP RETURNDATASIZE DUP1 PUSH1 0x0 DUP2 EQ PUSH2 0xD24 JUMPI PUSH1 0x40 MLOAD SWAP2 POP PUSH1 0x1F NOT PUSH1 0x3F RETURNDATASIZE ADD AND DUP3 ADD PUSH1 0x40 MSTORE RETURNDATASIZE DUP3 MSTORE RETURNDATASIZE PUSH1 0x0 PUSH1 0x20 DUP5 ADD RETURNDATACOPY PUSH2 0xD29 JUMP JUMPDEST PUSH1 0x60 SWAP2 POP JUMPDEST POP SWAP2 POP SWAP2 POP DUP2 DUP1 ISZERO PUSH2 0xD53 JUMPI POP DUP1 MLOAD ISZERO DUP1 PUSH2 0xD53 JUMPI POP DUP1 DUP1 PUSH1 0x20 ADD SWAP1 MLOAD DUP2 ADD SWAP1 PUSH2 0xD53 SWAP2 SWAP1 PUSH2 0x111C JUMP JUMPDEST PUSH2 0xD91 JUMPI PUSH1 0x40 MLOAD PUSH3 0x461BCD PUSH1 0xE5 SHL DUP2 MSTORE PUSH1 0x20 PUSH1 0x4 DUP3 ADD MSTORE PUSH1 0xF PUSH1 0x24 DUP3 ADD MSTORE PUSH15 0x1514905394D1915497D19052531151 PUSH1 0x8A SHL PUSH1 0x44 DUP3 ADD MSTORE PUSH1 0x64 ADD PUSH2 0x649 JUMP JUMPDEST POP POP POP POP POP JUMP JUMPDEST DUP1 CALLDATALOAD PUSH1 0x1 PUSH1 0x1 PUSH1 0xA0 SHL SUB DUP2 AND DUP2 EQ PUSH2 0xDAF JUMPI PUSH1 0x0 DUP1 REVERT JUMPDEST SWAP2 SWAP1 POP JUMP JUMPDEST PUSH1 0x0 PUSH1 0x20 DUP3 DUP5 SUB SLT ISZERO PUSH2 0xDC6 JUMPI PUSH1 0x0 DUP1 REVERT JUMPDEST PUSH2 0xB57 DUP3 PUSH2 0xD98 JUMP JUMPDEST PUSH1 0x0 PUSH1 0x40 DUP3 ADD DUP5 DUP4 MSTORE PUSH1 0x20 PUSH1 0x40 DUP2 DUP6 ADD MSTORE DUP2 DUP6 MLOAD DUP1 DUP5 MSTORE PUSH1 0x60 DUP7 ADD SWAP2 POP DUP3 DUP8 ADD SWAP4 POP PUSH1 0x0 JUMPDEST DUP2 DUP2 LT ISZERO PUSH2 0xE10 JUMPI DUP5 MLOAD DUP4 MSTORE SWAP4 DUP4 ADD SWAP4 SWAP2 DUP4 ADD SWAP2 PUSH1 0x1 ADD PUSH2 0xDF4 JUMP JUMPDEST POP SWAP1 SWAP8 SWAP7 POP POP POP POP POP POP POP JUMP JUMPDEST PUSH4 0x4E487B71 PUSH1 0xE0 SHL PUSH1 0x0 MSTORE PUSH1 0x41 PUSH1 0x4 MSTORE PUSH1 0x24 PUSH1 0x0 REVERT JUMPDEST PUSH1 0x0 DUP3 PUSH1 0x1F DUP4 ADD SLT PUSH2 0xE44 JUMPI PUSH1 0x0 DUP1 REVERT JUMPDEST DUP2 CALLDATALOAD PUSH1 0x20 PUSH8 0xFFFFFFFFFFFFFFFF DUP1 DUP4 GT ISZERO PUSH2 0xE61 JUMPI PUSH2 0xE61 PUSH2 0xE1D JUMP JUMPDEST DUP3 PUSH1 0x5 SHL PUSH1 0x40 MLOAD PUSH1 0x1F NOT PUSH1 0x3F DUP4 ADD AND DUP2 ADD DUP2 DUP2 LT DUP5 DUP3 GT OR ISZERO PUSH2 0xE86 JUMPI PUSH2 0xE86 PUSH2 0xE1D JUMP JUMPDEST PUSH1 0x40 MSTORE SWAP4 DUP5 MSTORE DUP6 DUP2 ADD DUP4 ADD SWAP4 DUP4 DUP2 ADD SWAP3 POP DUP8 DUP6 GT ISZERO PUSH2 0xEA4 JUMPI PUSH1 0x0 DUP1 REVERT JUMPDEST DUP4 DUP8 ADD SWAP2 POP JUMPDEST DUP5 DUP3 LT ISZERO PUSH2 0xEC3 JUMPI DUP2 CALLDATALOAD DUP4 MSTORE SWAP2 DUP4 ADD SWAP2 SWAP1 DUP4 ADD SWAP1 PUSH2 0xEAA JUMP JUMPDEST SWAP8 SWAP7 POP POP POP POP POP POP POP JUMP JUMPDEST PUSH1 0x0 DUP1 PUSH1 0x0 PUSH1 0x60 DUP5 DUP7 SUB SLT ISZERO PUSH2 0xEE3 JUMPI PUSH1 0x0 DUP1 REVERT JUMPDEST DUP4 CALLDATALOAD PUSH8 0xFFFFFFFFFFFFFFFF DUP1 DUP3 GT ISZERO PUSH2 0xEFB JUMPI PUSH1 0x0 DUP1 REVERT JUMPDEST PUSH2 0xF07 DUP8 DUP4 DUP9 ADD PUSH2 0xE33 JUMP JUMPDEST SWAP5 POP PUSH1 0x20 DUP7 ADD CALLDATALOAD SWAP2 POP DUP1 DUP3 GT ISZERO PUSH2 0xF1D JUMPI PUSH1 0x0 DUP1 REVERT JUMPDEST POP PUSH2 0xF2A DUP7 DUP3 DUP8 ADD PUSH2 0xE33 JUMP JUMPDEST SWAP3 POP POP PUSH1 0x40 DUP5 ADD CALLDATALOAD SWAP1 POP SWAP3 POP SWAP3 POP SWAP3 JUMP JUMPDEST PUSH1 0x0 PUSH1 0x20 DUP3 DUP5 SUB SLT ISZERO PUSH2 0xF4D JUMPI PUSH1 0x0 DUP1 REVERT JUMPDEST POP CALLDATALOAD SWAP2 SWAP1 POP JUMP JUMPDEST PUSH1 0x0 DUP1 PUSH1 0x40 DUP4 DUP6 SUB SLT ISZERO PUSH2 0xF67 JUMPI PUSH1 0x0 DUP1 REVERT JUMPDEST PUSH2 0xF70 DUP4 PUSH2 0xD98 JUMP JUMPDEST SWAP5 PUSH1 0x20 SWAP4 SWAP1 SWAP4 ADD CALLDATALOAD SWAP4 POP POP POP JUMP JUMPDEST PUSH1 0x0 DUP1 PUSH1 0x0 PUSH1 0x60 DUP5 DUP7 SUB SLT ISZERO PUSH2 0xF93 JUMPI PUSH1 0x0 DUP1 REVERT JUMPDEST POP POP DUP2 CALLDATALOAD SWAP4 PUSH1 0x20 DUP4 ADD CALLDATALOAD SWAP4 POP PUSH1 0x40 SWAP1 SWAP3 ADD CALLDATALOAD SWAP2 SWAP1 POP JUMP JUMPDEST PUSH1 0x0 DUP1 PUSH1 0x40 DUP4 DUP6 SUB SLT ISZERO PUSH2 0xFBD JUMPI PUSH1 0x0 DUP1 REVERT JUMPDEST DUP3 CALLDATALOAD SWAP2 POP PUSH1 0x20 DUP4 ADD CALLDATALOAD PUSH1 0xFF DUP2 AND DUP2 EQ PUSH2 0xFD5 JUMPI PUSH1 0x0 DUP1 REVERT JUMPDEST DUP1 SWAP2 POP POP SWAP3 POP SWAP3 SWAP1 POP JUMP JUMPDEST PUSH4 0x4E487B71 PUSH1 0xE0 SHL PUSH1 0x0 MSTORE PUSH1 0x11 PUSH1 0x4 MSTORE PUSH1 0x24 PUSH1 0x0 REVERT JUMPDEST PUSH1 0x0 DUP3 PUSH2 0x1013 JUMPI PUSH4 0x4E487B71 PUSH1 0xE0 SHL PUSH1 0x0 MSTORE PUSH1 0x12 PUSH1 0x4 MSTORE PUSH1 0x24 PUSH1 0x0 REVERT JUMPDEST POP DIV SWAP1 JUMP JUMPDEST DUP2 DUP2 SUB DUP2 DUP2 GT ISZERO PUSH2 0x102B JUMPI PUSH2 0x102B PUSH2 0xFE0 JUMP JUMPDEST SWAP3 SWAP2 POP POP JUMP JUMPDEST DUP1 DUP3 ADD DUP1 DUP3 GT ISZERO PUSH2 0x102B JUMPI PUSH2 0x102B PUSH2 0xFE0 JUMP JUMPDEST PUSH4 0x4E487B71 PUSH1 0xE0 SHL PUSH1 0x0 MSTORE PUSH1 0x32 PUSH1 0x4 MSTORE PUSH1 0x24 PUSH1 0x0 REVERT JUMPDEST DUP1 DUP3 MUL DUP2 ISZERO DUP3 DUP3 DIV DUP5 EQ OR PUSH2 0x102B JUMPI PUSH2 0x102B PUSH2 0xFE0 JUMP JUMPDEST PUSH1 0x0 PUSH1 0x1 DUP3 ADD PUSH2 0x1083 JUMPI PUSH2 0x1083 PUSH2 0xFE0 JUMP JUMPDEST POP PUSH1 0x1 ADD SWAP1 JUMP JUMPDEST PUSH1 0x20 DUP1 DUP3 MSTORE PUSH1 0xD SWAP1 DUP3 ADD MSTORE PUSH13 0x6F76657220646561646C696E65 PUSH1 0x98 SHL PUSH1 0x40 DUP3 ADD MSTORE PUSH1 0x60 ADD SWAP1 JUMP JUMPDEST PUSH1 0x20 DUP1 DUP3 MSTORE PUSH1 0x9 SWAP1 DUP3 ADD MSTORE PUSH9 0x3337B93134B23232B7 PUSH1 0xB9 SHL PUSH1 0x40 DUP3 ADD MSTORE PUSH1 0x60 ADD SWAP1 JUMP JUMPDEST PUSH1 0xFF DUP3 DUP2 AND DUP3 DUP3 AND SUB SWAP1 DUP2 GT ISZERO PUSH2 0x102B JUMPI PUSH2 0x102B PUSH2 0xFE0 JUMP JUMPDEST PUSH1 0x0 DUP3 MLOAD PUSH1 0x0 JUMPDEST DUP2 DUP2 LT ISZERO PUSH2 0x110E JUMPI PUSH1 0x20 DUP2 DUP7 ADD DUP2 ADD MLOAD DUP6 DUP4 ADD MSTORE ADD PUSH2 0x10F4 JUMP JUMPDEST POP PUSH1 0x0 SWAP3 ADD SWAP2 DUP3 MSTORE POP SWAP2 SWAP1 POP JUMP JUMPDEST PUSH1 0x0 PUSH1 0x20 DUP3 DUP5 SUB SLT ISZERO PUSH2 0x112E JUMPI PUSH1 0x0 DUP1 REVERT JUMPDEST DUP2 MLOAD DUP1 ISZERO ISZERO DUP2 EQ PUSH2 0xB57 JUMPI PUSH1 0x0 DUP1 REVERT INVALID LOG2 PUSH5 0x6970667358 0x22 SLT KECCAK256 SMOD PUSH24 0x51B186F94DBB1926AC3A0138B2FD68196D7DA70DFDC2DEA3 INVALID 0xA7 0xD0 0x4D PUSH15 0x8364736F6C63430008110033000000 "},"methodIdentifiers":{"BEGIN_TIME()":"c75363b6","END_TIME()":"37ba682d","LOCK_WEEKNUM()":"0d437d40","MAX_SCALE()":"f6def7cf","MAX_WEEKS()":"e11400bb","WEEK_SECONDS()":"cd671a58","acceptSetter()":"5f8e422f","canClaimAmount(address)":"fa60c77c","claimReward(uint256)":"ae169a50","getScore(uint256,uint8)":"ee3453ed","latestNo()":"29ed1cfd","lockedRewardAmount(address)":"02e9e495","owner()":"8da5cb5b","rewardToken()":"f7c618c1","rewardsOf(uint256)":"0bce1284","setReward(uint256,uint256,uint256)":"e1c05d93","setRewards(uint256[],uint256[],uint256)":"07c6e2fa","totalScores(uint256)":"157775df","transferOwner(address)":"4fb2e45d","userCanClaimWeeks(address,uint256)":"bb57852d","userScores(address,uint256)":"5b680a45"}}}}}