{"contracts/claimNFT.sol":{"Reward":{"abi":[{"inputs":[{"internalType":"address[]","name":"_users","type":"address[]"},{"internalType":"uint256","name":"_rewardAmount","type":"uint256"},{"internalType":"address","name":"_rewardToken","type":"address"}],"stateMutability":"nonpayable","type":"constructor"},{"inputs":[],"name":"acceptSetter","outputs":[],"stateMutability":"nonpayable","type":"function"},{"inputs":[{"internalType":"uint256[]","name":"ids","type":"uint256[]"}],"name":"addTokenIds","outputs":[],"stateMutability":"nonpayable","type":"function"},{"inputs":[{"internalType":"address[]","name":"_users","type":"address[]"}],"name":"addUser","outputs":[],"stateMutability":"nonpayable","type":"function"},{"inputs":[],"name":"claim","outputs":[],"stateMutability":"nonpayable","type":"function"},{"inputs":[],"name":"nftToken","outputs":[{"internalType":"contract IERC1155","name":"","type":"address"}],"stateMutability":"view","type":"function"},{"inputs":[],"name":"owner","outputs":[{"internalType":"address","name":"","type":"address"}],"stateMutability":"view","type":"function"},{"inputs":[],"name":"rewardAmount","outputs":[{"internalType":"uint256","name":"","type":"uint256"}],"stateMutability":"view","type":"function"},{"inputs":[{"internalType":"uint256","name":"","type":"uint256"}],"name":"tokenids","outputs":[{"internalType":"uint256","name":"","type":"uint256"}],"stateMutability":"view","type":"function"},{"inputs":[{"internalType":"address","name":"_owner","type":"address"}],"name":"transferOwner","outputs":[],"stateMutability":"nonpayable","type":"function"},{"inputs":[{"internalType":"address","name":"","type":"address"}],"name":"userClaimed","outputs":[{"internalType":"uint256","name":"","type":"uint256"}],"stateMutability":"view","type":"function"},{"inputs":[{"internalType":"address","name":"","type":"address"}],"name":"users","outputs":[{"internalType":"bool","name":"","type":"bool"}],"stateMutability":"view","type":"function"}],"evm":{"bytecode":{"linkReferences":{},"object":"60c060405234801561001057600080fd5b50604051610a52380380610a5283398101604081905261002f916100f4565b60005b835181101561009757600160046000868481518110610053576100536101d4565b6020908102919091018101516001600160a01b03168252810191909152604001600020805460ff19169115159190911790558061008f816101ea565b915050610032565b5060a0919091526001600160a01b031660805250600080546001600160a01b03191633179055610211565b634e487b7160e01b600052604160045260246000fd5b80516001600160a01b03811681146100ef57600080fd5b919050565b60008060006060848603121561010957600080fd5b83516001600160401b038082111561012057600080fd5b818601915086601f83011261013457600080fd5b8151602082821115610148576101486100c2565b8160051b604051601f19603f8301168101818110868211171561016d5761016d6100c2565b60405292835281830193508481018201928a84111561018b57600080fd5b948201945b838610156101b0576101a1866100d8565b85529482019493820193610190565b8098505050808801519550505050506101cb604085016100d8565b90509250925092565b634e487b7160e01b600052603260045260246000fd5b60006001820161020a57634e487b7160e01b600052601160045260246000fd5b5060010190565b60805160a05161081561023d60003960006101c90152600081816101a201526103b401526108156000f3fe608060405234801561001057600080fd5b50600436106100a95760003560e01c80638da5cb5b116100715780638da5cb5b14610119578063a87430ba14610144578063c502d2d014610177578063cdfca7f21461018a578063d06fcba81461019d578063f7b2a7be146101c457600080fd5b8063263419b1146100ae5780633b7fcdca146100c35780634e71d92d146100f65780634fb2e45d146100fe5780635f8e422f14610111575b600080fd5b6100c16100bc3660046105ce565b6101eb565b005b6100e36100d1366004610680565b60036020526000908152604090205481565b6040519081526020015b60405180910390f35b6100c1610273565b6100c161010c366004610680565b610413565b6100c161045f565b60005461012c906001600160a01b031681565b6040516001600160a01b0390911681526020016100ed565b610167610152366004610680565b60046020526000908152604090205460ff1681565b60405190151581526020016100ed565b6100e36101853660046106a2565b6104b0565b6100c16101983660046106bb565b6104d1565b61012c7f000000000000000000000000000000000000000000000000000000000000000081565b6100e37f000000000000000000000000000000000000000000000000000000000000000081565b6000546001600160a01b0316331461021e5760405162461bcd60e51b815260040161021590610748565b60405180910390fd5b60005b815181101561026f57600282828151811061023e5761023e61076b565b602090810291909101810151825460018101845560009384529190922001558061026781610797565b915050610221565b5050565b3360009081526004602052604090205460ff166102c35760405162461bcd60e51b815260206004820152600e60248201526d3ab9b2b9103337b93134b23232b760911b6044820152606401610215565b336000908152600360205260409020541561030a5760405162461bcd60e51b815260206004820152600760248201526618db185a5b595960ca1b6044820152606401610215565b3360009081526003602052604081204290556002805461032c906001906107b0565b8154811061033c5761033c61076b565b90600052602060002001549050600280548061035a5761035a6107c9565b6000828152602081208201600019908101829055909101909155604051637921219560e11b8152306004820152336024820152604481018390526064810182905260a0608482015260a48101919091526001600160a01b037f0000000000000000000000000000000000000000000000000000000000000000169063f242432a9060c401600060405180830381600087803b1580156103f857600080fd5b505af115801561040c573d6000803e3d6000fd5b5050505050565b6000546001600160a01b0316331461043d5760405162461bcd60e51b815260040161021590610748565b600180546001600160a01b0319166001600160a01b0392909216919091179055565b6001546001600160a01b031633146104895760405162461bcd60e51b815260040161021590610748565b60018054600080546001600160a01b03199081166001600160a01b03841617909155169055565b600281815481106104c057600080fd5b600091825260209091200154905081565b6000546001600160a01b031633146104fb5760405162461bcd60e51b815260040161021590610748565b60005b815181101561026f5760016004600084848151811061051f5761051f61076b565b6020908102919091018101516001600160a01b03168252810191909152604001600020805460ff19169115159190911790558061055b81610797565b9150506104fe565b634e487b7160e01b600052604160045260246000fd5b604051601f8201601f1916810167ffffffffffffffff811182821017156105a2576105a2610563565b604052919050565b600067ffffffffffffffff8211156105c4576105c4610563565b5060051b60200190565b600060208083850312156105e157600080fd5b823567ffffffffffffffff8111156105f857600080fd5b8301601f8101851361060957600080fd5b803561061c610617826105aa565b610579565b81815260059190911b8201830190838101908783111561063b57600080fd5b928401925b8284101561065957833582529284019290840190610640565b979650505050505050565b80356001600160a01b038116811461067b57600080fd5b919050565b60006020828403121561069257600080fd5b61069b82610664565b9392505050565b6000602082840312156106b457600080fd5b5035919050565b600060208083850312156106ce57600080fd5b823567ffffffffffffffff8111156106e557600080fd5b8301601f810185136106f657600080fd5b8035610704610617826105aa565b81815260059190911b8201830190838101908783111561072357600080fd5b928401925b828410156106595761073984610664565b82529284019290840190610728565b6020808252600990820152683337b93134b23232b760b91b604082015260600190565b634e487b7160e01b600052603260045260246000fd5b634e487b7160e01b600052601160045260246000fd5b6000600182016107a9576107a9610781565b5060010190565b818103818111156107c3576107c3610781565b92915050565b634e487b7160e01b600052603160045260246000fdfea2646970667358221220d22a55f75871759708c936d7eb7a1542144e9eee49d7a34c7b31bee9586c116464736f6c63430008110033","opcodes":"PUSH1 0xC0 PUSH1 0x40 MSTORE CALLVALUE DUP1 ISZERO PUSH2 0x10 JUMPI PUSH1 0x0 DUP1 REVERT JUMPDEST POP PUSH1 0x40 MLOAD PUSH2 0xA52 CODESIZE SUB DUP1 PUSH2 0xA52 DUP4 CODECOPY DUP2 ADD PUSH1 0x40 DUP2 SWAP1 MSTORE PUSH2 0x2F SWAP2 PUSH2 0xF4 JUMP JUMPDEST PUSH1 0x0 JUMPDEST DUP4 MLOAD DUP2 LT ISZERO PUSH2 0x97 JUMPI PUSH1 0x1 PUSH1 0x4 PUSH1 0x0 DUP7 DUP5 DUP2 MLOAD DUP2 LT PUSH2 0x53 JUMPI PUSH2 0x53 PUSH2 0x1D4 JUMP JUMPDEST PUSH1 0x20 SWAP1 DUP2 MUL SWAP2 SWAP1 SWAP2 ADD DUP2 ADD MLOAD PUSH1 0x1 PUSH1 0x1 PUSH1 0xA0 SHL SUB AND DUP3 MSTORE DUP2 ADD SWAP2 SWAP1 SWAP2 MSTORE PUSH1 0x40 ADD PUSH1 0x0 KECCAK256 DUP1 SLOAD PUSH1 0xFF NOT AND SWAP2 ISZERO ISZERO SWAP2 SWAP1 SWAP2 OR SWAP1 SSTORE DUP1 PUSH2 0x8F DUP2 PUSH2 0x1EA JUMP JUMPDEST SWAP2 POP POP PUSH2 0x32 JUMP JUMPDEST POP PUSH1 0xA0 SWAP2 SWAP1 SWAP2 MSTORE PUSH1 0x1 PUSH1 0x1 PUSH1 0xA0 SHL SUB AND PUSH1 0x80 MSTORE POP PUSH1 0x0 DUP1 SLOAD PUSH1 0x1 PUSH1 0x1 PUSH1 0xA0 SHL SUB NOT AND CALLER OR SWAP1 SSTORE PUSH2 0x211 JUMP JUMPDEST PUSH4 0x4E487B71 PUSH1 0xE0 SHL PUSH1 0x0 MSTORE PUSH1 0x41 PUSH1 0x4 MSTORE PUSH1 0x24 PUSH1 0x0 REVERT JUMPDEST DUP1 MLOAD PUSH1 0x1 PUSH1 0x1 PUSH1 0xA0 SHL SUB DUP2 AND DUP2 EQ PUSH2 0xEF JUMPI PUSH1 0x0 DUP1 REVERT JUMPDEST SWAP2 SWAP1 POP JUMP JUMPDEST PUSH1 0x0 DUP1 PUSH1 0x0 PUSH1 0x60 DUP5 DUP7 SUB SLT ISZERO PUSH2 0x109 JUMPI PUSH1 0x0 DUP1 REVERT JUMPDEST DUP4 MLOAD PUSH1 0x1 PUSH1 0x1 PUSH1 0x40 SHL SUB DUP1 DUP3 GT ISZERO PUSH2 0x120 JUMPI PUSH1 0x0 DUP1 REVERT JUMPDEST DUP2 DUP7 ADD SWAP2 POP DUP7 PUSH1 0x1F DUP4 ADD SLT PUSH2 0x134 JUMPI PUSH1 0x0 DUP1 REVERT JUMPDEST DUP2 MLOAD PUSH1 0x20 DUP3 DUP3 GT ISZERO PUSH2 0x148 JUMPI PUSH2 0x148 PUSH2 0xC2 JUMP JUMPDEST DUP2 PUSH1 0x5 SHL PUSH1 0x40 MLOAD PUSH1 0x1F NOT PUSH1 0x3F DUP4 ADD AND DUP2 ADD DUP2 DUP2 LT DUP7 DUP3 GT OR ISZERO PUSH2 0x16D JUMPI PUSH2 0x16D PUSH2 0xC2 JUMP JUMPDEST PUSH1 0x40 MSTORE SWAP3 DUP4 MSTORE DUP2 DUP4 ADD SWAP4 POP DUP5 DUP2 ADD DUP3 ADD SWAP3 DUP11 DUP5 GT ISZERO PUSH2 0x18B JUMPI PUSH1 0x0 DUP1 REVERT JUMPDEST SWAP5 DUP3 ADD SWAP5 JUMPDEST DUP4 DUP7 LT ISZERO PUSH2 0x1B0 JUMPI PUSH2 0x1A1 DUP7 PUSH2 0xD8 JUMP JUMPDEST DUP6 MSTORE SWAP5 DUP3 ADD SWAP5 SWAP4 DUP3 ADD SWAP4 PUSH2 0x190 JUMP JUMPDEST DUP1 SWAP9 POP POP POP DUP1 DUP9 ADD MLOAD SWAP6 POP POP POP POP POP PUSH2 0x1CB PUSH1 0x40 DUP6 ADD PUSH2 0xD8 JUMP JUMPDEST SWAP1 POP SWAP3 POP SWAP3 POP SWAP3 JUMP JUMPDEST PUSH4 0x4E487B71 PUSH1 0xE0 SHL PUSH1 0x0 MSTORE PUSH1 0x32 PUSH1 0x4 MSTORE PUSH1 0x24 PUSH1 0x0 REVERT JUMPDEST PUSH1 0x0 PUSH1 0x1 DUP3 ADD PUSH2 0x20A JUMPI PUSH4 0x4E487B71 PUSH1 0xE0 SHL PUSH1 0x0 MSTORE PUSH1 0x11 PUSH1 0x4 MSTORE PUSH1 0x24 PUSH1 0x0 REVERT JUMPDEST POP PUSH1 0x1 ADD SWAP1 JUMP JUMPDEST PUSH1 0x80 MLOAD PUSH1 0xA0 MLOAD PUSH2 0x815 PUSH2 0x23D PUSH1 0x0 CODECOPY PUSH1 0x0 PUSH2 0x1C9 ADD MSTORE PUSH1 0x0 DUP2 DUP2 PUSH2 0x1A2 ADD MSTORE PUSH2 0x3B4 ADD MSTORE PUSH2 0x815 PUSH1 0x0 RETURN INVALID PUSH1 0x80 PUSH1 0x40 MSTORE CALLVALUE DUP1 ISZERO PUSH2 0x10 JUMPI PUSH1 0x0 DUP1 REVERT JUMPDEST POP PUSH1 0x4 CALLDATASIZE LT PUSH2 0xA9 JUMPI PUSH1 0x0 CALLDATALOAD PUSH1 0xE0 SHR DUP1 PUSH4 0x8DA5CB5B GT PUSH2 0x71 JUMPI DUP1 PUSH4 0x8DA5CB5B EQ PUSH2 0x119 JUMPI DUP1 PUSH4 0xA87430BA EQ PUSH2 0x144 JUMPI DUP1 PUSH4 0xC502D2D0 EQ PUSH2 0x177 JUMPI DUP1 PUSH4 0xCDFCA7F2 EQ PUSH2 0x18A JUMPI DUP1 PUSH4 0xD06FCBA8 EQ PUSH2 0x19D JUMPI DUP1 PUSH4 0xF7B2A7BE EQ PUSH2 0x1C4 JUMPI PUSH1 0x0 DUP1 REVERT JUMPDEST DUP1 PUSH4 0x263419B1 EQ PUSH2 0xAE JUMPI DUP1 PUSH4 0x3B7FCDCA EQ PUSH2 0xC3 JUMPI DUP1 PUSH4 0x4E71D92D EQ PUSH2 0xF6 JUMPI DUP1 PUSH4 0x4FB2E45D EQ PUSH2 0xFE JUMPI DUP1 PUSH4 0x5F8E422F EQ PUSH2 0x111 JUMPI JUMPDEST PUSH1 0x0 DUP1 REVERT JUMPDEST PUSH2 0xC1 PUSH2 0xBC CALLDATASIZE PUSH1 0x4 PUSH2 0x5CE JUMP JUMPDEST PUSH2 0x1EB JUMP JUMPDEST STOP JUMPDEST PUSH2 0xE3 PUSH2 0xD1 CALLDATASIZE PUSH1 0x4 PUSH2 0x680 JUMP JUMPDEST PUSH1 0x3 PUSH1 0x20 MSTORE PUSH1 0x0 SWAP1 DUP2 MSTORE PUSH1 0x40 SWAP1 KECCAK256 SLOAD DUP2 JUMP JUMPDEST PUSH1 0x40 MLOAD SWAP1 DUP2 MSTORE PUSH1 0x20 ADD JUMPDEST PUSH1 0x40 MLOAD DUP1 SWAP2 SUB SWAP1 RETURN JUMPDEST PUSH2 0xC1 PUSH2 0x273 JUMP JUMPDEST PUSH2 0xC1 PUSH2 0x10C CALLDATASIZE PUSH1 0x4 PUSH2 0x680 JUMP JUMPDEST PUSH2 0x413 JUMP JUMPDEST PUSH2 0xC1 PUSH2 0x45F JUMP JUMPDEST PUSH1 0x0 SLOAD PUSH2 0x12C SWAP1 PUSH1 0x1 PUSH1 0x1 PUSH1 0xA0 SHL SUB AND DUP2 JUMP JUMPDEST PUSH1 0x40 MLOAD PUSH1 0x1 PUSH1 0x1 PUSH1 0xA0 SHL SUB SWAP1 SWAP2 AND DUP2 MSTORE PUSH1 0x20 ADD PUSH2 0xED JUMP JUMPDEST PUSH2 0x167 PUSH2 0x152 CALLDATASIZE PUSH1 0x4 PUSH2 0x680 JUMP JUMPDEST PUSH1 0x4 PUSH1 0x20 MSTORE PUSH1 0x0 SWAP1 DUP2 MSTORE PUSH1 0x40 SWAP1 KECCAK256 SLOAD PUSH1 0xFF AND DUP2 JUMP JUMPDEST PUSH1 0x40 MLOAD SWAP1 ISZERO ISZERO DUP2 MSTORE PUSH1 0x20 ADD PUSH2 0xED JUMP JUMPDEST PUSH2 0xE3 PUSH2 0x185 CALLDATASIZE PUSH1 0x4 PUSH2 0x6A2 JUMP JUMPDEST PUSH2 0x4B0 JUMP JUMPDEST PUSH2 0xC1 PUSH2 0x198 CALLDATASIZE PUSH1 0x4 PUSH2 0x6BB JUMP JUMPDEST PUSH2 0x4D1 JUMP JUMPDEST PUSH2 0x12C PUSH32 0x0 DUP2 JUMP JUMPDEST PUSH2 0xE3 PUSH32 0x0 DUP2 JUMP JUMPDEST PUSH1 0x0 SLOAD PUSH1 0x1 PUSH1 0x1 PUSH1 0xA0 SHL SUB AND CALLER EQ PUSH2 0x21E JUMPI PUSH1 0x40 MLOAD PUSH3 0x461BCD PUSH1 0xE5 SHL DUP2 MSTORE PUSH1 0x4 ADD PUSH2 0x215 SWAP1 PUSH2 0x748 JUMP JUMPDEST PUSH1 0x40 MLOAD DUP1 SWAP2 SUB SWAP1 REVERT JUMPDEST PUSH1 0x0 JUMPDEST DUP2 MLOAD DUP2 LT ISZERO PUSH2 0x26F JUMPI PUSH1 0x2 DUP3 DUP3 DUP2 MLOAD DUP2 LT PUSH2 0x23E JUMPI PUSH2 0x23E PUSH2 0x76B JUMP JUMPDEST PUSH1 0x20 SWAP1 DUP2 MUL SWAP2 SWAP1 SWAP2 ADD DUP2 ADD MLOAD DUP3 SLOAD PUSH1 0x1 DUP2 ADD DUP5 SSTORE PUSH1 0x0 SWAP4 DUP5 MSTORE SWAP2 SWAP1 SWAP3 KECCAK256 ADD SSTORE DUP1 PUSH2 0x267 DUP2 PUSH2 0x797 JUMP JUMPDEST SWAP2 POP POP PUSH2 0x221 JUMP JUMPDEST POP POP JUMP JUMPDEST CALLER PUSH1 0x0 SWAP1 DUP2 MSTORE PUSH1 0x4 PUSH1 0x20 MSTORE PUSH1 0x40 SWAP1 KECCAK256 SLOAD PUSH1 0xFF AND PUSH2 0x2C3 JUMPI PUSH1 0x40 MLOAD PUSH3 0x461BCD PUSH1 0xE5 SHL DUP2 MSTORE PUSH1 0x20 PUSH1 0x4 DUP3 ADD MSTORE PUSH1 0xE PUSH1 0x24 DUP3 ADD MSTORE PUSH14 0x3AB9B2B9103337B93134B23232B7 PUSH1 0x91 SHL PUSH1 0x44 DUP3 ADD MSTORE PUSH1 0x64 ADD PUSH2 0x215 JUMP JUMPDEST CALLER PUSH1 0x0 SWAP1 DUP2 MSTORE PUSH1 0x3 PUSH1 0x20 MSTORE PUSH1 0x40 SWAP1 KECCAK256 SLOAD ISZERO PUSH2 0x30A JUMPI PUSH1 0x40 MLOAD PUSH3 0x461BCD PUSH1 0xE5 SHL DUP2 MSTORE PUSH1 0x20 PUSH1 0x4 DUP3 ADD MSTORE PUSH1 0x7 PUSH1 0x24 DUP3 ADD MSTORE PUSH7 0x18DB185A5B5959 PUSH1 0xCA SHL PUSH1 0x44 DUP3 ADD MSTORE PUSH1 0x64 ADD PUSH2 0x215 JUMP JUMPDEST CALLER PUSH1 0x0 SWAP1 DUP2 MSTORE PUSH1 0x3 PUSH1 0x20 MSTORE PUSH1 0x40 DUP2 KECCAK256 TIMESTAMP SWAP1 SSTORE PUSH1 0x2 DUP1 SLOAD PUSH2 0x32C SWAP1 PUSH1 0x1 SWAP1 PUSH2 0x7B0 JUMP JUMPDEST DUP2 SLOAD DUP2 LT PUSH2 0x33C JUMPI PUSH2 0x33C PUSH2 0x76B JUMP JUMPDEST SWAP1 PUSH1 0x0 MSTORE PUSH1 0x20 PUSH1 0x0 KECCAK256 ADD SLOAD SWAP1 POP PUSH1 0x2 DUP1 SLOAD DUP1 PUSH2 0x35A JUMPI PUSH2 0x35A PUSH2 0x7C9 JUMP JUMPDEST PUSH1 0x0 DUP3 DUP2 MSTORE PUSH1 0x20 DUP2 KECCAK256 DUP3 ADD PUSH1 0x0 NOT SWAP1 DUP2 ADD DUP3 SWAP1 SSTORE SWAP1 SWAP2 ADD SWAP1 SWAP2 SSTORE PUSH1 0x40 MLOAD PUSH4 0x79212195 PUSH1 0xE1 SHL DUP2 MSTORE ADDRESS PUSH1 0x4 DUP3 ADD MSTORE CALLER PUSH1 0x24 DUP3 ADD MSTORE PUSH1 0x44 DUP2 ADD DUP4 SWAP1 MSTORE PUSH1 0x64 DUP2 ADD DUP3 SWAP1 MSTORE PUSH1 0xA0 PUSH1 0x84 DUP3 ADD MSTORE PUSH1 0xA4 DUP2 ADD SWAP2 SWAP1 SWAP2 MSTORE PUSH1 0x1 PUSH1 0x1 PUSH1 0xA0 SHL SUB PUSH32 0x0 AND SWAP1 PUSH4 0xF242432A SWAP1 PUSH1 0xC4 ADD PUSH1 0x0 PUSH1 0x40 MLOAD DUP1 DUP4 SUB DUP2 PUSH1 0x0 DUP8 DUP1 EXTCODESIZE ISZERO DUP1 ISZERO PUSH2 0x3F8 JUMPI PUSH1 0x0 DUP1 REVERT JUMPDEST POP GAS CALL ISZERO DUP1 ISZERO PUSH2 0x40C JUMPI RETURNDATASIZE PUSH1 0x0 DUP1 RETURNDATACOPY RETURNDATASIZE PUSH1 0x0 REVERT JUMPDEST POP POP POP POP POP JUMP JUMPDEST PUSH1 0x0 SLOAD PUSH1 0x1 PUSH1 0x1 PUSH1 0xA0 SHL SUB AND CALLER EQ PUSH2 0x43D JUMPI PUSH1 0x40 MLOAD PUSH3 0x461BCD PUSH1 0xE5 SHL DUP2 MSTORE PUSH1 0x4 ADD PUSH2 0x215 SWAP1 PUSH2 0x748 JUMP JUMPDEST PUSH1 0x1 DUP1 SLOAD PUSH1 0x1 PUSH1 0x1 PUSH1 0xA0 SHL SUB NOT AND PUSH1 0x1 PUSH1 0x1 PUSH1 0xA0 SHL SUB SWAP3 SWAP1 SWAP3 AND SWAP2 SWAP1 SWAP2 OR SWAP1 SSTORE JUMP JUMPDEST PUSH1 0x1 SLOAD PUSH1 0x1 PUSH1 0x1 PUSH1 0xA0 SHL SUB AND CALLER EQ PUSH2 0x489 JUMPI PUSH1 0x40 MLOAD PUSH3 0x461BCD PUSH1 0xE5 SHL DUP2 MSTORE PUSH1 0x4 ADD PUSH2 0x215 SWAP1 PUSH2 0x748 JUMP JUMPDEST PUSH1 0x1 DUP1 SLOAD PUSH1 0x0 DUP1 SLOAD PUSH1 0x1 PUSH1 0x1 PUSH1 0xA0 SHL SUB NOT SWAP1 DUP2 AND PUSH1 0x1 PUSH1 0x1 PUSH1 0xA0 SHL SUB DUP5 AND OR SWAP1 SWAP2 SSTORE AND SWAP1 SSTORE JUMP JUMPDEST PUSH1 0x2 DUP2 DUP2 SLOAD DUP2 LT PUSH2 0x4C0 JUMPI PUSH1 0x0 DUP1 REVERT JUMPDEST PUSH1 0x0 SWAP2 DUP3 MSTORE PUSH1 0x20 SWAP1 SWAP2 KECCAK256 ADD SLOAD SWAP1 POP DUP2 JUMP JUMPDEST PUSH1 0x0 SLOAD PUSH1 0x1 PUSH1 0x1 PUSH1 0xA0 SHL SUB AND CALLER EQ PUSH2 0x4FB JUMPI PUSH1 0x40 MLOAD PUSH3 0x461BCD PUSH1 0xE5 SHL DUP2 MSTORE PUSH1 0x4 ADD PUSH2 0x215 SWAP1 PUSH2 0x748 JUMP JUMPDEST PUSH1 0x0 JUMPDEST DUP2 MLOAD DUP2 LT ISZERO PUSH2 0x26F JUMPI PUSH1 0x1 PUSH1 0x4 PUSH1 0x0 DUP5 DUP5 DUP2 MLOAD DUP2 LT PUSH2 0x51F JUMPI PUSH2 0x51F PUSH2 0x76B JUMP JUMPDEST PUSH1 0x20 SWAP1 DUP2 MUL SWAP2 SWAP1 SWAP2 ADD DUP2 ADD MLOAD PUSH1 0x1 PUSH1 0x1 PUSH1 0xA0 SHL SUB AND DUP3 MSTORE DUP2 ADD SWAP2 SWAP1 SWAP2 MSTORE PUSH1 0x40 ADD PUSH1 0x0 KECCAK256 DUP1 SLOAD PUSH1 0xFF NOT AND SWAP2 ISZERO ISZERO SWAP2 SWAP1 SWAP2 OR SWAP1 SSTORE DUP1 PUSH2 0x55B DUP2 PUSH2 0x797 JUMP JUMPDEST SWAP2 POP POP PUSH2 0x4FE JUMP JUMPDEST PUSH4 0x4E487B71 PUSH1 0xE0 SHL PUSH1 0x0 MSTORE PUSH1 0x41 PUSH1 0x4 MSTORE PUSH1 0x24 PUSH1 0x0 REVERT JUMPDEST PUSH1 0x40 MLOAD PUSH1 0x1F DUP3 ADD PUSH1 0x1F NOT AND DUP2 ADD PUSH8 0xFFFFFFFFFFFFFFFF DUP2 GT DUP3 DUP3 LT OR ISZERO PUSH2 0x5A2 JUMPI PUSH2 0x5A2 PUSH2 0x563 JUMP JUMPDEST PUSH1 0x40 MSTORE SWAP2 SWAP1 POP JUMP JUMPDEST PUSH1 0x0 PUSH8 0xFFFFFFFFFFFFFFFF DUP3 GT ISZERO PUSH2 0x5C4 JUMPI PUSH2 0x5C4 PUSH2 0x563 JUMP JUMPDEST POP PUSH1 0x5 SHL PUSH1 0x20 ADD SWAP1 JUMP JUMPDEST PUSH1 0x0 PUSH1 0x20 DUP1 DUP4 DUP6 SUB SLT ISZERO PUSH2 0x5E1 JUMPI PUSH1 0x0 DUP1 REVERT JUMPDEST DUP3 CALLDATALOAD PUSH8 0xFFFFFFFFFFFFFFFF DUP2 GT ISZERO PUSH2 0x5F8 JUMPI PUSH1 0x0 DUP1 REVERT JUMPDEST DUP4 ADD PUSH1 0x1F DUP2 ADD DUP6 SGT PUSH2 0x609 JUMPI PUSH1 0x0 DUP1 REVERT JUMPDEST DUP1 CALLDATALOAD PUSH2 0x61C PUSH2 0x617 DUP3 PUSH2 0x5AA JUMP JUMPDEST PUSH2 0x579 JUMP JUMPDEST DUP2 DUP2 MSTORE PUSH1 0x5 SWAP2 SWAP1 SWAP2 SHL DUP3 ADD DUP4 ADD SWAP1 DUP4 DUP2 ADD SWAP1 DUP8 DUP4 GT ISZERO PUSH2 0x63B JUMPI PUSH1 0x0 DUP1 REVERT JUMPDEST SWAP3 DUP5 ADD SWAP3 JUMPDEST DUP3 DUP5 LT ISZERO PUSH2 0x659 JUMPI DUP4 CALLDATALOAD DUP3 MSTORE SWAP3 DUP5 ADD SWAP3 SWAP1 DUP5 ADD SWAP1 PUSH2 0x640 JUMP JUMPDEST SWAP8 SWAP7 POP POP POP POP POP POP POP JUMP JUMPDEST DUP1 CALLDATALOAD PUSH1 0x1 PUSH1 0x1 PUSH1 0xA0 SHL SUB DUP2 AND DUP2 EQ PUSH2 0x67B JUMPI PUSH1 0x0 DUP1 REVERT JUMPDEST SWAP2 SWAP1 POP JUMP JUMPDEST PUSH1 0x0 PUSH1 0x20 DUP3 DUP5 SUB SLT ISZERO PUSH2 0x692 JUMPI PUSH1 0x0 DUP1 REVERT JUMPDEST PUSH2 0x69B DUP3 PUSH2 0x664 JUMP JUMPDEST SWAP4 SWAP3 POP POP POP JUMP JUMPDEST PUSH1 0x0 PUSH1 0x20 DUP3 DUP5 SUB SLT ISZERO PUSH2 0x6B4 JUMPI PUSH1 0x0 DUP1 REVERT JUMPDEST POP CALLDATALOAD SWAP2 SWAP1 POP JUMP JUMPDEST PUSH1 0x0 PUSH1 0x20 DUP1 DUP4 DUP6 SUB SLT ISZERO PUSH2 0x6CE JUMPI PUSH1 0x0 DUP1 REVERT JUMPDEST DUP3 CALLDATALOAD PUSH8 0xFFFFFFFFFFFFFFFF DUP2 GT ISZERO PUSH2 0x6E5 JUMPI PUSH1 0x0 DUP1 REVERT JUMPDEST DUP4 ADD PUSH1 0x1F DUP2 ADD DUP6 SGT PUSH2 0x6F6 JUMPI PUSH1 0x0 DUP1 REVERT JUMPDEST DUP1 CALLDATALOAD PUSH2 0x704 PUSH2 0x617 DUP3 PUSH2 0x5AA JUMP JUMPDEST DUP2 DUP2 MSTORE PUSH1 0x5 SWAP2 SWAP1 SWAP2 SHL DUP3 ADD DUP4 ADD SWAP1 DUP4 DUP2 ADD SWAP1 DUP8 DUP4 GT ISZERO PUSH2 0x723 JUMPI PUSH1 0x0 DUP1 REVERT JUMPDEST SWAP3 DUP5 ADD SWAP3 JUMPDEST DUP3 DUP5 LT ISZERO PUSH2 0x659 JUMPI PUSH2 0x739 DUP5 PUSH2 0x664 JUMP JUMPDEST DUP3 MSTORE SWAP3 DUP5 ADD SWAP3 SWAP1 DUP5 ADD SWAP1 PUSH2 0x728 JUMP JUMPDEST PUSH1 0x20 DUP1 DUP3 MSTORE PUSH1 0x9 SWAP1 DUP3 ADD MSTORE PUSH9 0x3337B93134B23232B7 PUSH1 0xB9 SHL PUSH1 0x40 DUP3 ADD MSTORE PUSH1 0x60 ADD SWAP1 JUMP JUMPDEST PUSH4 0x4E487B71 PUSH1 0xE0 SHL PUSH1 0x0 MSTORE PUSH1 0x32 PUSH1 0x4 MSTORE PUSH1 0x24 PUSH1 0x0 REVERT JUMPDEST PUSH4 0x4E487B71 PUSH1 0xE0 SHL PUSH1 0x0 MSTORE PUSH1 0x11 PUSH1 0x4 MSTORE PUSH1 0x24 PUSH1 0x0 REVERT JUMPDEST PUSH1 0x0 PUSH1 0x1 DUP3 ADD PUSH2 0x7A9 JUMPI PUSH2 0x7A9 PUSH2 0x781 JUMP JUMPDEST POP PUSH1 0x1 ADD SWAP1 JUMP JUMPDEST DUP2 DUP2 SUB DUP2 DUP2 GT ISZERO PUSH2 0x7C3 JUMPI PUSH2 0x7C3 PUSH2 0x781 JUMP JUMPDEST SWAP3 SWAP2 POP POP JUMP JUMPDEST PUSH4 0x4E487B71 PUSH1 0xE0 SHL PUSH1 0x0 MSTORE PUSH1 0x31 PUSH1 0x4 MSTORE PUSH1 0x24 PUSH1 0x0 REVERT INVALID LOG2 PUSH5 0x6970667358 0x22 SLT KECCAK256 0xD2 0x2A SSTORE 0xF7 PC PUSH18 0x759708C936D7EB7A1542144E9EEE49D7A34C PUSH28 0x31BEE9586C116464736F6C6343000811003300000000000000000000 "},"methodIdentifiers":{"acceptSetter()":"5f8e422f","addTokenIds(uint256[])":"263419b1","addUser(address[])":"cdfca7f2","claim()":"4e71d92d","nftToken()":"d06fcba8","owner()":"8da5cb5b","rewardAmount()":"f7b2a7be","tokenids(uint256)":"c502d2d0","transferOwner(address)":"4fb2e45d","userClaimed(address)":"3b7fcdca","users(address)":"a87430ba"}}}}}