{"contracts/stakeERC20.sol":{"StakeERC20":{"abi":[{"inputs":[{"internalType":"uint8","name":"maxWeeks","type":"uint8"},{"internalType":"uint256","name":"maxScale","type":"uint256"},{"internalType":"uint8","name":"lockWeeks","type":"uint8"},{"internalType":"uint256","name":"beginTime","type":"uint256"},{"internalType":"uint256","name":"endTime","type":"uint256"},{"internalType":"address","name":"_rewardToken","type":"address"},{"internalType":"address","name":"_lpToken","type":"address"}],"stateMutability":"nonpayable","type":"constructor"},{"anonymous":false,"inputs":[{"indexed":true,"internalType":"address","name":"user","type":"address"},{"indexed":false,"internalType":"uint256","name":"amount","type":"uint256"}],"name":"ClaimReward","type":"event"},{"anonymous":false,"inputs":[{"indexed":true,"internalType":"address","name":"user","type":"address"},{"indexed":false,"internalType":"uint256","name":"no","type":"uint256"},{"indexed":false,"internalType":"uint256","name":"amount","type":"uint256"}],"name":"SetReward","type":"event"},{"anonymous":false,"inputs":[{"indexed":true,"internalType":"address","name":"user","type":"address"},{"indexed":false,"internalType":"uint256","name":"id","type":"uint256"},{"indexed":false,"internalType":"uint256","name":"amount","type":"uint256"},{"indexed":false,"internalType":"uint8","name":"k","type":"uint8"}],"name":"Stake","type":"event"},{"anonymous":false,"inputs":[{"indexed":true,"internalType":"address","name":"user","type":"address"},{"indexed":false,"internalType":"uint256","name":"amount","type":"uint256"}],"name":"Withdraw","type":"event"},{"inputs":[],"name":"BEGIN_TIME","outputs":[{"internalType":"uint256","name":"","type":"uint256"}],"stateMutability":"view","type":"function"},{"inputs":[],"name":"END_TIME","outputs":[{"internalType":"uint256","name":"","type":"uint256"}],"stateMutability":"view","type":"function"},{"inputs":[],"name":"LOCK_WEEKNUM","outputs":[{"internalType":"uint8","name":"","type":"uint8"}],"stateMutability":"view","type":"function"},{"inputs":[],"name":"MAX_SCALE","outputs":[{"internalType":"uint256","name":"","type":"uint256"}],"stateMutability":"view","type":"function"},{"inputs":[],"name":"MAX_WEEKS","outputs":[{"internalType":"uint8","name":"","type":"uint8"}],"stateMutability":"view","type":"function"},{"inputs":[],"name":"WEEK_SECONDS","outputs":[{"internalType":"uint24","name":"","type":"uint24"}],"stateMutability":"view","type":"function"},{"inputs":[],"name":"acceptSetter","outputs":[],"stateMutability":"nonpayable","type":"function"},{"inputs":[],"name":"canClaimAmount","outputs":[{"internalType":"uint256","name":"","type":"uint256"}],"stateMutability":"view","type":"function"},{"inputs":[{"internalType":"uint256","name":"deadline","type":"uint256"}],"name":"claimReward","outputs":[],"stateMutability":"nonpayable","type":"function"},{"inputs":[{"internalType":"uint256","name":"amount","type":"uint256"},{"internalType":"uint8","name":"k","type":"uint8"}],"name":"getScore","outputs":[{"internalType":"uint256","name":"score","type":"uint256"}],"stateMutability":"view","type":"function"},{"inputs":[],"name":"getStaking","outputs":[{"components":[{"internalType":"uint256","name":"amount","type":"uint256"},{"internalType":"uint256","name":"score","type":"uint256"},{"internalType":"uint256","name":"beginNo","type":"uint256"},{"internalType":"uint256","name":"endNo","type":"uint256"}],"internalType":"struct StakeERC20.StakingERC20[]","name":"","type":"tuple[]"}],"stateMutability":"view","type":"function"},{"inputs":[],"name":"latestNo","outputs":[{"internalType":"uint256","name":"","type":"uint256"}],"stateMutability":"view","type":"function"},{"inputs":[],"name":"lockedRewardAmount","outputs":[{"internalType":"uint256","name":"","type":"uint256"},{"internalType":"uint256[]","name":"","type":"uint256[]"}],"stateMutability":"view","type":"function"},{"inputs":[],"name":"lpToken","outputs":[{"internalType":"address","name":"","type":"address"}],"stateMutability":"view","type":"function"},{"inputs":[],"name":"nonce","outputs":[{"internalType":"uint256","name":"","type":"uint256"}],"stateMutability":"view","type":"function"},{"inputs":[],"name":"owner","outputs":[{"internalType":"address","name":"","type":"address"}],"stateMutability":"view","type":"function"},{"inputs":[],"name":"rewardToken","outputs":[{"internalType":"address","name":"","type":"address"}],"stateMutability":"view","type":"function"},{"inputs":[{"internalType":"uint256","name":"","type":"uint256"}],"name":"rewardsOf","outputs":[{"internalType":"uint256","name":"","type":"uint256"}],"stateMutability":"view","type":"function"},{"inputs":[{"internalType":"uint256","name":"no","type":"uint256"},{"internalType":"uint256","name":"amount","type":"uint256"},{"internalType":"uint256","name":"deadline","type":"uint256"}],"name":"setReward","outputs":[],"stateMutability":"nonpayable","type":"function"},{"inputs":[{"internalType":"uint256[]","name":"nos","type":"uint256[]"},{"internalType":"uint256[]","name":"amounts","type":"uint256[]"},{"internalType":"uint256","name":"deadline","type":"uint256"}],"name":"setRewards","outputs":[{"internalType":"uint256","name":"total","type":"uint256"}],"stateMutability":"nonpayable","type":"function"},{"inputs":[{"internalType":"uint256","name":"amount","type":"uint256"},{"internalType":"uint8","name":"k","type":"uint8"},{"internalType":"uint256","name":"deadline","type":"uint256"}],"name":"stake","outputs":[],"stateMutability":"nonpayable","type":"function"},{"inputs":[{"internalType":"uint256","name":"","type":"uint256"}],"name":"stakingERC20s","outputs":[{"internalType":"uint256","name":"amount","type":"uint256"},{"internalType":"uint256","name":"score","type":"uint256"},{"internalType":"uint256","name":"beginNo","type":"uint256"},{"internalType":"uint256","name":"endNo","type":"uint256"}],"stateMutability":"view","type":"function"},{"inputs":[{"internalType":"uint256","name":"","type":"uint256"}],"name":"totalScores","outputs":[{"internalType":"uint256","name":"","type":"uint256"}],"stateMutability":"view","type":"function"},{"inputs":[{"internalType":"address","name":"_owner","type":"address"}],"name":"transferOwner","outputs":[],"stateMutability":"nonpayable","type":"function"},{"inputs":[{"internalType":"address","name":"","type":"address"},{"internalType":"uint256","name":"","type":"uint256"}],"name":"userCanClaimWeeks","outputs":[{"internalType":"uint256","name":"","type":"uint256"}],"stateMutability":"view","type":"function"},{"inputs":[{"internalType":"address","name":"","type":"address"},{"internalType":"uint256","name":"","type":"uint256"}],"name":"userERC20s","outputs":[{"internalType":"uint256","name":"","type":"uint256"}],"stateMutability":"view","type":"function"},{"inputs":[{"internalType":"address","name":"","type":"address"},{"internalType":"uint256","name":"","type":"uint256"}],"name":"userScores","outputs":[{"internalType":"uint256","name":"","type":"uint256"}],"stateMutability":"view","type":"function"},{"inputs":[{"internalType":"uint256","name":"deadline","type":"uint256"}],"name":"withdraw","outputs":[{"internalType":"uint256","name":"total","type":"uint256"}],"stateMutability":"nonpayable","type":"function"},{"inputs":[{"internalType":"uint256","name":"amount","type":"uint256"},{"internalType":"uint256","name":"deadline","type":"uint256"}],"name":"withdrawRewards","outputs":[],"stateMutability":"nonpayable","type":"function"}],"evm":{"bytecode":{"linkReferences":{},"object":"6101606040523480156200001257600080fd5b5060405162001eb038038062001eb08339810160408190526200003591620000ac565b6001600160a01b0391821660805260ff96871660a05260c0959095529490921660e0526101005261012052600080546001600160a01b03191633179055166101405262000126565b805160ff811681146200008f57600080fd5b919050565b80516001600160a01b03811681146200008f57600080fd5b600080600080600080600060e0888a031215620000c857600080fd5b620000d3886200007d565b965060208801519550620000ea604089016200007d565b945060608801519350608088015192506200010860a0890162000094565b91506200011860c0890162000094565b905092959891949750929550565b60805160a05160c05160e051610100516101205161014051611cb1620001ff600039600081816103160152818161088f015261138c0152600081816102940152818161105401526112dd0152600081816104320152818161107f015261130801526000818161021f01528181610b5001528181610c3a01528181610de20152610e460152600081816104c401526111ef0152600081816104770152818161118b015281816111b6015261127d0152600081816104eb015281816106930152818161098e01528181610f4f01526110e70152611cb16000f3fe608060405234801561001057600080fd5b50600436106101cf5760003560e01c80638923de2b11610104578063c75363b6116100a2578063ee3453ed11610071578063ee3453ed146104ac578063f6def7cf146104bf578063f7c618c1146104e6578063f99b7d751461050d57600080fd5b8063c75363b61461042d578063cd671a5814610454578063e11400bb14610472578063e1c05d931461049957600080fd5b8063ae169a50116100de578063ae169a50146103eb578063affed0e0146103fe578063ba08650114610407578063bb57852d1461041a57600080fd5b80638923de2b1461036d5780638da5cb5b14610383578063a218de151461039657600080fd5b80634fb2e45d116101715780635f8e422f1161014b5780635f8e422f146103095780635fcbd285146103115780637b1391a6146103505780638431165e1461036557600080fd5b80634fb2e45d146102b657806352cb5133146102cb5780635b680a45146102de57600080fd5b8063157775df116101ad578063157775df1461025357806329ed1cfd146102735780632e1a7d4d1461027c57806337ba682d1461028f57600080fd5b806307c6e2fa146101d45780630bce1284146101fa5780630d437d401461021a575b600080fd5b6101e76101e2366004611878565b610520565b6040519081526020015b60405180910390f35b6101e76102083660046118e5565b60056020526000908152604090205481565b6102417f000000000000000000000000000000000000000000000000000000000000000081565b60405160ff90911681526020016101f1565b6101e76102613660046118e5565b60046020526000908152604090205481565b6101e760065481565b6101e761028a3660046118e5565b6106ff565b6101e77f000000000000000000000000000000000000000000000000000000000000000081565b6102c96102c436600461191a565b6108f2565b005b6102c96102d9366004611935565b61093e565b6101e76102ec366004611957565b600260209081526000928352604080842090915290825290205481565b6102c96109b9565b6103387f000000000000000000000000000000000000000000000000000000000000000081565b6040516001600160a01b0390911681526020016101f1565b610358610a0a565b6040516101f19190611981565b6101e7610b49565b610375610c31565b6040516101f19291906119e5565b600054610338906001600160a01b031681565b6103cb6103a43660046118e5565b60086020526000908152604090208054600182015460028301546003909301549192909184565b6040805194855260208501939093529183015260608201526080016101f1565b6102c96103f93660046118e5565b610e1f565b6101e760075481565b6101e7610415366004611957565b610fb1565b6101e7610428366004611957565b610fe2565b6101e77f000000000000000000000000000000000000000000000000000000000000000081565b61045e62093a8081565b60405162ffffff90911681526020016101f1565b6102417f000000000000000000000000000000000000000000000000000000000000000081565b6102c96104a7366004611a33565b611007565b6101e76104ba366004611a70565b611182565b6101e77f000000000000000000000000000000000000000000000000000000000000000081565b6103387f000000000000000000000000000000000000000000000000000000000000000081565b6102c961051b366004611a9c565b61124c565b6000818042111561054c5760405162461bcd60e51b815260040161054390611ad1565b60405180910390fd5b6000546001600160a01b031633146105765760405162461bcd60e51b815260040161054390611af8565b83518551146105ba5760405162461bcd60e51b815260206004820152601060248201526f3830b930b6b2ba32b9399032b93937b960811b6044820152606401610543565b6000805b8651811015610688578581815181106105d9576105d9611b1b565b6020026020010151846105ec9190611b47565b935085818151811061060057610600611b1b565b60200260200101516005600089848151811061061e5761061e611b1b565b60200260200101518152602001908152602001600020819055508187828151811061064b5761064b611b1b565b602002602001015111156106765786818151811061066b5761066b611b1b565b602002602001015191505b8061068081611b60565b9150506105be565b5060068190556106ba7f00000000000000000000000000000000000000000000000000000000000000003330866115a0565b60408051600081526020810185905233917fc3991418cacd70a010fce559a44fcbb47534ca43bf7543964bdca2639f6e6e5a910160405180910390a250509392505050565b600081804211156107225760405162461bcd60e51b815260040161054390611ad1565b600061073162093a8042611b79565b336000908152600960205260409020549091505b3360009081526009602052604090205415610884578061076481611b9b565b3360009081526009602052604081208054929450909250908390811061078c5761078c611b1b565b9060005260206000200154905082600860008381526020019081526020016000206003015411610870576000818152600860205260409020546107cf9086611b47565b3360009081526009602052604090208054919650906107f090600190611bb2565b8154811061080057610800611b1b565b60009182526020808320909101543383526009909152604090912080548490811061082d5761082d611b1b565b600091825260208083209091019290925533815260099091526040902080548061085957610859611bc5565b600190038181906000526020600020016000905590555b8160000361087e5750610884565b50610745565b83156108b5576108b57f000000000000000000000000000000000000000000000000000000000000000033866116ba565b60405184815233907f884edad9ce6fa2440d8a54cc123490eb96d2768479d49ff9c7366125a94243649060200160405180910390a2505050919050565b6000546001600160a01b0316331461091c5760405162461bcd60e51b815260040161054390611af8565b600180546001600160a01b0319166001600160a01b0392909216919091179055565b808042111561095f5760405162461bcd60e51b815260040161054390611ad1565b6000546001600160a01b031633146109895760405162461bcd60e51b815260040161054390611af8565b6109b47f000000000000000000000000000000000000000000000000000000000000000033856116ba565b505050565b6001546001600160a01b031633146109e35760405162461bcd60e51b815260040161054390611af8565b60018054600080546001600160a01b03199081166001600160a01b03841617909155169055565b336000908152600960205260408120546060918167ffffffffffffffff811115610a3657610a366117c7565b604051908082528060200260200182016040528015610a9257816020015b610a7f6040518060800160405280600081526020016000815260200160008152602001600081525090565b815260200190600190039081610a545790505b50905060005b82811015610b42573360009081526009602052604081208054600892919084908110610ac657610ac6611b1b565b90600052602060002001548152602001908152602001600020604051806080016040529081600082015481526020016001820154815260200160028201548152602001600382015481525050828281518110610b2457610b24611b1b565b60200260200101819052508080610b3a90611b60565b915050610a98565b5092915050565b60008060ff7f000000000000000000000000000000000000000000000000000000000000000016610b7d62093a8042611b79565b610b879190611bb2565b33600090815260036020526040812054919250905b33600090815260036020526040902060010154811015610b4257828111610b425760008181526004602052604090205415610c1f57600081815260046020908152604080832054338452600283528184208585528352818420546005909352922054610c089190611bdb565b610c129190611b79565b610c1c9083611b47565b91505b80610c2981611b60565b915050610b9c565b600060608160ff7f000000000000000000000000000000000000000000000000000000000000000016610c6762093a8042611b79565b610c719190611bb2565b610c7c906001611b47565b33600090815260036020526040902090915081906001015411610cb15760408051600081526020810190915290939092509050565b33600090815260036020526040812080546001909101549091838311610cd75783610cd9565b825b90506000610ce78284611bb2565b67ffffffffffffffff811115610cff57610cff6117c7565b604051908082528060200260200182016040528015610d28578160200160208202803683370190505b509050815b83811015610dca5760008181526004602052604090205415610d8f57600081815260046020908152604080832054338452600283528184208585528352818420546005909352922054610d809190611bdb565b610d8a9190611b79565b610d92565b60005b82610d9d8584611bb2565b81518110610dad57610dad611b1b565b602090810291909101015280610dc281611b60565b915050610d2d565b506000610dda62093a8042611b79565b610e078460ff7f000000000000000000000000000000000000000000000000000000000000000016611b47565b610e119190611bb2565b989197509095505050505050565b8080421115610e405760405162461bcd60e51b815260040161054390611ad1565b600060ff7f000000000000000000000000000000000000000000000000000000000000000016610e7362093a8042611b79565b610e7d9190611bb2565b3360009081526003602052604081205491925090805b33600090815260036020526040902060010154811015610f3657838111610f3657610ebf816001611b47565b60008281526004602052604090205490925015610f2457600081815260046020908152604080832054338452600283528184208585528352818420546005909352922054610f0d9190611bdb565b610f179190611b79565b610f219084611b47565b92505b80610f2e81611b60565b915050610e93565b5033600090815260036020526040812082910155610f757f000000000000000000000000000000000000000000000000000000000000000033846116ba565b60405182815233907fba8de60c3403ec381d1d484652ea1980e3c3e56359195c92525bff4ce47ad98e9060200160405180910390a25050505050565b60096020528160005260406000208181548110610fcd57600080fd5b90600052602060002001600091509150505481565b60036020528160005260406000208160028110610ffe57600080fd5b01549150829050565b80804211156110285760405162461bcd60e51b815260040161054390611ad1565b6000546001600160a01b031633146110525760405162461bcd60e51b815260040161054390611af8565b7f000000000000000000000000000000000000000000000000000000000000000042111580156110a257507f00000000000000000000000000000000000000000000000000000000000000004210155b6110e25760405162461bcd60e51b81526020600482015260116024820152701b9bdd081a5b881d1a19481c195c9a5bd9607a1b6044820152606401610543565b61110e7f00000000000000000000000000000000000000000000000000000000000000003330866115a0565b6000848152600560205260408120805485929061112c908490611b47565b90915550506006548411156111415760068490555b604080518581526020810185905233917fc3991418cacd70a010fce559a44fcbb47534ca43bf7543964bdca2639f6e6e5a910160405180910390a250505050565b60006111af60017f0000000000000000000000000000000000000000000000000000000000000000611bf2565b60ff1660017f000000000000000000000000000000000000000000000000000000000000000060ff166001856111e59190611bf2565b60ff1661121360017f0000000000000000000000000000000000000000000000000000000000000000611bb2565b61121d9190611bdb565b6112279190611b47565b6112319190611bb2565b61123b9085611bdb565b6112459190611b79565b9392505050565b808042111561126d5760405162461bcd60e51b815260040161054390611ad1565b60008360ff161180156112a657507f000000000000000000000000000000000000000000000000000000000000000060ff168360ff1611155b6112db5760405162461bcd60e51b8152602060048201526006602482015265359018bf1a9960d11b6044820152606401610543565b7f0000000000000000000000000000000000000000000000000000000000000000421115801561132b57507f00000000000000000000000000000000000000000000000000000000000000004210155b61136b5760405162461bcd60e51b81526020600482015260116024820152701b9bdd081a5b881d1a19481c195c9a5bd9607a1b6044820152606401610543565b600061137a62093a8042611b79565b611385906001611b47565b90506113b37f00000000000000000000000000000000000000000000000000000000000000003330886115a0565b60006113bf8686611182565b905060005b8560ff168160ff1610156114595781600460006113e460ff851687611b47565b815260200190815260200160002060008282546114019190611b47565b9091555050336000908152600260205260408120839161142460ff851687611b47565b815260200190815260200160002060008282546114419190611b47565b9091555081905061145181611c0b565b9150506113c4565b50600061146960ff871684611b47565b604080516080810182528981526020808201868152828401888152606084018681526007546000908152600885528681209551865592516001808701919091559151600286015551600394850155338252929091529190912090810154905491925090036114e4573360009081526003602052604090208390555b3360009081526003602052604090208190600101541015611515573360009081526003602052604090208190600101555b3360008181526009602090815260408083206007805482546001810184559286529484902090910193909355915482519081529081018a905260ff89168183015290517f6fa2f6021ee337436cdf2b2570285886da18bc06402ce284d296504a0fe8f8759181900360600190a26007805490600061159283611b60565b919050555050505050505050565b604080516001600160a01b0385811660248301528481166044830152606480830185905283518084039091018152608490920183526020820180516001600160e01b03166323b872dd60e01b17905291516000928392908816916116049190611c2a565b6000604051808303816000865af19150503d8060008114611641576040519150601f19603f3d011682016040523d82523d6000602084013e611646565b606091505b50915091508180156116705750805115806116705750808060200190518101906116709190611c59565b6116b25760405162461bcd60e51b81526020600482015260136024820152721d1c985b9cd9995c919c9bdb4819985a5b1959606a1b6044820152606401610543565b505050505050565b604080516001600160a01b038481166024830152604480830185905283518084039091018152606490920183526020820180516001600160e01b031663a9059cbb60e01b17905291516000928392908716916117169190611c2a565b6000604051808303816000865af19150503d8060008114611753576040519150601f19603f3d011682016040523d82523d6000602084013e611758565b606091505b50915091508180156117825750805115806117825750808060200190518101906117829190611c59565b6117c05760405162461bcd60e51b815260206004820152600f60248201526e1514905394d1915497d19052531151608a1b6044820152606401610543565b5050505050565b634e487b7160e01b600052604160045260246000fd5b600082601f8301126117ee57600080fd5b8135602067ffffffffffffffff8083111561180b5761180b6117c7565b8260051b604051601f19603f83011681018181108482111715611830576118306117c7565b60405293845285810183019383810192508785111561184e57600080fd5b83870191505b8482101561186d57813583529183019190830190611854565b979650505050505050565b60008060006060848603121561188d57600080fd5b833567ffffffffffffffff808211156118a557600080fd5b6118b1878388016117dd565b945060208601359150808211156118c757600080fd5b506118d4868287016117dd565b925050604084013590509250925092565b6000602082840312156118f757600080fd5b5035919050565b80356001600160a01b038116811461191557600080fd5b919050565b60006020828403121561192c57600080fd5b611245826118fe565b6000806040838503121561194857600080fd5b50508035926020909101359150565b6000806040838503121561196a57600080fd5b611973836118fe565b946020939093013593505050565b602080825282518282018190526000919060409081850190868401855b828110156119d85781518051855286810151878601528581015186860152606090810151908501526080909301929085019060010161199e565b5091979650505050505050565b6000604082018483526020604081850152818551808452606086019150828701935060005b81811015611a2657845183529383019391830191600101611a0a565b5090979650505050505050565b600080600060608486031215611a4857600080fd5b505081359360208301359350604090920135919050565b803560ff8116811461191557600080fd5b60008060408385031215611a8357600080fd5b82359150611a9360208401611a5f565b90509250929050565b600080600060608486031215611ab157600080fd5b83359250611ac160208501611a5f565b9150604084013590509250925092565b6020808252600d908201526c6f76657220646561646c696e6560981b604082015260600190565b6020808252600990820152683337b93134b23232b760b91b604082015260600190565b634e487b7160e01b600052603260045260246000fd5b634e487b7160e01b600052601160045260246000fd5b80820180821115611b5a57611b5a611b31565b92915050565b600060018201611b7257611b72611b31565b5060010190565b600082611b9657634e487b7160e01b600052601260045260246000fd5b500490565b600081611baa57611baa611b31565b506000190190565b81810381811115611b5a57611b5a611b31565b634e487b7160e01b600052603160045260246000fd5b8082028115828204841417611b5a57611b5a611b31565b60ff8281168282160390811115611b5a57611b5a611b31565b600060ff821660ff8103611c2157611c21611b31565b60010192915050565b6000825160005b81811015611c4b5760208186018101518583015201611c31565b506000920191825250919050565b600060208284031215611c6b57600080fd5b8151801515811461124557600080fdfea264697066735822122084b0982e05bf155eea1bd86473973f03c2377313ca04e71ce2f3e23afbaf0ec064736f6c63430008110033","opcodes":"PUSH2 0x160 PUSH1 0x40 MSTORE CALLVALUE DUP1 ISZERO PUSH3 0x12 JUMPI PUSH1 0x0 DUP1 REVERT JUMPDEST POP PUSH1 0x40 MLOAD PUSH3 0x1EB0 CODESIZE SUB DUP1 PUSH3 0x1EB0 DUP4 CODECOPY DUP2 ADD PUSH1 0x40 DUP2 SWAP1 MSTORE PUSH3 0x35 SWAP2 PUSH3 0xAC JUMP JUMPDEST PUSH1 0x1 PUSH1 0x1 PUSH1 0xA0 SHL SUB SWAP2 DUP3 AND PUSH1 0x80 MSTORE PUSH1 0xFF SWAP7 DUP8 AND PUSH1 0xA0 MSTORE PUSH1 0xC0 SWAP6 SWAP1 SWAP6 MSTORE SWAP5 SWAP1 SWAP3 AND PUSH1 0xE0 MSTORE PUSH2 0x100 MSTORE PUSH2 0x120 MSTORE PUSH1 0x0 DUP1 SLOAD PUSH1 0x1 PUSH1 0x1 PUSH1 0xA0 SHL SUB NOT AND CALLER OR SWAP1 SSTORE AND PUSH2 0x140 MSTORE PUSH3 0x126 JUMP JUMPDEST DUP1 MLOAD PUSH1 0xFF DUP2 AND DUP2 EQ PUSH3 0x8F JUMPI PUSH1 0x0 DUP1 REVERT JUMPDEST SWAP2 SWAP1 POP JUMP JUMPDEST DUP1 MLOAD PUSH1 0x1 PUSH1 0x1 PUSH1 0xA0 SHL SUB DUP2 AND DUP2 EQ PUSH3 0x8F JUMPI PUSH1 0x0 DUP1 REVERT JUMPDEST PUSH1 0x0 DUP1 PUSH1 0x0 DUP1 PUSH1 0x0 DUP1 PUSH1 0x0 PUSH1 0xE0 DUP9 DUP11 SUB SLT ISZERO PUSH3 0xC8 JUMPI PUSH1 0x0 DUP1 REVERT JUMPDEST PUSH3 0xD3 DUP9 PUSH3 0x7D JUMP JUMPDEST SWAP7 POP PUSH1 0x20 DUP9 ADD MLOAD SWAP6 POP PUSH3 0xEA PUSH1 0x40 DUP10 ADD PUSH3 0x7D JUMP JUMPDEST SWAP5 POP PUSH1 0x60 DUP9 ADD MLOAD SWAP4 POP PUSH1 0x80 DUP9 ADD MLOAD SWAP3 POP PUSH3 0x108 PUSH1 0xA0 DUP10 ADD PUSH3 0x94 JUMP JUMPDEST SWAP2 POP PUSH3 0x118 PUSH1 0xC0 DUP10 ADD PUSH3 0x94 JUMP JUMPDEST SWAP1 POP SWAP3 SWAP6 SWAP9 SWAP2 SWAP5 SWAP8 POP SWAP3 SWAP6 POP JUMP JUMPDEST PUSH1 0x80 MLOAD PUSH1 0xA0 MLOAD PUSH1 0xC0 MLOAD PUSH1 0xE0 MLOAD PUSH2 0x100 MLOAD PUSH2 0x120 MLOAD PUSH2 0x140 MLOAD PUSH2 0x1CB1 PUSH3 0x1FF PUSH1 0x0 CODECOPY PUSH1 0x0 DUP2 DUP2 PUSH2 0x316 ADD MSTORE DUP2 DUP2 PUSH2 0x88F ADD MSTORE PUSH2 0x138C ADD MSTORE PUSH1 0x0 DUP2 DUP2 PUSH2 0x294 ADD MSTORE DUP2 DUP2 PUSH2 0x1054 ADD MSTORE PUSH2 0x12DD ADD MSTORE PUSH1 0x0 DUP2 DUP2 PUSH2 0x432 ADD MSTORE DUP2 DUP2 PUSH2 0x107F ADD MSTORE PUSH2 0x1308 ADD MSTORE PUSH1 0x0 DUP2 DUP2 PUSH2 0x21F ADD MSTORE DUP2 DUP2 PUSH2 0xB50 ADD MSTORE DUP2 DUP2 PUSH2 0xC3A ADD MSTORE DUP2 DUP2 PUSH2 0xDE2 ADD MSTORE PUSH2 0xE46 ADD MSTORE PUSH1 0x0 DUP2 DUP2 PUSH2 0x4C4 ADD MSTORE PUSH2 0x11EF ADD MSTORE PUSH1 0x0 DUP2 DUP2 PUSH2 0x477 ADD MSTORE DUP2 DUP2 PUSH2 0x118B ADD MSTORE DUP2 DUP2 PUSH2 0x11B6 ADD MSTORE PUSH2 0x127D ADD MSTORE PUSH1 0x0 DUP2 DUP2 PUSH2 0x4EB ADD MSTORE DUP2 DUP2 PUSH2 0x693 ADD MSTORE DUP2 DUP2 PUSH2 0x98E ADD MSTORE DUP2 DUP2 PUSH2 0xF4F ADD MSTORE PUSH2 0x10E7 ADD MSTORE PUSH2 0x1CB1 PUSH1 0x0 RETURN INVALID PUSH1 0x80 PUSH1 0x40 MSTORE CALLVALUE DUP1 ISZERO PUSH2 0x10 JUMPI PUSH1 0x0 DUP1 REVERT JUMPDEST POP PUSH1 0x4 CALLDATASIZE LT PUSH2 0x1CF JUMPI PUSH1 0x0 CALLDATALOAD PUSH1 0xE0 SHR DUP1 PUSH4 0x8923DE2B GT PUSH2 0x104 JUMPI DUP1 PUSH4 0xC75363B6 GT PUSH2 0xA2 JUMPI DUP1 PUSH4 0xEE3453ED GT PUSH2 0x71 JUMPI DUP1 PUSH4 0xEE3453ED EQ PUSH2 0x4AC JUMPI DUP1 PUSH4 0xF6DEF7CF EQ PUSH2 0x4BF JUMPI DUP1 PUSH4 0xF7C618C1 EQ PUSH2 0x4E6 JUMPI DUP1 PUSH4 0xF99B7D75 EQ PUSH2 0x50D JUMPI PUSH1 0x0 DUP1 REVERT JUMPDEST DUP1 PUSH4 0xC75363B6 EQ PUSH2 0x42D JUMPI DUP1 PUSH4 0xCD671A58 EQ PUSH2 0x454 JUMPI DUP1 PUSH4 0xE11400BB EQ PUSH2 0x472 JUMPI DUP1 PUSH4 0xE1C05D93 EQ PUSH2 0x499 JUMPI PUSH1 0x0 DUP1 REVERT JUMPDEST DUP1 PUSH4 0xAE169A50 GT PUSH2 0xDE JUMPI DUP1 PUSH4 0xAE169A50 EQ PUSH2 0x3EB JUMPI DUP1 PUSH4 0xAFFED0E0 EQ PUSH2 0x3FE JUMPI DUP1 PUSH4 0xBA086501 EQ PUSH2 0x407 JUMPI DUP1 PUSH4 0xBB57852D EQ PUSH2 0x41A JUMPI PUSH1 0x0 DUP1 REVERT JUMPDEST DUP1 PUSH4 0x8923DE2B EQ PUSH2 0x36D JUMPI DUP1 PUSH4 0x8DA5CB5B EQ PUSH2 0x383 JUMPI DUP1 PUSH4 0xA218DE15 EQ PUSH2 0x396 JUMPI PUSH1 0x0 DUP1 REVERT JUMPDEST DUP1 PUSH4 0x4FB2E45D GT PUSH2 0x171 JUMPI DUP1 PUSH4 0x5F8E422F GT PUSH2 0x14B JUMPI DUP1 PUSH4 0x5F8E422F EQ PUSH2 0x309 JUMPI DUP1 PUSH4 0x5FCBD285 EQ PUSH2 0x311 JUMPI DUP1 PUSH4 0x7B1391A6 EQ PUSH2 0x350 JUMPI DUP1 PUSH4 0x8431165E EQ PUSH2 0x365 JUMPI PUSH1 0x0 DUP1 REVERT JUMPDEST DUP1 PUSH4 0x4FB2E45D EQ PUSH2 0x2B6 JUMPI DUP1 PUSH4 0x52CB5133 EQ PUSH2 0x2CB JUMPI DUP1 PUSH4 0x5B680A45 EQ PUSH2 0x2DE JUMPI PUSH1 0x0 DUP1 REVERT JUMPDEST DUP1 PUSH4 0x157775DF GT PUSH2 0x1AD JUMPI DUP1 PUSH4 0x157775DF EQ PUSH2 0x253 JUMPI DUP1 PUSH4 0x29ED1CFD EQ PUSH2 0x273 JUMPI DUP1 PUSH4 0x2E1A7D4D EQ PUSH2 0x27C JUMPI DUP1 PUSH4 0x37BA682D EQ PUSH2 0x28F JUMPI PUSH1 0x0 DUP1 REVERT JUMPDEST DUP1 PUSH4 0x7C6E2FA EQ PUSH2 0x1D4 JUMPI DUP1 PUSH4 0xBCE1284 EQ PUSH2 0x1FA JUMPI DUP1 PUSH4 0xD437D40 EQ PUSH2 0x21A JUMPI JUMPDEST PUSH1 0x0 DUP1 REVERT JUMPDEST PUSH2 0x1E7 PUSH2 0x1E2 CALLDATASIZE PUSH1 0x4 PUSH2 0x1878 JUMP JUMPDEST PUSH2 0x520 JUMP JUMPDEST PUSH1 0x40 MLOAD SWAP1 DUP2 MSTORE PUSH1 0x20 ADD JUMPDEST PUSH1 0x40 MLOAD DUP1 SWAP2 SUB SWAP1 RETURN JUMPDEST PUSH2 0x1E7 PUSH2 0x208 CALLDATASIZE PUSH1 0x4 PUSH2 0x18E5 JUMP JUMPDEST PUSH1 0x5 PUSH1 0x20 MSTORE PUSH1 0x0 SWAP1 DUP2 MSTORE PUSH1 0x40 SWAP1 KECCAK256 SLOAD DUP2 JUMP JUMPDEST PUSH2 0x241 PUSH32 0x0 DUP2 JUMP JUMPDEST PUSH1 0x40 MLOAD PUSH1 0xFF SWAP1 SWAP2 AND DUP2 MSTORE PUSH1 0x20 ADD PUSH2 0x1F1 JUMP JUMPDEST PUSH2 0x1E7 PUSH2 0x261 CALLDATASIZE PUSH1 0x4 PUSH2 0x18E5 JUMP JUMPDEST PUSH1 0x4 PUSH1 0x20 MSTORE PUSH1 0x0 SWAP1 DUP2 MSTORE PUSH1 0x40 SWAP1 KECCAK256 SLOAD DUP2 JUMP JUMPDEST PUSH2 0x1E7 PUSH1 0x6 SLOAD DUP2 JUMP JUMPDEST PUSH2 0x1E7 PUSH2 0x28A CALLDATASIZE PUSH1 0x4 PUSH2 0x18E5 JUMP JUMPDEST PUSH2 0x6FF JUMP JUMPDEST PUSH2 0x1E7 PUSH32 0x0 DUP2 JUMP JUMPDEST PUSH2 0x2C9 PUSH2 0x2C4 CALLDATASIZE PUSH1 0x4 PUSH2 0x191A JUMP JUMPDEST PUSH2 0x8F2 JUMP JUMPDEST STOP JUMPDEST PUSH2 0x2C9 PUSH2 0x2D9 CALLDATASIZE PUSH1 0x4 PUSH2 0x1935 JUMP JUMPDEST PUSH2 0x93E JUMP JUMPDEST PUSH2 0x1E7 PUSH2 0x2EC CALLDATASIZE PUSH1 0x4 PUSH2 0x1957 JUMP JUMPDEST PUSH1 0x2 PUSH1 0x20 SWAP1 DUP2 MSTORE PUSH1 0x0 SWAP3 DUP4 MSTORE PUSH1 0x40 DUP1 DUP5 KECCAK256 SWAP1 SWAP2 MSTORE SWAP1 DUP3 MSTORE SWAP1 KECCAK256 SLOAD DUP2 JUMP JUMPDEST PUSH2 0x2C9 PUSH2 0x9B9 JUMP JUMPDEST PUSH2 0x338 PUSH32 0x0 DUP2 JUMP JUMPDEST PUSH1 0x40 MLOAD PUSH1 0x1 PUSH1 0x1 PUSH1 0xA0 SHL SUB SWAP1 SWAP2 AND DUP2 MSTORE PUSH1 0x20 ADD PUSH2 0x1F1 JUMP JUMPDEST PUSH2 0x358 PUSH2 0xA0A JUMP JUMPDEST PUSH1 0x40 MLOAD PUSH2 0x1F1 SWAP2 SWAP1 PUSH2 0x1981 JUMP JUMPDEST PUSH2 0x1E7 PUSH2 0xB49 JUMP JUMPDEST PUSH2 0x375 PUSH2 0xC31 JUMP JUMPDEST PUSH1 0x40 MLOAD PUSH2 0x1F1 SWAP3 SWAP2 SWAP1 PUSH2 0x19E5 JUMP JUMPDEST PUSH1 0x0 SLOAD PUSH2 0x338 SWAP1 PUSH1 0x1 PUSH1 0x1 PUSH1 0xA0 SHL SUB AND DUP2 JUMP JUMPDEST PUSH2 0x3CB PUSH2 0x3A4 CALLDATASIZE PUSH1 0x4 PUSH2 0x18E5 JUMP JUMPDEST PUSH1 0x8 PUSH1 0x20 MSTORE PUSH1 0x0 SWAP1 DUP2 MSTORE PUSH1 0x40 SWAP1 KECCAK256 DUP1 SLOAD PUSH1 0x1 DUP3 ADD SLOAD PUSH1 0x2 DUP4 ADD SLOAD PUSH1 0x3 SWAP1 SWAP4 ADD SLOAD SWAP2 SWAP3 SWAP1 SWAP2 DUP5 JUMP JUMPDEST PUSH1 0x40 DUP1 MLOAD SWAP5 DUP6 MSTORE PUSH1 0x20 DUP6 ADD SWAP4 SWAP1 SWAP4 MSTORE SWAP2 DUP4 ADD MSTORE PUSH1 0x60 DUP3 ADD MSTORE PUSH1 0x80 ADD PUSH2 0x1F1 JUMP JUMPDEST PUSH2 0x2C9 PUSH2 0x3F9 CALLDATASIZE PUSH1 0x4 PUSH2 0x18E5 JUMP JUMPDEST PUSH2 0xE1F JUMP JUMPDEST PUSH2 0x1E7 PUSH1 0x7 SLOAD DUP2 JUMP JUMPDEST PUSH2 0x1E7 PUSH2 0x415 CALLDATASIZE PUSH1 0x4 PUSH2 0x1957 JUMP JUMPDEST PUSH2 0xFB1 JUMP JUMPDEST PUSH2 0x1E7 PUSH2 0x428 CALLDATASIZE PUSH1 0x4 PUSH2 0x1957 JUMP JUMPDEST PUSH2 0xFE2 JUMP JUMPDEST PUSH2 0x1E7 PUSH32 0x0 DUP2 JUMP JUMPDEST PUSH2 0x45E PUSH3 0x93A80 DUP2 JUMP JUMPDEST PUSH1 0x40 MLOAD PUSH3 0xFFFFFF SWAP1 SWAP2 AND DUP2 MSTORE PUSH1 0x20 ADD PUSH2 0x1F1 JUMP JUMPDEST PUSH2 0x241 PUSH32 0x0 DUP2 JUMP JUMPDEST PUSH2 0x2C9 PUSH2 0x4A7 CALLDATASIZE PUSH1 0x4 PUSH2 0x1A33 JUMP JUMPDEST PUSH2 0x1007 JUMP JUMPDEST PUSH2 0x1E7 PUSH2 0x4BA CALLDATASIZE PUSH1 0x4 PUSH2 0x1A70 JUMP JUMPDEST PUSH2 0x1182 JUMP JUMPDEST PUSH2 0x1E7 PUSH32 0x0 DUP2 JUMP JUMPDEST PUSH2 0x338 PUSH32 0x0 DUP2 JUMP JUMPDEST PUSH2 0x2C9 PUSH2 0x51B CALLDATASIZE PUSH1 0x4 PUSH2 0x1A9C JUMP JUMPDEST PUSH2 0x124C JUMP JUMPDEST PUSH1 0x0 DUP2 DUP1 TIMESTAMP GT ISZERO PUSH2 0x54C JUMPI PUSH1 0x40 MLOAD PUSH3 0x461BCD PUSH1 0xE5 SHL DUP2 MSTORE PUSH1 0x4 ADD PUSH2 0x543 SWAP1 PUSH2 0x1AD1 JUMP JUMPDEST PUSH1 0x40 MLOAD DUP1 SWAP2 SUB SWAP1 REVERT JUMPDEST PUSH1 0x0 SLOAD PUSH1 0x1 PUSH1 0x1 PUSH1 0xA0 SHL SUB AND CALLER EQ PUSH2 0x576 JUMPI PUSH1 0x40 MLOAD PUSH3 0x461BCD PUSH1 0xE5 SHL DUP2 MSTORE PUSH1 0x4 ADD PUSH2 0x543 SWAP1 PUSH2 0x1AF8 JUMP JUMPDEST DUP4 MLOAD DUP6 MLOAD EQ PUSH2 0x5BA JUMPI PUSH1 0x40 MLOAD PUSH3 0x461BCD PUSH1 0xE5 SHL DUP2 MSTORE PUSH1 0x20 PUSH1 0x4 DUP3 ADD MSTORE PUSH1 0x10 PUSH1 0x24 DUP3 ADD MSTORE PUSH16 0x3830B930B6B2BA32B9399032B93937B9 PUSH1 0x81 SHL PUSH1 0x44 DUP3 ADD MSTORE PUSH1 0x64 ADD PUSH2 0x543 JUMP JUMPDEST PUSH1 0x0 DUP1 JUMPDEST DUP7 MLOAD DUP2 LT ISZERO PUSH2 0x688 JUMPI DUP6 DUP2 DUP2 MLOAD DUP2 LT PUSH2 0x5D9 JUMPI PUSH2 0x5D9 PUSH2 0x1B1B JUMP JUMPDEST PUSH1 0x20 MUL PUSH1 0x20 ADD ADD MLOAD DUP5 PUSH2 0x5EC SWAP2 SWAP1 PUSH2 0x1B47 JUMP JUMPDEST SWAP4 POP DUP6 DUP2 DUP2 MLOAD DUP2 LT PUSH2 0x600 JUMPI PUSH2 0x600 PUSH2 0x1B1B JUMP JUMPDEST PUSH1 0x20 MUL PUSH1 0x20 ADD ADD MLOAD PUSH1 0x5 PUSH1 0x0 DUP10 DUP5 DUP2 MLOAD DUP2 LT PUSH2 0x61E JUMPI PUSH2 0x61E PUSH2 0x1B1B JUMP JUMPDEST PUSH1 0x20 MUL PUSH1 0x20 ADD ADD MLOAD DUP2 MSTORE PUSH1 0x20 ADD SWAP1 DUP2 MSTORE PUSH1 0x20 ADD PUSH1 0x0 KECCAK256 DUP2 SWAP1 SSTORE POP DUP2 DUP8 DUP3 DUP2 MLOAD DUP2 LT PUSH2 0x64B JUMPI PUSH2 0x64B PUSH2 0x1B1B JUMP JUMPDEST PUSH1 0x20 MUL PUSH1 0x20 ADD ADD MLOAD GT ISZERO PUSH2 0x676 JUMPI DUP7 DUP2 DUP2 MLOAD DUP2 LT PUSH2 0x66B JUMPI PUSH2 0x66B PUSH2 0x1B1B JUMP JUMPDEST PUSH1 0x20 MUL PUSH1 0x20 ADD ADD MLOAD SWAP2 POP JUMPDEST DUP1 PUSH2 0x680 DUP2 PUSH2 0x1B60 JUMP JUMPDEST SWAP2 POP POP PUSH2 0x5BE JUMP JUMPDEST POP PUSH1 0x6 DUP2 SWAP1 SSTORE PUSH2 0x6BA PUSH32 0x0 CALLER ADDRESS DUP7 PUSH2 0x15A0 JUMP JUMPDEST PUSH1 0x40 DUP1 MLOAD PUSH1 0x0 DUP2 MSTORE PUSH1 0x20 DUP2 ADD DUP6 SWAP1 MSTORE CALLER SWAP2 PUSH32 0xC3991418CACD70A010FCE559A44FCBB47534CA43BF7543964BDCA2639F6E6E5A SWAP2 ADD PUSH1 0x40 MLOAD DUP1 SWAP2 SUB SWAP1 LOG2 POP POP SWAP4 SWAP3 POP POP POP JUMP JUMPDEST PUSH1 0x0 DUP2 DUP1 TIMESTAMP GT ISZERO PUSH2 0x722 JUMPI PUSH1 0x40 MLOAD PUSH3 0x461BCD PUSH1 0xE5 SHL DUP2 MSTORE PUSH1 0x4 ADD PUSH2 0x543 SWAP1 PUSH2 0x1AD1 JUMP JUMPDEST PUSH1 0x0 PUSH2 0x731 PUSH3 0x93A80 TIMESTAMP PUSH2 0x1B79 JUMP JUMPDEST CALLER PUSH1 0x0 SWAP1 DUP2 MSTORE PUSH1 0x9 PUSH1 0x20 MSTORE PUSH1 0x40 SWAP1 KECCAK256 SLOAD SWAP1 SWAP2 POP JUMPDEST CALLER PUSH1 0x0 SWAP1 DUP2 MSTORE PUSH1 0x9 PUSH1 0x20 MSTORE PUSH1 0x40 SWAP1 KECCAK256 SLOAD ISZERO PUSH2 0x884 JUMPI DUP1 PUSH2 0x764 DUP2 PUSH2 0x1B9B JUMP JUMPDEST CALLER PUSH1 0x0 SWAP1 DUP2 MSTORE PUSH1 0x9 PUSH1 0x20 MSTORE PUSH1 0x40 DUP2 KECCAK256 DUP1 SLOAD SWAP3 SWAP5 POP SWAP1 SWAP3 POP SWAP1 DUP4 SWAP1 DUP2 LT PUSH2 0x78C JUMPI PUSH2 0x78C PUSH2 0x1B1B JUMP JUMPDEST SWAP1 PUSH1 0x0 MSTORE PUSH1 0x20 PUSH1 0x0 KECCAK256 ADD SLOAD SWAP1 POP DUP3 PUSH1 0x8 PUSH1 0x0 DUP4 DUP2 MSTORE PUSH1 0x20 ADD SWAP1 DUP2 MSTORE PUSH1 0x20 ADD PUSH1 0x0 KECCAK256 PUSH1 0x3 ADD SLOAD GT PUSH2 0x870 JUMPI PUSH1 0x0 DUP2 DUP2 MSTORE PUSH1 0x8 PUSH1 0x20 MSTORE PUSH1 0x40 SWAP1 KECCAK256 SLOAD PUSH2 0x7CF SWAP1 DUP7 PUSH2 0x1B47 JUMP JUMPDEST CALLER PUSH1 0x0 SWAP1 DUP2 MSTORE PUSH1 0x9 PUSH1 0x20 MSTORE PUSH1 0x40 SWAP1 KECCAK256 DUP1 SLOAD SWAP2 SWAP7 POP SWAP1 PUSH2 0x7F0 SWAP1 PUSH1 0x1 SWAP1 PUSH2 0x1BB2 JUMP JUMPDEST DUP2 SLOAD DUP2 LT PUSH2 0x800 JUMPI PUSH2 0x800 PUSH2 0x1B1B JUMP JUMPDEST PUSH1 0x0 SWAP2 DUP3 MSTORE PUSH1 0x20 DUP1 DUP4 KECCAK256 SWAP1 SWAP2 ADD SLOAD CALLER DUP4 MSTORE PUSH1 0x9 SWAP1 SWAP2 MSTORE PUSH1 0x40 SWAP1 SWAP2 KECCAK256 DUP1 SLOAD DUP5 SWAP1 DUP2 LT PUSH2 0x82D JUMPI PUSH2 0x82D PUSH2 0x1B1B JUMP JUMPDEST PUSH1 0x0 SWAP2 DUP3 MSTORE PUSH1 0x20 DUP1 DUP4 KECCAK256 SWAP1 SWAP2 ADD SWAP3 SWAP1 SWAP3 SSTORE CALLER DUP2 MSTORE PUSH1 0x9 SWAP1 SWAP2 MSTORE PUSH1 0x40 SWAP1 KECCAK256 DUP1 SLOAD DUP1 PUSH2 0x859 JUMPI PUSH2 0x859 PUSH2 0x1BC5 JUMP JUMPDEST PUSH1 0x1 SWAP1 SUB DUP2 DUP2 SWAP1 PUSH1 0x0 MSTORE PUSH1 0x20 PUSH1 0x0 KECCAK256 ADD PUSH1 0x0 SWAP1 SSTORE SWAP1 SSTORE JUMPDEST DUP2 PUSH1 0x0 SUB PUSH2 0x87E JUMPI POP PUSH2 0x884 JUMP JUMPDEST POP PUSH2 0x745 JUMP JUMPDEST DUP4 ISZERO PUSH2 0x8B5 JUMPI PUSH2 0x8B5 PUSH32 0x0 CALLER DUP7 PUSH2 0x16BA JUMP JUMPDEST PUSH1 0x40 MLOAD DUP5 DUP2 MSTORE CALLER SWAP1 PUSH32 0x884EDAD9CE6FA2440D8A54CC123490EB96D2768479D49FF9C7366125A9424364 SWAP1 PUSH1 0x20 ADD PUSH1 0x40 MLOAD DUP1 SWAP2 SUB SWAP1 LOG2 POP POP POP SWAP2 SWAP1 POP JUMP JUMPDEST PUSH1 0x0 SLOAD PUSH1 0x1 PUSH1 0x1 PUSH1 0xA0 SHL SUB AND CALLER EQ PUSH2 0x91C JUMPI PUSH1 0x40 MLOAD PUSH3 0x461BCD PUSH1 0xE5 SHL DUP2 MSTORE PUSH1 0x4 ADD PUSH2 0x543 SWAP1 PUSH2 0x1AF8 JUMP JUMPDEST PUSH1 0x1 DUP1 SLOAD PUSH1 0x1 PUSH1 0x1 PUSH1 0xA0 SHL SUB NOT AND PUSH1 0x1 PUSH1 0x1 PUSH1 0xA0 SHL SUB SWAP3 SWAP1 SWAP3 AND SWAP2 SWAP1 SWAP2 OR SWAP1 SSTORE JUMP JUMPDEST DUP1 DUP1 TIMESTAMP GT ISZERO PUSH2 0x95F JUMPI PUSH1 0x40 MLOAD PUSH3 0x461BCD PUSH1 0xE5 SHL DUP2 MSTORE PUSH1 0x4 ADD PUSH2 0x543 SWAP1 PUSH2 0x1AD1 JUMP JUMPDEST PUSH1 0x0 SLOAD PUSH1 0x1 PUSH1 0x1 PUSH1 0xA0 SHL SUB AND CALLER EQ PUSH2 0x989 JUMPI PUSH1 0x40 MLOAD PUSH3 0x461BCD PUSH1 0xE5 SHL DUP2 MSTORE PUSH1 0x4 ADD PUSH2 0x543 SWAP1 PUSH2 0x1AF8 JUMP JUMPDEST PUSH2 0x9B4 PUSH32 0x0 CALLER DUP6 PUSH2 0x16BA JUMP JUMPDEST POP POP POP JUMP JUMPDEST PUSH1 0x1 SLOAD PUSH1 0x1 PUSH1 0x1 PUSH1 0xA0 SHL SUB AND CALLER EQ PUSH2 0x9E3 JUMPI PUSH1 0x40 MLOAD PUSH3 0x461BCD PUSH1 0xE5 SHL DUP2 MSTORE PUSH1 0x4 ADD PUSH2 0x543 SWAP1 PUSH2 0x1AF8 JUMP JUMPDEST PUSH1 0x1 DUP1 SLOAD PUSH1 0x0 DUP1 SLOAD PUSH1 0x1 PUSH1 0x1 PUSH1 0xA0 SHL SUB NOT SWAP1 DUP2 AND PUSH1 0x1 PUSH1 0x1 PUSH1 0xA0 SHL SUB DUP5 AND OR SWAP1 SWAP2 SSTORE AND SWAP1 SSTORE JUMP JUMPDEST CALLER PUSH1 0x0 SWAP1 DUP2 MSTORE PUSH1 0x9 PUSH1 0x20 MSTORE PUSH1 0x40 DUP2 KECCAK256 SLOAD PUSH1 0x60 SWAP2 DUP2 PUSH8 0xFFFFFFFFFFFFFFFF DUP2 GT ISZERO PUSH2 0xA36 JUMPI PUSH2 0xA36 PUSH2 0x17C7 JUMP JUMPDEST PUSH1 0x40 MLOAD SWAP1 DUP1 DUP3 MSTORE DUP1 PUSH1 0x20 MUL PUSH1 0x20 ADD DUP3 ADD PUSH1 0x40 MSTORE DUP1 ISZERO PUSH2 0xA92 JUMPI DUP2 PUSH1 0x20 ADD JUMPDEST PUSH2 0xA7F PUSH1 0x40 MLOAD DUP1 PUSH1 0x80 ADD PUSH1 0x40 MSTORE DUP1 PUSH1 0x0 DUP2 MSTORE PUSH1 0x20 ADD PUSH1 0x0 DUP2 MSTORE PUSH1 0x20 ADD PUSH1 0x0 DUP2 MSTORE PUSH1 0x20 ADD PUSH1 0x0 DUP2 MSTORE POP SWAP1 JUMP JUMPDEST DUP2 MSTORE PUSH1 0x20 ADD SWAP1 PUSH1 0x1 SWAP1 SUB SWAP1 DUP2 PUSH2 0xA54 JUMPI SWAP1 POP JUMPDEST POP SWAP1 POP PUSH1 0x0 JUMPDEST DUP3 DUP2 LT ISZERO PUSH2 0xB42 JUMPI CALLER PUSH1 0x0 SWAP1 DUP2 MSTORE PUSH1 0x9 PUSH1 0x20 MSTORE PUSH1 0x40 DUP2 KECCAK256 DUP1 SLOAD PUSH1 0x8 SWAP3 SWAP2 SWAP1 DUP5 SWAP1 DUP2 LT PUSH2 0xAC6 JUMPI PUSH2 0xAC6 PUSH2 0x1B1B JUMP JUMPDEST SWAP1 PUSH1 0x0 MSTORE PUSH1 0x20 PUSH1 0x0 KECCAK256 ADD SLOAD DUP2 MSTORE PUSH1 0x20 ADD SWAP1 DUP2 MSTORE PUSH1 0x20 ADD PUSH1 0x0 KECCAK256 PUSH1 0x40 MLOAD DUP1 PUSH1 0x80 ADD PUSH1 0x40 MSTORE SWAP1 DUP2 PUSH1 0x0 DUP3 ADD SLOAD DUP2 MSTORE PUSH1 0x20 ADD PUSH1 0x1 DUP3 ADD SLOAD DUP2 MSTORE PUSH1 0x20 ADD PUSH1 0x2 DUP3 ADD SLOAD DUP2 MSTORE PUSH1 0x20 ADD PUSH1 0x3 DUP3 ADD SLOAD DUP2 MSTORE POP POP DUP3 DUP3 DUP2 MLOAD DUP2 LT PUSH2 0xB24 JUMPI PUSH2 0xB24 PUSH2 0x1B1B JUMP JUMPDEST PUSH1 0x20 MUL PUSH1 0x20 ADD ADD DUP2 SWAP1 MSTORE POP DUP1 DUP1 PUSH2 0xB3A SWAP1 PUSH2 0x1B60 JUMP JUMPDEST SWAP2 POP POP PUSH2 0xA98 JUMP JUMPDEST POP SWAP3 SWAP2 POP POP JUMP JUMPDEST PUSH1 0x0 DUP1 PUSH1 0xFF PUSH32 0x0 AND PUSH2 0xB7D PUSH3 0x93A80 TIMESTAMP PUSH2 0x1B79 JUMP JUMPDEST PUSH2 0xB87 SWAP2 SWAP1 PUSH2 0x1BB2 JUMP JUMPDEST CALLER PUSH1 0x0 SWAP1 DUP2 MSTORE PUSH1 0x3 PUSH1 0x20 MSTORE PUSH1 0x40 DUP2 KECCAK256 SLOAD SWAP2 SWAP3 POP SWAP1 JUMPDEST CALLER PUSH1 0x0 SWAP1 DUP2 MSTORE PUSH1 0x3 PUSH1 0x20 MSTORE PUSH1 0x40 SWAP1 KECCAK256 PUSH1 0x1 ADD SLOAD DUP2 LT ISZERO PUSH2 0xB42 JUMPI DUP3 DUP2 GT PUSH2 0xB42 JUMPI PUSH1 0x0 DUP2 DUP2 MSTORE PUSH1 0x4 PUSH1 0x20 MSTORE PUSH1 0x40 SWAP1 KECCAK256 SLOAD ISZERO PUSH2 0xC1F JUMPI PUSH1 0x0 DUP2 DUP2 MSTORE PUSH1 0x4 PUSH1 0x20 SWAP1 DUP2 MSTORE PUSH1 0x40 DUP1 DUP4 KECCAK256 SLOAD CALLER DUP5 MSTORE PUSH1 0x2 DUP4 MSTORE DUP2 DUP5 KECCAK256 DUP6 DUP6 MSTORE DUP4 MSTORE DUP2 DUP5 KECCAK256 SLOAD PUSH1 0x5 SWAP1 SWAP4 MSTORE SWAP3 KECCAK256 SLOAD PUSH2 0xC08 SWAP2 SWAP1 PUSH2 0x1BDB JUMP JUMPDEST PUSH2 0xC12 SWAP2 SWAP1 PUSH2 0x1B79 JUMP JUMPDEST PUSH2 0xC1C SWAP1 DUP4 PUSH2 0x1B47 JUMP JUMPDEST SWAP2 POP JUMPDEST DUP1 PUSH2 0xC29 DUP2 PUSH2 0x1B60 JUMP JUMPDEST SWAP2 POP POP PUSH2 0xB9C JUMP JUMPDEST PUSH1 0x0 PUSH1 0x60 DUP2 PUSH1 0xFF PUSH32 0x0 AND PUSH2 0xC67 PUSH3 0x93A80 TIMESTAMP PUSH2 0x1B79 JUMP JUMPDEST PUSH2 0xC71 SWAP2 SWAP1 PUSH2 0x1BB2 JUMP JUMPDEST PUSH2 0xC7C SWAP1 PUSH1 0x1 PUSH2 0x1B47 JUMP JUMPDEST CALLER PUSH1 0x0 SWAP1 DUP2 MSTORE PUSH1 0x3 PUSH1 0x20 MSTORE PUSH1 0x40 SWAP1 KECCAK256 SWAP1 SWAP2 POP DUP2 SWAP1 PUSH1 0x1 ADD SLOAD GT PUSH2 0xCB1 JUMPI PUSH1 0x40 DUP1 MLOAD PUSH1 0x0 DUP2 MSTORE PUSH1 0x20 DUP2 ADD SWAP1 SWAP2 MSTORE SWAP1 SWAP4 SWAP1 SWAP3 POP SWAP1 POP JUMP JUMPDEST CALLER PUSH1 0x0 SWAP1 DUP2 MSTORE PUSH1 0x3 PUSH1 0x20 MSTORE PUSH1 0x40 DUP2 KECCAK256 DUP1 SLOAD PUSH1 0x1 SWAP1 SWAP2 ADD SLOAD SWAP1 SWAP2 DUP4 DUP4 GT PUSH2 0xCD7 JUMPI DUP4 PUSH2 0xCD9 JUMP JUMPDEST DUP3 JUMPDEST SWAP1 POP PUSH1 0x0 PUSH2 0xCE7 DUP3 DUP5 PUSH2 0x1BB2 JUMP JUMPDEST PUSH8 0xFFFFFFFFFFFFFFFF DUP2 GT ISZERO PUSH2 0xCFF JUMPI PUSH2 0xCFF PUSH2 0x17C7 JUMP JUMPDEST PUSH1 0x40 MLOAD SWAP1 DUP1 DUP3 MSTORE DUP1 PUSH1 0x20 MUL PUSH1 0x20 ADD DUP3 ADD PUSH1 0x40 MSTORE DUP1 ISZERO PUSH2 0xD28 JUMPI DUP2 PUSH1 0x20 ADD PUSH1 0x20 DUP3 MUL DUP1 CALLDATASIZE DUP4 CALLDATACOPY ADD SWAP1 POP JUMPDEST POP SWAP1 POP DUP2 JUMPDEST DUP4 DUP2 LT ISZERO PUSH2 0xDCA JUMPI PUSH1 0x0 DUP2 DUP2 MSTORE PUSH1 0x4 PUSH1 0x20 MSTORE PUSH1 0x40 SWAP1 KECCAK256 SLOAD ISZERO PUSH2 0xD8F JUMPI PUSH1 0x0 DUP2 DUP2 MSTORE PUSH1 0x4 PUSH1 0x20 SWAP1 DUP2 MSTORE PUSH1 0x40 DUP1 DUP4 KECCAK256 SLOAD CALLER DUP5 MSTORE PUSH1 0x2 DUP4 MSTORE DUP2 DUP5 KECCAK256 DUP6 DUP6 MSTORE DUP4 MSTORE DUP2 DUP5 KECCAK256 SLOAD PUSH1 0x5 SWAP1 SWAP4 MSTORE SWAP3 KECCAK256 SLOAD PUSH2 0xD80 SWAP2 SWAP1 PUSH2 0x1BDB JUMP JUMPDEST PUSH2 0xD8A SWAP2 SWAP1 PUSH2 0x1B79 JUMP JUMPDEST PUSH2 0xD92 JUMP JUMPDEST PUSH1 0x0 JUMPDEST DUP3 PUSH2 0xD9D DUP6 DUP5 PUSH2 0x1BB2 JUMP JUMPDEST DUP2 MLOAD DUP2 LT PUSH2 0xDAD JUMPI PUSH2 0xDAD PUSH2 0x1B1B JUMP JUMPDEST PUSH1 0x20 SWAP1 DUP2 MUL SWAP2 SWAP1 SWAP2 ADD ADD MSTORE DUP1 PUSH2 0xDC2 DUP2 PUSH2 0x1B60 JUMP JUMPDEST SWAP2 POP POP PUSH2 0xD2D JUMP JUMPDEST POP PUSH1 0x0 PUSH2 0xDDA PUSH3 0x93A80 TIMESTAMP PUSH2 0x1B79 JUMP JUMPDEST PUSH2 0xE07 DUP5 PUSH1 0xFF PUSH32 0x0 AND PUSH2 0x1B47 JUMP JUMPDEST PUSH2 0xE11 SWAP2 SWAP1 PUSH2 0x1BB2 JUMP JUMPDEST SWAP9 SWAP2 SWAP8 POP SWAP1 SWAP6 POP POP POP POP POP POP JUMP JUMPDEST DUP1 DUP1 TIMESTAMP GT ISZERO PUSH2 0xE40 JUMPI PUSH1 0x40 MLOAD PUSH3 0x461BCD PUSH1 0xE5 SHL DUP2 MSTORE PUSH1 0x4 ADD PUSH2 0x543 SWAP1 PUSH2 0x1AD1 JUMP JUMPDEST PUSH1 0x0 PUSH1 0xFF PUSH32 0x0 AND PUSH2 0xE73 PUSH3 0x93A80 TIMESTAMP PUSH2 0x1B79 JUMP JUMPDEST PUSH2 0xE7D SWAP2 SWAP1 PUSH2 0x1BB2 JUMP JUMPDEST CALLER PUSH1 0x0 SWAP1 DUP2 MSTORE PUSH1 0x3 PUSH1 0x20 MSTORE PUSH1 0x40 DUP2 KECCAK256 SLOAD SWAP2 SWAP3 POP SWAP1 DUP1 JUMPDEST CALLER PUSH1 0x0 SWAP1 DUP2 MSTORE PUSH1 0x3 PUSH1 0x20 MSTORE PUSH1 0x40 SWAP1 KECCAK256 PUSH1 0x1 ADD SLOAD DUP2 LT ISZERO PUSH2 0xF36 JUMPI DUP4 DUP2 GT PUSH2 0xF36 JUMPI PUSH2 0xEBF DUP2 PUSH1 0x1 PUSH2 0x1B47 JUMP JUMPDEST PUSH1 0x0 DUP3 DUP2 MSTORE PUSH1 0x4 PUSH1 0x20 MSTORE PUSH1 0x40 SWAP1 KECCAK256 SLOAD SWAP1 SWAP3 POP ISZERO PUSH2 0xF24 JUMPI PUSH1 0x0 DUP2 DUP2 MSTORE PUSH1 0x4 PUSH1 0x20 SWAP1 DUP2 MSTORE PUSH1 0x40 DUP1 DUP4 KECCAK256 SLOAD CALLER DUP5 MSTORE PUSH1 0x2 DUP4 MSTORE DUP2 DUP5 KECCAK256 DUP6 DUP6 MSTORE DUP4 MSTORE DUP2 DUP5 KECCAK256 SLOAD PUSH1 0x5 SWAP1 SWAP4 MSTORE SWAP3 KECCAK256 SLOAD PUSH2 0xF0D SWAP2 SWAP1 PUSH2 0x1BDB JUMP JUMPDEST PUSH2 0xF17 SWAP2 SWAP1 PUSH2 0x1B79 JUMP JUMPDEST PUSH2 0xF21 SWAP1 DUP5 PUSH2 0x1B47 JUMP JUMPDEST SWAP3 POP JUMPDEST DUP1 PUSH2 0xF2E DUP2 PUSH2 0x1B60 JUMP JUMPDEST SWAP2 POP POP PUSH2 0xE93 JUMP JUMPDEST POP CALLER PUSH1 0x0 SWAP1 DUP2 MSTORE PUSH1 0x3 PUSH1 0x20 MSTORE PUSH1 0x40 DUP2 KECCAK256 DUP3 SWAP2 ADD SSTORE PUSH2 0xF75 PUSH32 0x0 CALLER DUP5 PUSH2 0x16BA JUMP JUMPDEST PUSH1 0x40 MLOAD DUP3 DUP2 MSTORE CALLER SWAP1 PUSH32 0xBA8DE60C3403EC381D1D484652EA1980E3C3E56359195C92525BFF4CE47AD98E SWAP1 PUSH1 0x20 ADD PUSH1 0x40 MLOAD DUP1 SWAP2 SUB SWAP1 LOG2 POP POP POP POP POP JUMP JUMPDEST PUSH1 0x9 PUSH1 0x20 MSTORE DUP2 PUSH1 0x0 MSTORE PUSH1 0x40 PUSH1 0x0 KECCAK256 DUP2 DUP2 SLOAD DUP2 LT PUSH2 0xFCD JUMPI PUSH1 0x0 DUP1 REVERT JUMPDEST SWAP1 PUSH1 0x0 MSTORE PUSH1 0x20 PUSH1 0x0 KECCAK256 ADD PUSH1 0x0 SWAP2 POP SWAP2 POP POP SLOAD DUP2 JUMP JUMPDEST PUSH1 0x3 PUSH1 0x20 MSTORE DUP2 PUSH1 0x0 MSTORE PUSH1 0x40 PUSH1 0x0 KECCAK256 DUP2 PUSH1 0x2 DUP2 LT PUSH2 0xFFE JUMPI PUSH1 0x0 DUP1 REVERT JUMPDEST ADD SLOAD SWAP2 POP DUP3 SWAP1 POP JUMP JUMPDEST DUP1 DUP1 TIMESTAMP GT ISZERO PUSH2 0x1028 JUMPI PUSH1 0x40 MLOAD PUSH3 0x461BCD PUSH1 0xE5 SHL DUP2 MSTORE PUSH1 0x4 ADD PUSH2 0x543 SWAP1 PUSH2 0x1AD1 JUMP JUMPDEST PUSH1 0x0 SLOAD PUSH1 0x1 PUSH1 0x1 PUSH1 0xA0 SHL SUB AND CALLER EQ PUSH2 0x1052 JUMPI PUSH1 0x40 MLOAD PUSH3 0x461BCD PUSH1 0xE5 SHL DUP2 MSTORE PUSH1 0x4 ADD PUSH2 0x543 SWAP1 PUSH2 0x1AF8 JUMP JUMPDEST PUSH32 0x0 TIMESTAMP GT ISZERO DUP1 ISZERO PUSH2 0x10A2 JUMPI POP PUSH32 0x0 TIMESTAMP LT ISZERO JUMPDEST PUSH2 0x10E2 JUMPI PUSH1 0x40 MLOAD PUSH3 0x461BCD PUSH1 0xE5 SHL DUP2 MSTORE PUSH1 0x20 PUSH1 0x4 DUP3 ADD MSTORE PUSH1 0x11 PUSH1 0x24 DUP3 ADD MSTORE PUSH17 0x1B9BDD081A5B881D1A19481C195C9A5BD9 PUSH1 0x7A SHL PUSH1 0x44 DUP3 ADD MSTORE PUSH1 0x64 ADD PUSH2 0x543 JUMP JUMPDEST PUSH2 0x110E PUSH32 0x0 CALLER ADDRESS DUP7 PUSH2 0x15A0 JUMP JUMPDEST PUSH1 0x0 DUP5 DUP2 MSTORE PUSH1 0x5 PUSH1 0x20 MSTORE PUSH1 0x40 DUP2 KECCAK256 DUP1 SLOAD DUP6 SWAP3 SWAP1 PUSH2 0x112C SWAP1 DUP5 SWAP1 PUSH2 0x1B47 JUMP JUMPDEST SWAP1 SWAP2 SSTORE POP POP PUSH1 0x6 SLOAD DUP5 GT ISZERO PUSH2 0x1141 JUMPI PUSH1 0x6 DUP5 SWAP1 SSTORE JUMPDEST PUSH1 0x40 DUP1 MLOAD DUP6 DUP2 MSTORE PUSH1 0x20 DUP2 ADD DUP6 SWAP1 MSTORE CALLER SWAP2 PUSH32 0xC3991418CACD70A010FCE559A44FCBB47534CA43BF7543964BDCA2639F6E6E5A SWAP2 ADD PUSH1 0x40 MLOAD DUP1 SWAP2 SUB SWAP1 LOG2 POP POP POP POP JUMP JUMPDEST PUSH1 0x0 PUSH2 0x11AF PUSH1 0x1 PUSH32 0x0 PUSH2 0x1BF2 JUMP JUMPDEST PUSH1 0xFF AND PUSH1 0x1 PUSH32 0x0 PUSH1 0xFF AND PUSH1 0x1 DUP6 PUSH2 0x11E5 SWAP2 SWAP1 PUSH2 0x1BF2 JUMP JUMPDEST PUSH1 0xFF AND PUSH2 0x1213 PUSH1 0x1 PUSH32 0x0 PUSH2 0x1BB2 JUMP JUMPDEST PUSH2 0x121D SWAP2 SWAP1 PUSH2 0x1BDB JUMP JUMPDEST PUSH2 0x1227 SWAP2 SWAP1 PUSH2 0x1B47 JUMP JUMPDEST PUSH2 0x1231 SWAP2 SWAP1 PUSH2 0x1BB2 JUMP JUMPDEST PUSH2 0x123B SWAP1 DUP6 PUSH2 0x1BDB JUMP JUMPDEST PUSH2 0x1245 SWAP2 SWAP1 PUSH2 0x1B79 JUMP JUMPDEST SWAP4 SWAP3 POP POP POP JUMP JUMPDEST DUP1 DUP1 TIMESTAMP GT ISZERO PUSH2 0x126D JUMPI PUSH1 0x40 MLOAD PUSH3 0x461BCD PUSH1 0xE5 SHL DUP2 MSTORE PUSH1 0x4 ADD PUSH2 0x543 SWAP1 PUSH2 0x1AD1 JUMP JUMPDEST PUSH1 0x0 DUP4 PUSH1 0xFF AND GT DUP1 ISZERO PUSH2 0x12A6 JUMPI POP PUSH32 0x0 PUSH1 0xFF AND DUP4 PUSH1 0xFF AND GT ISZERO JUMPDEST PUSH2 0x12DB JUMPI PUSH1 0x40 MLOAD PUSH3 0x461BCD PUSH1 0xE5 SHL DUP2 MSTORE PUSH1 0x20 PUSH1 0x4 DUP3 ADD MSTORE PUSH1 0x6 PUSH1 0x24 DUP3 ADD MSTORE PUSH6 0x359018BF1A99 PUSH1 0xD1 SHL PUSH1 0x44 DUP3 ADD MSTORE PUSH1 0x64 ADD PUSH2 0x543 JUMP JUMPDEST PUSH32 0x0 TIMESTAMP GT ISZERO DUP1 ISZERO PUSH2 0x132B JUMPI POP PUSH32 0x0 TIMESTAMP LT ISZERO JUMPDEST PUSH2 0x136B JUMPI PUSH1 0x40 MLOAD PUSH3 0x461BCD PUSH1 0xE5 SHL DUP2 MSTORE PUSH1 0x20 PUSH1 0x4 DUP3 ADD MSTORE PUSH1 0x11 PUSH1 0x24 DUP3 ADD MSTORE PUSH17 0x1B9BDD081A5B881D1A19481C195C9A5BD9 PUSH1 0x7A SHL PUSH1 0x44 DUP3 ADD MSTORE PUSH1 0x64 ADD PUSH2 0x543 JUMP JUMPDEST PUSH1 0x0 PUSH2 0x137A PUSH3 0x93A80 TIMESTAMP PUSH2 0x1B79 JUMP JUMPDEST PUSH2 0x1385 SWAP1 PUSH1 0x1 PUSH2 0x1B47 JUMP JUMPDEST SWAP1 POP PUSH2 0x13B3 PUSH32 0x0 CALLER ADDRESS DUP9 PUSH2 0x15A0 JUMP JUMPDEST PUSH1 0x0 PUSH2 0x13BF DUP7 DUP7 PUSH2 0x1182 JUMP JUMPDEST SWAP1 POP PUSH1 0x0 JUMPDEST DUP6 PUSH1 0xFF AND DUP2 PUSH1 0xFF AND LT ISZERO PUSH2 0x1459 JUMPI DUP2 PUSH1 0x4 PUSH1 0x0 PUSH2 0x13E4 PUSH1 0xFF DUP6 AND DUP8 PUSH2 0x1B47 JUMP JUMPDEST DUP2 MSTORE PUSH1 0x20 ADD SWAP1 DUP2 MSTORE PUSH1 0x20 ADD PUSH1 0x0 KECCAK256 PUSH1 0x0 DUP3 DUP3 SLOAD PUSH2 0x1401 SWAP2 SWAP1 PUSH2 0x1B47 JUMP JUMPDEST SWAP1 SWAP2 SSTORE POP POP CALLER PUSH1 0x0 SWAP1 DUP2 MSTORE PUSH1 0x2 PUSH1 0x20 MSTORE PUSH1 0x40 DUP2 KECCAK256 DUP4 SWAP2 PUSH2 0x1424 PUSH1 0xFF DUP6 AND DUP8 PUSH2 0x1B47 JUMP JUMPDEST DUP2 MSTORE PUSH1 0x20 ADD SWAP1 DUP2 MSTORE PUSH1 0x20 ADD PUSH1 0x0 KECCAK256 PUSH1 0x0 DUP3 DUP3 SLOAD PUSH2 0x1441 SWAP2 SWAP1 PUSH2 0x1B47 JUMP JUMPDEST SWAP1 SWAP2 SSTORE POP DUP2 SWAP1 POP PUSH2 0x1451 DUP2 PUSH2 0x1C0B JUMP JUMPDEST SWAP2 POP POP PUSH2 0x13C4 JUMP JUMPDEST POP PUSH1 0x0 PUSH2 0x1469 PUSH1 0xFF DUP8 AND DUP5 PUSH2 0x1B47 JUMP JUMPDEST PUSH1 0x40 DUP1 MLOAD PUSH1 0x80 DUP2 ADD DUP3 MSTORE DUP10 DUP2 MSTORE PUSH1 0x20 DUP1 DUP3 ADD DUP7 DUP2 MSTORE DUP3 DUP5 ADD DUP9 DUP2 MSTORE PUSH1 0x60 DUP5 ADD DUP7 DUP2 MSTORE PUSH1 0x7 SLOAD PUSH1 0x0 SWAP1 DUP2 MSTORE PUSH1 0x8 DUP6 MSTORE DUP7 DUP2 KECCAK256 SWAP6 MLOAD DUP7 SSTORE SWAP3 MLOAD PUSH1 0x1 DUP1 DUP8 ADD SWAP2 SWAP1 SWAP2 SSTORE SWAP2 MLOAD PUSH1 0x2 DUP7 ADD SSTORE MLOAD PUSH1 0x3 SWAP5 DUP6 ADD SSTORE CALLER DUP3 MSTORE SWAP3 SWAP1 SWAP2 MSTORE SWAP2 SWAP1 SWAP2 KECCAK256 SWAP1 DUP2 ADD SLOAD SWAP1 SLOAD SWAP2 SWAP3 POP SWAP1 SUB PUSH2 0x14E4 JUMPI CALLER PUSH1 0x0 SWAP1 DUP2 MSTORE PUSH1 0x3 PUSH1 0x20 MSTORE PUSH1 0x40 SWAP1 KECCAK256 DUP4 SWAP1 SSTORE JUMPDEST CALLER PUSH1 0x0 SWAP1 DUP2 MSTORE PUSH1 0x3 PUSH1 0x20 MSTORE PUSH1 0x40 SWAP1 KECCAK256 DUP2 SWAP1 PUSH1 0x1 ADD SLOAD LT ISZERO PUSH2 0x1515 JUMPI CALLER PUSH1 0x0 SWAP1 DUP2 MSTORE PUSH1 0x3 PUSH1 0x20 MSTORE PUSH1 0x40 SWAP1 KECCAK256 DUP2 SWAP1 PUSH1 0x1 ADD SSTORE JUMPDEST CALLER PUSH1 0x0 DUP2 DUP2 MSTORE PUSH1 0x9 PUSH1 0x20 SWAP1 DUP2 MSTORE PUSH1 0x40 DUP1 DUP4 KECCAK256 PUSH1 0x7 DUP1 SLOAD DUP3 SLOAD PUSH1 0x1 DUP2 ADD DUP5 SSTORE SWAP3 DUP7 MSTORE SWAP5 DUP5 SWAP1 KECCAK256 SWAP1 SWAP2 ADD SWAP4 SWAP1 SWAP4 SSTORE SWAP2 SLOAD DUP3 MLOAD SWAP1 DUP2 MSTORE SWAP1 DUP2 ADD DUP11 SWAP1 MSTORE PUSH1 0xFF DUP10 AND DUP2 DUP4 ADD MSTORE SWAP1 MLOAD PUSH32 0x6FA2F6021EE337436CDF2B2570285886DA18BC06402CE284D296504A0FE8F875 SWAP2 DUP2 SWAP1 SUB PUSH1 0x60 ADD SWAP1 LOG2 PUSH1 0x7 DUP1 SLOAD SWAP1 PUSH1 0x0 PUSH2 0x1592 DUP4 PUSH2 0x1B60 JUMP JUMPDEST SWAP2 SWAP1 POP SSTORE POP POP POP POP POP POP POP POP JUMP JUMPDEST PUSH1 0x40 DUP1 MLOAD PUSH1 0x1 PUSH1 0x1 PUSH1 0xA0 SHL SUB DUP6 DUP2 AND PUSH1 0x24 DUP4 ADD MSTORE DUP5 DUP2 AND PUSH1 0x44 DUP4 ADD MSTORE PUSH1 0x64 DUP1 DUP4 ADD DUP6 SWAP1 MSTORE DUP4 MLOAD DUP1 DUP5 SUB SWAP1 SWAP2 ADD DUP2 MSTORE PUSH1 0x84 SWAP1 SWAP3 ADD DUP4 MSTORE PUSH1 0x20 DUP3 ADD DUP1 MLOAD PUSH1 0x1 PUSH1 0x1 PUSH1 0xE0 SHL SUB AND PUSH4 0x23B872DD PUSH1 0xE0 SHL OR SWAP1 MSTORE SWAP2 MLOAD PUSH1 0x0 SWAP3 DUP4 SWAP3 SWAP1 DUP9 AND SWAP2 PUSH2 0x1604 SWAP2 SWAP1 PUSH2 0x1C2A JUMP JUMPDEST PUSH1 0x0 PUSH1 0x40 MLOAD DUP1 DUP4 SUB DUP2 PUSH1 0x0 DUP7 GAS CALL SWAP2 POP POP RETURNDATASIZE DUP1 PUSH1 0x0 DUP2 EQ PUSH2 0x1641 JUMPI PUSH1 0x40 MLOAD SWAP2 POP PUSH1 0x1F NOT PUSH1 0x3F RETURNDATASIZE ADD AND DUP3 ADD PUSH1 0x40 MSTORE RETURNDATASIZE DUP3 MSTORE RETURNDATASIZE PUSH1 0x0 PUSH1 0x20 DUP5 ADD RETURNDATACOPY PUSH2 0x1646 JUMP JUMPDEST PUSH1 0x60 SWAP2 POP JUMPDEST POP SWAP2 POP SWAP2 POP DUP2 DUP1 ISZERO PUSH2 0x1670 JUMPI POP DUP1 MLOAD ISZERO DUP1 PUSH2 0x1670 JUMPI POP DUP1 DUP1 PUSH1 0x20 ADD SWAP1 MLOAD DUP2 ADD SWAP1 PUSH2 0x1670 SWAP2 SWAP1 PUSH2 0x1C59 JUMP JUMPDEST PUSH2 0x16B2 JUMPI PUSH1 0x40 MLOAD PUSH3 0x461BCD PUSH1 0xE5 SHL DUP2 MSTORE PUSH1 0x20 PUSH1 0x4 DUP3 ADD MSTORE PUSH1 0x13 PUSH1 0x24 DUP3 ADD MSTORE PUSH19 0x1D1C985B9CD9995C919C9BDB4819985A5B1959 PUSH1 0x6A SHL PUSH1 0x44 DUP3 ADD MSTORE PUSH1 0x64 ADD PUSH2 0x543 JUMP JUMPDEST POP POP POP POP POP POP JUMP JUMPDEST PUSH1 0x40 DUP1 MLOAD PUSH1 0x1 PUSH1 0x1 PUSH1 0xA0 SHL SUB DUP5 DUP2 AND PUSH1 0x24 DUP4 ADD MSTORE PUSH1 0x44 DUP1 DUP4 ADD DUP6 SWAP1 MSTORE DUP4 MLOAD DUP1 DUP5 SUB SWAP1 SWAP2 ADD DUP2 MSTORE PUSH1 0x64 SWAP1 SWAP3 ADD DUP4 MSTORE PUSH1 0x20 DUP3 ADD DUP1 MLOAD PUSH1 0x1 PUSH1 0x1 PUSH1 0xE0 SHL SUB AND PUSH4 0xA9059CBB PUSH1 0xE0 SHL OR SWAP1 MSTORE SWAP2 MLOAD PUSH1 0x0 SWAP3 DUP4 SWAP3 SWAP1 DUP8 AND SWAP2 PUSH2 0x1716 SWAP2 SWAP1 PUSH2 0x1C2A JUMP JUMPDEST PUSH1 0x0 PUSH1 0x40 MLOAD DUP1 DUP4 SUB DUP2 PUSH1 0x0 DUP7 GAS CALL SWAP2 POP POP RETURNDATASIZE DUP1 PUSH1 0x0 DUP2 EQ PUSH2 0x1753 JUMPI PUSH1 0x40 MLOAD SWAP2 POP PUSH1 0x1F NOT PUSH1 0x3F RETURNDATASIZE ADD AND DUP3 ADD PUSH1 0x40 MSTORE RETURNDATASIZE DUP3 MSTORE RETURNDATASIZE PUSH1 0x0 PUSH1 0x20 DUP5 ADD RETURNDATACOPY PUSH2 0x1758 JUMP JUMPDEST PUSH1 0x60 SWAP2 POP JUMPDEST POP SWAP2 POP SWAP2 POP DUP2 DUP1 ISZERO PUSH2 0x1782 JUMPI POP DUP1 MLOAD ISZERO DUP1 PUSH2 0x1782 JUMPI POP DUP1 DUP1 PUSH1 0x20 ADD SWAP1 MLOAD DUP2 ADD SWAP1 PUSH2 0x1782 SWAP2 SWAP1 PUSH2 0x1C59 JUMP JUMPDEST PUSH2 0x17C0 JUMPI PUSH1 0x40 MLOAD PUSH3 0x461BCD PUSH1 0xE5 SHL DUP2 MSTORE PUSH1 0x20 PUSH1 0x4 DUP3 ADD MSTORE PUSH1 0xF PUSH1 0x24 DUP3 ADD MSTORE PUSH15 0x1514905394D1915497D19052531151 PUSH1 0x8A SHL PUSH1 0x44 DUP3 ADD MSTORE PUSH1 0x64 ADD PUSH2 0x543 JUMP JUMPDEST POP POP POP POP POP JUMP JUMPDEST PUSH4 0x4E487B71 PUSH1 0xE0 SHL PUSH1 0x0 MSTORE PUSH1 0x41 PUSH1 0x4 MSTORE PUSH1 0x24 PUSH1 0x0 REVERT JUMPDEST PUSH1 0x0 DUP3 PUSH1 0x1F DUP4 ADD SLT PUSH2 0x17EE JUMPI PUSH1 0x0 DUP1 REVERT JUMPDEST DUP2 CALLDATALOAD PUSH1 0x20 PUSH8 0xFFFFFFFFFFFFFFFF DUP1 DUP4 GT ISZERO PUSH2 0x180B JUMPI PUSH2 0x180B PUSH2 0x17C7 JUMP JUMPDEST DUP3 PUSH1 0x5 SHL PUSH1 0x40 MLOAD PUSH1 0x1F NOT PUSH1 0x3F DUP4 ADD AND DUP2 ADD DUP2 DUP2 LT DUP5 DUP3 GT OR ISZERO PUSH2 0x1830 JUMPI PUSH2 0x1830 PUSH2 0x17C7 JUMP JUMPDEST PUSH1 0x40 MSTORE SWAP4 DUP5 MSTORE DUP6 DUP2 ADD DUP4 ADD SWAP4 DUP4 DUP2 ADD SWAP3 POP DUP8 DUP6 GT ISZERO PUSH2 0x184E JUMPI PUSH1 0x0 DUP1 REVERT JUMPDEST DUP4 DUP8 ADD SWAP2 POP JUMPDEST DUP5 DUP3 LT ISZERO PUSH2 0x186D JUMPI DUP2 CALLDATALOAD DUP4 MSTORE SWAP2 DUP4 ADD SWAP2 SWAP1 DUP4 ADD SWAP1 PUSH2 0x1854 JUMP JUMPDEST SWAP8 SWAP7 POP POP POP POP POP POP POP JUMP JUMPDEST PUSH1 0x0 DUP1 PUSH1 0x0 PUSH1 0x60 DUP5 DUP7 SUB SLT ISZERO PUSH2 0x188D JUMPI PUSH1 0x0 DUP1 REVERT JUMPDEST DUP4 CALLDATALOAD PUSH8 0xFFFFFFFFFFFFFFFF DUP1 DUP3 GT ISZERO PUSH2 0x18A5 JUMPI PUSH1 0x0 DUP1 REVERT JUMPDEST PUSH2 0x18B1 DUP8 DUP4 DUP9 ADD PUSH2 0x17DD JUMP JUMPDEST SWAP5 POP PUSH1 0x20 DUP7 ADD CALLDATALOAD SWAP2 POP DUP1 DUP3 GT ISZERO PUSH2 0x18C7 JUMPI PUSH1 0x0 DUP1 REVERT JUMPDEST POP PUSH2 0x18D4 DUP7 DUP3 DUP8 ADD PUSH2 0x17DD JUMP JUMPDEST SWAP3 POP POP PUSH1 0x40 DUP5 ADD CALLDATALOAD SWAP1 POP SWAP3 POP SWAP3 POP SWAP3 JUMP JUMPDEST PUSH1 0x0 PUSH1 0x20 DUP3 DUP5 SUB SLT ISZERO PUSH2 0x18F7 JUMPI PUSH1 0x0 DUP1 REVERT JUMPDEST POP CALLDATALOAD SWAP2 SWAP1 POP JUMP JUMPDEST DUP1 CALLDATALOAD PUSH1 0x1 PUSH1 0x1 PUSH1 0xA0 SHL SUB DUP2 AND DUP2 EQ PUSH2 0x1915 JUMPI PUSH1 0x0 DUP1 REVERT JUMPDEST SWAP2 SWAP1 POP JUMP JUMPDEST PUSH1 0x0 PUSH1 0x20 DUP3 DUP5 SUB SLT ISZERO PUSH2 0x192C JUMPI PUSH1 0x0 DUP1 REVERT JUMPDEST PUSH2 0x1245 DUP3 PUSH2 0x18FE JUMP JUMPDEST PUSH1 0x0 DUP1 PUSH1 0x40 DUP4 DUP6 SUB SLT ISZERO PUSH2 0x1948 JUMPI PUSH1 0x0 DUP1 REVERT JUMPDEST POP POP DUP1 CALLDATALOAD SWAP3 PUSH1 0x20 SWAP1 SWAP2 ADD CALLDATALOAD SWAP2 POP JUMP JUMPDEST PUSH1 0x0 DUP1 PUSH1 0x40 DUP4 DUP6 SUB SLT ISZERO PUSH2 0x196A JUMPI PUSH1 0x0 DUP1 REVERT JUMPDEST PUSH2 0x1973 DUP4 PUSH2 0x18FE JUMP JUMPDEST SWAP5 PUSH1 0x20 SWAP4 SWAP1 SWAP4 ADD CALLDATALOAD SWAP4 POP POP POP JUMP JUMPDEST PUSH1 0x20 DUP1 DUP3 MSTORE DUP3 MLOAD DUP3 DUP3 ADD DUP2 SWAP1 MSTORE PUSH1 0x0 SWAP2 SWAP1 PUSH1 0x40 SWAP1 DUP2 DUP6 ADD SWAP1 DUP7 DUP5 ADD DUP6 JUMPDEST DUP3 DUP2 LT ISZERO PUSH2 0x19D8 JUMPI DUP2 MLOAD DUP1 MLOAD DUP6 MSTORE DUP7 DUP2 ADD MLOAD DUP8 DUP7 ADD MSTORE DUP6 DUP2 ADD MLOAD DUP7 DUP7 ADD MSTORE PUSH1 0x60 SWAP1 DUP2 ADD MLOAD SWAP1 DUP6 ADD MSTORE PUSH1 0x80 SWAP1 SWAP4 ADD SWAP3 SWAP1 DUP6 ADD SWAP1 PUSH1 0x1 ADD PUSH2 0x199E JUMP JUMPDEST POP SWAP2 SWAP8 SWAP7 POP POP POP POP POP POP POP JUMP JUMPDEST PUSH1 0x0 PUSH1 0x40 DUP3 ADD DUP5 DUP4 MSTORE PUSH1 0x20 PUSH1 0x40 DUP2 DUP6 ADD MSTORE DUP2 DUP6 MLOAD DUP1 DUP5 MSTORE PUSH1 0x60 DUP7 ADD SWAP2 POP DUP3 DUP8 ADD SWAP4 POP PUSH1 0x0 JUMPDEST DUP2 DUP2 LT ISZERO PUSH2 0x1A26 JUMPI DUP5 MLOAD DUP4 MSTORE SWAP4 DUP4 ADD SWAP4 SWAP2 DUP4 ADD SWAP2 PUSH1 0x1 ADD PUSH2 0x1A0A JUMP JUMPDEST POP SWAP1 SWAP8 SWAP7 POP POP POP POP POP POP POP JUMP JUMPDEST PUSH1 0x0 DUP1 PUSH1 0x0 PUSH1 0x60 DUP5 DUP7 SUB SLT ISZERO PUSH2 0x1A48 JUMPI PUSH1 0x0 DUP1 REVERT JUMPDEST POP POP DUP2 CALLDATALOAD SWAP4 PUSH1 0x20 DUP4 ADD CALLDATALOAD SWAP4 POP PUSH1 0x40 SWAP1 SWAP3 ADD CALLDATALOAD SWAP2 SWAP1 POP JUMP JUMPDEST DUP1 CALLDATALOAD PUSH1 0xFF DUP2 AND DUP2 EQ PUSH2 0x1915 JUMPI PUSH1 0x0 DUP1 REVERT JUMPDEST PUSH1 0x0 DUP1 PUSH1 0x40 DUP4 DUP6 SUB SLT ISZERO PUSH2 0x1A83 JUMPI PUSH1 0x0 DUP1 REVERT JUMPDEST DUP3 CALLDATALOAD SWAP2 POP PUSH2 0x1A93 PUSH1 0x20 DUP5 ADD PUSH2 0x1A5F JUMP JUMPDEST SWAP1 POP SWAP3 POP SWAP3 SWAP1 POP JUMP JUMPDEST PUSH1 0x0 DUP1 PUSH1 0x0 PUSH1 0x60 DUP5 DUP7 SUB SLT ISZERO PUSH2 0x1AB1 JUMPI PUSH1 0x0 DUP1 REVERT JUMPDEST DUP4 CALLDATALOAD SWAP3 POP PUSH2 0x1AC1 PUSH1 0x20 DUP6 ADD PUSH2 0x1A5F JUMP JUMPDEST SWAP2 POP PUSH1 0x40 DUP5 ADD CALLDATALOAD SWAP1 POP SWAP3 POP SWAP3 POP SWAP3 JUMP JUMPDEST PUSH1 0x20 DUP1 DUP3 MSTORE PUSH1 0xD SWAP1 DUP3 ADD MSTORE PUSH13 0x6F76657220646561646C696E65 PUSH1 0x98 SHL PUSH1 0x40 DUP3 ADD MSTORE PUSH1 0x60 ADD SWAP1 JUMP JUMPDEST PUSH1 0x20 DUP1 DUP3 MSTORE PUSH1 0x9 SWAP1 DUP3 ADD MSTORE PUSH9 0x3337B93134B23232B7 PUSH1 0xB9 SHL PUSH1 0x40 DUP3 ADD MSTORE PUSH1 0x60 ADD SWAP1 JUMP JUMPDEST PUSH4 0x4E487B71 PUSH1 0xE0 SHL PUSH1 0x0 MSTORE PUSH1 0x32 PUSH1 0x4 MSTORE PUSH1 0x24 PUSH1 0x0 REVERT JUMPDEST PUSH4 0x4E487B71 PUSH1 0xE0 SHL PUSH1 0x0 MSTORE PUSH1 0x11 PUSH1 0x4 MSTORE PUSH1 0x24 PUSH1 0x0 REVERT JUMPDEST DUP1 DUP3 ADD DUP1 DUP3 GT ISZERO PUSH2 0x1B5A JUMPI PUSH2 0x1B5A PUSH2 0x1B31 JUMP JUMPDEST SWAP3 SWAP2 POP POP JUMP JUMPDEST PUSH1 0x0 PUSH1 0x1 DUP3 ADD PUSH2 0x1B72 JUMPI PUSH2 0x1B72 PUSH2 0x1B31 JUMP JUMPDEST POP PUSH1 0x1 ADD SWAP1 JUMP JUMPDEST PUSH1 0x0 DUP3 PUSH2 0x1B96 JUMPI PUSH4 0x4E487B71 PUSH1 0xE0 SHL PUSH1 0x0 MSTORE PUSH1 0x12 PUSH1 0x4 MSTORE PUSH1 0x24 PUSH1 0x0 REVERT JUMPDEST POP DIV SWAP1 JUMP JUMPDEST PUSH1 0x0 DUP2 PUSH2 0x1BAA JUMPI PUSH2 0x1BAA PUSH2 0x1B31 JUMP JUMPDEST POP PUSH1 0x0 NOT ADD SWAP1 JUMP JUMPDEST DUP2 DUP2 SUB DUP2 DUP2 GT ISZERO PUSH2 0x1B5A JUMPI PUSH2 0x1B5A PUSH2 0x1B31 JUMP JUMPDEST PUSH4 0x4E487B71 PUSH1 0xE0 SHL PUSH1 0x0 MSTORE PUSH1 0x31 PUSH1 0x4 MSTORE PUSH1 0x24 PUSH1 0x0 REVERT JUMPDEST DUP1 DUP3 MUL DUP2 ISZERO DUP3 DUP3 DIV DUP5 EQ OR PUSH2 0x1B5A JUMPI PUSH2 0x1B5A PUSH2 0x1B31 JUMP JUMPDEST PUSH1 0xFF DUP3 DUP2 AND DUP3 DUP3 AND SUB SWAP1 DUP2 GT ISZERO PUSH2 0x1B5A JUMPI PUSH2 0x1B5A PUSH2 0x1B31 JUMP JUMPDEST PUSH1 0x0 PUSH1 0xFF DUP3 AND PUSH1 0xFF DUP2 SUB PUSH2 0x1C21 JUMPI PUSH2 0x1C21 PUSH2 0x1B31 JUMP JUMPDEST PUSH1 0x1 ADD SWAP3 SWAP2 POP POP JUMP JUMPDEST PUSH1 0x0 DUP3 MLOAD PUSH1 0x0 JUMPDEST DUP2 DUP2 LT ISZERO PUSH2 0x1C4B JUMPI PUSH1 0x20 DUP2 DUP7 ADD DUP2 ADD MLOAD DUP6 DUP4 ADD MSTORE ADD PUSH2 0x1C31 JUMP JUMPDEST POP PUSH1 0x0 SWAP3 ADD SWAP2 DUP3 MSTORE POP SWAP2 SWAP1 POP JUMP JUMPDEST PUSH1 0x0 PUSH1 0x20 DUP3 DUP5 SUB SLT ISZERO PUSH2 0x1C6B JUMPI PUSH1 0x0 DUP1 REVERT JUMPDEST DUP2 MLOAD DUP1 ISZERO ISZERO DUP2 EQ PUSH2 0x1245 JUMPI PUSH1 0x0 DUP1 REVERT INVALID LOG2 PUSH5 0x6970667358 0x22 SLT KECCAK256 DUP5 0xB0 SWAP9 0x2E SDIV 0xBF ISZERO 0x5E 0xEA SHL 0xD8 PUSH5 0x73973F03C2 CALLDATACOPY PUSH20 0x13CA04E71CE2F3E23AFBAF0EC064736F6C634300 ADDMOD GT STOP CALLER "},"methodIdentifiers":{"BEGIN_TIME()":"c75363b6","END_TIME()":"37ba682d","LOCK_WEEKNUM()":"0d437d40","MAX_SCALE()":"f6def7cf","MAX_WEEKS()":"e11400bb","WEEK_SECONDS()":"cd671a58","acceptSetter()":"5f8e422f","canClaimAmount()":"8431165e","claimReward(uint256)":"ae169a50","getScore(uint256,uint8)":"ee3453ed","getStaking()":"7b1391a6","latestNo()":"29ed1cfd","lockedRewardAmount()":"8923de2b","lpToken()":"5fcbd285","nonce()":"affed0e0","owner()":"8da5cb5b","rewardToken()":"f7c618c1","rewardsOf(uint256)":"0bce1284","setReward(uint256,uint256,uint256)":"e1c05d93","setRewards(uint256[],uint256[],uint256)":"07c6e2fa","stake(uint256,uint8,uint256)":"f99b7d75","stakingERC20s(uint256)":"a218de15","totalScores(uint256)":"157775df","transferOwner(address)":"4fb2e45d","userCanClaimWeeks(address,uint256)":"bb57852d","userERC20s(address,uint256)":"ba086501","userScores(address,uint256)":"5b680a45","withdraw(uint256)":"2e1a7d4d","withdrawRewards(uint256,uint256)":"52cb5133"}}}}}