{"contracts/stakeBase.sol":{"StakeBase":{"abi":[{"inputs":[{"internalType":"uint8","name":"maxWeeks","type":"uint8"},{"internalType":"uint256","name":"maxScale","type":"uint256"},{"internalType":"uint8","name":"lockWeeks","type":"uint8"},{"internalType":"uint256","name":"beginTime","type":"uint256"},{"internalType":"uint256","name":"endTime","type":"uint256"},{"internalType":"address","name":"_rewardToken","type":"address"}],"stateMutability":"nonpayable","type":"constructor"},{"anonymous":false,"inputs":[{"indexed":true,"internalType":"address","name":"user","type":"address"},{"indexed":false,"internalType":"uint256","name":"amount","type":"uint256"}],"name":"ClaimReward","type":"event"},{"anonymous":false,"inputs":[{"indexed":true,"internalType":"address","name":"user","type":"address"},{"indexed":false,"internalType":"uint256","name":"no","type":"uint256"},{"indexed":false,"internalType":"uint256","name":"amount","type":"uint256"}],"name":"SetReward","type":"event"},{"inputs":[],"name":"BEGIN_TIME","outputs":[{"internalType":"uint256","name":"","type":"uint256"}],"stateMutability":"view","type":"function"},{"inputs":[],"name":"END_TIME","outputs":[{"internalType":"uint256","name":"","type":"uint256"}],"stateMutability":"view","type":"function"},{"inputs":[],"name":"LOCK_WEEKNUM","outputs":[{"internalType":"uint8","name":"","type":"uint8"}],"stateMutability":"view","type":"function"},{"inputs":[],"name":"MAX_SCALE","outputs":[{"internalType":"uint256","name":"","type":"uint256"}],"stateMutability":"view","type":"function"},{"inputs":[],"name":"MAX_WEEKS","outputs":[{"internalType":"uint8","name":"","type":"uint8"}],"stateMutability":"view","type":"function"},{"inputs":[],"name":"WEEK_SECONDS","outputs":[{"internalType":"uint24","name":"","type":"uint24"}],"stateMutability":"view","type":"function"},{"inputs":[],"name":"acceptSetter","outputs":[],"stateMutability":"nonpayable","type":"function"},{"inputs":[{"internalType":"address","name":"user","type":"address"}],"name":"canClaimAmount","outputs":[{"internalType":"uint256","name":"","type":"uint256"}],"stateMutability":"view","type":"function"},{"inputs":[{"internalType":"uint256","name":"deadline","type":"uint256"}],"name":"claimReward","outputs":[],"stateMutability":"nonpayable","type":"function"},{"inputs":[{"internalType":"uint256","name":"amount","type":"uint256"},{"internalType":"uint8","name":"k","type":"uint8"}],"name":"getScore","outputs":[{"internalType":"uint256","name":"score","type":"uint256"}],"stateMutability":"view","type":"function"},{"inputs":[],"name":"latestNo","outputs":[{"internalType":"uint256","name":"","type":"uint256"}],"stateMutability":"view","type":"function"},{"inputs":[{"internalType":"address","name":"user","type":"address"}],"name":"lockedRewardAmount","outputs":[{"internalType":"uint256","name":"","type":"uint256"},{"internalType":"uint256[]","name":"","type":"uint256[]"}],"stateMutability":"view","type":"function"},{"inputs":[],"name":"owner","outputs":[{"internalType":"address","name":"","type":"address"}],"stateMutability":"view","type":"function"},{"inputs":[],"name":"rewardToken","outputs":[{"internalType":"address","name":"","type":"address"}],"stateMutability":"view","type":"function"},{"inputs":[{"internalType":"uint256","name":"","type":"uint256"}],"name":"rewardsOf","outputs":[{"internalType":"uint256","name":"","type":"uint256"}],"stateMutability":"view","type":"function"},{"inputs":[{"internalType":"uint256","name":"no","type":"uint256"},{"internalType":"uint256","name":"amount","type":"uint256"},{"internalType":"uint256","name":"deadline","type":"uint256"}],"name":"setReward","outputs":[],"stateMutability":"nonpayable","type":"function"},{"inputs":[{"internalType":"uint256[]","name":"nos","type":"uint256[]"},{"internalType":"uint256[]","name":"amounts","type":"uint256[]"},{"internalType":"uint256","name":"deadline","type":"uint256"}],"name":"setRewards","outputs":[],"stateMutability":"nonpayable","type":"function"},{"inputs":[{"internalType":"uint256","name":"","type":"uint256"}],"name":"totalScores","outputs":[{"internalType":"uint256","name":"","type":"uint256"}],"stateMutability":"view","type":"function"},{"inputs":[{"internalType":"address","name":"_owner","type":"address"}],"name":"transferOwner","outputs":[],"stateMutability":"nonpayable","type":"function"},{"inputs":[{"internalType":"address","name":"","type":"address"},{"internalType":"uint256","name":"","type":"uint256"}],"name":"userCanClaimWeeks","outputs":[{"internalType":"uint256","name":"","type":"uint256"}],"stateMutability":"view","type":"function"},{"inputs":[{"internalType":"address","name":"","type":"address"},{"internalType":"uint256","name":"","type":"uint256"}],"name":"userScores","outputs":[{"internalType":"uint256","name":"","type":"uint256"}],"stateMutability":"view","type":"function"}],"evm":{"bytecode":{"linkReferences":{},"object":"61014060405234801561001157600080fd5b506040516113ad3803806113ad83398101604081905261003091610087565b6001600160a01b031660805260ff94851660a05260c093909352921660e0526101009190915261012052600080546001600160a01b031916331790556100f8565b805160ff8116811461008257600080fd5b919050565b60008060008060008060c087890312156100a057600080fd5b6100a987610071565b9550602087015194506100be60408801610071565b6060880151608089015160a08a015192965090945092506001600160a01b03811681146100ea57600080fd5b809150509295509295509295565b60805160a05160c05160e05161010051610120516112276101866000396000610210015260006102ce0152600081816101ae015281816103c501528181610589015281816107d40152610b200152600081816103600152610abc01526000818161031301528181610a580152610a83015260008181610387015281816108dd01526109b401526112276000f3fe608060405234801561001057600080fd5b50600436106101375760003560e01c80638da5cb5b116100b8578063e11400bb1161007c578063e11400bb1461030e578063e1c05d9314610335578063ee3453ed14610348578063f6def7cf1461035b578063f7c618c114610382578063fa60c77c146103a957600080fd5b80638da5cb5b14610278578063ae169a50146102a3578063bb57852d146102b6578063c75363b6146102c9578063cd671a58146102f057600080fd5b806329ed1cfd116100ff57806329ed1cfd1461020257806337ba682d1461020b5780634fb2e45d146102325780635b680a45146102455780635f8e422f1461027057600080fd5b806302e9e4951461013c57806307c6e2fa146101665780630bce12841461017b5780630d437d40146101a9578063157775df146101e2575b600080fd5b61014f61014a366004610e67565b6103bc565b60405161015d929190610e82565b60405180910390f35b610179610174366004610f81565b6105c7565b005b61019b610189366004610fee565b60056020526000908152604090205481565b60405190815260200161015d565b6101d07f000000000000000000000000000000000000000000000000000000000000000081565b60405160ff909116815260200161015d565b61019b6101f0366004610fee565b60046020526000908152604090205481565b61019b60065481565b61019b7f000000000000000000000000000000000000000000000000000000000000000081565b610179610240366004610e67565b610710565b61019b610253366004611007565b600260209081526000928352604080842090915290825290205481565b61017961075c565b60005461028b906001600160a01b031681565b6040516001600160a01b03909116815260200161015d565b6101796102b1366004610fee565b6107ad565b61019b6102c4366004611007565b61093f565b61019b7f000000000000000000000000000000000000000000000000000000000000000081565b6102fa62093a8081565b60405162ffffff909116815260200161015d565b6101d07f000000000000000000000000000000000000000000000000000000000000000081565b610179610343366004611031565b610964565b61019b61035636600461105d565b610a4f565b61019b7f000000000000000000000000000000000000000000000000000000000000000081565b61028b7f000000000000000000000000000000000000000000000000000000000000000081565b61019b6103b7366004610e67565b610b19565b600060608160ff7f0000000000000000000000000000000000000000000000000000000000000000166103f262093a80426110a9565b6103fc91906110cb565b6104079060016110e4565b6001600160a01b038516600090815260036020526040902090915081906001015411610446576040805160008152602081019091529094909350915050565b6001600160a01b0384166000908152600360205260408120805460019091015490918383116104755783610477565b825b9050600061048582846110cb565b67ffffffffffffffff81111561049d5761049d610ed0565b6040519080825280602002602001820160405280156104c6578160200160208202803683370190505b509050815b838110156105715760008181526004602052604090205415610536576000818152600460209081526040808320546001600160a01b038d168452600283528184208585528352818420546005909352922054610527919061110d565b61053191906110a9565b610539565b60005b8261054485846110cb565b81518110610554576105546110f7565b60209081029190910101528061056981611124565b9150506104cb565b50600061058162093a80426110a9565b6105ae8460ff7f0000000000000000000000000000000000000000000000000000000000000000166110e4565b6105b891906110cb565b99919850909650505050505050565b80804211156105f15760405162461bcd60e51b81526004016105e89061113d565b60405180910390fd5b6000546001600160a01b0316331461061b5760405162461bcd60e51b81526004016105e890611164565b825184511461065f5760405162461bcd60e51b815260206004820152601060248201526f3830b930b6b2ba32b9399032b93937b960811b60448201526064016105e8565b6000805b85518110156107065784818151811061067e5761067e6110f7565b60200260200101516005600088848151811061069c5761069c6110f7565b6020026020010151815260200190815260200160002081905550818682815181106106c9576106c96110f7565b602002602001015111156106f4578581815181106106e9576106e96110f7565b602002602001015191505b806106fe81611124565b915050610663565b5060065550505050565b6000546001600160a01b0316331461073a5760405162461bcd60e51b81526004016105e890611164565b600180546001600160a01b0319166001600160a01b0392909216919091179055565b6001546001600160a01b031633146107865760405162461bcd60e51b81526004016105e890611164565b60018054600080546001600160a01b03199081166001600160a01b03841617909155169055565b80804211156107ce5760405162461bcd60e51b81526004016105e89061113d565b600060ff7f00000000000000000000000000000000000000000000000000000000000000001661080162093a80426110a9565b61080b91906110cb565b3360009081526003602052604081205491925090805b336000908152600360205260409020600101548110156108c4578381116108c45761084d8160016110e4565b600082815260046020526040902054909250156108b25760008181526004602090815260408083205433845260028352818420858552835281842054600590935292205461089b919061110d565b6108a591906110a9565b6108af90846110e4565b92505b806108bc81611124565b915050610821565b50336000908152600360205260408120829101556109037f00000000000000000000000000000000000000000000000000000000000000003384610c24565b60405182815233907fba8de60c3403ec381d1d484652ea1980e3c3e56359195c92525bff4ce47ad98e9060200160405180910390a25050505050565b6003602052816000526040600020816002811061095b57600080fd5b01549150829050565b80804211156109855760405162461bcd60e51b81526004016105e89061113d565b6000546001600160a01b031633146109af5760405162461bcd60e51b81526004016105e890611164565b6109db7f0000000000000000000000000000000000000000000000000000000000000000333086610d31565b600084815260056020526040812080548592906109f99084906110e4565b9091555050600654841115610a0e5760068490555b604080518581526020810185905233917fc3991418cacd70a010fce559a44fcbb47534ca43bf7543964bdca2639f6e6e5a910160405180910390a250505050565b6000610a7c60017f0000000000000000000000000000000000000000000000000000000000000000611187565b60ff1660017f000000000000000000000000000000000000000000000000000000000000000060ff16600185610ab29190611187565b60ff16610ae060017f00000000000000000000000000000000000000000000000000000000000000006110cb565b610aea919061110d565b610af491906110e4565b610afe91906110cb565b610b08908561110d565b610b1291906110a9565b9392505050565b60008060ff7f000000000000000000000000000000000000000000000000000000000000000016610b4d62093a80426110a9565b610b5791906110cb565b6001600160a01b038416600090815260036020526040812054919250905b6001600160a01b038516600090815260036020526040902060010154811015610c1c57828111610c1c5760008181526004602052604090205415610c0a576000818152600460209081526040808320546001600160a01b0389168452600283528184208585528352818420546005909352922054610bf3919061110d565b610bfd91906110a9565b610c0790836110e4565b91505b80610c1481611124565b915050610b75565b509392505050565b604080516001600160a01b038481166024830152604480830185905283518084039091018152606490920183526020820180516001600160e01b031663a9059cbb60e01b1790529151600092839290871691610c8091906111a0565b6000604051808303816000865af19150503d8060008114610cbd576040519150601f19603f3d011682016040523d82523d6000602084013e610cc2565b606091505b5091509150818015610cec575080511580610cec575080806020019051810190610cec91906111cf565b610d2a5760405162461bcd60e51b815260206004820152600f60248201526e1514905394d1915497d19052531151608a1b60448201526064016105e8565b5050505050565b604080516001600160a01b0385811660248301528481166044830152606480830185905283518084039091018152608490920183526020820180516001600160e01b03166323b872dd60e01b1790529151600092839290881691610d9591906111a0565b6000604051808303816000865af19150503d8060008114610dd2576040519150601f19603f3d011682016040523d82523d6000602084013e610dd7565b606091505b5091509150818015610e01575080511580610e01575080806020019051810190610e0191906111cf565b610e435760405162461bcd60e51b81526020600482015260136024820152721d1c985b9cd9995c919c9bdb4819985a5b1959606a1b60448201526064016105e8565b505050505050565b80356001600160a01b0381168114610e6257600080fd5b919050565b600060208284031215610e7957600080fd5b610b1282610e4b565b6000604082018483526020604081850152818551808452606086019150828701935060005b81811015610ec357845183529383019391830191600101610ea7565b5090979650505050505050565b634e487b7160e01b600052604160045260246000fd5b600082601f830112610ef757600080fd5b8135602067ffffffffffffffff80831115610f1457610f14610ed0565b8260051b604051601f19603f83011681018181108482111715610f3957610f39610ed0565b604052938452858101830193838101925087851115610f5757600080fd5b83870191505b84821015610f7657813583529183019190830190610f5d565b979650505050505050565b600080600060608486031215610f9657600080fd5b833567ffffffffffffffff80821115610fae57600080fd5b610fba87838801610ee6565b94506020860135915080821115610fd057600080fd5b50610fdd86828701610ee6565b925050604084013590509250925092565b60006020828403121561100057600080fd5b5035919050565b6000806040838503121561101a57600080fd5b61102383610e4b565b946020939093013593505050565b60008060006060848603121561104657600080fd5b505081359360208301359350604090920135919050565b6000806040838503121561107057600080fd5b82359150602083013560ff8116811461108857600080fd5b809150509250929050565b634e487b7160e01b600052601160045260246000fd5b6000826110c657634e487b7160e01b600052601260045260246000fd5b500490565b818103818111156110de576110de611093565b92915050565b808201808211156110de576110de611093565b634e487b7160e01b600052603260045260246000fd5b80820281158282048414176110de576110de611093565b60006001820161113657611136611093565b5060010190565b6020808252600d908201526c6f76657220646561646c696e6560981b604082015260600190565b6020808252600990820152683337b93134b23232b760b91b604082015260600190565b60ff82811682821603908111156110de576110de611093565b6000825160005b818110156111c157602081860181015185830152016111a7565b506000920191825250919050565b6000602082840312156111e157600080fd5b81518015158114610b1257600080fdfea26469706673582212202c3e601727ab13b1894c137bf925e7ad591946e7ad87c9c41b095a09f164b5e164736f6c63430008110033","opcodes":"PUSH2 0x140 PUSH1 0x40 MSTORE CALLVALUE DUP1 ISZERO PUSH2 0x11 JUMPI PUSH1 0x0 DUP1 REVERT JUMPDEST POP PUSH1 0x40 MLOAD PUSH2 0x13AD CODESIZE SUB DUP1 PUSH2 0x13AD DUP4 CODECOPY DUP2 ADD PUSH1 0x40 DUP2 SWAP1 MSTORE PUSH2 0x30 SWAP2 PUSH2 0x87 JUMP JUMPDEST PUSH1 0x1 PUSH1 0x1 PUSH1 0xA0 SHL SUB AND PUSH1 0x80 MSTORE PUSH1 0xFF SWAP5 DUP6 AND PUSH1 0xA0 MSTORE PUSH1 0xC0 SWAP4 SWAP1 SWAP4 MSTORE SWAP3 AND PUSH1 0xE0 MSTORE PUSH2 0x100 SWAP2 SWAP1 SWAP2 MSTORE PUSH2 0x120 MSTORE PUSH1 0x0 DUP1 SLOAD PUSH1 0x1 PUSH1 0x1 PUSH1 0xA0 SHL SUB NOT AND CALLER OR SWAP1 SSTORE PUSH2 0xF8 JUMP JUMPDEST DUP1 MLOAD PUSH1 0xFF DUP2 AND DUP2 EQ PUSH2 0x82 JUMPI PUSH1 0x0 DUP1 REVERT JUMPDEST SWAP2 SWAP1 POP JUMP JUMPDEST PUSH1 0x0 DUP1 PUSH1 0x0 DUP1 PUSH1 0x0 DUP1 PUSH1 0xC0 DUP8 DUP10 SUB SLT ISZERO PUSH2 0xA0 JUMPI PUSH1 0x0 DUP1 REVERT JUMPDEST PUSH2 0xA9 DUP8 PUSH2 0x71 JUMP JUMPDEST SWAP6 POP PUSH1 0x20 DUP8 ADD MLOAD SWAP5 POP PUSH2 0xBE PUSH1 0x40 DUP9 ADD PUSH2 0x71 JUMP JUMPDEST PUSH1 0x60 DUP9 ADD MLOAD PUSH1 0x80 DUP10 ADD MLOAD PUSH1 0xA0 DUP11 ADD MLOAD SWAP3 SWAP7 POP SWAP1 SWAP5 POP SWAP3 POP PUSH1 0x1 PUSH1 0x1 PUSH1 0xA0 SHL SUB DUP2 AND DUP2 EQ PUSH2 0xEA JUMPI PUSH1 0x0 DUP1 REVERT JUMPDEST DUP1 SWAP2 POP POP SWAP3 SWAP6 POP SWAP3 SWAP6 POP SWAP3 SWAP6 JUMP JUMPDEST PUSH1 0x80 MLOAD PUSH1 0xA0 MLOAD PUSH1 0xC0 MLOAD PUSH1 0xE0 MLOAD PUSH2 0x100 MLOAD PUSH2 0x120 MLOAD PUSH2 0x1227 PUSH2 0x186 PUSH1 0x0 CODECOPY PUSH1 0x0 PUSH2 0x210 ADD MSTORE PUSH1 0x0 PUSH2 0x2CE ADD MSTORE PUSH1 0x0 DUP2 DUP2 PUSH2 0x1AE ADD MSTORE DUP2 DUP2 PUSH2 0x3C5 ADD MSTORE DUP2 DUP2 PUSH2 0x589 ADD MSTORE DUP2 DUP2 PUSH2 0x7D4 ADD MSTORE PUSH2 0xB20 ADD MSTORE PUSH1 0x0 DUP2 DUP2 PUSH2 0x360 ADD MSTORE PUSH2 0xABC ADD MSTORE PUSH1 0x0 DUP2 DUP2 PUSH2 0x313 ADD MSTORE DUP2 DUP2 PUSH2 0xA58 ADD MSTORE PUSH2 0xA83 ADD MSTORE PUSH1 0x0 DUP2 DUP2 PUSH2 0x387 ADD MSTORE DUP2 DUP2 PUSH2 0x8DD ADD MSTORE PUSH2 0x9B4 ADD MSTORE PUSH2 0x1227 PUSH1 0x0 RETURN INVALID PUSH1 0x80 PUSH1 0x40 MSTORE CALLVALUE DUP1 ISZERO PUSH2 0x10 JUMPI PUSH1 0x0 DUP1 REVERT JUMPDEST POP PUSH1 0x4 CALLDATASIZE LT PUSH2 0x137 JUMPI PUSH1 0x0 CALLDATALOAD PUSH1 0xE0 SHR DUP1 PUSH4 0x8DA5CB5B GT PUSH2 0xB8 JUMPI DUP1 PUSH4 0xE11400BB GT PUSH2 0x7C JUMPI DUP1 PUSH4 0xE11400BB EQ PUSH2 0x30E JUMPI DUP1 PUSH4 0xE1C05D93 EQ PUSH2 0x335 JUMPI DUP1 PUSH4 0xEE3453ED EQ PUSH2 0x348 JUMPI DUP1 PUSH4 0xF6DEF7CF EQ PUSH2 0x35B JUMPI DUP1 PUSH4 0xF7C618C1 EQ PUSH2 0x382 JUMPI DUP1 PUSH4 0xFA60C77C EQ PUSH2 0x3A9 JUMPI PUSH1 0x0 DUP1 REVERT JUMPDEST DUP1 PUSH4 0x8DA5CB5B EQ PUSH2 0x278 JUMPI DUP1 PUSH4 0xAE169A50 EQ PUSH2 0x2A3 JUMPI DUP1 PUSH4 0xBB57852D EQ PUSH2 0x2B6 JUMPI DUP1 PUSH4 0xC75363B6 EQ PUSH2 0x2C9 JUMPI DUP1 PUSH4 0xCD671A58 EQ PUSH2 0x2F0 JUMPI PUSH1 0x0 DUP1 REVERT JUMPDEST DUP1 PUSH4 0x29ED1CFD GT PUSH2 0xFF JUMPI DUP1 PUSH4 0x29ED1CFD EQ PUSH2 0x202 JUMPI DUP1 PUSH4 0x37BA682D EQ PUSH2 0x20B JUMPI DUP1 PUSH4 0x4FB2E45D EQ PUSH2 0x232 JUMPI DUP1 PUSH4 0x5B680A45 EQ PUSH2 0x245 JUMPI DUP1 PUSH4 0x5F8E422F EQ PUSH2 0x270 JUMPI PUSH1 0x0 DUP1 REVERT JUMPDEST DUP1 PUSH4 0x2E9E495 EQ PUSH2 0x13C JUMPI DUP1 PUSH4 0x7C6E2FA EQ PUSH2 0x166 JUMPI DUP1 PUSH4 0xBCE1284 EQ PUSH2 0x17B JUMPI DUP1 PUSH4 0xD437D40 EQ PUSH2 0x1A9 JUMPI DUP1 PUSH4 0x157775DF EQ PUSH2 0x1E2 JUMPI JUMPDEST PUSH1 0x0 DUP1 REVERT JUMPDEST PUSH2 0x14F PUSH2 0x14A CALLDATASIZE PUSH1 0x4 PUSH2 0xE67 JUMP JUMPDEST PUSH2 0x3BC JUMP JUMPDEST PUSH1 0x40 MLOAD PUSH2 0x15D SWAP3 SWAP2 SWAP1 PUSH2 0xE82 JUMP JUMPDEST PUSH1 0x40 MLOAD DUP1 SWAP2 SUB SWAP1 RETURN JUMPDEST PUSH2 0x179 PUSH2 0x174 CALLDATASIZE PUSH1 0x4 PUSH2 0xF81 JUMP JUMPDEST PUSH2 0x5C7 JUMP JUMPDEST STOP JUMPDEST PUSH2 0x19B PUSH2 0x189 CALLDATASIZE PUSH1 0x4 PUSH2 0xFEE JUMP JUMPDEST PUSH1 0x5 PUSH1 0x20 MSTORE PUSH1 0x0 SWAP1 DUP2 MSTORE PUSH1 0x40 SWAP1 KECCAK256 SLOAD DUP2 JUMP JUMPDEST PUSH1 0x40 MLOAD SWAP1 DUP2 MSTORE PUSH1 0x20 ADD PUSH2 0x15D JUMP JUMPDEST PUSH2 0x1D0 PUSH32 0x0 DUP2 JUMP JUMPDEST PUSH1 0x40 MLOAD PUSH1 0xFF SWAP1 SWAP2 AND DUP2 MSTORE PUSH1 0x20 ADD PUSH2 0x15D JUMP JUMPDEST PUSH2 0x19B PUSH2 0x1F0 CALLDATASIZE PUSH1 0x4 PUSH2 0xFEE JUMP JUMPDEST PUSH1 0x4 PUSH1 0x20 MSTORE PUSH1 0x0 SWAP1 DUP2 MSTORE PUSH1 0x40 SWAP1 KECCAK256 SLOAD DUP2 JUMP JUMPDEST PUSH2 0x19B PUSH1 0x6 SLOAD DUP2 JUMP JUMPDEST PUSH2 0x19B PUSH32 0x0 DUP2 JUMP JUMPDEST PUSH2 0x179 PUSH2 0x240 CALLDATASIZE PUSH1 0x4 PUSH2 0xE67 JUMP JUMPDEST PUSH2 0x710 JUMP JUMPDEST PUSH2 0x19B PUSH2 0x253 CALLDATASIZE PUSH1 0x4 PUSH2 0x1007 JUMP JUMPDEST PUSH1 0x2 PUSH1 0x20 SWAP1 DUP2 MSTORE PUSH1 0x0 SWAP3 DUP4 MSTORE PUSH1 0x40 DUP1 DUP5 KECCAK256 SWAP1 SWAP2 MSTORE SWAP1 DUP3 MSTORE SWAP1 KECCAK256 SLOAD DUP2 JUMP JUMPDEST PUSH2 0x179 PUSH2 0x75C JUMP JUMPDEST PUSH1 0x0 SLOAD PUSH2 0x28B SWAP1 PUSH1 0x1 PUSH1 0x1 PUSH1 0xA0 SHL SUB AND DUP2 JUMP JUMPDEST PUSH1 0x40 MLOAD PUSH1 0x1 PUSH1 0x1 PUSH1 0xA0 SHL SUB SWAP1 SWAP2 AND DUP2 MSTORE PUSH1 0x20 ADD PUSH2 0x15D JUMP JUMPDEST PUSH2 0x179 PUSH2 0x2B1 CALLDATASIZE PUSH1 0x4 PUSH2 0xFEE JUMP JUMPDEST PUSH2 0x7AD JUMP JUMPDEST PUSH2 0x19B PUSH2 0x2C4 CALLDATASIZE PUSH1 0x4 PUSH2 0x1007 JUMP JUMPDEST PUSH2 0x93F JUMP JUMPDEST PUSH2 0x19B PUSH32 0x0 DUP2 JUMP JUMPDEST PUSH2 0x2FA PUSH3 0x93A80 DUP2 JUMP JUMPDEST PUSH1 0x40 MLOAD PUSH3 0xFFFFFF SWAP1 SWAP2 AND DUP2 MSTORE PUSH1 0x20 ADD PUSH2 0x15D JUMP JUMPDEST PUSH2 0x1D0 PUSH32 0x0 DUP2 JUMP JUMPDEST PUSH2 0x179 PUSH2 0x343 CALLDATASIZE PUSH1 0x4 PUSH2 0x1031 JUMP JUMPDEST PUSH2 0x964 JUMP JUMPDEST PUSH2 0x19B PUSH2 0x356 CALLDATASIZE PUSH1 0x4 PUSH2 0x105D JUMP JUMPDEST PUSH2 0xA4F JUMP JUMPDEST PUSH2 0x19B PUSH32 0x0 DUP2 JUMP JUMPDEST PUSH2 0x28B PUSH32 0x0 DUP2 JUMP JUMPDEST PUSH2 0x19B PUSH2 0x3B7 CALLDATASIZE PUSH1 0x4 PUSH2 0xE67 JUMP JUMPDEST PUSH2 0xB19 JUMP JUMPDEST PUSH1 0x0 PUSH1 0x60 DUP2 PUSH1 0xFF PUSH32 0x0 AND PUSH2 0x3F2 PUSH3 0x93A80 TIMESTAMP PUSH2 0x10A9 JUMP JUMPDEST PUSH2 0x3FC SWAP2 SWAP1 PUSH2 0x10CB JUMP JUMPDEST PUSH2 0x407 SWAP1 PUSH1 0x1 PUSH2 0x10E4 JUMP JUMPDEST PUSH1 0x1 PUSH1 0x1 PUSH1 0xA0 SHL SUB DUP6 AND PUSH1 0x0 SWAP1 DUP2 MSTORE PUSH1 0x3 PUSH1 0x20 MSTORE PUSH1 0x40 SWAP1 KECCAK256 SWAP1 SWAP2 POP DUP2 SWAP1 PUSH1 0x1 ADD SLOAD GT PUSH2 0x446 JUMPI PUSH1 0x40 DUP1 MLOAD PUSH1 0x0 DUP2 MSTORE PUSH1 0x20 DUP2 ADD SWAP1 SWAP2 MSTORE SWAP1 SWAP5 SWAP1 SWAP4 POP SWAP2 POP POP JUMP JUMPDEST PUSH1 0x1 PUSH1 0x1 PUSH1 0xA0 SHL SUB DUP5 AND PUSH1 0x0 SWAP1 DUP2 MSTORE PUSH1 0x3 PUSH1 0x20 MSTORE PUSH1 0x40 DUP2 KECCAK256 DUP1 SLOAD PUSH1 0x1 SWAP1 SWAP2 ADD SLOAD SWAP1 SWAP2 DUP4 DUP4 GT PUSH2 0x475 JUMPI DUP4 PUSH2 0x477 JUMP JUMPDEST DUP3 JUMPDEST SWAP1 POP PUSH1 0x0 PUSH2 0x485 DUP3 DUP5 PUSH2 0x10CB JUMP JUMPDEST PUSH8 0xFFFFFFFFFFFFFFFF DUP2 GT ISZERO PUSH2 0x49D JUMPI PUSH2 0x49D PUSH2 0xED0 JUMP JUMPDEST PUSH1 0x40 MLOAD SWAP1 DUP1 DUP3 MSTORE DUP1 PUSH1 0x20 MUL PUSH1 0x20 ADD DUP3 ADD PUSH1 0x40 MSTORE DUP1 ISZERO PUSH2 0x4C6 JUMPI DUP2 PUSH1 0x20 ADD PUSH1 0x20 DUP3 MUL DUP1 CALLDATASIZE DUP4 CALLDATACOPY ADD SWAP1 POP JUMPDEST POP SWAP1 POP DUP2 JUMPDEST DUP4 DUP2 LT ISZERO PUSH2 0x571 JUMPI PUSH1 0x0 DUP2 DUP2 MSTORE PUSH1 0x4 PUSH1 0x20 MSTORE PUSH1 0x40 SWAP1 KECCAK256 SLOAD ISZERO PUSH2 0x536 JUMPI PUSH1 0x0 DUP2 DUP2 MSTORE PUSH1 0x4 PUSH1 0x20 SWAP1 DUP2 MSTORE PUSH1 0x40 DUP1 DUP4 KECCAK256 SLOAD PUSH1 0x1 PUSH1 0x1 PUSH1 0xA0 SHL SUB DUP14 AND DUP5 MSTORE PUSH1 0x2 DUP4 MSTORE DUP2 DUP5 KECCAK256 DUP6 DUP6 MSTORE DUP4 MSTORE DUP2 DUP5 KECCAK256 SLOAD PUSH1 0x5 SWAP1 SWAP4 MSTORE SWAP3 KECCAK256 SLOAD PUSH2 0x527 SWAP2 SWAP1 PUSH2 0x110D JUMP JUMPDEST PUSH2 0x531 SWAP2 SWAP1 PUSH2 0x10A9 JUMP JUMPDEST PUSH2 0x539 JUMP JUMPDEST PUSH1 0x0 JUMPDEST DUP3 PUSH2 0x544 DUP6 DUP5 PUSH2 0x10CB JUMP JUMPDEST DUP2 MLOAD DUP2 LT PUSH2 0x554 JUMPI PUSH2 0x554 PUSH2 0x10F7 JUMP JUMPDEST PUSH1 0x20 SWAP1 DUP2 MUL SWAP2 SWAP1 SWAP2 ADD ADD MSTORE DUP1 PUSH2 0x569 DUP2 PUSH2 0x1124 JUMP JUMPDEST SWAP2 POP POP PUSH2 0x4CB JUMP JUMPDEST POP PUSH1 0x0 PUSH2 0x581 PUSH3 0x93A80 TIMESTAMP PUSH2 0x10A9 JUMP JUMPDEST PUSH2 0x5AE DUP5 PUSH1 0xFF PUSH32 0x0 AND PUSH2 0x10E4 JUMP JUMPDEST PUSH2 0x5B8 SWAP2 SWAP1 PUSH2 0x10CB JUMP JUMPDEST SWAP10 SWAP2 SWAP9 POP SWAP1 SWAP7 POP POP POP POP POP POP POP JUMP JUMPDEST DUP1 DUP1 TIMESTAMP GT ISZERO PUSH2 0x5F1 JUMPI PUSH1 0x40 MLOAD PUSH3 0x461BCD PUSH1 0xE5 SHL DUP2 MSTORE PUSH1 0x4 ADD PUSH2 0x5E8 SWAP1 PUSH2 0x113D JUMP JUMPDEST PUSH1 0x40 MLOAD DUP1 SWAP2 SUB SWAP1 REVERT JUMPDEST PUSH1 0x0 SLOAD PUSH1 0x1 PUSH1 0x1 PUSH1 0xA0 SHL SUB AND CALLER EQ PUSH2 0x61B JUMPI PUSH1 0x40 MLOAD PUSH3 0x461BCD PUSH1 0xE5 SHL DUP2 MSTORE PUSH1 0x4 ADD PUSH2 0x5E8 SWAP1 PUSH2 0x1164 JUMP JUMPDEST DUP3 MLOAD DUP5 MLOAD EQ PUSH2 0x65F JUMPI PUSH1 0x40 MLOAD PUSH3 0x461BCD PUSH1 0xE5 SHL DUP2 MSTORE PUSH1 0x20 PUSH1 0x4 DUP3 ADD MSTORE PUSH1 0x10 PUSH1 0x24 DUP3 ADD MSTORE PUSH16 0x3830B930B6B2BA32B9399032B93937B9 PUSH1 0x81 SHL PUSH1 0x44 DUP3 ADD MSTORE PUSH1 0x64 ADD PUSH2 0x5E8 JUMP JUMPDEST PUSH1 0x0 DUP1 JUMPDEST DUP6 MLOAD DUP2 LT ISZERO PUSH2 0x706 JUMPI DUP5 DUP2 DUP2 MLOAD DUP2 LT PUSH2 0x67E JUMPI PUSH2 0x67E PUSH2 0x10F7 JUMP JUMPDEST PUSH1 0x20 MUL PUSH1 0x20 ADD ADD MLOAD PUSH1 0x5 PUSH1 0x0 DUP9 DUP5 DUP2 MLOAD DUP2 LT PUSH2 0x69C JUMPI PUSH2 0x69C PUSH2 0x10F7 JUMP JUMPDEST PUSH1 0x20 MUL PUSH1 0x20 ADD ADD MLOAD DUP2 MSTORE PUSH1 0x20 ADD SWAP1 DUP2 MSTORE PUSH1 0x20 ADD PUSH1 0x0 KECCAK256 DUP2 SWAP1 SSTORE POP DUP2 DUP7 DUP3 DUP2 MLOAD DUP2 LT PUSH2 0x6C9 JUMPI PUSH2 0x6C9 PUSH2 0x10F7 JUMP JUMPDEST PUSH1 0x20 MUL PUSH1 0x20 ADD ADD MLOAD GT ISZERO PUSH2 0x6F4 JUMPI DUP6 DUP2 DUP2 MLOAD DUP2 LT PUSH2 0x6E9 JUMPI PUSH2 0x6E9 PUSH2 0x10F7 JUMP JUMPDEST PUSH1 0x20 MUL PUSH1 0x20 ADD ADD MLOAD SWAP2 POP JUMPDEST DUP1 PUSH2 0x6FE DUP2 PUSH2 0x1124 JUMP JUMPDEST SWAP2 POP POP PUSH2 0x663 JUMP JUMPDEST POP PUSH1 0x6 SSTORE POP POP POP POP JUMP JUMPDEST PUSH1 0x0 SLOAD PUSH1 0x1 PUSH1 0x1 PUSH1 0xA0 SHL SUB AND CALLER EQ PUSH2 0x73A JUMPI PUSH1 0x40 MLOAD PUSH3 0x461BCD PUSH1 0xE5 SHL DUP2 MSTORE PUSH1 0x4 ADD PUSH2 0x5E8 SWAP1 PUSH2 0x1164 JUMP JUMPDEST PUSH1 0x1 DUP1 SLOAD PUSH1 0x1 PUSH1 0x1 PUSH1 0xA0 SHL SUB NOT AND PUSH1 0x1 PUSH1 0x1 PUSH1 0xA0 SHL SUB SWAP3 SWAP1 SWAP3 AND SWAP2 SWAP1 SWAP2 OR SWAP1 SSTORE JUMP JUMPDEST PUSH1 0x1 SLOAD PUSH1 0x1 PUSH1 0x1 PUSH1 0xA0 SHL SUB AND CALLER EQ PUSH2 0x786 JUMPI PUSH1 0x40 MLOAD PUSH3 0x461BCD PUSH1 0xE5 SHL DUP2 MSTORE PUSH1 0x4 ADD PUSH2 0x5E8 SWAP1 PUSH2 0x1164 JUMP JUMPDEST PUSH1 0x1 DUP1 SLOAD PUSH1 0x0 DUP1 SLOAD PUSH1 0x1 PUSH1 0x1 PUSH1 0xA0 SHL SUB NOT SWAP1 DUP2 AND PUSH1 0x1 PUSH1 0x1 PUSH1 0xA0 SHL SUB DUP5 AND OR SWAP1 SWAP2 SSTORE AND SWAP1 SSTORE JUMP JUMPDEST DUP1 DUP1 TIMESTAMP GT ISZERO PUSH2 0x7CE JUMPI PUSH1 0x40 MLOAD PUSH3 0x461BCD PUSH1 0xE5 SHL DUP2 MSTORE PUSH1 0x4 ADD PUSH2 0x5E8 SWAP1 PUSH2 0x113D JUMP JUMPDEST PUSH1 0x0 PUSH1 0xFF PUSH32 0x0 AND PUSH2 0x801 PUSH3 0x93A80 TIMESTAMP PUSH2 0x10A9 JUMP JUMPDEST PUSH2 0x80B SWAP2 SWAP1 PUSH2 0x10CB JUMP JUMPDEST CALLER PUSH1 0x0 SWAP1 DUP2 MSTORE PUSH1 0x3 PUSH1 0x20 MSTORE PUSH1 0x40 DUP2 KECCAK256 SLOAD SWAP2 SWAP3 POP SWAP1 DUP1 JUMPDEST CALLER PUSH1 0x0 SWAP1 DUP2 MSTORE PUSH1 0x3 PUSH1 0x20 MSTORE PUSH1 0x40 SWAP1 KECCAK256 PUSH1 0x1 ADD SLOAD DUP2 LT ISZERO PUSH2 0x8C4 JUMPI DUP4 DUP2 GT PUSH2 0x8C4 JUMPI PUSH2 0x84D DUP2 PUSH1 0x1 PUSH2 0x10E4 JUMP JUMPDEST PUSH1 0x0 DUP3 DUP2 MSTORE PUSH1 0x4 PUSH1 0x20 MSTORE PUSH1 0x40 SWAP1 KECCAK256 SLOAD SWAP1 SWAP3 POP ISZERO PUSH2 0x8B2 JUMPI PUSH1 0x0 DUP2 DUP2 MSTORE PUSH1 0x4 PUSH1 0x20 SWAP1 DUP2 MSTORE PUSH1 0x40 DUP1 DUP4 KECCAK256 SLOAD CALLER DUP5 MSTORE PUSH1 0x2 DUP4 MSTORE DUP2 DUP5 KECCAK256 DUP6 DUP6 MSTORE DUP4 MSTORE DUP2 DUP5 KECCAK256 SLOAD PUSH1 0x5 SWAP1 SWAP4 MSTORE SWAP3 KECCAK256 SLOAD PUSH2 0x89B SWAP2 SWAP1 PUSH2 0x110D JUMP JUMPDEST PUSH2 0x8A5 SWAP2 SWAP1 PUSH2 0x10A9 JUMP JUMPDEST PUSH2 0x8AF SWAP1 DUP5 PUSH2 0x10E4 JUMP JUMPDEST SWAP3 POP JUMPDEST DUP1 PUSH2 0x8BC DUP2 PUSH2 0x1124 JUMP JUMPDEST SWAP2 POP POP PUSH2 0x821 JUMP JUMPDEST POP CALLER PUSH1 0x0 SWAP1 DUP2 MSTORE PUSH1 0x3 PUSH1 0x20 MSTORE PUSH1 0x40 DUP2 KECCAK256 DUP3 SWAP2 ADD SSTORE PUSH2 0x903 PUSH32 0x0 CALLER DUP5 PUSH2 0xC24 JUMP JUMPDEST PUSH1 0x40 MLOAD DUP3 DUP2 MSTORE CALLER SWAP1 PUSH32 0xBA8DE60C3403EC381D1D484652EA1980E3C3E56359195C92525BFF4CE47AD98E SWAP1 PUSH1 0x20 ADD PUSH1 0x40 MLOAD DUP1 SWAP2 SUB SWAP1 LOG2 POP POP POP POP POP JUMP JUMPDEST PUSH1 0x3 PUSH1 0x20 MSTORE DUP2 PUSH1 0x0 MSTORE PUSH1 0x40 PUSH1 0x0 KECCAK256 DUP2 PUSH1 0x2 DUP2 LT PUSH2 0x95B JUMPI PUSH1 0x0 DUP1 REVERT JUMPDEST ADD SLOAD SWAP2 POP DUP3 SWAP1 POP JUMP JUMPDEST DUP1 DUP1 TIMESTAMP GT ISZERO PUSH2 0x985 JUMPI PUSH1 0x40 MLOAD PUSH3 0x461BCD PUSH1 0xE5 SHL DUP2 MSTORE PUSH1 0x4 ADD PUSH2 0x5E8 SWAP1 PUSH2 0x113D JUMP JUMPDEST PUSH1 0x0 SLOAD PUSH1 0x1 PUSH1 0x1 PUSH1 0xA0 SHL SUB AND CALLER EQ PUSH2 0x9AF JUMPI PUSH1 0x40 MLOAD PUSH3 0x461BCD PUSH1 0xE5 SHL DUP2 MSTORE PUSH1 0x4 ADD PUSH2 0x5E8 SWAP1 PUSH2 0x1164 JUMP JUMPDEST PUSH2 0x9DB PUSH32 0x0 CALLER ADDRESS DUP7 PUSH2 0xD31 JUMP JUMPDEST PUSH1 0x0 DUP5 DUP2 MSTORE PUSH1 0x5 PUSH1 0x20 MSTORE PUSH1 0x40 DUP2 KECCAK256 DUP1 SLOAD DUP6 SWAP3 SWAP1 PUSH2 0x9F9 SWAP1 DUP5 SWAP1 PUSH2 0x10E4 JUMP JUMPDEST SWAP1 SWAP2 SSTORE POP POP PUSH1 0x6 SLOAD DUP5 GT ISZERO PUSH2 0xA0E JUMPI PUSH1 0x6 DUP5 SWAP1 SSTORE JUMPDEST PUSH1 0x40 DUP1 MLOAD DUP6 DUP2 MSTORE PUSH1 0x20 DUP2 ADD DUP6 SWAP1 MSTORE CALLER SWAP2 PUSH32 0xC3991418CACD70A010FCE559A44FCBB47534CA43BF7543964BDCA2639F6E6E5A SWAP2 ADD PUSH1 0x40 MLOAD DUP1 SWAP2 SUB SWAP1 LOG2 POP POP POP POP JUMP JUMPDEST PUSH1 0x0 PUSH2 0xA7C PUSH1 0x1 PUSH32 0x0 PUSH2 0x1187 JUMP JUMPDEST PUSH1 0xFF AND PUSH1 0x1 PUSH32 0x0 PUSH1 0xFF AND PUSH1 0x1 DUP6 PUSH2 0xAB2 SWAP2 SWAP1 PUSH2 0x1187 JUMP JUMPDEST PUSH1 0xFF AND PUSH2 0xAE0 PUSH1 0x1 PUSH32 0x0 PUSH2 0x10CB JUMP JUMPDEST PUSH2 0xAEA SWAP2 SWAP1 PUSH2 0x110D JUMP JUMPDEST PUSH2 0xAF4 SWAP2 SWAP1 PUSH2 0x10E4 JUMP JUMPDEST PUSH2 0xAFE SWAP2 SWAP1 PUSH2 0x10CB JUMP JUMPDEST PUSH2 0xB08 SWAP1 DUP6 PUSH2 0x110D JUMP JUMPDEST PUSH2 0xB12 SWAP2 SWAP1 PUSH2 0x10A9 JUMP JUMPDEST SWAP4 SWAP3 POP POP POP JUMP JUMPDEST PUSH1 0x0 DUP1 PUSH1 0xFF PUSH32 0x0 AND PUSH2 0xB4D PUSH3 0x93A80 TIMESTAMP PUSH2 0x10A9 JUMP JUMPDEST PUSH2 0xB57 SWAP2 SWAP1 PUSH2 0x10CB JUMP JUMPDEST PUSH1 0x1 PUSH1 0x1 PUSH1 0xA0 SHL SUB DUP5 AND PUSH1 0x0 SWAP1 DUP2 MSTORE PUSH1 0x3 PUSH1 0x20 MSTORE PUSH1 0x40 DUP2 KECCAK256 SLOAD SWAP2 SWAP3 POP SWAP1 JUMPDEST PUSH1 0x1 PUSH1 0x1 PUSH1 0xA0 SHL SUB DUP6 AND PUSH1 0x0 SWAP1 DUP2 MSTORE PUSH1 0x3 PUSH1 0x20 MSTORE PUSH1 0x40 SWAP1 KECCAK256 PUSH1 0x1 ADD SLOAD DUP2 LT ISZERO PUSH2 0xC1C JUMPI DUP3 DUP2 GT PUSH2 0xC1C JUMPI PUSH1 0x0 DUP2 DUP2 MSTORE PUSH1 0x4 PUSH1 0x20 MSTORE PUSH1 0x40 SWAP1 KECCAK256 SLOAD ISZERO PUSH2 0xC0A JUMPI PUSH1 0x0 DUP2 DUP2 MSTORE PUSH1 0x4 PUSH1 0x20 SWAP1 DUP2 MSTORE PUSH1 0x40 DUP1 DUP4 KECCAK256 SLOAD PUSH1 0x1 PUSH1 0x1 PUSH1 0xA0 SHL SUB DUP10 AND DUP5 MSTORE PUSH1 0x2 DUP4 MSTORE DUP2 DUP5 KECCAK256 DUP6 DUP6 MSTORE DUP4 MSTORE DUP2 DUP5 KECCAK256 SLOAD PUSH1 0x5 SWAP1 SWAP4 MSTORE SWAP3 KECCAK256 SLOAD PUSH2 0xBF3 SWAP2 SWAP1 PUSH2 0x110D JUMP JUMPDEST PUSH2 0xBFD SWAP2 SWAP1 PUSH2 0x10A9 JUMP JUMPDEST PUSH2 0xC07 SWAP1 DUP4 PUSH2 0x10E4 JUMP JUMPDEST SWAP2 POP JUMPDEST DUP1 PUSH2 0xC14 DUP2 PUSH2 0x1124 JUMP JUMPDEST SWAP2 POP POP PUSH2 0xB75 JUMP JUMPDEST POP SWAP4 SWAP3 POP POP POP JUMP JUMPDEST PUSH1 0x40 DUP1 MLOAD PUSH1 0x1 PUSH1 0x1 PUSH1 0xA0 SHL SUB DUP5 DUP2 AND PUSH1 0x24 DUP4 ADD MSTORE PUSH1 0x44 DUP1 DUP4 ADD DUP6 SWAP1 MSTORE DUP4 MLOAD DUP1 DUP5 SUB SWAP1 SWAP2 ADD DUP2 MSTORE PUSH1 0x64 SWAP1 SWAP3 ADD DUP4 MSTORE PUSH1 0x20 DUP3 ADD DUP1 MLOAD PUSH1 0x1 PUSH1 0x1 PUSH1 0xE0 SHL SUB AND PUSH4 0xA9059CBB PUSH1 0xE0 SHL OR SWAP1 MSTORE SWAP2 MLOAD PUSH1 0x0 SWAP3 DUP4 SWAP3 SWAP1 DUP8 AND SWAP2 PUSH2 0xC80 SWAP2 SWAP1 PUSH2 0x11A0 JUMP JUMPDEST PUSH1 0x0 PUSH1 0x40 MLOAD DUP1 DUP4 SUB DUP2 PUSH1 0x0 DUP7 GAS CALL SWAP2 POP POP RETURNDATASIZE DUP1 PUSH1 0x0 DUP2 EQ PUSH2 0xCBD JUMPI PUSH1 0x40 MLOAD SWAP2 POP PUSH1 0x1F NOT PUSH1 0x3F RETURNDATASIZE ADD AND DUP3 ADD PUSH1 0x40 MSTORE RETURNDATASIZE DUP3 MSTORE RETURNDATASIZE PUSH1 0x0 PUSH1 0x20 DUP5 ADD RETURNDATACOPY PUSH2 0xCC2 JUMP JUMPDEST PUSH1 0x60 SWAP2 POP JUMPDEST POP SWAP2 POP SWAP2 POP DUP2 DUP1 ISZERO PUSH2 0xCEC JUMPI POP DUP1 MLOAD ISZERO DUP1 PUSH2 0xCEC JUMPI POP DUP1 DUP1 PUSH1 0x20 ADD SWAP1 MLOAD DUP2 ADD SWAP1 PUSH2 0xCEC SWAP2 SWAP1 PUSH2 0x11CF JUMP JUMPDEST PUSH2 0xD2A JUMPI PUSH1 0x40 MLOAD PUSH3 0x461BCD PUSH1 0xE5 SHL DUP2 MSTORE PUSH1 0x20 PUSH1 0x4 DUP3 ADD MSTORE PUSH1 0xF PUSH1 0x24 DUP3 ADD MSTORE PUSH15 0x1514905394D1915497D19052531151 PUSH1 0x8A SHL PUSH1 0x44 DUP3 ADD MSTORE PUSH1 0x64 ADD PUSH2 0x5E8 JUMP JUMPDEST POP POP POP POP POP JUMP JUMPDEST PUSH1 0x40 DUP1 MLOAD PUSH1 0x1 PUSH1 0x1 PUSH1 0xA0 SHL SUB DUP6 DUP2 AND PUSH1 0x24 DUP4 ADD MSTORE DUP5 DUP2 AND PUSH1 0x44 DUP4 ADD MSTORE PUSH1 0x64 DUP1 DUP4 ADD DUP6 SWAP1 MSTORE DUP4 MLOAD DUP1 DUP5 SUB SWAP1 SWAP2 ADD DUP2 MSTORE PUSH1 0x84 SWAP1 SWAP3 ADD DUP4 MSTORE PUSH1 0x20 DUP3 ADD DUP1 MLOAD PUSH1 0x1 PUSH1 0x1 PUSH1 0xE0 SHL SUB AND PUSH4 0x23B872DD PUSH1 0xE0 SHL OR SWAP1 MSTORE SWAP2 MLOAD PUSH1 0x0 SWAP3 DUP4 SWAP3 SWAP1 DUP9 AND SWAP2 PUSH2 0xD95 SWAP2 SWAP1 PUSH2 0x11A0 JUMP JUMPDEST PUSH1 0x0 PUSH1 0x40 MLOAD DUP1 DUP4 SUB DUP2 PUSH1 0x0 DUP7 GAS CALL SWAP2 POP POP RETURNDATASIZE DUP1 PUSH1 0x0 DUP2 EQ PUSH2 0xDD2 JUMPI PUSH1 0x40 MLOAD SWAP2 POP PUSH1 0x1F NOT PUSH1 0x3F RETURNDATASIZE ADD AND DUP3 ADD PUSH1 0x40 MSTORE RETURNDATASIZE DUP3 MSTORE RETURNDATASIZE PUSH1 0x0 PUSH1 0x20 DUP5 ADD RETURNDATACOPY PUSH2 0xDD7 JUMP JUMPDEST PUSH1 0x60 SWAP2 POP JUMPDEST POP SWAP2 POP SWAP2 POP DUP2 DUP1 ISZERO PUSH2 0xE01 JUMPI POP DUP1 MLOAD ISZERO DUP1 PUSH2 0xE01 JUMPI POP DUP1 DUP1 PUSH1 0x20 ADD SWAP1 MLOAD DUP2 ADD SWAP1 PUSH2 0xE01 SWAP2 SWAP1 PUSH2 0x11CF JUMP JUMPDEST PUSH2 0xE43 JUMPI PUSH1 0x40 MLOAD PUSH3 0x461BCD PUSH1 0xE5 SHL DUP2 MSTORE PUSH1 0x20 PUSH1 0x4 DUP3 ADD MSTORE PUSH1 0x13 PUSH1 0x24 DUP3 ADD MSTORE PUSH19 0x1D1C985B9CD9995C919C9BDB4819985A5B1959 PUSH1 0x6A SHL PUSH1 0x44 DUP3 ADD MSTORE PUSH1 0x64 ADD PUSH2 0x5E8 JUMP JUMPDEST POP POP POP POP POP POP JUMP JUMPDEST DUP1 CALLDATALOAD PUSH1 0x1 PUSH1 0x1 PUSH1 0xA0 SHL SUB DUP2 AND DUP2 EQ PUSH2 0xE62 JUMPI PUSH1 0x0 DUP1 REVERT JUMPDEST SWAP2 SWAP1 POP JUMP JUMPDEST PUSH1 0x0 PUSH1 0x20 DUP3 DUP5 SUB SLT ISZERO PUSH2 0xE79 JUMPI PUSH1 0x0 DUP1 REVERT JUMPDEST PUSH2 0xB12 DUP3 PUSH2 0xE4B JUMP JUMPDEST PUSH1 0x0 PUSH1 0x40 DUP3 ADD DUP5 DUP4 MSTORE PUSH1 0x20 PUSH1 0x40 DUP2 DUP6 ADD MSTORE DUP2 DUP6 MLOAD DUP1 DUP5 MSTORE PUSH1 0x60 DUP7 ADD SWAP2 POP DUP3 DUP8 ADD SWAP4 POP PUSH1 0x0 JUMPDEST DUP2 DUP2 LT ISZERO PUSH2 0xEC3 JUMPI DUP5 MLOAD DUP4 MSTORE SWAP4 DUP4 ADD SWAP4 SWAP2 DUP4 ADD SWAP2 PUSH1 0x1 ADD PUSH2 0xEA7 JUMP JUMPDEST POP SWAP1 SWAP8 SWAP7 POP POP POP POP POP POP POP JUMP JUMPDEST PUSH4 0x4E487B71 PUSH1 0xE0 SHL PUSH1 0x0 MSTORE PUSH1 0x41 PUSH1 0x4 MSTORE PUSH1 0x24 PUSH1 0x0 REVERT JUMPDEST PUSH1 0x0 DUP3 PUSH1 0x1F DUP4 ADD SLT PUSH2 0xEF7 JUMPI PUSH1 0x0 DUP1 REVERT JUMPDEST DUP2 CALLDATALOAD PUSH1 0x20 PUSH8 0xFFFFFFFFFFFFFFFF DUP1 DUP4 GT ISZERO PUSH2 0xF14 JUMPI PUSH2 0xF14 PUSH2 0xED0 JUMP JUMPDEST DUP3 PUSH1 0x5 SHL PUSH1 0x40 MLOAD PUSH1 0x1F NOT PUSH1 0x3F DUP4 ADD AND DUP2 ADD DUP2 DUP2 LT DUP5 DUP3 GT OR ISZERO PUSH2 0xF39 JUMPI PUSH2 0xF39 PUSH2 0xED0 JUMP JUMPDEST PUSH1 0x40 MSTORE SWAP4 DUP5 MSTORE DUP6 DUP2 ADD DUP4 ADD SWAP4 DUP4 DUP2 ADD SWAP3 POP DUP8 DUP6 GT ISZERO PUSH2 0xF57 JUMPI PUSH1 0x0 DUP1 REVERT JUMPDEST DUP4 DUP8 ADD SWAP2 POP JUMPDEST DUP5 DUP3 LT ISZERO PUSH2 0xF76 JUMPI DUP2 CALLDATALOAD DUP4 MSTORE SWAP2 DUP4 ADD SWAP2 SWAP1 DUP4 ADD SWAP1 PUSH2 0xF5D JUMP JUMPDEST SWAP8 SWAP7 POP POP POP POP POP POP POP JUMP JUMPDEST PUSH1 0x0 DUP1 PUSH1 0x0 PUSH1 0x60 DUP5 DUP7 SUB SLT ISZERO PUSH2 0xF96 JUMPI PUSH1 0x0 DUP1 REVERT JUMPDEST DUP4 CALLDATALOAD PUSH8 0xFFFFFFFFFFFFFFFF DUP1 DUP3 GT ISZERO PUSH2 0xFAE JUMPI PUSH1 0x0 DUP1 REVERT JUMPDEST PUSH2 0xFBA DUP8 DUP4 DUP9 ADD PUSH2 0xEE6 JUMP JUMPDEST SWAP5 POP PUSH1 0x20 DUP7 ADD CALLDATALOAD SWAP2 POP DUP1 DUP3 GT ISZERO PUSH2 0xFD0 JUMPI PUSH1 0x0 DUP1 REVERT JUMPDEST POP PUSH2 0xFDD DUP7 DUP3 DUP8 ADD PUSH2 0xEE6 JUMP JUMPDEST SWAP3 POP POP PUSH1 0x40 DUP5 ADD CALLDATALOAD SWAP1 POP SWAP3 POP SWAP3 POP SWAP3 JUMP JUMPDEST PUSH1 0x0 PUSH1 0x20 DUP3 DUP5 SUB SLT ISZERO PUSH2 0x1000 JUMPI PUSH1 0x0 DUP1 REVERT JUMPDEST POP CALLDATALOAD SWAP2 SWAP1 POP JUMP JUMPDEST PUSH1 0x0 DUP1 PUSH1 0x40 DUP4 DUP6 SUB SLT ISZERO PUSH2 0x101A JUMPI PUSH1 0x0 DUP1 REVERT JUMPDEST PUSH2 0x1023 DUP4 PUSH2 0xE4B JUMP JUMPDEST SWAP5 PUSH1 0x20 SWAP4 SWAP1 SWAP4 ADD CALLDATALOAD SWAP4 POP POP POP JUMP JUMPDEST PUSH1 0x0 DUP1 PUSH1 0x0 PUSH1 0x60 DUP5 DUP7 SUB SLT ISZERO PUSH2 0x1046 JUMPI PUSH1 0x0 DUP1 REVERT JUMPDEST POP POP DUP2 CALLDATALOAD SWAP4 PUSH1 0x20 DUP4 ADD CALLDATALOAD SWAP4 POP PUSH1 0x40 SWAP1 SWAP3 ADD CALLDATALOAD SWAP2 SWAP1 POP JUMP JUMPDEST PUSH1 0x0 DUP1 PUSH1 0x40 DUP4 DUP6 SUB SLT ISZERO PUSH2 0x1070 JUMPI PUSH1 0x0 DUP1 REVERT JUMPDEST DUP3 CALLDATALOAD SWAP2 POP PUSH1 0x20 DUP4 ADD CALLDATALOAD PUSH1 0xFF DUP2 AND DUP2 EQ PUSH2 0x1088 JUMPI PUSH1 0x0 DUP1 REVERT JUMPDEST DUP1 SWAP2 POP POP SWAP3 POP SWAP3 SWAP1 POP JUMP JUMPDEST PUSH4 0x4E487B71 PUSH1 0xE0 SHL PUSH1 0x0 MSTORE PUSH1 0x11 PUSH1 0x4 MSTORE PUSH1 0x24 PUSH1 0x0 REVERT JUMPDEST PUSH1 0x0 DUP3 PUSH2 0x10C6 JUMPI PUSH4 0x4E487B71 PUSH1 0xE0 SHL PUSH1 0x0 MSTORE PUSH1 0x12 PUSH1 0x4 MSTORE PUSH1 0x24 PUSH1 0x0 REVERT JUMPDEST POP DIV SWAP1 JUMP JUMPDEST DUP2 DUP2 SUB DUP2 DUP2 GT ISZERO PUSH2 0x10DE JUMPI PUSH2 0x10DE PUSH2 0x1093 JUMP JUMPDEST SWAP3 SWAP2 POP POP JUMP JUMPDEST DUP1 DUP3 ADD DUP1 DUP3 GT ISZERO PUSH2 0x10DE JUMPI PUSH2 0x10DE PUSH2 0x1093 JUMP JUMPDEST PUSH4 0x4E487B71 PUSH1 0xE0 SHL PUSH1 0x0 MSTORE PUSH1 0x32 PUSH1 0x4 MSTORE PUSH1 0x24 PUSH1 0x0 REVERT JUMPDEST DUP1 DUP3 MUL DUP2 ISZERO DUP3 DUP3 DIV DUP5 EQ OR PUSH2 0x10DE JUMPI PUSH2 0x10DE PUSH2 0x1093 JUMP JUMPDEST PUSH1 0x0 PUSH1 0x1 DUP3 ADD PUSH2 0x1136 JUMPI PUSH2 0x1136 PUSH2 0x1093 JUMP JUMPDEST POP PUSH1 0x1 ADD SWAP1 JUMP JUMPDEST PUSH1 0x20 DUP1 DUP3 MSTORE PUSH1 0xD SWAP1 DUP3 ADD MSTORE PUSH13 0x6F76657220646561646C696E65 PUSH1 0x98 SHL PUSH1 0x40 DUP3 ADD MSTORE PUSH1 0x60 ADD SWAP1 JUMP JUMPDEST PUSH1 0x20 DUP1 DUP3 MSTORE PUSH1 0x9 SWAP1 DUP3 ADD MSTORE PUSH9 0x3337B93134B23232B7 PUSH1 0xB9 SHL PUSH1 0x40 DUP3 ADD MSTORE PUSH1 0x60 ADD SWAP1 JUMP JUMPDEST PUSH1 0xFF DUP3 DUP2 AND DUP3 DUP3 AND SUB SWAP1 DUP2 GT ISZERO PUSH2 0x10DE JUMPI PUSH2 0x10DE PUSH2 0x1093 JUMP JUMPDEST PUSH1 0x0 DUP3 MLOAD PUSH1 0x0 JUMPDEST DUP2 DUP2 LT ISZERO PUSH2 0x11C1 JUMPI PUSH1 0x20 DUP2 DUP7 ADD DUP2 ADD MLOAD DUP6 DUP4 ADD MSTORE ADD PUSH2 0x11A7 JUMP JUMPDEST POP PUSH1 0x0 SWAP3 ADD SWAP2 DUP3 MSTORE POP SWAP2 SWAP1 POP JUMP JUMPDEST PUSH1 0x0 PUSH1 0x20 DUP3 DUP5 SUB SLT ISZERO PUSH2 0x11E1 JUMPI PUSH1 0x0 DUP1 REVERT JUMPDEST DUP2 MLOAD DUP1 ISZERO ISZERO DUP2 EQ PUSH2 0xB12 JUMPI PUSH1 0x0 DUP1 REVERT INVALID LOG2 PUSH5 0x6970667358 0x22 SLT KECCAK256 0x2C RETURNDATACOPY PUSH1 0x17 0x27 0xAB SGT 0xB1 DUP10 0x4C SGT PUSH28 0xF925E7AD591946E7AD87C9C41B095A09F164B5E164736F6C63430008 GT STOP CALLER "},"methodIdentifiers":{"BEGIN_TIME()":"c75363b6","END_TIME()":"37ba682d","LOCK_WEEKNUM()":"0d437d40","MAX_SCALE()":"f6def7cf","MAX_WEEKS()":"e11400bb","WEEK_SECONDS()":"cd671a58","acceptSetter()":"5f8e422f","canClaimAmount(address)":"fa60c77c","claimReward(uint256)":"ae169a50","getScore(uint256,uint8)":"ee3453ed","latestNo()":"29ed1cfd","lockedRewardAmount(address)":"02e9e495","owner()":"8da5cb5b","rewardToken()":"f7c618c1","rewardsOf(uint256)":"0bce1284","setReward(uint256,uint256,uint256)":"e1c05d93","setRewards(uint256[],uint256[],uint256)":"07c6e2fa","totalScores(uint256)":"157775df","transferOwner(address)":"4fb2e45d","userCanClaimWeeks(address,uint256)":"bb57852d","userScores(address,uint256)":"5b680a45"}}}}}