{"contracts/stakeERC20.sol":{"StakeERC20":{"abi":[{"inputs":[{"internalType":"uint8","name":"maxWeeks","type":"uint8"},{"internalType":"uint256","name":"maxScale","type":"uint256"},{"internalType":"uint8","name":"lockWeeks","type":"uint8"},{"internalType":"uint256","name":"beginTime","type":"uint256"},{"internalType":"uint256","name":"endTime","type":"uint256"},{"internalType":"address","name":"_rewardToken","type":"address"},{"internalType":"address","name":"_lpToken","type":"address"}],"stateMutability":"nonpayable","type":"constructor"},{"anonymous":false,"inputs":[{"indexed":true,"internalType":"address","name":"user","type":"address"},{"indexed":false,"internalType":"uint256","name":"amount","type":"uint256"}],"name":"ClaimReward","type":"event"},{"anonymous":false,"inputs":[{"indexed":true,"internalType":"address","name":"user","type":"address"},{"indexed":false,"internalType":"uint256","name":"no","type":"uint256"},{"indexed":false,"internalType":"uint256","name":"amount","type":"uint256"}],"name":"SetReward","type":"event"},{"anonymous":false,"inputs":[{"indexed":true,"internalType":"address","name":"user","type":"address"},{"indexed":false,"internalType":"uint256","name":"id","type":"uint256"},{"indexed":false,"internalType":"uint256","name":"amount","type":"uint256"},{"indexed":false,"internalType":"uint8","name":"k","type":"uint8"}],"name":"Stake","type":"event"},{"anonymous":false,"inputs":[{"indexed":true,"internalType":"address","name":"user","type":"address"},{"indexed":false,"internalType":"uint256","name":"amount","type":"uint256"}],"name":"Withdraw","type":"event"},{"inputs":[],"name":"BEGIN_TIME","outputs":[{"internalType":"uint256","name":"","type":"uint256"}],"stateMutability":"view","type":"function"},{"inputs":[],"name":"END_TIME","outputs":[{"internalType":"uint256","name":"","type":"uint256"}],"stateMutability":"view","type":"function"},{"inputs":[],"name":"LOCK_WEEKNUM","outputs":[{"internalType":"uint8","name":"","type":"uint8"}],"stateMutability":"view","type":"function"},{"inputs":[],"name":"MAX_SCALE","outputs":[{"internalType":"uint256","name":"","type":"uint256"}],"stateMutability":"view","type":"function"},{"inputs":[],"name":"MAX_WEEKS","outputs":[{"internalType":"uint8","name":"","type":"uint8"}],"stateMutability":"view","type":"function"},{"inputs":[],"name":"WEEK_SECONDS","outputs":[{"internalType":"uint24","name":"","type":"uint24"}],"stateMutability":"view","type":"function"},{"inputs":[],"name":"acceptSetter","outputs":[],"stateMutability":"nonpayable","type":"function"},{"inputs":[{"internalType":"address","name":"user","type":"address"}],"name":"canClaimAmount","outputs":[{"internalType":"uint256","name":"","type":"uint256"}],"stateMutability":"view","type":"function"},{"inputs":[{"internalType":"uint256","name":"deadline","type":"uint256"}],"name":"claimReward","outputs":[],"stateMutability":"nonpayable","type":"function"},{"inputs":[{"internalType":"uint256","name":"amount","type":"uint256"},{"internalType":"uint8","name":"k","type":"uint8"}],"name":"getScore","outputs":[{"internalType":"uint256","name":"score","type":"uint256"}],"stateMutability":"view","type":"function"},{"inputs":[],"name":"getStaking","outputs":[{"components":[{"internalType":"uint256","name":"amount","type":"uint256"},{"internalType":"uint256","name":"score","type":"uint256"},{"internalType":"uint256","name":"beginNo","type":"uint256"},{"internalType":"uint256","name":"endNo","type":"uint256"}],"internalType":"struct StakeERC20.StakingERC20[]","name":"","type":"tuple[]"}],"stateMutability":"view","type":"function"},{"inputs":[],"name":"latestNo","outputs":[{"internalType":"uint256","name":"","type":"uint256"}],"stateMutability":"view","type":"function"},{"inputs":[{"internalType":"address","name":"user","type":"address"}],"name":"lockedRewardAmount","outputs":[{"internalType":"uint256","name":"","type":"uint256"},{"internalType":"uint256[]","name":"","type":"uint256[]"}],"stateMutability":"view","type":"function"},{"inputs":[],"name":"lpToken","outputs":[{"internalType":"address","name":"","type":"address"}],"stateMutability":"view","type":"function"},{"inputs":[],"name":"nonce","outputs":[{"internalType":"uint256","name":"","type":"uint256"}],"stateMutability":"view","type":"function"},{"inputs":[],"name":"owner","outputs":[{"internalType":"address","name":"","type":"address"}],"stateMutability":"view","type":"function"},{"inputs":[],"name":"rewardToken","outputs":[{"internalType":"address","name":"","type":"address"}],"stateMutability":"view","type":"function"},{"inputs":[{"internalType":"uint256","name":"","type":"uint256"}],"name":"rewardsOf","outputs":[{"internalType":"uint256","name":"","type":"uint256"}],"stateMutability":"view","type":"function"},{"inputs":[{"internalType":"uint256","name":"no","type":"uint256"},{"internalType":"uint256","name":"amount","type":"uint256"},{"internalType":"uint256","name":"deadline","type":"uint256"}],"name":"setReward","outputs":[],"stateMutability":"nonpayable","type":"function"},{"inputs":[{"internalType":"uint256[]","name":"nos","type":"uint256[]"},{"internalType":"uint256[]","name":"amounts","type":"uint256[]"},{"internalType":"uint256","name":"deadline","type":"uint256"}],"name":"setRewards","outputs":[],"stateMutability":"nonpayable","type":"function"},{"inputs":[{"internalType":"uint256","name":"amount","type":"uint256"},{"internalType":"uint8","name":"k","type":"uint8"},{"internalType":"uint256","name":"deadline","type":"uint256"}],"name":"stake","outputs":[],"stateMutability":"nonpayable","type":"function"},{"inputs":[{"internalType":"uint256","name":"","type":"uint256"}],"name":"stakingERC20s","outputs":[{"internalType":"uint256","name":"amount","type":"uint256"},{"internalType":"uint256","name":"score","type":"uint256"},{"internalType":"uint256","name":"beginNo","type":"uint256"},{"internalType":"uint256","name":"endNo","type":"uint256"}],"stateMutability":"view","type":"function"},{"inputs":[{"internalType":"uint256","name":"","type":"uint256"}],"name":"totalScores","outputs":[{"internalType":"uint256","name":"","type":"uint256"}],"stateMutability":"view","type":"function"},{"inputs":[{"internalType":"address","name":"_owner","type":"address"}],"name":"transferOwner","outputs":[],"stateMutability":"nonpayable","type":"function"},{"inputs":[{"internalType":"address","name":"","type":"address"},{"internalType":"uint256","name":"","type":"uint256"}],"name":"userCanClaimWeeks","outputs":[{"internalType":"uint256","name":"","type":"uint256"}],"stateMutability":"view","type":"function"},{"inputs":[{"internalType":"address","name":"","type":"address"},{"internalType":"uint256","name":"","type":"uint256"}],"name":"userERC20s","outputs":[{"internalType":"uint256","name":"","type":"uint256"}],"stateMutability":"view","type":"function"},{"inputs":[{"internalType":"address","name":"","type":"address"},{"internalType":"uint256","name":"","type":"uint256"}],"name":"userScores","outputs":[{"internalType":"uint256","name":"","type":"uint256"}],"stateMutability":"view","type":"function"},{"inputs":[{"internalType":"uint256","name":"deadline","type":"uint256"}],"name":"withdraw","outputs":[{"internalType":"uint256","name":"total","type":"uint256"}],"stateMutability":"nonpayable","type":"function"}],"evm":{"bytecode":{"linkReferences":{},"object":"6101606040523480156200001257600080fd5b5060405162001d0d38038062001d0d8339810160408190526200003591620000ac565b6001600160a01b0391821660805260ff96871660a05260c0959095529490921660e0526101005261012052600080546001600160a01b03191633179055166101405262000126565b805160ff811681146200008f57600080fd5b919050565b80516001600160a01b03811681146200008f57600080fd5b600080600080600080600060e0888a031215620000c857600080fd5b620000d3886200007d565b965060208801519550620000ea604089016200007d565b945060608801519350608088015192506200010860a0890162000094565b91506200011860c0890162000094565b905092959891949750929550565b60805160a05160c05160e051610100516101205161014051611b2a620001e36000396000818161031d01528181610a00015261111c0152600081816102b0015261106d01526000818161041b015261109801526000818161023b01528181610525015281816106e901528181610c6601526113370152600081816104ad0152610f7f01526000818161046001528181610f1b01528181610f46015261100d0152600081816104d401528181610d6f0152610e770152611b2a6000f3fe608060405234801561001057600080fd5b50600436106101c45760003560e01c8063a218de15116100f9578063e11400bb11610097578063f6def7cf11610071578063f6def7cf146104a8578063f7c618c1146104cf578063f99b7d75146104f6578063fa60c77c1461050957600080fd5b8063e11400bb1461045b578063e1c05d9314610482578063ee3453ed1461049557600080fd5b8063ba086501116100d3578063ba086501146103f0578063bb57852d14610403578063c75363b614610416578063cd671a581461043d57600080fd5b8063a218de151461037f578063ae169a50146103d4578063affed0e0146103e757600080fd5b806337ba682d116101665780635f8e422f116101405780635f8e422f146103105780635fcbd285146103185780637b1391a6146103575780638da5cb5b1461036c57600080fd5b806337ba682d146102ab5780634fb2e45d146102d25780635b680a45146102e557600080fd5b80630d437d40116101a25780630d437d4014610236578063157775df1461026f57806329ed1cfd1461028f5780632e1a7d4d1461029857600080fd5b806302e9e495146101c957806307c6e2fa146101f35780630bce128414610208575b600080fd5b6101dc6101d736600461167e565b61051c565b6040516101ea929190611699565b60405180910390f35b610206610201366004611798565b610727565b005b610228610216366004611805565b60056020526000908152604090205481565b6040519081526020016101ea565b61025d7f000000000000000000000000000000000000000000000000000000000000000081565b60405160ff90911681526020016101ea565b61022861027d366004611805565b60046020526000908152604090205481565b61022860065481565b6102286102a6366004611805565b610870565b6102287f000000000000000000000000000000000000000000000000000000000000000081565b6102066102e036600461167e565b610a63565b6102286102f336600461181e565b600260209081526000928352604080842090915290825290205481565b610206610aaf565b61033f7f000000000000000000000000000000000000000000000000000000000000000081565b6040516001600160a01b0390911681526020016101ea565b61035f610b00565b6040516101ea9190611848565b60005461033f906001600160a01b031681565b6103b461038d366004611805565b60086020526000908152604090208054600182015460028301546003909301549192909184565b6040805194855260208501939093529183015260608201526080016101ea565b6102066103e2366004611805565b610c3f565b61022860075481565b6102286103fe36600461181e565b610dd1565b61022861041136600461181e565b610e02565b6102287f000000000000000000000000000000000000000000000000000000000000000081565b61044762093a8081565b60405162ffffff90911681526020016101ea565b61025d7f000000000000000000000000000000000000000000000000000000000000000081565b6102066104903660046118ac565b610e27565b6102286104a33660046118e9565b610f12565b6102287f000000000000000000000000000000000000000000000000000000000000000081565b61033f7f000000000000000000000000000000000000000000000000000000000000000081565b610206610504366004611915565b610fdc565b61022861051736600461167e565b611330565b600060608160ff7f00000000000000000000000000000000000000000000000000000000000000001661055262093a8042611960565b61055c9190611982565b61056790600161199b565b6001600160a01b0385166000908152600360205260409020909150819060010154116105a6576040805160008152602081019091529094909350915050565b6001600160a01b0384166000908152600360205260408120805460019091015490918383116105d557836105d7565b825b905060006105e58284611982565b67ffffffffffffffff8111156105fd576105fd6116e7565b604051908082528060200260200182016040528015610626578160200160208202803683370190505b509050815b838110156106d15760008181526004602052604090205415610696576000818152600460209081526040808320546001600160a01b038d16845260028352818420858552835281842054600590935292205461068791906119c4565b6106919190611960565b610699565b60005b826106a48584611982565b815181106106b4576106b46119ae565b6020908102919091010152806106c9816119db565b91505061062b565b5060006106e162093a8042611960565b61070e8460ff7f00000000000000000000000000000000000000000000000000000000000000001661199b565b6107189190611982565b99919850909650505050505050565b80804211156107515760405162461bcd60e51b8152600401610748906119f4565b60405180910390fd5b6000546001600160a01b0316331461077b5760405162461bcd60e51b815260040161074890611a1b565b82518451146107bf5760405162461bcd60e51b815260206004820152601060248201526f3830b930b6b2ba32b9399032b93937b960811b6044820152606401610748565b6000805b8551811015610866578481815181106107de576107de6119ae565b6020026020010151600560008884815181106107fc576107fc6119ae565b602002602001015181526020019081526020016000208190555081868281518110610829576108296119ae565b6020026020010151111561085457858181518110610849576108496119ae565b602002602001015191505b8061085e816119db565b9150506107c3565b5060065550505050565b600081804211156108935760405162461bcd60e51b8152600401610748906119f4565b60006108a262093a8042611960565b336000908152600960205260409020549091505b33600090815260096020526040902054156109f557806108d581611a3e565b336000908152600960205260408120805492945090925090839081106108fd576108fd6119ae565b90600052602060002001549050826008600083815260200190815260200160002060030154116109e157600081815260086020526040902054610940908661199b565b33600090815260096020526040902080549196509061096190600190611982565b81548110610971576109716119ae565b60009182526020808320909101543383526009909152604090912080548490811061099e5761099e6119ae565b60009182526020808320909101929092553381526009909152604090208054806109ca576109ca611a55565b600190038181906000526020600020016000905590555b816000036109ef57506109f5565b506108b6565b8315610a2657610a267f0000000000000000000000000000000000000000000000000000000000000000338661143b565b60405184815233907f884edad9ce6fa2440d8a54cc123490eb96d2768479d49ff9c7366125a94243649060200160405180910390a2505050919050565b6000546001600160a01b03163314610a8d5760405162461bcd60e51b815260040161074890611a1b565b600180546001600160a01b0319166001600160a01b0392909216919091179055565b6001546001600160a01b03163314610ad95760405162461bcd60e51b815260040161074890611a1b565b60018054600080546001600160a01b03199081166001600160a01b03841617909155169055565b336000908152600960205260408120546060918167ffffffffffffffff811115610b2c57610b2c6116e7565b604051908082528060200260200182016040528015610b8857816020015b610b756040518060800160405280600081526020016000815260200160008152602001600081525090565b815260200190600190039081610b4a5790505b50905060005b82811015610c38573360009081526009602052604081208054600892919084908110610bbc57610bbc6119ae565b90600052602060002001548152602001908152602001600020604051806080016040529081600082015481526020016001820154815260200160028201548152602001600382015481525050828281518110610c1a57610c1a6119ae565b60200260200101819052508080610c30906119db565b915050610b8e565b5092915050565b8080421115610c605760405162461bcd60e51b8152600401610748906119f4565b600060ff7f000000000000000000000000000000000000000000000000000000000000000016610c9362093a8042611960565b610c9d9190611982565b3360009081526003602052604081205491925090805b33600090815260036020526040902060010154811015610d5657838111610d5657610cdf81600161199b565b60008281526004602052604090205490925015610d4457600081815260046020908152604080832054338452600283528184208585528352818420546005909352922054610d2d91906119c4565b610d379190611960565b610d41908461199b565b92505b80610d4e816119db565b915050610cb3565b5033600090815260036020526040812082910155610d957f0000000000000000000000000000000000000000000000000000000000000000338461143b565b60405182815233907fba8de60c3403ec381d1d484652ea1980e3c3e56359195c92525bff4ce47ad98e9060200160405180910390a25050505050565b60096020528160005260406000208181548110610ded57600080fd5b90600052602060002001600091509150505481565b60036020528160005260406000208160028110610e1e57600080fd5b01549150829050565b8080421115610e485760405162461bcd60e51b8152600401610748906119f4565b6000546001600160a01b03163314610e725760405162461bcd60e51b815260040161074890611a1b565b610e9e7f0000000000000000000000000000000000000000000000000000000000000000333086611548565b60008481526005602052604081208054859290610ebc90849061199b565b9091555050600654841115610ed15760068490555b604080518581526020810185905233917fc3991418cacd70a010fce559a44fcbb47534ca43bf7543964bdca2639f6e6e5a910160405180910390a250505050565b6000610f3f60017f0000000000000000000000000000000000000000000000000000000000000000611a6b565b60ff1660017f000000000000000000000000000000000000000000000000000000000000000060ff16600185610f759190611a6b565b60ff16610fa360017f0000000000000000000000000000000000000000000000000000000000000000611982565b610fad91906119c4565b610fb7919061199b565b610fc19190611982565b610fcb90856119c4565b610fd59190611960565b9392505050565b8080421115610ffd5760405162461bcd60e51b8152600401610748906119f4565b60008360ff1611801561103657507f000000000000000000000000000000000000000000000000000000000000000060ff168360ff1611155b61106b5760405162461bcd60e51b8152602060048201526006602482015265359018bf1a9960d11b6044820152606401610748565b7f000000000000000000000000000000000000000000000000000000000000000042111580156110bb57507f00000000000000000000000000000000000000000000000000000000000000004210155b6110fb5760405162461bcd60e51b81526020600482015260116024820152701b9bdd081a5b881d1a19481c195c9a5bd9607a1b6044820152606401610748565b600061110a62093a8042611960565b61111590600161199b565b90506111437f0000000000000000000000000000000000000000000000000000000000000000333088611548565b600061114f8686610f12565b905060005b8560ff168160ff1610156111e957816004600061117460ff85168761199b565b81526020019081526020016000206000828254611191919061199b565b909155505033600090815260026020526040812083916111b460ff85168761199b565b815260200190815260200160002060008282546111d1919061199b565b909155508190506111e181611a84565b915050611154565b5060006111f960ff87168461199b565b60408051608081018252898152602080820186815282840188815260608401868152600754600090815260088552868120955186559251600180870191909155915160028601555160039485015533825292909152919091209081015490549192509003611274573360009081526003602052604090208390555b33600090815260036020526040902081906001015410156112a5573360009081526003602052604090208190600101555b3360008181526009602090815260408083206007805482546001810184559286529484902090910193909355915482519081529081018a905260ff89168183015290517f6fa2f6021ee337436cdf2b2570285886da18bc06402ce284d296504a0fe8f8759181900360600190a260078054906000611322836119db565b919050555050505050505050565b60008060ff7f00000000000000000000000000000000000000000000000000000000000000001661136462093a8042611960565b61136e9190611982565b6001600160a01b038416600090815260036020526040812054919250905b6001600160a01b038516600090815260036020526040902060010154811015611433578281116114335760008181526004602052604090205415611421576000818152600460209081526040808320546001600160a01b038916845260028352818420858552835281842054600590935292205461140a91906119c4565b6114149190611960565b61141e908361199b565b91505b8061142b816119db565b91505061138c565b509392505050565b604080516001600160a01b038481166024830152604480830185905283518084039091018152606490920183526020820180516001600160e01b031663a9059cbb60e01b17905291516000928392908716916114979190611aa3565b6000604051808303816000865af19150503d80600081146114d4576040519150601f19603f3d011682016040523d82523d6000602084013e6114d9565b606091505b50915091508180156115035750805115806115035750808060200190518101906115039190611ad2565b6115415760405162461bcd60e51b815260206004820152600f60248201526e1514905394d1915497d19052531151608a1b6044820152606401610748565b5050505050565b604080516001600160a01b0385811660248301528481166044830152606480830185905283518084039091018152608490920183526020820180516001600160e01b03166323b872dd60e01b17905291516000928392908816916115ac9190611aa3565b6000604051808303816000865af19150503d80600081146115e9576040519150601f19603f3d011682016040523d82523d6000602084013e6115ee565b606091505b50915091508180156116185750805115806116185750808060200190518101906116189190611ad2565b61165a5760405162461bcd60e51b81526020600482015260136024820152721d1c985b9cd9995c919c9bdb4819985a5b1959606a1b6044820152606401610748565b505050505050565b80356001600160a01b038116811461167957600080fd5b919050565b60006020828403121561169057600080fd5b610fd582611662565b6000604082018483526020604081850152818551808452606086019150828701935060005b818110156116da578451835293830193918301916001016116be565b5090979650505050505050565b634e487b7160e01b600052604160045260246000fd5b600082601f83011261170e57600080fd5b8135602067ffffffffffffffff8083111561172b5761172b6116e7565b8260051b604051601f19603f83011681018181108482111715611750576117506116e7565b60405293845285810183019383810192508785111561176e57600080fd5b83870191505b8482101561178d57813583529183019190830190611774565b979650505050505050565b6000806000606084860312156117ad57600080fd5b833567ffffffffffffffff808211156117c557600080fd5b6117d1878388016116fd565b945060208601359150808211156117e757600080fd5b506117f4868287016116fd565b925050604084013590509250925092565b60006020828403121561181757600080fd5b5035919050565b6000806040838503121561183157600080fd5b61183a83611662565b946020939093013593505050565b602080825282518282018190526000919060409081850190868401855b8281101561189f57815180518552868101518786015285810151868601526060908101519085015260809093019290850190600101611865565b5091979650505050505050565b6000806000606084860312156118c157600080fd5b505081359360208301359350604090920135919050565b803560ff8116811461167957600080fd5b600080604083850312156118fc57600080fd5b8235915061190c602084016118d8565b90509250929050565b60008060006060848603121561192a57600080fd5b8335925061193a602085016118d8565b9150604084013590509250925092565b634e487b7160e01b600052601160045260246000fd5b60008261197d57634e487b7160e01b600052601260045260246000fd5b500490565b818103818111156119955761199561194a565b92915050565b808201808211156119955761199561194a565b634e487b7160e01b600052603260045260246000fd5b80820281158282048414176119955761199561194a565b6000600182016119ed576119ed61194a565b5060010190565b6020808252600d908201526c6f76657220646561646c696e6560981b604082015260600190565b6020808252600990820152683337b93134b23232b760b91b604082015260600190565b600081611a4d57611a4d61194a565b506000190190565b634e487b7160e01b600052603160045260246000fd5b60ff82811682821603908111156119955761199561194a565b600060ff821660ff8103611a9a57611a9a61194a565b60010192915050565b6000825160005b81811015611ac45760208186018101518583015201611aaa565b506000920191825250919050565b600060208284031215611ae457600080fd5b81518015158114610fd557600080fdfea2646970667358221220df66fa280544debbb5fb0691e5ae73738e8485cc9f8a1ba26812de279fef0c4b64736f6c63430008110033","opcodes":"PUSH2 0x160 PUSH1 0x40 MSTORE CALLVALUE DUP1 ISZERO PUSH3 0x12 JUMPI PUSH1 0x0 DUP1 REVERT JUMPDEST POP PUSH1 0x40 MLOAD PUSH3 0x1D0D CODESIZE SUB DUP1 PUSH3 0x1D0D DUP4 CODECOPY DUP2 ADD PUSH1 0x40 DUP2 SWAP1 MSTORE PUSH3 0x35 SWAP2 PUSH3 0xAC JUMP JUMPDEST PUSH1 0x1 PUSH1 0x1 PUSH1 0xA0 SHL SUB SWAP2 DUP3 AND PUSH1 0x80 MSTORE PUSH1 0xFF SWAP7 DUP8 AND PUSH1 0xA0 MSTORE PUSH1 0xC0 SWAP6 SWAP1 SWAP6 MSTORE SWAP5 SWAP1 SWAP3 AND PUSH1 0xE0 MSTORE PUSH2 0x100 MSTORE PUSH2 0x120 MSTORE PUSH1 0x0 DUP1 SLOAD PUSH1 0x1 PUSH1 0x1 PUSH1 0xA0 SHL SUB NOT AND CALLER OR SWAP1 SSTORE AND PUSH2 0x140 MSTORE PUSH3 0x126 JUMP JUMPDEST DUP1 MLOAD PUSH1 0xFF DUP2 AND DUP2 EQ PUSH3 0x8F JUMPI PUSH1 0x0 DUP1 REVERT JUMPDEST SWAP2 SWAP1 POP JUMP JUMPDEST DUP1 MLOAD PUSH1 0x1 PUSH1 0x1 PUSH1 0xA0 SHL SUB DUP2 AND DUP2 EQ PUSH3 0x8F JUMPI PUSH1 0x0 DUP1 REVERT JUMPDEST PUSH1 0x0 DUP1 PUSH1 0x0 DUP1 PUSH1 0x0 DUP1 PUSH1 0x0 PUSH1 0xE0 DUP9 DUP11 SUB SLT ISZERO PUSH3 0xC8 JUMPI PUSH1 0x0 DUP1 REVERT JUMPDEST PUSH3 0xD3 DUP9 PUSH3 0x7D JUMP JUMPDEST SWAP7 POP PUSH1 0x20 DUP9 ADD MLOAD SWAP6 POP PUSH3 0xEA PUSH1 0x40 DUP10 ADD PUSH3 0x7D JUMP JUMPDEST SWAP5 POP PUSH1 0x60 DUP9 ADD MLOAD SWAP4 POP PUSH1 0x80 DUP9 ADD MLOAD SWAP3 POP PUSH3 0x108 PUSH1 0xA0 DUP10 ADD PUSH3 0x94 JUMP JUMPDEST SWAP2 POP PUSH3 0x118 PUSH1 0xC0 DUP10 ADD PUSH3 0x94 JUMP JUMPDEST SWAP1 POP SWAP3 SWAP6 SWAP9 SWAP2 SWAP5 SWAP8 POP SWAP3 SWAP6 POP JUMP JUMPDEST PUSH1 0x80 MLOAD PUSH1 0xA0 MLOAD PUSH1 0xC0 MLOAD PUSH1 0xE0 MLOAD PUSH2 0x100 MLOAD PUSH2 0x120 MLOAD PUSH2 0x140 MLOAD PUSH2 0x1B2A PUSH3 0x1E3 PUSH1 0x0 CODECOPY PUSH1 0x0 DUP2 DUP2 PUSH2 0x31D ADD MSTORE DUP2 DUP2 PUSH2 0xA00 ADD MSTORE PUSH2 0x111C ADD MSTORE PUSH1 0x0 DUP2 DUP2 PUSH2 0x2B0 ADD MSTORE PUSH2 0x106D ADD MSTORE PUSH1 0x0 DUP2 DUP2 PUSH2 0x41B ADD MSTORE PUSH2 0x1098 ADD MSTORE PUSH1 0x0 DUP2 DUP2 PUSH2 0x23B ADD MSTORE DUP2 DUP2 PUSH2 0x525 ADD MSTORE DUP2 DUP2 PUSH2 0x6E9 ADD MSTORE DUP2 DUP2 PUSH2 0xC66 ADD MSTORE PUSH2 0x1337 ADD MSTORE PUSH1 0x0 DUP2 DUP2 PUSH2 0x4AD ADD MSTORE PUSH2 0xF7F ADD MSTORE PUSH1 0x0 DUP2 DUP2 PUSH2 0x460 ADD MSTORE DUP2 DUP2 PUSH2 0xF1B ADD MSTORE DUP2 DUP2 PUSH2 0xF46 ADD MSTORE PUSH2 0x100D ADD MSTORE PUSH1 0x0 DUP2 DUP2 PUSH2 0x4D4 ADD MSTORE DUP2 DUP2 PUSH2 0xD6F ADD MSTORE PUSH2 0xE77 ADD MSTORE PUSH2 0x1B2A PUSH1 0x0 RETURN INVALID PUSH1 0x80 PUSH1 0x40 MSTORE CALLVALUE DUP1 ISZERO PUSH2 0x10 JUMPI PUSH1 0x0 DUP1 REVERT JUMPDEST POP PUSH1 0x4 CALLDATASIZE LT PUSH2 0x1C4 JUMPI PUSH1 0x0 CALLDATALOAD PUSH1 0xE0 SHR DUP1 PUSH4 0xA218DE15 GT PUSH2 0xF9 JUMPI DUP1 PUSH4 0xE11400BB GT PUSH2 0x97 JUMPI DUP1 PUSH4 0xF6DEF7CF GT PUSH2 0x71 JUMPI DUP1 PUSH4 0xF6DEF7CF EQ PUSH2 0x4A8 JUMPI DUP1 PUSH4 0xF7C618C1 EQ PUSH2 0x4CF JUMPI DUP1 PUSH4 0xF99B7D75 EQ PUSH2 0x4F6 JUMPI DUP1 PUSH4 0xFA60C77C EQ PUSH2 0x509 JUMPI PUSH1 0x0 DUP1 REVERT JUMPDEST DUP1 PUSH4 0xE11400BB EQ PUSH2 0x45B JUMPI DUP1 PUSH4 0xE1C05D93 EQ PUSH2 0x482 JUMPI DUP1 PUSH4 0xEE3453ED EQ PUSH2 0x495 JUMPI PUSH1 0x0 DUP1 REVERT JUMPDEST DUP1 PUSH4 0xBA086501 GT PUSH2 0xD3 JUMPI DUP1 PUSH4 0xBA086501 EQ PUSH2 0x3F0 JUMPI DUP1 PUSH4 0xBB57852D EQ PUSH2 0x403 JUMPI DUP1 PUSH4 0xC75363B6 EQ PUSH2 0x416 JUMPI DUP1 PUSH4 0xCD671A58 EQ PUSH2 0x43D JUMPI PUSH1 0x0 DUP1 REVERT JUMPDEST DUP1 PUSH4 0xA218DE15 EQ PUSH2 0x37F JUMPI DUP1 PUSH4 0xAE169A50 EQ PUSH2 0x3D4 JUMPI DUP1 PUSH4 0xAFFED0E0 EQ PUSH2 0x3E7 JUMPI PUSH1 0x0 DUP1 REVERT JUMPDEST DUP1 PUSH4 0x37BA682D GT PUSH2 0x166 JUMPI DUP1 PUSH4 0x5F8E422F GT PUSH2 0x140 JUMPI DUP1 PUSH4 0x5F8E422F EQ PUSH2 0x310 JUMPI DUP1 PUSH4 0x5FCBD285 EQ PUSH2 0x318 JUMPI DUP1 PUSH4 0x7B1391A6 EQ PUSH2 0x357 JUMPI DUP1 PUSH4 0x8DA5CB5B EQ PUSH2 0x36C JUMPI PUSH1 0x0 DUP1 REVERT JUMPDEST DUP1 PUSH4 0x37BA682D EQ PUSH2 0x2AB JUMPI DUP1 PUSH4 0x4FB2E45D EQ PUSH2 0x2D2 JUMPI DUP1 PUSH4 0x5B680A45 EQ PUSH2 0x2E5 JUMPI PUSH1 0x0 DUP1 REVERT JUMPDEST DUP1 PUSH4 0xD437D40 GT PUSH2 0x1A2 JUMPI DUP1 PUSH4 0xD437D40 EQ PUSH2 0x236 JUMPI DUP1 PUSH4 0x157775DF EQ PUSH2 0x26F JUMPI DUP1 PUSH4 0x29ED1CFD EQ PUSH2 0x28F JUMPI DUP1 PUSH4 0x2E1A7D4D EQ PUSH2 0x298 JUMPI PUSH1 0x0 DUP1 REVERT JUMPDEST DUP1 PUSH4 0x2E9E495 EQ PUSH2 0x1C9 JUMPI DUP1 PUSH4 0x7C6E2FA EQ PUSH2 0x1F3 JUMPI DUP1 PUSH4 0xBCE1284 EQ PUSH2 0x208 JUMPI JUMPDEST PUSH1 0x0 DUP1 REVERT JUMPDEST PUSH2 0x1DC PUSH2 0x1D7 CALLDATASIZE PUSH1 0x4 PUSH2 0x167E JUMP JUMPDEST PUSH2 0x51C JUMP JUMPDEST PUSH1 0x40 MLOAD PUSH2 0x1EA SWAP3 SWAP2 SWAP1 PUSH2 0x1699 JUMP JUMPDEST PUSH1 0x40 MLOAD DUP1 SWAP2 SUB SWAP1 RETURN JUMPDEST PUSH2 0x206 PUSH2 0x201 CALLDATASIZE PUSH1 0x4 PUSH2 0x1798 JUMP JUMPDEST PUSH2 0x727 JUMP JUMPDEST STOP JUMPDEST PUSH2 0x228 PUSH2 0x216 CALLDATASIZE PUSH1 0x4 PUSH2 0x1805 JUMP JUMPDEST PUSH1 0x5 PUSH1 0x20 MSTORE PUSH1 0x0 SWAP1 DUP2 MSTORE PUSH1 0x40 SWAP1 KECCAK256 SLOAD DUP2 JUMP JUMPDEST PUSH1 0x40 MLOAD SWAP1 DUP2 MSTORE PUSH1 0x20 ADD PUSH2 0x1EA JUMP JUMPDEST PUSH2 0x25D PUSH32 0x0 DUP2 JUMP JUMPDEST PUSH1 0x40 MLOAD PUSH1 0xFF SWAP1 SWAP2 AND DUP2 MSTORE PUSH1 0x20 ADD PUSH2 0x1EA JUMP JUMPDEST PUSH2 0x228 PUSH2 0x27D CALLDATASIZE PUSH1 0x4 PUSH2 0x1805 JUMP JUMPDEST PUSH1 0x4 PUSH1 0x20 MSTORE PUSH1 0x0 SWAP1 DUP2 MSTORE PUSH1 0x40 SWAP1 KECCAK256 SLOAD DUP2 JUMP JUMPDEST PUSH2 0x228 PUSH1 0x6 SLOAD DUP2 JUMP JUMPDEST PUSH2 0x228 PUSH2 0x2A6 CALLDATASIZE PUSH1 0x4 PUSH2 0x1805 JUMP JUMPDEST PUSH2 0x870 JUMP JUMPDEST PUSH2 0x228 PUSH32 0x0 DUP2 JUMP JUMPDEST PUSH2 0x206 PUSH2 0x2E0 CALLDATASIZE PUSH1 0x4 PUSH2 0x167E JUMP JUMPDEST PUSH2 0xA63 JUMP JUMPDEST PUSH2 0x228 PUSH2 0x2F3 CALLDATASIZE PUSH1 0x4 PUSH2 0x181E JUMP JUMPDEST PUSH1 0x2 PUSH1 0x20 SWAP1 DUP2 MSTORE PUSH1 0x0 SWAP3 DUP4 MSTORE PUSH1 0x40 DUP1 DUP5 KECCAK256 SWAP1 SWAP2 MSTORE SWAP1 DUP3 MSTORE SWAP1 KECCAK256 SLOAD DUP2 JUMP JUMPDEST PUSH2 0x206 PUSH2 0xAAF JUMP JUMPDEST PUSH2 0x33F PUSH32 0x0 DUP2 JUMP JUMPDEST PUSH1 0x40 MLOAD PUSH1 0x1 PUSH1 0x1 PUSH1 0xA0 SHL SUB SWAP1 SWAP2 AND DUP2 MSTORE PUSH1 0x20 ADD PUSH2 0x1EA JUMP JUMPDEST PUSH2 0x35F PUSH2 0xB00 JUMP JUMPDEST PUSH1 0x40 MLOAD PUSH2 0x1EA SWAP2 SWAP1 PUSH2 0x1848 JUMP JUMPDEST PUSH1 0x0 SLOAD PUSH2 0x33F SWAP1 PUSH1 0x1 PUSH1 0x1 PUSH1 0xA0 SHL SUB AND DUP2 JUMP JUMPDEST PUSH2 0x3B4 PUSH2 0x38D CALLDATASIZE PUSH1 0x4 PUSH2 0x1805 JUMP JUMPDEST PUSH1 0x8 PUSH1 0x20 MSTORE PUSH1 0x0 SWAP1 DUP2 MSTORE PUSH1 0x40 SWAP1 KECCAK256 DUP1 SLOAD PUSH1 0x1 DUP3 ADD SLOAD PUSH1 0x2 DUP4 ADD SLOAD PUSH1 0x3 SWAP1 SWAP4 ADD SLOAD SWAP2 SWAP3 SWAP1 SWAP2 DUP5 JUMP JUMPDEST PUSH1 0x40 DUP1 MLOAD SWAP5 DUP6 MSTORE PUSH1 0x20 DUP6 ADD SWAP4 SWAP1 SWAP4 MSTORE SWAP2 DUP4 ADD MSTORE PUSH1 0x60 DUP3 ADD MSTORE PUSH1 0x80 ADD PUSH2 0x1EA JUMP JUMPDEST PUSH2 0x206 PUSH2 0x3E2 CALLDATASIZE PUSH1 0x4 PUSH2 0x1805 JUMP JUMPDEST PUSH2 0xC3F JUMP JUMPDEST PUSH2 0x228 PUSH1 0x7 SLOAD DUP2 JUMP JUMPDEST PUSH2 0x228 PUSH2 0x3FE CALLDATASIZE PUSH1 0x4 PUSH2 0x181E JUMP JUMPDEST PUSH2 0xDD1 JUMP JUMPDEST PUSH2 0x228 PUSH2 0x411 CALLDATASIZE PUSH1 0x4 PUSH2 0x181E JUMP JUMPDEST PUSH2 0xE02 JUMP JUMPDEST PUSH2 0x228 PUSH32 0x0 DUP2 JUMP JUMPDEST PUSH2 0x447 PUSH3 0x93A80 DUP2 JUMP JUMPDEST PUSH1 0x40 MLOAD PUSH3 0xFFFFFF SWAP1 SWAP2 AND DUP2 MSTORE PUSH1 0x20 ADD PUSH2 0x1EA JUMP JUMPDEST PUSH2 0x25D PUSH32 0x0 DUP2 JUMP JUMPDEST PUSH2 0x206 PUSH2 0x490 CALLDATASIZE PUSH1 0x4 PUSH2 0x18AC JUMP JUMPDEST PUSH2 0xE27 JUMP JUMPDEST PUSH2 0x228 PUSH2 0x4A3 CALLDATASIZE PUSH1 0x4 PUSH2 0x18E9 JUMP JUMPDEST PUSH2 0xF12 JUMP JUMPDEST PUSH2 0x228 PUSH32 0x0 DUP2 JUMP JUMPDEST PUSH2 0x33F PUSH32 0x0 DUP2 JUMP JUMPDEST PUSH2 0x206 PUSH2 0x504 CALLDATASIZE PUSH1 0x4 PUSH2 0x1915 JUMP JUMPDEST PUSH2 0xFDC JUMP JUMPDEST PUSH2 0x228 PUSH2 0x517 CALLDATASIZE PUSH1 0x4 PUSH2 0x167E JUMP JUMPDEST PUSH2 0x1330 JUMP JUMPDEST PUSH1 0x0 PUSH1 0x60 DUP2 PUSH1 0xFF PUSH32 0x0 AND PUSH2 0x552 PUSH3 0x93A80 TIMESTAMP PUSH2 0x1960 JUMP JUMPDEST PUSH2 0x55C SWAP2 SWAP1 PUSH2 0x1982 JUMP JUMPDEST PUSH2 0x567 SWAP1 PUSH1 0x1 PUSH2 0x199B JUMP JUMPDEST PUSH1 0x1 PUSH1 0x1 PUSH1 0xA0 SHL SUB DUP6 AND PUSH1 0x0 SWAP1 DUP2 MSTORE PUSH1 0x3 PUSH1 0x20 MSTORE PUSH1 0x40 SWAP1 KECCAK256 SWAP1 SWAP2 POP DUP2 SWAP1 PUSH1 0x1 ADD SLOAD GT PUSH2 0x5A6 JUMPI PUSH1 0x40 DUP1 MLOAD PUSH1 0x0 DUP2 MSTORE PUSH1 0x20 DUP2 ADD SWAP1 SWAP2 MSTORE SWAP1 SWAP5 SWAP1 SWAP4 POP SWAP2 POP POP JUMP JUMPDEST PUSH1 0x1 PUSH1 0x1 PUSH1 0xA0 SHL SUB DUP5 AND PUSH1 0x0 SWAP1 DUP2 MSTORE PUSH1 0x3 PUSH1 0x20 MSTORE PUSH1 0x40 DUP2 KECCAK256 DUP1 SLOAD PUSH1 0x1 SWAP1 SWAP2 ADD SLOAD SWAP1 SWAP2 DUP4 DUP4 GT PUSH2 0x5D5 JUMPI DUP4 PUSH2 0x5D7 JUMP JUMPDEST DUP3 JUMPDEST SWAP1 POP PUSH1 0x0 PUSH2 0x5E5 DUP3 DUP5 PUSH2 0x1982 JUMP JUMPDEST PUSH8 0xFFFFFFFFFFFFFFFF DUP2 GT ISZERO PUSH2 0x5FD JUMPI PUSH2 0x5FD PUSH2 0x16E7 JUMP JUMPDEST PUSH1 0x40 MLOAD SWAP1 DUP1 DUP3 MSTORE DUP1 PUSH1 0x20 MUL PUSH1 0x20 ADD DUP3 ADD PUSH1 0x40 MSTORE DUP1 ISZERO PUSH2 0x626 JUMPI DUP2 PUSH1 0x20 ADD PUSH1 0x20 DUP3 MUL DUP1 CALLDATASIZE DUP4 CALLDATACOPY ADD SWAP1 POP JUMPDEST POP SWAP1 POP DUP2 JUMPDEST DUP4 DUP2 LT ISZERO PUSH2 0x6D1 JUMPI PUSH1 0x0 DUP2 DUP2 MSTORE PUSH1 0x4 PUSH1 0x20 MSTORE PUSH1 0x40 SWAP1 KECCAK256 SLOAD ISZERO PUSH2 0x696 JUMPI PUSH1 0x0 DUP2 DUP2 MSTORE PUSH1 0x4 PUSH1 0x20 SWAP1 DUP2 MSTORE PUSH1 0x40 DUP1 DUP4 KECCAK256 SLOAD PUSH1 0x1 PUSH1 0x1 PUSH1 0xA0 SHL SUB DUP14 AND DUP5 MSTORE PUSH1 0x2 DUP4 MSTORE DUP2 DUP5 KECCAK256 DUP6 DUP6 MSTORE DUP4 MSTORE DUP2 DUP5 KECCAK256 SLOAD PUSH1 0x5 SWAP1 SWAP4 MSTORE SWAP3 KECCAK256 SLOAD PUSH2 0x687 SWAP2 SWAP1 PUSH2 0x19C4 JUMP JUMPDEST PUSH2 0x691 SWAP2 SWAP1 PUSH2 0x1960 JUMP JUMPDEST PUSH2 0x699 JUMP JUMPDEST PUSH1 0x0 JUMPDEST DUP3 PUSH2 0x6A4 DUP6 DUP5 PUSH2 0x1982 JUMP JUMPDEST DUP2 MLOAD DUP2 LT PUSH2 0x6B4 JUMPI PUSH2 0x6B4 PUSH2 0x19AE JUMP JUMPDEST PUSH1 0x20 SWAP1 DUP2 MUL SWAP2 SWAP1 SWAP2 ADD ADD MSTORE DUP1 PUSH2 0x6C9 DUP2 PUSH2 0x19DB JUMP JUMPDEST SWAP2 POP POP PUSH2 0x62B JUMP JUMPDEST POP PUSH1 0x0 PUSH2 0x6E1 PUSH3 0x93A80 TIMESTAMP PUSH2 0x1960 JUMP JUMPDEST PUSH2 0x70E DUP5 PUSH1 0xFF PUSH32 0x0 AND PUSH2 0x199B JUMP JUMPDEST PUSH2 0x718 SWAP2 SWAP1 PUSH2 0x1982 JUMP JUMPDEST SWAP10 SWAP2 SWAP9 POP SWAP1 SWAP7 POP POP POP POP POP POP POP JUMP JUMPDEST DUP1 DUP1 TIMESTAMP GT ISZERO PUSH2 0x751 JUMPI PUSH1 0x40 MLOAD PUSH3 0x461BCD PUSH1 0xE5 SHL DUP2 MSTORE PUSH1 0x4 ADD PUSH2 0x748 SWAP1 PUSH2 0x19F4 JUMP JUMPDEST PUSH1 0x40 MLOAD DUP1 SWAP2 SUB SWAP1 REVERT JUMPDEST PUSH1 0x0 SLOAD PUSH1 0x1 PUSH1 0x1 PUSH1 0xA0 SHL SUB AND CALLER EQ PUSH2 0x77B JUMPI PUSH1 0x40 MLOAD PUSH3 0x461BCD PUSH1 0xE5 SHL DUP2 MSTORE PUSH1 0x4 ADD PUSH2 0x748 SWAP1 PUSH2 0x1A1B JUMP JUMPDEST DUP3 MLOAD DUP5 MLOAD EQ PUSH2 0x7BF JUMPI PUSH1 0x40 MLOAD PUSH3 0x461BCD PUSH1 0xE5 SHL DUP2 MSTORE PUSH1 0x20 PUSH1 0x4 DUP3 ADD MSTORE PUSH1 0x10 PUSH1 0x24 DUP3 ADD MSTORE PUSH16 0x3830B930B6B2BA32B9399032B93937B9 PUSH1 0x81 SHL PUSH1 0x44 DUP3 ADD MSTORE PUSH1 0x64 ADD PUSH2 0x748 JUMP JUMPDEST PUSH1 0x0 DUP1 JUMPDEST DUP6 MLOAD DUP2 LT ISZERO PUSH2 0x866 JUMPI DUP5 DUP2 DUP2 MLOAD DUP2 LT PUSH2 0x7DE JUMPI PUSH2 0x7DE PUSH2 0x19AE JUMP JUMPDEST PUSH1 0x20 MUL PUSH1 0x20 ADD ADD MLOAD PUSH1 0x5 PUSH1 0x0 DUP9 DUP5 DUP2 MLOAD DUP2 LT PUSH2 0x7FC JUMPI PUSH2 0x7FC PUSH2 0x19AE JUMP JUMPDEST PUSH1 0x20 MUL PUSH1 0x20 ADD ADD MLOAD DUP2 MSTORE PUSH1 0x20 ADD SWAP1 DUP2 MSTORE PUSH1 0x20 ADD PUSH1 0x0 KECCAK256 DUP2 SWAP1 SSTORE POP DUP2 DUP7 DUP3 DUP2 MLOAD DUP2 LT PUSH2 0x829 JUMPI PUSH2 0x829 PUSH2 0x19AE JUMP JUMPDEST PUSH1 0x20 MUL PUSH1 0x20 ADD ADD MLOAD GT ISZERO PUSH2 0x854 JUMPI DUP6 DUP2 DUP2 MLOAD DUP2 LT PUSH2 0x849 JUMPI PUSH2 0x849 PUSH2 0x19AE JUMP JUMPDEST PUSH1 0x20 MUL PUSH1 0x20 ADD ADD MLOAD SWAP2 POP JUMPDEST DUP1 PUSH2 0x85E DUP2 PUSH2 0x19DB JUMP JUMPDEST SWAP2 POP POP PUSH2 0x7C3 JUMP JUMPDEST POP PUSH1 0x6 SSTORE POP POP POP POP JUMP JUMPDEST PUSH1 0x0 DUP2 DUP1 TIMESTAMP GT ISZERO PUSH2 0x893 JUMPI PUSH1 0x40 MLOAD PUSH3 0x461BCD PUSH1 0xE5 SHL DUP2 MSTORE PUSH1 0x4 ADD PUSH2 0x748 SWAP1 PUSH2 0x19F4 JUMP JUMPDEST PUSH1 0x0 PUSH2 0x8A2 PUSH3 0x93A80 TIMESTAMP PUSH2 0x1960 JUMP JUMPDEST CALLER PUSH1 0x0 SWAP1 DUP2 MSTORE PUSH1 0x9 PUSH1 0x20 MSTORE PUSH1 0x40 SWAP1 KECCAK256 SLOAD SWAP1 SWAP2 POP JUMPDEST CALLER PUSH1 0x0 SWAP1 DUP2 MSTORE PUSH1 0x9 PUSH1 0x20 MSTORE PUSH1 0x40 SWAP1 KECCAK256 SLOAD ISZERO PUSH2 0x9F5 JUMPI DUP1 PUSH2 0x8D5 DUP2 PUSH2 0x1A3E JUMP JUMPDEST CALLER PUSH1 0x0 SWAP1 DUP2 MSTORE PUSH1 0x9 PUSH1 0x20 MSTORE PUSH1 0x40 DUP2 KECCAK256 DUP1 SLOAD SWAP3 SWAP5 POP SWAP1 SWAP3 POP SWAP1 DUP4 SWAP1 DUP2 LT PUSH2 0x8FD JUMPI PUSH2 0x8FD PUSH2 0x19AE JUMP JUMPDEST SWAP1 PUSH1 0x0 MSTORE PUSH1 0x20 PUSH1 0x0 KECCAK256 ADD SLOAD SWAP1 POP DUP3 PUSH1 0x8 PUSH1 0x0 DUP4 DUP2 MSTORE PUSH1 0x20 ADD SWAP1 DUP2 MSTORE PUSH1 0x20 ADD PUSH1 0x0 KECCAK256 PUSH1 0x3 ADD SLOAD GT PUSH2 0x9E1 JUMPI PUSH1 0x0 DUP2 DUP2 MSTORE PUSH1 0x8 PUSH1 0x20 MSTORE PUSH1 0x40 SWAP1 KECCAK256 SLOAD PUSH2 0x940 SWAP1 DUP7 PUSH2 0x199B JUMP JUMPDEST CALLER PUSH1 0x0 SWAP1 DUP2 MSTORE PUSH1 0x9 PUSH1 0x20 MSTORE PUSH1 0x40 SWAP1 KECCAK256 DUP1 SLOAD SWAP2 SWAP7 POP SWAP1 PUSH2 0x961 SWAP1 PUSH1 0x1 SWAP1 PUSH2 0x1982 JUMP JUMPDEST DUP2 SLOAD DUP2 LT PUSH2 0x971 JUMPI PUSH2 0x971 PUSH2 0x19AE JUMP JUMPDEST PUSH1 0x0 SWAP2 DUP3 MSTORE PUSH1 0x20 DUP1 DUP4 KECCAK256 SWAP1 SWAP2 ADD SLOAD CALLER DUP4 MSTORE PUSH1 0x9 SWAP1 SWAP2 MSTORE PUSH1 0x40 SWAP1 SWAP2 KECCAK256 DUP1 SLOAD DUP5 SWAP1 DUP2 LT PUSH2 0x99E JUMPI PUSH2 0x99E PUSH2 0x19AE JUMP JUMPDEST PUSH1 0x0 SWAP2 DUP3 MSTORE PUSH1 0x20 DUP1 DUP4 KECCAK256 SWAP1 SWAP2 ADD SWAP3 SWAP1 SWAP3 SSTORE CALLER DUP2 MSTORE PUSH1 0x9 SWAP1 SWAP2 MSTORE PUSH1 0x40 SWAP1 KECCAK256 DUP1 SLOAD DUP1 PUSH2 0x9CA JUMPI PUSH2 0x9CA PUSH2 0x1A55 JUMP JUMPDEST PUSH1 0x1 SWAP1 SUB DUP2 DUP2 SWAP1 PUSH1 0x0 MSTORE PUSH1 0x20 PUSH1 0x0 KECCAK256 ADD PUSH1 0x0 SWAP1 SSTORE SWAP1 SSTORE JUMPDEST DUP2 PUSH1 0x0 SUB PUSH2 0x9EF JUMPI POP PUSH2 0x9F5 JUMP JUMPDEST POP PUSH2 0x8B6 JUMP JUMPDEST DUP4 ISZERO PUSH2 0xA26 JUMPI PUSH2 0xA26 PUSH32 0x0 CALLER DUP7 PUSH2 0x143B JUMP JUMPDEST PUSH1 0x40 MLOAD DUP5 DUP2 MSTORE CALLER SWAP1 PUSH32 0x884EDAD9CE6FA2440D8A54CC123490EB96D2768479D49FF9C7366125A9424364 SWAP1 PUSH1 0x20 ADD PUSH1 0x40 MLOAD DUP1 SWAP2 SUB SWAP1 LOG2 POP POP POP SWAP2 SWAP1 POP JUMP JUMPDEST PUSH1 0x0 SLOAD PUSH1 0x1 PUSH1 0x1 PUSH1 0xA0 SHL SUB AND CALLER EQ PUSH2 0xA8D JUMPI PUSH1 0x40 MLOAD PUSH3 0x461BCD PUSH1 0xE5 SHL DUP2 MSTORE PUSH1 0x4 ADD PUSH2 0x748 SWAP1 PUSH2 0x1A1B JUMP JUMPDEST PUSH1 0x1 DUP1 SLOAD PUSH1 0x1 PUSH1 0x1 PUSH1 0xA0 SHL SUB NOT AND PUSH1 0x1 PUSH1 0x1 PUSH1 0xA0 SHL SUB SWAP3 SWAP1 SWAP3 AND SWAP2 SWAP1 SWAP2 OR SWAP1 SSTORE JUMP JUMPDEST PUSH1 0x1 SLOAD PUSH1 0x1 PUSH1 0x1 PUSH1 0xA0 SHL SUB AND CALLER EQ PUSH2 0xAD9 JUMPI PUSH1 0x40 MLOAD PUSH3 0x461BCD PUSH1 0xE5 SHL DUP2 MSTORE PUSH1 0x4 ADD PUSH2 0x748 SWAP1 PUSH2 0x1A1B JUMP JUMPDEST PUSH1 0x1 DUP1 SLOAD PUSH1 0x0 DUP1 SLOAD PUSH1 0x1 PUSH1 0x1 PUSH1 0xA0 SHL SUB NOT SWAP1 DUP2 AND PUSH1 0x1 PUSH1 0x1 PUSH1 0xA0 SHL SUB DUP5 AND OR SWAP1 SWAP2 SSTORE AND SWAP1 SSTORE JUMP JUMPDEST CALLER PUSH1 0x0 SWAP1 DUP2 MSTORE PUSH1 0x9 PUSH1 0x20 MSTORE PUSH1 0x40 DUP2 KECCAK256 SLOAD PUSH1 0x60 SWAP2 DUP2 PUSH8 0xFFFFFFFFFFFFFFFF DUP2 GT ISZERO PUSH2 0xB2C JUMPI PUSH2 0xB2C PUSH2 0x16E7 JUMP JUMPDEST PUSH1 0x40 MLOAD SWAP1 DUP1 DUP3 MSTORE DUP1 PUSH1 0x20 MUL PUSH1 0x20 ADD DUP3 ADD PUSH1 0x40 MSTORE DUP1 ISZERO PUSH2 0xB88 JUMPI DUP2 PUSH1 0x20 ADD JUMPDEST PUSH2 0xB75 PUSH1 0x40 MLOAD DUP1 PUSH1 0x80 ADD PUSH1 0x40 MSTORE DUP1 PUSH1 0x0 DUP2 MSTORE PUSH1 0x20 ADD PUSH1 0x0 DUP2 MSTORE PUSH1 0x20 ADD PUSH1 0x0 DUP2 MSTORE PUSH1 0x20 ADD PUSH1 0x0 DUP2 MSTORE POP SWAP1 JUMP JUMPDEST DUP2 MSTORE PUSH1 0x20 ADD SWAP1 PUSH1 0x1 SWAP1 SUB SWAP1 DUP2 PUSH2 0xB4A JUMPI SWAP1 POP JUMPDEST POP SWAP1 POP PUSH1 0x0 JUMPDEST DUP3 DUP2 LT ISZERO PUSH2 0xC38 JUMPI CALLER PUSH1 0x0 SWAP1 DUP2 MSTORE PUSH1 0x9 PUSH1 0x20 MSTORE PUSH1 0x40 DUP2 KECCAK256 DUP1 SLOAD PUSH1 0x8 SWAP3 SWAP2 SWAP1 DUP5 SWAP1 DUP2 LT PUSH2 0xBBC JUMPI PUSH2 0xBBC PUSH2 0x19AE JUMP JUMPDEST SWAP1 PUSH1 0x0 MSTORE PUSH1 0x20 PUSH1 0x0 KECCAK256 ADD SLOAD DUP2 MSTORE PUSH1 0x20 ADD SWAP1 DUP2 MSTORE PUSH1 0x20 ADD PUSH1 0x0 KECCAK256 PUSH1 0x40 MLOAD DUP1 PUSH1 0x80 ADD PUSH1 0x40 MSTORE SWAP1 DUP2 PUSH1 0x0 DUP3 ADD SLOAD DUP2 MSTORE PUSH1 0x20 ADD PUSH1 0x1 DUP3 ADD SLOAD DUP2 MSTORE PUSH1 0x20 ADD PUSH1 0x2 DUP3 ADD SLOAD DUP2 MSTORE PUSH1 0x20 ADD PUSH1 0x3 DUP3 ADD SLOAD DUP2 MSTORE POP POP DUP3 DUP3 DUP2 MLOAD DUP2 LT PUSH2 0xC1A JUMPI PUSH2 0xC1A PUSH2 0x19AE JUMP JUMPDEST PUSH1 0x20 MUL PUSH1 0x20 ADD ADD DUP2 SWAP1 MSTORE POP DUP1 DUP1 PUSH2 0xC30 SWAP1 PUSH2 0x19DB JUMP JUMPDEST SWAP2 POP POP PUSH2 0xB8E JUMP JUMPDEST POP SWAP3 SWAP2 POP POP JUMP JUMPDEST DUP1 DUP1 TIMESTAMP GT ISZERO PUSH2 0xC60 JUMPI PUSH1 0x40 MLOAD PUSH3 0x461BCD PUSH1 0xE5 SHL DUP2 MSTORE PUSH1 0x4 ADD PUSH2 0x748 SWAP1 PUSH2 0x19F4 JUMP JUMPDEST PUSH1 0x0 PUSH1 0xFF PUSH32 0x0 AND PUSH2 0xC93 PUSH3 0x93A80 TIMESTAMP PUSH2 0x1960 JUMP JUMPDEST PUSH2 0xC9D SWAP2 SWAP1 PUSH2 0x1982 JUMP JUMPDEST CALLER PUSH1 0x0 SWAP1 DUP2 MSTORE PUSH1 0x3 PUSH1 0x20 MSTORE PUSH1 0x40 DUP2 KECCAK256 SLOAD SWAP2 SWAP3 POP SWAP1 DUP1 JUMPDEST CALLER PUSH1 0x0 SWAP1 DUP2 MSTORE PUSH1 0x3 PUSH1 0x20 MSTORE PUSH1 0x40 SWAP1 KECCAK256 PUSH1 0x1 ADD SLOAD DUP2 LT ISZERO PUSH2 0xD56 JUMPI DUP4 DUP2 GT PUSH2 0xD56 JUMPI PUSH2 0xCDF DUP2 PUSH1 0x1 PUSH2 0x199B JUMP JUMPDEST PUSH1 0x0 DUP3 DUP2 MSTORE PUSH1 0x4 PUSH1 0x20 MSTORE PUSH1 0x40 SWAP1 KECCAK256 SLOAD SWAP1 SWAP3 POP ISZERO PUSH2 0xD44 JUMPI PUSH1 0x0 DUP2 DUP2 MSTORE PUSH1 0x4 PUSH1 0x20 SWAP1 DUP2 MSTORE PUSH1 0x40 DUP1 DUP4 KECCAK256 SLOAD CALLER DUP5 MSTORE PUSH1 0x2 DUP4 MSTORE DUP2 DUP5 KECCAK256 DUP6 DUP6 MSTORE DUP4 MSTORE DUP2 DUP5 KECCAK256 SLOAD PUSH1 0x5 SWAP1 SWAP4 MSTORE SWAP3 KECCAK256 SLOAD PUSH2 0xD2D SWAP2 SWAP1 PUSH2 0x19C4 JUMP JUMPDEST PUSH2 0xD37 SWAP2 SWAP1 PUSH2 0x1960 JUMP JUMPDEST PUSH2 0xD41 SWAP1 DUP5 PUSH2 0x199B JUMP JUMPDEST SWAP3 POP JUMPDEST DUP1 PUSH2 0xD4E DUP2 PUSH2 0x19DB JUMP JUMPDEST SWAP2 POP POP PUSH2 0xCB3 JUMP JUMPDEST POP CALLER PUSH1 0x0 SWAP1 DUP2 MSTORE PUSH1 0x3 PUSH1 0x20 MSTORE PUSH1 0x40 DUP2 KECCAK256 DUP3 SWAP2 ADD SSTORE PUSH2 0xD95 PUSH32 0x0 CALLER DUP5 PUSH2 0x143B JUMP JUMPDEST PUSH1 0x40 MLOAD DUP3 DUP2 MSTORE CALLER SWAP1 PUSH32 0xBA8DE60C3403EC381D1D484652EA1980E3C3E56359195C92525BFF4CE47AD98E SWAP1 PUSH1 0x20 ADD PUSH1 0x40 MLOAD DUP1 SWAP2 SUB SWAP1 LOG2 POP POP POP POP POP JUMP JUMPDEST PUSH1 0x9 PUSH1 0x20 MSTORE DUP2 PUSH1 0x0 MSTORE PUSH1 0x40 PUSH1 0x0 KECCAK256 DUP2 DUP2 SLOAD DUP2 LT PUSH2 0xDED JUMPI PUSH1 0x0 DUP1 REVERT JUMPDEST SWAP1 PUSH1 0x0 MSTORE PUSH1 0x20 PUSH1 0x0 KECCAK256 ADD PUSH1 0x0 SWAP2 POP SWAP2 POP POP SLOAD DUP2 JUMP JUMPDEST PUSH1 0x3 PUSH1 0x20 MSTORE DUP2 PUSH1 0x0 MSTORE PUSH1 0x40 PUSH1 0x0 KECCAK256 DUP2 PUSH1 0x2 DUP2 LT PUSH2 0xE1E JUMPI PUSH1 0x0 DUP1 REVERT JUMPDEST ADD SLOAD SWAP2 POP DUP3 SWAP1 POP JUMP JUMPDEST DUP1 DUP1 TIMESTAMP GT ISZERO PUSH2 0xE48 JUMPI PUSH1 0x40 MLOAD PUSH3 0x461BCD PUSH1 0xE5 SHL DUP2 MSTORE PUSH1 0x4 ADD PUSH2 0x748 SWAP1 PUSH2 0x19F4 JUMP JUMPDEST PUSH1 0x0 SLOAD PUSH1 0x1 PUSH1 0x1 PUSH1 0xA0 SHL SUB AND CALLER EQ PUSH2 0xE72 JUMPI PUSH1 0x40 MLOAD PUSH3 0x461BCD PUSH1 0xE5 SHL DUP2 MSTORE PUSH1 0x4 ADD PUSH2 0x748 SWAP1 PUSH2 0x1A1B JUMP JUMPDEST PUSH2 0xE9E PUSH32 0x0 CALLER ADDRESS DUP7 PUSH2 0x1548 JUMP JUMPDEST PUSH1 0x0 DUP5 DUP2 MSTORE PUSH1 0x5 PUSH1 0x20 MSTORE PUSH1 0x40 DUP2 KECCAK256 DUP1 SLOAD DUP6 SWAP3 SWAP1 PUSH2 0xEBC SWAP1 DUP5 SWAP1 PUSH2 0x199B JUMP JUMPDEST SWAP1 SWAP2 SSTORE POP POP PUSH1 0x6 SLOAD DUP5 GT ISZERO PUSH2 0xED1 JUMPI PUSH1 0x6 DUP5 SWAP1 SSTORE JUMPDEST PUSH1 0x40 DUP1 MLOAD DUP6 DUP2 MSTORE PUSH1 0x20 DUP2 ADD DUP6 SWAP1 MSTORE CALLER SWAP2 PUSH32 0xC3991418CACD70A010FCE559A44FCBB47534CA43BF7543964BDCA2639F6E6E5A SWAP2 ADD PUSH1 0x40 MLOAD DUP1 SWAP2 SUB SWAP1 LOG2 POP POP POP POP JUMP JUMPDEST PUSH1 0x0 PUSH2 0xF3F PUSH1 0x1 PUSH32 0x0 PUSH2 0x1A6B JUMP JUMPDEST PUSH1 0xFF AND PUSH1 0x1 PUSH32 0x0 PUSH1 0xFF AND PUSH1 0x1 DUP6 PUSH2 0xF75 SWAP2 SWAP1 PUSH2 0x1A6B JUMP JUMPDEST PUSH1 0xFF AND PUSH2 0xFA3 PUSH1 0x1 PUSH32 0x0 PUSH2 0x1982 JUMP JUMPDEST PUSH2 0xFAD SWAP2 SWAP1 PUSH2 0x19C4 JUMP JUMPDEST PUSH2 0xFB7 SWAP2 SWAP1 PUSH2 0x199B JUMP JUMPDEST PUSH2 0xFC1 SWAP2 SWAP1 PUSH2 0x1982 JUMP JUMPDEST PUSH2 0xFCB SWAP1 DUP6 PUSH2 0x19C4 JUMP JUMPDEST PUSH2 0xFD5 SWAP2 SWAP1 PUSH2 0x1960 JUMP JUMPDEST SWAP4 SWAP3 POP POP POP JUMP JUMPDEST DUP1 DUP1 TIMESTAMP GT ISZERO PUSH2 0xFFD JUMPI PUSH1 0x40 MLOAD PUSH3 0x461BCD PUSH1 0xE5 SHL DUP2 MSTORE PUSH1 0x4 ADD PUSH2 0x748 SWAP1 PUSH2 0x19F4 JUMP JUMPDEST PUSH1 0x0 DUP4 PUSH1 0xFF AND GT DUP1 ISZERO PUSH2 0x1036 JUMPI POP PUSH32 0x0 PUSH1 0xFF AND DUP4 PUSH1 0xFF AND GT ISZERO JUMPDEST PUSH2 0x106B JUMPI PUSH1 0x40 MLOAD PUSH3 0x461BCD PUSH1 0xE5 SHL DUP2 MSTORE PUSH1 0x20 PUSH1 0x4 DUP3 ADD MSTORE PUSH1 0x6 PUSH1 0x24 DUP3 ADD MSTORE PUSH6 0x359018BF1A99 PUSH1 0xD1 SHL PUSH1 0x44 DUP3 ADD MSTORE PUSH1 0x64 ADD PUSH2 0x748 JUMP JUMPDEST PUSH32 0x0 TIMESTAMP GT ISZERO DUP1 ISZERO PUSH2 0x10BB JUMPI POP PUSH32 0x0 TIMESTAMP LT ISZERO JUMPDEST PUSH2 0x10FB JUMPI PUSH1 0x40 MLOAD PUSH3 0x461BCD PUSH1 0xE5 SHL DUP2 MSTORE PUSH1 0x20 PUSH1 0x4 DUP3 ADD MSTORE PUSH1 0x11 PUSH1 0x24 DUP3 ADD MSTORE PUSH17 0x1B9BDD081A5B881D1A19481C195C9A5BD9 PUSH1 0x7A SHL PUSH1 0x44 DUP3 ADD MSTORE PUSH1 0x64 ADD PUSH2 0x748 JUMP JUMPDEST PUSH1 0x0 PUSH2 0x110A PUSH3 0x93A80 TIMESTAMP PUSH2 0x1960 JUMP JUMPDEST PUSH2 0x1115 SWAP1 PUSH1 0x1 PUSH2 0x199B JUMP JUMPDEST SWAP1 POP PUSH2 0x1143 PUSH32 0x0 CALLER ADDRESS DUP9 PUSH2 0x1548 JUMP JUMPDEST PUSH1 0x0 PUSH2 0x114F DUP7 DUP7 PUSH2 0xF12 JUMP JUMPDEST SWAP1 POP PUSH1 0x0 JUMPDEST DUP6 PUSH1 0xFF AND DUP2 PUSH1 0xFF AND LT ISZERO PUSH2 0x11E9 JUMPI DUP2 PUSH1 0x4 PUSH1 0x0 PUSH2 0x1174 PUSH1 0xFF DUP6 AND DUP8 PUSH2 0x199B JUMP JUMPDEST DUP2 MSTORE PUSH1 0x20 ADD SWAP1 DUP2 MSTORE PUSH1 0x20 ADD PUSH1 0x0 KECCAK256 PUSH1 0x0 DUP3 DUP3 SLOAD PUSH2 0x1191 SWAP2 SWAP1 PUSH2 0x199B JUMP JUMPDEST SWAP1 SWAP2 SSTORE POP POP CALLER PUSH1 0x0 SWAP1 DUP2 MSTORE PUSH1 0x2 PUSH1 0x20 MSTORE PUSH1 0x40 DUP2 KECCAK256 DUP4 SWAP2 PUSH2 0x11B4 PUSH1 0xFF DUP6 AND DUP8 PUSH2 0x199B JUMP JUMPDEST DUP2 MSTORE PUSH1 0x20 ADD SWAP1 DUP2 MSTORE PUSH1 0x20 ADD PUSH1 0x0 KECCAK256 PUSH1 0x0 DUP3 DUP3 SLOAD PUSH2 0x11D1 SWAP2 SWAP1 PUSH2 0x199B JUMP JUMPDEST SWAP1 SWAP2 SSTORE POP DUP2 SWAP1 POP PUSH2 0x11E1 DUP2 PUSH2 0x1A84 JUMP JUMPDEST SWAP2 POP POP PUSH2 0x1154 JUMP JUMPDEST POP PUSH1 0x0 PUSH2 0x11F9 PUSH1 0xFF DUP8 AND DUP5 PUSH2 0x199B JUMP JUMPDEST PUSH1 0x40 DUP1 MLOAD PUSH1 0x80 DUP2 ADD DUP3 MSTORE DUP10 DUP2 MSTORE PUSH1 0x20 DUP1 DUP3 ADD DUP7 DUP2 MSTORE DUP3 DUP5 ADD DUP9 DUP2 MSTORE PUSH1 0x60 DUP5 ADD DUP7 DUP2 MSTORE PUSH1 0x7 SLOAD PUSH1 0x0 SWAP1 DUP2 MSTORE PUSH1 0x8 DUP6 MSTORE DUP7 DUP2 KECCAK256 SWAP6 MLOAD DUP7 SSTORE SWAP3 MLOAD PUSH1 0x1 DUP1 DUP8 ADD SWAP2 SWAP1 SWAP2 SSTORE SWAP2 MLOAD PUSH1 0x2 DUP7 ADD SSTORE MLOAD PUSH1 0x3 SWAP5 DUP6 ADD SSTORE CALLER DUP3 MSTORE SWAP3 SWAP1 SWAP2 MSTORE SWAP2 SWAP1 SWAP2 KECCAK256 SWAP1 DUP2 ADD SLOAD SWAP1 SLOAD SWAP2 SWAP3 POP SWAP1 SUB PUSH2 0x1274 JUMPI CALLER PUSH1 0x0 SWAP1 DUP2 MSTORE PUSH1 0x3 PUSH1 0x20 MSTORE PUSH1 0x40 SWAP1 KECCAK256 DUP4 SWAP1 SSTORE JUMPDEST CALLER PUSH1 0x0 SWAP1 DUP2 MSTORE PUSH1 0x3 PUSH1 0x20 MSTORE PUSH1 0x40 SWAP1 KECCAK256 DUP2 SWAP1 PUSH1 0x1 ADD SLOAD LT ISZERO PUSH2 0x12A5 JUMPI CALLER PUSH1 0x0 SWAP1 DUP2 MSTORE PUSH1 0x3 PUSH1 0x20 MSTORE PUSH1 0x40 SWAP1 KECCAK256 DUP2 SWAP1 PUSH1 0x1 ADD SSTORE JUMPDEST CALLER PUSH1 0x0 DUP2 DUP2 MSTORE PUSH1 0x9 PUSH1 0x20 SWAP1 DUP2 MSTORE PUSH1 0x40 DUP1 DUP4 KECCAK256 PUSH1 0x7 DUP1 SLOAD DUP3 SLOAD PUSH1 0x1 DUP2 ADD DUP5 SSTORE SWAP3 DUP7 MSTORE SWAP5 DUP5 SWAP1 KECCAK256 SWAP1 SWAP2 ADD SWAP4 SWAP1 SWAP4 SSTORE SWAP2 SLOAD DUP3 MLOAD SWAP1 DUP2 MSTORE SWAP1 DUP2 ADD DUP11 SWAP1 MSTORE PUSH1 0xFF DUP10 AND DUP2 DUP4 ADD MSTORE SWAP1 MLOAD PUSH32 0x6FA2F6021EE337436CDF2B2570285886DA18BC06402CE284D296504A0FE8F875 SWAP2 DUP2 SWAP1 SUB PUSH1 0x60 ADD SWAP1 LOG2 PUSH1 0x7 DUP1 SLOAD SWAP1 PUSH1 0x0 PUSH2 0x1322 DUP4 PUSH2 0x19DB JUMP JUMPDEST SWAP2 SWAP1 POP SSTORE POP POP POP POP POP POP POP POP JUMP JUMPDEST PUSH1 0x0 DUP1 PUSH1 0xFF PUSH32 0x0 AND PUSH2 0x1364 PUSH3 0x93A80 TIMESTAMP PUSH2 0x1960 JUMP JUMPDEST PUSH2 0x136E SWAP2 SWAP1 PUSH2 0x1982 JUMP JUMPDEST PUSH1 0x1 PUSH1 0x1 PUSH1 0xA0 SHL SUB DUP5 AND PUSH1 0x0 SWAP1 DUP2 MSTORE PUSH1 0x3 PUSH1 0x20 MSTORE PUSH1 0x40 DUP2 KECCAK256 SLOAD SWAP2 SWAP3 POP SWAP1 JUMPDEST PUSH1 0x1 PUSH1 0x1 PUSH1 0xA0 SHL SUB DUP6 AND PUSH1 0x0 SWAP1 DUP2 MSTORE PUSH1 0x3 PUSH1 0x20 MSTORE PUSH1 0x40 SWAP1 KECCAK256 PUSH1 0x1 ADD SLOAD DUP2 LT ISZERO PUSH2 0x1433 JUMPI DUP3 DUP2 GT PUSH2 0x1433 JUMPI PUSH1 0x0 DUP2 DUP2 MSTORE PUSH1 0x4 PUSH1 0x20 MSTORE PUSH1 0x40 SWAP1 KECCAK256 SLOAD ISZERO PUSH2 0x1421 JUMPI PUSH1 0x0 DUP2 DUP2 MSTORE PUSH1 0x4 PUSH1 0x20 SWAP1 DUP2 MSTORE PUSH1 0x40 DUP1 DUP4 KECCAK256 SLOAD PUSH1 0x1 PUSH1 0x1 PUSH1 0xA0 SHL SUB DUP10 AND DUP5 MSTORE PUSH1 0x2 DUP4 MSTORE DUP2 DUP5 KECCAK256 DUP6 DUP6 MSTORE DUP4 MSTORE DUP2 DUP5 KECCAK256 SLOAD PUSH1 0x5 SWAP1 SWAP4 MSTORE SWAP3 KECCAK256 SLOAD PUSH2 0x140A SWAP2 SWAP1 PUSH2 0x19C4 JUMP JUMPDEST PUSH2 0x1414 SWAP2 SWAP1 PUSH2 0x1960 JUMP JUMPDEST PUSH2 0x141E SWAP1 DUP4 PUSH2 0x199B JUMP JUMPDEST SWAP2 POP JUMPDEST DUP1 PUSH2 0x142B DUP2 PUSH2 0x19DB JUMP JUMPDEST SWAP2 POP POP PUSH2 0x138C JUMP JUMPDEST POP SWAP4 SWAP3 POP POP POP JUMP JUMPDEST PUSH1 0x40 DUP1 MLOAD PUSH1 0x1 PUSH1 0x1 PUSH1 0xA0 SHL SUB DUP5 DUP2 AND PUSH1 0x24 DUP4 ADD MSTORE PUSH1 0x44 DUP1 DUP4 ADD DUP6 SWAP1 MSTORE DUP4 MLOAD DUP1 DUP5 SUB SWAP1 SWAP2 ADD DUP2 MSTORE PUSH1 0x64 SWAP1 SWAP3 ADD DUP4 MSTORE PUSH1 0x20 DUP3 ADD DUP1 MLOAD PUSH1 0x1 PUSH1 0x1 PUSH1 0xE0 SHL SUB AND PUSH4 0xA9059CBB PUSH1 0xE0 SHL OR SWAP1 MSTORE SWAP2 MLOAD PUSH1 0x0 SWAP3 DUP4 SWAP3 SWAP1 DUP8 AND SWAP2 PUSH2 0x1497 SWAP2 SWAP1 PUSH2 0x1AA3 JUMP JUMPDEST PUSH1 0x0 PUSH1 0x40 MLOAD DUP1 DUP4 SUB DUP2 PUSH1 0x0 DUP7 GAS CALL SWAP2 POP POP RETURNDATASIZE DUP1 PUSH1 0x0 DUP2 EQ PUSH2 0x14D4 JUMPI PUSH1 0x40 MLOAD SWAP2 POP PUSH1 0x1F NOT PUSH1 0x3F RETURNDATASIZE ADD AND DUP3 ADD PUSH1 0x40 MSTORE RETURNDATASIZE DUP3 MSTORE RETURNDATASIZE PUSH1 0x0 PUSH1 0x20 DUP5 ADD RETURNDATACOPY PUSH2 0x14D9 JUMP JUMPDEST PUSH1 0x60 SWAP2 POP JUMPDEST POP SWAP2 POP SWAP2 POP DUP2 DUP1 ISZERO PUSH2 0x1503 JUMPI POP DUP1 MLOAD ISZERO DUP1 PUSH2 0x1503 JUMPI POP DUP1 DUP1 PUSH1 0x20 ADD SWAP1 MLOAD DUP2 ADD SWAP1 PUSH2 0x1503 SWAP2 SWAP1 PUSH2 0x1AD2 JUMP JUMPDEST PUSH2 0x1541 JUMPI PUSH1 0x40 MLOAD PUSH3 0x461BCD PUSH1 0xE5 SHL DUP2 MSTORE PUSH1 0x20 PUSH1 0x4 DUP3 ADD MSTORE PUSH1 0xF PUSH1 0x24 DUP3 ADD MSTORE PUSH15 0x1514905394D1915497D19052531151 PUSH1 0x8A SHL PUSH1 0x44 DUP3 ADD MSTORE PUSH1 0x64 ADD PUSH2 0x748 JUMP JUMPDEST POP POP POP POP POP JUMP JUMPDEST PUSH1 0x40 DUP1 MLOAD PUSH1 0x1 PUSH1 0x1 PUSH1 0xA0 SHL SUB DUP6 DUP2 AND PUSH1 0x24 DUP4 ADD MSTORE DUP5 DUP2 AND PUSH1 0x44 DUP4 ADD MSTORE PUSH1 0x64 DUP1 DUP4 ADD DUP6 SWAP1 MSTORE DUP4 MLOAD DUP1 DUP5 SUB SWAP1 SWAP2 ADD DUP2 MSTORE PUSH1 0x84 SWAP1 SWAP3 ADD DUP4 MSTORE PUSH1 0x20 DUP3 ADD DUP1 MLOAD PUSH1 0x1 PUSH1 0x1 PUSH1 0xE0 SHL SUB AND PUSH4 0x23B872DD PUSH1 0xE0 SHL OR SWAP1 MSTORE SWAP2 MLOAD PUSH1 0x0 SWAP3 DUP4 SWAP3 SWAP1 DUP9 AND SWAP2 PUSH2 0x15AC SWAP2 SWAP1 PUSH2 0x1AA3 JUMP JUMPDEST PUSH1 0x0 PUSH1 0x40 MLOAD DUP1 DUP4 SUB DUP2 PUSH1 0x0 DUP7 GAS CALL SWAP2 POP POP RETURNDATASIZE DUP1 PUSH1 0x0 DUP2 EQ PUSH2 0x15E9 JUMPI PUSH1 0x40 MLOAD SWAP2 POP PUSH1 0x1F NOT PUSH1 0x3F RETURNDATASIZE ADD AND DUP3 ADD PUSH1 0x40 MSTORE RETURNDATASIZE DUP3 MSTORE RETURNDATASIZE PUSH1 0x0 PUSH1 0x20 DUP5 ADD RETURNDATACOPY PUSH2 0x15EE JUMP JUMPDEST PUSH1 0x60 SWAP2 POP JUMPDEST POP SWAP2 POP SWAP2 POP DUP2 DUP1 ISZERO PUSH2 0x1618 JUMPI POP DUP1 MLOAD ISZERO DUP1 PUSH2 0x1618 JUMPI POP DUP1 DUP1 PUSH1 0x20 ADD SWAP1 MLOAD DUP2 ADD SWAP1 PUSH2 0x1618 SWAP2 SWAP1 PUSH2 0x1AD2 JUMP JUMPDEST PUSH2 0x165A JUMPI PUSH1 0x40 MLOAD PUSH3 0x461BCD PUSH1 0xE5 SHL DUP2 MSTORE PUSH1 0x20 PUSH1 0x4 DUP3 ADD MSTORE PUSH1 0x13 PUSH1 0x24 DUP3 ADD MSTORE PUSH19 0x1D1C985B9CD9995C919C9BDB4819985A5B1959 PUSH1 0x6A SHL PUSH1 0x44 DUP3 ADD MSTORE PUSH1 0x64 ADD PUSH2 0x748 JUMP JUMPDEST POP POP POP POP POP POP JUMP JUMPDEST DUP1 CALLDATALOAD PUSH1 0x1 PUSH1 0x1 PUSH1 0xA0 SHL SUB DUP2 AND DUP2 EQ PUSH2 0x1679 JUMPI PUSH1 0x0 DUP1 REVERT JUMPDEST SWAP2 SWAP1 POP JUMP JUMPDEST PUSH1 0x0 PUSH1 0x20 DUP3 DUP5 SUB SLT ISZERO PUSH2 0x1690 JUMPI PUSH1 0x0 DUP1 REVERT JUMPDEST PUSH2 0xFD5 DUP3 PUSH2 0x1662 JUMP JUMPDEST PUSH1 0x0 PUSH1 0x40 DUP3 ADD DUP5 DUP4 MSTORE PUSH1 0x20 PUSH1 0x40 DUP2 DUP6 ADD MSTORE DUP2 DUP6 MLOAD DUP1 DUP5 MSTORE PUSH1 0x60 DUP7 ADD SWAP2 POP DUP3 DUP8 ADD SWAP4 POP PUSH1 0x0 JUMPDEST DUP2 DUP2 LT ISZERO PUSH2 0x16DA JUMPI DUP5 MLOAD DUP4 MSTORE SWAP4 DUP4 ADD SWAP4 SWAP2 DUP4 ADD SWAP2 PUSH1 0x1 ADD PUSH2 0x16BE JUMP JUMPDEST POP SWAP1 SWAP8 SWAP7 POP POP POP POP POP POP POP JUMP JUMPDEST PUSH4 0x4E487B71 PUSH1 0xE0 SHL PUSH1 0x0 MSTORE PUSH1 0x41 PUSH1 0x4 MSTORE PUSH1 0x24 PUSH1 0x0 REVERT JUMPDEST PUSH1 0x0 DUP3 PUSH1 0x1F DUP4 ADD SLT PUSH2 0x170E JUMPI PUSH1 0x0 DUP1 REVERT JUMPDEST DUP2 CALLDATALOAD PUSH1 0x20 PUSH8 0xFFFFFFFFFFFFFFFF DUP1 DUP4 GT ISZERO PUSH2 0x172B JUMPI PUSH2 0x172B PUSH2 0x16E7 JUMP JUMPDEST DUP3 PUSH1 0x5 SHL PUSH1 0x40 MLOAD PUSH1 0x1F NOT PUSH1 0x3F DUP4 ADD AND DUP2 ADD DUP2 DUP2 LT DUP5 DUP3 GT OR ISZERO PUSH2 0x1750 JUMPI PUSH2 0x1750 PUSH2 0x16E7 JUMP JUMPDEST PUSH1 0x40 MSTORE SWAP4 DUP5 MSTORE DUP6 DUP2 ADD DUP4 ADD SWAP4 DUP4 DUP2 ADD SWAP3 POP DUP8 DUP6 GT ISZERO PUSH2 0x176E JUMPI PUSH1 0x0 DUP1 REVERT JUMPDEST DUP4 DUP8 ADD SWAP2 POP JUMPDEST DUP5 DUP3 LT ISZERO PUSH2 0x178D JUMPI DUP2 CALLDATALOAD DUP4 MSTORE SWAP2 DUP4 ADD SWAP2 SWAP1 DUP4 ADD SWAP1 PUSH2 0x1774 JUMP JUMPDEST SWAP8 SWAP7 POP POP POP POP POP POP POP JUMP JUMPDEST PUSH1 0x0 DUP1 PUSH1 0x0 PUSH1 0x60 DUP5 DUP7 SUB SLT ISZERO PUSH2 0x17AD JUMPI PUSH1 0x0 DUP1 REVERT JUMPDEST DUP4 CALLDATALOAD PUSH8 0xFFFFFFFFFFFFFFFF DUP1 DUP3 GT ISZERO PUSH2 0x17C5 JUMPI PUSH1 0x0 DUP1 REVERT JUMPDEST PUSH2 0x17D1 DUP8 DUP4 DUP9 ADD PUSH2 0x16FD JUMP JUMPDEST SWAP5 POP PUSH1 0x20 DUP7 ADD CALLDATALOAD SWAP2 POP DUP1 DUP3 GT ISZERO PUSH2 0x17E7 JUMPI PUSH1 0x0 DUP1 REVERT JUMPDEST POP PUSH2 0x17F4 DUP7 DUP3 DUP8 ADD PUSH2 0x16FD JUMP JUMPDEST SWAP3 POP POP PUSH1 0x40 DUP5 ADD CALLDATALOAD SWAP1 POP SWAP3 POP SWAP3 POP SWAP3 JUMP JUMPDEST PUSH1 0x0 PUSH1 0x20 DUP3 DUP5 SUB SLT ISZERO PUSH2 0x1817 JUMPI PUSH1 0x0 DUP1 REVERT JUMPDEST POP CALLDATALOAD SWAP2 SWAP1 POP JUMP JUMPDEST PUSH1 0x0 DUP1 PUSH1 0x40 DUP4 DUP6 SUB SLT ISZERO PUSH2 0x1831 JUMPI PUSH1 0x0 DUP1 REVERT JUMPDEST PUSH2 0x183A DUP4 PUSH2 0x1662 JUMP JUMPDEST SWAP5 PUSH1 0x20 SWAP4 SWAP1 SWAP4 ADD CALLDATALOAD SWAP4 POP POP POP JUMP JUMPDEST PUSH1 0x20 DUP1 DUP3 MSTORE DUP3 MLOAD DUP3 DUP3 ADD DUP2 SWAP1 MSTORE PUSH1 0x0 SWAP2 SWAP1 PUSH1 0x40 SWAP1 DUP2 DUP6 ADD SWAP1 DUP7 DUP5 ADD DUP6 JUMPDEST DUP3 DUP2 LT ISZERO PUSH2 0x189F JUMPI DUP2 MLOAD DUP1 MLOAD DUP6 MSTORE DUP7 DUP2 ADD MLOAD DUP8 DUP7 ADD MSTORE DUP6 DUP2 ADD MLOAD DUP7 DUP7 ADD MSTORE PUSH1 0x60 SWAP1 DUP2 ADD MLOAD SWAP1 DUP6 ADD MSTORE PUSH1 0x80 SWAP1 SWAP4 ADD SWAP3 SWAP1 DUP6 ADD SWAP1 PUSH1 0x1 ADD PUSH2 0x1865 JUMP JUMPDEST POP SWAP2 SWAP8 SWAP7 POP POP POP POP POP POP POP JUMP JUMPDEST PUSH1 0x0 DUP1 PUSH1 0x0 PUSH1 0x60 DUP5 DUP7 SUB SLT ISZERO PUSH2 0x18C1 JUMPI PUSH1 0x0 DUP1 REVERT JUMPDEST POP POP DUP2 CALLDATALOAD SWAP4 PUSH1 0x20 DUP4 ADD CALLDATALOAD SWAP4 POP PUSH1 0x40 SWAP1 SWAP3 ADD CALLDATALOAD SWAP2 SWAP1 POP JUMP JUMPDEST DUP1 CALLDATALOAD PUSH1 0xFF DUP2 AND DUP2 EQ PUSH2 0x1679 JUMPI PUSH1 0x0 DUP1 REVERT JUMPDEST PUSH1 0x0 DUP1 PUSH1 0x40 DUP4 DUP6 SUB SLT ISZERO PUSH2 0x18FC JUMPI PUSH1 0x0 DUP1 REVERT JUMPDEST DUP3 CALLDATALOAD SWAP2 POP PUSH2 0x190C PUSH1 0x20 DUP5 ADD PUSH2 0x18D8 JUMP JUMPDEST SWAP1 POP SWAP3 POP SWAP3 SWAP1 POP JUMP JUMPDEST PUSH1 0x0 DUP1 PUSH1 0x0 PUSH1 0x60 DUP5 DUP7 SUB SLT ISZERO PUSH2 0x192A JUMPI PUSH1 0x0 DUP1 REVERT JUMPDEST DUP4 CALLDATALOAD SWAP3 POP PUSH2 0x193A PUSH1 0x20 DUP6 ADD PUSH2 0x18D8 JUMP JUMPDEST SWAP2 POP PUSH1 0x40 DUP5 ADD CALLDATALOAD SWAP1 POP SWAP3 POP SWAP3 POP SWAP3 JUMP JUMPDEST PUSH4 0x4E487B71 PUSH1 0xE0 SHL PUSH1 0x0 MSTORE PUSH1 0x11 PUSH1 0x4 MSTORE PUSH1 0x24 PUSH1 0x0 REVERT JUMPDEST PUSH1 0x0 DUP3 PUSH2 0x197D JUMPI PUSH4 0x4E487B71 PUSH1 0xE0 SHL PUSH1 0x0 MSTORE PUSH1 0x12 PUSH1 0x4 MSTORE PUSH1 0x24 PUSH1 0x0 REVERT JUMPDEST POP DIV SWAP1 JUMP JUMPDEST DUP2 DUP2 SUB DUP2 DUP2 GT ISZERO PUSH2 0x1995 JUMPI PUSH2 0x1995 PUSH2 0x194A JUMP JUMPDEST SWAP3 SWAP2 POP POP JUMP JUMPDEST DUP1 DUP3 ADD DUP1 DUP3 GT ISZERO PUSH2 0x1995 JUMPI PUSH2 0x1995 PUSH2 0x194A JUMP JUMPDEST PUSH4 0x4E487B71 PUSH1 0xE0 SHL PUSH1 0x0 MSTORE PUSH1 0x32 PUSH1 0x4 MSTORE PUSH1 0x24 PUSH1 0x0 REVERT JUMPDEST DUP1 DUP3 MUL DUP2 ISZERO DUP3 DUP3 DIV DUP5 EQ OR PUSH2 0x1995 JUMPI PUSH2 0x1995 PUSH2 0x194A JUMP JUMPDEST PUSH1 0x0 PUSH1 0x1 DUP3 ADD PUSH2 0x19ED JUMPI PUSH2 0x19ED PUSH2 0x194A JUMP JUMPDEST POP PUSH1 0x1 ADD SWAP1 JUMP JUMPDEST PUSH1 0x20 DUP1 DUP3 MSTORE PUSH1 0xD SWAP1 DUP3 ADD MSTORE PUSH13 0x6F76657220646561646C696E65 PUSH1 0x98 SHL PUSH1 0x40 DUP3 ADD MSTORE PUSH1 0x60 ADD SWAP1 JUMP JUMPDEST PUSH1 0x20 DUP1 DUP3 MSTORE PUSH1 0x9 SWAP1 DUP3 ADD MSTORE PUSH9 0x3337B93134B23232B7 PUSH1 0xB9 SHL PUSH1 0x40 DUP3 ADD MSTORE PUSH1 0x60 ADD SWAP1 JUMP JUMPDEST PUSH1 0x0 DUP2 PUSH2 0x1A4D JUMPI PUSH2 0x1A4D PUSH2 0x194A JUMP JUMPDEST POP PUSH1 0x0 NOT ADD SWAP1 JUMP JUMPDEST PUSH4 0x4E487B71 PUSH1 0xE0 SHL PUSH1 0x0 MSTORE PUSH1 0x31 PUSH1 0x4 MSTORE PUSH1 0x24 PUSH1 0x0 REVERT JUMPDEST PUSH1 0xFF DUP3 DUP2 AND DUP3 DUP3 AND SUB SWAP1 DUP2 GT ISZERO PUSH2 0x1995 JUMPI PUSH2 0x1995 PUSH2 0x194A JUMP JUMPDEST PUSH1 0x0 PUSH1 0xFF DUP3 AND PUSH1 0xFF DUP2 SUB PUSH2 0x1A9A JUMPI PUSH2 0x1A9A PUSH2 0x194A JUMP JUMPDEST PUSH1 0x1 ADD SWAP3 SWAP2 POP POP JUMP JUMPDEST PUSH1 0x0 DUP3 MLOAD PUSH1 0x0 JUMPDEST DUP2 DUP2 LT ISZERO PUSH2 0x1AC4 JUMPI PUSH1 0x20 DUP2 DUP7 ADD DUP2 ADD MLOAD DUP6 DUP4 ADD MSTORE ADD PUSH2 0x1AAA JUMP JUMPDEST POP PUSH1 0x0 SWAP3 ADD SWAP2 DUP3 MSTORE POP SWAP2 SWAP1 POP JUMP JUMPDEST PUSH1 0x0 PUSH1 0x20 DUP3 DUP5 SUB SLT ISZERO PUSH2 0x1AE4 JUMPI PUSH1 0x0 DUP1 REVERT JUMPDEST DUP2 MLOAD DUP1 ISZERO ISZERO DUP2 EQ PUSH2 0xFD5 JUMPI PUSH1 0x0 DUP1 REVERT INVALID LOG2 PUSH5 0x6970667358 0x22 SLT KECCAK256 0xDF PUSH7 0xFA280544DEBBB5 0xFB MOD SWAP2 0xE5 0xAE PUSH20 0x738E8485CC9F8A1BA26812DE279FEF0C4B64736F PUSH13 0x63430008110033000000000000 "},"methodIdentifiers":{"BEGIN_TIME()":"c75363b6","END_TIME()":"37ba682d","LOCK_WEEKNUM()":"0d437d40","MAX_SCALE()":"f6def7cf","MAX_WEEKS()":"e11400bb","WEEK_SECONDS()":"cd671a58","acceptSetter()":"5f8e422f","canClaimAmount(address)":"fa60c77c","claimReward(uint256)":"ae169a50","getScore(uint256,uint8)":"ee3453ed","getStaking()":"7b1391a6","latestNo()":"29ed1cfd","lockedRewardAmount(address)":"02e9e495","lpToken()":"5fcbd285","nonce()":"affed0e0","owner()":"8da5cb5b","rewardToken()":"f7c618c1","rewardsOf(uint256)":"0bce1284","setReward(uint256,uint256,uint256)":"e1c05d93","setRewards(uint256[],uint256[],uint256)":"07c6e2fa","stake(uint256,uint8,uint256)":"f99b7d75","stakingERC20s(uint256)":"a218de15","totalScores(uint256)":"157775df","transferOwner(address)":"4fb2e45d","userCanClaimWeeks(address,uint256)":"bb57852d","userERC20s(address,uint256)":"ba086501","userScores(address,uint256)":"5b680a45","withdraw(uint256)":"2e1a7d4d"}}}}}