{"contracts/stakeNFT721.sol":{"StakeNFT721":{"abi":[{"inputs":[{"internalType":"uint8","name":"maxWeeks","type":"uint8"},{"internalType":"uint256","name":"maxScale","type":"uint256"},{"internalType":"uint8","name":"lockWeeks","type":"uint8"},{"internalType":"uint256","name":"beginTime","type":"uint256"},{"internalType":"uint256","name":"endTime","type":"uint256"},{"internalType":"address","name":"_rewardToken","type":"address"},{"internalType":"address","name":"tokenA","type":"address"},{"internalType":"address","name":"tokenB","type":"address"},{"internalType":"uint24","name":"_fee","type":"uint24"},{"internalType":"address","name":"nft","type":"address"},{"internalType":"int24","name":"tickMax","type":"int24"}],"stateMutability":"nonpayable","type":"constructor"},{"anonymous":false,"inputs":[{"indexed":true,"internalType":"address","name":"user","type":"address"},{"indexed":false,"internalType":"uint256","name":"amount","type":"uint256"}],"name":"ClaimReward","type":"event"},{"anonymous":false,"inputs":[{"indexed":true,"internalType":"address","name":"user","type":"address"},{"indexed":false,"internalType":"uint256","name":"no","type":"uint256"},{"indexed":false,"internalType":"uint256","name":"amount","type":"uint256"}],"name":"SetReward","type":"event"},{"anonymous":false,"inputs":[{"indexed":true,"internalType":"address","name":"user","type":"address"},{"indexed":false,"internalType":"uint256","name":"tokenId","type":"uint256"},{"indexed":false,"internalType":"uint256","name":"amount","type":"uint256"},{"indexed":false,"internalType":"uint8","name":"k","type":"uint8"}],"name":"Stake","type":"event"},{"anonymous":false,"inputs":[{"indexed":true,"internalType":"address","name":"user","type":"address"},{"indexed":false,"internalType":"uint256","name":"tokenId","type":"uint256"}],"name":"Withdraw","type":"event"},{"anonymous":false,"inputs":[{"indexed":true,"internalType":"address","name":"user","type":"address"},{"indexed":false,"internalType":"uint128","name":"liquidity","type":"uint128"},{"indexed":false,"internalType":"uint256","name":"tokenId","type":"uint256"},{"indexed":false,"internalType":"uint256","name":"mergeId","type":"uint256"},{"indexed":false,"internalType":"uint256","name":"token0Fee","type":"uint256"},{"indexed":false,"internalType":"uint256","name":"token1Fee","type":"uint256"}],"name":"WithdrawAndMerge","type":"event"},{"inputs":[],"name":"BEGIN_TIME","outputs":[{"internalType":"uint256","name":"","type":"uint256"}],"stateMutability":"view","type":"function"},{"inputs":[],"name":"END_TIME","outputs":[{"internalType":"uint256","name":"","type":"uint256"}],"stateMutability":"view","type":"function"},{"inputs":[],"name":"LOCK_WEEKNUM","outputs":[{"internalType":"uint8","name":"","type":"uint8"}],"stateMutability":"view","type":"function"},{"inputs":[],"name":"MAX_SCALE","outputs":[{"internalType":"uint256","name":"","type":"uint256"}],"stateMutability":"view","type":"function"},{"inputs":[],"name":"MAX_TICK","outputs":[{"internalType":"int24","name":"","type":"int24"}],"stateMutability":"view","type":"function"},{"inputs":[],"name":"MAX_WEEKS","outputs":[{"internalType":"uint8","name":"","type":"uint8"}],"stateMutability":"view","type":"function"},{"inputs":[],"name":"MIN_TICK","outputs":[{"internalType":"int24","name":"","type":"int24"}],"stateMutability":"view","type":"function"},{"inputs":[],"name":"WEEK_SECONDS","outputs":[{"internalType":"uint24","name":"","type":"uint24"}],"stateMutability":"view","type":"function"},{"inputs":[],"name":"acceptSetter","outputs":[],"stateMutability":"nonpayable","type":"function"},{"inputs":[{"internalType":"address","name":"user","type":"address"}],"name":"canClaimAmount","outputs":[{"internalType":"uint256","name":"","type":"uint256"}],"stateMutability":"view","type":"function"},{"inputs":[{"internalType":"uint256","name":"deadline","type":"uint256"}],"name":"claimReward","outputs":[],"stateMutability":"nonpayable","type":"function"},{"inputs":[],"name":"fee","outputs":[{"internalType":"uint24","name":"","type":"uint24"}],"stateMutability":"view","type":"function"},{"inputs":[{"internalType":"uint256","name":"amount","type":"uint256"},{"internalType":"uint8","name":"k","type":"uint8"}],"name":"getScore","outputs":[{"internalType":"uint256","name":"score","type":"uint256"}],"stateMutability":"view","type":"function"},{"inputs":[],"name":"getUserNFTs","outputs":[{"internalType":"uint256[]","name":"","type":"uint256[]"},{"internalType":"uint256","name":"","type":"uint256"}],"stateMutability":"view","type":"function"},{"inputs":[],"name":"latestNo","outputs":[{"internalType":"uint256","name":"","type":"uint256"}],"stateMutability":"view","type":"function"},{"inputs":[{"internalType":"address","name":"user","type":"address"}],"name":"lockedRewardAmount","outputs":[{"internalType":"uint256","name":"","type":"uint256"},{"internalType":"uint256[]","name":"","type":"uint256[]"}],"stateMutability":"view","type":"function"},{"inputs":[],"name":"nftToken","outputs":[{"internalType":"contract IIotabeeSwapNFT","name":"","type":"address"}],"stateMutability":"view","type":"function"},{"inputs":[{"internalType":"address","name":"","type":"address"},{"internalType":"address","name":"","type":"address"},{"internalType":"uint256","name":"","type":"uint256"},{"internalType":"bytes","name":"","type":"bytes"}],"name":"onERC721Received","outputs":[{"internalType":"bytes4","name":"","type":"bytes4"}],"stateMutability":"pure","type":"function"},{"inputs":[],"name":"owner","outputs":[{"internalType":"address","name":"","type":"address"}],"stateMutability":"view","type":"function"},{"inputs":[],"name":"rewardToken","outputs":[{"internalType":"address","name":"","type":"address"}],"stateMutability":"view","type":"function"},{"inputs":[{"internalType":"uint256","name":"","type":"uint256"}],"name":"rewardsOf","outputs":[{"internalType":"uint256","name":"","type":"uint256"}],"stateMutability":"view","type":"function"},{"inputs":[{"internalType":"uint256","name":"no","type":"uint256"},{"internalType":"uint256","name":"amount","type":"uint256"},{"internalType":"uint256","name":"deadline","type":"uint256"}],"name":"setReward","outputs":[],"stateMutability":"nonpayable","type":"function"},{"inputs":[{"internalType":"uint256[]","name":"nos","type":"uint256[]"},{"internalType":"uint256[]","name":"amounts","type":"uint256[]"},{"internalType":"uint256","name":"deadline","type":"uint256"}],"name":"setRewards","outputs":[],"stateMutability":"nonpayable","type":"function"},{"inputs":[{"internalType":"uint256","name":"tokenId","type":"uint256"},{"internalType":"uint8","name":"k","type":"uint8"},{"internalType":"uint256","name":"deadline","type":"uint256"}],"name":"stake","outputs":[],"stateMutability":"nonpayable","type":"function"},{"inputs":[{"internalType":"uint256","name":"","type":"uint256"}],"name":"stakingNFTs","outputs":[{"internalType":"address","name":"owner","type":"address"},{"internalType":"uint256","name":"score","type":"uint256"},{"internalType":"uint256","name":"beginNo","type":"uint256"},{"internalType":"uint256","name":"endNo","type":"uint256"}],"stateMutability":"view","type":"function"},{"inputs":[],"name":"token0","outputs":[{"internalType":"address","name":"","type":"address"}],"stateMutability":"view","type":"function"},{"inputs":[],"name":"token1","outputs":[{"internalType":"address","name":"","type":"address"}],"stateMutability":"view","type":"function"},{"inputs":[{"internalType":"uint256","name":"","type":"uint256"}],"name":"totalScores","outputs":[{"internalType":"uint256","name":"","type":"uint256"}],"stateMutability":"view","type":"function"},{"inputs":[{"internalType":"address","name":"_owner","type":"address"}],"name":"transferOwner","outputs":[],"stateMutability":"nonpayable","type":"function"},{"inputs":[{"internalType":"address","name":"","type":"address"},{"internalType":"uint256","name":"","type":"uint256"}],"name":"userCanClaimWeeks","outputs":[{"internalType":"uint256","name":"","type":"uint256"}],"stateMutability":"view","type":"function"},{"inputs":[{"internalType":"address","name":"","type":"address"},{"internalType":"uint256","name":"","type":"uint256"}],"name":"userNFTs","outputs":[{"internalType":"uint256","name":"","type":"uint256"}],"stateMutability":"view","type":"function"},{"inputs":[{"internalType":"address","name":"","type":"address"},{"internalType":"uint256","name":"","type":"uint256"}],"name":"userScores","outputs":[{"internalType":"uint256","name":"","type":"uint256"}],"stateMutability":"view","type":"function"},{"inputs":[{"internalType":"uint256","name":"tokenId","type":"uint256"},{"internalType":"uint256","name":"deadline","type":"uint256"}],"name":"withdraw","outputs":[],"stateMutability":"nonpayable","type":"function"},{"inputs":[{"internalType":"uint256","name":"tokenId","type":"uint256"},{"internalType":"uint256","name":"mergeTokenId","type":"uint256"},{"internalType":"uint256","name":"deadline","type":"uint256"}],"name":"withdrawAndMerge","outputs":[],"stateMutability":"nonpayable","type":"function"}],"evm":{"bytecode":{"linkReferences":{},"object":"6102006040523480156200001257600080fd5b5060405162002f5238038062002f52833981016040819052620000359162000205565b6001600160a01b0380871660805260ff808d1660a05260c08c90528a1660e052610100899052610120889052600080546001600160a01b0319163317905584811690861610620000875783856200008a565b84845b6001600160a01b039081166101c0529081166101a05262ffffff84166101e052821661018052600281900b61016052620000c481620002df565b60020b610140526101a05160405163095ea7b360e01b81526001600160a01b03848116600483015260001960248301529091169063095ea7b3906044016020604051808303816000875af115801562000121573d6000803e3d6000fd5b505050506040513d601f19601f8201168201806040525081019062000147919062000310565b506101c05160405163095ea7b360e01b81526001600160a01b03848116600483015260001960248301529091169063095ea7b3906044016020604051808303816000875af11580156200019e573d6000803e3d6000fd5b505050506040513d601f19601f82011682018060405250810190620001c4919062000310565b5050505050505050505050506200033b565b805160ff81168114620001e857600080fd5b919050565b80516001600160a01b0381168114620001e857600080fd5b60008060008060008060008060008060006101608c8e0312156200022857600080fd5b620002338c620001d6565b9a5060208c015199506200024a60408d01620001d6565b985060608c0151975060808c015196506200026860a08d01620001ed565b95506200027860c08d01620001ed565b94506200028860e08d01620001ed565b93506101008c015162ffffff81168114620002a257600080fd5b9250620002b36101208d01620001ed565b91506101408c01518060020b8114620002cb57600080fd5b809150509295989b509295989b9093969950565b60008160020b627fffff1981036200030757634e487b7160e01b600052601160045260246000fd5b60000392915050565b6000602082840312156200032357600080fd5b815180151581146200033457600080fd5b9392505050565b60805160a05160c05160e05161010051610120516101405161016051610180516101a0516101c0516101e051612aba62000498600039600081816105910152611ee601526000818161056a015281816110870152611ea30152600081816102b6015281816110510152611e6701526000818161054301528181610ae201528181610c6e01528181610cf401528181610e5e01528181610ed001528181610fe80152818161131101528181611dc50152818161224b015261231c0152600081816104640152611f7a0152600081816104b10152611f4a0152600081816103e401526118520152600081816104fe015261187d01526000818161027d0152818161069301528181610857015281816114860152611b5501526000818161060501526117640152600081816105b8015281816117000152818161172b01526117f201526000818161062c0152818161158f015261165c0152612aba6000f3fe608060405234801561001057600080fd5b50600436106102065760003560e01c80638da5cb5b1161011a578063ddca3f43116100ad578063f6def7cf1161007c578063f6def7cf14610600578063f7c618c114610627578063f99b7d751461064e578063fa60c77c14610661578063fdc5ab8e1461067457600080fd5b8063ddca3f431461058c578063e11400bb146105b3578063e1c05d93146105da578063ee3453ed146105ed57600080fd5b8063c75363b6116100e9578063c75363b6146104f9578063cd671a5814610520578063d06fcba81461053e578063d21220a71461056557600080fd5b80638da5cb5b14610499578063a1634b14146104ac578063ae169a50146104d3578063bb57852d146104e657600080fd5b80631a906d651161019d578063441a3e701161016c578063441a3e70146104065780634fb2e45d146104195780635b680a451461042c5780635f8e422f146104575780636882a8881461045f57600080fd5b80631a906d65146103b0578063291c73c3146103c357806329ed1cfd146103d657806337ba682d146103df57600080fd5b80630dfe1681116101d95780630dfe1681146102b157806310c6c1c2146102f0578063150b7a0214610359578063157775df1461039057600080fd5b806302e9e4951461020b57806307c6e2fa146102355780630bce12841461024a5780630d437d4014610278575b600080fd5b61021e61021936600461239f565b61068a565b60405161022c9291906123f7565b60405180910390f35b6102486102433660046124df565b610895565b005b61026a61025836600461254c565b60056020526000908152604090205481565b60405190815260200161022c565b61029f7f000000000000000000000000000000000000000000000000000000000000000081565b60405160ff909116815260200161022c565b6102d87f000000000000000000000000000000000000000000000000000000000000000081565b6040516001600160a01b03909116815260200161022c565b61032f6102fe36600461254c565b60076020526000908152604090208054600182015460028301546003909301546001600160a01b0390921692909184565b604080516001600160a01b039095168552602085019390935291830152606082015260800161022c565b610377610367366004612565565b630a85bd0160e11b949350505050565b6040516001600160e01b0319909116815260200161022c565b61026a61039e36600461254c565b60046020526000908152604090205481565b6102486103be366004612629565b6109de565b61026a6103d1366004612655565b61112c565b61026a60065481565b61026a7f000000000000000000000000000000000000000000000000000000000000000081565b610248610414366004612681565b61115d565b61024861042736600461239f565b6113c2565b61026a61043a366004612655565b600260209081526000928352604080842090915290825290205481565b61024861140e565b6104867f000000000000000000000000000000000000000000000000000000000000000081565b60405160029190910b815260200161022c565b6000546102d8906001600160a01b031681565b6104867f000000000000000000000000000000000000000000000000000000000000000081565b6102486104e136600461254c565b61145f565b61026a6104f4366004612655565b6115e7565b61026a7f000000000000000000000000000000000000000000000000000000000000000081565b61052a62093a8081565b60405162ffffff909116815260200161022c565b6102d87f000000000000000000000000000000000000000000000000000000000000000081565b6102d87f000000000000000000000000000000000000000000000000000000000000000081565b61052a7f000000000000000000000000000000000000000000000000000000000000000081565b61029f7f000000000000000000000000000000000000000000000000000000000000000081565b6102486105e8366004612629565b61160c565b61026a6105fb3660046126b9565b6116f7565b61026a7f000000000000000000000000000000000000000000000000000000000000000081565b6102d87f000000000000000000000000000000000000000000000000000000000000000081565b61024861065c3660046126e5565b6117c1565b61026a61066f36600461239f565b611b4e565b61067c611c59565b60405161022c92919061271a565b600060608160ff7f0000000000000000000000000000000000000000000000000000000000000000166106c062093a8042612752565b6106ca9190612774565b6106d590600161278d565b6001600160a01b038516600090815260036020526040902090915081906001015411610714576040805160008152602081019091529094909350915050565b6001600160a01b0384166000908152600360205260408120805460019091015490918383116107435783610745565b825b905060006107538284612774565b67ffffffffffffffff81111561076b5761076b612418565b604051908082528060200260200182016040528015610794578160200160208202803683370190505b509050815b8381101561083f5760008181526004602052604090205415610804576000818152600460209081526040808320546001600160a01b038d1684526002835281842085855283528184205460059093529220546107f591906127b6565b6107ff9190612752565b610807565b60005b826108128584612774565b81518110610822576108226127a0565b602090810291909101015280610837816127cd565b915050610799565b50600061084f62093a8042612752565b61087c8460ff7f00000000000000000000000000000000000000000000000000000000000000001661278d565b6108869190612774565b99919850909650505050505050565b80804211156108bf5760405162461bcd60e51b81526004016108b6906127e6565b60405180910390fd5b6000546001600160a01b031633146108e95760405162461bcd60e51b81526004016108b69061280d565b825184511461092d5760405162461bcd60e51b815260206004820152601060248201526f3830b930b6b2ba32b9399032b93937b960811b60448201526064016108b6565b6000805b85518110156109d45784818151811061094c5761094c6127a0565b60200260200101516005600088848151811061096a5761096a6127a0565b602002602001015181526020019081526020016000208190555081868281518110610997576109976127a0565b602002602001015111156109c2578581815181106109b7576109b76127a0565b602002602001015191505b806109cc816127cd565b915050610931565b5060065550505050565b80804211156109ff5760405162461bcd60e51b81526004016108b6906127e6565b6000848152600760205260409020546001600160a01b03163314610a575760405162461bcd60e51b815260206004820152600f60248201526e37bbb732b9103337b93134b23232b760891b60448201526064016108b6565b6000610a6662093a8042612752565b600086815260076020526040902060030154909150811015610ab85760405162461bcd60e51b815260206004820152600b60248201526a6c6f636b65642074696d6560a81b60448201526064016108b6565b610ac184611db8565b506040516331a9108f60e11b81526004810185905233906001600160a01b037f00000000000000000000000000000000000000000000000000000000000000001690636352211e90602401602060405180830381865afa158015610b29573d6000803e3d6000fd5b505050506040513d601f19601f82011682018060405250810190610b4d919061283b565b6001600160a01b031614610b8f5760405162461bcd60e51b8152602060048201526009602482015268369037bbb732b9103360b91b60448201526064016108b6565b336000908152600860205260408120905b8154811015610c5457818181548110610bbb57610bbb6127a0565b90600052602060002001548703610c425781548290610bdc90600190612774565b81548110610bec57610bec6127a0565b9060005260206000200154828281548110610c0957610c096127a0565b906000526020600020018190555081805480610c2757610c27612858565b60019003818190600052602060002001600090559055610c54565b80610c4c816127cd565b915050610ba0565b5060405163133f757160e31b8152600481018790526000907f00000000000000000000000000000000000000000000000000000000000000006001600160a01b0316906399fbab889060240161018060405180830381865afa158015610cbe573d6000803e3d6000fd5b505050506040513d601f19601f82011682018060405250810190610ce291906128aa565b505050509750505050505050506000807f00000000000000000000000000000000000000000000000000000000000000006001600160a01b0316630c49ccbe6040518060a001604052808c8152602001866001600160801b0316815260200160008152602001600081526020018a8152506040518263ffffffff1660e01b8152600401610dad9190600060a082019050825182526001600160801b03602084015116602083015260408301516040830152606083015160608301526080830151608083015292915050565b60408051808303816000875af1158015610dcb573d6000803e3d6000fd5b505050506040513d601f19601f82011682018060405250810190610def919061298b565b604080516080810182528c815230602082019081526001600160801b0382840181815260608401828152945163fc6f786560e01b81529351600485015291516001600160a01b0390811660248501529151811660448401529251909216606482015292945090925060009182917f0000000000000000000000000000000000000000000000000000000000000000169063fc6f78659060840160408051808303816000875af1158015610ea6573d6000803e3d6000fd5b505050506040513d601f19601f82011682018060405250810190610eca919061298b565b915091507f00000000000000000000000000000000000000000000000000000000000000006001600160a01b031663219f5d176040518060c001604052808d815260200187815260200186815260200160008152602001600081526020018c8152506040518263ffffffff1660e01b8152600401610f879190600060c082019050825182526020830151602083015260408301516040830152606083015160608301526080830151608083015260a083015160a083015292915050565b6060604051808303816000875af1158015610fa6573d6000803e3d6000fd5b505050506040513d601f19601f82011682018060405250810190610fca91906129af565b604051630852cd8d60e31b8152600481018f905292975090955093507f00000000000000000000000000000000000000000000000000000000000000006001600160a01b0316906342966c6890602401600060405180830381600087803b15801561103457600080fd5b505af1158015611048573d6000803e3d6000fd5b505050506110827f000000000000000000000000000000000000000000000000000000000000000033868561107d9190612774565b611ff5565b6110b17f00000000000000000000000000000000000000000000000000000000000000003361107d8685612774565b337f9292b1de86834b12fcdc5d8fc52cca04b266ebc75a61d49888ec43218a7e6029868d8d6110e08988612774565b6110ea8988612774565b604080516001600160801b0390961686526020860194909452928401919091526060830152608082015260a00160405180910390a25050505050505050505050565b6008602052816000526040600020818154811061114857600080fd5b90600052602060002001600091509150505481565b808042111561117e5760405162461bcd60e51b81526004016108b6906127e6565b6000838152600760205260409020546001600160a01b031633146111d65760405162461bcd60e51b815260206004820152600f60248201526e37bbb732b9103337b93134b23232b760891b60448201526064016108b6565b60006111e562093a8042612752565b6000858152600760205260409020600301549091508110156112375760405162461bcd60e51b815260206004820152600b60248201526a6c6f636b65642074696d6560a81b60448201526064016108b6565b336000908152600860205260408120905b815481101561138457818181548110611263576112636127a0565b90600052602060002001548603611372578154829061128490600190612774565b81548110611294576112946127a0565b90600052602060002001548282815481106112b1576112b16127a0565b9060005260206000200181905550818054806112cf576112cf612858565b600082815260208120820160001990810191909155019055604051632142170760e11b8152306004820152336024820152604481018790526001600160a01b037f000000000000000000000000000000000000000000000000000000000000000016906342842e0e90606401600060405180830381600087803b15801561135557600080fd5b505af1158015611369573d6000803e3d6000fd5b50505050611384565b8061137c816127cd565b915050611248565b5060405185815233907f884edad9ce6fa2440d8a54cc123490eb96d2768479d49ff9c7366125a9424364906020015b60405180910390a25050505050565b6000546001600160a01b031633146113ec5760405162461bcd60e51b81526004016108b69061280d565b600180546001600160a01b0319166001600160a01b0392909216919091179055565b6001546001600160a01b031633146114385760405162461bcd60e51b81526004016108b69061280d565b60018054600080546001600160a01b03199081166001600160a01b03841617909155169055565b80804211156114805760405162461bcd60e51b81526004016108b6906127e6565b600060ff7f0000000000000000000000000000000000000000000000000000000000000000166114b362093a8042612752565b6114bd9190612774565b3360009081526003602052604081205491925090805b3360009081526003602052604090206001015481101561157657838111611576576114ff81600161278d565b600082815260046020526040902054909250156115645760008181526004602090815260408083205433845260028352818420858552835281842054600590935292205461154d91906127b6565b6115579190612752565b611561908461278d565b92505b8061156e816127cd565b9150506114d3565b50336000908152600360205260408120829101556115b57f00000000000000000000000000000000000000000000000000000000000000003384611ff5565b60405182815233907fba8de60c3403ec381d1d484652ea1980e3c3e56359195c92525bff4ce47ad98e906020016113b3565b6003602052816000526040600020816002811061160357600080fd5b01549150829050565b808042111561162d5760405162461bcd60e51b81526004016108b6906127e6565b6000546001600160a01b031633146116575760405162461bcd60e51b81526004016108b69061280d565b6116837f0000000000000000000000000000000000000000000000000000000000000000333086612102565b600084815260056020526040812080548592906116a190849061278d565b90915550506006548411156116b65760068490555b604080518581526020810185905233917fc3991418cacd70a010fce559a44fcbb47534ca43bf7543964bdca2639f6e6e5a910160405180910390a250505050565b600061172460017f00000000000000000000000000000000000000000000000000000000000000006129e4565b60ff1660017f000000000000000000000000000000000000000000000000000000000000000060ff1660018561175a91906129e4565b60ff1661178860017f0000000000000000000000000000000000000000000000000000000000000000612774565b61179291906127b6565b61179c919061278d565b6117a69190612774565b6117b090856127b6565b6117ba9190612752565b9392505050565b80804211156117e25760405162461bcd60e51b81526004016108b6906127e6565b60008360ff1611801561181b57507f000000000000000000000000000000000000000000000000000000000000000060ff168360ff1611155b6118505760405162461bcd60e51b8152602060048201526006602482015265359018bf1a9960d11b60448201526064016108b6565b7f000000000000000000000000000000000000000000000000000000000000000042111580156118a057507f00000000000000000000000000000000000000000000000000000000000000004210155b6118e05760405162461bcd60e51b81526020600482015260116024820152701b9bdd081a5b881d1a19481c195c9a5bd9607a1b60448201526064016108b6565b60006118ef62093a8042612752565b6118fa90600161278d565b905060006119078661221c565b9050600061191582876116f7565b905060005b8660ff168160ff1610156119af57816004600061193a60ff85168861278d565b81526020019081526020016000206000828254611957919061278d565b9091555050336000908152600260205260408120839161197a60ff85168861278d565b81526020019081526020016000206000828254611997919061278d565b909155508190506119a7816129fd565b91505061191a565b5060006119bf60ff88168561278d565b90506040518060800160405280336001600160a01b0316815260200183815260200185815260200182815250600760008a815260200190815260200160002060008201518160000160006101000a8154816001600160a01b0302191690836001600160a01b0316021790555060208201518160010155604082015181600201556060820151816003015590505060036000336001600160a01b03166001600160a01b03168152602001908152602001600020600160028110611a8357611a836127a0565b01543360009081526003602052604090205403611aad573360009081526003602052604090208490555b3360009081526003602052604090208190600101541015611ade573360009081526003602052604090208190600101555b3360008181526008602090815260408083208054600181018255908452928290209092018b905581518b815290810186905260ff8a168183015290517f6fa2f6021ee337436cdf2b2570285886da18bc06402ce284d296504a0fe8f8759181900360600190a25050505050505050565b60008060ff7f000000000000000000000000000000000000000000000000000000000000000016611b8262093a8042612752565b611b8c9190612774565b6001600160a01b038416600090815260036020526040812054919250905b6001600160a01b038516600090815260036020526040902060010154811015611c5157828111611c515760008181526004602052604090205415611c3f576000818152600460209081526040808320546001600160a01b0389168452600283528184208585528352818420546005909352922054611c2891906127b6565b611c329190612752565b611c3c908361278d565b91505b80611c49816127cd565b915050611baa565b509392505050565b3360009081526008602052604081205460609190819067ffffffffffffffff811115611c8757611c87612418565b604051908082528060200260200182016040528015611cb0578160200160208202803683370190505b5090506000611cc262093a8042612752565b3360009081526008602052604081205491925090815b33600090815260086020526040902054811015611dab57336000908152600860205260408120805483908110611d1057611d106127a0565b906000526020600020015490508460076000838152602001908152602001600020600301541115611d6b5780868581518110611d4e57611d4e6127a0565b602090810291909101015283611d63816127cd565b945050611d98565b82611d7581612a1c565b93505080868481518110611d8b57611d8b6127a0565b6020026020010181815250505b5080611da3816127cd565b915050611cd8565b5092959294509192505050565b60008060008060008060007f00000000000000000000000000000000000000000000000000000000000000006001600160a01b03166399fbab88896040518263ffffffff1660e01b8152600401611e1191815260200190565b61018060405180830381865afa158015611e2f573d6000803e3d6000fd5b505050506040513d601f19601f82011682018060405250810190611e5391906128aa565b5050505097509750975097509750975050507f00000000000000000000000000000000000000000000000000000000000000006001600160a01b0316866001600160a01b0316148015611ed757507f00000000000000000000000000000000000000000000000000000000000000006001600160a01b0316856001600160a01b0316145b8015611f0c57508362ffffff167f000000000000000000000000000000000000000000000000000000000000000062ffffff16145b611f485760405162461bcd60e51b815260206004820152600d60248201526c3638103830b4b91032b93937b960991b60448201526064016108b6565b7f000000000000000000000000000000000000000000000000000000000000000060020b8360020b148015611fa257507f000000000000000000000000000000000000000000000000000000000000000060020b8260020b145b611fe15760405162461bcd60e51b815260206004820152601060248201526f3a34b1b5903930b733b29032b93937b960811b60448201526064016108b6565b6001600160801b0316979650505050505050565b604080516001600160a01b038481166024830152604480830185905283518084039091018152606490920183526020820180516001600160e01b031663a9059cbb60e01b17905291516000928392908716916120519190612a33565b6000604051808303816000865af19150503d806000811461208e576040519150601f19603f3d011682016040523d82523d6000602084013e612093565b606091505b50915091508180156120bd5750805115806120bd5750808060200190518101906120bd9190612a62565b6120fb5760405162461bcd60e51b815260206004820152600f60248201526e1514905394d1915497d19052531151608a1b60448201526064016108b6565b5050505050565b604080516001600160a01b0385811660248301528481166044830152606480830185905283518084039091018152608490920183526020820180516001600160e01b03166323b872dd60e01b17905291516000928392908816916121669190612a33565b6000604051808303816000865af19150503d80600081146121a3576040519150601f19603f3d011682016040523d82523d6000602084013e6121a8565b606091505b50915091508180156121d25750805115806121d25750808060200190518101906121d29190612a62565b6122145760405162461bcd60e51b81526020600482015260136024820152721d1c985b9cd9995c919c9bdb4819985a5b1959606a1b60448201526064016108b6565b505050505050565b60008061222883611db8565b60405163020604bf60e21b81526004810185905290915030906001600160a01b037f0000000000000000000000000000000000000000000000000000000000000000169063081812fc90602401602060405180830381865afa158015612292573d6000803e3d6000fd5b505050506040513d601f19601f820116820180604052508101906122b6919061283b565b6001600160a01b0316146122fa5760405162461bcd60e51b815260206004820152600b60248201526a6e6f7420617070726f766560a81b60448201526064016108b6565b604051632142170760e11b8152336004820152306024820152604481018490527f00000000000000000000000000000000000000000000000000000000000000006001600160a01b0316906342842e0e90606401600060405180830381600087803b15801561236857600080fd5b505af115801561237c573d6000803e3d6000fd5b509295945050505050565b6001600160a01b038116811461239c57600080fd5b50565b6000602082840312156123b157600080fd5b81356117ba81612387565b600081518084526020808501945080840160005b838110156123ec578151875295820195908201906001016123d0565b509495945050505050565b82815260406020820152600061241060408301846123bc565b949350505050565b634e487b7160e01b600052604160045260246000fd5b604051601f8201601f1916810167ffffffffffffffff8111828210171561245757612457612418565b604052919050565b600082601f83011261247057600080fd5b8135602067ffffffffffffffff82111561248c5761248c612418565b8160051b61249b82820161242e565b92835284810182019282810190878511156124b557600080fd5b83870192505b848310156124d4578235825291830191908301906124bb565b979650505050505050565b6000806000606084860312156124f457600080fd5b833567ffffffffffffffff8082111561250c57600080fd5b6125188783880161245f565b9450602086013591508082111561252e57600080fd5b5061253b8682870161245f565b925050604084013590509250925092565b60006020828403121561255e57600080fd5b5035919050565b6000806000806080858703121561257b57600080fd5b843561258681612387565b935060208581013561259781612387565b935060408601359250606086013567ffffffffffffffff808211156125bb57600080fd5b818801915088601f8301126125cf57600080fd5b8135818111156125e1576125e1612418565b6125f3601f8201601f1916850161242e565b9150808252898482850101111561260957600080fd5b808484018584013760008482840101525080935050505092959194509250565b60008060006060848603121561263e57600080fd5b505081359360208301359350604090920135919050565b6000806040838503121561266857600080fd5b823561267381612387565b946020939093013593505050565b6000806040838503121561269457600080fd5b50508035926020909101359150565b803560ff811681146126b457600080fd5b919050565b600080604083850312156126cc57600080fd5b823591506126dc602084016126a3565b90509250929050565b6000806000606084860312156126fa57600080fd5b8335925061270a602085016126a3565b9150604084013590509250925092565b60408152600061272d60408301856123bc565b90508260208301529392505050565b634e487b7160e01b600052601160045260246000fd5b60008261276f57634e487b7160e01b600052601260045260246000fd5b500490565b818103818111156127875761278761273c565b92915050565b808201808211156127875761278761273c565b634e487b7160e01b600052603260045260246000fd5b80820281158282048414176127875761278761273c565b6000600182016127df576127df61273c565b5060010190565b6020808252600d908201526c6f76657220646561646c696e6560981b604082015260600190565b6020808252600990820152683337b93134b23232b760b91b604082015260600190565b80516126b481612387565b60006020828403121561284d57600080fd5b81516117ba81612387565b634e487b7160e01b600052603160045260246000fd5b805162ffffff811681146126b457600080fd5b8051600281900b81146126b457600080fd5b80516001600160801b03811681146126b457600080fd5b6000806000806000806000806000806000806101808d8f0312156128cd57600080fd5b8c516bffffffffffffffffffffffff811681146128e957600080fd5b9b506128f760208e01612830565b9a5061290560408e01612830565b995061291360608e01612830565b985061292160808e0161286e565b975061292f60a08e01612881565b965061293d60c08e01612881565b955061294b60e08e01612893565b94506101008d015193506101208d0151925061296a6101408e01612893565b91506129796101608e01612893565b90509295989b509295989b509295989b565b6000806040838503121561299e57600080fd5b505080516020909101519092909150565b6000806000606084860312156129c457600080fd5b6129cd84612893565b925060208401519150604084015190509250925092565b60ff82811682821603908111156127875761278761273c565b600060ff821660ff8103612a1357612a1361273c565b60010192915050565b600081612a2b57612a2b61273c565b506000190190565b6000825160005b81811015612a545760208186018101518583015201612a3a565b506000920191825250919050565b600060208284031215612a7457600080fd5b815180151581146117ba57600080fdfea264697066735822122085c8af52c0bb653d2e774945b6be4be8f0a3f596192a37a3482428d4c479a2c564736f6c63430008110033","opcodes":"PUSH2 0x200 PUSH1 0x40 MSTORE CALLVALUE DUP1 ISZERO PUSH3 0x12 JUMPI PUSH1 0x0 DUP1 REVERT JUMPDEST POP PUSH1 0x40 MLOAD PUSH3 0x2F52 CODESIZE SUB DUP1 PUSH3 0x2F52 DUP4 CODECOPY DUP2 ADD PUSH1 0x40 DUP2 SWAP1 MSTORE PUSH3 0x35 SWAP2 PUSH3 0x205 JUMP JUMPDEST PUSH1 0x1 PUSH1 0x1 PUSH1 0xA0 SHL SUB DUP1 DUP8 AND PUSH1 0x80 MSTORE PUSH1 0xFF DUP1 DUP14 AND PUSH1 0xA0 MSTORE PUSH1 0xC0 DUP13 SWAP1 MSTORE DUP11 AND PUSH1 0xE0 MSTORE PUSH2 0x100 DUP10 SWAP1 MSTORE PUSH2 0x120 DUP9 SWAP1 MSTORE PUSH1 0x0 DUP1 SLOAD PUSH1 0x1 PUSH1 0x1 PUSH1 0xA0 SHL SUB NOT AND CALLER OR SWAP1 SSTORE DUP5 DUP2 AND SWAP1 DUP7 AND LT PUSH3 0x87 JUMPI DUP4 DUP6 PUSH3 0x8A JUMP JUMPDEST DUP5 DUP5 JUMPDEST PUSH1 0x1 PUSH1 0x1 PUSH1 0xA0 SHL SUB SWAP1 DUP2 AND PUSH2 0x1C0 MSTORE SWAP1 DUP2 AND PUSH2 0x1A0 MSTORE PUSH3 0xFFFFFF DUP5 AND PUSH2 0x1E0 MSTORE DUP3 AND PUSH2 0x180 MSTORE PUSH1 0x2 DUP2 SWAP1 SIGNEXTEND PUSH2 0x160 MSTORE PUSH3 0xC4 DUP2 PUSH3 0x2DF JUMP JUMPDEST PUSH1 0x2 SIGNEXTEND PUSH2 0x140 MSTORE PUSH2 0x1A0 MLOAD PUSH1 0x40 MLOAD PUSH4 0x95EA7B3 PUSH1 0xE0 SHL DUP2 MSTORE PUSH1 0x1 PUSH1 0x1 PUSH1 0xA0 SHL SUB DUP5 DUP2 AND PUSH1 0x4 DUP4 ADD MSTORE PUSH1 0x0 NOT PUSH1 0x24 DUP4 ADD MSTORE SWAP1 SWAP2 AND SWAP1 PUSH4 0x95EA7B3 SWAP1 PUSH1 0x44 ADD PUSH1 0x20 PUSH1 0x40 MLOAD DUP1 DUP4 SUB DUP2 PUSH1 0x0 DUP8 GAS CALL ISZERO DUP1 ISZERO PUSH3 0x121 JUMPI RETURNDATASIZE PUSH1 0x0 DUP1 RETURNDATACOPY RETURNDATASIZE PUSH1 0x0 REVERT JUMPDEST POP POP POP POP PUSH1 0x40 MLOAD RETURNDATASIZE PUSH1 0x1F NOT PUSH1 0x1F DUP3 ADD AND DUP3 ADD DUP1 PUSH1 0x40 MSTORE POP DUP2 ADD SWAP1 PUSH3 0x147 SWAP2 SWAP1 PUSH3 0x310 JUMP JUMPDEST POP PUSH2 0x1C0 MLOAD PUSH1 0x40 MLOAD PUSH4 0x95EA7B3 PUSH1 0xE0 SHL DUP2 MSTORE PUSH1 0x1 PUSH1 0x1 PUSH1 0xA0 SHL SUB DUP5 DUP2 AND PUSH1 0x4 DUP4 ADD MSTORE PUSH1 0x0 NOT PUSH1 0x24 DUP4 ADD MSTORE SWAP1 SWAP2 AND SWAP1 PUSH4 0x95EA7B3 SWAP1 PUSH1 0x44 ADD PUSH1 0x20 PUSH1 0x40 MLOAD DUP1 DUP4 SUB DUP2 PUSH1 0x0 DUP8 GAS CALL ISZERO DUP1 ISZERO PUSH3 0x19E JUMPI RETURNDATASIZE PUSH1 0x0 DUP1 RETURNDATACOPY RETURNDATASIZE PUSH1 0x0 REVERT JUMPDEST POP POP POP POP PUSH1 0x40 MLOAD RETURNDATASIZE PUSH1 0x1F NOT PUSH1 0x1F DUP3 ADD AND DUP3 ADD DUP1 PUSH1 0x40 MSTORE POP DUP2 ADD SWAP1 PUSH3 0x1C4 SWAP2 SWAP1 PUSH3 0x310 JUMP JUMPDEST POP POP POP POP POP POP POP POP POP POP POP POP PUSH3 0x33B JUMP JUMPDEST DUP1 MLOAD PUSH1 0xFF DUP2 AND DUP2 EQ PUSH3 0x1E8 JUMPI PUSH1 0x0 DUP1 REVERT JUMPDEST SWAP2 SWAP1 POP JUMP JUMPDEST DUP1 MLOAD PUSH1 0x1 PUSH1 0x1 PUSH1 0xA0 SHL SUB DUP2 AND DUP2 EQ PUSH3 0x1E8 JUMPI PUSH1 0x0 DUP1 REVERT JUMPDEST PUSH1 0x0 DUP1 PUSH1 0x0 DUP1 PUSH1 0x0 DUP1 PUSH1 0x0 DUP1 PUSH1 0x0 DUP1 PUSH1 0x0 PUSH2 0x160 DUP13 DUP15 SUB SLT ISZERO PUSH3 0x228 JUMPI PUSH1 0x0 DUP1 REVERT JUMPDEST PUSH3 0x233 DUP13 PUSH3 0x1D6 JUMP JUMPDEST SWAP11 POP PUSH1 0x20 DUP13 ADD MLOAD SWAP10 POP PUSH3 0x24A PUSH1 0x40 DUP14 ADD PUSH3 0x1D6 JUMP JUMPDEST SWAP9 POP PUSH1 0x60 DUP13 ADD MLOAD SWAP8 POP PUSH1 0x80 DUP13 ADD MLOAD SWAP7 POP PUSH3 0x268 PUSH1 0xA0 DUP14 ADD PUSH3 0x1ED JUMP JUMPDEST SWAP6 POP PUSH3 0x278 PUSH1 0xC0 DUP14 ADD PUSH3 0x1ED JUMP JUMPDEST SWAP5 POP PUSH3 0x288 PUSH1 0xE0 DUP14 ADD PUSH3 0x1ED JUMP JUMPDEST SWAP4 POP PUSH2 0x100 DUP13 ADD MLOAD PUSH3 0xFFFFFF DUP2 AND DUP2 EQ PUSH3 0x2A2 JUMPI PUSH1 0x0 DUP1 REVERT JUMPDEST SWAP3 POP PUSH3 0x2B3 PUSH2 0x120 DUP14 ADD PUSH3 0x1ED JUMP JUMPDEST SWAP2 POP PUSH2 0x140 DUP13 ADD MLOAD DUP1 PUSH1 0x2 SIGNEXTEND DUP2 EQ PUSH3 0x2CB JUMPI PUSH1 0x0 DUP1 REVERT JUMPDEST DUP1 SWAP2 POP POP SWAP3 SWAP6 SWAP9 SWAP12 POP SWAP3 SWAP6 SWAP9 SWAP12 SWAP1 SWAP4 SWAP7 SWAP10 POP JUMP JUMPDEST PUSH1 0x0 DUP2 PUSH1 0x2 SIGNEXTEND PUSH3 0x7FFFFF NOT DUP2 SUB PUSH3 0x307 JUMPI PUSH4 0x4E487B71 PUSH1 0xE0 SHL PUSH1 0x0 MSTORE PUSH1 0x11 PUSH1 0x4 MSTORE PUSH1 0x24 PUSH1 0x0 REVERT JUMPDEST PUSH1 0x0 SUB SWAP3 SWAP2 POP POP JUMP JUMPDEST PUSH1 0x0 PUSH1 0x20 DUP3 DUP5 SUB SLT ISZERO PUSH3 0x323 JUMPI PUSH1 0x0 DUP1 REVERT JUMPDEST DUP2 MLOAD DUP1 ISZERO ISZERO DUP2 EQ PUSH3 0x334 JUMPI PUSH1 0x0 DUP1 REVERT JUMPDEST SWAP4 SWAP3 POP POP POP JUMP JUMPDEST PUSH1 0x80 MLOAD PUSH1 0xA0 MLOAD PUSH1 0xC0 MLOAD PUSH1 0xE0 MLOAD PUSH2 0x100 MLOAD PUSH2 0x120 MLOAD PUSH2 0x140 MLOAD PUSH2 0x160 MLOAD PUSH2 0x180 MLOAD PUSH2 0x1A0 MLOAD PUSH2 0x1C0 MLOAD PUSH2 0x1E0 MLOAD PUSH2 0x2ABA PUSH3 0x498 PUSH1 0x0 CODECOPY PUSH1 0x0 DUP2 DUP2 PUSH2 0x591 ADD MSTORE PUSH2 0x1EE6 ADD MSTORE PUSH1 0x0 DUP2 DUP2 PUSH2 0x56A ADD MSTORE DUP2 DUP2 PUSH2 0x1087 ADD MSTORE PUSH2 0x1EA3 ADD MSTORE PUSH1 0x0 DUP2 DUP2 PUSH2 0x2B6 ADD MSTORE DUP2 DUP2 PUSH2 0x1051 ADD MSTORE PUSH2 0x1E67 ADD MSTORE PUSH1 0x0 DUP2 DUP2 PUSH2 0x543 ADD MSTORE DUP2 DUP2 PUSH2 0xAE2 ADD MSTORE DUP2 DUP2 PUSH2 0xC6E ADD MSTORE DUP2 DUP2 PUSH2 0xCF4 ADD MSTORE DUP2 DUP2 PUSH2 0xE5E ADD MSTORE DUP2 DUP2 PUSH2 0xED0 ADD MSTORE DUP2 DUP2 PUSH2 0xFE8 ADD MSTORE DUP2 DUP2 PUSH2 0x1311 ADD MSTORE DUP2 DUP2 PUSH2 0x1DC5 ADD MSTORE DUP2 DUP2 PUSH2 0x224B ADD MSTORE PUSH2 0x231C ADD MSTORE PUSH1 0x0 DUP2 DUP2 PUSH2 0x464 ADD MSTORE PUSH2 0x1F7A ADD MSTORE PUSH1 0x0 DUP2 DUP2 PUSH2 0x4B1 ADD MSTORE PUSH2 0x1F4A ADD MSTORE PUSH1 0x0 DUP2 DUP2 PUSH2 0x3E4 ADD MSTORE PUSH2 0x1852 ADD MSTORE PUSH1 0x0 DUP2 DUP2 PUSH2 0x4FE ADD MSTORE PUSH2 0x187D ADD MSTORE PUSH1 0x0 DUP2 DUP2 PUSH2 0x27D ADD MSTORE DUP2 DUP2 PUSH2 0x693 ADD MSTORE DUP2 DUP2 PUSH2 0x857 ADD MSTORE DUP2 DUP2 PUSH2 0x1486 ADD MSTORE PUSH2 0x1B55 ADD MSTORE PUSH1 0x0 DUP2 DUP2 PUSH2 0x605 ADD MSTORE PUSH2 0x1764 ADD MSTORE PUSH1 0x0 DUP2 DUP2 PUSH2 0x5B8 ADD MSTORE DUP2 DUP2 PUSH2 0x1700 ADD MSTORE DUP2 DUP2 PUSH2 0x172B ADD MSTORE PUSH2 0x17F2 ADD MSTORE PUSH1 0x0 DUP2 DUP2 PUSH2 0x62C ADD MSTORE DUP2 DUP2 PUSH2 0x158F ADD MSTORE PUSH2 0x165C ADD MSTORE PUSH2 0x2ABA PUSH1 0x0 RETURN INVALID PUSH1 0x80 PUSH1 0x40 MSTORE CALLVALUE DUP1 ISZERO PUSH2 0x10 JUMPI PUSH1 0x0 DUP1 REVERT JUMPDEST POP PUSH1 0x4 CALLDATASIZE LT PUSH2 0x206 JUMPI PUSH1 0x0 CALLDATALOAD PUSH1 0xE0 SHR DUP1 PUSH4 0x8DA5CB5B GT PUSH2 0x11A JUMPI DUP1 PUSH4 0xDDCA3F43 GT PUSH2 0xAD JUMPI DUP1 PUSH4 0xF6DEF7CF GT PUSH2 0x7C JUMPI DUP1 PUSH4 0xF6DEF7CF EQ PUSH2 0x600 JUMPI DUP1 PUSH4 0xF7C618C1 EQ PUSH2 0x627 JUMPI DUP1 PUSH4 0xF99B7D75 EQ PUSH2 0x64E JUMPI DUP1 PUSH4 0xFA60C77C EQ PUSH2 0x661 JUMPI DUP1 PUSH4 0xFDC5AB8E EQ PUSH2 0x674 JUMPI PUSH1 0x0 DUP1 REVERT JUMPDEST DUP1 PUSH4 0xDDCA3F43 EQ PUSH2 0x58C JUMPI DUP1 PUSH4 0xE11400BB EQ PUSH2 0x5B3 JUMPI DUP1 PUSH4 0xE1C05D93 EQ PUSH2 0x5DA JUMPI DUP1 PUSH4 0xEE3453ED EQ PUSH2 0x5ED JUMPI PUSH1 0x0 DUP1 REVERT JUMPDEST DUP1 PUSH4 0xC75363B6 GT PUSH2 0xE9 JUMPI DUP1 PUSH4 0xC75363B6 EQ PUSH2 0x4F9 JUMPI DUP1 PUSH4 0xCD671A58 EQ PUSH2 0x520 JUMPI DUP1 PUSH4 0xD06FCBA8 EQ PUSH2 0x53E JUMPI DUP1 PUSH4 0xD21220A7 EQ PUSH2 0x565 JUMPI PUSH1 0x0 DUP1 REVERT JUMPDEST DUP1 PUSH4 0x8DA5CB5B EQ PUSH2 0x499 JUMPI DUP1 PUSH4 0xA1634B14 EQ PUSH2 0x4AC JUMPI DUP1 PUSH4 0xAE169A50 EQ PUSH2 0x4D3 JUMPI DUP1 PUSH4 0xBB57852D EQ PUSH2 0x4E6 JUMPI PUSH1 0x0 DUP1 REVERT JUMPDEST DUP1 PUSH4 0x1A906D65 GT PUSH2 0x19D JUMPI DUP1 PUSH4 0x441A3E70 GT PUSH2 0x16C JUMPI DUP1 PUSH4 0x441A3E70 EQ PUSH2 0x406 JUMPI DUP1 PUSH4 0x4FB2E45D EQ PUSH2 0x419 JUMPI DUP1 PUSH4 0x5B680A45 EQ PUSH2 0x42C JUMPI DUP1 PUSH4 0x5F8E422F EQ PUSH2 0x457 JUMPI DUP1 PUSH4 0x6882A888 EQ PUSH2 0x45F JUMPI PUSH1 0x0 DUP1 REVERT JUMPDEST DUP1 PUSH4 0x1A906D65 EQ PUSH2 0x3B0 JUMPI DUP1 PUSH4 0x291C73C3 EQ PUSH2 0x3C3 JUMPI DUP1 PUSH4 0x29ED1CFD EQ PUSH2 0x3D6 JUMPI DUP1 PUSH4 0x37BA682D EQ PUSH2 0x3DF JUMPI PUSH1 0x0 DUP1 REVERT JUMPDEST DUP1 PUSH4 0xDFE1681 GT PUSH2 0x1D9 JUMPI DUP1 PUSH4 0xDFE1681 EQ PUSH2 0x2B1 JUMPI DUP1 PUSH4 0x10C6C1C2 EQ PUSH2 0x2F0 JUMPI DUP1 PUSH4 0x150B7A02 EQ PUSH2 0x359 JUMPI DUP1 PUSH4 0x157775DF EQ PUSH2 0x390 JUMPI PUSH1 0x0 DUP1 REVERT JUMPDEST DUP1 PUSH4 0x2E9E495 EQ PUSH2 0x20B JUMPI DUP1 PUSH4 0x7C6E2FA EQ PUSH2 0x235 JUMPI DUP1 PUSH4 0xBCE1284 EQ PUSH2 0x24A JUMPI DUP1 PUSH4 0xD437D40 EQ PUSH2 0x278 JUMPI JUMPDEST PUSH1 0x0 DUP1 REVERT JUMPDEST PUSH2 0x21E PUSH2 0x219 CALLDATASIZE PUSH1 0x4 PUSH2 0x239F JUMP JUMPDEST PUSH2 0x68A JUMP JUMPDEST PUSH1 0x40 MLOAD PUSH2 0x22C SWAP3 SWAP2 SWAP1 PUSH2 0x23F7 JUMP JUMPDEST PUSH1 0x40 MLOAD DUP1 SWAP2 SUB SWAP1 RETURN JUMPDEST PUSH2 0x248 PUSH2 0x243 CALLDATASIZE PUSH1 0x4 PUSH2 0x24DF JUMP JUMPDEST PUSH2 0x895 JUMP JUMPDEST STOP JUMPDEST PUSH2 0x26A PUSH2 0x258 CALLDATASIZE PUSH1 0x4 PUSH2 0x254C JUMP JUMPDEST PUSH1 0x5 PUSH1 0x20 MSTORE PUSH1 0x0 SWAP1 DUP2 MSTORE PUSH1 0x40 SWAP1 KECCAK256 SLOAD DUP2 JUMP JUMPDEST PUSH1 0x40 MLOAD SWAP1 DUP2 MSTORE PUSH1 0x20 ADD PUSH2 0x22C JUMP JUMPDEST PUSH2 0x29F PUSH32 0x0 DUP2 JUMP JUMPDEST PUSH1 0x40 MLOAD PUSH1 0xFF SWAP1 SWAP2 AND DUP2 MSTORE PUSH1 0x20 ADD PUSH2 0x22C JUMP JUMPDEST PUSH2 0x2D8 PUSH32 0x0 DUP2 JUMP JUMPDEST PUSH1 0x40 MLOAD PUSH1 0x1 PUSH1 0x1 PUSH1 0xA0 SHL SUB SWAP1 SWAP2 AND DUP2 MSTORE PUSH1 0x20 ADD PUSH2 0x22C JUMP JUMPDEST PUSH2 0x32F PUSH2 0x2FE CALLDATASIZE PUSH1 0x4 PUSH2 0x254C JUMP JUMPDEST PUSH1 0x7 PUSH1 0x20 MSTORE PUSH1 0x0 SWAP1 DUP2 MSTORE PUSH1 0x40 SWAP1 KECCAK256 DUP1 SLOAD PUSH1 0x1 DUP3 ADD SLOAD PUSH1 0x2 DUP4 ADD SLOAD PUSH1 0x3 SWAP1 SWAP4 ADD SLOAD PUSH1 0x1 PUSH1 0x1 PUSH1 0xA0 SHL SUB SWAP1 SWAP3 AND SWAP3 SWAP1 SWAP2 DUP5 JUMP JUMPDEST PUSH1 0x40 DUP1 MLOAD PUSH1 0x1 PUSH1 0x1 PUSH1 0xA0 SHL SUB SWAP1 SWAP6 AND DUP6 MSTORE PUSH1 0x20 DUP6 ADD SWAP4 SWAP1 SWAP4 MSTORE SWAP2 DUP4 ADD MSTORE PUSH1 0x60 DUP3 ADD MSTORE PUSH1 0x80 ADD PUSH2 0x22C JUMP JUMPDEST PUSH2 0x377 PUSH2 0x367 CALLDATASIZE PUSH1 0x4 PUSH2 0x2565 JUMP JUMPDEST PUSH4 0xA85BD01 PUSH1 0xE1 SHL SWAP5 SWAP4 POP POP POP POP JUMP JUMPDEST PUSH1 0x40 MLOAD PUSH1 0x1 PUSH1 0x1 PUSH1 0xE0 SHL SUB NOT SWAP1 SWAP2 AND DUP2 MSTORE PUSH1 0x20 ADD PUSH2 0x22C JUMP JUMPDEST PUSH2 0x26A PUSH2 0x39E CALLDATASIZE PUSH1 0x4 PUSH2 0x254C JUMP JUMPDEST PUSH1 0x4 PUSH1 0x20 MSTORE PUSH1 0x0 SWAP1 DUP2 MSTORE PUSH1 0x40 SWAP1 KECCAK256 SLOAD DUP2 JUMP JUMPDEST PUSH2 0x248 PUSH2 0x3BE CALLDATASIZE PUSH1 0x4 PUSH2 0x2629 JUMP JUMPDEST PUSH2 0x9DE JUMP JUMPDEST PUSH2 0x26A PUSH2 0x3D1 CALLDATASIZE PUSH1 0x4 PUSH2 0x2655 JUMP JUMPDEST PUSH2 0x112C JUMP JUMPDEST PUSH2 0x26A PUSH1 0x6 SLOAD DUP2 JUMP JUMPDEST PUSH2 0x26A PUSH32 0x0 DUP2 JUMP JUMPDEST PUSH2 0x248 PUSH2 0x414 CALLDATASIZE PUSH1 0x4 PUSH2 0x2681 JUMP JUMPDEST PUSH2 0x115D JUMP JUMPDEST PUSH2 0x248 PUSH2 0x427 CALLDATASIZE PUSH1 0x4 PUSH2 0x239F JUMP JUMPDEST PUSH2 0x13C2 JUMP JUMPDEST PUSH2 0x26A PUSH2 0x43A CALLDATASIZE PUSH1 0x4 PUSH2 0x2655 JUMP JUMPDEST PUSH1 0x2 PUSH1 0x20 SWAP1 DUP2 MSTORE PUSH1 0x0 SWAP3 DUP4 MSTORE PUSH1 0x40 DUP1 DUP5 KECCAK256 SWAP1 SWAP2 MSTORE SWAP1 DUP3 MSTORE SWAP1 KECCAK256 SLOAD DUP2 JUMP JUMPDEST PUSH2 0x248 PUSH2 0x140E JUMP JUMPDEST PUSH2 0x486 PUSH32 0x0 DUP2 JUMP JUMPDEST PUSH1 0x40 MLOAD PUSH1 0x2 SWAP2 SWAP1 SWAP2 SIGNEXTEND DUP2 MSTORE PUSH1 0x20 ADD PUSH2 0x22C JUMP JUMPDEST PUSH1 0x0 SLOAD PUSH2 0x2D8 SWAP1 PUSH1 0x1 PUSH1 0x1 PUSH1 0xA0 SHL SUB AND DUP2 JUMP JUMPDEST PUSH2 0x486 PUSH32 0x0 DUP2 JUMP JUMPDEST PUSH2 0x248 PUSH2 0x4E1 CALLDATASIZE PUSH1 0x4 PUSH2 0x254C JUMP JUMPDEST PUSH2 0x145F JUMP JUMPDEST PUSH2 0x26A PUSH2 0x4F4 CALLDATASIZE PUSH1 0x4 PUSH2 0x2655 JUMP JUMPDEST PUSH2 0x15E7 JUMP JUMPDEST PUSH2 0x26A PUSH32 0x0 DUP2 JUMP JUMPDEST PUSH2 0x52A PUSH3 0x93A80 DUP2 JUMP JUMPDEST PUSH1 0x40 MLOAD PUSH3 0xFFFFFF SWAP1 SWAP2 AND DUP2 MSTORE PUSH1 0x20 ADD PUSH2 0x22C JUMP JUMPDEST PUSH2 0x2D8 PUSH32 0x0 DUP2 JUMP JUMPDEST PUSH2 0x2D8 PUSH32 0x0 DUP2 JUMP JUMPDEST PUSH2 0x52A PUSH32 0x0 DUP2 JUMP JUMPDEST PUSH2 0x29F PUSH32 0x0 DUP2 JUMP JUMPDEST PUSH2 0x248 PUSH2 0x5E8 CALLDATASIZE PUSH1 0x4 PUSH2 0x2629 JUMP JUMPDEST PUSH2 0x160C JUMP JUMPDEST PUSH2 0x26A PUSH2 0x5FB CALLDATASIZE PUSH1 0x4 PUSH2 0x26B9 JUMP JUMPDEST PUSH2 0x16F7 JUMP JUMPDEST PUSH2 0x26A PUSH32 0x0 DUP2 JUMP JUMPDEST PUSH2 0x2D8 PUSH32 0x0 DUP2 JUMP JUMPDEST PUSH2 0x248 PUSH2 0x65C CALLDATASIZE PUSH1 0x4 PUSH2 0x26E5 JUMP JUMPDEST PUSH2 0x17C1 JUMP JUMPDEST PUSH2 0x26A PUSH2 0x66F CALLDATASIZE PUSH1 0x4 PUSH2 0x239F JUMP JUMPDEST PUSH2 0x1B4E JUMP JUMPDEST PUSH2 0x67C PUSH2 0x1C59 JUMP JUMPDEST PUSH1 0x40 MLOAD PUSH2 0x22C SWAP3 SWAP2 SWAP1 PUSH2 0x271A JUMP JUMPDEST PUSH1 0x0 PUSH1 0x60 DUP2 PUSH1 0xFF PUSH32 0x0 AND PUSH2 0x6C0 PUSH3 0x93A80 TIMESTAMP PUSH2 0x2752 JUMP JUMPDEST PUSH2 0x6CA SWAP2 SWAP1 PUSH2 0x2774 JUMP JUMPDEST PUSH2 0x6D5 SWAP1 PUSH1 0x1 PUSH2 0x278D JUMP JUMPDEST PUSH1 0x1 PUSH1 0x1 PUSH1 0xA0 SHL SUB DUP6 AND PUSH1 0x0 SWAP1 DUP2 MSTORE PUSH1 0x3 PUSH1 0x20 MSTORE PUSH1 0x40 SWAP1 KECCAK256 SWAP1 SWAP2 POP DUP2 SWAP1 PUSH1 0x1 ADD SLOAD GT PUSH2 0x714 JUMPI PUSH1 0x40 DUP1 MLOAD PUSH1 0x0 DUP2 MSTORE PUSH1 0x20 DUP2 ADD SWAP1 SWAP2 MSTORE SWAP1 SWAP5 SWAP1 SWAP4 POP SWAP2 POP POP JUMP JUMPDEST PUSH1 0x1 PUSH1 0x1 PUSH1 0xA0 SHL SUB DUP5 AND PUSH1 0x0 SWAP1 DUP2 MSTORE PUSH1 0x3 PUSH1 0x20 MSTORE PUSH1 0x40 DUP2 KECCAK256 DUP1 SLOAD PUSH1 0x1 SWAP1 SWAP2 ADD SLOAD SWAP1 SWAP2 DUP4 DUP4 GT PUSH2 0x743 JUMPI DUP4 PUSH2 0x745 JUMP JUMPDEST DUP3 JUMPDEST SWAP1 POP PUSH1 0x0 PUSH2 0x753 DUP3 DUP5 PUSH2 0x2774 JUMP JUMPDEST PUSH8 0xFFFFFFFFFFFFFFFF DUP2 GT ISZERO PUSH2 0x76B JUMPI PUSH2 0x76B PUSH2 0x2418 JUMP JUMPDEST PUSH1 0x40 MLOAD SWAP1 DUP1 DUP3 MSTORE DUP1 PUSH1 0x20 MUL PUSH1 0x20 ADD DUP3 ADD PUSH1 0x40 MSTORE DUP1 ISZERO PUSH2 0x794 JUMPI DUP2 PUSH1 0x20 ADD PUSH1 0x20 DUP3 MUL DUP1 CALLDATASIZE DUP4 CALLDATACOPY ADD SWAP1 POP JUMPDEST POP SWAP1 POP DUP2 JUMPDEST DUP4 DUP2 LT ISZERO PUSH2 0x83F JUMPI PUSH1 0x0 DUP2 DUP2 MSTORE PUSH1 0x4 PUSH1 0x20 MSTORE PUSH1 0x40 SWAP1 KECCAK256 SLOAD ISZERO PUSH2 0x804 JUMPI PUSH1 0x0 DUP2 DUP2 MSTORE PUSH1 0x4 PUSH1 0x20 SWAP1 DUP2 MSTORE PUSH1 0x40 DUP1 DUP4 KECCAK256 SLOAD PUSH1 0x1 PUSH1 0x1 PUSH1 0xA0 SHL SUB DUP14 AND DUP5 MSTORE PUSH1 0x2 DUP4 MSTORE DUP2 DUP5 KECCAK256 DUP6 DUP6 MSTORE DUP4 MSTORE DUP2 DUP5 KECCAK256 SLOAD PUSH1 0x5 SWAP1 SWAP4 MSTORE SWAP3 KECCAK256 SLOAD PUSH2 0x7F5 SWAP2 SWAP1 PUSH2 0x27B6 JUMP JUMPDEST PUSH2 0x7FF SWAP2 SWAP1 PUSH2 0x2752 JUMP JUMPDEST PUSH2 0x807 JUMP JUMPDEST PUSH1 0x0 JUMPDEST DUP3 PUSH2 0x812 DUP6 DUP5 PUSH2 0x2774 JUMP JUMPDEST DUP2 MLOAD DUP2 LT PUSH2 0x822 JUMPI PUSH2 0x822 PUSH2 0x27A0 JUMP JUMPDEST PUSH1 0x20 SWAP1 DUP2 MUL SWAP2 SWAP1 SWAP2 ADD ADD MSTORE DUP1 PUSH2 0x837 DUP2 PUSH2 0x27CD JUMP JUMPDEST SWAP2 POP POP PUSH2 0x799 JUMP JUMPDEST POP PUSH1 0x0 PUSH2 0x84F PUSH3 0x93A80 TIMESTAMP PUSH2 0x2752 JUMP JUMPDEST PUSH2 0x87C DUP5 PUSH1 0xFF PUSH32 0x0 AND PUSH2 0x278D JUMP JUMPDEST PUSH2 0x886 SWAP2 SWAP1 PUSH2 0x2774 JUMP JUMPDEST SWAP10 SWAP2 SWAP9 POP SWAP1 SWAP7 POP POP POP POP POP POP POP JUMP JUMPDEST DUP1 DUP1 TIMESTAMP GT ISZERO PUSH2 0x8BF JUMPI PUSH1 0x40 MLOAD PUSH3 0x461BCD PUSH1 0xE5 SHL DUP2 MSTORE PUSH1 0x4 ADD PUSH2 0x8B6 SWAP1 PUSH2 0x27E6 JUMP JUMPDEST PUSH1 0x40 MLOAD DUP1 SWAP2 SUB SWAP1 REVERT JUMPDEST PUSH1 0x0 SLOAD PUSH1 0x1 PUSH1 0x1 PUSH1 0xA0 SHL SUB AND CALLER EQ PUSH2 0x8E9 JUMPI PUSH1 0x40 MLOAD PUSH3 0x461BCD PUSH1 0xE5 SHL DUP2 MSTORE PUSH1 0x4 ADD PUSH2 0x8B6 SWAP1 PUSH2 0x280D JUMP JUMPDEST DUP3 MLOAD DUP5 MLOAD EQ PUSH2 0x92D JUMPI PUSH1 0x40 MLOAD PUSH3 0x461BCD PUSH1 0xE5 SHL DUP2 MSTORE PUSH1 0x20 PUSH1 0x4 DUP3 ADD MSTORE PUSH1 0x10 PUSH1 0x24 DUP3 ADD MSTORE PUSH16 0x3830B930B6B2BA32B9399032B93937B9 PUSH1 0x81 SHL PUSH1 0x44 DUP3 ADD MSTORE PUSH1 0x64 ADD PUSH2 0x8B6 JUMP JUMPDEST PUSH1 0x0 DUP1 JUMPDEST DUP6 MLOAD DUP2 LT ISZERO PUSH2 0x9D4 JUMPI DUP5 DUP2 DUP2 MLOAD DUP2 LT PUSH2 0x94C JUMPI PUSH2 0x94C PUSH2 0x27A0 JUMP JUMPDEST PUSH1 0x20 MUL PUSH1 0x20 ADD ADD MLOAD PUSH1 0x5 PUSH1 0x0 DUP9 DUP5 DUP2 MLOAD DUP2 LT PUSH2 0x96A JUMPI PUSH2 0x96A PUSH2 0x27A0 JUMP JUMPDEST PUSH1 0x20 MUL PUSH1 0x20 ADD ADD MLOAD DUP2 MSTORE PUSH1 0x20 ADD SWAP1 DUP2 MSTORE PUSH1 0x20 ADD PUSH1 0x0 KECCAK256 DUP2 SWAP1 SSTORE POP DUP2 DUP7 DUP3 DUP2 MLOAD DUP2 LT PUSH2 0x997 JUMPI PUSH2 0x997 PUSH2 0x27A0 JUMP JUMPDEST PUSH1 0x20 MUL PUSH1 0x20 ADD ADD MLOAD GT ISZERO PUSH2 0x9C2 JUMPI DUP6 DUP2 DUP2 MLOAD DUP2 LT PUSH2 0x9B7 JUMPI PUSH2 0x9B7 PUSH2 0x27A0 JUMP JUMPDEST PUSH1 0x20 MUL PUSH1 0x20 ADD ADD MLOAD SWAP2 POP JUMPDEST DUP1 PUSH2 0x9CC DUP2 PUSH2 0x27CD JUMP JUMPDEST SWAP2 POP POP PUSH2 0x931 JUMP JUMPDEST POP PUSH1 0x6 SSTORE POP POP POP POP JUMP JUMPDEST DUP1 DUP1 TIMESTAMP GT ISZERO PUSH2 0x9FF JUMPI PUSH1 0x40 MLOAD PUSH3 0x461BCD PUSH1 0xE5 SHL DUP2 MSTORE PUSH1 0x4 ADD PUSH2 0x8B6 SWAP1 PUSH2 0x27E6 JUMP JUMPDEST PUSH1 0x0 DUP5 DUP2 MSTORE PUSH1 0x7 PUSH1 0x20 MSTORE PUSH1 0x40 SWAP1 KECCAK256 SLOAD PUSH1 0x1 PUSH1 0x1 PUSH1 0xA0 SHL SUB AND CALLER EQ PUSH2 0xA57 JUMPI PUSH1 0x40 MLOAD PUSH3 0x461BCD PUSH1 0xE5 SHL DUP2 MSTORE PUSH1 0x20 PUSH1 0x4 DUP3 ADD MSTORE PUSH1 0xF PUSH1 0x24 DUP3 ADD MSTORE PUSH15 0x37BBB732B9103337B93134B23232B7 PUSH1 0x89 SHL PUSH1 0x44 DUP3 ADD MSTORE PUSH1 0x64 ADD PUSH2 0x8B6 JUMP JUMPDEST PUSH1 0x0 PUSH2 0xA66 PUSH3 0x93A80 TIMESTAMP PUSH2 0x2752 JUMP JUMPDEST PUSH1 0x0 DUP7 DUP2 MSTORE PUSH1 0x7 PUSH1 0x20 MSTORE PUSH1 0x40 SWAP1 KECCAK256 PUSH1 0x3 ADD SLOAD SWAP1 SWAP2 POP DUP2 LT ISZERO PUSH2 0xAB8 JUMPI PUSH1 0x40 MLOAD PUSH3 0x461BCD PUSH1 0xE5 SHL DUP2 MSTORE PUSH1 0x20 PUSH1 0x4 DUP3 ADD MSTORE PUSH1 0xB PUSH1 0x24 DUP3 ADD MSTORE PUSH11 0x6C6F636B65642074696D65 PUSH1 0xA8 SHL PUSH1 0x44 DUP3 ADD MSTORE PUSH1 0x64 ADD PUSH2 0x8B6 JUMP JUMPDEST PUSH2 0xAC1 DUP5 PUSH2 0x1DB8 JUMP JUMPDEST POP PUSH1 0x40 MLOAD PUSH4 0x31A9108F PUSH1 0xE1 SHL DUP2 MSTORE PUSH1 0x4 DUP2 ADD DUP6 SWAP1 MSTORE CALLER SWAP1 PUSH1 0x1 PUSH1 0x1 PUSH1 0xA0 SHL SUB PUSH32 0x0 AND SWAP1 PUSH4 0x6352211E SWAP1 PUSH1 0x24 ADD PUSH1 0x20 PUSH1 0x40 MLOAD DUP1 DUP4 SUB DUP2 DUP7 GAS STATICCALL ISZERO DUP1 ISZERO PUSH2 0xB29 JUMPI RETURNDATASIZE PUSH1 0x0 DUP1 RETURNDATACOPY RETURNDATASIZE PUSH1 0x0 REVERT JUMPDEST POP POP POP POP PUSH1 0x40 MLOAD RETURNDATASIZE PUSH1 0x1F NOT PUSH1 0x1F DUP3 ADD AND DUP3 ADD DUP1 PUSH1 0x40 MSTORE POP DUP2 ADD SWAP1 PUSH2 0xB4D SWAP2 SWAP1 PUSH2 0x283B JUMP JUMPDEST PUSH1 0x1 PUSH1 0x1 PUSH1 0xA0 SHL SUB AND EQ PUSH2 0xB8F JUMPI PUSH1 0x40 MLOAD PUSH3 0x461BCD PUSH1 0xE5 SHL DUP2 MSTORE PUSH1 0x20 PUSH1 0x4 DUP3 ADD MSTORE PUSH1 0x9 PUSH1 0x24 DUP3 ADD MSTORE PUSH9 0x369037BBB732B91033 PUSH1 0xB9 SHL PUSH1 0x44 DUP3 ADD MSTORE PUSH1 0x64 ADD PUSH2 0x8B6 JUMP JUMPDEST CALLER PUSH1 0x0 SWAP1 DUP2 MSTORE PUSH1 0x8 PUSH1 0x20 MSTORE PUSH1 0x40 DUP2 KECCAK256 SWAP1 JUMPDEST DUP2 SLOAD DUP2 LT ISZERO PUSH2 0xC54 JUMPI DUP2 DUP2 DUP2 SLOAD DUP2 LT PUSH2 0xBBB JUMPI PUSH2 0xBBB PUSH2 0x27A0 JUMP JUMPDEST SWAP1 PUSH1 0x0 MSTORE PUSH1 0x20 PUSH1 0x0 KECCAK256 ADD SLOAD DUP8 SUB PUSH2 0xC42 JUMPI DUP2 SLOAD DUP3 SWAP1 PUSH2 0xBDC SWAP1 PUSH1 0x1 SWAP1 PUSH2 0x2774 JUMP JUMPDEST DUP2 SLOAD DUP2 LT PUSH2 0xBEC JUMPI PUSH2 0xBEC PUSH2 0x27A0 JUMP JUMPDEST SWAP1 PUSH1 0x0 MSTORE PUSH1 0x20 PUSH1 0x0 KECCAK256 ADD SLOAD DUP3 DUP3 DUP2 SLOAD DUP2 LT PUSH2 0xC09 JUMPI PUSH2 0xC09 PUSH2 0x27A0 JUMP JUMPDEST SWAP1 PUSH1 0x0 MSTORE PUSH1 0x20 PUSH1 0x0 KECCAK256 ADD DUP2 SWAP1 SSTORE POP DUP2 DUP1 SLOAD DUP1 PUSH2 0xC27 JUMPI PUSH2 0xC27 PUSH2 0x2858 JUMP JUMPDEST PUSH1 0x1 SWAP1 SUB DUP2 DUP2 SWAP1 PUSH1 0x0 MSTORE PUSH1 0x20 PUSH1 0x0 KECCAK256 ADD PUSH1 0x0 SWAP1 SSTORE SWAP1 SSTORE PUSH2 0xC54 JUMP JUMPDEST DUP1 PUSH2 0xC4C DUP2 PUSH2 0x27CD JUMP JUMPDEST SWAP2 POP POP PUSH2 0xBA0 JUMP JUMPDEST POP PUSH1 0x40 MLOAD PUSH4 0x133F7571 PUSH1 0xE3 SHL DUP2 MSTORE PUSH1 0x4 DUP2 ADD DUP8 SWAP1 MSTORE PUSH1 0x0 SWAP1 PUSH32 0x0 PUSH1 0x1 PUSH1 0x1 PUSH1 0xA0 SHL SUB AND SWAP1 PUSH4 0x99FBAB88 SWAP1 PUSH1 0x24 ADD PUSH2 0x180 PUSH1 0x40 MLOAD DUP1 DUP4 SUB DUP2 DUP7 GAS STATICCALL ISZERO DUP1 ISZERO PUSH2 0xCBE JUMPI RETURNDATASIZE PUSH1 0x0 DUP1 RETURNDATACOPY RETURNDATASIZE PUSH1 0x0 REVERT JUMPDEST POP POP POP POP PUSH1 0x40 MLOAD RETURNDATASIZE PUSH1 0x1F NOT PUSH1 0x1F DUP3 ADD AND DUP3 ADD DUP1 PUSH1 0x40 MSTORE POP DUP2 ADD SWAP1 PUSH2 0xCE2 SWAP2 SWAP1 PUSH2 0x28AA JUMP JUMPDEST POP POP POP POP SWAP8 POP POP POP POP POP POP POP POP PUSH1 0x0 DUP1 PUSH32 0x0 PUSH1 0x1 PUSH1 0x1 PUSH1 0xA0 SHL SUB AND PUSH4 0xC49CCBE PUSH1 0x40 MLOAD DUP1 PUSH1 0xA0 ADD PUSH1 0x40 MSTORE DUP1 DUP13 DUP2 MSTORE PUSH1 0x20 ADD DUP7 PUSH1 0x1 PUSH1 0x1 PUSH1 0x80 SHL SUB AND DUP2 MSTORE PUSH1 0x20 ADD PUSH1 0x0 DUP2 MSTORE PUSH1 0x20 ADD PUSH1 0x0 DUP2 MSTORE PUSH1 0x20 ADD DUP11 DUP2 MSTORE POP PUSH1 0x40 MLOAD DUP3 PUSH4 0xFFFFFFFF AND PUSH1 0xE0 SHL DUP2 MSTORE PUSH1 0x4 ADD PUSH2 0xDAD SWAP2 SWAP1 PUSH1 0x0 PUSH1 0xA0 DUP3 ADD SWAP1 POP DUP3 MLOAD DUP3 MSTORE PUSH1 0x1 PUSH1 0x1 PUSH1 0x80 SHL SUB PUSH1 0x20 DUP5 ADD MLOAD AND PUSH1 0x20 DUP4 ADD MSTORE PUSH1 0x40 DUP4 ADD MLOAD PUSH1 0x40 DUP4 ADD MSTORE PUSH1 0x60 DUP4 ADD MLOAD PUSH1 0x60 DUP4 ADD MSTORE PUSH1 0x80 DUP4 ADD MLOAD PUSH1 0x80 DUP4 ADD MSTORE SWAP3 SWAP2 POP POP JUMP JUMPDEST PUSH1 0x40 DUP1 MLOAD DUP1 DUP4 SUB DUP2 PUSH1 0x0 DUP8 GAS CALL ISZERO DUP1 ISZERO PUSH2 0xDCB JUMPI RETURNDATASIZE PUSH1 0x0 DUP1 RETURNDATACOPY RETURNDATASIZE PUSH1 0x0 REVERT JUMPDEST POP POP POP POP PUSH1 0x40 MLOAD RETURNDATASIZE PUSH1 0x1F NOT PUSH1 0x1F DUP3 ADD AND DUP3 ADD DUP1 PUSH1 0x40 MSTORE POP DUP2 ADD SWAP1 PUSH2 0xDEF SWAP2 SWAP1 PUSH2 0x298B JUMP JUMPDEST PUSH1 0x40 DUP1 MLOAD PUSH1 0x80 DUP2 ADD DUP3 MSTORE DUP13 DUP2 MSTORE ADDRESS PUSH1 0x20 DUP3 ADD SWAP1 DUP2 MSTORE PUSH1 0x1 PUSH1 0x1 PUSH1 0x80 SHL SUB DUP3 DUP5 ADD DUP2 DUP2 MSTORE PUSH1 0x60 DUP5 ADD DUP3 DUP2 MSTORE SWAP5 MLOAD PUSH4 0xFC6F7865 PUSH1 0xE0 SHL DUP2 MSTORE SWAP4 MLOAD PUSH1 0x4 DUP6 ADD MSTORE SWAP2 MLOAD PUSH1 0x1 PUSH1 0x1 PUSH1 0xA0 SHL SUB SWAP1 DUP2 AND PUSH1 0x24 DUP6 ADD MSTORE SWAP2 MLOAD DUP2 AND PUSH1 0x44 DUP5 ADD MSTORE SWAP3 MLOAD SWAP1 SWAP3 AND PUSH1 0x64 DUP3 ADD MSTORE SWAP3 SWAP5 POP SWAP1 SWAP3 POP PUSH1 0x0 SWAP2 DUP3 SWAP2 PUSH32 0x0 AND SWAP1 PUSH4 0xFC6F7865 SWAP1 PUSH1 0x84 ADD PUSH1 0x40 DUP1 MLOAD DUP1 DUP4 SUB DUP2 PUSH1 0x0 DUP8 GAS CALL ISZERO DUP1 ISZERO PUSH2 0xEA6 JUMPI RETURNDATASIZE PUSH1 0x0 DUP1 RETURNDATACOPY RETURNDATASIZE PUSH1 0x0 REVERT JUMPDEST POP POP POP POP PUSH1 0x40 MLOAD RETURNDATASIZE PUSH1 0x1F NOT PUSH1 0x1F DUP3 ADD AND DUP3 ADD DUP1 PUSH1 0x40 MSTORE POP DUP2 ADD SWAP1 PUSH2 0xECA SWAP2 SWAP1 PUSH2 0x298B JUMP JUMPDEST SWAP2 POP SWAP2 POP PUSH32 0x0 PUSH1 0x1 PUSH1 0x1 PUSH1 0xA0 SHL SUB AND PUSH4 0x219F5D17 PUSH1 0x40 MLOAD DUP1 PUSH1 0xC0 ADD PUSH1 0x40 MSTORE DUP1 DUP14 DUP2 MSTORE PUSH1 0x20 ADD DUP8 DUP2 MSTORE PUSH1 0x20 ADD DUP7 DUP2 MSTORE PUSH1 0x20 ADD PUSH1 0x0 DUP2 MSTORE PUSH1 0x20 ADD PUSH1 0x0 DUP2 MSTORE PUSH1 0x20 ADD DUP13 DUP2 MSTORE POP PUSH1 0x40 MLOAD DUP3 PUSH4 0xFFFFFFFF AND PUSH1 0xE0 SHL DUP2 MSTORE PUSH1 0x4 ADD PUSH2 0xF87 SWAP2 SWAP1 PUSH1 0x0 PUSH1 0xC0 DUP3 ADD SWAP1 POP DUP3 MLOAD DUP3 MSTORE PUSH1 0x20 DUP4 ADD MLOAD PUSH1 0x20 DUP4 ADD MSTORE PUSH1 0x40 DUP4 ADD MLOAD PUSH1 0x40 DUP4 ADD MSTORE PUSH1 0x60 DUP4 ADD MLOAD PUSH1 0x60 DUP4 ADD MSTORE PUSH1 0x80 DUP4 ADD MLOAD PUSH1 0x80 DUP4 ADD MSTORE PUSH1 0xA0 DUP4 ADD MLOAD PUSH1 0xA0 DUP4 ADD MSTORE SWAP3 SWAP2 POP POP JUMP JUMPDEST PUSH1 0x60 PUSH1 0x40 MLOAD DUP1 DUP4 SUB DUP2 PUSH1 0x0 DUP8 GAS CALL ISZERO DUP1 ISZERO PUSH2 0xFA6 JUMPI RETURNDATASIZE PUSH1 0x0 DUP1 RETURNDATACOPY RETURNDATASIZE PUSH1 0x0 REVERT JUMPDEST POP POP POP POP PUSH1 0x40 MLOAD RETURNDATASIZE PUSH1 0x1F NOT PUSH1 0x1F DUP3 ADD AND DUP3 ADD DUP1 PUSH1 0x40 MSTORE POP DUP2 ADD SWAP1 PUSH2 0xFCA SWAP2 SWAP1 PUSH2 0x29AF JUMP JUMPDEST PUSH1 0x40 MLOAD PUSH4 0x852CD8D PUSH1 0xE3 SHL DUP2 MSTORE PUSH1 0x4 DUP2 ADD DUP16 SWAP1 MSTORE SWAP3 SWAP8 POP SWAP1 SWAP6 POP SWAP4 POP PUSH32 0x0 PUSH1 0x1 PUSH1 0x1 PUSH1 0xA0 SHL SUB AND SWAP1 PUSH4 0x42966C68 SWAP1 PUSH1 0x24 ADD PUSH1 0x0 PUSH1 0x40 MLOAD DUP1 DUP4 SUB DUP2 PUSH1 0x0 DUP8 DUP1 EXTCODESIZE ISZERO DUP1 ISZERO PUSH2 0x1034 JUMPI PUSH1 0x0 DUP1 REVERT JUMPDEST POP GAS CALL ISZERO DUP1 ISZERO PUSH2 0x1048 JUMPI RETURNDATASIZE PUSH1 0x0 DUP1 RETURNDATACOPY RETURNDATASIZE PUSH1 0x0 REVERT JUMPDEST POP POP POP POP PUSH2 0x1082 PUSH32 0x0 CALLER DUP7 DUP6 PUSH2 0x107D SWAP2 SWAP1 PUSH2 0x2774 JUMP JUMPDEST PUSH2 0x1FF5 JUMP JUMPDEST PUSH2 0x10B1 PUSH32 0x0 CALLER PUSH2 0x107D DUP7 DUP6 PUSH2 0x2774 JUMP JUMPDEST CALLER PUSH32 0x9292B1DE86834B12FCDC5D8FC52CCA04B266EBC75A61D49888EC43218A7E6029 DUP7 DUP14 DUP14 PUSH2 0x10E0 DUP10 DUP9 PUSH2 0x2774 JUMP JUMPDEST PUSH2 0x10EA DUP10 DUP9 PUSH2 0x2774 JUMP JUMPDEST PUSH1 0x40 DUP1 MLOAD PUSH1 0x1 PUSH1 0x1 PUSH1 0x80 SHL SUB SWAP1 SWAP7 AND DUP7 MSTORE PUSH1 0x20 DUP7 ADD SWAP5 SWAP1 SWAP5 MSTORE SWAP3 DUP5 ADD SWAP2 SWAP1 SWAP2 MSTORE PUSH1 0x60 DUP4 ADD MSTORE PUSH1 0x80 DUP3 ADD MSTORE PUSH1 0xA0 ADD PUSH1 0x40 MLOAD DUP1 SWAP2 SUB SWAP1 LOG2 POP POP POP POP POP POP POP POP POP POP POP JUMP JUMPDEST PUSH1 0x8 PUSH1 0x20 MSTORE DUP2 PUSH1 0x0 MSTORE PUSH1 0x40 PUSH1 0x0 KECCAK256 DUP2 DUP2 SLOAD DUP2 LT PUSH2 0x1148 JUMPI PUSH1 0x0 DUP1 REVERT JUMPDEST SWAP1 PUSH1 0x0 MSTORE PUSH1 0x20 PUSH1 0x0 KECCAK256 ADD PUSH1 0x0 SWAP2 POP SWAP2 POP POP SLOAD DUP2 JUMP JUMPDEST DUP1 DUP1 TIMESTAMP GT ISZERO PUSH2 0x117E JUMPI PUSH1 0x40 MLOAD PUSH3 0x461BCD PUSH1 0xE5 SHL DUP2 MSTORE PUSH1 0x4 ADD PUSH2 0x8B6 SWAP1 PUSH2 0x27E6 JUMP JUMPDEST PUSH1 0x0 DUP4 DUP2 MSTORE PUSH1 0x7 PUSH1 0x20 MSTORE PUSH1 0x40 SWAP1 KECCAK256 SLOAD PUSH1 0x1 PUSH1 0x1 PUSH1 0xA0 SHL SUB AND CALLER EQ PUSH2 0x11D6 JUMPI PUSH1 0x40 MLOAD PUSH3 0x461BCD PUSH1 0xE5 SHL DUP2 MSTORE PUSH1 0x20 PUSH1 0x4 DUP3 ADD MSTORE PUSH1 0xF PUSH1 0x24 DUP3 ADD MSTORE PUSH15 0x37BBB732B9103337B93134B23232B7 PUSH1 0x89 SHL PUSH1 0x44 DUP3 ADD MSTORE PUSH1 0x64 ADD PUSH2 0x8B6 JUMP JUMPDEST PUSH1 0x0 PUSH2 0x11E5 PUSH3 0x93A80 TIMESTAMP PUSH2 0x2752 JUMP JUMPDEST PUSH1 0x0 DUP6 DUP2 MSTORE PUSH1 0x7 PUSH1 0x20 MSTORE PUSH1 0x40 SWAP1 KECCAK256 PUSH1 0x3 ADD SLOAD SWAP1 SWAP2 POP DUP2 LT ISZERO PUSH2 0x1237 JUMPI PUSH1 0x40 MLOAD PUSH3 0x461BCD PUSH1 0xE5 SHL DUP2 MSTORE PUSH1 0x20 PUSH1 0x4 DUP3 ADD MSTORE PUSH1 0xB PUSH1 0x24 DUP3 ADD MSTORE PUSH11 0x6C6F636B65642074696D65 PUSH1 0xA8 SHL PUSH1 0x44 DUP3 ADD MSTORE PUSH1 0x64 ADD PUSH2 0x8B6 JUMP JUMPDEST CALLER PUSH1 0x0 SWAP1 DUP2 MSTORE PUSH1 0x8 PUSH1 0x20 MSTORE PUSH1 0x40 DUP2 KECCAK256 SWAP1 JUMPDEST DUP2 SLOAD DUP2 LT ISZERO PUSH2 0x1384 JUMPI DUP2 DUP2 DUP2 SLOAD DUP2 LT PUSH2 0x1263 JUMPI PUSH2 0x1263 PUSH2 0x27A0 JUMP JUMPDEST SWAP1 PUSH1 0x0 MSTORE PUSH1 0x20 PUSH1 0x0 KECCAK256 ADD SLOAD DUP7 SUB PUSH2 0x1372 JUMPI DUP2 SLOAD DUP3 SWAP1 PUSH2 0x1284 SWAP1 PUSH1 0x1 SWAP1 PUSH2 0x2774 JUMP JUMPDEST DUP2 SLOAD DUP2 LT PUSH2 0x1294 JUMPI PUSH2 0x1294 PUSH2 0x27A0 JUMP JUMPDEST SWAP1 PUSH1 0x0 MSTORE PUSH1 0x20 PUSH1 0x0 KECCAK256 ADD SLOAD DUP3 DUP3 DUP2 SLOAD DUP2 LT PUSH2 0x12B1 JUMPI PUSH2 0x12B1 PUSH2 0x27A0 JUMP JUMPDEST SWAP1 PUSH1 0x0 MSTORE PUSH1 0x20 PUSH1 0x0 KECCAK256 ADD DUP2 SWAP1 SSTORE POP DUP2 DUP1 SLOAD DUP1 PUSH2 0x12CF JUMPI PUSH2 0x12CF PUSH2 0x2858 JUMP JUMPDEST PUSH1 0x0 DUP3 DUP2 MSTORE PUSH1 0x20 DUP2 KECCAK256 DUP3 ADD PUSH1 0x0 NOT SWAP1 DUP2 ADD SWAP2 SWAP1 SWAP2 SSTORE ADD SWAP1 SSTORE PUSH1 0x40 MLOAD PUSH4 0x21421707 PUSH1 0xE1 SHL DUP2 MSTORE ADDRESS PUSH1 0x4 DUP3 ADD MSTORE CALLER PUSH1 0x24 DUP3 ADD MSTORE PUSH1 0x44 DUP2 ADD DUP8 SWAP1 MSTORE PUSH1 0x1 PUSH1 0x1 PUSH1 0xA0 SHL SUB PUSH32 0x0 AND SWAP1 PUSH4 0x42842E0E SWAP1 PUSH1 0x64 ADD PUSH1 0x0 PUSH1 0x40 MLOAD DUP1 DUP4 SUB DUP2 PUSH1 0x0 DUP8 DUP1 EXTCODESIZE ISZERO DUP1 ISZERO PUSH2 0x1355 JUMPI PUSH1 0x0 DUP1 REVERT JUMPDEST POP GAS CALL ISZERO DUP1 ISZERO PUSH2 0x1369 JUMPI RETURNDATASIZE PUSH1 0x0 DUP1 RETURNDATACOPY RETURNDATASIZE PUSH1 0x0 REVERT JUMPDEST POP POP POP POP PUSH2 0x1384 JUMP JUMPDEST DUP1 PUSH2 0x137C DUP2 PUSH2 0x27CD JUMP JUMPDEST SWAP2 POP POP PUSH2 0x1248 JUMP JUMPDEST POP PUSH1 0x40 MLOAD DUP6 DUP2 MSTORE CALLER SWAP1 PUSH32 0x884EDAD9CE6FA2440D8A54CC123490EB96D2768479D49FF9C7366125A9424364 SWAP1 PUSH1 0x20 ADD JUMPDEST PUSH1 0x40 MLOAD DUP1 SWAP2 SUB SWAP1 LOG2 POP POP POP POP POP JUMP JUMPDEST PUSH1 0x0 SLOAD PUSH1 0x1 PUSH1 0x1 PUSH1 0xA0 SHL SUB AND CALLER EQ PUSH2 0x13EC JUMPI PUSH1 0x40 MLOAD PUSH3 0x461BCD PUSH1 0xE5 SHL DUP2 MSTORE PUSH1 0x4 ADD PUSH2 0x8B6 SWAP1 PUSH2 0x280D JUMP JUMPDEST PUSH1 0x1 DUP1 SLOAD PUSH1 0x1 PUSH1 0x1 PUSH1 0xA0 SHL SUB NOT AND PUSH1 0x1 PUSH1 0x1 PUSH1 0xA0 SHL SUB SWAP3 SWAP1 SWAP3 AND SWAP2 SWAP1 SWAP2 OR SWAP1 SSTORE JUMP JUMPDEST PUSH1 0x1 SLOAD PUSH1 0x1 PUSH1 0x1 PUSH1 0xA0 SHL SUB AND CALLER EQ PUSH2 0x1438 JUMPI PUSH1 0x40 MLOAD PUSH3 0x461BCD PUSH1 0xE5 SHL DUP2 MSTORE PUSH1 0x4 ADD PUSH2 0x8B6 SWAP1 PUSH2 0x280D JUMP JUMPDEST PUSH1 0x1 DUP1 SLOAD PUSH1 0x0 DUP1 SLOAD PUSH1 0x1 PUSH1 0x1 PUSH1 0xA0 SHL SUB NOT SWAP1 DUP2 AND PUSH1 0x1 PUSH1 0x1 PUSH1 0xA0 SHL SUB DUP5 AND OR SWAP1 SWAP2 SSTORE AND SWAP1 SSTORE JUMP JUMPDEST DUP1 DUP1 TIMESTAMP GT ISZERO PUSH2 0x1480 JUMPI PUSH1 0x40 MLOAD PUSH3 0x461BCD PUSH1 0xE5 SHL DUP2 MSTORE PUSH1 0x4 ADD PUSH2 0x8B6 SWAP1 PUSH2 0x27E6 JUMP JUMPDEST PUSH1 0x0 PUSH1 0xFF PUSH32 0x0 AND PUSH2 0x14B3 PUSH3 0x93A80 TIMESTAMP PUSH2 0x2752 JUMP JUMPDEST PUSH2 0x14BD SWAP2 SWAP1 PUSH2 0x2774 JUMP JUMPDEST CALLER PUSH1 0x0 SWAP1 DUP2 MSTORE PUSH1 0x3 PUSH1 0x20 MSTORE PUSH1 0x40 DUP2 KECCAK256 SLOAD SWAP2 SWAP3 POP SWAP1 DUP1 JUMPDEST CALLER PUSH1 0x0 SWAP1 DUP2 MSTORE PUSH1 0x3 PUSH1 0x20 MSTORE PUSH1 0x40 SWAP1 KECCAK256 PUSH1 0x1 ADD SLOAD DUP2 LT ISZERO PUSH2 0x1576 JUMPI DUP4 DUP2 GT PUSH2 0x1576 JUMPI PUSH2 0x14FF DUP2 PUSH1 0x1 PUSH2 0x278D JUMP JUMPDEST PUSH1 0x0 DUP3 DUP2 MSTORE PUSH1 0x4 PUSH1 0x20 MSTORE PUSH1 0x40 SWAP1 KECCAK256 SLOAD SWAP1 SWAP3 POP ISZERO PUSH2 0x1564 JUMPI PUSH1 0x0 DUP2 DUP2 MSTORE PUSH1 0x4 PUSH1 0x20 SWAP1 DUP2 MSTORE PUSH1 0x40 DUP1 DUP4 KECCAK256 SLOAD CALLER DUP5 MSTORE PUSH1 0x2 DUP4 MSTORE DUP2 DUP5 KECCAK256 DUP6 DUP6 MSTORE DUP4 MSTORE DUP2 DUP5 KECCAK256 SLOAD PUSH1 0x5 SWAP1 SWAP4 MSTORE SWAP3 KECCAK256 SLOAD PUSH2 0x154D SWAP2 SWAP1 PUSH2 0x27B6 JUMP JUMPDEST PUSH2 0x1557 SWAP2 SWAP1 PUSH2 0x2752 JUMP JUMPDEST PUSH2 0x1561 SWAP1 DUP5 PUSH2 0x278D JUMP JUMPDEST SWAP3 POP JUMPDEST DUP1 PUSH2 0x156E DUP2 PUSH2 0x27CD JUMP JUMPDEST SWAP2 POP POP PUSH2 0x14D3 JUMP JUMPDEST POP CALLER PUSH1 0x0 SWAP1 DUP2 MSTORE PUSH1 0x3 PUSH1 0x20 MSTORE PUSH1 0x40 DUP2 KECCAK256 DUP3 SWAP2 ADD SSTORE PUSH2 0x15B5 PUSH32 0x0 CALLER DUP5 PUSH2 0x1FF5 JUMP JUMPDEST PUSH1 0x40 MLOAD DUP3 DUP2 MSTORE CALLER SWAP1 PUSH32 0xBA8DE60C3403EC381D1D484652EA1980E3C3E56359195C92525BFF4CE47AD98E SWAP1 PUSH1 0x20 ADD PUSH2 0x13B3 JUMP JUMPDEST PUSH1 0x3 PUSH1 0x20 MSTORE DUP2 PUSH1 0x0 MSTORE PUSH1 0x40 PUSH1 0x0 KECCAK256 DUP2 PUSH1 0x2 DUP2 LT PUSH2 0x1603 JUMPI PUSH1 0x0 DUP1 REVERT JUMPDEST ADD SLOAD SWAP2 POP DUP3 SWAP1 POP JUMP JUMPDEST DUP1 DUP1 TIMESTAMP GT ISZERO PUSH2 0x162D JUMPI PUSH1 0x40 MLOAD PUSH3 0x461BCD PUSH1 0xE5 SHL DUP2 MSTORE PUSH1 0x4 ADD PUSH2 0x8B6 SWAP1 PUSH2 0x27E6 JUMP JUMPDEST PUSH1 0x0 SLOAD PUSH1 0x1 PUSH1 0x1 PUSH1 0xA0 SHL SUB AND CALLER EQ PUSH2 0x1657 JUMPI PUSH1 0x40 MLOAD PUSH3 0x461BCD PUSH1 0xE5 SHL DUP2 MSTORE PUSH1 0x4 ADD PUSH2 0x8B6 SWAP1 PUSH2 0x280D JUMP JUMPDEST PUSH2 0x1683 PUSH32 0x0 CALLER ADDRESS DUP7 PUSH2 0x2102 JUMP JUMPDEST PUSH1 0x0 DUP5 DUP2 MSTORE PUSH1 0x5 PUSH1 0x20 MSTORE PUSH1 0x40 DUP2 KECCAK256 DUP1 SLOAD DUP6 SWAP3 SWAP1 PUSH2 0x16A1 SWAP1 DUP5 SWAP1 PUSH2 0x278D JUMP JUMPDEST SWAP1 SWAP2 SSTORE POP POP PUSH1 0x6 SLOAD DUP5 GT ISZERO PUSH2 0x16B6 JUMPI PUSH1 0x6 DUP5 SWAP1 SSTORE JUMPDEST PUSH1 0x40 DUP1 MLOAD DUP6 DUP2 MSTORE PUSH1 0x20 DUP2 ADD DUP6 SWAP1 MSTORE CALLER SWAP2 PUSH32 0xC3991418CACD70A010FCE559A44FCBB47534CA43BF7543964BDCA2639F6E6E5A SWAP2 ADD PUSH1 0x40 MLOAD DUP1 SWAP2 SUB SWAP1 LOG2 POP POP POP POP JUMP JUMPDEST PUSH1 0x0 PUSH2 0x1724 PUSH1 0x1 PUSH32 0x0 PUSH2 0x29E4 JUMP JUMPDEST PUSH1 0xFF AND PUSH1 0x1 PUSH32 0x0 PUSH1 0xFF AND PUSH1 0x1 DUP6 PUSH2 0x175A SWAP2 SWAP1 PUSH2 0x29E4 JUMP JUMPDEST PUSH1 0xFF AND PUSH2 0x1788 PUSH1 0x1 PUSH32 0x0 PUSH2 0x2774 JUMP JUMPDEST PUSH2 0x1792 SWAP2 SWAP1 PUSH2 0x27B6 JUMP JUMPDEST PUSH2 0x179C SWAP2 SWAP1 PUSH2 0x278D JUMP JUMPDEST PUSH2 0x17A6 SWAP2 SWAP1 PUSH2 0x2774 JUMP JUMPDEST PUSH2 0x17B0 SWAP1 DUP6 PUSH2 0x27B6 JUMP JUMPDEST PUSH2 0x17BA SWAP2 SWAP1 PUSH2 0x2752 JUMP JUMPDEST SWAP4 SWAP3 POP POP POP JUMP JUMPDEST DUP1 DUP1 TIMESTAMP GT ISZERO PUSH2 0x17E2 JUMPI PUSH1 0x40 MLOAD PUSH3 0x461BCD PUSH1 0xE5 SHL DUP2 MSTORE PUSH1 0x4 ADD PUSH2 0x8B6 SWAP1 PUSH2 0x27E6 JUMP JUMPDEST PUSH1 0x0 DUP4 PUSH1 0xFF AND GT DUP1 ISZERO PUSH2 0x181B JUMPI POP PUSH32 0x0 PUSH1 0xFF AND DUP4 PUSH1 0xFF AND GT ISZERO JUMPDEST PUSH2 0x1850 JUMPI PUSH1 0x40 MLOAD PUSH3 0x461BCD PUSH1 0xE5 SHL DUP2 MSTORE PUSH1 0x20 PUSH1 0x4 DUP3 ADD MSTORE PUSH1 0x6 PUSH1 0x24 DUP3 ADD MSTORE PUSH6 0x359018BF1A99 PUSH1 0xD1 SHL PUSH1 0x44 DUP3 ADD MSTORE PUSH1 0x64 ADD PUSH2 0x8B6 JUMP JUMPDEST PUSH32 0x0 TIMESTAMP GT ISZERO DUP1 ISZERO PUSH2 0x18A0 JUMPI POP PUSH32 0x0 TIMESTAMP LT ISZERO JUMPDEST PUSH2 0x18E0 JUMPI PUSH1 0x40 MLOAD PUSH3 0x461BCD PUSH1 0xE5 SHL DUP2 MSTORE PUSH1 0x20 PUSH1 0x4 DUP3 ADD MSTORE PUSH1 0x11 PUSH1 0x24 DUP3 ADD MSTORE PUSH17 0x1B9BDD081A5B881D1A19481C195C9A5BD9 PUSH1 0x7A SHL PUSH1 0x44 DUP3 ADD MSTORE PUSH1 0x64 ADD PUSH2 0x8B6 JUMP JUMPDEST PUSH1 0x0 PUSH2 0x18EF PUSH3 0x93A80 TIMESTAMP PUSH2 0x2752 JUMP JUMPDEST PUSH2 0x18FA SWAP1 PUSH1 0x1 PUSH2 0x278D JUMP JUMPDEST SWAP1 POP PUSH1 0x0 PUSH2 0x1907 DUP7 PUSH2 0x221C JUMP JUMPDEST SWAP1 POP PUSH1 0x0 PUSH2 0x1915 DUP3 DUP8 PUSH2 0x16F7 JUMP JUMPDEST SWAP1 POP PUSH1 0x0 JUMPDEST DUP7 PUSH1 0xFF AND DUP2 PUSH1 0xFF AND LT ISZERO PUSH2 0x19AF JUMPI DUP2 PUSH1 0x4 PUSH1 0x0 PUSH2 0x193A PUSH1 0xFF DUP6 AND DUP9 PUSH2 0x278D JUMP JUMPDEST DUP2 MSTORE PUSH1 0x20 ADD SWAP1 DUP2 MSTORE PUSH1 0x20 ADD PUSH1 0x0 KECCAK256 PUSH1 0x0 DUP3 DUP3 SLOAD PUSH2 0x1957 SWAP2 SWAP1 PUSH2 0x278D JUMP JUMPDEST SWAP1 SWAP2 SSTORE POP POP CALLER PUSH1 0x0 SWAP1 DUP2 MSTORE PUSH1 0x2 PUSH1 0x20 MSTORE PUSH1 0x40 DUP2 KECCAK256 DUP4 SWAP2 PUSH2 0x197A PUSH1 0xFF DUP6 AND DUP9 PUSH2 0x278D JUMP JUMPDEST DUP2 MSTORE PUSH1 0x20 ADD SWAP1 DUP2 MSTORE PUSH1 0x20 ADD PUSH1 0x0 KECCAK256 PUSH1 0x0 DUP3 DUP3 SLOAD PUSH2 0x1997 SWAP2 SWAP1 PUSH2 0x278D JUMP JUMPDEST SWAP1 SWAP2 SSTORE POP DUP2 SWAP1 POP PUSH2 0x19A7 DUP2 PUSH2 0x29FD JUMP JUMPDEST SWAP2 POP POP PUSH2 0x191A JUMP JUMPDEST POP PUSH1 0x0 PUSH2 0x19BF PUSH1 0xFF DUP9 AND DUP6 PUSH2 0x278D JUMP JUMPDEST SWAP1 POP PUSH1 0x40 MLOAD DUP1 PUSH1 0x80 ADD PUSH1 0x40 MSTORE DUP1 CALLER PUSH1 0x1 PUSH1 0x1 PUSH1 0xA0 SHL SUB AND DUP2 MSTORE PUSH1 0x20 ADD DUP4 DUP2 MSTORE PUSH1 0x20 ADD DUP6 DUP2 MSTORE PUSH1 0x20 ADD DUP3 DUP2 MSTORE POP PUSH1 0x7 PUSH1 0x0 DUP11 DUP2 MSTORE PUSH1 0x20 ADD SWAP1 DUP2 MSTORE PUSH1 0x20 ADD PUSH1 0x0 KECCAK256 PUSH1 0x0 DUP3 ADD MLOAD DUP2 PUSH1 0x0 ADD PUSH1 0x0 PUSH2 0x100 EXP DUP2 SLOAD DUP2 PUSH1 0x1 PUSH1 0x1 PUSH1 0xA0 SHL SUB MUL NOT AND SWAP1 DUP4 PUSH1 0x1 PUSH1 0x1 PUSH1 0xA0 SHL SUB AND MUL OR SWAP1 SSTORE POP PUSH1 0x20 DUP3 ADD MLOAD DUP2 PUSH1 0x1 ADD SSTORE PUSH1 0x40 DUP3 ADD MLOAD DUP2 PUSH1 0x2 ADD SSTORE PUSH1 0x60 DUP3 ADD MLOAD DUP2 PUSH1 0x3 ADD SSTORE SWAP1 POP POP PUSH1 0x3 PUSH1 0x0 CALLER PUSH1 0x1 PUSH1 0x1 PUSH1 0xA0 SHL SUB AND PUSH1 0x1 PUSH1 0x1 PUSH1 0xA0 SHL SUB AND DUP2 MSTORE PUSH1 0x20 ADD SWAP1 DUP2 MSTORE PUSH1 0x20 ADD PUSH1 0x0 KECCAK256 PUSH1 0x1 PUSH1 0x2 DUP2 LT PUSH2 0x1A83 JUMPI PUSH2 0x1A83 PUSH2 0x27A0 JUMP JUMPDEST ADD SLOAD CALLER PUSH1 0x0 SWAP1 DUP2 MSTORE PUSH1 0x3 PUSH1 0x20 MSTORE PUSH1 0x40 SWAP1 KECCAK256 SLOAD SUB PUSH2 0x1AAD JUMPI CALLER PUSH1 0x0 SWAP1 DUP2 MSTORE PUSH1 0x3 PUSH1 0x20 MSTORE PUSH1 0x40 SWAP1 KECCAK256 DUP5 SWAP1 SSTORE JUMPDEST CALLER PUSH1 0x0 SWAP1 DUP2 MSTORE PUSH1 0x3 PUSH1 0x20 MSTORE PUSH1 0x40 SWAP1 KECCAK256 DUP2 SWAP1 PUSH1 0x1 ADD SLOAD LT ISZERO PUSH2 0x1ADE JUMPI CALLER PUSH1 0x0 SWAP1 DUP2 MSTORE PUSH1 0x3 PUSH1 0x20 MSTORE PUSH1 0x40 SWAP1 KECCAK256 DUP2 SWAP1 PUSH1 0x1 ADD SSTORE JUMPDEST CALLER PUSH1 0x0 DUP2 DUP2 MSTORE PUSH1 0x8 PUSH1 0x20 SWAP1 DUP2 MSTORE PUSH1 0x40 DUP1 DUP4 KECCAK256 DUP1 SLOAD PUSH1 0x1 DUP2 ADD DUP3 SSTORE SWAP1 DUP5 MSTORE SWAP3 DUP3 SWAP1 KECCAK256 SWAP1 SWAP3 ADD DUP12 SWAP1 SSTORE DUP2 MLOAD DUP12 DUP2 MSTORE SWAP1 DUP2 ADD DUP7 SWAP1 MSTORE PUSH1 0xFF DUP11 AND DUP2 DUP4 ADD MSTORE SWAP1 MLOAD PUSH32 0x6FA2F6021EE337436CDF2B2570285886DA18BC06402CE284D296504A0FE8F875 SWAP2 DUP2 SWAP1 SUB PUSH1 0x60 ADD SWAP1 LOG2 POP POP POP POP POP POP POP POP JUMP JUMPDEST PUSH1 0x0 DUP1 PUSH1 0xFF PUSH32 0x0 AND PUSH2 0x1B82 PUSH3 0x93A80 TIMESTAMP PUSH2 0x2752 JUMP JUMPDEST PUSH2 0x1B8C SWAP2 SWAP1 PUSH2 0x2774 JUMP JUMPDEST PUSH1 0x1 PUSH1 0x1 PUSH1 0xA0 SHL SUB DUP5 AND PUSH1 0x0 SWAP1 DUP2 MSTORE PUSH1 0x3 PUSH1 0x20 MSTORE PUSH1 0x40 DUP2 KECCAK256 SLOAD SWAP2 SWAP3 POP SWAP1 JUMPDEST PUSH1 0x1 PUSH1 0x1 PUSH1 0xA0 SHL SUB DUP6 AND PUSH1 0x0 SWAP1 DUP2 MSTORE PUSH1 0x3 PUSH1 0x20 MSTORE PUSH1 0x40 SWAP1 KECCAK256 PUSH1 0x1 ADD SLOAD DUP2 LT ISZERO PUSH2 0x1C51 JUMPI DUP3 DUP2 GT PUSH2 0x1C51 JUMPI PUSH1 0x0 DUP2 DUP2 MSTORE PUSH1 0x4 PUSH1 0x20 MSTORE PUSH1 0x40 SWAP1 KECCAK256 SLOAD ISZERO PUSH2 0x1C3F JUMPI PUSH1 0x0 DUP2 DUP2 MSTORE PUSH1 0x4 PUSH1 0x20 SWAP1 DUP2 MSTORE PUSH1 0x40 DUP1 DUP4 KECCAK256 SLOAD PUSH1 0x1 PUSH1 0x1 PUSH1 0xA0 SHL SUB DUP10 AND DUP5 MSTORE PUSH1 0x2 DUP4 MSTORE DUP2 DUP5 KECCAK256 DUP6 DUP6 MSTORE DUP4 MSTORE DUP2 DUP5 KECCAK256 SLOAD PUSH1 0x5 SWAP1 SWAP4 MSTORE SWAP3 KECCAK256 SLOAD PUSH2 0x1C28 SWAP2 SWAP1 PUSH2 0x27B6 JUMP JUMPDEST PUSH2 0x1C32 SWAP2 SWAP1 PUSH2 0x2752 JUMP JUMPDEST PUSH2 0x1C3C SWAP1 DUP4 PUSH2 0x278D JUMP JUMPDEST SWAP2 POP JUMPDEST DUP1 PUSH2 0x1C49 DUP2 PUSH2 0x27CD JUMP JUMPDEST SWAP2 POP POP PUSH2 0x1BAA JUMP JUMPDEST POP SWAP4 SWAP3 POP POP POP JUMP JUMPDEST CALLER PUSH1 0x0 SWAP1 DUP2 MSTORE PUSH1 0x8 PUSH1 0x20 MSTORE PUSH1 0x40 DUP2 KECCAK256 SLOAD PUSH1 0x60 SWAP2 SWAP1 DUP2 SWAP1 PUSH8 0xFFFFFFFFFFFFFFFF DUP2 GT ISZERO PUSH2 0x1C87 JUMPI PUSH2 0x1C87 PUSH2 0x2418 JUMP JUMPDEST PUSH1 0x40 MLOAD SWAP1 DUP1 DUP3 MSTORE DUP1 PUSH1 0x20 MUL PUSH1 0x20 ADD DUP3 ADD PUSH1 0x40 MSTORE DUP1 ISZERO PUSH2 0x1CB0 JUMPI DUP2 PUSH1 0x20 ADD PUSH1 0x20 DUP3 MUL DUP1 CALLDATASIZE DUP4 CALLDATACOPY ADD SWAP1 POP JUMPDEST POP SWAP1 POP PUSH1 0x0 PUSH2 0x1CC2 PUSH3 0x93A80 TIMESTAMP PUSH2 0x2752 JUMP JUMPDEST CALLER PUSH1 0x0 SWAP1 DUP2 MSTORE PUSH1 0x8 PUSH1 0x20 MSTORE PUSH1 0x40 DUP2 KECCAK256 SLOAD SWAP2 SWAP3 POP SWAP1 DUP2 JUMPDEST CALLER PUSH1 0x0 SWAP1 DUP2 MSTORE PUSH1 0x8 PUSH1 0x20 MSTORE PUSH1 0x40 SWAP1 KECCAK256 SLOAD DUP2 LT ISZERO PUSH2 0x1DAB JUMPI CALLER PUSH1 0x0 SWAP1 DUP2 MSTORE PUSH1 0x8 PUSH1 0x20 MSTORE PUSH1 0x40 DUP2 KECCAK256 DUP1 SLOAD DUP4 SWAP1 DUP2 LT PUSH2 0x1D10 JUMPI PUSH2 0x1D10 PUSH2 0x27A0 JUMP JUMPDEST SWAP1 PUSH1 0x0 MSTORE PUSH1 0x20 PUSH1 0x0 KECCAK256 ADD SLOAD SWAP1 POP DUP5 PUSH1 0x7 PUSH1 0x0 DUP4 DUP2 MSTORE PUSH1 0x20 ADD SWAP1 DUP2 MSTORE PUSH1 0x20 ADD PUSH1 0x0 KECCAK256 PUSH1 0x3 ADD SLOAD GT ISZERO PUSH2 0x1D6B JUMPI DUP1 DUP7 DUP6 DUP2 MLOAD DUP2 LT PUSH2 0x1D4E JUMPI PUSH2 0x1D4E PUSH2 0x27A0 JUMP JUMPDEST PUSH1 0x20 SWAP1 DUP2 MUL SWAP2 SWAP1 SWAP2 ADD ADD MSTORE DUP4 PUSH2 0x1D63 DUP2 PUSH2 0x27CD JUMP JUMPDEST SWAP5 POP POP PUSH2 0x1D98 JUMP JUMPDEST DUP3 PUSH2 0x1D75 DUP2 PUSH2 0x2A1C JUMP JUMPDEST SWAP4 POP POP DUP1 DUP7 DUP5 DUP2 MLOAD DUP2 LT PUSH2 0x1D8B JUMPI PUSH2 0x1D8B PUSH2 0x27A0 JUMP JUMPDEST PUSH1 0x20 MUL PUSH1 0x20 ADD ADD DUP2 DUP2 MSTORE POP POP JUMPDEST POP DUP1 PUSH2 0x1DA3 DUP2 PUSH2 0x27CD JUMP JUMPDEST SWAP2 POP POP PUSH2 0x1CD8 JUMP JUMPDEST POP SWAP3 SWAP6 SWAP3 SWAP5 POP SWAP2 SWAP3 POP POP POP JUMP JUMPDEST PUSH1 0x0 DUP1 PUSH1 0x0 DUP1 PUSH1 0x0 DUP1 PUSH1 0x0 PUSH32 0x0 PUSH1 0x1 PUSH1 0x1 PUSH1 0xA0 SHL SUB AND PUSH4 0x99FBAB88 DUP10 PUSH1 0x40 MLOAD DUP3 PUSH4 0xFFFFFFFF AND PUSH1 0xE0 SHL DUP2 MSTORE PUSH1 0x4 ADD PUSH2 0x1E11 SWAP2 DUP2 MSTORE PUSH1 0x20 ADD SWAP1 JUMP JUMPDEST PUSH2 0x180 PUSH1 0x40 MLOAD DUP1 DUP4 SUB DUP2 DUP7 GAS STATICCALL ISZERO DUP1 ISZERO PUSH2 0x1E2F JUMPI RETURNDATASIZE PUSH1 0x0 DUP1 RETURNDATACOPY RETURNDATASIZE PUSH1 0x0 REVERT JUMPDEST POP POP POP POP PUSH1 0x40 MLOAD RETURNDATASIZE PUSH1 0x1F NOT PUSH1 0x1F DUP3 ADD AND DUP3 ADD DUP1 PUSH1 0x40 MSTORE POP DUP2 ADD SWAP1 PUSH2 0x1E53 SWAP2 SWAP1 PUSH2 0x28AA JUMP JUMPDEST POP POP POP POP SWAP8 POP SWAP8 POP SWAP8 POP SWAP8 POP SWAP8 POP SWAP8 POP POP POP PUSH32 0x0 PUSH1 0x1 PUSH1 0x1 PUSH1 0xA0 SHL SUB AND DUP7 PUSH1 0x1 PUSH1 0x1 PUSH1 0xA0 SHL SUB AND EQ DUP1 ISZERO PUSH2 0x1ED7 JUMPI POP PUSH32 0x0 PUSH1 0x1 PUSH1 0x1 PUSH1 0xA0 SHL SUB AND DUP6 PUSH1 0x1 PUSH1 0x1 PUSH1 0xA0 SHL SUB AND EQ JUMPDEST DUP1 ISZERO PUSH2 0x1F0C JUMPI POP DUP4 PUSH3 0xFFFFFF AND PUSH32 0x0 PUSH3 0xFFFFFF AND EQ JUMPDEST PUSH2 0x1F48 JUMPI PUSH1 0x40 MLOAD PUSH3 0x461BCD PUSH1 0xE5 SHL DUP2 MSTORE PUSH1 0x20 PUSH1 0x4 DUP3 ADD MSTORE PUSH1 0xD PUSH1 0x24 DUP3 ADD MSTORE PUSH13 0x3638103830B4B91032B93937B9 PUSH1 0x99 SHL PUSH1 0x44 DUP3 ADD MSTORE PUSH1 0x64 ADD PUSH2 0x8B6 JUMP JUMPDEST PUSH32 0x0 PUSH1 0x2 SIGNEXTEND DUP4 PUSH1 0x2 SIGNEXTEND EQ DUP1 ISZERO PUSH2 0x1FA2 JUMPI POP PUSH32 0x0 PUSH1 0x2 SIGNEXTEND DUP3 PUSH1 0x2 SIGNEXTEND EQ JUMPDEST PUSH2 0x1FE1 JUMPI PUSH1 0x40 MLOAD PUSH3 0x461BCD PUSH1 0xE5 SHL DUP2 MSTORE PUSH1 0x20 PUSH1 0x4 DUP3 ADD MSTORE PUSH1 0x10 PUSH1 0x24 DUP3 ADD MSTORE PUSH16 0x3A34B1B5903930B733B29032B93937B9 PUSH1 0x81 SHL PUSH1 0x44 DUP3 ADD MSTORE PUSH1 0x64 ADD PUSH2 0x8B6 JUMP JUMPDEST PUSH1 0x1 PUSH1 0x1 PUSH1 0x80 SHL SUB AND SWAP8 SWAP7 POP POP POP POP POP POP POP JUMP JUMPDEST PUSH1 0x40 DUP1 MLOAD PUSH1 0x1 PUSH1 0x1 PUSH1 0xA0 SHL SUB DUP5 DUP2 AND PUSH1 0x24 DUP4 ADD MSTORE PUSH1 0x44 DUP1 DUP4 ADD DUP6 SWAP1 MSTORE DUP4 MLOAD DUP1 DUP5 SUB SWAP1 SWAP2 ADD DUP2 MSTORE PUSH1 0x64 SWAP1 SWAP3 ADD DUP4 MSTORE PUSH1 0x20 DUP3 ADD DUP1 MLOAD PUSH1 0x1 PUSH1 0x1 PUSH1 0xE0 SHL SUB AND PUSH4 0xA9059CBB PUSH1 0xE0 SHL OR SWAP1 MSTORE SWAP2 MLOAD PUSH1 0x0 SWAP3 DUP4 SWAP3 SWAP1 DUP8 AND SWAP2 PUSH2 0x2051 SWAP2 SWAP1 PUSH2 0x2A33 JUMP JUMPDEST PUSH1 0x0 PUSH1 0x40 MLOAD DUP1 DUP4 SUB DUP2 PUSH1 0x0 DUP7 GAS CALL SWAP2 POP POP RETURNDATASIZE DUP1 PUSH1 0x0 DUP2 EQ PUSH2 0x208E JUMPI PUSH1 0x40 MLOAD SWAP2 POP PUSH1 0x1F NOT PUSH1 0x3F RETURNDATASIZE ADD AND DUP3 ADD PUSH1 0x40 MSTORE RETURNDATASIZE DUP3 MSTORE RETURNDATASIZE PUSH1 0x0 PUSH1 0x20 DUP5 ADD RETURNDATACOPY PUSH2 0x2093 JUMP JUMPDEST PUSH1 0x60 SWAP2 POP JUMPDEST POP SWAP2 POP SWAP2 POP DUP2 DUP1 ISZERO PUSH2 0x20BD JUMPI POP DUP1 MLOAD ISZERO DUP1 PUSH2 0x20BD JUMPI POP DUP1 DUP1 PUSH1 0x20 ADD SWAP1 MLOAD DUP2 ADD SWAP1 PUSH2 0x20BD SWAP2 SWAP1 PUSH2 0x2A62 JUMP JUMPDEST PUSH2 0x20FB JUMPI PUSH1 0x40 MLOAD PUSH3 0x461BCD PUSH1 0xE5 SHL DUP2 MSTORE PUSH1 0x20 PUSH1 0x4 DUP3 ADD MSTORE PUSH1 0xF PUSH1 0x24 DUP3 ADD MSTORE PUSH15 0x1514905394D1915497D19052531151 PUSH1 0x8A SHL PUSH1 0x44 DUP3 ADD MSTORE PUSH1 0x64 ADD PUSH2 0x8B6 JUMP JUMPDEST POP POP POP POP POP JUMP JUMPDEST PUSH1 0x40 DUP1 MLOAD PUSH1 0x1 PUSH1 0x1 PUSH1 0xA0 SHL SUB DUP6 DUP2 AND PUSH1 0x24 DUP4 ADD MSTORE DUP5 DUP2 AND PUSH1 0x44 DUP4 ADD MSTORE PUSH1 0x64 DUP1 DUP4 ADD DUP6 SWAP1 MSTORE DUP4 MLOAD DUP1 DUP5 SUB SWAP1 SWAP2 ADD DUP2 MSTORE PUSH1 0x84 SWAP1 SWAP3 ADD DUP4 MSTORE PUSH1 0x20 DUP3 ADD DUP1 MLOAD PUSH1 0x1 PUSH1 0x1 PUSH1 0xE0 SHL SUB AND PUSH4 0x23B872DD PUSH1 0xE0 SHL OR SWAP1 MSTORE SWAP2 MLOAD PUSH1 0x0 SWAP3 DUP4 SWAP3 SWAP1 DUP9 AND SWAP2 PUSH2 0x2166 SWAP2 SWAP1 PUSH2 0x2A33 JUMP JUMPDEST PUSH1 0x0 PUSH1 0x40 MLOAD DUP1 DUP4 SUB DUP2 PUSH1 0x0 DUP7 GAS CALL SWAP2 POP POP RETURNDATASIZE DUP1 PUSH1 0x0 DUP2 EQ PUSH2 0x21A3 JUMPI PUSH1 0x40 MLOAD SWAP2 POP PUSH1 0x1F NOT PUSH1 0x3F RETURNDATASIZE ADD AND DUP3 ADD PUSH1 0x40 MSTORE RETURNDATASIZE DUP3 MSTORE RETURNDATASIZE PUSH1 0x0 PUSH1 0x20 DUP5 ADD RETURNDATACOPY PUSH2 0x21A8 JUMP JUMPDEST PUSH1 0x60 SWAP2 POP JUMPDEST POP SWAP2 POP SWAP2 POP DUP2 DUP1 ISZERO PUSH2 0x21D2 JUMPI POP DUP1 MLOAD ISZERO DUP1 PUSH2 0x21D2 JUMPI POP DUP1 DUP1 PUSH1 0x20 ADD SWAP1 MLOAD DUP2 ADD SWAP1 PUSH2 0x21D2 SWAP2 SWAP1 PUSH2 0x2A62 JUMP JUMPDEST PUSH2 0x2214 JUMPI PUSH1 0x40 MLOAD PUSH3 0x461BCD PUSH1 0xE5 SHL DUP2 MSTORE PUSH1 0x20 PUSH1 0x4 DUP3 ADD MSTORE PUSH1 0x13 PUSH1 0x24 DUP3 ADD MSTORE PUSH19 0x1D1C985B9CD9995C919C9BDB4819985A5B1959 PUSH1 0x6A SHL PUSH1 0x44 DUP3 ADD MSTORE PUSH1 0x64 ADD PUSH2 0x8B6 JUMP JUMPDEST POP POP POP POP POP POP JUMP JUMPDEST PUSH1 0x0 DUP1 PUSH2 0x2228 DUP4 PUSH2 0x1DB8 JUMP JUMPDEST PUSH1 0x40 MLOAD PUSH4 0x20604BF PUSH1 0xE2 SHL DUP2 MSTORE PUSH1 0x4 DUP2 ADD DUP6 SWAP1 MSTORE SWAP1 SWAP2 POP ADDRESS SWAP1 PUSH1 0x1 PUSH1 0x1 PUSH1 0xA0 SHL SUB PUSH32 0x0 AND SWAP1 PUSH4 0x81812FC SWAP1 PUSH1 0x24 ADD PUSH1 0x20 PUSH1 0x40 MLOAD DUP1 DUP4 SUB DUP2 DUP7 GAS STATICCALL ISZERO DUP1 ISZERO PUSH2 0x2292 JUMPI RETURNDATASIZE PUSH1 0x0 DUP1 RETURNDATACOPY RETURNDATASIZE PUSH1 0x0 REVERT JUMPDEST POP POP POP POP PUSH1 0x40 MLOAD RETURNDATASIZE PUSH1 0x1F NOT PUSH1 0x1F DUP3 ADD AND DUP3 ADD DUP1 PUSH1 0x40 MSTORE POP DUP2 ADD SWAP1 PUSH2 0x22B6 SWAP2 SWAP1 PUSH2 0x283B JUMP JUMPDEST PUSH1 0x1 PUSH1 0x1 PUSH1 0xA0 SHL SUB AND EQ PUSH2 0x22FA JUMPI PUSH1 0x40 MLOAD PUSH3 0x461BCD PUSH1 0xE5 SHL DUP2 MSTORE PUSH1 0x20 PUSH1 0x4 DUP3 ADD MSTORE PUSH1 0xB PUSH1 0x24 DUP3 ADD MSTORE PUSH11 0x6E6F7420617070726F7665 PUSH1 0xA8 SHL PUSH1 0x44 DUP3 ADD MSTORE PUSH1 0x64 ADD PUSH2 0x8B6 JUMP JUMPDEST PUSH1 0x40 MLOAD PUSH4 0x21421707 PUSH1 0xE1 SHL DUP2 MSTORE CALLER PUSH1 0x4 DUP3 ADD MSTORE ADDRESS PUSH1 0x24 DUP3 ADD MSTORE PUSH1 0x44 DUP2 ADD DUP5 SWAP1 MSTORE PUSH32 0x0 PUSH1 0x1 PUSH1 0x1 PUSH1 0xA0 SHL SUB AND SWAP1 PUSH4 0x42842E0E SWAP1 PUSH1 0x64 ADD PUSH1 0x0 PUSH1 0x40 MLOAD DUP1 DUP4 SUB DUP2 PUSH1 0x0 DUP8 DUP1 EXTCODESIZE ISZERO DUP1 ISZERO PUSH2 0x2368 JUMPI PUSH1 0x0 DUP1 REVERT JUMPDEST POP GAS CALL ISZERO DUP1 ISZERO PUSH2 0x237C JUMPI RETURNDATASIZE PUSH1 0x0 DUP1 RETURNDATACOPY RETURNDATASIZE PUSH1 0x0 REVERT JUMPDEST POP SWAP3 SWAP6 SWAP5 POP POP POP POP POP JUMP JUMPDEST PUSH1 0x1 PUSH1 0x1 PUSH1 0xA0 SHL SUB DUP2 AND DUP2 EQ PUSH2 0x239C JUMPI PUSH1 0x0 DUP1 REVERT JUMPDEST POP JUMP JUMPDEST PUSH1 0x0 PUSH1 0x20 DUP3 DUP5 SUB SLT ISZERO PUSH2 0x23B1 JUMPI PUSH1 0x0 DUP1 REVERT JUMPDEST DUP2 CALLDATALOAD PUSH2 0x17BA DUP2 PUSH2 0x2387 JUMP JUMPDEST PUSH1 0x0 DUP2 MLOAD DUP1 DUP5 MSTORE PUSH1 0x20 DUP1 DUP6 ADD SWAP5 POP DUP1 DUP5 ADD PUSH1 0x0 JUMPDEST DUP4 DUP2 LT ISZERO PUSH2 0x23EC JUMPI DUP2 MLOAD DUP8 MSTORE SWAP6 DUP3 ADD SWAP6 SWAP1 DUP3 ADD SWAP1 PUSH1 0x1 ADD PUSH2 0x23D0 JUMP JUMPDEST POP SWAP5 SWAP6 SWAP5 POP POP POP POP POP JUMP JUMPDEST DUP3 DUP2 MSTORE PUSH1 0x40 PUSH1 0x20 DUP3 ADD MSTORE PUSH1 0x0 PUSH2 0x2410 PUSH1 0x40 DUP4 ADD DUP5 PUSH2 0x23BC JUMP JUMPDEST SWAP5 SWAP4 POP POP POP POP JUMP JUMPDEST PUSH4 0x4E487B71 PUSH1 0xE0 SHL PUSH1 0x0 MSTORE PUSH1 0x41 PUSH1 0x4 MSTORE PUSH1 0x24 PUSH1 0x0 REVERT JUMPDEST PUSH1 0x40 MLOAD PUSH1 0x1F DUP3 ADD PUSH1 0x1F NOT AND DUP2 ADD PUSH8 0xFFFFFFFFFFFFFFFF DUP2 GT DUP3 DUP3 LT OR ISZERO PUSH2 0x2457 JUMPI PUSH2 0x2457 PUSH2 0x2418 JUMP JUMPDEST PUSH1 0x40 MSTORE SWAP2 SWAP1 POP JUMP JUMPDEST PUSH1 0x0 DUP3 PUSH1 0x1F DUP4 ADD SLT PUSH2 0x2470 JUMPI PUSH1 0x0 DUP1 REVERT JUMPDEST DUP2 CALLDATALOAD PUSH1 0x20 PUSH8 0xFFFFFFFFFFFFFFFF DUP3 GT ISZERO PUSH2 0x248C JUMPI PUSH2 0x248C PUSH2 0x2418 JUMP JUMPDEST DUP2 PUSH1 0x5 SHL PUSH2 0x249B DUP3 DUP3 ADD PUSH2 0x242E JUMP JUMPDEST SWAP3 DUP4 MSTORE DUP5 DUP2 ADD DUP3 ADD SWAP3 DUP3 DUP2 ADD SWAP1 DUP8 DUP6 GT ISZERO PUSH2 0x24B5 JUMPI PUSH1 0x0 DUP1 REVERT JUMPDEST DUP4 DUP8 ADD SWAP3 POP JUMPDEST DUP5 DUP4 LT ISZERO PUSH2 0x24D4 JUMPI DUP3 CALLDATALOAD DUP3 MSTORE SWAP2 DUP4 ADD SWAP2 SWAP1 DUP4 ADD SWAP1 PUSH2 0x24BB JUMP JUMPDEST SWAP8 SWAP7 POP POP POP POP POP POP POP JUMP JUMPDEST PUSH1 0x0 DUP1 PUSH1 0x0 PUSH1 0x60 DUP5 DUP7 SUB SLT ISZERO PUSH2 0x24F4 JUMPI PUSH1 0x0 DUP1 REVERT JUMPDEST DUP4 CALLDATALOAD PUSH8 0xFFFFFFFFFFFFFFFF DUP1 DUP3 GT ISZERO PUSH2 0x250C JUMPI PUSH1 0x0 DUP1 REVERT JUMPDEST PUSH2 0x2518 DUP8 DUP4 DUP9 ADD PUSH2 0x245F JUMP JUMPDEST SWAP5 POP PUSH1 0x20 DUP7 ADD CALLDATALOAD SWAP2 POP DUP1 DUP3 GT ISZERO PUSH2 0x252E JUMPI PUSH1 0x0 DUP1 REVERT JUMPDEST POP PUSH2 0x253B DUP7 DUP3 DUP8 ADD PUSH2 0x245F JUMP JUMPDEST SWAP3 POP POP PUSH1 0x40 DUP5 ADD CALLDATALOAD SWAP1 POP SWAP3 POP SWAP3 POP SWAP3 JUMP JUMPDEST PUSH1 0x0 PUSH1 0x20 DUP3 DUP5 SUB SLT ISZERO PUSH2 0x255E JUMPI PUSH1 0x0 DUP1 REVERT JUMPDEST POP CALLDATALOAD SWAP2 SWAP1 POP JUMP JUMPDEST PUSH1 0x0 DUP1 PUSH1 0x0 DUP1 PUSH1 0x80 DUP6 DUP8 SUB SLT ISZERO PUSH2 0x257B JUMPI PUSH1 0x0 DUP1 REVERT JUMPDEST DUP5 CALLDATALOAD PUSH2 0x2586 DUP2 PUSH2 0x2387 JUMP JUMPDEST SWAP4 POP PUSH1 0x20 DUP6 DUP2 ADD CALLDATALOAD PUSH2 0x2597 DUP2 PUSH2 0x2387 JUMP JUMPDEST SWAP4 POP PUSH1 0x40 DUP7 ADD CALLDATALOAD SWAP3 POP PUSH1 0x60 DUP7 ADD CALLDATALOAD PUSH8 0xFFFFFFFFFFFFFFFF DUP1 DUP3 GT ISZERO PUSH2 0x25BB JUMPI PUSH1 0x0 DUP1 REVERT JUMPDEST DUP2 DUP9 ADD SWAP2 POP DUP9 PUSH1 0x1F DUP4 ADD SLT PUSH2 0x25CF JUMPI PUSH1 0x0 DUP1 REVERT JUMPDEST DUP2 CALLDATALOAD DUP2 DUP2 GT ISZERO PUSH2 0x25E1 JUMPI PUSH2 0x25E1 PUSH2 0x2418 JUMP JUMPDEST PUSH2 0x25F3 PUSH1 0x1F DUP3 ADD PUSH1 0x1F NOT AND DUP6 ADD PUSH2 0x242E JUMP JUMPDEST SWAP2 POP DUP1 DUP3 MSTORE DUP10 DUP5 DUP3 DUP6 ADD ADD GT ISZERO PUSH2 0x2609 JUMPI PUSH1 0x0 DUP1 REVERT JUMPDEST DUP1 DUP5 DUP5 ADD DUP6 DUP5 ADD CALLDATACOPY PUSH1 0x0 DUP5 DUP3 DUP5 ADD ADD MSTORE POP DUP1 SWAP4 POP POP POP POP SWAP3 SWAP6 SWAP2 SWAP5 POP SWAP3 POP JUMP JUMPDEST PUSH1 0x0 DUP1 PUSH1 0x0 PUSH1 0x60 DUP5 DUP7 SUB SLT ISZERO PUSH2 0x263E JUMPI PUSH1 0x0 DUP1 REVERT JUMPDEST POP POP DUP2 CALLDATALOAD SWAP4 PUSH1 0x20 DUP4 ADD CALLDATALOAD SWAP4 POP PUSH1 0x40 SWAP1 SWAP3 ADD CALLDATALOAD SWAP2 SWAP1 POP JUMP JUMPDEST PUSH1 0x0 DUP1 PUSH1 0x40 DUP4 DUP6 SUB SLT ISZERO PUSH2 0x2668 JUMPI PUSH1 0x0 DUP1 REVERT JUMPDEST DUP3 CALLDATALOAD PUSH2 0x2673 DUP2 PUSH2 0x2387 JUMP JUMPDEST SWAP5 PUSH1 0x20 SWAP4 SWAP1 SWAP4 ADD CALLDATALOAD SWAP4 POP POP POP JUMP JUMPDEST PUSH1 0x0 DUP1 PUSH1 0x40 DUP4 DUP6 SUB SLT ISZERO PUSH2 0x2694 JUMPI PUSH1 0x0 DUP1 REVERT JUMPDEST POP POP DUP1 CALLDATALOAD SWAP3 PUSH1 0x20 SWAP1 SWAP2 ADD CALLDATALOAD SWAP2 POP JUMP JUMPDEST DUP1 CALLDATALOAD PUSH1 0xFF DUP2 AND DUP2 EQ PUSH2 0x26B4 JUMPI PUSH1 0x0 DUP1 REVERT JUMPDEST SWAP2 SWAP1 POP JUMP JUMPDEST PUSH1 0x0 DUP1 PUSH1 0x40 DUP4 DUP6 SUB SLT ISZERO PUSH2 0x26CC JUMPI PUSH1 0x0 DUP1 REVERT JUMPDEST DUP3 CALLDATALOAD SWAP2 POP PUSH2 0x26DC PUSH1 0x20 DUP5 ADD PUSH2 0x26A3 JUMP JUMPDEST SWAP1 POP SWAP3 POP SWAP3 SWAP1 POP JUMP JUMPDEST PUSH1 0x0 DUP1 PUSH1 0x0 PUSH1 0x60 DUP5 DUP7 SUB SLT ISZERO PUSH2 0x26FA JUMPI PUSH1 0x0 DUP1 REVERT JUMPDEST DUP4 CALLDATALOAD SWAP3 POP PUSH2 0x270A PUSH1 0x20 DUP6 ADD PUSH2 0x26A3 JUMP JUMPDEST SWAP2 POP PUSH1 0x40 DUP5 ADD CALLDATALOAD SWAP1 POP SWAP3 POP SWAP3 POP SWAP3 JUMP JUMPDEST PUSH1 0x40 DUP2 MSTORE PUSH1 0x0 PUSH2 0x272D PUSH1 0x40 DUP4 ADD DUP6 PUSH2 0x23BC JUMP JUMPDEST SWAP1 POP DUP3 PUSH1 0x20 DUP4 ADD MSTORE SWAP4 SWAP3 POP POP POP JUMP JUMPDEST PUSH4 0x4E487B71 PUSH1 0xE0 SHL PUSH1 0x0 MSTORE PUSH1 0x11 PUSH1 0x4 MSTORE PUSH1 0x24 PUSH1 0x0 REVERT JUMPDEST PUSH1 0x0 DUP3 PUSH2 0x276F JUMPI PUSH4 0x4E487B71 PUSH1 0xE0 SHL PUSH1 0x0 MSTORE PUSH1 0x12 PUSH1 0x4 MSTORE PUSH1 0x24 PUSH1 0x0 REVERT JUMPDEST POP DIV SWAP1 JUMP JUMPDEST DUP2 DUP2 SUB DUP2 DUP2 GT ISZERO PUSH2 0x2787 JUMPI PUSH2 0x2787 PUSH2 0x273C JUMP JUMPDEST SWAP3 SWAP2 POP POP JUMP JUMPDEST DUP1 DUP3 ADD DUP1 DUP3 GT ISZERO PUSH2 0x2787 JUMPI PUSH2 0x2787 PUSH2 0x273C JUMP JUMPDEST PUSH4 0x4E487B71 PUSH1 0xE0 SHL PUSH1 0x0 MSTORE PUSH1 0x32 PUSH1 0x4 MSTORE PUSH1 0x24 PUSH1 0x0 REVERT JUMPDEST DUP1 DUP3 MUL DUP2 ISZERO DUP3 DUP3 DIV DUP5 EQ OR PUSH2 0x2787 JUMPI PUSH2 0x2787 PUSH2 0x273C JUMP JUMPDEST PUSH1 0x0 PUSH1 0x1 DUP3 ADD PUSH2 0x27DF JUMPI PUSH2 0x27DF PUSH2 0x273C JUMP JUMPDEST POP PUSH1 0x1 ADD SWAP1 JUMP JUMPDEST PUSH1 0x20 DUP1 DUP3 MSTORE PUSH1 0xD SWAP1 DUP3 ADD MSTORE PUSH13 0x6F76657220646561646C696E65 PUSH1 0x98 SHL PUSH1 0x40 DUP3 ADD MSTORE PUSH1 0x60 ADD SWAP1 JUMP JUMPDEST PUSH1 0x20 DUP1 DUP3 MSTORE PUSH1 0x9 SWAP1 DUP3 ADD MSTORE PUSH9 0x3337B93134B23232B7 PUSH1 0xB9 SHL PUSH1 0x40 DUP3 ADD MSTORE PUSH1 0x60 ADD SWAP1 JUMP JUMPDEST DUP1 MLOAD PUSH2 0x26B4 DUP2 PUSH2 0x2387 JUMP JUMPDEST PUSH1 0x0 PUSH1 0x20 DUP3 DUP5 SUB SLT ISZERO PUSH2 0x284D JUMPI PUSH1 0x0 DUP1 REVERT JUMPDEST DUP2 MLOAD PUSH2 0x17BA DUP2 PUSH2 0x2387 JUMP JUMPDEST PUSH4 0x4E487B71 PUSH1 0xE0 SHL PUSH1 0x0 MSTORE PUSH1 0x31 PUSH1 0x4 MSTORE PUSH1 0x24 PUSH1 0x0 REVERT JUMPDEST DUP1 MLOAD PUSH3 0xFFFFFF DUP2 AND DUP2 EQ PUSH2 0x26B4 JUMPI PUSH1 0x0 DUP1 REVERT JUMPDEST DUP1 MLOAD PUSH1 0x2 DUP2 SWAP1 SIGNEXTEND DUP2 EQ PUSH2 0x26B4 JUMPI PUSH1 0x0 DUP1 REVERT JUMPDEST DUP1 MLOAD PUSH1 0x1 PUSH1 0x1 PUSH1 0x80 SHL SUB DUP2 AND DUP2 EQ PUSH2 0x26B4 JUMPI PUSH1 0x0 DUP1 REVERT JUMPDEST PUSH1 0x0 DUP1 PUSH1 0x0 DUP1 PUSH1 0x0 DUP1 PUSH1 0x0 DUP1 PUSH1 0x0 DUP1 PUSH1 0x0 DUP1 PUSH2 0x180 DUP14 DUP16 SUB SLT ISZERO PUSH2 0x28CD JUMPI PUSH1 0x0 DUP1 REVERT JUMPDEST DUP13 MLOAD PUSH12 0xFFFFFFFFFFFFFFFFFFFFFFFF DUP2 AND DUP2 EQ PUSH2 0x28E9 JUMPI PUSH1 0x0 DUP1 REVERT JUMPDEST SWAP12 POP PUSH2 0x28F7 PUSH1 0x20 DUP15 ADD PUSH2 0x2830 JUMP JUMPDEST SWAP11 POP PUSH2 0x2905 PUSH1 0x40 DUP15 ADD PUSH2 0x2830 JUMP JUMPDEST SWAP10 POP PUSH2 0x2913 PUSH1 0x60 DUP15 ADD PUSH2 0x2830 JUMP JUMPDEST SWAP9 POP PUSH2 0x2921 PUSH1 0x80 DUP15 ADD PUSH2 0x286E JUMP JUMPDEST SWAP8 POP PUSH2 0x292F PUSH1 0xA0 DUP15 ADD PUSH2 0x2881 JUMP JUMPDEST SWAP7 POP PUSH2 0x293D PUSH1 0xC0 DUP15 ADD PUSH2 0x2881 JUMP JUMPDEST SWAP6 POP PUSH2 0x294B PUSH1 0xE0 DUP15 ADD PUSH2 0x2893 JUMP JUMPDEST SWAP5 POP PUSH2 0x100 DUP14 ADD MLOAD SWAP4 POP PUSH2 0x120 DUP14 ADD MLOAD SWAP3 POP PUSH2 0x296A PUSH2 0x140 DUP15 ADD PUSH2 0x2893 JUMP JUMPDEST SWAP2 POP PUSH2 0x2979 PUSH2 0x160 DUP15 ADD PUSH2 0x2893 JUMP JUMPDEST SWAP1 POP SWAP3 SWAP6 SWAP9 SWAP12 POP SWAP3 SWAP6 SWAP9 SWAP12 POP SWAP3 SWAP6 SWAP9 SWAP12 JUMP JUMPDEST PUSH1 0x0 DUP1 PUSH1 0x40 DUP4 DUP6 SUB SLT ISZERO PUSH2 0x299E JUMPI PUSH1 0x0 DUP1 REVERT JUMPDEST POP POP DUP1 MLOAD PUSH1 0x20 SWAP1 SWAP2 ADD MLOAD SWAP1 SWAP3 SWAP1 SWAP2 POP JUMP JUMPDEST PUSH1 0x0 DUP1 PUSH1 0x0 PUSH1 0x60 DUP5 DUP7 SUB SLT ISZERO PUSH2 0x29C4 JUMPI PUSH1 0x0 DUP1 REVERT JUMPDEST PUSH2 0x29CD DUP5 PUSH2 0x2893 JUMP JUMPDEST SWAP3 POP PUSH1 0x20 DUP5 ADD MLOAD SWAP2 POP PUSH1 0x40 DUP5 ADD MLOAD SWAP1 POP SWAP3 POP SWAP3 POP SWAP3 JUMP JUMPDEST PUSH1 0xFF DUP3 DUP2 AND DUP3 DUP3 AND SUB SWAP1 DUP2 GT ISZERO PUSH2 0x2787 JUMPI PUSH2 0x2787 PUSH2 0x273C JUMP JUMPDEST PUSH1 0x0 PUSH1 0xFF DUP3 AND PUSH1 0xFF DUP2 SUB PUSH2 0x2A13 JUMPI PUSH2 0x2A13 PUSH2 0x273C JUMP JUMPDEST PUSH1 0x1 ADD SWAP3 SWAP2 POP POP JUMP JUMPDEST PUSH1 0x0 DUP2 PUSH2 0x2A2B JUMPI PUSH2 0x2A2B PUSH2 0x273C JUMP JUMPDEST POP PUSH1 0x0 NOT ADD SWAP1 JUMP JUMPDEST PUSH1 0x0 DUP3 MLOAD PUSH1 0x0 JUMPDEST DUP2 DUP2 LT ISZERO PUSH2 0x2A54 JUMPI PUSH1 0x20 DUP2 DUP7 ADD DUP2 ADD MLOAD DUP6 DUP4 ADD MSTORE ADD PUSH2 0x2A3A JUMP JUMPDEST POP PUSH1 0x0 SWAP3 ADD SWAP2 DUP3 MSTORE POP SWAP2 SWAP1 POP JUMP JUMPDEST PUSH1 0x0 PUSH1 0x20 DUP3 DUP5 SUB SLT ISZERO PUSH2 0x2A74 JUMPI PUSH1 0x0 DUP1 REVERT JUMPDEST DUP2 MLOAD DUP1 ISZERO ISZERO DUP2 EQ PUSH2 0x17BA JUMPI PUSH1 0x0 DUP1 REVERT INVALID LOG2 PUSH5 0x6970667358 0x22 SLT KECCAK256 DUP6 0xC8 0xAF MSTORE 0xC0 0xBB PUSH6 0x3D2E774945B6 0xBE 0x4B 0xE8 CREATE LOG3 CREATE2 SWAP7 NOT 0x2A CALLDATACOPY LOG3 BASEFEE 0x24 0x28 0xD4 0xC4 PUSH26 0xA2C564736F6C6343000811003300000000000000000000000000 "},"methodIdentifiers":{"BEGIN_TIME()":"c75363b6","END_TIME()":"37ba682d","LOCK_WEEKNUM()":"0d437d40","MAX_SCALE()":"f6def7cf","MAX_TICK()":"6882a888","MAX_WEEKS()":"e11400bb","MIN_TICK()":"a1634b14","WEEK_SECONDS()":"cd671a58","acceptSetter()":"5f8e422f","canClaimAmount(address)":"fa60c77c","claimReward(uint256)":"ae169a50","fee()":"ddca3f43","getScore(uint256,uint8)":"ee3453ed","getUserNFTs()":"fdc5ab8e","latestNo()":"29ed1cfd","lockedRewardAmount(address)":"02e9e495","nftToken()":"d06fcba8","onERC721Received(address,address,uint256,bytes)":"150b7a02","owner()":"8da5cb5b","rewardToken()":"f7c618c1","rewardsOf(uint256)":"0bce1284","setReward(uint256,uint256,uint256)":"e1c05d93","setRewards(uint256[],uint256[],uint256)":"07c6e2fa","stake(uint256,uint8,uint256)":"f99b7d75","stakingNFTs(uint256)":"10c6c1c2","token0()":"0dfe1681","token1()":"d21220a7","totalScores(uint256)":"157775df","transferOwner(address)":"4fb2e45d","userCanClaimWeeks(address,uint256)":"bb57852d","userNFTs(address,uint256)":"291c73c3","userScores(address,uint256)":"5b680a45","withdraw(uint256,uint256)":"441a3e70","withdrawAndMerge(uint256,uint256,uint256)":"1a906d65"}}}}}