{"contracts/stakeERC20.sol":{"StakeERC20":{"abi":[{"inputs":[{"internalType":"uint8","name":"maxWeeks","type":"uint8"},{"internalType":"uint256","name":"maxScale","type":"uint256"},{"internalType":"uint8","name":"lockWeeks","type":"uint8"},{"internalType":"uint256","name":"beginTime","type":"uint256"},{"internalType":"uint256","name":"endTime","type":"uint256"},{"internalType":"address","name":"_rewardToken","type":"address"},{"internalType":"address","name":"_lpToken","type":"address"}],"stateMutability":"nonpayable","type":"constructor"},{"anonymous":false,"inputs":[{"indexed":true,"internalType":"address","name":"user","type":"address"},{"indexed":false,"internalType":"uint256","name":"amount","type":"uint256"}],"name":"ClaimReward","type":"event"},{"anonymous":false,"inputs":[{"indexed":true,"internalType":"address","name":"user","type":"address"},{"indexed":false,"internalType":"uint256","name":"no","type":"uint256"},{"indexed":false,"internalType":"uint256","name":"amount","type":"uint256"}],"name":"SetReward","type":"event"},{"anonymous":false,"inputs":[{"indexed":true,"internalType":"address","name":"user","type":"address"},{"indexed":false,"internalType":"uint256","name":"id","type":"uint256"},{"indexed":false,"internalType":"uint256","name":"amount","type":"uint256"},{"indexed":false,"internalType":"uint8","name":"k","type":"uint8"}],"name":"Stake","type":"event"},{"anonymous":false,"inputs":[{"indexed":true,"internalType":"address","name":"user","type":"address"},{"indexed":false,"internalType":"uint256","name":"amount","type":"uint256"}],"name":"Withdraw","type":"event"},{"inputs":[],"name":"BEGIN_TIME","outputs":[{"internalType":"uint256","name":"","type":"uint256"}],"stateMutability":"view","type":"function"},{"inputs":[],"name":"END_TIME","outputs":[{"internalType":"uint256","name":"","type":"uint256"}],"stateMutability":"view","type":"function"},{"inputs":[],"name":"LOCK_WEEKNUM","outputs":[{"internalType":"uint8","name":"","type":"uint8"}],"stateMutability":"view","type":"function"},{"inputs":[],"name":"MAX_SCALE","outputs":[{"internalType":"uint256","name":"","type":"uint256"}],"stateMutability":"view","type":"function"},{"inputs":[],"name":"MAX_WEEKS","outputs":[{"internalType":"uint8","name":"","type":"uint8"}],"stateMutability":"view","type":"function"},{"inputs":[],"name":"WEEK_SECONDS","outputs":[{"internalType":"uint24","name":"","type":"uint24"}],"stateMutability":"view","type":"function"},{"inputs":[],"name":"acceptSetter","outputs":[],"stateMutability":"nonpayable","type":"function"},{"inputs":[],"name":"canClaimAmount","outputs":[{"internalType":"uint256","name":"","type":"uint256"}],"stateMutability":"view","type":"function"},{"inputs":[{"internalType":"uint256","name":"deadline","type":"uint256"}],"name":"claimReward","outputs":[],"stateMutability":"nonpayable","type":"function"},{"inputs":[{"internalType":"uint256","name":"amount","type":"uint256"},{"internalType":"uint8","name":"k","type":"uint8"}],"name":"getScore","outputs":[{"internalType":"uint256","name":"score","type":"uint256"}],"stateMutability":"view","type":"function"},{"inputs":[],"name":"getStaking","outputs":[{"components":[{"internalType":"uint256","name":"amount","type":"uint256"},{"internalType":"uint256","name":"score","type":"uint256"},{"internalType":"uint256","name":"beginNo","type":"uint256"},{"internalType":"uint256","name":"endNo","type":"uint256"}],"internalType":"struct StakeERC20.StakingERC20[]","name":"","type":"tuple[]"}],"stateMutability":"view","type":"function"},{"inputs":[],"name":"latestNo","outputs":[{"internalType":"uint256","name":"","type":"uint256"}],"stateMutability":"view","type":"function"},{"inputs":[],"name":"lockedRewardAmount","outputs":[{"internalType":"uint256","name":"","type":"uint256"},{"internalType":"uint256[]","name":"","type":"uint256[]"}],"stateMutability":"view","type":"function"},{"inputs":[],"name":"lpToken","outputs":[{"internalType":"address","name":"","type":"address"}],"stateMutability":"view","type":"function"},{"inputs":[],"name":"nonce","outputs":[{"internalType":"uint256","name":"","type":"uint256"}],"stateMutability":"view","type":"function"},{"inputs":[],"name":"owner","outputs":[{"internalType":"address","name":"","type":"address"}],"stateMutability":"view","type":"function"},{"inputs":[],"name":"rewardToken","outputs":[{"internalType":"address","name":"","type":"address"}],"stateMutability":"view","type":"function"},{"inputs":[{"internalType":"uint256","name":"","type":"uint256"}],"name":"rewardsOf","outputs":[{"internalType":"uint256","name":"","type":"uint256"}],"stateMutability":"view","type":"function"},{"inputs":[{"internalType":"uint256","name":"no","type":"uint256"},{"internalType":"uint256","name":"amount","type":"uint256"},{"internalType":"uint256","name":"deadline","type":"uint256"}],"name":"setReward","outputs":[],"stateMutability":"nonpayable","type":"function"},{"inputs":[{"internalType":"uint256[]","name":"nos","type":"uint256[]"},{"internalType":"uint256[]","name":"amounts","type":"uint256[]"},{"internalType":"uint256","name":"deadline","type":"uint256"}],"name":"setRewards","outputs":[{"internalType":"uint256","name":"total","type":"uint256"}],"stateMutability":"nonpayable","type":"function"},{"inputs":[{"internalType":"uint256","name":"amount","type":"uint256"},{"internalType":"uint8","name":"k","type":"uint8"},{"internalType":"uint256","name":"deadline","type":"uint256"}],"name":"stake","outputs":[],"stateMutability":"nonpayable","type":"function"},{"inputs":[{"internalType":"uint256","name":"","type":"uint256"}],"name":"stakingERC20s","outputs":[{"internalType":"uint256","name":"amount","type":"uint256"},{"internalType":"uint256","name":"score","type":"uint256"},{"internalType":"uint256","name":"beginNo","type":"uint256"},{"internalType":"uint256","name":"endNo","type":"uint256"}],"stateMutability":"view","type":"function"},{"inputs":[{"internalType":"uint256","name":"","type":"uint256"}],"name":"totalScores","outputs":[{"internalType":"uint256","name":"","type":"uint256"}],"stateMutability":"view","type":"function"},{"inputs":[{"internalType":"address","name":"_owner","type":"address"}],"name":"transferOwner","outputs":[],"stateMutability":"nonpayable","type":"function"},{"inputs":[{"internalType":"address","name":"","type":"address"},{"internalType":"uint256","name":"","type":"uint256"}],"name":"userCanClaimWeeks","outputs":[{"internalType":"uint256","name":"","type":"uint256"}],"stateMutability":"view","type":"function"},{"inputs":[{"internalType":"address","name":"","type":"address"},{"internalType":"uint256","name":"","type":"uint256"}],"name":"userERC20s","outputs":[{"internalType":"uint256","name":"","type":"uint256"}],"stateMutability":"view","type":"function"},{"inputs":[{"internalType":"address","name":"","type":"address"},{"internalType":"uint256","name":"","type":"uint256"}],"name":"userScores","outputs":[{"internalType":"uint256","name":"","type":"uint256"}],"stateMutability":"view","type":"function"},{"inputs":[{"internalType":"uint256","name":"deadline","type":"uint256"}],"name":"withdraw","outputs":[{"internalType":"uint256","name":"total","type":"uint256"}],"stateMutability":"nonpayable","type":"function"},{"inputs":[{"internalType":"uint256","name":"amount","type":"uint256"},{"internalType":"uint256","name":"deadline","type":"uint256"}],"name":"withdrawRewards","outputs":[],"stateMutability":"nonpayable","type":"function"}],"evm":{"bytecode":{"linkReferences":{},"object":"6101606040523480156200001257600080fd5b5060405162001ea938038062001ea98339810160408190526200003591620000ac565b6001600160a01b0391821660805260ff96871660a05260c0959095529490921660e0526101005261012052600080546001600160a01b03191633179055166101405262000126565b805160ff811681146200008f57600080fd5b919050565b80516001600160a01b03811681146200008f57600080fd5b600080600080600080600060e0888a031215620000c857600080fd5b620000d3886200007d565b965060208801519550620000ea604089016200007d565b945060608801519350608088015192506200010860a0890162000094565b91506200011860c0890162000094565b905092959891949750929550565b60805160a05160c05160e051610100516101205161014051611caa620001ff600039600081816103160152818161088d01526113850152600081816102940152818161104e01526112d701526000818161043201528181611079015261130201526000818161021f01528181610b4e01528181610c3701528181610ddd0152610e410152600081816104c301526111e901526000818161047601528181611185015281816111b001526112770152600081816104ea015281816106920152818161098c01528181610f4901526110e10152611caa6000f3fe608060405234801561001057600080fd5b50600436106101cf5760003560e01c80638923de2b11610104578063c75363b6116100a2578063ee3453ed11610071578063ee3453ed146104ab578063f6def7cf146104be578063f7c618c1146104e5578063f99b7d751461050c57600080fd5b8063c75363b61461042d578063cd671a5814610454578063e11400bb14610471578063e1c05d931461049857600080fd5b8063ae169a50116100de578063ae169a50146103eb578063affed0e0146103fe578063ba08650114610407578063bb57852d1461041a57600080fd5b80638923de2b1461036d5780638da5cb5b14610383578063a218de151461039657600080fd5b80634fb2e45d116101715780635f8e422f1161014b5780635f8e422f146103095780635fcbd285146103115780637b1391a6146103505780638431165e1461036557600080fd5b80634fb2e45d146102b657806352cb5133146102cb5780635b680a45146102de57600080fd5b8063157775df116101ad578063157775df1461025357806329ed1cfd146102735780632e1a7d4d1461027c57806337ba682d1461028f57600080fd5b806307c6e2fa146101d45780630bce1284146101fa5780630d437d401461021a575b600080fd5b6101e76101e2366004611871565b61051f565b6040519081526020015b60405180910390f35b6101e76102083660046118de565b60056020526000908152604090205481565b6102417f000000000000000000000000000000000000000000000000000000000000000081565b60405160ff90911681526020016101f1565b6101e76102613660046118de565b60046020526000908152604090205481565b6101e760065481565b6101e761028a3660046118de565b6106fe565b6101e77f000000000000000000000000000000000000000000000000000000000000000081565b6102c96102c4366004611913565b6108f0565b005b6102c96102d936600461192e565b61093c565b6101e76102ec366004611950565b600260209081526000928352604080842090915290825290205481565b6102c96109b7565b6103387f000000000000000000000000000000000000000000000000000000000000000081565b6040516001600160a01b0390911681526020016101f1565b610358610a08565b6040516101f1919061197a565b6101e7610b47565b610375610c2e565b6040516101f19291906119de565b600054610338906001600160a01b031681565b6103cb6103a43660046118de565b60086020526000908152604090208054600182015460028301546003909301549192909184565b6040805194855260208501939093529183015260608201526080016101f1565b6102c96103f93660046118de565b610e1a565b6101e760075481565b6101e7610415366004611950565b610fab565b6101e7610428366004611950565b610fdc565b6101e77f000000000000000000000000000000000000000000000000000000000000000081565b61045d610e1081565b60405162ffffff90911681526020016101f1565b6102417f000000000000000000000000000000000000000000000000000000000000000081565b6102c96104a6366004611a2c565b611001565b6101e76104b9366004611a69565b61117c565b6101e77f000000000000000000000000000000000000000000000000000000000000000081565b6103387f000000000000000000000000000000000000000000000000000000000000000081565b6102c961051a366004611a95565b611246565b6000818042111561054b5760405162461bcd60e51b815260040161054290611aca565b60405180910390fd5b6000546001600160a01b031633146105755760405162461bcd60e51b815260040161054290611af1565b83518551146105b95760405162461bcd60e51b815260206004820152601060248201526f3830b930b6b2ba32b9399032b93937b960811b6044820152606401610542565b6000805b8651811015610687578581815181106105d8576105d8611b14565b6020026020010151846105eb9190611b40565b93508581815181106105ff576105ff611b14565b60200260200101516005600089848151811061061d5761061d611b14565b60200260200101518152602001908152602001600020819055508187828151811061064a5761064a611b14565b602002602001015111156106755786818151811061066a5761066a611b14565b602002602001015191505b8061067f81611b59565b9150506105bd565b5060068190556106b97f0000000000000000000000000000000000000000000000000000000000000000333086611599565b60408051600081526020810185905233917fc3991418cacd70a010fce559a44fcbb47534ca43bf7543964bdca2639f6e6e5a910160405180910390a250509392505050565b600081804211156107215760405162461bcd60e51b815260040161054290611aca565b600061072f610e1042611b72565b336000908152600960205260409020549091505b3360009081526009602052604090205415610882578061076281611b94565b3360009081526009602052604081208054929450909250908390811061078a5761078a611b14565b906000526020600020015490508260086000838152602001908152602001600020600301541161086e576000818152600860205260409020546107cd9086611b40565b3360009081526009602052604090208054919650906107ee90600190611bab565b815481106107fe576107fe611b14565b60009182526020808320909101543383526009909152604090912080548490811061082b5761082b611b14565b600091825260208083209091019290925533815260099091526040902080548061085757610857611bbe565b600190038181906000526020600020016000905590555b8160000361087c5750610882565b50610743565b83156108b3576108b37f000000000000000000000000000000000000000000000000000000000000000033866116b3565b60405184815233907f884edad9ce6fa2440d8a54cc123490eb96d2768479d49ff9c7366125a94243649060200160405180910390a2505050919050565b6000546001600160a01b0316331461091a5760405162461bcd60e51b815260040161054290611af1565b600180546001600160a01b0319166001600160a01b0392909216919091179055565b808042111561095d5760405162461bcd60e51b815260040161054290611aca565b6000546001600160a01b031633146109875760405162461bcd60e51b815260040161054290611af1565b6109b27f000000000000000000000000000000000000000000000000000000000000000033856116b3565b505050565b6001546001600160a01b031633146109e15760405162461bcd60e51b815260040161054290611af1565b60018054600080546001600160a01b03199081166001600160a01b03841617909155169055565b336000908152600960205260408120546060918167ffffffffffffffff811115610a3457610a346117c0565b604051908082528060200260200182016040528015610a9057816020015b610a7d6040518060800160405280600081526020016000815260200160008152602001600081525090565b815260200190600190039081610a525790505b50905060005b82811015610b40573360009081526009602052604081208054600892919084908110610ac457610ac4611b14565b90600052602060002001548152602001908152602001600020604051806080016040529081600082015481526020016001820154815260200160028201548152602001600382015481525050828281518110610b2257610b22611b14565b60200260200101819052508080610b3890611b59565b915050610a96565b5092915050565b60008060ff7f000000000000000000000000000000000000000000000000000000000000000016610b7a610e1042611b72565b610b849190611bab565b33600090815260036020526040812054919250905b33600090815260036020526040902060010154811015610b4057828111610b405760008181526004602052604090205415610c1c57600081815260046020908152604080832054338452600283528184208585528352818420546005909352922054610c059190611bd4565b610c0f9190611b72565b610c199083611b40565b91505b80610c2681611b59565b915050610b99565b600060608160ff7f000000000000000000000000000000000000000000000000000000000000000016610c63610e1042611b72565b610c6d9190611bab565b610c78906001611b40565b33600090815260036020526040902090915081906001015411610cad5760408051600081526020810190915290939092509050565b33600090815260036020526040812080546001909101549091838311610cd35783610cd5565b825b90506000610ce38284611bab565b67ffffffffffffffff811115610cfb57610cfb6117c0565b604051908082528060200260200182016040528015610d24578160200160208202803683370190505b509050815b83811015610dc65760008181526004602052604090205415610d8b57600081815260046020908152604080832054338452600283528184208585528352818420546005909352922054610d7c9190611bd4565b610d869190611b72565b610d8e565b60005b82610d998584611bab565b81518110610da957610da9611b14565b602090810291909101015280610dbe81611b59565b915050610d29565b506000610dd5610e1042611b72565b610e028460ff7f000000000000000000000000000000000000000000000000000000000000000016611b40565b610e0c9190611bab565b989197509095505050505050565b8080421115610e3b5760405162461bcd60e51b815260040161054290611aca565b600060ff7f000000000000000000000000000000000000000000000000000000000000000016610e6d610e1042611b72565b610e779190611bab565b3360009081526003602052604081205491925090805b33600090815260036020526040902060010154811015610f3057838111610f3057610eb9816001611b40565b60008281526004602052604090205490925015610f1e57600081815260046020908152604080832054338452600283528184208585528352818420546005909352922054610f079190611bd4565b610f119190611b72565b610f1b9084611b40565b92505b80610f2881611b59565b915050610e8d565b5033600090815260036020526040812082910155610f6f7f000000000000000000000000000000000000000000000000000000000000000033846116b3565b60405182815233907fba8de60c3403ec381d1d484652ea1980e3c3e56359195c92525bff4ce47ad98e9060200160405180910390a25050505050565b60096020528160005260406000208181548110610fc757600080fd5b90600052602060002001600091509150505481565b60036020528160005260406000208160028110610ff857600080fd5b01549150829050565b80804211156110225760405162461bcd60e51b815260040161054290611aca565b6000546001600160a01b0316331461104c5760405162461bcd60e51b815260040161054290611af1565b7f0000000000000000000000000000000000000000000000000000000000000000421115801561109c57507f00000000000000000000000000000000000000000000000000000000000000004210155b6110dc5760405162461bcd60e51b81526020600482015260116024820152701b9bdd081a5b881d1a19481c195c9a5bd9607a1b6044820152606401610542565b6111087f0000000000000000000000000000000000000000000000000000000000000000333086611599565b60008481526005602052604081208054859290611126908490611b40565b909155505060065484111561113b5760068490555b604080518581526020810185905233917fc3991418cacd70a010fce559a44fcbb47534ca43bf7543964bdca2639f6e6e5a910160405180910390a250505050565b60006111a960017f0000000000000000000000000000000000000000000000000000000000000000611beb565b60ff1660017f000000000000000000000000000000000000000000000000000000000000000060ff166001856111df9190611beb565b60ff1661120d60017f0000000000000000000000000000000000000000000000000000000000000000611bab565b6112179190611bd4565b6112219190611b40565b61122b9190611bab565b6112359085611bd4565b61123f9190611b72565b9392505050565b80804211156112675760405162461bcd60e51b815260040161054290611aca565b60008360ff161180156112a057507f000000000000000000000000000000000000000000000000000000000000000060ff168360ff1611155b6112d55760405162461bcd60e51b8152602060048201526006602482015265359018bf1a9960d11b6044820152606401610542565b7f0000000000000000000000000000000000000000000000000000000000000000421115801561132557507f00000000000000000000000000000000000000000000000000000000000000004210155b6113655760405162461bcd60e51b81526020600482015260116024820152701b9bdd081a5b881d1a19481c195c9a5bd9607a1b6044820152606401610542565b6000611373610e1042611b72565b61137e906001611b40565b90506113ac7f0000000000000000000000000000000000000000000000000000000000000000333088611599565b60006113b8868661117c565b905060005b8560ff168160ff1610156114525781600460006113dd60ff851687611b40565b815260200190815260200160002060008282546113fa9190611b40565b9091555050336000908152600260205260408120839161141d60ff851687611b40565b8152602001908152602001600020600082825461143a9190611b40565b9091555081905061144a81611c04565b9150506113bd565b50600061146260ff871684611b40565b604080516080810182528981526020808201868152828401888152606084018681526007546000908152600885528681209551865592516001808701919091559151600286015551600394850155338252929091529190912090810154905491925090036114dd573360009081526003602052604090208390555b336000908152600360205260409020819060010154101561150e573360009081526003602052604090208190600101555b3360008181526009602090815260408083206007805482546001810184559286529484902090910193909355915482519081529081018a905260ff89168183015290517f6fa2f6021ee337436cdf2b2570285886da18bc06402ce284d296504a0fe8f8759181900360600190a26007805490600061158b83611b59565b919050555050505050505050565b604080516001600160a01b0385811660248301528481166044830152606480830185905283518084039091018152608490920183526020820180516001600160e01b03166323b872dd60e01b17905291516000928392908816916115fd9190611c23565b6000604051808303816000865af19150503d806000811461163a576040519150601f19603f3d011682016040523d82523d6000602084013e61163f565b606091505b50915091508180156116695750805115806116695750808060200190518101906116699190611c52565b6116ab5760405162461bcd60e51b81526020600482015260136024820152721d1c985b9cd9995c919c9bdb4819985a5b1959606a1b6044820152606401610542565b505050505050565b604080516001600160a01b038481166024830152604480830185905283518084039091018152606490920183526020820180516001600160e01b031663a9059cbb60e01b179052915160009283929087169161170f9190611c23565b6000604051808303816000865af19150503d806000811461174c576040519150601f19603f3d011682016040523d82523d6000602084013e611751565b606091505b509150915081801561177b57508051158061177b57508080602001905181019061177b9190611c52565b6117b95760405162461bcd60e51b815260206004820152600f60248201526e1514905394d1915497d19052531151608a1b6044820152606401610542565b5050505050565b634e487b7160e01b600052604160045260246000fd5b600082601f8301126117e757600080fd5b8135602067ffffffffffffffff80831115611804576118046117c0565b8260051b604051601f19603f83011681018181108482111715611829576118296117c0565b60405293845285810183019383810192508785111561184757600080fd5b83870191505b848210156118665781358352918301919083019061184d565b979650505050505050565b60008060006060848603121561188657600080fd5b833567ffffffffffffffff8082111561189e57600080fd5b6118aa878388016117d6565b945060208601359150808211156118c057600080fd5b506118cd868287016117d6565b925050604084013590509250925092565b6000602082840312156118f057600080fd5b5035919050565b80356001600160a01b038116811461190e57600080fd5b919050565b60006020828403121561192557600080fd5b61123f826118f7565b6000806040838503121561194157600080fd5b50508035926020909101359150565b6000806040838503121561196357600080fd5b61196c836118f7565b946020939093013593505050565b602080825282518282018190526000919060409081850190868401855b828110156119d157815180518552868101518786015285810151868601526060908101519085015260809093019290850190600101611997565b5091979650505050505050565b6000604082018483526020604081850152818551808452606086019150828701935060005b81811015611a1f57845183529383019391830191600101611a03565b5090979650505050505050565b600080600060608486031215611a4157600080fd5b505081359360208301359350604090920135919050565b803560ff8116811461190e57600080fd5b60008060408385031215611a7c57600080fd5b82359150611a8c60208401611a58565b90509250929050565b600080600060608486031215611aaa57600080fd5b83359250611aba60208501611a58565b9150604084013590509250925092565b6020808252600d908201526c6f76657220646561646c696e6560981b604082015260600190565b6020808252600990820152683337b93134b23232b760b91b604082015260600190565b634e487b7160e01b600052603260045260246000fd5b634e487b7160e01b600052601160045260246000fd5b80820180821115611b5357611b53611b2a565b92915050565b600060018201611b6b57611b6b611b2a565b5060010190565b600082611b8f57634e487b7160e01b600052601260045260246000fd5b500490565b600081611ba357611ba3611b2a565b506000190190565b81810381811115611b5357611b53611b2a565b634e487b7160e01b600052603160045260246000fd5b8082028115828204841417611b5357611b53611b2a565b60ff8281168282160390811115611b5357611b53611b2a565b600060ff821660ff8103611c1a57611c1a611b2a565b60010192915050565b6000825160005b81811015611c445760208186018101518583015201611c2a565b506000920191825250919050565b600060208284031215611c6457600080fd5b8151801515811461123f57600080fdfea264697066735822122074ceaf2524068d2dc8295acdf578628162a3ed0faca97f7b5a00cd084f5fe5ba64736f6c63430008110033","opcodes":"PUSH2 0x160 PUSH1 0x40 MSTORE CALLVALUE DUP1 ISZERO PUSH3 0x12 JUMPI PUSH1 0x0 DUP1 REVERT JUMPDEST POP PUSH1 0x40 MLOAD PUSH3 0x1EA9 CODESIZE SUB DUP1 PUSH3 0x1EA9 DUP4 CODECOPY DUP2 ADD PUSH1 0x40 DUP2 SWAP1 MSTORE PUSH3 0x35 SWAP2 PUSH3 0xAC JUMP JUMPDEST PUSH1 0x1 PUSH1 0x1 PUSH1 0xA0 SHL SUB SWAP2 DUP3 AND PUSH1 0x80 MSTORE PUSH1 0xFF SWAP7 DUP8 AND PUSH1 0xA0 MSTORE PUSH1 0xC0 SWAP6 SWAP1 SWAP6 MSTORE SWAP5 SWAP1 SWAP3 AND PUSH1 0xE0 MSTORE PUSH2 0x100 MSTORE PUSH2 0x120 MSTORE PUSH1 0x0 DUP1 SLOAD PUSH1 0x1 PUSH1 0x1 PUSH1 0xA0 SHL SUB NOT AND CALLER OR SWAP1 SSTORE AND PUSH2 0x140 MSTORE PUSH3 0x126 JUMP JUMPDEST DUP1 MLOAD PUSH1 0xFF DUP2 AND DUP2 EQ PUSH3 0x8F JUMPI PUSH1 0x0 DUP1 REVERT JUMPDEST SWAP2 SWAP1 POP JUMP JUMPDEST DUP1 MLOAD PUSH1 0x1 PUSH1 0x1 PUSH1 0xA0 SHL SUB DUP2 AND DUP2 EQ PUSH3 0x8F JUMPI PUSH1 0x0 DUP1 REVERT JUMPDEST PUSH1 0x0 DUP1 PUSH1 0x0 DUP1 PUSH1 0x0 DUP1 PUSH1 0x0 PUSH1 0xE0 DUP9 DUP11 SUB SLT ISZERO PUSH3 0xC8 JUMPI PUSH1 0x0 DUP1 REVERT JUMPDEST PUSH3 0xD3 DUP9 PUSH3 0x7D JUMP JUMPDEST SWAP7 POP PUSH1 0x20 DUP9 ADD MLOAD SWAP6 POP PUSH3 0xEA PUSH1 0x40 DUP10 ADD PUSH3 0x7D JUMP JUMPDEST SWAP5 POP PUSH1 0x60 DUP9 ADD MLOAD SWAP4 POP PUSH1 0x80 DUP9 ADD MLOAD SWAP3 POP PUSH3 0x108 PUSH1 0xA0 DUP10 ADD PUSH3 0x94 JUMP JUMPDEST SWAP2 POP PUSH3 0x118 PUSH1 0xC0 DUP10 ADD PUSH3 0x94 JUMP JUMPDEST SWAP1 POP SWAP3 SWAP6 SWAP9 SWAP2 SWAP5 SWAP8 POP SWAP3 SWAP6 POP JUMP JUMPDEST PUSH1 0x80 MLOAD PUSH1 0xA0 MLOAD PUSH1 0xC0 MLOAD PUSH1 0xE0 MLOAD PUSH2 0x100 MLOAD PUSH2 0x120 MLOAD PUSH2 0x140 MLOAD PUSH2 0x1CAA PUSH3 0x1FF PUSH1 0x0 CODECOPY PUSH1 0x0 DUP2 DUP2 PUSH2 0x316 ADD MSTORE DUP2 DUP2 PUSH2 0x88D ADD MSTORE PUSH2 0x1385 ADD MSTORE PUSH1 0x0 DUP2 DUP2 PUSH2 0x294 ADD MSTORE DUP2 DUP2 PUSH2 0x104E ADD MSTORE PUSH2 0x12D7 ADD MSTORE PUSH1 0x0 DUP2 DUP2 PUSH2 0x432 ADD MSTORE DUP2 DUP2 PUSH2 0x1079 ADD MSTORE PUSH2 0x1302 ADD MSTORE PUSH1 0x0 DUP2 DUP2 PUSH2 0x21F ADD MSTORE DUP2 DUP2 PUSH2 0xB4E ADD MSTORE DUP2 DUP2 PUSH2 0xC37 ADD MSTORE DUP2 DUP2 PUSH2 0xDDD ADD MSTORE PUSH2 0xE41 ADD MSTORE PUSH1 0x0 DUP2 DUP2 PUSH2 0x4C3 ADD MSTORE PUSH2 0x11E9 ADD MSTORE PUSH1 0x0 DUP2 DUP2 PUSH2 0x476 ADD MSTORE DUP2 DUP2 PUSH2 0x1185 ADD MSTORE DUP2 DUP2 PUSH2 0x11B0 ADD MSTORE PUSH2 0x1277 ADD MSTORE PUSH1 0x0 DUP2 DUP2 PUSH2 0x4EA ADD MSTORE DUP2 DUP2 PUSH2 0x692 ADD MSTORE DUP2 DUP2 PUSH2 0x98C ADD MSTORE DUP2 DUP2 PUSH2 0xF49 ADD MSTORE PUSH2 0x10E1 ADD MSTORE PUSH2 0x1CAA PUSH1 0x0 RETURN INVALID PUSH1 0x80 PUSH1 0x40 MSTORE CALLVALUE DUP1 ISZERO PUSH2 0x10 JUMPI PUSH1 0x0 DUP1 REVERT JUMPDEST POP PUSH1 0x4 CALLDATASIZE LT PUSH2 0x1CF JUMPI PUSH1 0x0 CALLDATALOAD PUSH1 0xE0 SHR DUP1 PUSH4 0x8923DE2B GT PUSH2 0x104 JUMPI DUP1 PUSH4 0xC75363B6 GT PUSH2 0xA2 JUMPI DUP1 PUSH4 0xEE3453ED GT PUSH2 0x71 JUMPI DUP1 PUSH4 0xEE3453ED EQ PUSH2 0x4AB JUMPI DUP1 PUSH4 0xF6DEF7CF EQ PUSH2 0x4BE JUMPI DUP1 PUSH4 0xF7C618C1 EQ PUSH2 0x4E5 JUMPI DUP1 PUSH4 0xF99B7D75 EQ PUSH2 0x50C JUMPI PUSH1 0x0 DUP1 REVERT JUMPDEST DUP1 PUSH4 0xC75363B6 EQ PUSH2 0x42D JUMPI DUP1 PUSH4 0xCD671A58 EQ PUSH2 0x454 JUMPI DUP1 PUSH4 0xE11400BB EQ PUSH2 0x471 JUMPI DUP1 PUSH4 0xE1C05D93 EQ PUSH2 0x498 JUMPI PUSH1 0x0 DUP1 REVERT JUMPDEST DUP1 PUSH4 0xAE169A50 GT PUSH2 0xDE JUMPI DUP1 PUSH4 0xAE169A50 EQ PUSH2 0x3EB JUMPI DUP1 PUSH4 0xAFFED0E0 EQ PUSH2 0x3FE JUMPI DUP1 PUSH4 0xBA086501 EQ PUSH2 0x407 JUMPI DUP1 PUSH4 0xBB57852D EQ PUSH2 0x41A JUMPI PUSH1 0x0 DUP1 REVERT JUMPDEST DUP1 PUSH4 0x8923DE2B EQ PUSH2 0x36D JUMPI DUP1 PUSH4 0x8DA5CB5B EQ PUSH2 0x383 JUMPI DUP1 PUSH4 0xA218DE15 EQ PUSH2 0x396 JUMPI PUSH1 0x0 DUP1 REVERT JUMPDEST DUP1 PUSH4 0x4FB2E45D GT PUSH2 0x171 JUMPI DUP1 PUSH4 0x5F8E422F GT PUSH2 0x14B JUMPI DUP1 PUSH4 0x5F8E422F EQ PUSH2 0x309 JUMPI DUP1 PUSH4 0x5FCBD285 EQ PUSH2 0x311 JUMPI DUP1 PUSH4 0x7B1391A6 EQ PUSH2 0x350 JUMPI DUP1 PUSH4 0x8431165E EQ PUSH2 0x365 JUMPI PUSH1 0x0 DUP1 REVERT JUMPDEST DUP1 PUSH4 0x4FB2E45D EQ PUSH2 0x2B6 JUMPI DUP1 PUSH4 0x52CB5133 EQ PUSH2 0x2CB JUMPI DUP1 PUSH4 0x5B680A45 EQ PUSH2 0x2DE JUMPI PUSH1 0x0 DUP1 REVERT JUMPDEST DUP1 PUSH4 0x157775DF GT PUSH2 0x1AD JUMPI DUP1 PUSH4 0x157775DF EQ PUSH2 0x253 JUMPI DUP1 PUSH4 0x29ED1CFD EQ PUSH2 0x273 JUMPI DUP1 PUSH4 0x2E1A7D4D EQ PUSH2 0x27C JUMPI DUP1 PUSH4 0x37BA682D EQ PUSH2 0x28F JUMPI PUSH1 0x0 DUP1 REVERT JUMPDEST DUP1 PUSH4 0x7C6E2FA EQ PUSH2 0x1D4 JUMPI DUP1 PUSH4 0xBCE1284 EQ PUSH2 0x1FA JUMPI DUP1 PUSH4 0xD437D40 EQ PUSH2 0x21A JUMPI JUMPDEST PUSH1 0x0 DUP1 REVERT JUMPDEST PUSH2 0x1E7 PUSH2 0x1E2 CALLDATASIZE PUSH1 0x4 PUSH2 0x1871 JUMP JUMPDEST PUSH2 0x51F JUMP JUMPDEST PUSH1 0x40 MLOAD SWAP1 DUP2 MSTORE PUSH1 0x20 ADD JUMPDEST PUSH1 0x40 MLOAD DUP1 SWAP2 SUB SWAP1 RETURN JUMPDEST PUSH2 0x1E7 PUSH2 0x208 CALLDATASIZE PUSH1 0x4 PUSH2 0x18DE JUMP JUMPDEST PUSH1 0x5 PUSH1 0x20 MSTORE PUSH1 0x0 SWAP1 DUP2 MSTORE PUSH1 0x40 SWAP1 KECCAK256 SLOAD DUP2 JUMP JUMPDEST PUSH2 0x241 PUSH32 0x0 DUP2 JUMP JUMPDEST PUSH1 0x40 MLOAD PUSH1 0xFF SWAP1 SWAP2 AND DUP2 MSTORE PUSH1 0x20 ADD PUSH2 0x1F1 JUMP JUMPDEST PUSH2 0x1E7 PUSH2 0x261 CALLDATASIZE PUSH1 0x4 PUSH2 0x18DE JUMP JUMPDEST PUSH1 0x4 PUSH1 0x20 MSTORE PUSH1 0x0 SWAP1 DUP2 MSTORE PUSH1 0x40 SWAP1 KECCAK256 SLOAD DUP2 JUMP JUMPDEST PUSH2 0x1E7 PUSH1 0x6 SLOAD DUP2 JUMP JUMPDEST PUSH2 0x1E7 PUSH2 0x28A CALLDATASIZE PUSH1 0x4 PUSH2 0x18DE JUMP JUMPDEST PUSH2 0x6FE JUMP JUMPDEST PUSH2 0x1E7 PUSH32 0x0 DUP2 JUMP JUMPDEST PUSH2 0x2C9 PUSH2 0x2C4 CALLDATASIZE PUSH1 0x4 PUSH2 0x1913 JUMP JUMPDEST PUSH2 0x8F0 JUMP JUMPDEST STOP JUMPDEST PUSH2 0x2C9 PUSH2 0x2D9 CALLDATASIZE PUSH1 0x4 PUSH2 0x192E JUMP JUMPDEST PUSH2 0x93C JUMP JUMPDEST PUSH2 0x1E7 PUSH2 0x2EC CALLDATASIZE PUSH1 0x4 PUSH2 0x1950 JUMP JUMPDEST PUSH1 0x2 PUSH1 0x20 SWAP1 DUP2 MSTORE PUSH1 0x0 SWAP3 DUP4 MSTORE PUSH1 0x40 DUP1 DUP5 KECCAK256 SWAP1 SWAP2 MSTORE SWAP1 DUP3 MSTORE SWAP1 KECCAK256 SLOAD DUP2 JUMP JUMPDEST PUSH2 0x2C9 PUSH2 0x9B7 JUMP JUMPDEST PUSH2 0x338 PUSH32 0x0 DUP2 JUMP JUMPDEST PUSH1 0x40 MLOAD PUSH1 0x1 PUSH1 0x1 PUSH1 0xA0 SHL SUB SWAP1 SWAP2 AND DUP2 MSTORE PUSH1 0x20 ADD PUSH2 0x1F1 JUMP JUMPDEST PUSH2 0x358 PUSH2 0xA08 JUMP JUMPDEST PUSH1 0x40 MLOAD PUSH2 0x1F1 SWAP2 SWAP1 PUSH2 0x197A JUMP JUMPDEST PUSH2 0x1E7 PUSH2 0xB47 JUMP JUMPDEST PUSH2 0x375 PUSH2 0xC2E JUMP JUMPDEST PUSH1 0x40 MLOAD PUSH2 0x1F1 SWAP3 SWAP2 SWAP1 PUSH2 0x19DE JUMP JUMPDEST PUSH1 0x0 SLOAD PUSH2 0x338 SWAP1 PUSH1 0x1 PUSH1 0x1 PUSH1 0xA0 SHL SUB AND DUP2 JUMP JUMPDEST PUSH2 0x3CB PUSH2 0x3A4 CALLDATASIZE PUSH1 0x4 PUSH2 0x18DE JUMP JUMPDEST PUSH1 0x8 PUSH1 0x20 MSTORE PUSH1 0x0 SWAP1 DUP2 MSTORE PUSH1 0x40 SWAP1 KECCAK256 DUP1 SLOAD PUSH1 0x1 DUP3 ADD SLOAD PUSH1 0x2 DUP4 ADD SLOAD PUSH1 0x3 SWAP1 SWAP4 ADD SLOAD SWAP2 SWAP3 SWAP1 SWAP2 DUP5 JUMP JUMPDEST PUSH1 0x40 DUP1 MLOAD SWAP5 DUP6 MSTORE PUSH1 0x20 DUP6 ADD SWAP4 SWAP1 SWAP4 MSTORE SWAP2 DUP4 ADD MSTORE PUSH1 0x60 DUP3 ADD MSTORE PUSH1 0x80 ADD PUSH2 0x1F1 JUMP JUMPDEST PUSH2 0x2C9 PUSH2 0x3F9 CALLDATASIZE PUSH1 0x4 PUSH2 0x18DE JUMP JUMPDEST PUSH2 0xE1A JUMP JUMPDEST PUSH2 0x1E7 PUSH1 0x7 SLOAD DUP2 JUMP JUMPDEST PUSH2 0x1E7 PUSH2 0x415 CALLDATASIZE PUSH1 0x4 PUSH2 0x1950 JUMP JUMPDEST PUSH2 0xFAB JUMP JUMPDEST PUSH2 0x1E7 PUSH2 0x428 CALLDATASIZE PUSH1 0x4 PUSH2 0x1950 JUMP JUMPDEST PUSH2 0xFDC JUMP JUMPDEST PUSH2 0x1E7 PUSH32 0x0 DUP2 JUMP JUMPDEST PUSH2 0x45D PUSH2 0xE10 DUP2 JUMP JUMPDEST PUSH1 0x40 MLOAD PUSH3 0xFFFFFF SWAP1 SWAP2 AND DUP2 MSTORE PUSH1 0x20 ADD PUSH2 0x1F1 JUMP JUMPDEST PUSH2 0x241 PUSH32 0x0 DUP2 JUMP JUMPDEST PUSH2 0x2C9 PUSH2 0x4A6 CALLDATASIZE PUSH1 0x4 PUSH2 0x1A2C JUMP JUMPDEST PUSH2 0x1001 JUMP JUMPDEST PUSH2 0x1E7 PUSH2 0x4B9 CALLDATASIZE PUSH1 0x4 PUSH2 0x1A69 JUMP JUMPDEST PUSH2 0x117C JUMP JUMPDEST PUSH2 0x1E7 PUSH32 0x0 DUP2 JUMP JUMPDEST PUSH2 0x338 PUSH32 0x0 DUP2 JUMP JUMPDEST PUSH2 0x2C9 PUSH2 0x51A CALLDATASIZE PUSH1 0x4 PUSH2 0x1A95 JUMP JUMPDEST PUSH2 0x1246 JUMP JUMPDEST PUSH1 0x0 DUP2 DUP1 TIMESTAMP GT ISZERO PUSH2 0x54B JUMPI PUSH1 0x40 MLOAD PUSH3 0x461BCD PUSH1 0xE5 SHL DUP2 MSTORE PUSH1 0x4 ADD PUSH2 0x542 SWAP1 PUSH2 0x1ACA JUMP JUMPDEST PUSH1 0x40 MLOAD DUP1 SWAP2 SUB SWAP1 REVERT JUMPDEST PUSH1 0x0 SLOAD PUSH1 0x1 PUSH1 0x1 PUSH1 0xA0 SHL SUB AND CALLER EQ PUSH2 0x575 JUMPI PUSH1 0x40 MLOAD PUSH3 0x461BCD PUSH1 0xE5 SHL DUP2 MSTORE PUSH1 0x4 ADD PUSH2 0x542 SWAP1 PUSH2 0x1AF1 JUMP JUMPDEST DUP4 MLOAD DUP6 MLOAD EQ PUSH2 0x5B9 JUMPI PUSH1 0x40 MLOAD PUSH3 0x461BCD PUSH1 0xE5 SHL DUP2 MSTORE PUSH1 0x20 PUSH1 0x4 DUP3 ADD MSTORE PUSH1 0x10 PUSH1 0x24 DUP3 ADD MSTORE PUSH16 0x3830B930B6B2BA32B9399032B93937B9 PUSH1 0x81 SHL PUSH1 0x44 DUP3 ADD MSTORE PUSH1 0x64 ADD PUSH2 0x542 JUMP JUMPDEST PUSH1 0x0 DUP1 JUMPDEST DUP7 MLOAD DUP2 LT ISZERO PUSH2 0x687 JUMPI DUP6 DUP2 DUP2 MLOAD DUP2 LT PUSH2 0x5D8 JUMPI PUSH2 0x5D8 PUSH2 0x1B14 JUMP JUMPDEST PUSH1 0x20 MUL PUSH1 0x20 ADD ADD MLOAD DUP5 PUSH2 0x5EB SWAP2 SWAP1 PUSH2 0x1B40 JUMP JUMPDEST SWAP4 POP DUP6 DUP2 DUP2 MLOAD DUP2 LT PUSH2 0x5FF JUMPI PUSH2 0x5FF PUSH2 0x1B14 JUMP JUMPDEST PUSH1 0x20 MUL PUSH1 0x20 ADD ADD MLOAD PUSH1 0x5 PUSH1 0x0 DUP10 DUP5 DUP2 MLOAD DUP2 LT PUSH2 0x61D JUMPI PUSH2 0x61D PUSH2 0x1B14 JUMP JUMPDEST PUSH1 0x20 MUL PUSH1 0x20 ADD ADD MLOAD DUP2 MSTORE PUSH1 0x20 ADD SWAP1 DUP2 MSTORE PUSH1 0x20 ADD PUSH1 0x0 KECCAK256 DUP2 SWAP1 SSTORE POP DUP2 DUP8 DUP3 DUP2 MLOAD DUP2 LT PUSH2 0x64A JUMPI PUSH2 0x64A PUSH2 0x1B14 JUMP JUMPDEST PUSH1 0x20 MUL PUSH1 0x20 ADD ADD MLOAD GT ISZERO PUSH2 0x675 JUMPI DUP7 DUP2 DUP2 MLOAD DUP2 LT PUSH2 0x66A JUMPI PUSH2 0x66A PUSH2 0x1B14 JUMP JUMPDEST PUSH1 0x20 MUL PUSH1 0x20 ADD ADD MLOAD SWAP2 POP JUMPDEST DUP1 PUSH2 0x67F DUP2 PUSH2 0x1B59 JUMP JUMPDEST SWAP2 POP POP PUSH2 0x5BD JUMP JUMPDEST POP PUSH1 0x6 DUP2 SWAP1 SSTORE PUSH2 0x6B9 PUSH32 0x0 CALLER ADDRESS DUP7 PUSH2 0x1599 JUMP JUMPDEST PUSH1 0x40 DUP1 MLOAD PUSH1 0x0 DUP2 MSTORE PUSH1 0x20 DUP2 ADD DUP6 SWAP1 MSTORE CALLER SWAP2 PUSH32 0xC3991418CACD70A010FCE559A44FCBB47534CA43BF7543964BDCA2639F6E6E5A SWAP2 ADD PUSH1 0x40 MLOAD DUP1 SWAP2 SUB SWAP1 LOG2 POP POP SWAP4 SWAP3 POP POP POP JUMP JUMPDEST PUSH1 0x0 DUP2 DUP1 TIMESTAMP GT ISZERO PUSH2 0x721 JUMPI PUSH1 0x40 MLOAD PUSH3 0x461BCD PUSH1 0xE5 SHL DUP2 MSTORE PUSH1 0x4 ADD PUSH2 0x542 SWAP1 PUSH2 0x1ACA JUMP JUMPDEST PUSH1 0x0 PUSH2 0x72F PUSH2 0xE10 TIMESTAMP PUSH2 0x1B72 JUMP JUMPDEST CALLER PUSH1 0x0 SWAP1 DUP2 MSTORE PUSH1 0x9 PUSH1 0x20 MSTORE PUSH1 0x40 SWAP1 KECCAK256 SLOAD SWAP1 SWAP2 POP JUMPDEST CALLER PUSH1 0x0 SWAP1 DUP2 MSTORE PUSH1 0x9 PUSH1 0x20 MSTORE PUSH1 0x40 SWAP1 KECCAK256 SLOAD ISZERO PUSH2 0x882 JUMPI DUP1 PUSH2 0x762 DUP2 PUSH2 0x1B94 JUMP JUMPDEST CALLER PUSH1 0x0 SWAP1 DUP2 MSTORE PUSH1 0x9 PUSH1 0x20 MSTORE PUSH1 0x40 DUP2 KECCAK256 DUP1 SLOAD SWAP3 SWAP5 POP SWAP1 SWAP3 POP SWAP1 DUP4 SWAP1 DUP2 LT PUSH2 0x78A JUMPI PUSH2 0x78A PUSH2 0x1B14 JUMP JUMPDEST SWAP1 PUSH1 0x0 MSTORE PUSH1 0x20 PUSH1 0x0 KECCAK256 ADD SLOAD SWAP1 POP DUP3 PUSH1 0x8 PUSH1 0x0 DUP4 DUP2 MSTORE PUSH1 0x20 ADD SWAP1 DUP2 MSTORE PUSH1 0x20 ADD PUSH1 0x0 KECCAK256 PUSH1 0x3 ADD SLOAD GT PUSH2 0x86E JUMPI PUSH1 0x0 DUP2 DUP2 MSTORE PUSH1 0x8 PUSH1 0x20 MSTORE PUSH1 0x40 SWAP1 KECCAK256 SLOAD PUSH2 0x7CD SWAP1 DUP7 PUSH2 0x1B40 JUMP JUMPDEST CALLER PUSH1 0x0 SWAP1 DUP2 MSTORE PUSH1 0x9 PUSH1 0x20 MSTORE PUSH1 0x40 SWAP1 KECCAK256 DUP1 SLOAD SWAP2 SWAP7 POP SWAP1 PUSH2 0x7EE SWAP1 PUSH1 0x1 SWAP1 PUSH2 0x1BAB JUMP JUMPDEST DUP2 SLOAD DUP2 LT PUSH2 0x7FE JUMPI PUSH2 0x7FE PUSH2 0x1B14 JUMP JUMPDEST PUSH1 0x0 SWAP2 DUP3 MSTORE PUSH1 0x20 DUP1 DUP4 KECCAK256 SWAP1 SWAP2 ADD SLOAD CALLER DUP4 MSTORE PUSH1 0x9 SWAP1 SWAP2 MSTORE PUSH1 0x40 SWAP1 SWAP2 KECCAK256 DUP1 SLOAD DUP5 SWAP1 DUP2 LT PUSH2 0x82B JUMPI PUSH2 0x82B PUSH2 0x1B14 JUMP JUMPDEST PUSH1 0x0 SWAP2 DUP3 MSTORE PUSH1 0x20 DUP1 DUP4 KECCAK256 SWAP1 SWAP2 ADD SWAP3 SWAP1 SWAP3 SSTORE CALLER DUP2 MSTORE PUSH1 0x9 SWAP1 SWAP2 MSTORE PUSH1 0x40 SWAP1 KECCAK256 DUP1 SLOAD DUP1 PUSH2 0x857 JUMPI PUSH2 0x857 PUSH2 0x1BBE JUMP JUMPDEST PUSH1 0x1 SWAP1 SUB DUP2 DUP2 SWAP1 PUSH1 0x0 MSTORE PUSH1 0x20 PUSH1 0x0 KECCAK256 ADD PUSH1 0x0 SWAP1 SSTORE SWAP1 SSTORE JUMPDEST DUP2 PUSH1 0x0 SUB PUSH2 0x87C JUMPI POP PUSH2 0x882 JUMP JUMPDEST POP PUSH2 0x743 JUMP JUMPDEST DUP4 ISZERO PUSH2 0x8B3 JUMPI PUSH2 0x8B3 PUSH32 0x0 CALLER DUP7 PUSH2 0x16B3 JUMP JUMPDEST PUSH1 0x40 MLOAD DUP5 DUP2 MSTORE CALLER SWAP1 PUSH32 0x884EDAD9CE6FA2440D8A54CC123490EB96D2768479D49FF9C7366125A9424364 SWAP1 PUSH1 0x20 ADD PUSH1 0x40 MLOAD DUP1 SWAP2 SUB SWAP1 LOG2 POP POP POP SWAP2 SWAP1 POP JUMP JUMPDEST PUSH1 0x0 SLOAD PUSH1 0x1 PUSH1 0x1 PUSH1 0xA0 SHL SUB AND CALLER EQ PUSH2 0x91A JUMPI PUSH1 0x40 MLOAD PUSH3 0x461BCD PUSH1 0xE5 SHL DUP2 MSTORE PUSH1 0x4 ADD PUSH2 0x542 SWAP1 PUSH2 0x1AF1 JUMP JUMPDEST PUSH1 0x1 DUP1 SLOAD PUSH1 0x1 PUSH1 0x1 PUSH1 0xA0 SHL SUB NOT AND PUSH1 0x1 PUSH1 0x1 PUSH1 0xA0 SHL SUB SWAP3 SWAP1 SWAP3 AND SWAP2 SWAP1 SWAP2 OR SWAP1 SSTORE JUMP JUMPDEST DUP1 DUP1 TIMESTAMP GT ISZERO PUSH2 0x95D JUMPI PUSH1 0x40 MLOAD PUSH3 0x461BCD PUSH1 0xE5 SHL DUP2 MSTORE PUSH1 0x4 ADD PUSH2 0x542 SWAP1 PUSH2 0x1ACA JUMP JUMPDEST PUSH1 0x0 SLOAD PUSH1 0x1 PUSH1 0x1 PUSH1 0xA0 SHL SUB AND CALLER EQ PUSH2 0x987 JUMPI PUSH1 0x40 MLOAD PUSH3 0x461BCD PUSH1 0xE5 SHL DUP2 MSTORE PUSH1 0x4 ADD PUSH2 0x542 SWAP1 PUSH2 0x1AF1 JUMP JUMPDEST PUSH2 0x9B2 PUSH32 0x0 CALLER DUP6 PUSH2 0x16B3 JUMP JUMPDEST POP POP POP JUMP JUMPDEST PUSH1 0x1 SLOAD PUSH1 0x1 PUSH1 0x1 PUSH1 0xA0 SHL SUB AND CALLER EQ PUSH2 0x9E1 JUMPI PUSH1 0x40 MLOAD PUSH3 0x461BCD PUSH1 0xE5 SHL DUP2 MSTORE PUSH1 0x4 ADD PUSH2 0x542 SWAP1 PUSH2 0x1AF1 JUMP JUMPDEST PUSH1 0x1 DUP1 SLOAD PUSH1 0x0 DUP1 SLOAD PUSH1 0x1 PUSH1 0x1 PUSH1 0xA0 SHL SUB NOT SWAP1 DUP2 AND PUSH1 0x1 PUSH1 0x1 PUSH1 0xA0 SHL SUB DUP5 AND OR SWAP1 SWAP2 SSTORE AND SWAP1 SSTORE JUMP JUMPDEST CALLER PUSH1 0x0 SWAP1 DUP2 MSTORE PUSH1 0x9 PUSH1 0x20 MSTORE PUSH1 0x40 DUP2 KECCAK256 SLOAD PUSH1 0x60 SWAP2 DUP2 PUSH8 0xFFFFFFFFFFFFFFFF DUP2 GT ISZERO PUSH2 0xA34 JUMPI PUSH2 0xA34 PUSH2 0x17C0 JUMP JUMPDEST PUSH1 0x40 MLOAD SWAP1 DUP1 DUP3 MSTORE DUP1 PUSH1 0x20 MUL PUSH1 0x20 ADD DUP3 ADD PUSH1 0x40 MSTORE DUP1 ISZERO PUSH2 0xA90 JUMPI DUP2 PUSH1 0x20 ADD JUMPDEST PUSH2 0xA7D PUSH1 0x40 MLOAD DUP1 PUSH1 0x80 ADD PUSH1 0x40 MSTORE DUP1 PUSH1 0x0 DUP2 MSTORE PUSH1 0x20 ADD PUSH1 0x0 DUP2 MSTORE PUSH1 0x20 ADD PUSH1 0x0 DUP2 MSTORE PUSH1 0x20 ADD PUSH1 0x0 DUP2 MSTORE POP SWAP1 JUMP JUMPDEST DUP2 MSTORE PUSH1 0x20 ADD SWAP1 PUSH1 0x1 SWAP1 SUB SWAP1 DUP2 PUSH2 0xA52 JUMPI SWAP1 POP JUMPDEST POP SWAP1 POP PUSH1 0x0 JUMPDEST DUP3 DUP2 LT ISZERO PUSH2 0xB40 JUMPI CALLER PUSH1 0x0 SWAP1 DUP2 MSTORE PUSH1 0x9 PUSH1 0x20 MSTORE PUSH1 0x40 DUP2 KECCAK256 DUP1 SLOAD PUSH1 0x8 SWAP3 SWAP2 SWAP1 DUP5 SWAP1 DUP2 LT PUSH2 0xAC4 JUMPI PUSH2 0xAC4 PUSH2 0x1B14 JUMP JUMPDEST SWAP1 PUSH1 0x0 MSTORE PUSH1 0x20 PUSH1 0x0 KECCAK256 ADD SLOAD DUP2 MSTORE PUSH1 0x20 ADD SWAP1 DUP2 MSTORE PUSH1 0x20 ADD PUSH1 0x0 KECCAK256 PUSH1 0x40 MLOAD DUP1 PUSH1 0x80 ADD PUSH1 0x40 MSTORE SWAP1 DUP2 PUSH1 0x0 DUP3 ADD SLOAD DUP2 MSTORE PUSH1 0x20 ADD PUSH1 0x1 DUP3 ADD SLOAD DUP2 MSTORE PUSH1 0x20 ADD PUSH1 0x2 DUP3 ADD SLOAD DUP2 MSTORE PUSH1 0x20 ADD PUSH1 0x3 DUP3 ADD SLOAD DUP2 MSTORE POP POP DUP3 DUP3 DUP2 MLOAD DUP2 LT PUSH2 0xB22 JUMPI PUSH2 0xB22 PUSH2 0x1B14 JUMP JUMPDEST PUSH1 0x20 MUL PUSH1 0x20 ADD ADD DUP2 SWAP1 MSTORE POP DUP1 DUP1 PUSH2 0xB38 SWAP1 PUSH2 0x1B59 JUMP JUMPDEST SWAP2 POP POP PUSH2 0xA96 JUMP JUMPDEST POP SWAP3 SWAP2 POP POP JUMP JUMPDEST PUSH1 0x0 DUP1 PUSH1 0xFF PUSH32 0x0 AND PUSH2 0xB7A PUSH2 0xE10 TIMESTAMP PUSH2 0x1B72 JUMP JUMPDEST PUSH2 0xB84 SWAP2 SWAP1 PUSH2 0x1BAB JUMP JUMPDEST CALLER PUSH1 0x0 SWAP1 DUP2 MSTORE PUSH1 0x3 PUSH1 0x20 MSTORE PUSH1 0x40 DUP2 KECCAK256 SLOAD SWAP2 SWAP3 POP SWAP1 JUMPDEST CALLER PUSH1 0x0 SWAP1 DUP2 MSTORE PUSH1 0x3 PUSH1 0x20 MSTORE PUSH1 0x40 SWAP1 KECCAK256 PUSH1 0x1 ADD SLOAD DUP2 LT ISZERO PUSH2 0xB40 JUMPI DUP3 DUP2 GT PUSH2 0xB40 JUMPI PUSH1 0x0 DUP2 DUP2 MSTORE PUSH1 0x4 PUSH1 0x20 MSTORE PUSH1 0x40 SWAP1 KECCAK256 SLOAD ISZERO PUSH2 0xC1C JUMPI PUSH1 0x0 DUP2 DUP2 MSTORE PUSH1 0x4 PUSH1 0x20 SWAP1 DUP2 MSTORE PUSH1 0x40 DUP1 DUP4 KECCAK256 SLOAD CALLER DUP5 MSTORE PUSH1 0x2 DUP4 MSTORE DUP2 DUP5 KECCAK256 DUP6 DUP6 MSTORE DUP4 MSTORE DUP2 DUP5 KECCAK256 SLOAD PUSH1 0x5 SWAP1 SWAP4 MSTORE SWAP3 KECCAK256 SLOAD PUSH2 0xC05 SWAP2 SWAP1 PUSH2 0x1BD4 JUMP JUMPDEST PUSH2 0xC0F SWAP2 SWAP1 PUSH2 0x1B72 JUMP JUMPDEST PUSH2 0xC19 SWAP1 DUP4 PUSH2 0x1B40 JUMP JUMPDEST SWAP2 POP JUMPDEST DUP1 PUSH2 0xC26 DUP2 PUSH2 0x1B59 JUMP JUMPDEST SWAP2 POP POP PUSH2 0xB99 JUMP JUMPDEST PUSH1 0x0 PUSH1 0x60 DUP2 PUSH1 0xFF PUSH32 0x0 AND PUSH2 0xC63 PUSH2 0xE10 TIMESTAMP PUSH2 0x1B72 JUMP JUMPDEST PUSH2 0xC6D SWAP2 SWAP1 PUSH2 0x1BAB JUMP JUMPDEST PUSH2 0xC78 SWAP1 PUSH1 0x1 PUSH2 0x1B40 JUMP JUMPDEST CALLER PUSH1 0x0 SWAP1 DUP2 MSTORE PUSH1 0x3 PUSH1 0x20 MSTORE PUSH1 0x40 SWAP1 KECCAK256 SWAP1 SWAP2 POP DUP2 SWAP1 PUSH1 0x1 ADD SLOAD GT PUSH2 0xCAD JUMPI PUSH1 0x40 DUP1 MLOAD PUSH1 0x0 DUP2 MSTORE PUSH1 0x20 DUP2 ADD SWAP1 SWAP2 MSTORE SWAP1 SWAP4 SWAP1 SWAP3 POP SWAP1 POP JUMP JUMPDEST CALLER PUSH1 0x0 SWAP1 DUP2 MSTORE PUSH1 0x3 PUSH1 0x20 MSTORE PUSH1 0x40 DUP2 KECCAK256 DUP1 SLOAD PUSH1 0x1 SWAP1 SWAP2 ADD SLOAD SWAP1 SWAP2 DUP4 DUP4 GT PUSH2 0xCD3 JUMPI DUP4 PUSH2 0xCD5 JUMP JUMPDEST DUP3 JUMPDEST SWAP1 POP PUSH1 0x0 PUSH2 0xCE3 DUP3 DUP5 PUSH2 0x1BAB JUMP JUMPDEST PUSH8 0xFFFFFFFFFFFFFFFF DUP2 GT ISZERO PUSH2 0xCFB JUMPI PUSH2 0xCFB PUSH2 0x17C0 JUMP JUMPDEST PUSH1 0x40 MLOAD SWAP1 DUP1 DUP3 MSTORE DUP1 PUSH1 0x20 MUL PUSH1 0x20 ADD DUP3 ADD PUSH1 0x40 MSTORE DUP1 ISZERO PUSH2 0xD24 JUMPI DUP2 PUSH1 0x20 ADD PUSH1 0x20 DUP3 MUL DUP1 CALLDATASIZE DUP4 CALLDATACOPY ADD SWAP1 POP JUMPDEST POP SWAP1 POP DUP2 JUMPDEST DUP4 DUP2 LT ISZERO PUSH2 0xDC6 JUMPI PUSH1 0x0 DUP2 DUP2 MSTORE PUSH1 0x4 PUSH1 0x20 MSTORE PUSH1 0x40 SWAP1 KECCAK256 SLOAD ISZERO PUSH2 0xD8B JUMPI PUSH1 0x0 DUP2 DUP2 MSTORE PUSH1 0x4 PUSH1 0x20 SWAP1 DUP2 MSTORE PUSH1 0x40 DUP1 DUP4 KECCAK256 SLOAD CALLER DUP5 MSTORE PUSH1 0x2 DUP4 MSTORE DUP2 DUP5 KECCAK256 DUP6 DUP6 MSTORE DUP4 MSTORE DUP2 DUP5 KECCAK256 SLOAD PUSH1 0x5 SWAP1 SWAP4 MSTORE SWAP3 KECCAK256 SLOAD PUSH2 0xD7C SWAP2 SWAP1 PUSH2 0x1BD4 JUMP JUMPDEST PUSH2 0xD86 SWAP2 SWAP1 PUSH2 0x1B72 JUMP JUMPDEST PUSH2 0xD8E JUMP JUMPDEST PUSH1 0x0 JUMPDEST DUP3 PUSH2 0xD99 DUP6 DUP5 PUSH2 0x1BAB JUMP JUMPDEST DUP2 MLOAD DUP2 LT PUSH2 0xDA9 JUMPI PUSH2 0xDA9 PUSH2 0x1B14 JUMP JUMPDEST PUSH1 0x20 SWAP1 DUP2 MUL SWAP2 SWAP1 SWAP2 ADD ADD MSTORE DUP1 PUSH2 0xDBE DUP2 PUSH2 0x1B59 JUMP JUMPDEST SWAP2 POP POP PUSH2 0xD29 JUMP JUMPDEST POP PUSH1 0x0 PUSH2 0xDD5 PUSH2 0xE10 TIMESTAMP PUSH2 0x1B72 JUMP JUMPDEST PUSH2 0xE02 DUP5 PUSH1 0xFF PUSH32 0x0 AND PUSH2 0x1B40 JUMP JUMPDEST PUSH2 0xE0C SWAP2 SWAP1 PUSH2 0x1BAB JUMP JUMPDEST SWAP9 SWAP2 SWAP8 POP SWAP1 SWAP6 POP POP POP POP POP POP JUMP JUMPDEST DUP1 DUP1 TIMESTAMP GT ISZERO PUSH2 0xE3B JUMPI PUSH1 0x40 MLOAD PUSH3 0x461BCD PUSH1 0xE5 SHL DUP2 MSTORE PUSH1 0x4 ADD PUSH2 0x542 SWAP1 PUSH2 0x1ACA JUMP JUMPDEST PUSH1 0x0 PUSH1 0xFF PUSH32 0x0 AND PUSH2 0xE6D PUSH2 0xE10 TIMESTAMP PUSH2 0x1B72 JUMP JUMPDEST PUSH2 0xE77 SWAP2 SWAP1 PUSH2 0x1BAB JUMP JUMPDEST CALLER PUSH1 0x0 SWAP1 DUP2 MSTORE PUSH1 0x3 PUSH1 0x20 MSTORE PUSH1 0x40 DUP2 KECCAK256 SLOAD SWAP2 SWAP3 POP SWAP1 DUP1 JUMPDEST CALLER PUSH1 0x0 SWAP1 DUP2 MSTORE PUSH1 0x3 PUSH1 0x20 MSTORE PUSH1 0x40 SWAP1 KECCAK256 PUSH1 0x1 ADD SLOAD DUP2 LT ISZERO PUSH2 0xF30 JUMPI DUP4 DUP2 GT PUSH2 0xF30 JUMPI PUSH2 0xEB9 DUP2 PUSH1 0x1 PUSH2 0x1B40 JUMP JUMPDEST PUSH1 0x0 DUP3 DUP2 MSTORE PUSH1 0x4 PUSH1 0x20 MSTORE PUSH1 0x40 SWAP1 KECCAK256 SLOAD SWAP1 SWAP3 POP ISZERO PUSH2 0xF1E JUMPI PUSH1 0x0 DUP2 DUP2 MSTORE PUSH1 0x4 PUSH1 0x20 SWAP1 DUP2 MSTORE PUSH1 0x40 DUP1 DUP4 KECCAK256 SLOAD CALLER DUP5 MSTORE PUSH1 0x2 DUP4 MSTORE DUP2 DUP5 KECCAK256 DUP6 DUP6 MSTORE DUP4 MSTORE DUP2 DUP5 KECCAK256 SLOAD PUSH1 0x5 SWAP1 SWAP4 MSTORE SWAP3 KECCAK256 SLOAD PUSH2 0xF07 SWAP2 SWAP1 PUSH2 0x1BD4 JUMP JUMPDEST PUSH2 0xF11 SWAP2 SWAP1 PUSH2 0x1B72 JUMP JUMPDEST PUSH2 0xF1B SWAP1 DUP5 PUSH2 0x1B40 JUMP JUMPDEST SWAP3 POP JUMPDEST DUP1 PUSH2 0xF28 DUP2 PUSH2 0x1B59 JUMP JUMPDEST SWAP2 POP POP PUSH2 0xE8D JUMP JUMPDEST POP CALLER PUSH1 0x0 SWAP1 DUP2 MSTORE PUSH1 0x3 PUSH1 0x20 MSTORE PUSH1 0x40 DUP2 KECCAK256 DUP3 SWAP2 ADD SSTORE PUSH2 0xF6F PUSH32 0x0 CALLER DUP5 PUSH2 0x16B3 JUMP JUMPDEST PUSH1 0x40 MLOAD DUP3 DUP2 MSTORE CALLER SWAP1 PUSH32 0xBA8DE60C3403EC381D1D484652EA1980E3C3E56359195C92525BFF4CE47AD98E SWAP1 PUSH1 0x20 ADD PUSH1 0x40 MLOAD DUP1 SWAP2 SUB SWAP1 LOG2 POP POP POP POP POP JUMP JUMPDEST PUSH1 0x9 PUSH1 0x20 MSTORE DUP2 PUSH1 0x0 MSTORE PUSH1 0x40 PUSH1 0x0 KECCAK256 DUP2 DUP2 SLOAD DUP2 LT PUSH2 0xFC7 JUMPI PUSH1 0x0 DUP1 REVERT JUMPDEST SWAP1 PUSH1 0x0 MSTORE PUSH1 0x20 PUSH1 0x0 KECCAK256 ADD PUSH1 0x0 SWAP2 POP SWAP2 POP POP SLOAD DUP2 JUMP JUMPDEST PUSH1 0x3 PUSH1 0x20 MSTORE DUP2 PUSH1 0x0 MSTORE PUSH1 0x40 PUSH1 0x0 KECCAK256 DUP2 PUSH1 0x2 DUP2 LT PUSH2 0xFF8 JUMPI PUSH1 0x0 DUP1 REVERT JUMPDEST ADD SLOAD SWAP2 POP DUP3 SWAP1 POP JUMP JUMPDEST DUP1 DUP1 TIMESTAMP GT ISZERO PUSH2 0x1022 JUMPI PUSH1 0x40 MLOAD PUSH3 0x461BCD PUSH1 0xE5 SHL DUP2 MSTORE PUSH1 0x4 ADD PUSH2 0x542 SWAP1 PUSH2 0x1ACA JUMP JUMPDEST PUSH1 0x0 SLOAD PUSH1 0x1 PUSH1 0x1 PUSH1 0xA0 SHL SUB AND CALLER EQ PUSH2 0x104C JUMPI PUSH1 0x40 MLOAD PUSH3 0x461BCD PUSH1 0xE5 SHL DUP2 MSTORE PUSH1 0x4 ADD PUSH2 0x542 SWAP1 PUSH2 0x1AF1 JUMP JUMPDEST PUSH32 0x0 TIMESTAMP GT ISZERO DUP1 ISZERO PUSH2 0x109C JUMPI POP PUSH32 0x0 TIMESTAMP LT ISZERO JUMPDEST PUSH2 0x10DC JUMPI PUSH1 0x40 MLOAD PUSH3 0x461BCD PUSH1 0xE5 SHL DUP2 MSTORE PUSH1 0x20 PUSH1 0x4 DUP3 ADD MSTORE PUSH1 0x11 PUSH1 0x24 DUP3 ADD MSTORE PUSH17 0x1B9BDD081A5B881D1A19481C195C9A5BD9 PUSH1 0x7A SHL PUSH1 0x44 DUP3 ADD MSTORE PUSH1 0x64 ADD PUSH2 0x542 JUMP JUMPDEST PUSH2 0x1108 PUSH32 0x0 CALLER ADDRESS DUP7 PUSH2 0x1599 JUMP JUMPDEST PUSH1 0x0 DUP5 DUP2 MSTORE PUSH1 0x5 PUSH1 0x20 MSTORE PUSH1 0x40 DUP2 KECCAK256 DUP1 SLOAD DUP6 SWAP3 SWAP1 PUSH2 0x1126 SWAP1 DUP5 SWAP1 PUSH2 0x1B40 JUMP JUMPDEST SWAP1 SWAP2 SSTORE POP POP PUSH1 0x6 SLOAD DUP5 GT ISZERO PUSH2 0x113B JUMPI PUSH1 0x6 DUP5 SWAP1 SSTORE JUMPDEST PUSH1 0x40 DUP1 MLOAD DUP6 DUP2 MSTORE PUSH1 0x20 DUP2 ADD DUP6 SWAP1 MSTORE CALLER SWAP2 PUSH32 0xC3991418CACD70A010FCE559A44FCBB47534CA43BF7543964BDCA2639F6E6E5A SWAP2 ADD PUSH1 0x40 MLOAD DUP1 SWAP2 SUB SWAP1 LOG2 POP POP POP POP JUMP JUMPDEST PUSH1 0x0 PUSH2 0x11A9 PUSH1 0x1 PUSH32 0x0 PUSH2 0x1BEB JUMP JUMPDEST PUSH1 0xFF AND PUSH1 0x1 PUSH32 0x0 PUSH1 0xFF AND PUSH1 0x1 DUP6 PUSH2 0x11DF SWAP2 SWAP1 PUSH2 0x1BEB JUMP JUMPDEST PUSH1 0xFF AND PUSH2 0x120D PUSH1 0x1 PUSH32 0x0 PUSH2 0x1BAB JUMP JUMPDEST PUSH2 0x1217 SWAP2 SWAP1 PUSH2 0x1BD4 JUMP JUMPDEST PUSH2 0x1221 SWAP2 SWAP1 PUSH2 0x1B40 JUMP JUMPDEST PUSH2 0x122B SWAP2 SWAP1 PUSH2 0x1BAB JUMP JUMPDEST PUSH2 0x1235 SWAP1 DUP6 PUSH2 0x1BD4 JUMP JUMPDEST PUSH2 0x123F SWAP2 SWAP1 PUSH2 0x1B72 JUMP JUMPDEST SWAP4 SWAP3 POP POP POP JUMP JUMPDEST DUP1 DUP1 TIMESTAMP GT ISZERO PUSH2 0x1267 JUMPI PUSH1 0x40 MLOAD PUSH3 0x461BCD PUSH1 0xE5 SHL DUP2 MSTORE PUSH1 0x4 ADD PUSH2 0x542 SWAP1 PUSH2 0x1ACA JUMP JUMPDEST PUSH1 0x0 DUP4 PUSH1 0xFF AND GT DUP1 ISZERO PUSH2 0x12A0 JUMPI POP PUSH32 0x0 PUSH1 0xFF AND DUP4 PUSH1 0xFF AND GT ISZERO JUMPDEST PUSH2 0x12D5 JUMPI PUSH1 0x40 MLOAD PUSH3 0x461BCD PUSH1 0xE5 SHL DUP2 MSTORE PUSH1 0x20 PUSH1 0x4 DUP3 ADD MSTORE PUSH1 0x6 PUSH1 0x24 DUP3 ADD MSTORE PUSH6 0x359018BF1A99 PUSH1 0xD1 SHL PUSH1 0x44 DUP3 ADD MSTORE PUSH1 0x64 ADD PUSH2 0x542 JUMP JUMPDEST PUSH32 0x0 TIMESTAMP GT ISZERO DUP1 ISZERO PUSH2 0x1325 JUMPI POP PUSH32 0x0 TIMESTAMP LT ISZERO JUMPDEST PUSH2 0x1365 JUMPI PUSH1 0x40 MLOAD PUSH3 0x461BCD PUSH1 0xE5 SHL DUP2 MSTORE PUSH1 0x20 PUSH1 0x4 DUP3 ADD MSTORE PUSH1 0x11 PUSH1 0x24 DUP3 ADD MSTORE PUSH17 0x1B9BDD081A5B881D1A19481C195C9A5BD9 PUSH1 0x7A SHL PUSH1 0x44 DUP3 ADD MSTORE PUSH1 0x64 ADD PUSH2 0x542 JUMP JUMPDEST PUSH1 0x0 PUSH2 0x1373 PUSH2 0xE10 TIMESTAMP PUSH2 0x1B72 JUMP JUMPDEST PUSH2 0x137E SWAP1 PUSH1 0x1 PUSH2 0x1B40 JUMP JUMPDEST SWAP1 POP PUSH2 0x13AC PUSH32 0x0 CALLER ADDRESS DUP9 PUSH2 0x1599 JUMP JUMPDEST PUSH1 0x0 PUSH2 0x13B8 DUP7 DUP7 PUSH2 0x117C JUMP JUMPDEST SWAP1 POP PUSH1 0x0 JUMPDEST DUP6 PUSH1 0xFF AND DUP2 PUSH1 0xFF AND LT ISZERO PUSH2 0x1452 JUMPI DUP2 PUSH1 0x4 PUSH1 0x0 PUSH2 0x13DD PUSH1 0xFF DUP6 AND DUP8 PUSH2 0x1B40 JUMP JUMPDEST DUP2 MSTORE PUSH1 0x20 ADD SWAP1 DUP2 MSTORE PUSH1 0x20 ADD PUSH1 0x0 KECCAK256 PUSH1 0x0 DUP3 DUP3 SLOAD PUSH2 0x13FA SWAP2 SWAP1 PUSH2 0x1B40 JUMP JUMPDEST SWAP1 SWAP2 SSTORE POP POP CALLER PUSH1 0x0 SWAP1 DUP2 MSTORE PUSH1 0x2 PUSH1 0x20 MSTORE PUSH1 0x40 DUP2 KECCAK256 DUP4 SWAP2 PUSH2 0x141D PUSH1 0xFF DUP6 AND DUP8 PUSH2 0x1B40 JUMP JUMPDEST DUP2 MSTORE PUSH1 0x20 ADD SWAP1 DUP2 MSTORE PUSH1 0x20 ADD PUSH1 0x0 KECCAK256 PUSH1 0x0 DUP3 DUP3 SLOAD PUSH2 0x143A SWAP2 SWAP1 PUSH2 0x1B40 JUMP JUMPDEST SWAP1 SWAP2 SSTORE POP DUP2 SWAP1 POP PUSH2 0x144A DUP2 PUSH2 0x1C04 JUMP JUMPDEST SWAP2 POP POP PUSH2 0x13BD JUMP JUMPDEST POP PUSH1 0x0 PUSH2 0x1462 PUSH1 0xFF DUP8 AND DUP5 PUSH2 0x1B40 JUMP JUMPDEST PUSH1 0x40 DUP1 MLOAD PUSH1 0x80 DUP2 ADD DUP3 MSTORE DUP10 DUP2 MSTORE PUSH1 0x20 DUP1 DUP3 ADD DUP7 DUP2 MSTORE DUP3 DUP5 ADD DUP9 DUP2 MSTORE PUSH1 0x60 DUP5 ADD DUP7 DUP2 MSTORE PUSH1 0x7 SLOAD PUSH1 0x0 SWAP1 DUP2 MSTORE PUSH1 0x8 DUP6 MSTORE DUP7 DUP2 KECCAK256 SWAP6 MLOAD DUP7 SSTORE SWAP3 MLOAD PUSH1 0x1 DUP1 DUP8 ADD SWAP2 SWAP1 SWAP2 SSTORE SWAP2 MLOAD PUSH1 0x2 DUP7 ADD SSTORE MLOAD PUSH1 0x3 SWAP5 DUP6 ADD SSTORE CALLER DUP3 MSTORE SWAP3 SWAP1 SWAP2 MSTORE SWAP2 SWAP1 SWAP2 KECCAK256 SWAP1 DUP2 ADD SLOAD SWAP1 SLOAD SWAP2 SWAP3 POP SWAP1 SUB PUSH2 0x14DD JUMPI CALLER PUSH1 0x0 SWAP1 DUP2 MSTORE PUSH1 0x3 PUSH1 0x20 MSTORE PUSH1 0x40 SWAP1 KECCAK256 DUP4 SWAP1 SSTORE JUMPDEST CALLER PUSH1 0x0 SWAP1 DUP2 MSTORE PUSH1 0x3 PUSH1 0x20 MSTORE PUSH1 0x40 SWAP1 KECCAK256 DUP2 SWAP1 PUSH1 0x1 ADD SLOAD LT ISZERO PUSH2 0x150E JUMPI CALLER PUSH1 0x0 SWAP1 DUP2 MSTORE PUSH1 0x3 PUSH1 0x20 MSTORE PUSH1 0x40 SWAP1 KECCAK256 DUP2 SWAP1 PUSH1 0x1 ADD SSTORE JUMPDEST CALLER PUSH1 0x0 DUP2 DUP2 MSTORE PUSH1 0x9 PUSH1 0x20 SWAP1 DUP2 MSTORE PUSH1 0x40 DUP1 DUP4 KECCAK256 PUSH1 0x7 DUP1 SLOAD DUP3 SLOAD PUSH1 0x1 DUP2 ADD DUP5 SSTORE SWAP3 DUP7 MSTORE SWAP5 DUP5 SWAP1 KECCAK256 SWAP1 SWAP2 ADD SWAP4 SWAP1 SWAP4 SSTORE SWAP2 SLOAD DUP3 MLOAD SWAP1 DUP2 MSTORE SWAP1 DUP2 ADD DUP11 SWAP1 MSTORE PUSH1 0xFF DUP10 AND DUP2 DUP4 ADD MSTORE SWAP1 MLOAD PUSH32 0x6FA2F6021EE337436CDF2B2570285886DA18BC06402CE284D296504A0FE8F875 SWAP2 DUP2 SWAP1 SUB PUSH1 0x60 ADD SWAP1 LOG2 PUSH1 0x7 DUP1 SLOAD SWAP1 PUSH1 0x0 PUSH2 0x158B DUP4 PUSH2 0x1B59 JUMP JUMPDEST SWAP2 SWAP1 POP SSTORE POP POP POP POP POP POP POP POP JUMP JUMPDEST PUSH1 0x40 DUP1 MLOAD PUSH1 0x1 PUSH1 0x1 PUSH1 0xA0 SHL SUB DUP6 DUP2 AND PUSH1 0x24 DUP4 ADD MSTORE DUP5 DUP2 AND PUSH1 0x44 DUP4 ADD MSTORE PUSH1 0x64 DUP1 DUP4 ADD DUP6 SWAP1 MSTORE DUP4 MLOAD DUP1 DUP5 SUB SWAP1 SWAP2 ADD DUP2 MSTORE PUSH1 0x84 SWAP1 SWAP3 ADD DUP4 MSTORE PUSH1 0x20 DUP3 ADD DUP1 MLOAD PUSH1 0x1 PUSH1 0x1 PUSH1 0xE0 SHL SUB AND PUSH4 0x23B872DD PUSH1 0xE0 SHL OR SWAP1 MSTORE SWAP2 MLOAD PUSH1 0x0 SWAP3 DUP4 SWAP3 SWAP1 DUP9 AND SWAP2 PUSH2 0x15FD SWAP2 SWAP1 PUSH2 0x1C23 JUMP JUMPDEST PUSH1 0x0 PUSH1 0x40 MLOAD DUP1 DUP4 SUB DUP2 PUSH1 0x0 DUP7 GAS CALL SWAP2 POP POP RETURNDATASIZE DUP1 PUSH1 0x0 DUP2 EQ PUSH2 0x163A JUMPI PUSH1 0x40 MLOAD SWAP2 POP PUSH1 0x1F NOT PUSH1 0x3F RETURNDATASIZE ADD AND DUP3 ADD PUSH1 0x40 MSTORE RETURNDATASIZE DUP3 MSTORE RETURNDATASIZE PUSH1 0x0 PUSH1 0x20 DUP5 ADD RETURNDATACOPY PUSH2 0x163F JUMP JUMPDEST PUSH1 0x60 SWAP2 POP JUMPDEST POP SWAP2 POP SWAP2 POP DUP2 DUP1 ISZERO PUSH2 0x1669 JUMPI POP DUP1 MLOAD ISZERO DUP1 PUSH2 0x1669 JUMPI POP DUP1 DUP1 PUSH1 0x20 ADD SWAP1 MLOAD DUP2 ADD SWAP1 PUSH2 0x1669 SWAP2 SWAP1 PUSH2 0x1C52 JUMP JUMPDEST PUSH2 0x16AB JUMPI PUSH1 0x40 MLOAD PUSH3 0x461BCD PUSH1 0xE5 SHL DUP2 MSTORE PUSH1 0x20 PUSH1 0x4 DUP3 ADD MSTORE PUSH1 0x13 PUSH1 0x24 DUP3 ADD MSTORE PUSH19 0x1D1C985B9CD9995C919C9BDB4819985A5B1959 PUSH1 0x6A SHL PUSH1 0x44 DUP3 ADD MSTORE PUSH1 0x64 ADD PUSH2 0x542 JUMP JUMPDEST POP POP POP POP POP POP JUMP JUMPDEST PUSH1 0x40 DUP1 MLOAD PUSH1 0x1 PUSH1 0x1 PUSH1 0xA0 SHL SUB DUP5 DUP2 AND PUSH1 0x24 DUP4 ADD MSTORE PUSH1 0x44 DUP1 DUP4 ADD DUP6 SWAP1 MSTORE DUP4 MLOAD DUP1 DUP5 SUB SWAP1 SWAP2 ADD DUP2 MSTORE PUSH1 0x64 SWAP1 SWAP3 ADD DUP4 MSTORE PUSH1 0x20 DUP3 ADD DUP1 MLOAD PUSH1 0x1 PUSH1 0x1 PUSH1 0xE0 SHL SUB AND PUSH4 0xA9059CBB PUSH1 0xE0 SHL OR SWAP1 MSTORE SWAP2 MLOAD PUSH1 0x0 SWAP3 DUP4 SWAP3 SWAP1 DUP8 AND SWAP2 PUSH2 0x170F SWAP2 SWAP1 PUSH2 0x1C23 JUMP JUMPDEST PUSH1 0x0 PUSH1 0x40 MLOAD DUP1 DUP4 SUB DUP2 PUSH1 0x0 DUP7 GAS CALL SWAP2 POP POP RETURNDATASIZE DUP1 PUSH1 0x0 DUP2 EQ PUSH2 0x174C JUMPI PUSH1 0x40 MLOAD SWAP2 POP PUSH1 0x1F NOT PUSH1 0x3F RETURNDATASIZE ADD AND DUP3 ADD PUSH1 0x40 MSTORE RETURNDATASIZE DUP3 MSTORE RETURNDATASIZE PUSH1 0x0 PUSH1 0x20 DUP5 ADD RETURNDATACOPY PUSH2 0x1751 JUMP JUMPDEST PUSH1 0x60 SWAP2 POP JUMPDEST POP SWAP2 POP SWAP2 POP DUP2 DUP1 ISZERO PUSH2 0x177B JUMPI POP DUP1 MLOAD ISZERO DUP1 PUSH2 0x177B JUMPI POP DUP1 DUP1 PUSH1 0x20 ADD SWAP1 MLOAD DUP2 ADD SWAP1 PUSH2 0x177B SWAP2 SWAP1 PUSH2 0x1C52 JUMP JUMPDEST PUSH2 0x17B9 JUMPI PUSH1 0x40 MLOAD PUSH3 0x461BCD PUSH1 0xE5 SHL DUP2 MSTORE PUSH1 0x20 PUSH1 0x4 DUP3 ADD MSTORE PUSH1 0xF PUSH1 0x24 DUP3 ADD MSTORE PUSH15 0x1514905394D1915497D19052531151 PUSH1 0x8A SHL PUSH1 0x44 DUP3 ADD MSTORE PUSH1 0x64 ADD PUSH2 0x542 JUMP JUMPDEST POP POP POP POP POP JUMP JUMPDEST PUSH4 0x4E487B71 PUSH1 0xE0 SHL PUSH1 0x0 MSTORE PUSH1 0x41 PUSH1 0x4 MSTORE PUSH1 0x24 PUSH1 0x0 REVERT JUMPDEST PUSH1 0x0 DUP3 PUSH1 0x1F DUP4 ADD SLT PUSH2 0x17E7 JUMPI PUSH1 0x0 DUP1 REVERT JUMPDEST DUP2 CALLDATALOAD PUSH1 0x20 PUSH8 0xFFFFFFFFFFFFFFFF DUP1 DUP4 GT ISZERO PUSH2 0x1804 JUMPI PUSH2 0x1804 PUSH2 0x17C0 JUMP JUMPDEST DUP3 PUSH1 0x5 SHL PUSH1 0x40 MLOAD PUSH1 0x1F NOT PUSH1 0x3F DUP4 ADD AND DUP2 ADD DUP2 DUP2 LT DUP5 DUP3 GT OR ISZERO PUSH2 0x1829 JUMPI PUSH2 0x1829 PUSH2 0x17C0 JUMP JUMPDEST PUSH1 0x40 MSTORE SWAP4 DUP5 MSTORE DUP6 DUP2 ADD DUP4 ADD SWAP4 DUP4 DUP2 ADD SWAP3 POP DUP8 DUP6 GT ISZERO PUSH2 0x1847 JUMPI PUSH1 0x0 DUP1 REVERT JUMPDEST DUP4 DUP8 ADD SWAP2 POP JUMPDEST DUP5 DUP3 LT ISZERO PUSH2 0x1866 JUMPI DUP2 CALLDATALOAD DUP4 MSTORE SWAP2 DUP4 ADD SWAP2 SWAP1 DUP4 ADD SWAP1 PUSH2 0x184D JUMP JUMPDEST SWAP8 SWAP7 POP POP POP POP POP POP POP JUMP JUMPDEST PUSH1 0x0 DUP1 PUSH1 0x0 PUSH1 0x60 DUP5 DUP7 SUB SLT ISZERO PUSH2 0x1886 JUMPI PUSH1 0x0 DUP1 REVERT JUMPDEST DUP4 CALLDATALOAD PUSH8 0xFFFFFFFFFFFFFFFF DUP1 DUP3 GT ISZERO PUSH2 0x189E JUMPI PUSH1 0x0 DUP1 REVERT JUMPDEST PUSH2 0x18AA DUP8 DUP4 DUP9 ADD PUSH2 0x17D6 JUMP JUMPDEST SWAP5 POP PUSH1 0x20 DUP7 ADD CALLDATALOAD SWAP2 POP DUP1 DUP3 GT ISZERO PUSH2 0x18C0 JUMPI PUSH1 0x0 DUP1 REVERT JUMPDEST POP PUSH2 0x18CD DUP7 DUP3 DUP8 ADD PUSH2 0x17D6 JUMP JUMPDEST SWAP3 POP POP PUSH1 0x40 DUP5 ADD CALLDATALOAD SWAP1 POP SWAP3 POP SWAP3 POP SWAP3 JUMP JUMPDEST PUSH1 0x0 PUSH1 0x20 DUP3 DUP5 SUB SLT ISZERO PUSH2 0x18F0 JUMPI PUSH1 0x0 DUP1 REVERT JUMPDEST POP CALLDATALOAD SWAP2 SWAP1 POP JUMP JUMPDEST DUP1 CALLDATALOAD PUSH1 0x1 PUSH1 0x1 PUSH1 0xA0 SHL SUB DUP2 AND DUP2 EQ PUSH2 0x190E JUMPI PUSH1 0x0 DUP1 REVERT JUMPDEST SWAP2 SWAP1 POP JUMP JUMPDEST PUSH1 0x0 PUSH1 0x20 DUP3 DUP5 SUB SLT ISZERO PUSH2 0x1925 JUMPI PUSH1 0x0 DUP1 REVERT JUMPDEST PUSH2 0x123F DUP3 PUSH2 0x18F7 JUMP JUMPDEST PUSH1 0x0 DUP1 PUSH1 0x40 DUP4 DUP6 SUB SLT ISZERO PUSH2 0x1941 JUMPI PUSH1 0x0 DUP1 REVERT JUMPDEST POP POP DUP1 CALLDATALOAD SWAP3 PUSH1 0x20 SWAP1 SWAP2 ADD CALLDATALOAD SWAP2 POP JUMP JUMPDEST PUSH1 0x0 DUP1 PUSH1 0x40 DUP4 DUP6 SUB SLT ISZERO PUSH2 0x1963 JUMPI PUSH1 0x0 DUP1 REVERT JUMPDEST PUSH2 0x196C DUP4 PUSH2 0x18F7 JUMP JUMPDEST SWAP5 PUSH1 0x20 SWAP4 SWAP1 SWAP4 ADD CALLDATALOAD SWAP4 POP POP POP JUMP JUMPDEST PUSH1 0x20 DUP1 DUP3 MSTORE DUP3 MLOAD DUP3 DUP3 ADD DUP2 SWAP1 MSTORE PUSH1 0x0 SWAP2 SWAP1 PUSH1 0x40 SWAP1 DUP2 DUP6 ADD SWAP1 DUP7 DUP5 ADD DUP6 JUMPDEST DUP3 DUP2 LT ISZERO PUSH2 0x19D1 JUMPI DUP2 MLOAD DUP1 MLOAD DUP6 MSTORE DUP7 DUP2 ADD MLOAD DUP8 DUP7 ADD MSTORE DUP6 DUP2 ADD MLOAD DUP7 DUP7 ADD MSTORE PUSH1 0x60 SWAP1 DUP2 ADD MLOAD SWAP1 DUP6 ADD MSTORE PUSH1 0x80 SWAP1 SWAP4 ADD SWAP3 SWAP1 DUP6 ADD SWAP1 PUSH1 0x1 ADD PUSH2 0x1997 JUMP JUMPDEST POP SWAP2 SWAP8 SWAP7 POP POP POP POP POP POP POP JUMP JUMPDEST PUSH1 0x0 PUSH1 0x40 DUP3 ADD DUP5 DUP4 MSTORE PUSH1 0x20 PUSH1 0x40 DUP2 DUP6 ADD MSTORE DUP2 DUP6 MLOAD DUP1 DUP5 MSTORE PUSH1 0x60 DUP7 ADD SWAP2 POP DUP3 DUP8 ADD SWAP4 POP PUSH1 0x0 JUMPDEST DUP2 DUP2 LT ISZERO PUSH2 0x1A1F JUMPI DUP5 MLOAD DUP4 MSTORE SWAP4 DUP4 ADD SWAP4 SWAP2 DUP4 ADD SWAP2 PUSH1 0x1 ADD PUSH2 0x1A03 JUMP JUMPDEST POP SWAP1 SWAP8 SWAP7 POP POP POP POP POP POP POP JUMP JUMPDEST PUSH1 0x0 DUP1 PUSH1 0x0 PUSH1 0x60 DUP5 DUP7 SUB SLT ISZERO PUSH2 0x1A41 JUMPI PUSH1 0x0 DUP1 REVERT JUMPDEST POP POP DUP2 CALLDATALOAD SWAP4 PUSH1 0x20 DUP4 ADD CALLDATALOAD SWAP4 POP PUSH1 0x40 SWAP1 SWAP3 ADD CALLDATALOAD SWAP2 SWAP1 POP JUMP JUMPDEST DUP1 CALLDATALOAD PUSH1 0xFF DUP2 AND DUP2 EQ PUSH2 0x190E JUMPI PUSH1 0x0 DUP1 REVERT JUMPDEST PUSH1 0x0 DUP1 PUSH1 0x40 DUP4 DUP6 SUB SLT ISZERO PUSH2 0x1A7C JUMPI PUSH1 0x0 DUP1 REVERT JUMPDEST DUP3 CALLDATALOAD SWAP2 POP PUSH2 0x1A8C PUSH1 0x20 DUP5 ADD PUSH2 0x1A58 JUMP JUMPDEST SWAP1 POP SWAP3 POP SWAP3 SWAP1 POP JUMP JUMPDEST PUSH1 0x0 DUP1 PUSH1 0x0 PUSH1 0x60 DUP5 DUP7 SUB SLT ISZERO PUSH2 0x1AAA JUMPI PUSH1 0x0 DUP1 REVERT JUMPDEST DUP4 CALLDATALOAD SWAP3 POP PUSH2 0x1ABA PUSH1 0x20 DUP6 ADD PUSH2 0x1A58 JUMP JUMPDEST SWAP2 POP PUSH1 0x40 DUP5 ADD CALLDATALOAD SWAP1 POP SWAP3 POP SWAP3 POP SWAP3 JUMP JUMPDEST PUSH1 0x20 DUP1 DUP3 MSTORE PUSH1 0xD SWAP1 DUP3 ADD MSTORE PUSH13 0x6F76657220646561646C696E65 PUSH1 0x98 SHL PUSH1 0x40 DUP3 ADD MSTORE PUSH1 0x60 ADD SWAP1 JUMP JUMPDEST PUSH1 0x20 DUP1 DUP3 MSTORE PUSH1 0x9 SWAP1 DUP3 ADD MSTORE PUSH9 0x3337B93134B23232B7 PUSH1 0xB9 SHL PUSH1 0x40 DUP3 ADD MSTORE PUSH1 0x60 ADD SWAP1 JUMP JUMPDEST PUSH4 0x4E487B71 PUSH1 0xE0 SHL PUSH1 0x0 MSTORE PUSH1 0x32 PUSH1 0x4 MSTORE PUSH1 0x24 PUSH1 0x0 REVERT JUMPDEST PUSH4 0x4E487B71 PUSH1 0xE0 SHL PUSH1 0x0 MSTORE PUSH1 0x11 PUSH1 0x4 MSTORE PUSH1 0x24 PUSH1 0x0 REVERT JUMPDEST DUP1 DUP3 ADD DUP1 DUP3 GT ISZERO PUSH2 0x1B53 JUMPI PUSH2 0x1B53 PUSH2 0x1B2A JUMP JUMPDEST SWAP3 SWAP2 POP POP JUMP JUMPDEST PUSH1 0x0 PUSH1 0x1 DUP3 ADD PUSH2 0x1B6B JUMPI PUSH2 0x1B6B PUSH2 0x1B2A JUMP JUMPDEST POP PUSH1 0x1 ADD SWAP1 JUMP JUMPDEST PUSH1 0x0 DUP3 PUSH2 0x1B8F JUMPI PUSH4 0x4E487B71 PUSH1 0xE0 SHL PUSH1 0x0 MSTORE PUSH1 0x12 PUSH1 0x4 MSTORE PUSH1 0x24 PUSH1 0x0 REVERT JUMPDEST POP DIV SWAP1 JUMP JUMPDEST PUSH1 0x0 DUP2 PUSH2 0x1BA3 JUMPI PUSH2 0x1BA3 PUSH2 0x1B2A JUMP JUMPDEST POP PUSH1 0x0 NOT ADD SWAP1 JUMP JUMPDEST DUP2 DUP2 SUB DUP2 DUP2 GT ISZERO PUSH2 0x1B53 JUMPI PUSH2 0x1B53 PUSH2 0x1B2A JUMP JUMPDEST PUSH4 0x4E487B71 PUSH1 0xE0 SHL PUSH1 0x0 MSTORE PUSH1 0x31 PUSH1 0x4 MSTORE PUSH1 0x24 PUSH1 0x0 REVERT JUMPDEST DUP1 DUP3 MUL DUP2 ISZERO DUP3 DUP3 DIV DUP5 EQ OR PUSH2 0x1B53 JUMPI PUSH2 0x1B53 PUSH2 0x1B2A JUMP JUMPDEST PUSH1 0xFF DUP3 DUP2 AND DUP3 DUP3 AND SUB SWAP1 DUP2 GT ISZERO PUSH2 0x1B53 JUMPI PUSH2 0x1B53 PUSH2 0x1B2A JUMP JUMPDEST PUSH1 0x0 PUSH1 0xFF DUP3 AND PUSH1 0xFF DUP2 SUB PUSH2 0x1C1A JUMPI PUSH2 0x1C1A PUSH2 0x1B2A JUMP JUMPDEST PUSH1 0x1 ADD SWAP3 SWAP2 POP POP JUMP JUMPDEST PUSH1 0x0 DUP3 MLOAD PUSH1 0x0 JUMPDEST DUP2 DUP2 LT ISZERO PUSH2 0x1C44 JUMPI PUSH1 0x20 DUP2 DUP7 ADD DUP2 ADD MLOAD DUP6 DUP4 ADD MSTORE ADD PUSH2 0x1C2A JUMP JUMPDEST POP PUSH1 0x0 SWAP3 ADD SWAP2 DUP3 MSTORE POP SWAP2 SWAP1 POP JUMP JUMPDEST PUSH1 0x0 PUSH1 0x20 DUP3 DUP5 SUB SLT ISZERO PUSH2 0x1C64 JUMPI PUSH1 0x0 DUP1 REVERT JUMPDEST DUP2 MLOAD DUP1 ISZERO ISZERO DUP2 EQ PUSH2 0x123F JUMPI PUSH1 0x0 DUP1 REVERT INVALID LOG2 PUSH5 0x6970667358 0x22 SLT KECCAK256 PUSH21 0xCEAF2524068D2DC8295ACDF578628162A3ED0FACA9 PUSH32 0x7B5A00CD084F5FE5BA64736F6C63430008110033000000000000000000000000 "},"methodIdentifiers":{"BEGIN_TIME()":"c75363b6","END_TIME()":"37ba682d","LOCK_WEEKNUM()":"0d437d40","MAX_SCALE()":"f6def7cf","MAX_WEEKS()":"e11400bb","WEEK_SECONDS()":"cd671a58","acceptSetter()":"5f8e422f","canClaimAmount()":"8431165e","claimReward(uint256)":"ae169a50","getScore(uint256,uint8)":"ee3453ed","getStaking()":"7b1391a6","latestNo()":"29ed1cfd","lockedRewardAmount()":"8923de2b","lpToken()":"5fcbd285","nonce()":"affed0e0","owner()":"8da5cb5b","rewardToken()":"f7c618c1","rewardsOf(uint256)":"0bce1284","setReward(uint256,uint256,uint256)":"e1c05d93","setRewards(uint256[],uint256[],uint256)":"07c6e2fa","stake(uint256,uint8,uint256)":"f99b7d75","stakingERC20s(uint256)":"a218de15","totalScores(uint256)":"157775df","transferOwner(address)":"4fb2e45d","userCanClaimWeeks(address,uint256)":"bb57852d","userERC20s(address,uint256)":"ba086501","userScores(address,uint256)":"5b680a45","withdraw(uint256)":"2e1a7d4d","withdrawRewards(uint256,uint256)":"52cb5133"}}}}}