{"contracts/stakeNFT721.sol":{"StakeNFT721":{"abi":[{"inputs":[{"internalType":"uint8","name":"maxWeeks","type":"uint8"},{"internalType":"uint256","name":"maxScale","type":"uint256"},{"internalType":"uint8","name":"lockWeeks","type":"uint8"},{"internalType":"uint256","name":"beginTime","type":"uint256"},{"internalType":"uint256","name":"endTime","type":"uint256"},{"internalType":"address","name":"_rewardToken","type":"address"},{"internalType":"address","name":"tokenA","type":"address"},{"internalType":"address","name":"tokenB","type":"address"},{"internalType":"uint24","name":"_fee","type":"uint24"},{"internalType":"address","name":"nft","type":"address"},{"internalType":"int24","name":"tickMax","type":"int24"}],"stateMutability":"nonpayable","type":"constructor"},{"anonymous":false,"inputs":[{"indexed":true,"internalType":"address","name":"user","type":"address"},{"indexed":false,"internalType":"uint256","name":"amount","type":"uint256"}],"name":"ClaimReward","type":"event"},{"anonymous":false,"inputs":[{"indexed":true,"internalType":"address","name":"user","type":"address"},{"indexed":false,"internalType":"uint256","name":"no","type":"uint256"},{"indexed":false,"internalType":"uint256","name":"amount","type":"uint256"}],"name":"SetReward","type":"event"},{"anonymous":false,"inputs":[{"indexed":true,"internalType":"address","name":"user","type":"address"},{"indexed":false,"internalType":"uint256","name":"tokenId","type":"uint256"},{"indexed":false,"internalType":"uint256","name":"amount","type":"uint256"},{"indexed":false,"internalType":"uint8","name":"k","type":"uint8"}],"name":"Stake","type":"event"},{"anonymous":false,"inputs":[{"indexed":true,"internalType":"address","name":"user","type":"address"},{"indexed":false,"internalType":"uint256","name":"tokenId","type":"uint256"}],"name":"Withdraw","type":"event"},{"inputs":[],"name":"BEGIN_TIME","outputs":[{"internalType":"uint256","name":"","type":"uint256"}],"stateMutability":"view","type":"function"},{"inputs":[],"name":"END_TIME","outputs":[{"internalType":"uint256","name":"","type":"uint256"}],"stateMutability":"view","type":"function"},{"inputs":[],"name":"LOCK_WEEKNUM","outputs":[{"internalType":"uint8","name":"","type":"uint8"}],"stateMutability":"view","type":"function"},{"inputs":[],"name":"MAX_SCALE","outputs":[{"internalType":"uint256","name":"","type":"uint256"}],"stateMutability":"view","type":"function"},{"inputs":[],"name":"MAX_TICK","outputs":[{"internalType":"int24","name":"","type":"int24"}],"stateMutability":"view","type":"function"},{"inputs":[],"name":"MAX_WEEKS","outputs":[{"internalType":"uint8","name":"","type":"uint8"}],"stateMutability":"view","type":"function"},{"inputs":[],"name":"MIN_TICK","outputs":[{"internalType":"int24","name":"","type":"int24"}],"stateMutability":"view","type":"function"},{"inputs":[],"name":"WEEK_SECONDS","outputs":[{"internalType":"uint24","name":"","type":"uint24"}],"stateMutability":"view","type":"function"},{"inputs":[],"name":"acceptSetter","outputs":[],"stateMutability":"nonpayable","type":"function"},{"inputs":[],"name":"canClaimAmount","outputs":[{"internalType":"uint256","name":"","type":"uint256"}],"stateMutability":"view","type":"function"},{"inputs":[],"name":"claimReward","outputs":[],"stateMutability":"nonpayable","type":"function"},{"inputs":[],"name":"fee","outputs":[{"internalType":"uint24","name":"","type":"uint24"}],"stateMutability":"view","type":"function"},{"inputs":[{"internalType":"uint256","name":"amount","type":"uint256"},{"internalType":"uint8","name":"k","type":"uint8"}],"name":"getScore","outputs":[{"internalType":"uint256","name":"score","type":"uint256"}],"stateMutability":"view","type":"function"},{"inputs":[],"name":"getUserNFTs","outputs":[{"internalType":"uint256[]","name":"","type":"uint256[]"},{"internalType":"uint256","name":"","type":"uint256"}],"stateMutability":"view","type":"function"},{"inputs":[],"name":"latestNo","outputs":[{"internalType":"uint256","name":"","type":"uint256"}],"stateMutability":"view","type":"function"},{"inputs":[],"name":"lockedRewardAmount","outputs":[{"internalType":"uint256","name":"","type":"uint256"},{"internalType":"uint256[]","name":"","type":"uint256[]"}],"stateMutability":"view","type":"function"},{"inputs":[],"name":"nftToken","outputs":[{"internalType":"contract IIotabeeSwapNFT","name":"","type":"address"}],"stateMutability":"view","type":"function"},{"inputs":[{"internalType":"address","name":"","type":"address"},{"internalType":"address","name":"","type":"address"},{"internalType":"uint256","name":"","type":"uint256"},{"internalType":"bytes","name":"","type":"bytes"}],"name":"onERC721Received","outputs":[{"internalType":"bytes4","name":"","type":"bytes4"}],"stateMutability":"pure","type":"function"},{"inputs":[],"name":"owner","outputs":[{"internalType":"address","name":"","type":"address"}],"stateMutability":"view","type":"function"},{"inputs":[],"name":"rewardToken","outputs":[{"internalType":"address","name":"","type":"address"}],"stateMutability":"view","type":"function"},{"inputs":[{"internalType":"uint256","name":"","type":"uint256"}],"name":"rewardsOf","outputs":[{"internalType":"uint256","name":"","type":"uint256"}],"stateMutability":"view","type":"function"},{"inputs":[{"internalType":"uint256","name":"no","type":"uint256"},{"internalType":"uint256","name":"amount","type":"uint256"}],"name":"setReward","outputs":[],"stateMutability":"nonpayable","type":"function"},{"inputs":[{"internalType":"uint256[]","name":"nos","type":"uint256[]"},{"internalType":"uint256[]","name":"amounts","type":"uint256[]"}],"name":"setRewards","outputs":[{"internalType":"uint256","name":"total","type":"uint256"}],"stateMutability":"nonpayable","type":"function"},{"inputs":[{"internalType":"uint256","name":"tokenId","type":"uint256"},{"internalType":"uint8","name":"k","type":"uint8"}],"name":"stake","outputs":[],"stateMutability":"nonpayable","type":"function"},{"inputs":[{"internalType":"uint256","name":"","type":"uint256"}],"name":"stakingNFTs","outputs":[{"internalType":"address","name":"owner","type":"address"},{"internalType":"uint256","name":"score","type":"uint256"},{"internalType":"uint256","name":"beginNo","type":"uint256"},{"internalType":"uint256","name":"endNo","type":"uint256"}],"stateMutability":"view","type":"function"},{"inputs":[],"name":"token0","outputs":[{"internalType":"address","name":"","type":"address"}],"stateMutability":"view","type":"function"},{"inputs":[],"name":"token1","outputs":[{"internalType":"address","name":"","type":"address"}],"stateMutability":"view","type":"function"},{"inputs":[{"internalType":"uint256","name":"","type":"uint256"}],"name":"totalScores","outputs":[{"internalType":"uint256","name":"","type":"uint256"}],"stateMutability":"view","type":"function"},{"inputs":[{"internalType":"address","name":"_owner","type":"address"}],"name":"transferOwner","outputs":[],"stateMutability":"nonpayable","type":"function"},{"inputs":[{"internalType":"address","name":"","type":"address"},{"internalType":"uint256","name":"","type":"uint256"}],"name":"userCanClaimWeeks","outputs":[{"internalType":"uint256","name":"","type":"uint256"}],"stateMutability":"view","type":"function"},{"inputs":[{"internalType":"address","name":"","type":"address"},{"internalType":"uint256","name":"","type":"uint256"}],"name":"userNFTs","outputs":[{"internalType":"uint256","name":"","type":"uint256"}],"stateMutability":"view","type":"function"},{"inputs":[{"internalType":"address","name":"","type":"address"},{"internalType":"uint256","name":"","type":"uint256"}],"name":"userScores","outputs":[{"internalType":"uint256","name":"","type":"uint256"}],"stateMutability":"view","type":"function"},{"inputs":[{"internalType":"uint256","name":"tokenId","type":"uint256"}],"name":"withdraw","outputs":[],"stateMutability":"nonpayable","type":"function"},{"inputs":[{"internalType":"uint256[]","name":"tokenIds","type":"uint256[]"}],"name":"withdraw","outputs":[],"stateMutability":"nonpayable","type":"function"},{"inputs":[{"internalType":"uint256","name":"amount","type":"uint256"}],"name":"withdrawRewards","outputs":[],"stateMutability":"nonpayable","type":"function"}],"evm":{"bytecode":{"linkReferences":{},"object":"6102006040523480156200001257600080fd5b50604051620026653803806200266583398101604081905262000035916200010c565b6001600160a01b0380871660805260ff808d1660a05260c08c90528a1660e052610100899052610120889052600080546001600160a01b0319163317905584811690861610620000875783856200008a565b84845b6001600160a01b039081166101c0529081166101a05262ffffff84166101e052821661018052600281900b61016052620000c481620001e6565b60020b6101405250620002179950505050505050505050565b805160ff81168114620000ef57600080fd5b919050565b80516001600160a01b0381168114620000ef57600080fd5b60008060008060008060008060008060006101608c8e0312156200012f57600080fd5b6200013a8c620000dd565b9a5060208c015199506200015160408d01620000dd565b985060608c0151975060808c015196506200016f60a08d01620000f4565b95506200017f60c08d01620000f4565b94506200018f60e08d01620000f4565b93506101008c015162ffffff81168114620001a957600080fd5b9250620001ba6101208d01620000f4565b91506101408c01518060020b8114620001d257600080fd5b809150509295989b509295989b9093969950565b60008160020b627fffff1981036200020e57634e487b7160e01b600052601160045260246000fd5b60000392915050565b60805160a05160c05160e05161010051610120516101405161016051610180516101a0516101c0516101e05161230d62000358600039600081816105c2015261180c01526000818161059b01526117c9015260008181610287015261178d01526000818161057401528181610acf015281816116eb0152818161192701526119f801526000818161043701526118a00152600081816104db01526118700152600081816103ca01528181610f7a01526111ff01526000818161053001528181610fa5015261122a01526000818161024e01528181610c2201528181610d1201528181610eb8015261133101526000818161062301526115230152600081816105e901528181610692015281816114bf01526114ea01526000818161064a01528181610f2401528181611125015281816112920152611439015261230d6000f3fe608060405234801561001057600080fd5b50600436106102115760003560e01c80638da5cb5b11610125578063cd671a58116100ad578063e11400bb1161007c578063e11400bb146105e4578063ee3453ed1461060b578063f6def7cf1461061e578063f7c618c114610645578063fdc5ab8e1461066c57600080fd5b8063cd671a5814610552578063d06fcba81461056f578063d21220a714610596578063ddca3f43146105bd57600080fd5b8063a1634b14116100f4578063a1634b14146104d6578063a47bd496146104fd578063b88a802f14610510578063bb57852d14610518578063c75363b61461052b57600080fd5b80638da5cb5b1461048a5780639342c8f41461049d578063979db1c4146104b0578063983d95ce146104c357600080fd5b806329ed1cfd116101a85780635b680a45116101775780635b680a45146103ff5780635f8e422f1461042a5780636882a888146104325780638431165e1461046c5780638923de2b1461047457600080fd5b806329ed1cfd146103a95780632e1a7d4d146103b257806337ba682d146103c55780634fb2e45d146103ec57600080fd5b806310c6c1c2116101e457806310c6c1c2146102d6578063150b7a021461033f578063157775df14610376578063291c73c31461039657600080fd5b80630bce1284146102165780630d437d40146102495780630dfe16811461028257806310087fb1146102c1575b600080fd5b610236610224366004611c99565b60056020526000908152604090205481565b6040519081526020015b60405180910390f35b6102707f000000000000000000000000000000000000000000000000000000000000000081565b60405160ff9091168152602001610240565b6102a97f000000000000000000000000000000000000000000000000000000000000000081565b6040516001600160a01b039091168152602001610240565b6102d46102cf366004611cb2565b610682565b005b6103156102e4366004611c99565b60076020526000908152604090208054600182015460028301546003909301546001600160a01b0390921692909184565b604080516001600160a01b0390951685526020850193909352918301526060820152608001610240565b61035d61034d366004611d44565b630a85bd0160e11b949350505050565b6040516001600160e01b03199091168152602001610240565b610236610384366004611c99565b60046020526000908152604090205481565b6102366103a4366004611e08565b61090c565b61023660065481565b6102d46103c0366004611c99565b61093d565b6102367f000000000000000000000000000000000000000000000000000000000000000081565b6102d46103fa366004611e34565b610b7e565b61023661040d366004611e08565b600260209081526000928352604080842090915290825290205481565b6102d4610bca565b6104597f000000000000000000000000000000000000000000000000000000000000000081565b60405160029190910b8152602001610240565b610236610c1b565b61047c610d09565b604051610240929190611e8c565b6000546102a9906001600160a01b031681565b6102d46104ab366004611c99565b610ef5565b6102366104be366004611f2d565b610f4d565b6102d46104d1366004611f91565b61118f565b6104597f000000000000000000000000000000000000000000000000000000000000000081565b6102d461050b366004611fc6565b6111d3565b6102d461132b565b610236610526366004611e08565b611491565b6102367f000000000000000000000000000000000000000000000000000000000000000081565b61055b61025881565b60405162ffffff9091168152602001610240565b6102a97f000000000000000000000000000000000000000000000000000000000000000081565b6102a97f000000000000000000000000000000000000000000000000000000000000000081565b61055b7f000000000000000000000000000000000000000000000000000000000000000081565b6102707f000000000000000000000000000000000000000000000000000000000000000081565b610236610619366004611cb2565b6114b6565b6102367f000000000000000000000000000000000000000000000000000000000000000081565b6102a97f000000000000000000000000000000000000000000000000000000000000000081565b610674611580565b604051610240929190611fe8565b60008160ff161180156106bb57507f000000000000000000000000000000000000000000000000000000000000000060ff168160ff1611155b6107005760405162461bcd60e51b815260206004820152601160248201527039ba30b5b2903bb2b2b5b99032b93937b960791b60448201526064015b60405180910390fd5b600061070b836116de565b9050600061071b61025842612020565b610726906001612042565b9050600061073483856114b6565b905060005b8460ff168160ff1610156107ce57816004600061075960ff851687612042565b815260200190815260200160002060008282546107769190612042565b9091555050336000908152600260205260408120839161079960ff851687612042565b815260200190815260200160002060008282546107b69190612042565b909155508190506107c68161205b565b915050610739565b5060006107de60ff861684612042565b604080516080810182523380825260208083018781528385018981526060850187815260008e815260078552878120965187546001600160a01b0319166001600160a01b0390911617875592516001808801919091559151600287015551600395860155928152929052919020908101549054919250900361086d573360009081526003602052604090208390555b336000908152600360205260409020819060010154101561089e573360009081526003602052604090208190600101555b336000818152600860209081526040808320805460018101825590845292829020909201899055815189815290810187905260ff88168183015290517f6fa2f6021ee337436cdf2b2570285886da18bc06402ce284d296504a0fe8f8759181900360600190a2505050505050565b6008602052816000526040600020818154811061092857600080fd5b90600052602060002001600091509150505481565b6000818152600760205260409020546001600160a01b031633146109955760405162461bcd60e51b815260206004820152600f60248201526e37bbb732b9103337b93134b23232b760891b60448201526064016106f7565b60006109a361025842612020565b6000838152600760205260409020600301549091508110156109f55760405162461bcd60e51b815260206004820152600b60248201526a6c6f636b65642074696d6560a81b60448201526064016106f7565b336000908152600860205260408120905b8154811015610b4257818181548110610a2157610a2161207a565b90600052602060002001548403610b305781548290610a4290600190612090565b81548110610a5257610a5261207a565b9060005260206000200154828281548110610a6f57610a6f61207a565b906000526020600020018190555081805480610a8d57610a8d6120a3565b600082815260208120820160001990810191909155019055604051632142170760e11b8152306004820152336024820152604481018590526001600160a01b037f000000000000000000000000000000000000000000000000000000000000000016906342842e0e90606401600060405180830381600087803b158015610b1357600080fd5b505af1158015610b27573d6000803e3d6000fd5b50505050610b42565b80610b3a816120b9565b915050610a06565b5060405183815233907f884edad9ce6fa2440d8a54cc123490eb96d2768479d49ff9c7366125a9424364906020015b60405180910390a2505050565b6000546001600160a01b03163314610ba85760405162461bcd60e51b81526004016106f7906120d2565b600180546001600160a01b0319166001600160a01b0392909216919091179055565b6001546001600160a01b03163314610bf45760405162461bcd60e51b81526004016106f7906120d2565b60018054600080546001600160a01b03199081166001600160a01b03841617909155169055565b60008060ff7f000000000000000000000000000000000000000000000000000000000000000016610c4e61025842612020565b610c589190612090565b33600090815260036020526040812054919250905b33600090815260036020526040902060010154811015610d0257828111610d025760008181526004602052604090205415610cf057600081815260046020908152604080832054338452600283528184208585528352818420546005909352922054610cd991906120f5565b610ce39190612020565b610ced9083612042565b91505b80610cfa816120b9565b915050610c6d565b5092915050565b600060608160ff7f000000000000000000000000000000000000000000000000000000000000000016610d3e61025842612020565b610d489190612090565b610d53906001612042565b33600090815260036020526040902090915081906001015411610d885760408051600081526020810190915290939092509050565b33600090815260036020526040812080546001909101549091838311610dae5783610db0565b825b90506000610dbe8284612090565b67ffffffffffffffff811115610dd657610dd6611cfd565b604051908082528060200260200182016040528015610dff578160200160208202803683370190505b509050815b83811015610ea15760008181526004602052604090205415610e6657600081815260046020908152604080832054338452600283528184208585528352818420546005909352922054610e5791906120f5565b610e619190612020565b610e69565b60005b82610e748584612090565b81518110610e8457610e8461207a565b602090810291909101015280610e99816120b9565b915050610e04565b506000610eb061025842612020565b610edd8460ff7f000000000000000000000000000000000000000000000000000000000000000016612042565b610ee79190612090565b989197509095505050505050565b6000546001600160a01b03163314610f1f5760405162461bcd60e51b81526004016106f7906120d2565b610f4a7f00000000000000000000000000000000000000000000000000000000000000003383611a72565b50565b600080546001600160a01b03163314610f785760405162461bcd60e51b81526004016106f7906120d2565b7f00000000000000000000000000000000000000000000000000000000000000004211158015610fc857507f00000000000000000000000000000000000000000000000000000000000000004210155b6110085760405162461bcd60e51b81526020600482015260116024820152701b9bdd081a5b881d1a19481c195c9a5bd9607a1b60448201526064016106f7565b815183511461104c5760405162461bcd60e51b815260206004820152601060248201526f3830b930b6b2ba32b9399032b93937b960811b60448201526064016106f7565b6000805b845181101561111a5783818151811061106b5761106b61207a565b60200260200101518361107e9190612042565b92508381815181106110925761109261207a565b6020026020010151600560008784815181106110b0576110b061207a565b6020026020010151815260200190815260200160002081905550818582815181106110dd576110dd61207a565b60200260200101511115611108578481815181106110fd576110fd61207a565b602002602001015191505b80611112816120b9565b915050611050565b50600681905561114c7f0000000000000000000000000000000000000000000000000000000000000000333085611b7f565b60408051600081526020810184905233917fc3991418cacd70a010fce559a44fcbb47534ca43bf7543964bdca2639f6e6e5a910160405180910390a25092915050565b60005b81518110156111cf576111bd8282815181106111b0576111b061207a565b602002602001015161093d565b806111c7816120b9565b915050611192565b5050565b6000546001600160a01b031633146111fd5760405162461bcd60e51b81526004016106f7906120d2565b7f0000000000000000000000000000000000000000000000000000000000000000421115801561124d57507f00000000000000000000000000000000000000000000000000000000000000004210155b61128d5760405162461bcd60e51b81526020600482015260116024820152701b9bdd081a5b881d1a19481c195c9a5bd9607a1b60448201526064016106f7565b6112b97f0000000000000000000000000000000000000000000000000000000000000000333084611b7f565b600082815260056020526040812080548392906112d7908490612042565b90915550506006548211156112ec5760068290555b604080518381526020810183905233917fc3991418cacd70a010fce559a44fcbb47534ca43bf7543964bdca2639f6e6e5a910160405180910390a25050565b600060ff7f00000000000000000000000000000000000000000000000000000000000000001661135d61025842612020565b6113679190612090565b3360009081526003602052604081205491925090805b3360009081526003602052604090206001015481101561142057838111611420576113a9816001612042565b6000828152600460205260409020549092501561140e576000818152600460209081526040808320543384526002835281842085855283528184205460059093529220546113f791906120f5565b6114019190612020565b61140b9084612042565b92505b80611418816120b9565b91505061137d565b503360009081526003602052604081208291015561145f7f00000000000000000000000000000000000000000000000000000000000000003384611a72565b60405182815233907fba8de60c3403ec381d1d484652ea1980e3c3e56359195c92525bff4ce47ad98e90602001610b71565b600360205281600052604060002081600281106114ad57600080fd5b01549150829050565b60006114e360017f000000000000000000000000000000000000000000000000000000000000000061210c565b60ff1660017f000000000000000000000000000000000000000000000000000000000000000060ff16600185611519919061210c565b60ff1661154760017f0000000000000000000000000000000000000000000000000000000000000000612090565b61155191906120f5565b61155b9190612042565b6115659190612090565b61156f90856120f5565b6115799190612020565b9392505050565b3360009081526008602052604081205460609190819067ffffffffffffffff8111156115ae576115ae611cfd565b6040519080825280602002602001820160405280156115d7578160200160208202803683370190505b50905060006115e861025842612020565b3360009081526008602052604081205491925090815b336000908152600860205260409020548110156116d1573360009081526008602052604081208054839081106116365761163661207a565b90600052602060002001549050846007600083815260200190815260200160002060030154111561169157808685815181106116745761167461207a565b602090810291909101015283611689816120b9565b9450506116be565b8261169b81612125565b935050808684815181106116b1576116b161207a565b6020026020010181815250505b50806116c9816120b9565b9150506115fe565b5092959294509192505050565b60008060008060008060007f00000000000000000000000000000000000000000000000000000000000000006001600160a01b03166399fbab88896040518263ffffffff1660e01b815260040161173791815260200190565b61018060405180830381865afa158015611755573d6000803e3d6000fd5b505050506040513d601f19601f820116820180604052508101906117799190612188565b5050505097509750975097509750975050507f00000000000000000000000000000000000000000000000000000000000000006001600160a01b0316866001600160a01b03161480156117fd57507f00000000000000000000000000000000000000000000000000000000000000006001600160a01b0316856001600160a01b0316145b801561183257508362ffffff167f000000000000000000000000000000000000000000000000000000000000000062ffffff16145b61186e5760405162461bcd60e51b815260206004820152600d60248201526c3638103830b4b91032b93937b960991b60448201526064016106f7565b7f000000000000000000000000000000000000000000000000000000000000000060020b8360020b1480156118c857507f000000000000000000000000000000000000000000000000000000000000000060020b8260020b145b6119075760405162461bcd60e51b815260206004820152601060248201526f3a34b1b5903930b733b29032b93937b960811b60448201526064016106f7565b60405163020604bf60e21b81526004810189905230906001600160a01b037f0000000000000000000000000000000000000000000000000000000000000000169063081812fc90602401602060405180830381865afa15801561196e573d6000803e3d6000fd5b505050506040513d601f19601f820116820180604052508101906119929190612269565b6001600160a01b0316146119d65760405162461bcd60e51b815260206004820152600b60248201526a6e6f7420617070726f766560a81b60448201526064016106f7565b604051632142170760e11b8152336004820152306024820152604481018990527f00000000000000000000000000000000000000000000000000000000000000006001600160a01b0316906342842e0e90606401600060405180830381600087803b158015611a4457600080fd5b505af1158015611a58573d6000803e3d6000fd5b50506001600160801b039092169998505050505050505050565b604080516001600160a01b038481166024830152604480830185905283518084039091018152606490920183526020820180516001600160e01b031663a9059cbb60e01b1790529151600092839290871691611ace9190612286565b6000604051808303816000865af19150503d8060008114611b0b576040519150601f19603f3d011682016040523d82523d6000602084013e611b10565b606091505b5091509150818015611b3a575080511580611b3a575080806020019051810190611b3a91906122b5565b611b785760405162461bcd60e51b815260206004820152600f60248201526e1514905394d1915497d19052531151608a1b60448201526064016106f7565b5050505050565b604080516001600160a01b0385811660248301528481166044830152606480830185905283518084039091018152608490920183526020820180516001600160e01b03166323b872dd60e01b1790529151600092839290881691611be39190612286565b6000604051808303816000865af19150503d8060008114611c20576040519150601f19603f3d011682016040523d82523d6000602084013e611c25565b606091505b5091509150818015611c4f575080511580611c4f575080806020019051810190611c4f91906122b5565b611c915760405162461bcd60e51b81526020600482015260136024820152721d1c985b9cd9995c919c9bdb4819985a5b1959606a1b60448201526064016106f7565b505050505050565b600060208284031215611cab57600080fd5b5035919050565b60008060408385031215611cc557600080fd5b82359150602083013560ff81168114611cdd57600080fd5b809150509250929050565b6001600160a01b0381168114610f4a57600080fd5b634e487b7160e01b600052604160045260246000fd5b604051601f8201601f1916810167ffffffffffffffff81118282101715611d3c57611d3c611cfd565b604052919050565b60008060008060808587031215611d5a57600080fd5b8435611d6581611ce8565b9350602085810135611d7681611ce8565b935060408601359250606086013567ffffffffffffffff80821115611d9a57600080fd5b818801915088601f830112611dae57600080fd5b813581811115611dc057611dc0611cfd565b611dd2601f8201601f19168501611d13565b91508082528984828501011115611de857600080fd5b808484018584013760008482840101525080935050505092959194509250565b60008060408385031215611e1b57600080fd5b8235611e2681611ce8565b946020939093013593505050565b600060208284031215611e4657600080fd5b813561157981611ce8565b600081518084526020808501945080840160005b83811015611e8157815187529582019590820190600101611e65565b509495945050505050565b828152604060208201526000611ea56040830184611e51565b949350505050565b600082601f830112611ebe57600080fd5b8135602067ffffffffffffffff821115611eda57611eda611cfd565b8160051b611ee9828201611d13565b9283528481018201928281019087851115611f0357600080fd5b83870192505b84831015611f2257823582529183019190830190611f09565b979650505050505050565b60008060408385031215611f4057600080fd5b823567ffffffffffffffff80821115611f5857600080fd5b611f6486838701611ead565b93506020850135915080821115611f7a57600080fd5b50611f8785828601611ead565b9150509250929050565b600060208284031215611fa357600080fd5b813567ffffffffffffffff811115611fba57600080fd5b611ea584828501611ead565b60008060408385031215611fd957600080fd5b50508035926020909101359150565b604081526000611ffb6040830185611e51565b90508260208301529392505050565b634e487b7160e01b600052601160045260246000fd5b60008261203d57634e487b7160e01b600052601260045260246000fd5b500490565b808201808211156120555761205561200a565b92915050565b600060ff821660ff81036120715761207161200a565b60010192915050565b634e487b7160e01b600052603260045260246000fd5b818103818111156120555761205561200a565b634e487b7160e01b600052603160045260246000fd5b6000600182016120cb576120cb61200a565b5060010190565b6020808252600990820152683337b93134b23232b760b91b604082015260600190565b80820281158282048414176120555761205561200a565b60ff82811682821603908111156120555761205561200a565b6000816121345761213461200a565b506000190190565b805161214781611ce8565b919050565b805162ffffff8116811461214757600080fd5b8051600281900b811461214757600080fd5b80516001600160801b038116811461214757600080fd5b6000806000806000806000806000806000806101808d8f0312156121ab57600080fd5b8c516bffffffffffffffffffffffff811681146121c757600080fd5b9b506121d560208e0161213c565b9a506121e360408e0161213c565b99506121f160608e0161213c565b98506121ff60808e0161214c565b975061220d60a08e0161215f565b965061221b60c08e0161215f565b955061222960e08e01612171565b94506101008d015193506101208d015192506122486101408e01612171565b91506122576101608e01612171565b90509295989b509295989b509295989b565b60006020828403121561227b57600080fd5b815161157981611ce8565b6000825160005b818110156122a7576020818601810151858301520161228d565b506000920191825250919050565b6000602082840312156122c757600080fd5b8151801515811461157957600080fdfea264697066735822122054e173ec7fdbe14b5b91aaf114cecb463adf111f92313da457ecf530e18058b664736f6c63430008110033","opcodes":"PUSH2 0x200 PUSH1 0x40 MSTORE CALLVALUE DUP1 ISZERO PUSH3 0x12 JUMPI PUSH1 0x0 DUP1 REVERT JUMPDEST POP PUSH1 0x40 MLOAD PUSH3 0x2665 CODESIZE SUB DUP1 PUSH3 0x2665 DUP4 CODECOPY DUP2 ADD PUSH1 0x40 DUP2 SWAP1 MSTORE PUSH3 0x35 SWAP2 PUSH3 0x10C JUMP JUMPDEST PUSH1 0x1 PUSH1 0x1 PUSH1 0xA0 SHL SUB DUP1 DUP8 AND PUSH1 0x80 MSTORE PUSH1 0xFF DUP1 DUP14 AND PUSH1 0xA0 MSTORE PUSH1 0xC0 DUP13 SWAP1 MSTORE DUP11 AND PUSH1 0xE0 MSTORE PUSH2 0x100 DUP10 SWAP1 MSTORE PUSH2 0x120 DUP9 SWAP1 MSTORE PUSH1 0x0 DUP1 SLOAD PUSH1 0x1 PUSH1 0x1 PUSH1 0xA0 SHL SUB NOT AND CALLER OR SWAP1 SSTORE DUP5 DUP2 AND SWAP1 DUP7 AND LT PUSH3 0x87 JUMPI DUP4 DUP6 PUSH3 0x8A JUMP JUMPDEST DUP5 DUP5 JUMPDEST PUSH1 0x1 PUSH1 0x1 PUSH1 0xA0 SHL SUB SWAP1 DUP2 AND PUSH2 0x1C0 MSTORE SWAP1 DUP2 AND PUSH2 0x1A0 MSTORE PUSH3 0xFFFFFF DUP5 AND PUSH2 0x1E0 MSTORE DUP3 AND PUSH2 0x180 MSTORE PUSH1 0x2 DUP2 SWAP1 SIGNEXTEND PUSH2 0x160 MSTORE PUSH3 0xC4 DUP2 PUSH3 0x1E6 JUMP JUMPDEST PUSH1 0x2 SIGNEXTEND PUSH2 0x140 MSTORE POP PUSH3 0x217 SWAP10 POP POP POP POP POP POP POP POP POP POP JUMP JUMPDEST DUP1 MLOAD PUSH1 0xFF DUP2 AND DUP2 EQ PUSH3 0xEF JUMPI PUSH1 0x0 DUP1 REVERT JUMPDEST SWAP2 SWAP1 POP JUMP JUMPDEST DUP1 MLOAD PUSH1 0x1 PUSH1 0x1 PUSH1 0xA0 SHL SUB DUP2 AND DUP2 EQ PUSH3 0xEF JUMPI PUSH1 0x0 DUP1 REVERT JUMPDEST PUSH1 0x0 DUP1 PUSH1 0x0 DUP1 PUSH1 0x0 DUP1 PUSH1 0x0 DUP1 PUSH1 0x0 DUP1 PUSH1 0x0 PUSH2 0x160 DUP13 DUP15 SUB SLT ISZERO PUSH3 0x12F JUMPI PUSH1 0x0 DUP1 REVERT JUMPDEST PUSH3 0x13A DUP13 PUSH3 0xDD JUMP JUMPDEST SWAP11 POP PUSH1 0x20 DUP13 ADD MLOAD SWAP10 POP PUSH3 0x151 PUSH1 0x40 DUP14 ADD PUSH3 0xDD JUMP JUMPDEST SWAP9 POP PUSH1 0x60 DUP13 ADD MLOAD SWAP8 POP PUSH1 0x80 DUP13 ADD MLOAD SWAP7 POP PUSH3 0x16F PUSH1 0xA0 DUP14 ADD PUSH3 0xF4 JUMP JUMPDEST SWAP6 POP PUSH3 0x17F PUSH1 0xC0 DUP14 ADD PUSH3 0xF4 JUMP JUMPDEST SWAP5 POP PUSH3 0x18F PUSH1 0xE0 DUP14 ADD PUSH3 0xF4 JUMP JUMPDEST SWAP4 POP PUSH2 0x100 DUP13 ADD MLOAD PUSH3 0xFFFFFF DUP2 AND DUP2 EQ PUSH3 0x1A9 JUMPI PUSH1 0x0 DUP1 REVERT JUMPDEST SWAP3 POP PUSH3 0x1BA PUSH2 0x120 DUP14 ADD PUSH3 0xF4 JUMP JUMPDEST SWAP2 POP PUSH2 0x140 DUP13 ADD MLOAD DUP1 PUSH1 0x2 SIGNEXTEND DUP2 EQ PUSH3 0x1D2 JUMPI PUSH1 0x0 DUP1 REVERT JUMPDEST DUP1 SWAP2 POP POP SWAP3 SWAP6 SWAP9 SWAP12 POP SWAP3 SWAP6 SWAP9 SWAP12 SWAP1 SWAP4 SWAP7 SWAP10 POP JUMP JUMPDEST PUSH1 0x0 DUP2 PUSH1 0x2 SIGNEXTEND PUSH3 0x7FFFFF NOT DUP2 SUB PUSH3 0x20E JUMPI PUSH4 0x4E487B71 PUSH1 0xE0 SHL PUSH1 0x0 MSTORE PUSH1 0x11 PUSH1 0x4 MSTORE PUSH1 0x24 PUSH1 0x0 REVERT JUMPDEST PUSH1 0x0 SUB SWAP3 SWAP2 POP POP JUMP JUMPDEST PUSH1 0x80 MLOAD PUSH1 0xA0 MLOAD PUSH1 0xC0 MLOAD PUSH1 0xE0 MLOAD PUSH2 0x100 MLOAD PUSH2 0x120 MLOAD PUSH2 0x140 MLOAD PUSH2 0x160 MLOAD PUSH2 0x180 MLOAD PUSH2 0x1A0 MLOAD PUSH2 0x1C0 MLOAD PUSH2 0x1E0 MLOAD PUSH2 0x230D PUSH3 0x358 PUSH1 0x0 CODECOPY PUSH1 0x0 DUP2 DUP2 PUSH2 0x5C2 ADD MSTORE PUSH2 0x180C ADD MSTORE PUSH1 0x0 DUP2 DUP2 PUSH2 0x59B ADD MSTORE PUSH2 0x17C9 ADD MSTORE PUSH1 0x0 DUP2 DUP2 PUSH2 0x287 ADD MSTORE PUSH2 0x178D ADD MSTORE PUSH1 0x0 DUP2 DUP2 PUSH2 0x574 ADD MSTORE DUP2 DUP2 PUSH2 0xACF ADD MSTORE DUP2 DUP2 PUSH2 0x16EB ADD MSTORE DUP2 DUP2 PUSH2 0x1927 ADD MSTORE PUSH2 0x19F8 ADD MSTORE PUSH1 0x0 DUP2 DUP2 PUSH2 0x437 ADD MSTORE PUSH2 0x18A0 ADD MSTORE PUSH1 0x0 DUP2 DUP2 PUSH2 0x4DB ADD MSTORE PUSH2 0x1870 ADD MSTORE PUSH1 0x0 DUP2 DUP2 PUSH2 0x3CA ADD MSTORE DUP2 DUP2 PUSH2 0xF7A ADD MSTORE PUSH2 0x11FF ADD MSTORE PUSH1 0x0 DUP2 DUP2 PUSH2 0x530 ADD MSTORE DUP2 DUP2 PUSH2 0xFA5 ADD MSTORE PUSH2 0x122A ADD MSTORE PUSH1 0x0 DUP2 DUP2 PUSH2 0x24E ADD MSTORE DUP2 DUP2 PUSH2 0xC22 ADD MSTORE DUP2 DUP2 PUSH2 0xD12 ADD MSTORE DUP2 DUP2 PUSH2 0xEB8 ADD MSTORE PUSH2 0x1331 ADD MSTORE PUSH1 0x0 DUP2 DUP2 PUSH2 0x623 ADD MSTORE PUSH2 0x1523 ADD MSTORE PUSH1 0x0 DUP2 DUP2 PUSH2 0x5E9 ADD MSTORE DUP2 DUP2 PUSH2 0x692 ADD MSTORE DUP2 DUP2 PUSH2 0x14BF ADD MSTORE PUSH2 0x14EA ADD MSTORE PUSH1 0x0 DUP2 DUP2 PUSH2 0x64A ADD MSTORE DUP2 DUP2 PUSH2 0xF24 ADD MSTORE DUP2 DUP2 PUSH2 0x1125 ADD MSTORE DUP2 DUP2 PUSH2 0x1292 ADD MSTORE PUSH2 0x1439 ADD MSTORE PUSH2 0x230D PUSH1 0x0 RETURN INVALID PUSH1 0x80 PUSH1 0x40 MSTORE CALLVALUE DUP1 ISZERO PUSH2 0x10 JUMPI PUSH1 0x0 DUP1 REVERT JUMPDEST POP PUSH1 0x4 CALLDATASIZE LT PUSH2 0x211 JUMPI PUSH1 0x0 CALLDATALOAD PUSH1 0xE0 SHR DUP1 PUSH4 0x8DA5CB5B GT PUSH2 0x125 JUMPI DUP1 PUSH4 0xCD671A58 GT PUSH2 0xAD JUMPI DUP1 PUSH4 0xE11400BB GT PUSH2 0x7C JUMPI DUP1 PUSH4 0xE11400BB EQ PUSH2 0x5E4 JUMPI DUP1 PUSH4 0xEE3453ED EQ PUSH2 0x60B JUMPI DUP1 PUSH4 0xF6DEF7CF EQ PUSH2 0x61E JUMPI DUP1 PUSH4 0xF7C618C1 EQ PUSH2 0x645 JUMPI DUP1 PUSH4 0xFDC5AB8E EQ PUSH2 0x66C JUMPI PUSH1 0x0 DUP1 REVERT JUMPDEST DUP1 PUSH4 0xCD671A58 EQ PUSH2 0x552 JUMPI DUP1 PUSH4 0xD06FCBA8 EQ PUSH2 0x56F JUMPI DUP1 PUSH4 0xD21220A7 EQ PUSH2 0x596 JUMPI DUP1 PUSH4 0xDDCA3F43 EQ PUSH2 0x5BD JUMPI PUSH1 0x0 DUP1 REVERT JUMPDEST DUP1 PUSH4 0xA1634B14 GT PUSH2 0xF4 JUMPI DUP1 PUSH4 0xA1634B14 EQ PUSH2 0x4D6 JUMPI DUP1 PUSH4 0xA47BD496 EQ PUSH2 0x4FD JUMPI DUP1 PUSH4 0xB88A802F EQ PUSH2 0x510 JUMPI DUP1 PUSH4 0xBB57852D EQ PUSH2 0x518 JUMPI DUP1 PUSH4 0xC75363B6 EQ PUSH2 0x52B JUMPI PUSH1 0x0 DUP1 REVERT JUMPDEST DUP1 PUSH4 0x8DA5CB5B EQ PUSH2 0x48A JUMPI DUP1 PUSH4 0x9342C8F4 EQ PUSH2 0x49D JUMPI DUP1 PUSH4 0x979DB1C4 EQ PUSH2 0x4B0 JUMPI DUP1 PUSH4 0x983D95CE EQ PUSH2 0x4C3 JUMPI PUSH1 0x0 DUP1 REVERT JUMPDEST DUP1 PUSH4 0x29ED1CFD GT PUSH2 0x1A8 JUMPI DUP1 PUSH4 0x5B680A45 GT PUSH2 0x177 JUMPI DUP1 PUSH4 0x5B680A45 EQ PUSH2 0x3FF JUMPI DUP1 PUSH4 0x5F8E422F EQ PUSH2 0x42A JUMPI DUP1 PUSH4 0x6882A888 EQ PUSH2 0x432 JUMPI DUP1 PUSH4 0x8431165E EQ PUSH2 0x46C JUMPI DUP1 PUSH4 0x8923DE2B EQ PUSH2 0x474 JUMPI PUSH1 0x0 DUP1 REVERT JUMPDEST DUP1 PUSH4 0x29ED1CFD EQ PUSH2 0x3A9 JUMPI DUP1 PUSH4 0x2E1A7D4D EQ PUSH2 0x3B2 JUMPI DUP1 PUSH4 0x37BA682D EQ PUSH2 0x3C5 JUMPI DUP1 PUSH4 0x4FB2E45D EQ PUSH2 0x3EC JUMPI PUSH1 0x0 DUP1 REVERT JUMPDEST DUP1 PUSH4 0x10C6C1C2 GT PUSH2 0x1E4 JUMPI DUP1 PUSH4 0x10C6C1C2 EQ PUSH2 0x2D6 JUMPI DUP1 PUSH4 0x150B7A02 EQ PUSH2 0x33F JUMPI DUP1 PUSH4 0x157775DF EQ PUSH2 0x376 JUMPI DUP1 PUSH4 0x291C73C3 EQ PUSH2 0x396 JUMPI PUSH1 0x0 DUP1 REVERT JUMPDEST DUP1 PUSH4 0xBCE1284 EQ PUSH2 0x216 JUMPI DUP1 PUSH4 0xD437D40 EQ PUSH2 0x249 JUMPI DUP1 PUSH4 0xDFE1681 EQ PUSH2 0x282 JUMPI DUP1 PUSH4 0x10087FB1 EQ PUSH2 0x2C1 JUMPI JUMPDEST PUSH1 0x0 DUP1 REVERT JUMPDEST PUSH2 0x236 PUSH2 0x224 CALLDATASIZE PUSH1 0x4 PUSH2 0x1C99 JUMP JUMPDEST PUSH1 0x5 PUSH1 0x20 MSTORE PUSH1 0x0 SWAP1 DUP2 MSTORE PUSH1 0x40 SWAP1 KECCAK256 SLOAD DUP2 JUMP JUMPDEST PUSH1 0x40 MLOAD SWAP1 DUP2 MSTORE PUSH1 0x20 ADD JUMPDEST PUSH1 0x40 MLOAD DUP1 SWAP2 SUB SWAP1 RETURN JUMPDEST PUSH2 0x270 PUSH32 0x0 DUP2 JUMP JUMPDEST PUSH1 0x40 MLOAD PUSH1 0xFF SWAP1 SWAP2 AND DUP2 MSTORE PUSH1 0x20 ADD PUSH2 0x240 JUMP JUMPDEST PUSH2 0x2A9 PUSH32 0x0 DUP2 JUMP JUMPDEST PUSH1 0x40 MLOAD PUSH1 0x1 PUSH1 0x1 PUSH1 0xA0 SHL SUB SWAP1 SWAP2 AND DUP2 MSTORE PUSH1 0x20 ADD PUSH2 0x240 JUMP JUMPDEST PUSH2 0x2D4 PUSH2 0x2CF CALLDATASIZE PUSH1 0x4 PUSH2 0x1CB2 JUMP JUMPDEST PUSH2 0x682 JUMP JUMPDEST STOP JUMPDEST PUSH2 0x315 PUSH2 0x2E4 CALLDATASIZE PUSH1 0x4 PUSH2 0x1C99 JUMP JUMPDEST PUSH1 0x7 PUSH1 0x20 MSTORE PUSH1 0x0 SWAP1 DUP2 MSTORE PUSH1 0x40 SWAP1 KECCAK256 DUP1 SLOAD PUSH1 0x1 DUP3 ADD SLOAD PUSH1 0x2 DUP4 ADD SLOAD PUSH1 0x3 SWAP1 SWAP4 ADD SLOAD PUSH1 0x1 PUSH1 0x1 PUSH1 0xA0 SHL SUB SWAP1 SWAP3 AND SWAP3 SWAP1 SWAP2 DUP5 JUMP JUMPDEST PUSH1 0x40 DUP1 MLOAD PUSH1 0x1 PUSH1 0x1 PUSH1 0xA0 SHL SUB SWAP1 SWAP6 AND DUP6 MSTORE PUSH1 0x20 DUP6 ADD SWAP4 SWAP1 SWAP4 MSTORE SWAP2 DUP4 ADD MSTORE PUSH1 0x60 DUP3 ADD MSTORE PUSH1 0x80 ADD PUSH2 0x240 JUMP JUMPDEST PUSH2 0x35D PUSH2 0x34D CALLDATASIZE PUSH1 0x4 PUSH2 0x1D44 JUMP JUMPDEST PUSH4 0xA85BD01 PUSH1 0xE1 SHL SWAP5 SWAP4 POP POP POP POP JUMP JUMPDEST PUSH1 0x40 MLOAD PUSH1 0x1 PUSH1 0x1 PUSH1 0xE0 SHL SUB NOT SWAP1 SWAP2 AND DUP2 MSTORE PUSH1 0x20 ADD PUSH2 0x240 JUMP JUMPDEST PUSH2 0x236 PUSH2 0x384 CALLDATASIZE PUSH1 0x4 PUSH2 0x1C99 JUMP JUMPDEST PUSH1 0x4 PUSH1 0x20 MSTORE PUSH1 0x0 SWAP1 DUP2 MSTORE PUSH1 0x40 SWAP1 KECCAK256 SLOAD DUP2 JUMP JUMPDEST PUSH2 0x236 PUSH2 0x3A4 CALLDATASIZE PUSH1 0x4 PUSH2 0x1E08 JUMP JUMPDEST PUSH2 0x90C JUMP JUMPDEST PUSH2 0x236 PUSH1 0x6 SLOAD DUP2 JUMP JUMPDEST PUSH2 0x2D4 PUSH2 0x3C0 CALLDATASIZE PUSH1 0x4 PUSH2 0x1C99 JUMP JUMPDEST PUSH2 0x93D JUMP JUMPDEST PUSH2 0x236 PUSH32 0x0 DUP2 JUMP JUMPDEST PUSH2 0x2D4 PUSH2 0x3FA CALLDATASIZE PUSH1 0x4 PUSH2 0x1E34 JUMP JUMPDEST PUSH2 0xB7E JUMP JUMPDEST PUSH2 0x236 PUSH2 0x40D CALLDATASIZE PUSH1 0x4 PUSH2 0x1E08 JUMP JUMPDEST PUSH1 0x2 PUSH1 0x20 SWAP1 DUP2 MSTORE PUSH1 0x0 SWAP3 DUP4 MSTORE PUSH1 0x40 DUP1 DUP5 KECCAK256 SWAP1 SWAP2 MSTORE SWAP1 DUP3 MSTORE SWAP1 KECCAK256 SLOAD DUP2 JUMP JUMPDEST PUSH2 0x2D4 PUSH2 0xBCA JUMP JUMPDEST PUSH2 0x459 PUSH32 0x0 DUP2 JUMP JUMPDEST PUSH1 0x40 MLOAD PUSH1 0x2 SWAP2 SWAP1 SWAP2 SIGNEXTEND DUP2 MSTORE PUSH1 0x20 ADD PUSH2 0x240 JUMP JUMPDEST PUSH2 0x236 PUSH2 0xC1B JUMP JUMPDEST PUSH2 0x47C PUSH2 0xD09 JUMP JUMPDEST PUSH1 0x40 MLOAD PUSH2 0x240 SWAP3 SWAP2 SWAP1 PUSH2 0x1E8C JUMP JUMPDEST PUSH1 0x0 SLOAD PUSH2 0x2A9 SWAP1 PUSH1 0x1 PUSH1 0x1 PUSH1 0xA0 SHL SUB AND DUP2 JUMP JUMPDEST PUSH2 0x2D4 PUSH2 0x4AB CALLDATASIZE PUSH1 0x4 PUSH2 0x1C99 JUMP JUMPDEST PUSH2 0xEF5 JUMP JUMPDEST PUSH2 0x236 PUSH2 0x4BE CALLDATASIZE PUSH1 0x4 PUSH2 0x1F2D JUMP JUMPDEST PUSH2 0xF4D JUMP JUMPDEST PUSH2 0x2D4 PUSH2 0x4D1 CALLDATASIZE PUSH1 0x4 PUSH2 0x1F91 JUMP JUMPDEST PUSH2 0x118F JUMP JUMPDEST PUSH2 0x459 PUSH32 0x0 DUP2 JUMP JUMPDEST PUSH2 0x2D4 PUSH2 0x50B CALLDATASIZE PUSH1 0x4 PUSH2 0x1FC6 JUMP JUMPDEST PUSH2 0x11D3 JUMP JUMPDEST PUSH2 0x2D4 PUSH2 0x132B JUMP JUMPDEST PUSH2 0x236 PUSH2 0x526 CALLDATASIZE PUSH1 0x4 PUSH2 0x1E08 JUMP JUMPDEST PUSH2 0x1491 JUMP JUMPDEST PUSH2 0x236 PUSH32 0x0 DUP2 JUMP JUMPDEST PUSH2 0x55B PUSH2 0x258 DUP2 JUMP JUMPDEST PUSH1 0x40 MLOAD PUSH3 0xFFFFFF SWAP1 SWAP2 AND DUP2 MSTORE PUSH1 0x20 ADD PUSH2 0x240 JUMP JUMPDEST PUSH2 0x2A9 PUSH32 0x0 DUP2 JUMP JUMPDEST PUSH2 0x2A9 PUSH32 0x0 DUP2 JUMP JUMPDEST PUSH2 0x55B PUSH32 0x0 DUP2 JUMP JUMPDEST PUSH2 0x270 PUSH32 0x0 DUP2 JUMP JUMPDEST PUSH2 0x236 PUSH2 0x619 CALLDATASIZE PUSH1 0x4 PUSH2 0x1CB2 JUMP JUMPDEST PUSH2 0x14B6 JUMP JUMPDEST PUSH2 0x236 PUSH32 0x0 DUP2 JUMP JUMPDEST PUSH2 0x2A9 PUSH32 0x0 DUP2 JUMP JUMPDEST PUSH2 0x674 PUSH2 0x1580 JUMP JUMPDEST PUSH1 0x40 MLOAD PUSH2 0x240 SWAP3 SWAP2 SWAP1 PUSH2 0x1FE8 JUMP JUMPDEST PUSH1 0x0 DUP2 PUSH1 0xFF AND GT DUP1 ISZERO PUSH2 0x6BB JUMPI POP PUSH32 0x0 PUSH1 0xFF AND DUP2 PUSH1 0xFF AND GT ISZERO JUMPDEST PUSH2 0x700 JUMPI PUSH1 0x40 MLOAD PUSH3 0x461BCD PUSH1 0xE5 SHL DUP2 MSTORE PUSH1 0x20 PUSH1 0x4 DUP3 ADD MSTORE PUSH1 0x11 PUSH1 0x24 DUP3 ADD MSTORE PUSH17 0x39BA30B5B2903BB2B2B5B99032B93937B9 PUSH1 0x79 SHL PUSH1 0x44 DUP3 ADD MSTORE PUSH1 0x64 ADD JUMPDEST PUSH1 0x40 MLOAD DUP1 SWAP2 SUB SWAP1 REVERT JUMPDEST PUSH1 0x0 PUSH2 0x70B DUP4 PUSH2 0x16DE JUMP JUMPDEST SWAP1 POP PUSH1 0x0 PUSH2 0x71B PUSH2 0x258 TIMESTAMP PUSH2 0x2020 JUMP JUMPDEST PUSH2 0x726 SWAP1 PUSH1 0x1 PUSH2 0x2042 JUMP JUMPDEST SWAP1 POP PUSH1 0x0 PUSH2 0x734 DUP4 DUP6 PUSH2 0x14B6 JUMP JUMPDEST SWAP1 POP PUSH1 0x0 JUMPDEST DUP5 PUSH1 0xFF AND DUP2 PUSH1 0xFF AND LT ISZERO PUSH2 0x7CE JUMPI DUP2 PUSH1 0x4 PUSH1 0x0 PUSH2 0x759 PUSH1 0xFF DUP6 AND DUP8 PUSH2 0x2042 JUMP JUMPDEST DUP2 MSTORE PUSH1 0x20 ADD SWAP1 DUP2 MSTORE PUSH1 0x20 ADD PUSH1 0x0 KECCAK256 PUSH1 0x0 DUP3 DUP3 SLOAD PUSH2 0x776 SWAP2 SWAP1 PUSH2 0x2042 JUMP JUMPDEST SWAP1 SWAP2 SSTORE POP POP CALLER PUSH1 0x0 SWAP1 DUP2 MSTORE PUSH1 0x2 PUSH1 0x20 MSTORE PUSH1 0x40 DUP2 KECCAK256 DUP4 SWAP2 PUSH2 0x799 PUSH1 0xFF DUP6 AND DUP8 PUSH2 0x2042 JUMP JUMPDEST DUP2 MSTORE PUSH1 0x20 ADD SWAP1 DUP2 MSTORE PUSH1 0x20 ADD PUSH1 0x0 KECCAK256 PUSH1 0x0 DUP3 DUP3 SLOAD PUSH2 0x7B6 SWAP2 SWAP1 PUSH2 0x2042 JUMP JUMPDEST SWAP1 SWAP2 SSTORE POP DUP2 SWAP1 POP PUSH2 0x7C6 DUP2 PUSH2 0x205B JUMP JUMPDEST SWAP2 POP POP PUSH2 0x739 JUMP JUMPDEST POP PUSH1 0x0 PUSH2 0x7DE PUSH1 0xFF DUP7 AND DUP5 PUSH2 0x2042 JUMP JUMPDEST PUSH1 0x40 DUP1 MLOAD PUSH1 0x80 DUP2 ADD DUP3 MSTORE CALLER DUP1 DUP3 MSTORE PUSH1 0x20 DUP1 DUP4 ADD DUP8 DUP2 MSTORE DUP4 DUP6 ADD DUP10 DUP2 MSTORE PUSH1 0x60 DUP6 ADD DUP8 DUP2 MSTORE PUSH1 0x0 DUP15 DUP2 MSTORE PUSH1 0x7 DUP6 MSTORE DUP8 DUP2 KECCAK256 SWAP7 MLOAD DUP8 SLOAD PUSH1 0x1 PUSH1 0x1 PUSH1 0xA0 SHL SUB NOT AND PUSH1 0x1 PUSH1 0x1 PUSH1 0xA0 SHL SUB SWAP1 SWAP2 AND OR DUP8 SSTORE SWAP3 MLOAD PUSH1 0x1 DUP1 DUP9 ADD SWAP2 SWAP1 SWAP2 SSTORE SWAP2 MLOAD PUSH1 0x2 DUP8 ADD SSTORE MLOAD PUSH1 0x3 SWAP6 DUP7 ADD SSTORE SWAP3 DUP2 MSTORE SWAP3 SWAP1 MSTORE SWAP2 SWAP1 KECCAK256 SWAP1 DUP2 ADD SLOAD SWAP1 SLOAD SWAP2 SWAP3 POP SWAP1 SUB PUSH2 0x86D JUMPI CALLER PUSH1 0x0 SWAP1 DUP2 MSTORE PUSH1 0x3 PUSH1 0x20 MSTORE PUSH1 0x40 SWAP1 KECCAK256 DUP4 SWAP1 SSTORE JUMPDEST CALLER PUSH1 0x0 SWAP1 DUP2 MSTORE PUSH1 0x3 PUSH1 0x20 MSTORE PUSH1 0x40 SWAP1 KECCAK256 DUP2 SWAP1 PUSH1 0x1 ADD SLOAD LT ISZERO PUSH2 0x89E JUMPI CALLER PUSH1 0x0 SWAP1 DUP2 MSTORE PUSH1 0x3 PUSH1 0x20 MSTORE PUSH1 0x40 SWAP1 KECCAK256 DUP2 SWAP1 PUSH1 0x1 ADD SSTORE JUMPDEST CALLER PUSH1 0x0 DUP2 DUP2 MSTORE PUSH1 0x8 PUSH1 0x20 SWAP1 DUP2 MSTORE PUSH1 0x40 DUP1 DUP4 KECCAK256 DUP1 SLOAD PUSH1 0x1 DUP2 ADD DUP3 SSTORE SWAP1 DUP5 MSTORE SWAP3 DUP3 SWAP1 KECCAK256 SWAP1 SWAP3 ADD DUP10 SWAP1 SSTORE DUP2 MLOAD DUP10 DUP2 MSTORE SWAP1 DUP2 ADD DUP8 SWAP1 MSTORE PUSH1 0xFF DUP9 AND DUP2 DUP4 ADD MSTORE SWAP1 MLOAD PUSH32 0x6FA2F6021EE337436CDF2B2570285886DA18BC06402CE284D296504A0FE8F875 SWAP2 DUP2 SWAP1 SUB PUSH1 0x60 ADD SWAP1 LOG2 POP POP POP POP POP POP JUMP JUMPDEST PUSH1 0x8 PUSH1 0x20 MSTORE DUP2 PUSH1 0x0 MSTORE PUSH1 0x40 PUSH1 0x0 KECCAK256 DUP2 DUP2 SLOAD DUP2 LT PUSH2 0x928 JUMPI PUSH1 0x0 DUP1 REVERT JUMPDEST SWAP1 PUSH1 0x0 MSTORE PUSH1 0x20 PUSH1 0x0 KECCAK256 ADD PUSH1 0x0 SWAP2 POP SWAP2 POP POP SLOAD DUP2 JUMP JUMPDEST PUSH1 0x0 DUP2 DUP2 MSTORE PUSH1 0x7 PUSH1 0x20 MSTORE PUSH1 0x40 SWAP1 KECCAK256 SLOAD PUSH1 0x1 PUSH1 0x1 PUSH1 0xA0 SHL SUB AND CALLER EQ PUSH2 0x995 JUMPI PUSH1 0x40 MLOAD PUSH3 0x461BCD PUSH1 0xE5 SHL DUP2 MSTORE PUSH1 0x20 PUSH1 0x4 DUP3 ADD MSTORE PUSH1 0xF PUSH1 0x24 DUP3 ADD MSTORE PUSH15 0x37BBB732B9103337B93134B23232B7 PUSH1 0x89 SHL PUSH1 0x44 DUP3 ADD MSTORE PUSH1 0x64 ADD PUSH2 0x6F7 JUMP JUMPDEST PUSH1 0x0 PUSH2 0x9A3 PUSH2 0x258 TIMESTAMP PUSH2 0x2020 JUMP JUMPDEST PUSH1 0x0 DUP4 DUP2 MSTORE PUSH1 0x7 PUSH1 0x20 MSTORE PUSH1 0x40 SWAP1 KECCAK256 PUSH1 0x3 ADD SLOAD SWAP1 SWAP2 POP DUP2 LT ISZERO PUSH2 0x9F5 JUMPI PUSH1 0x40 MLOAD PUSH3 0x461BCD PUSH1 0xE5 SHL DUP2 MSTORE PUSH1 0x20 PUSH1 0x4 DUP3 ADD MSTORE PUSH1 0xB PUSH1 0x24 DUP3 ADD MSTORE PUSH11 0x6C6F636B65642074696D65 PUSH1 0xA8 SHL PUSH1 0x44 DUP3 ADD MSTORE PUSH1 0x64 ADD PUSH2 0x6F7 JUMP JUMPDEST CALLER PUSH1 0x0 SWAP1 DUP2 MSTORE PUSH1 0x8 PUSH1 0x20 MSTORE PUSH1 0x40 DUP2 KECCAK256 SWAP1 JUMPDEST DUP2 SLOAD DUP2 LT ISZERO PUSH2 0xB42 JUMPI DUP2 DUP2 DUP2 SLOAD DUP2 LT PUSH2 0xA21 JUMPI PUSH2 0xA21 PUSH2 0x207A JUMP JUMPDEST SWAP1 PUSH1 0x0 MSTORE PUSH1 0x20 PUSH1 0x0 KECCAK256 ADD SLOAD DUP5 SUB PUSH2 0xB30 JUMPI DUP2 SLOAD DUP3 SWAP1 PUSH2 0xA42 SWAP1 PUSH1 0x1 SWAP1 PUSH2 0x2090 JUMP JUMPDEST DUP2 SLOAD DUP2 LT PUSH2 0xA52 JUMPI PUSH2 0xA52 PUSH2 0x207A JUMP JUMPDEST SWAP1 PUSH1 0x0 MSTORE PUSH1 0x20 PUSH1 0x0 KECCAK256 ADD SLOAD DUP3 DUP3 DUP2 SLOAD DUP2 LT PUSH2 0xA6F JUMPI PUSH2 0xA6F PUSH2 0x207A JUMP JUMPDEST SWAP1 PUSH1 0x0 MSTORE PUSH1 0x20 PUSH1 0x0 KECCAK256 ADD DUP2 SWAP1 SSTORE POP DUP2 DUP1 SLOAD DUP1 PUSH2 0xA8D JUMPI PUSH2 0xA8D PUSH2 0x20A3 JUMP JUMPDEST PUSH1 0x0 DUP3 DUP2 MSTORE PUSH1 0x20 DUP2 KECCAK256 DUP3 ADD PUSH1 0x0 NOT SWAP1 DUP2 ADD SWAP2 SWAP1 SWAP2 SSTORE ADD SWAP1 SSTORE PUSH1 0x40 MLOAD PUSH4 0x21421707 PUSH1 0xE1 SHL DUP2 MSTORE ADDRESS PUSH1 0x4 DUP3 ADD MSTORE CALLER PUSH1 0x24 DUP3 ADD MSTORE PUSH1 0x44 DUP2 ADD DUP6 SWAP1 MSTORE PUSH1 0x1 PUSH1 0x1 PUSH1 0xA0 SHL SUB PUSH32 0x0 AND SWAP1 PUSH4 0x42842E0E SWAP1 PUSH1 0x64 ADD PUSH1 0x0 PUSH1 0x40 MLOAD DUP1 DUP4 SUB DUP2 PUSH1 0x0 DUP8 DUP1 EXTCODESIZE ISZERO DUP1 ISZERO PUSH2 0xB13 JUMPI PUSH1 0x0 DUP1 REVERT JUMPDEST POP GAS CALL ISZERO DUP1 ISZERO PUSH2 0xB27 JUMPI RETURNDATASIZE PUSH1 0x0 DUP1 RETURNDATACOPY RETURNDATASIZE PUSH1 0x0 REVERT JUMPDEST POP POP POP POP PUSH2 0xB42 JUMP JUMPDEST DUP1 PUSH2 0xB3A DUP2 PUSH2 0x20B9 JUMP JUMPDEST SWAP2 POP POP PUSH2 0xA06 JUMP JUMPDEST POP PUSH1 0x40 MLOAD DUP4 DUP2 MSTORE CALLER SWAP1 PUSH32 0x884EDAD9CE6FA2440D8A54CC123490EB96D2768479D49FF9C7366125A9424364 SWAP1 PUSH1 0x20 ADD JUMPDEST PUSH1 0x40 MLOAD DUP1 SWAP2 SUB SWAP1 LOG2 POP POP POP JUMP JUMPDEST PUSH1 0x0 SLOAD PUSH1 0x1 PUSH1 0x1 PUSH1 0xA0 SHL SUB AND CALLER EQ PUSH2 0xBA8 JUMPI PUSH1 0x40 MLOAD PUSH3 0x461BCD PUSH1 0xE5 SHL DUP2 MSTORE PUSH1 0x4 ADD PUSH2 0x6F7 SWAP1 PUSH2 0x20D2 JUMP JUMPDEST PUSH1 0x1 DUP1 SLOAD PUSH1 0x1 PUSH1 0x1 PUSH1 0xA0 SHL SUB NOT AND PUSH1 0x1 PUSH1 0x1 PUSH1 0xA0 SHL SUB SWAP3 SWAP1 SWAP3 AND SWAP2 SWAP1 SWAP2 OR SWAP1 SSTORE JUMP JUMPDEST PUSH1 0x1 SLOAD PUSH1 0x1 PUSH1 0x1 PUSH1 0xA0 SHL SUB AND CALLER EQ PUSH2 0xBF4 JUMPI PUSH1 0x40 MLOAD PUSH3 0x461BCD PUSH1 0xE5 SHL DUP2 MSTORE PUSH1 0x4 ADD PUSH2 0x6F7 SWAP1 PUSH2 0x20D2 JUMP JUMPDEST PUSH1 0x1 DUP1 SLOAD PUSH1 0x0 DUP1 SLOAD PUSH1 0x1 PUSH1 0x1 PUSH1 0xA0 SHL SUB NOT SWAP1 DUP2 AND PUSH1 0x1 PUSH1 0x1 PUSH1 0xA0 SHL SUB DUP5 AND OR SWAP1 SWAP2 SSTORE AND SWAP1 SSTORE JUMP JUMPDEST PUSH1 0x0 DUP1 PUSH1 0xFF PUSH32 0x0 AND PUSH2 0xC4E PUSH2 0x258 TIMESTAMP PUSH2 0x2020 JUMP JUMPDEST PUSH2 0xC58 SWAP2 SWAP1 PUSH2 0x2090 JUMP JUMPDEST CALLER PUSH1 0x0 SWAP1 DUP2 MSTORE PUSH1 0x3 PUSH1 0x20 MSTORE PUSH1 0x40 DUP2 KECCAK256 SLOAD SWAP2 SWAP3 POP SWAP1 JUMPDEST CALLER PUSH1 0x0 SWAP1 DUP2 MSTORE PUSH1 0x3 PUSH1 0x20 MSTORE PUSH1 0x40 SWAP1 KECCAK256 PUSH1 0x1 ADD SLOAD DUP2 LT ISZERO PUSH2 0xD02 JUMPI DUP3 DUP2 GT PUSH2 0xD02 JUMPI PUSH1 0x0 DUP2 DUP2 MSTORE PUSH1 0x4 PUSH1 0x20 MSTORE PUSH1 0x40 SWAP1 KECCAK256 SLOAD ISZERO PUSH2 0xCF0 JUMPI PUSH1 0x0 DUP2 DUP2 MSTORE PUSH1 0x4 PUSH1 0x20 SWAP1 DUP2 MSTORE PUSH1 0x40 DUP1 DUP4 KECCAK256 SLOAD CALLER DUP5 MSTORE PUSH1 0x2 DUP4 MSTORE DUP2 DUP5 KECCAK256 DUP6 DUP6 MSTORE DUP4 MSTORE DUP2 DUP5 KECCAK256 SLOAD PUSH1 0x5 SWAP1 SWAP4 MSTORE SWAP3 KECCAK256 SLOAD PUSH2 0xCD9 SWAP2 SWAP1 PUSH2 0x20F5 JUMP JUMPDEST PUSH2 0xCE3 SWAP2 SWAP1 PUSH2 0x2020 JUMP JUMPDEST PUSH2 0xCED SWAP1 DUP4 PUSH2 0x2042 JUMP JUMPDEST SWAP2 POP JUMPDEST DUP1 PUSH2 0xCFA DUP2 PUSH2 0x20B9 JUMP JUMPDEST SWAP2 POP POP PUSH2 0xC6D JUMP JUMPDEST POP SWAP3 SWAP2 POP POP JUMP JUMPDEST PUSH1 0x0 PUSH1 0x60 DUP2 PUSH1 0xFF PUSH32 0x0 AND PUSH2 0xD3E PUSH2 0x258 TIMESTAMP PUSH2 0x2020 JUMP JUMPDEST PUSH2 0xD48 SWAP2 SWAP1 PUSH2 0x2090 JUMP JUMPDEST PUSH2 0xD53 SWAP1 PUSH1 0x1 PUSH2 0x2042 JUMP JUMPDEST CALLER PUSH1 0x0 SWAP1 DUP2 MSTORE PUSH1 0x3 PUSH1 0x20 MSTORE PUSH1 0x40 SWAP1 KECCAK256 SWAP1 SWAP2 POP DUP2 SWAP1 PUSH1 0x1 ADD SLOAD GT PUSH2 0xD88 JUMPI PUSH1 0x40 DUP1 MLOAD PUSH1 0x0 DUP2 MSTORE PUSH1 0x20 DUP2 ADD SWAP1 SWAP2 MSTORE SWAP1 SWAP4 SWAP1 SWAP3 POP SWAP1 POP JUMP JUMPDEST CALLER PUSH1 0x0 SWAP1 DUP2 MSTORE PUSH1 0x3 PUSH1 0x20 MSTORE PUSH1 0x40 DUP2 KECCAK256 DUP1 SLOAD PUSH1 0x1 SWAP1 SWAP2 ADD SLOAD SWAP1 SWAP2 DUP4 DUP4 GT PUSH2 0xDAE JUMPI DUP4 PUSH2 0xDB0 JUMP JUMPDEST DUP3 JUMPDEST SWAP1 POP PUSH1 0x0 PUSH2 0xDBE DUP3 DUP5 PUSH2 0x2090 JUMP JUMPDEST PUSH8 0xFFFFFFFFFFFFFFFF DUP2 GT ISZERO PUSH2 0xDD6 JUMPI PUSH2 0xDD6 PUSH2 0x1CFD JUMP JUMPDEST PUSH1 0x40 MLOAD SWAP1 DUP1 DUP3 MSTORE DUP1 PUSH1 0x20 MUL PUSH1 0x20 ADD DUP3 ADD PUSH1 0x40 MSTORE DUP1 ISZERO PUSH2 0xDFF JUMPI DUP2 PUSH1 0x20 ADD PUSH1 0x20 DUP3 MUL DUP1 CALLDATASIZE DUP4 CALLDATACOPY ADD SWAP1 POP JUMPDEST POP SWAP1 POP DUP2 JUMPDEST DUP4 DUP2 LT ISZERO PUSH2 0xEA1 JUMPI PUSH1 0x0 DUP2 DUP2 MSTORE PUSH1 0x4 PUSH1 0x20 MSTORE PUSH1 0x40 SWAP1 KECCAK256 SLOAD ISZERO PUSH2 0xE66 JUMPI PUSH1 0x0 DUP2 DUP2 MSTORE PUSH1 0x4 PUSH1 0x20 SWAP1 DUP2 MSTORE PUSH1 0x40 DUP1 DUP4 KECCAK256 SLOAD CALLER DUP5 MSTORE PUSH1 0x2 DUP4 MSTORE DUP2 DUP5 KECCAK256 DUP6 DUP6 MSTORE DUP4 MSTORE DUP2 DUP5 KECCAK256 SLOAD PUSH1 0x5 SWAP1 SWAP4 MSTORE SWAP3 KECCAK256 SLOAD PUSH2 0xE57 SWAP2 SWAP1 PUSH2 0x20F5 JUMP JUMPDEST PUSH2 0xE61 SWAP2 SWAP1 PUSH2 0x2020 JUMP JUMPDEST PUSH2 0xE69 JUMP JUMPDEST PUSH1 0x0 JUMPDEST DUP3 PUSH2 0xE74 DUP6 DUP5 PUSH2 0x2090 JUMP JUMPDEST DUP2 MLOAD DUP2 LT PUSH2 0xE84 JUMPI PUSH2 0xE84 PUSH2 0x207A JUMP JUMPDEST PUSH1 0x20 SWAP1 DUP2 MUL SWAP2 SWAP1 SWAP2 ADD ADD MSTORE DUP1 PUSH2 0xE99 DUP2 PUSH2 0x20B9 JUMP JUMPDEST SWAP2 POP POP PUSH2 0xE04 JUMP JUMPDEST POP PUSH1 0x0 PUSH2 0xEB0 PUSH2 0x258 TIMESTAMP PUSH2 0x2020 JUMP JUMPDEST PUSH2 0xEDD DUP5 PUSH1 0xFF PUSH32 0x0 AND PUSH2 0x2042 JUMP JUMPDEST PUSH2 0xEE7 SWAP2 SWAP1 PUSH2 0x2090 JUMP JUMPDEST SWAP9 SWAP2 SWAP8 POP SWAP1 SWAP6 POP POP POP POP POP POP JUMP JUMPDEST PUSH1 0x0 SLOAD PUSH1 0x1 PUSH1 0x1 PUSH1 0xA0 SHL SUB AND CALLER EQ PUSH2 0xF1F JUMPI PUSH1 0x40 MLOAD PUSH3 0x461BCD PUSH1 0xE5 SHL DUP2 MSTORE PUSH1 0x4 ADD PUSH2 0x6F7 SWAP1 PUSH2 0x20D2 JUMP JUMPDEST PUSH2 0xF4A PUSH32 0x0 CALLER DUP4 PUSH2 0x1A72 JUMP JUMPDEST POP JUMP JUMPDEST PUSH1 0x0 DUP1 SLOAD PUSH1 0x1 PUSH1 0x1 PUSH1 0xA0 SHL SUB AND CALLER EQ PUSH2 0xF78 JUMPI PUSH1 0x40 MLOAD PUSH3 0x461BCD PUSH1 0xE5 SHL DUP2 MSTORE PUSH1 0x4 ADD PUSH2 0x6F7 SWAP1 PUSH2 0x20D2 JUMP JUMPDEST PUSH32 0x0 TIMESTAMP GT ISZERO DUP1 ISZERO PUSH2 0xFC8 JUMPI POP PUSH32 0x0 TIMESTAMP LT ISZERO JUMPDEST PUSH2 0x1008 JUMPI PUSH1 0x40 MLOAD PUSH3 0x461BCD PUSH1 0xE5 SHL DUP2 MSTORE PUSH1 0x20 PUSH1 0x4 DUP3 ADD MSTORE PUSH1 0x11 PUSH1 0x24 DUP3 ADD MSTORE PUSH17 0x1B9BDD081A5B881D1A19481C195C9A5BD9 PUSH1 0x7A SHL PUSH1 0x44 DUP3 ADD MSTORE PUSH1 0x64 ADD PUSH2 0x6F7 JUMP JUMPDEST DUP2 MLOAD DUP4 MLOAD EQ PUSH2 0x104C JUMPI PUSH1 0x40 MLOAD PUSH3 0x461BCD PUSH1 0xE5 SHL DUP2 MSTORE PUSH1 0x20 PUSH1 0x4 DUP3 ADD MSTORE PUSH1 0x10 PUSH1 0x24 DUP3 ADD MSTORE PUSH16 0x3830B930B6B2BA32B9399032B93937B9 PUSH1 0x81 SHL PUSH1 0x44 DUP3 ADD MSTORE PUSH1 0x64 ADD PUSH2 0x6F7 JUMP JUMPDEST PUSH1 0x0 DUP1 JUMPDEST DUP5 MLOAD DUP2 LT ISZERO PUSH2 0x111A JUMPI DUP4 DUP2 DUP2 MLOAD DUP2 LT PUSH2 0x106B JUMPI PUSH2 0x106B PUSH2 0x207A JUMP JUMPDEST PUSH1 0x20 MUL PUSH1 0x20 ADD ADD MLOAD DUP4 PUSH2 0x107E SWAP2 SWAP1 PUSH2 0x2042 JUMP JUMPDEST SWAP3 POP DUP4 DUP2 DUP2 MLOAD DUP2 LT PUSH2 0x1092 JUMPI PUSH2 0x1092 PUSH2 0x207A JUMP JUMPDEST PUSH1 0x20 MUL PUSH1 0x20 ADD ADD MLOAD PUSH1 0x5 PUSH1 0x0 DUP8 DUP5 DUP2 MLOAD DUP2 LT PUSH2 0x10B0 JUMPI PUSH2 0x10B0 PUSH2 0x207A JUMP JUMPDEST PUSH1 0x20 MUL PUSH1 0x20 ADD ADD MLOAD DUP2 MSTORE PUSH1 0x20 ADD SWAP1 DUP2 MSTORE PUSH1 0x20 ADD PUSH1 0x0 KECCAK256 DUP2 SWAP1 SSTORE POP DUP2 DUP6 DUP3 DUP2 MLOAD DUP2 LT PUSH2 0x10DD JUMPI PUSH2 0x10DD PUSH2 0x207A JUMP JUMPDEST PUSH1 0x20 MUL PUSH1 0x20 ADD ADD MLOAD GT ISZERO PUSH2 0x1108 JUMPI DUP5 DUP2 DUP2 MLOAD DUP2 LT PUSH2 0x10FD JUMPI PUSH2 0x10FD PUSH2 0x207A JUMP JUMPDEST PUSH1 0x20 MUL PUSH1 0x20 ADD ADD MLOAD SWAP2 POP JUMPDEST DUP1 PUSH2 0x1112 DUP2 PUSH2 0x20B9 JUMP JUMPDEST SWAP2 POP POP PUSH2 0x1050 JUMP JUMPDEST POP PUSH1 0x6 DUP2 SWAP1 SSTORE PUSH2 0x114C PUSH32 0x0 CALLER ADDRESS DUP6 PUSH2 0x1B7F JUMP JUMPDEST PUSH1 0x40 DUP1 MLOAD PUSH1 0x0 DUP2 MSTORE PUSH1 0x20 DUP2 ADD DUP5 SWAP1 MSTORE CALLER SWAP2 PUSH32 0xC3991418CACD70A010FCE559A44FCBB47534CA43BF7543964BDCA2639F6E6E5A SWAP2 ADD PUSH1 0x40 MLOAD DUP1 SWAP2 SUB SWAP1 LOG2 POP SWAP3 SWAP2 POP POP JUMP JUMPDEST PUSH1 0x0 JUMPDEST DUP2 MLOAD DUP2 LT ISZERO PUSH2 0x11CF JUMPI PUSH2 0x11BD DUP3 DUP3 DUP2 MLOAD DUP2 LT PUSH2 0x11B0 JUMPI PUSH2 0x11B0 PUSH2 0x207A JUMP JUMPDEST PUSH1 0x20 MUL PUSH1 0x20 ADD ADD MLOAD PUSH2 0x93D JUMP JUMPDEST DUP1 PUSH2 0x11C7 DUP2 PUSH2 0x20B9 JUMP JUMPDEST SWAP2 POP POP PUSH2 0x1192 JUMP JUMPDEST POP POP JUMP JUMPDEST PUSH1 0x0 SLOAD PUSH1 0x1 PUSH1 0x1 PUSH1 0xA0 SHL SUB AND CALLER EQ PUSH2 0x11FD JUMPI PUSH1 0x40 MLOAD PUSH3 0x461BCD PUSH1 0xE5 SHL DUP2 MSTORE PUSH1 0x4 ADD PUSH2 0x6F7 SWAP1 PUSH2 0x20D2 JUMP JUMPDEST PUSH32 0x0 TIMESTAMP GT ISZERO DUP1 ISZERO PUSH2 0x124D JUMPI POP PUSH32 0x0 TIMESTAMP LT ISZERO JUMPDEST PUSH2 0x128D JUMPI PUSH1 0x40 MLOAD PUSH3 0x461BCD PUSH1 0xE5 SHL DUP2 MSTORE PUSH1 0x20 PUSH1 0x4 DUP3 ADD MSTORE PUSH1 0x11 PUSH1 0x24 DUP3 ADD MSTORE PUSH17 0x1B9BDD081A5B881D1A19481C195C9A5BD9 PUSH1 0x7A SHL PUSH1 0x44 DUP3 ADD MSTORE PUSH1 0x64 ADD PUSH2 0x6F7 JUMP JUMPDEST PUSH2 0x12B9 PUSH32 0x0 CALLER ADDRESS DUP5 PUSH2 0x1B7F JUMP JUMPDEST PUSH1 0x0 DUP3 DUP2 MSTORE PUSH1 0x5 PUSH1 0x20 MSTORE PUSH1 0x40 DUP2 KECCAK256 DUP1 SLOAD DUP4 SWAP3 SWAP1 PUSH2 0x12D7 SWAP1 DUP5 SWAP1 PUSH2 0x2042 JUMP JUMPDEST SWAP1 SWAP2 SSTORE POP POP PUSH1 0x6 SLOAD DUP3 GT ISZERO PUSH2 0x12EC JUMPI PUSH1 0x6 DUP3 SWAP1 SSTORE JUMPDEST PUSH1 0x40 DUP1 MLOAD DUP4 DUP2 MSTORE PUSH1 0x20 DUP2 ADD DUP4 SWAP1 MSTORE CALLER SWAP2 PUSH32 0xC3991418CACD70A010FCE559A44FCBB47534CA43BF7543964BDCA2639F6E6E5A SWAP2 ADD PUSH1 0x40 MLOAD DUP1 SWAP2 SUB SWAP1 LOG2 POP POP JUMP JUMPDEST PUSH1 0x0 PUSH1 0xFF PUSH32 0x0 AND PUSH2 0x135D PUSH2 0x258 TIMESTAMP PUSH2 0x2020 JUMP JUMPDEST PUSH2 0x1367 SWAP2 SWAP1 PUSH2 0x2090 JUMP JUMPDEST CALLER PUSH1 0x0 SWAP1 DUP2 MSTORE PUSH1 0x3 PUSH1 0x20 MSTORE PUSH1 0x40 DUP2 KECCAK256 SLOAD SWAP2 SWAP3 POP SWAP1 DUP1 JUMPDEST CALLER PUSH1 0x0 SWAP1 DUP2 MSTORE PUSH1 0x3 PUSH1 0x20 MSTORE PUSH1 0x40 SWAP1 KECCAK256 PUSH1 0x1 ADD SLOAD DUP2 LT ISZERO PUSH2 0x1420 JUMPI DUP4 DUP2 GT PUSH2 0x1420 JUMPI PUSH2 0x13A9 DUP2 PUSH1 0x1 PUSH2 0x2042 JUMP JUMPDEST PUSH1 0x0 DUP3 DUP2 MSTORE PUSH1 0x4 PUSH1 0x20 MSTORE PUSH1 0x40 SWAP1 KECCAK256 SLOAD SWAP1 SWAP3 POP ISZERO PUSH2 0x140E JUMPI PUSH1 0x0 DUP2 DUP2 MSTORE PUSH1 0x4 PUSH1 0x20 SWAP1 DUP2 MSTORE PUSH1 0x40 DUP1 DUP4 KECCAK256 SLOAD CALLER DUP5 MSTORE PUSH1 0x2 DUP4 MSTORE DUP2 DUP5 KECCAK256 DUP6 DUP6 MSTORE DUP4 MSTORE DUP2 DUP5 KECCAK256 SLOAD PUSH1 0x5 SWAP1 SWAP4 MSTORE SWAP3 KECCAK256 SLOAD PUSH2 0x13F7 SWAP2 SWAP1 PUSH2 0x20F5 JUMP JUMPDEST PUSH2 0x1401 SWAP2 SWAP1 PUSH2 0x2020 JUMP JUMPDEST PUSH2 0x140B SWAP1 DUP5 PUSH2 0x2042 JUMP JUMPDEST SWAP3 POP JUMPDEST DUP1 PUSH2 0x1418 DUP2 PUSH2 0x20B9 JUMP JUMPDEST SWAP2 POP POP PUSH2 0x137D JUMP JUMPDEST POP CALLER PUSH1 0x0 SWAP1 DUP2 MSTORE PUSH1 0x3 PUSH1 0x20 MSTORE PUSH1 0x40 DUP2 KECCAK256 DUP3 SWAP2 ADD SSTORE PUSH2 0x145F PUSH32 0x0 CALLER DUP5 PUSH2 0x1A72 JUMP JUMPDEST PUSH1 0x40 MLOAD DUP3 DUP2 MSTORE CALLER SWAP1 PUSH32 0xBA8DE60C3403EC381D1D484652EA1980E3C3E56359195C92525BFF4CE47AD98E SWAP1 PUSH1 0x20 ADD PUSH2 0xB71 JUMP JUMPDEST PUSH1 0x3 PUSH1 0x20 MSTORE DUP2 PUSH1 0x0 MSTORE PUSH1 0x40 PUSH1 0x0 KECCAK256 DUP2 PUSH1 0x2 DUP2 LT PUSH2 0x14AD JUMPI PUSH1 0x0 DUP1 REVERT JUMPDEST ADD SLOAD SWAP2 POP DUP3 SWAP1 POP JUMP JUMPDEST PUSH1 0x0 PUSH2 0x14E3 PUSH1 0x1 PUSH32 0x0 PUSH2 0x210C JUMP JUMPDEST PUSH1 0xFF AND PUSH1 0x1 PUSH32 0x0 PUSH1 0xFF AND PUSH1 0x1 DUP6 PUSH2 0x1519 SWAP2 SWAP1 PUSH2 0x210C JUMP JUMPDEST PUSH1 0xFF AND PUSH2 0x1547 PUSH1 0x1 PUSH32 0x0 PUSH2 0x2090 JUMP JUMPDEST PUSH2 0x1551 SWAP2 SWAP1 PUSH2 0x20F5 JUMP JUMPDEST PUSH2 0x155B SWAP2 SWAP1 PUSH2 0x2042 JUMP JUMPDEST PUSH2 0x1565 SWAP2 SWAP1 PUSH2 0x2090 JUMP JUMPDEST PUSH2 0x156F SWAP1 DUP6 PUSH2 0x20F5 JUMP JUMPDEST PUSH2 0x1579 SWAP2 SWAP1 PUSH2 0x2020 JUMP JUMPDEST SWAP4 SWAP3 POP POP POP JUMP JUMPDEST CALLER PUSH1 0x0 SWAP1 DUP2 MSTORE PUSH1 0x8 PUSH1 0x20 MSTORE PUSH1 0x40 DUP2 KECCAK256 SLOAD PUSH1 0x60 SWAP2 SWAP1 DUP2 SWAP1 PUSH8 0xFFFFFFFFFFFFFFFF DUP2 GT ISZERO PUSH2 0x15AE JUMPI PUSH2 0x15AE PUSH2 0x1CFD JUMP JUMPDEST PUSH1 0x40 MLOAD SWAP1 DUP1 DUP3 MSTORE DUP1 PUSH1 0x20 MUL PUSH1 0x20 ADD DUP3 ADD PUSH1 0x40 MSTORE DUP1 ISZERO PUSH2 0x15D7 JUMPI DUP2 PUSH1 0x20 ADD PUSH1 0x20 DUP3 MUL DUP1 CALLDATASIZE DUP4 CALLDATACOPY ADD SWAP1 POP JUMPDEST POP SWAP1 POP PUSH1 0x0 PUSH2 0x15E8 PUSH2 0x258 TIMESTAMP PUSH2 0x2020 JUMP JUMPDEST CALLER PUSH1 0x0 SWAP1 DUP2 MSTORE PUSH1 0x8 PUSH1 0x20 MSTORE PUSH1 0x40 DUP2 KECCAK256 SLOAD SWAP2 SWAP3 POP SWAP1 DUP2 JUMPDEST CALLER PUSH1 0x0 SWAP1 DUP2 MSTORE PUSH1 0x8 PUSH1 0x20 MSTORE PUSH1 0x40 SWAP1 KECCAK256 SLOAD DUP2 LT ISZERO PUSH2 0x16D1 JUMPI CALLER PUSH1 0x0 SWAP1 DUP2 MSTORE PUSH1 0x8 PUSH1 0x20 MSTORE PUSH1 0x40 DUP2 KECCAK256 DUP1 SLOAD DUP4 SWAP1 DUP2 LT PUSH2 0x1636 JUMPI PUSH2 0x1636 PUSH2 0x207A JUMP JUMPDEST SWAP1 PUSH1 0x0 MSTORE PUSH1 0x20 PUSH1 0x0 KECCAK256 ADD SLOAD SWAP1 POP DUP5 PUSH1 0x7 PUSH1 0x0 DUP4 DUP2 MSTORE PUSH1 0x20 ADD SWAP1 DUP2 MSTORE PUSH1 0x20 ADD PUSH1 0x0 KECCAK256 PUSH1 0x3 ADD SLOAD GT ISZERO PUSH2 0x1691 JUMPI DUP1 DUP7 DUP6 DUP2 MLOAD DUP2 LT PUSH2 0x1674 JUMPI PUSH2 0x1674 PUSH2 0x207A JUMP JUMPDEST PUSH1 0x20 SWAP1 DUP2 MUL SWAP2 SWAP1 SWAP2 ADD ADD MSTORE DUP4 PUSH2 0x1689 DUP2 PUSH2 0x20B9 JUMP JUMPDEST SWAP5 POP POP PUSH2 0x16BE JUMP JUMPDEST DUP3 PUSH2 0x169B DUP2 PUSH2 0x2125 JUMP JUMPDEST SWAP4 POP POP DUP1 DUP7 DUP5 DUP2 MLOAD DUP2 LT PUSH2 0x16B1 JUMPI PUSH2 0x16B1 PUSH2 0x207A JUMP JUMPDEST PUSH1 0x20 MUL PUSH1 0x20 ADD ADD DUP2 DUP2 MSTORE POP POP JUMPDEST POP DUP1 PUSH2 0x16C9 DUP2 PUSH2 0x20B9 JUMP JUMPDEST SWAP2 POP POP PUSH2 0x15FE JUMP JUMPDEST POP SWAP3 SWAP6 SWAP3 SWAP5 POP SWAP2 SWAP3 POP POP POP JUMP JUMPDEST PUSH1 0x0 DUP1 PUSH1 0x0 DUP1 PUSH1 0x0 DUP1 PUSH1 0x0 PUSH32 0x0 PUSH1 0x1 PUSH1 0x1 PUSH1 0xA0 SHL SUB AND PUSH4 0x99FBAB88 DUP10 PUSH1 0x40 MLOAD DUP3 PUSH4 0xFFFFFFFF AND PUSH1 0xE0 SHL DUP2 MSTORE PUSH1 0x4 ADD PUSH2 0x1737 SWAP2 DUP2 MSTORE PUSH1 0x20 ADD SWAP1 JUMP JUMPDEST PUSH2 0x180 PUSH1 0x40 MLOAD DUP1 DUP4 SUB DUP2 DUP7 GAS STATICCALL ISZERO DUP1 ISZERO PUSH2 0x1755 JUMPI RETURNDATASIZE PUSH1 0x0 DUP1 RETURNDATACOPY RETURNDATASIZE PUSH1 0x0 REVERT JUMPDEST POP POP POP POP PUSH1 0x40 MLOAD RETURNDATASIZE PUSH1 0x1F NOT PUSH1 0x1F DUP3 ADD AND DUP3 ADD DUP1 PUSH1 0x40 MSTORE POP DUP2 ADD SWAP1 PUSH2 0x1779 SWAP2 SWAP1 PUSH2 0x2188 JUMP JUMPDEST POP POP POP POP SWAP8 POP SWAP8 POP SWAP8 POP SWAP8 POP SWAP8 POP SWAP8 POP POP POP PUSH32 0x0 PUSH1 0x1 PUSH1 0x1 PUSH1 0xA0 SHL SUB AND DUP7 PUSH1 0x1 PUSH1 0x1 PUSH1 0xA0 SHL SUB AND EQ DUP1 ISZERO PUSH2 0x17FD JUMPI POP PUSH32 0x0 PUSH1 0x1 PUSH1 0x1 PUSH1 0xA0 SHL SUB AND DUP6 PUSH1 0x1 PUSH1 0x1 PUSH1 0xA0 SHL SUB AND EQ JUMPDEST DUP1 ISZERO PUSH2 0x1832 JUMPI POP DUP4 PUSH3 0xFFFFFF AND PUSH32 0x0 PUSH3 0xFFFFFF AND EQ JUMPDEST PUSH2 0x186E JUMPI PUSH1 0x40 MLOAD PUSH3 0x461BCD PUSH1 0xE5 SHL DUP2 MSTORE PUSH1 0x20 PUSH1 0x4 DUP3 ADD MSTORE PUSH1 0xD PUSH1 0x24 DUP3 ADD MSTORE PUSH13 0x3638103830B4B91032B93937B9 PUSH1 0x99 SHL PUSH1 0x44 DUP3 ADD MSTORE PUSH1 0x64 ADD PUSH2 0x6F7 JUMP JUMPDEST PUSH32 0x0 PUSH1 0x2 SIGNEXTEND DUP4 PUSH1 0x2 SIGNEXTEND EQ DUP1 ISZERO PUSH2 0x18C8 JUMPI POP PUSH32 0x0 PUSH1 0x2 SIGNEXTEND DUP3 PUSH1 0x2 SIGNEXTEND EQ JUMPDEST PUSH2 0x1907 JUMPI PUSH1 0x40 MLOAD PUSH3 0x461BCD PUSH1 0xE5 SHL DUP2 MSTORE PUSH1 0x20 PUSH1 0x4 DUP3 ADD MSTORE PUSH1 0x10 PUSH1 0x24 DUP3 ADD MSTORE PUSH16 0x3A34B1B5903930B733B29032B93937B9 PUSH1 0x81 SHL PUSH1 0x44 DUP3 ADD MSTORE PUSH1 0x64 ADD PUSH2 0x6F7 JUMP JUMPDEST PUSH1 0x40 MLOAD PUSH4 0x20604BF PUSH1 0xE2 SHL DUP2 MSTORE PUSH1 0x4 DUP2 ADD DUP10 SWAP1 MSTORE ADDRESS SWAP1 PUSH1 0x1 PUSH1 0x1 PUSH1 0xA0 SHL SUB PUSH32 0x0 AND SWAP1 PUSH4 0x81812FC SWAP1 PUSH1 0x24 ADD PUSH1 0x20 PUSH1 0x40 MLOAD DUP1 DUP4 SUB DUP2 DUP7 GAS STATICCALL ISZERO DUP1 ISZERO PUSH2 0x196E JUMPI RETURNDATASIZE PUSH1 0x0 DUP1 RETURNDATACOPY RETURNDATASIZE PUSH1 0x0 REVERT JUMPDEST POP POP POP POP PUSH1 0x40 MLOAD RETURNDATASIZE PUSH1 0x1F NOT PUSH1 0x1F DUP3 ADD AND DUP3 ADD DUP1 PUSH1 0x40 MSTORE POP DUP2 ADD SWAP1 PUSH2 0x1992 SWAP2 SWAP1 PUSH2 0x2269 JUMP JUMPDEST PUSH1 0x1 PUSH1 0x1 PUSH1 0xA0 SHL SUB AND EQ PUSH2 0x19D6 JUMPI PUSH1 0x40 MLOAD PUSH3 0x461BCD PUSH1 0xE5 SHL DUP2 MSTORE PUSH1 0x20 PUSH1 0x4 DUP3 ADD MSTORE PUSH1 0xB PUSH1 0x24 DUP3 ADD MSTORE PUSH11 0x6E6F7420617070726F7665 PUSH1 0xA8 SHL PUSH1 0x44 DUP3 ADD MSTORE PUSH1 0x64 ADD PUSH2 0x6F7 JUMP JUMPDEST PUSH1 0x40 MLOAD PUSH4 0x21421707 PUSH1 0xE1 SHL DUP2 MSTORE CALLER PUSH1 0x4 DUP3 ADD MSTORE ADDRESS PUSH1 0x24 DUP3 ADD MSTORE PUSH1 0x44 DUP2 ADD DUP10 SWAP1 MSTORE PUSH32 0x0 PUSH1 0x1 PUSH1 0x1 PUSH1 0xA0 SHL SUB AND SWAP1 PUSH4 0x42842E0E SWAP1 PUSH1 0x64 ADD PUSH1 0x0 PUSH1 0x40 MLOAD DUP1 DUP4 SUB DUP2 PUSH1 0x0 DUP8 DUP1 EXTCODESIZE ISZERO DUP1 ISZERO PUSH2 0x1A44 JUMPI PUSH1 0x0 DUP1 REVERT JUMPDEST POP GAS CALL ISZERO DUP1 ISZERO PUSH2 0x1A58 JUMPI RETURNDATASIZE PUSH1 0x0 DUP1 RETURNDATACOPY RETURNDATASIZE PUSH1 0x0 REVERT JUMPDEST POP POP PUSH1 0x1 PUSH1 0x1 PUSH1 0x80 SHL SUB SWAP1 SWAP3 AND SWAP10 SWAP9 POP POP POP POP POP POP POP POP POP JUMP JUMPDEST PUSH1 0x40 DUP1 MLOAD PUSH1 0x1 PUSH1 0x1 PUSH1 0xA0 SHL SUB DUP5 DUP2 AND PUSH1 0x24 DUP4 ADD MSTORE PUSH1 0x44 DUP1 DUP4 ADD DUP6 SWAP1 MSTORE DUP4 MLOAD DUP1 DUP5 SUB SWAP1 SWAP2 ADD DUP2 MSTORE PUSH1 0x64 SWAP1 SWAP3 ADD DUP4 MSTORE PUSH1 0x20 DUP3 ADD DUP1 MLOAD PUSH1 0x1 PUSH1 0x1 PUSH1 0xE0 SHL SUB AND PUSH4 0xA9059CBB PUSH1 0xE0 SHL OR SWAP1 MSTORE SWAP2 MLOAD PUSH1 0x0 SWAP3 DUP4 SWAP3 SWAP1 DUP8 AND SWAP2 PUSH2 0x1ACE SWAP2 SWAP1 PUSH2 0x2286 JUMP JUMPDEST PUSH1 0x0 PUSH1 0x40 MLOAD DUP1 DUP4 SUB DUP2 PUSH1 0x0 DUP7 GAS CALL SWAP2 POP POP RETURNDATASIZE DUP1 PUSH1 0x0 DUP2 EQ PUSH2 0x1B0B JUMPI PUSH1 0x40 MLOAD SWAP2 POP PUSH1 0x1F NOT PUSH1 0x3F RETURNDATASIZE ADD AND DUP3 ADD PUSH1 0x40 MSTORE RETURNDATASIZE DUP3 MSTORE RETURNDATASIZE PUSH1 0x0 PUSH1 0x20 DUP5 ADD RETURNDATACOPY PUSH2 0x1B10 JUMP JUMPDEST PUSH1 0x60 SWAP2 POP JUMPDEST POP SWAP2 POP SWAP2 POP DUP2 DUP1 ISZERO PUSH2 0x1B3A JUMPI POP DUP1 MLOAD ISZERO DUP1 PUSH2 0x1B3A JUMPI POP DUP1 DUP1 PUSH1 0x20 ADD SWAP1 MLOAD DUP2 ADD SWAP1 PUSH2 0x1B3A SWAP2 SWAP1 PUSH2 0x22B5 JUMP JUMPDEST PUSH2 0x1B78 JUMPI PUSH1 0x40 MLOAD PUSH3 0x461BCD PUSH1 0xE5 SHL DUP2 MSTORE PUSH1 0x20 PUSH1 0x4 DUP3 ADD MSTORE PUSH1 0xF PUSH1 0x24 DUP3 ADD MSTORE PUSH15 0x1514905394D1915497D19052531151 PUSH1 0x8A SHL PUSH1 0x44 DUP3 ADD MSTORE PUSH1 0x64 ADD PUSH2 0x6F7 JUMP JUMPDEST POP POP POP POP POP JUMP JUMPDEST PUSH1 0x40 DUP1 MLOAD PUSH1 0x1 PUSH1 0x1 PUSH1 0xA0 SHL SUB DUP6 DUP2 AND PUSH1 0x24 DUP4 ADD MSTORE DUP5 DUP2 AND PUSH1 0x44 DUP4 ADD MSTORE PUSH1 0x64 DUP1 DUP4 ADD DUP6 SWAP1 MSTORE DUP4 MLOAD DUP1 DUP5 SUB SWAP1 SWAP2 ADD DUP2 MSTORE PUSH1 0x84 SWAP1 SWAP3 ADD DUP4 MSTORE PUSH1 0x20 DUP3 ADD DUP1 MLOAD PUSH1 0x1 PUSH1 0x1 PUSH1 0xE0 SHL SUB AND PUSH4 0x23B872DD PUSH1 0xE0 SHL OR SWAP1 MSTORE SWAP2 MLOAD PUSH1 0x0 SWAP3 DUP4 SWAP3 SWAP1 DUP9 AND SWAP2 PUSH2 0x1BE3 SWAP2 SWAP1 PUSH2 0x2286 JUMP JUMPDEST PUSH1 0x0 PUSH1 0x40 MLOAD DUP1 DUP4 SUB DUP2 PUSH1 0x0 DUP7 GAS CALL SWAP2 POP POP RETURNDATASIZE DUP1 PUSH1 0x0 DUP2 EQ PUSH2 0x1C20 JUMPI PUSH1 0x40 MLOAD SWAP2 POP PUSH1 0x1F NOT PUSH1 0x3F RETURNDATASIZE ADD AND DUP3 ADD PUSH1 0x40 MSTORE RETURNDATASIZE DUP3 MSTORE RETURNDATASIZE PUSH1 0x0 PUSH1 0x20 DUP5 ADD RETURNDATACOPY PUSH2 0x1C25 JUMP JUMPDEST PUSH1 0x60 SWAP2 POP JUMPDEST POP SWAP2 POP SWAP2 POP DUP2 DUP1 ISZERO PUSH2 0x1C4F JUMPI POP DUP1 MLOAD ISZERO DUP1 PUSH2 0x1C4F JUMPI POP DUP1 DUP1 PUSH1 0x20 ADD SWAP1 MLOAD DUP2 ADD SWAP1 PUSH2 0x1C4F SWAP2 SWAP1 PUSH2 0x22B5 JUMP JUMPDEST PUSH2 0x1C91 JUMPI PUSH1 0x40 MLOAD PUSH3 0x461BCD PUSH1 0xE5 SHL DUP2 MSTORE PUSH1 0x20 PUSH1 0x4 DUP3 ADD MSTORE PUSH1 0x13 PUSH1 0x24 DUP3 ADD MSTORE PUSH19 0x1D1C985B9CD9995C919C9BDB4819985A5B1959 PUSH1 0x6A SHL PUSH1 0x44 DUP3 ADD MSTORE PUSH1 0x64 ADD PUSH2 0x6F7 JUMP JUMPDEST POP POP POP POP POP POP JUMP JUMPDEST PUSH1 0x0 PUSH1 0x20 DUP3 DUP5 SUB SLT ISZERO PUSH2 0x1CAB JUMPI PUSH1 0x0 DUP1 REVERT JUMPDEST POP CALLDATALOAD SWAP2 SWAP1 POP JUMP JUMPDEST PUSH1 0x0 DUP1 PUSH1 0x40 DUP4 DUP6 SUB SLT ISZERO PUSH2 0x1CC5 JUMPI PUSH1 0x0 DUP1 REVERT JUMPDEST DUP3 CALLDATALOAD SWAP2 POP PUSH1 0x20 DUP4 ADD CALLDATALOAD PUSH1 0xFF DUP2 AND DUP2 EQ PUSH2 0x1CDD JUMPI PUSH1 0x0 DUP1 REVERT JUMPDEST DUP1 SWAP2 POP POP SWAP3 POP SWAP3 SWAP1 POP JUMP JUMPDEST PUSH1 0x1 PUSH1 0x1 PUSH1 0xA0 SHL SUB DUP2 AND DUP2 EQ PUSH2 0xF4A JUMPI PUSH1 0x0 DUP1 REVERT JUMPDEST PUSH4 0x4E487B71 PUSH1 0xE0 SHL PUSH1 0x0 MSTORE PUSH1 0x41 PUSH1 0x4 MSTORE PUSH1 0x24 PUSH1 0x0 REVERT JUMPDEST PUSH1 0x40 MLOAD PUSH1 0x1F DUP3 ADD PUSH1 0x1F NOT AND DUP2 ADD PUSH8 0xFFFFFFFFFFFFFFFF DUP2 GT DUP3 DUP3 LT OR ISZERO PUSH2 0x1D3C JUMPI PUSH2 0x1D3C PUSH2 0x1CFD JUMP JUMPDEST PUSH1 0x40 MSTORE SWAP2 SWAP1 POP JUMP JUMPDEST PUSH1 0x0 DUP1 PUSH1 0x0 DUP1 PUSH1 0x80 DUP6 DUP8 SUB SLT ISZERO PUSH2 0x1D5A JUMPI PUSH1 0x0 DUP1 REVERT JUMPDEST DUP5 CALLDATALOAD PUSH2 0x1D65 DUP2 PUSH2 0x1CE8 JUMP JUMPDEST SWAP4 POP PUSH1 0x20 DUP6 DUP2 ADD CALLDATALOAD PUSH2 0x1D76 DUP2 PUSH2 0x1CE8 JUMP JUMPDEST SWAP4 POP PUSH1 0x40 DUP7 ADD CALLDATALOAD SWAP3 POP PUSH1 0x60 DUP7 ADD CALLDATALOAD PUSH8 0xFFFFFFFFFFFFFFFF DUP1 DUP3 GT ISZERO PUSH2 0x1D9A JUMPI PUSH1 0x0 DUP1 REVERT JUMPDEST DUP2 DUP9 ADD SWAP2 POP DUP9 PUSH1 0x1F DUP4 ADD SLT PUSH2 0x1DAE JUMPI PUSH1 0x0 DUP1 REVERT JUMPDEST DUP2 CALLDATALOAD DUP2 DUP2 GT ISZERO PUSH2 0x1DC0 JUMPI PUSH2 0x1DC0 PUSH2 0x1CFD JUMP JUMPDEST PUSH2 0x1DD2 PUSH1 0x1F DUP3 ADD PUSH1 0x1F NOT AND DUP6 ADD PUSH2 0x1D13 JUMP JUMPDEST SWAP2 POP DUP1 DUP3 MSTORE DUP10 DUP5 DUP3 DUP6 ADD ADD GT ISZERO PUSH2 0x1DE8 JUMPI PUSH1 0x0 DUP1 REVERT JUMPDEST DUP1 DUP5 DUP5 ADD DUP6 DUP5 ADD CALLDATACOPY PUSH1 0x0 DUP5 DUP3 DUP5 ADD ADD MSTORE POP DUP1 SWAP4 POP POP POP POP SWAP3 SWAP6 SWAP2 SWAP5 POP SWAP3 POP JUMP JUMPDEST PUSH1 0x0 DUP1 PUSH1 0x40 DUP4 DUP6 SUB SLT ISZERO PUSH2 0x1E1B JUMPI PUSH1 0x0 DUP1 REVERT JUMPDEST DUP3 CALLDATALOAD PUSH2 0x1E26 DUP2 PUSH2 0x1CE8 JUMP JUMPDEST SWAP5 PUSH1 0x20 SWAP4 SWAP1 SWAP4 ADD CALLDATALOAD SWAP4 POP POP POP JUMP JUMPDEST PUSH1 0x0 PUSH1 0x20 DUP3 DUP5 SUB SLT ISZERO PUSH2 0x1E46 JUMPI PUSH1 0x0 DUP1 REVERT JUMPDEST DUP2 CALLDATALOAD PUSH2 0x1579 DUP2 PUSH2 0x1CE8 JUMP JUMPDEST PUSH1 0x0 DUP2 MLOAD DUP1 DUP5 MSTORE PUSH1 0x20 DUP1 DUP6 ADD SWAP5 POP DUP1 DUP5 ADD PUSH1 0x0 JUMPDEST DUP4 DUP2 LT ISZERO PUSH2 0x1E81 JUMPI DUP2 MLOAD DUP8 MSTORE SWAP6 DUP3 ADD SWAP6 SWAP1 DUP3 ADD SWAP1 PUSH1 0x1 ADD PUSH2 0x1E65 JUMP JUMPDEST POP SWAP5 SWAP6 SWAP5 POP POP POP POP POP JUMP JUMPDEST DUP3 DUP2 MSTORE PUSH1 0x40 PUSH1 0x20 DUP3 ADD MSTORE PUSH1 0x0 PUSH2 0x1EA5 PUSH1 0x40 DUP4 ADD DUP5 PUSH2 0x1E51 JUMP JUMPDEST SWAP5 SWAP4 POP POP POP POP JUMP JUMPDEST PUSH1 0x0 DUP3 PUSH1 0x1F DUP4 ADD SLT PUSH2 0x1EBE JUMPI PUSH1 0x0 DUP1 REVERT JUMPDEST DUP2 CALLDATALOAD PUSH1 0x20 PUSH8 0xFFFFFFFFFFFFFFFF DUP3 GT ISZERO PUSH2 0x1EDA JUMPI PUSH2 0x1EDA PUSH2 0x1CFD JUMP JUMPDEST DUP2 PUSH1 0x5 SHL PUSH2 0x1EE9 DUP3 DUP3 ADD PUSH2 0x1D13 JUMP JUMPDEST SWAP3 DUP4 MSTORE DUP5 DUP2 ADD DUP3 ADD SWAP3 DUP3 DUP2 ADD SWAP1 DUP8 DUP6 GT ISZERO PUSH2 0x1F03 JUMPI PUSH1 0x0 DUP1 REVERT JUMPDEST DUP4 DUP8 ADD SWAP3 POP JUMPDEST DUP5 DUP4 LT ISZERO PUSH2 0x1F22 JUMPI DUP3 CALLDATALOAD DUP3 MSTORE SWAP2 DUP4 ADD SWAP2 SWAP1 DUP4 ADD SWAP1 PUSH2 0x1F09 JUMP JUMPDEST SWAP8 SWAP7 POP POP POP POP POP POP POP JUMP JUMPDEST PUSH1 0x0 DUP1 PUSH1 0x40 DUP4 DUP6 SUB SLT ISZERO PUSH2 0x1F40 JUMPI PUSH1 0x0 DUP1 REVERT JUMPDEST DUP3 CALLDATALOAD PUSH8 0xFFFFFFFFFFFFFFFF DUP1 DUP3 GT ISZERO PUSH2 0x1F58 JUMPI PUSH1 0x0 DUP1 REVERT JUMPDEST PUSH2 0x1F64 DUP7 DUP4 DUP8 ADD PUSH2 0x1EAD JUMP JUMPDEST SWAP4 POP PUSH1 0x20 DUP6 ADD CALLDATALOAD SWAP2 POP DUP1 DUP3 GT ISZERO PUSH2 0x1F7A JUMPI PUSH1 0x0 DUP1 REVERT JUMPDEST POP PUSH2 0x1F87 DUP6 DUP3 DUP7 ADD PUSH2 0x1EAD JUMP JUMPDEST SWAP2 POP POP SWAP3 POP SWAP3 SWAP1 POP JUMP JUMPDEST PUSH1 0x0 PUSH1 0x20 DUP3 DUP5 SUB SLT ISZERO PUSH2 0x1FA3 JUMPI PUSH1 0x0 DUP1 REVERT JUMPDEST DUP2 CALLDATALOAD PUSH8 0xFFFFFFFFFFFFFFFF DUP2 GT ISZERO PUSH2 0x1FBA JUMPI PUSH1 0x0 DUP1 REVERT JUMPDEST PUSH2 0x1EA5 DUP5 DUP3 DUP6 ADD PUSH2 0x1EAD JUMP JUMPDEST PUSH1 0x0 DUP1 PUSH1 0x40 DUP4 DUP6 SUB SLT ISZERO PUSH2 0x1FD9 JUMPI PUSH1 0x0 DUP1 REVERT JUMPDEST POP POP DUP1 CALLDATALOAD SWAP3 PUSH1 0x20 SWAP1 SWAP2 ADD CALLDATALOAD SWAP2 POP JUMP JUMPDEST PUSH1 0x40 DUP2 MSTORE PUSH1 0x0 PUSH2 0x1FFB PUSH1 0x40 DUP4 ADD DUP6 PUSH2 0x1E51 JUMP JUMPDEST SWAP1 POP DUP3 PUSH1 0x20 DUP4 ADD MSTORE SWAP4 SWAP3 POP POP POP JUMP JUMPDEST PUSH4 0x4E487B71 PUSH1 0xE0 SHL PUSH1 0x0 MSTORE PUSH1 0x11 PUSH1 0x4 MSTORE PUSH1 0x24 PUSH1 0x0 REVERT JUMPDEST PUSH1 0x0 DUP3 PUSH2 0x203D JUMPI PUSH4 0x4E487B71 PUSH1 0xE0 SHL PUSH1 0x0 MSTORE PUSH1 0x12 PUSH1 0x4 MSTORE PUSH1 0x24 PUSH1 0x0 REVERT JUMPDEST POP DIV SWAP1 JUMP JUMPDEST DUP1 DUP3 ADD DUP1 DUP3 GT ISZERO PUSH2 0x2055 JUMPI PUSH2 0x2055 PUSH2 0x200A JUMP JUMPDEST SWAP3 SWAP2 POP POP JUMP JUMPDEST PUSH1 0x0 PUSH1 0xFF DUP3 AND PUSH1 0xFF DUP2 SUB PUSH2 0x2071 JUMPI PUSH2 0x2071 PUSH2 0x200A JUMP JUMPDEST PUSH1 0x1 ADD SWAP3 SWAP2 POP POP JUMP JUMPDEST PUSH4 0x4E487B71 PUSH1 0xE0 SHL PUSH1 0x0 MSTORE PUSH1 0x32 PUSH1 0x4 MSTORE PUSH1 0x24 PUSH1 0x0 REVERT JUMPDEST DUP2 DUP2 SUB DUP2 DUP2 GT ISZERO PUSH2 0x2055 JUMPI PUSH2 0x2055 PUSH2 0x200A JUMP JUMPDEST PUSH4 0x4E487B71 PUSH1 0xE0 SHL PUSH1 0x0 MSTORE PUSH1 0x31 PUSH1 0x4 MSTORE PUSH1 0x24 PUSH1 0x0 REVERT JUMPDEST PUSH1 0x0 PUSH1 0x1 DUP3 ADD PUSH2 0x20CB JUMPI PUSH2 0x20CB PUSH2 0x200A JUMP JUMPDEST POP PUSH1 0x1 ADD SWAP1 JUMP JUMPDEST PUSH1 0x20 DUP1 DUP3 MSTORE PUSH1 0x9 SWAP1 DUP3 ADD MSTORE PUSH9 0x3337B93134B23232B7 PUSH1 0xB9 SHL PUSH1 0x40 DUP3 ADD MSTORE PUSH1 0x60 ADD SWAP1 JUMP JUMPDEST DUP1 DUP3 MUL DUP2 ISZERO DUP3 DUP3 DIV DUP5 EQ OR PUSH2 0x2055 JUMPI PUSH2 0x2055 PUSH2 0x200A JUMP JUMPDEST PUSH1 0xFF DUP3 DUP2 AND DUP3 DUP3 AND SUB SWAP1 DUP2 GT ISZERO PUSH2 0x2055 JUMPI PUSH2 0x2055 PUSH2 0x200A JUMP JUMPDEST PUSH1 0x0 DUP2 PUSH2 0x2134 JUMPI PUSH2 0x2134 PUSH2 0x200A JUMP JUMPDEST POP PUSH1 0x0 NOT ADD SWAP1 JUMP JUMPDEST DUP1 MLOAD PUSH2 0x2147 DUP2 PUSH2 0x1CE8 JUMP JUMPDEST SWAP2 SWAP1 POP JUMP JUMPDEST DUP1 MLOAD PUSH3 0xFFFFFF DUP2 AND DUP2 EQ PUSH2 0x2147 JUMPI PUSH1 0x0 DUP1 REVERT JUMPDEST DUP1 MLOAD PUSH1 0x2 DUP2 SWAP1 SIGNEXTEND DUP2 EQ PUSH2 0x2147 JUMPI PUSH1 0x0 DUP1 REVERT JUMPDEST DUP1 MLOAD PUSH1 0x1 PUSH1 0x1 PUSH1 0x80 SHL SUB DUP2 AND DUP2 EQ PUSH2 0x2147 JUMPI PUSH1 0x0 DUP1 REVERT JUMPDEST PUSH1 0x0 DUP1 PUSH1 0x0 DUP1 PUSH1 0x0 DUP1 PUSH1 0x0 DUP1 PUSH1 0x0 DUP1 PUSH1 0x0 DUP1 PUSH2 0x180 DUP14 DUP16 SUB SLT ISZERO PUSH2 0x21AB JUMPI PUSH1 0x0 DUP1 REVERT JUMPDEST DUP13 MLOAD PUSH12 0xFFFFFFFFFFFFFFFFFFFFFFFF DUP2 AND DUP2 EQ PUSH2 0x21C7 JUMPI PUSH1 0x0 DUP1 REVERT JUMPDEST SWAP12 POP PUSH2 0x21D5 PUSH1 0x20 DUP15 ADD PUSH2 0x213C JUMP JUMPDEST SWAP11 POP PUSH2 0x21E3 PUSH1 0x40 DUP15 ADD PUSH2 0x213C JUMP JUMPDEST SWAP10 POP PUSH2 0x21F1 PUSH1 0x60 DUP15 ADD PUSH2 0x213C JUMP JUMPDEST SWAP9 POP PUSH2 0x21FF PUSH1 0x80 DUP15 ADD PUSH2 0x214C JUMP JUMPDEST SWAP8 POP PUSH2 0x220D PUSH1 0xA0 DUP15 ADD PUSH2 0x215F JUMP JUMPDEST SWAP7 POP PUSH2 0x221B PUSH1 0xC0 DUP15 ADD PUSH2 0x215F JUMP JUMPDEST SWAP6 POP PUSH2 0x2229 PUSH1 0xE0 DUP15 ADD PUSH2 0x2171 JUMP JUMPDEST SWAP5 POP PUSH2 0x100 DUP14 ADD MLOAD SWAP4 POP PUSH2 0x120 DUP14 ADD MLOAD SWAP3 POP PUSH2 0x2248 PUSH2 0x140 DUP15 ADD PUSH2 0x2171 JUMP JUMPDEST SWAP2 POP PUSH2 0x2257 PUSH2 0x160 DUP15 ADD PUSH2 0x2171 JUMP JUMPDEST SWAP1 POP SWAP3 SWAP6 SWAP9 SWAP12 POP SWAP3 SWAP6 SWAP9 SWAP12 POP SWAP3 SWAP6 SWAP9 SWAP12 JUMP JUMPDEST PUSH1 0x0 PUSH1 0x20 DUP3 DUP5 SUB SLT ISZERO PUSH2 0x227B JUMPI PUSH1 0x0 DUP1 REVERT JUMPDEST DUP2 MLOAD PUSH2 0x1579 DUP2 PUSH2 0x1CE8 JUMP JUMPDEST PUSH1 0x0 DUP3 MLOAD PUSH1 0x0 JUMPDEST DUP2 DUP2 LT ISZERO PUSH2 0x22A7 JUMPI PUSH1 0x20 DUP2 DUP7 ADD DUP2 ADD MLOAD DUP6 DUP4 ADD MSTORE ADD PUSH2 0x228D JUMP JUMPDEST POP PUSH1 0x0 SWAP3 ADD SWAP2 DUP3 MSTORE POP SWAP2 SWAP1 POP JUMP JUMPDEST PUSH1 0x0 PUSH1 0x20 DUP3 DUP5 SUB SLT ISZERO PUSH2 0x22C7 JUMPI PUSH1 0x0 DUP1 REVERT JUMPDEST DUP2 MLOAD DUP1 ISZERO ISZERO DUP2 EQ PUSH2 0x1579 JUMPI PUSH1 0x0 DUP1 REVERT INVALID LOG2 PUSH5 0x6970667358 0x22 SLT KECCAK256 SLOAD 0xE1 PUSH20 0xEC7FDBE14B5B91AAF114CECB463ADF111F92313D LOG4 JUMPI 0xEC CREATE2 ADDRESS 0xE1 DUP1 PC 0xB6 PUSH5 0x736F6C6343 STOP ADDMOD GT STOP CALLER "},"methodIdentifiers":{"BEGIN_TIME()":"c75363b6","END_TIME()":"37ba682d","LOCK_WEEKNUM()":"0d437d40","MAX_SCALE()":"f6def7cf","MAX_TICK()":"6882a888","MAX_WEEKS()":"e11400bb","MIN_TICK()":"a1634b14","WEEK_SECONDS()":"cd671a58","acceptSetter()":"5f8e422f","canClaimAmount()":"8431165e","claimReward()":"b88a802f","fee()":"ddca3f43","getScore(uint256,uint8)":"ee3453ed","getUserNFTs()":"fdc5ab8e","latestNo()":"29ed1cfd","lockedRewardAmount()":"8923de2b","nftToken()":"d06fcba8","onERC721Received(address,address,uint256,bytes)":"150b7a02","owner()":"8da5cb5b","rewardToken()":"f7c618c1","rewardsOf(uint256)":"0bce1284","setReward(uint256,uint256)":"a47bd496","setRewards(uint256[],uint256[])":"979db1c4","stake(uint256,uint8)":"10087fb1","stakingNFTs(uint256)":"10c6c1c2","token0()":"0dfe1681","token1()":"d21220a7","totalScores(uint256)":"157775df","transferOwner(address)":"4fb2e45d","userCanClaimWeeks(address,uint256)":"bb57852d","userNFTs(address,uint256)":"291c73c3","userScores(address,uint256)":"5b680a45","withdraw(uint256)":"2e1a7d4d","withdraw(uint256[])":"983d95ce","withdrawRewards(uint256)":"9342c8f4"}}}}}