{"contracts/claimNFT.sol":{"Reward":{"abi":[{"inputs":[{"internalType":"address[]","name":"_users","type":"address[]"},{"internalType":"address","name":"_rewardToken","type":"address"},{"internalType":"uint256","name":"_tokenid","type":"uint256"}],"stateMutability":"nonpayable","type":"constructor"},{"inputs":[],"name":"acceptSetter","outputs":[],"stateMutability":"nonpayable","type":"function"},{"inputs":[{"internalType":"address[]","name":"_users","type":"address[]"}],"name":"addUser","outputs":[],"stateMutability":"nonpayable","type":"function"},{"inputs":[],"name":"claim","outputs":[],"stateMutability":"nonpayable","type":"function"},{"inputs":[],"name":"itemID","outputs":[{"internalType":"uint256","name":"","type":"uint256"}],"stateMutability":"view","type":"function"},{"inputs":[],"name":"nftToken","outputs":[{"internalType":"contract IERC1155","name":"","type":"address"}],"stateMutability":"view","type":"function"},{"inputs":[{"internalType":"address","name":"","type":"address"},{"internalType":"address","name":"","type":"address"},{"internalType":"uint256[]","name":"","type":"uint256[]"},{"internalType":"uint256[]","name":"","type":"uint256[]"},{"internalType":"bytes","name":"","type":"bytes"}],"name":"onERC1155BatchReceived","outputs":[{"internalType":"bytes4","name":"","type":"bytes4"}],"stateMutability":"nonpayable","type":"function"},{"inputs":[{"internalType":"address","name":"","type":"address"},{"internalType":"address","name":"","type":"address"},{"internalType":"uint256","name":"","type":"uint256"},{"internalType":"uint256","name":"","type":"uint256"},{"internalType":"bytes","name":"","type":"bytes"}],"name":"onERC1155Received","outputs":[{"internalType":"bytes4","name":"","type":"bytes4"}],"stateMutability":"nonpayable","type":"function"},{"inputs":[],"name":"owner","outputs":[{"internalType":"address","name":"","type":"address"}],"stateMutability":"view","type":"function"},{"inputs":[{"internalType":"address","name":"_owner","type":"address"}],"name":"transferOwner","outputs":[],"stateMutability":"nonpayable","type":"function"},{"inputs":[{"internalType":"address","name":"","type":"address"}],"name":"userClaimed","outputs":[{"internalType":"uint256","name":"","type":"uint256"}],"stateMutability":"view","type":"function"},{"inputs":[{"internalType":"address","name":"","type":"address"}],"name":"users","outputs":[{"internalType":"bool","name":"","type":"bool"}],"stateMutability":"view","type":"function"}],"evm":{"bytecode":{"linkReferences":{},"object":"60c060405234801561001057600080fd5b5060405162000abd38038062000abd833981016040819052610031916100f5565b60005b835181101561009957600160036000868481518110610055576100556101d4565b6020908102919091018101516001600160a01b03168252810191909152604001600020805460ff191691151591909117905580610091816101ea565b915050610034565b506001600160a01b0390911660805260a05250600080546001600160a01b03191633179055610211565b634e487b7160e01b600052604160045260246000fd5b80516001600160a01b03811681146100f057600080fd5b919050565b60008060006060848603121561010a57600080fd5b83516001600160401b038082111561012157600080fd5b818601915086601f83011261013557600080fd5b8151602082821115610149576101496100c3565b8160051b604051601f19603f8301168101818110868211171561016e5761016e6100c3565b60405292835281830193508481018201928a84111561018c57600080fd5b948201945b838610156101b1576101a2866100d9565b85529482019493820193610191565b97506101c090508882016100d9565b955050505050604084015190509250925092565b634e487b7160e01b600052603260045260246000fd5b60006001820161020a57634e487b7160e01b600052601160045260246000fd5b5060010190565b60805160a051610879620002446000396000818160e601526102e60152600081816101db015261032701526108796000f3fe608060405234801561001057600080fd5b50600436106100a95760003560e01c80638da5cb5b116100715780638da5cb5b1461012d578063a87430ba14610158578063bc197c811461018b578063cdfca7f2146101c3578063d06fcba8146101d6578063f23a6e61146101fd57600080fd5b80633b7fcdca146100ae57806343cdef60146100e15780634e71d92d146101085780634fb2e45d146101125780635f8e422f14610125575b600080fd5b6100ce6100bc3660046104d4565b60026020526000908152604090205481565b6040519081526020015b60405180910390f35b6100ce7f000000000000000000000000000000000000000000000000000000000000000081565b61011061021c565b005b6101106101203660046104d4565b610385565b6101106103d1565b600054610140906001600160a01b031681565b6040516001600160a01b0390911681526020016100d8565b61017b6101663660046104d4565b60036020526000908152604090205460ff1681565b60405190151581526020016100d8565b6101aa61019936600461063c565b63bc197c8160e01b95945050505050565b6040516001600160e01b031990911681526020016100d8565b6101106101d13660046106e6565b610422565b6101407f000000000000000000000000000000000000000000000000000000000000000081565b6101aa61020b36600461077e565b63f23a6e6160e01b95945050505050565b3360009081526003602052604090205460ff166102715760405162461bcd60e51b815260206004820152600e60248201526d3ab9b2b9103337b93134b23232b760911b60448201526064015b60405180910390fd5b33600090815260026020526040902054156102b85760405162461bcd60e51b815260206004820152600760248201526618db185a5b595960ca1b6044820152606401610268565b3360008181526002602052604080822042905551637921219560e11b815230600482015260248101929092527f000000000000000000000000000000000000000000000000000000000000000060448301526001606483015260a0608483015260a48201526001600160a01b037f0000000000000000000000000000000000000000000000000000000000000000169063f242432a9060c401600060405180830381600087803b15801561036b57600080fd5b505af115801561037f573d6000803e3d6000fd5b50505050565b6000546001600160a01b031633146103af5760405162461bcd60e51b8152600401610268906107e3565b600180546001600160a01b0319166001600160a01b0392909216919091179055565b6001546001600160a01b031633146103fb5760405162461bcd60e51b8152600401610268906107e3565b60018054600080546001600160a01b03199081166001600160a01b03841617909155169055565b6000546001600160a01b0316331461044c5760405162461bcd60e51b8152600401610268906107e3565b60005b81518110156104b45760016003600084848151811061047057610470610806565b6020908102919091018101516001600160a01b03168252810191909152604001600020805460ff1916911515919091179055806104ac8161081c565b91505061044f565b5050565b80356001600160a01b03811681146104cf57600080fd5b919050565b6000602082840312156104e657600080fd5b6104ef826104b8565b9392505050565b634e487b7160e01b600052604160045260246000fd5b604051601f8201601f1916810167ffffffffffffffff81118282101715610535576105356104f6565b604052919050565b600067ffffffffffffffff821115610557576105576104f6565b5060051b60200190565b600082601f83011261057257600080fd5b813560206105876105828361053d565b61050c565b82815260059290921b840181019181810190868411156105a657600080fd5b8286015b848110156105c157803583529183019183016105aa565b509695505050505050565b600082601f8301126105dd57600080fd5b813567ffffffffffffffff8111156105f7576105f76104f6565b61060a601f8201601f191660200161050c565b81815284602083860101111561061f57600080fd5b816020850160208301376000918101602001919091529392505050565b600080600080600060a0868803121561065457600080fd5b61065d866104b8565b945061066b602087016104b8565b9350604086013567ffffffffffffffff8082111561068857600080fd5b61069489838a01610561565b945060608801359150808211156106aa57600080fd5b6106b689838a01610561565b935060808801359150808211156106cc57600080fd5b506106d9888289016105cc565b9150509295509295909350565b600060208083850312156106f957600080fd5b823567ffffffffffffffff81111561071057600080fd5b8301601f8101851361072157600080fd5b803561072f6105828261053d565b81815260059190911b8201830190838101908783111561074e57600080fd5b928401925b8284101561077357610764846104b8565b82529284019290840190610753565b979650505050505050565b600080600080600060a0868803121561079657600080fd5b61079f866104b8565b94506107ad602087016104b8565b93506040860135925060608601359150608086013567ffffffffffffffff8111156107d757600080fd5b6106d9888289016105cc565b6020808252600990820152683337b93134b23232b760b91b604082015260600190565b634e487b7160e01b600052603260045260246000fd5b60006001820161083c57634e487b7160e01b600052601160045260246000fd5b506001019056fea26469706673582212203cb391babc64dcf5e453957101218e08cbb72b60b46f7b8a0012958d1ebba0ec64736f6c63430008110033","opcodes":"PUSH1 0xC0 PUSH1 0x40 MSTORE CALLVALUE DUP1 ISZERO PUSH2 0x10 JUMPI PUSH1 0x0 DUP1 REVERT JUMPDEST POP PUSH1 0x40 MLOAD PUSH3 0xABD CODESIZE SUB DUP1 PUSH3 0xABD DUP4 CODECOPY DUP2 ADD PUSH1 0x40 DUP2 SWAP1 MSTORE PUSH2 0x31 SWAP2 PUSH2 0xF5 JUMP JUMPDEST PUSH1 0x0 JUMPDEST DUP4 MLOAD DUP2 LT ISZERO PUSH2 0x99 JUMPI PUSH1 0x1 PUSH1 0x3 PUSH1 0x0 DUP7 DUP5 DUP2 MLOAD DUP2 LT PUSH2 0x55 JUMPI PUSH2 0x55 PUSH2 0x1D4 JUMP JUMPDEST PUSH1 0x20 SWAP1 DUP2 MUL SWAP2 SWAP1 SWAP2 ADD DUP2 ADD MLOAD PUSH1 0x1 PUSH1 0x1 PUSH1 0xA0 SHL SUB AND DUP3 MSTORE DUP2 ADD SWAP2 SWAP1 SWAP2 MSTORE PUSH1 0x40 ADD PUSH1 0x0 KECCAK256 DUP1 SLOAD PUSH1 0xFF NOT AND SWAP2 ISZERO ISZERO SWAP2 SWAP1 SWAP2 OR SWAP1 SSTORE DUP1 PUSH2 0x91 DUP2 PUSH2 0x1EA JUMP JUMPDEST SWAP2 POP POP PUSH2 0x34 JUMP JUMPDEST POP PUSH1 0x1 PUSH1 0x1 PUSH1 0xA0 SHL SUB SWAP1 SWAP2 AND PUSH1 0x80 MSTORE PUSH1 0xA0 MSTORE POP PUSH1 0x0 DUP1 SLOAD PUSH1 0x1 PUSH1 0x1 PUSH1 0xA0 SHL SUB NOT AND CALLER OR SWAP1 SSTORE PUSH2 0x211 JUMP JUMPDEST PUSH4 0x4E487B71 PUSH1 0xE0 SHL PUSH1 0x0 MSTORE PUSH1 0x41 PUSH1 0x4 MSTORE PUSH1 0x24 PUSH1 0x0 REVERT JUMPDEST DUP1 MLOAD PUSH1 0x1 PUSH1 0x1 PUSH1 0xA0 SHL SUB DUP2 AND DUP2 EQ PUSH2 0xF0 JUMPI PUSH1 0x0 DUP1 REVERT JUMPDEST SWAP2 SWAP1 POP JUMP JUMPDEST PUSH1 0x0 DUP1 PUSH1 0x0 PUSH1 0x60 DUP5 DUP7 SUB SLT ISZERO PUSH2 0x10A JUMPI PUSH1 0x0 DUP1 REVERT JUMPDEST DUP4 MLOAD PUSH1 0x1 PUSH1 0x1 PUSH1 0x40 SHL SUB DUP1 DUP3 GT ISZERO PUSH2 0x121 JUMPI PUSH1 0x0 DUP1 REVERT JUMPDEST DUP2 DUP7 ADD SWAP2 POP DUP7 PUSH1 0x1F DUP4 ADD SLT PUSH2 0x135 JUMPI PUSH1 0x0 DUP1 REVERT JUMPDEST DUP2 MLOAD PUSH1 0x20 DUP3 DUP3 GT ISZERO PUSH2 0x149 JUMPI PUSH2 0x149 PUSH2 0xC3 JUMP JUMPDEST DUP2 PUSH1 0x5 SHL PUSH1 0x40 MLOAD PUSH1 0x1F NOT PUSH1 0x3F DUP4 ADD AND DUP2 ADD DUP2 DUP2 LT DUP7 DUP3 GT OR ISZERO PUSH2 0x16E JUMPI PUSH2 0x16E PUSH2 0xC3 JUMP JUMPDEST PUSH1 0x40 MSTORE SWAP3 DUP4 MSTORE DUP2 DUP4 ADD SWAP4 POP DUP5 DUP2 ADD DUP3 ADD SWAP3 DUP11 DUP5 GT ISZERO PUSH2 0x18C JUMPI PUSH1 0x0 DUP1 REVERT JUMPDEST SWAP5 DUP3 ADD SWAP5 JUMPDEST DUP4 DUP7 LT ISZERO PUSH2 0x1B1 JUMPI PUSH2 0x1A2 DUP7 PUSH2 0xD9 JUMP JUMPDEST DUP6 MSTORE SWAP5 DUP3 ADD SWAP5 SWAP4 DUP3 ADD SWAP4 PUSH2 0x191 JUMP JUMPDEST SWAP8 POP PUSH2 0x1C0 SWAP1 POP DUP9 DUP3 ADD PUSH2 0xD9 JUMP JUMPDEST SWAP6 POP POP POP POP POP PUSH1 0x40 DUP5 ADD MLOAD SWAP1 POP SWAP3 POP SWAP3 POP SWAP3 JUMP JUMPDEST PUSH4 0x4E487B71 PUSH1 0xE0 SHL PUSH1 0x0 MSTORE PUSH1 0x32 PUSH1 0x4 MSTORE PUSH1 0x24 PUSH1 0x0 REVERT JUMPDEST PUSH1 0x0 PUSH1 0x1 DUP3 ADD PUSH2 0x20A JUMPI PUSH4 0x4E487B71 PUSH1 0xE0 SHL PUSH1 0x0 MSTORE PUSH1 0x11 PUSH1 0x4 MSTORE PUSH1 0x24 PUSH1 0x0 REVERT JUMPDEST POP PUSH1 0x1 ADD SWAP1 JUMP JUMPDEST PUSH1 0x80 MLOAD PUSH1 0xA0 MLOAD PUSH2 0x879 PUSH3 0x244 PUSH1 0x0 CODECOPY PUSH1 0x0 DUP2 DUP2 PUSH1 0xE6 ADD MSTORE PUSH2 0x2E6 ADD MSTORE PUSH1 0x0 DUP2 DUP2 PUSH2 0x1DB ADD MSTORE PUSH2 0x327 ADD MSTORE PUSH2 0x879 PUSH1 0x0 RETURN INVALID PUSH1 0x80 PUSH1 0x40 MSTORE CALLVALUE DUP1 ISZERO PUSH2 0x10 JUMPI PUSH1 0x0 DUP1 REVERT JUMPDEST POP PUSH1 0x4 CALLDATASIZE LT PUSH2 0xA9 JUMPI PUSH1 0x0 CALLDATALOAD PUSH1 0xE0 SHR DUP1 PUSH4 0x8DA5CB5B GT PUSH2 0x71 JUMPI DUP1 PUSH4 0x8DA5CB5B EQ PUSH2 0x12D JUMPI DUP1 PUSH4 0xA87430BA EQ PUSH2 0x158 JUMPI DUP1 PUSH4 0xBC197C81 EQ PUSH2 0x18B JUMPI DUP1 PUSH4 0xCDFCA7F2 EQ PUSH2 0x1C3 JUMPI DUP1 PUSH4 0xD06FCBA8 EQ PUSH2 0x1D6 JUMPI DUP1 PUSH4 0xF23A6E61 EQ PUSH2 0x1FD JUMPI PUSH1 0x0 DUP1 REVERT JUMPDEST DUP1 PUSH4 0x3B7FCDCA EQ PUSH2 0xAE JUMPI DUP1 PUSH4 0x43CDEF60 EQ PUSH2 0xE1 JUMPI DUP1 PUSH4 0x4E71D92D EQ PUSH2 0x108 JUMPI DUP1 PUSH4 0x4FB2E45D EQ PUSH2 0x112 JUMPI DUP1 PUSH4 0x5F8E422F EQ PUSH2 0x125 JUMPI JUMPDEST PUSH1 0x0 DUP1 REVERT JUMPDEST PUSH2 0xCE PUSH2 0xBC CALLDATASIZE PUSH1 0x4 PUSH2 0x4D4 JUMP JUMPDEST PUSH1 0x2 PUSH1 0x20 MSTORE PUSH1 0x0 SWAP1 DUP2 MSTORE PUSH1 0x40 SWAP1 KECCAK256 SLOAD DUP2 JUMP JUMPDEST PUSH1 0x40 MLOAD SWAP1 DUP2 MSTORE PUSH1 0x20 ADD JUMPDEST PUSH1 0x40 MLOAD DUP1 SWAP2 SUB SWAP1 RETURN JUMPDEST PUSH2 0xCE PUSH32 0x0 DUP2 JUMP JUMPDEST PUSH2 0x110 PUSH2 0x21C JUMP JUMPDEST STOP JUMPDEST PUSH2 0x110 PUSH2 0x120 CALLDATASIZE PUSH1 0x4 PUSH2 0x4D4 JUMP JUMPDEST PUSH2 0x385 JUMP JUMPDEST PUSH2 0x110 PUSH2 0x3D1 JUMP JUMPDEST PUSH1 0x0 SLOAD PUSH2 0x140 SWAP1 PUSH1 0x1 PUSH1 0x1 PUSH1 0xA0 SHL SUB AND DUP2 JUMP JUMPDEST PUSH1 0x40 MLOAD PUSH1 0x1 PUSH1 0x1 PUSH1 0xA0 SHL SUB SWAP1 SWAP2 AND DUP2 MSTORE PUSH1 0x20 ADD PUSH2 0xD8 JUMP JUMPDEST PUSH2 0x17B PUSH2 0x166 CALLDATASIZE PUSH1 0x4 PUSH2 0x4D4 JUMP JUMPDEST PUSH1 0x3 PUSH1 0x20 MSTORE PUSH1 0x0 SWAP1 DUP2 MSTORE PUSH1 0x40 SWAP1 KECCAK256 SLOAD PUSH1 0xFF AND DUP2 JUMP JUMPDEST PUSH1 0x40 MLOAD SWAP1 ISZERO ISZERO DUP2 MSTORE PUSH1 0x20 ADD PUSH2 0xD8 JUMP JUMPDEST PUSH2 0x1AA PUSH2 0x199 CALLDATASIZE PUSH1 0x4 PUSH2 0x63C JUMP JUMPDEST PUSH4 0xBC197C81 PUSH1 0xE0 SHL SWAP6 SWAP5 POP POP POP POP POP JUMP JUMPDEST PUSH1 0x40 MLOAD PUSH1 0x1 PUSH1 0x1 PUSH1 0xE0 SHL SUB NOT SWAP1 SWAP2 AND DUP2 MSTORE PUSH1 0x20 ADD PUSH2 0xD8 JUMP JUMPDEST PUSH2 0x110 PUSH2 0x1D1 CALLDATASIZE PUSH1 0x4 PUSH2 0x6E6 JUMP JUMPDEST PUSH2 0x422 JUMP JUMPDEST PUSH2 0x140 PUSH32 0x0 DUP2 JUMP JUMPDEST PUSH2 0x1AA PUSH2 0x20B CALLDATASIZE PUSH1 0x4 PUSH2 0x77E JUMP JUMPDEST PUSH4 0xF23A6E61 PUSH1 0xE0 SHL SWAP6 SWAP5 POP POP POP POP POP JUMP JUMPDEST CALLER PUSH1 0x0 SWAP1 DUP2 MSTORE PUSH1 0x3 PUSH1 0x20 MSTORE PUSH1 0x40 SWAP1 KECCAK256 SLOAD PUSH1 0xFF AND PUSH2 0x271 JUMPI PUSH1 0x40 MLOAD PUSH3 0x461BCD PUSH1 0xE5 SHL DUP2 MSTORE PUSH1 0x20 PUSH1 0x4 DUP3 ADD MSTORE PUSH1 0xE PUSH1 0x24 DUP3 ADD MSTORE PUSH14 0x3AB9B2B9103337B93134B23232B7 PUSH1 0x91 SHL PUSH1 0x44 DUP3 ADD MSTORE PUSH1 0x64 ADD JUMPDEST PUSH1 0x40 MLOAD DUP1 SWAP2 SUB SWAP1 REVERT JUMPDEST CALLER PUSH1 0x0 SWAP1 DUP2 MSTORE PUSH1 0x2 PUSH1 0x20 MSTORE PUSH1 0x40 SWAP1 KECCAK256 SLOAD ISZERO PUSH2 0x2B8 JUMPI PUSH1 0x40 MLOAD PUSH3 0x461BCD PUSH1 0xE5 SHL DUP2 MSTORE PUSH1 0x20 PUSH1 0x4 DUP3 ADD MSTORE PUSH1 0x7 PUSH1 0x24 DUP3 ADD MSTORE PUSH7 0x18DB185A5B5959 PUSH1 0xCA SHL PUSH1 0x44 DUP3 ADD MSTORE PUSH1 0x64 ADD PUSH2 0x268 JUMP JUMPDEST CALLER PUSH1 0x0 DUP2 DUP2 MSTORE PUSH1 0x2 PUSH1 0x20 MSTORE PUSH1 0x40 DUP1 DUP3 KECCAK256 TIMESTAMP SWAP1 SSTORE MLOAD PUSH4 0x79212195 PUSH1 0xE1 SHL DUP2 MSTORE ADDRESS PUSH1 0x4 DUP3 ADD MSTORE PUSH1 0x24 DUP2 ADD SWAP3 SWAP1 SWAP3 MSTORE PUSH32 0x0 PUSH1 0x44 DUP4 ADD MSTORE PUSH1 0x1 PUSH1 0x64 DUP4 ADD MSTORE PUSH1 0xA0 PUSH1 0x84 DUP4 ADD MSTORE PUSH1 0xA4 DUP3 ADD MSTORE PUSH1 0x1 PUSH1 0x1 PUSH1 0xA0 SHL SUB PUSH32 0x0 AND SWAP1 PUSH4 0xF242432A SWAP1 PUSH1 0xC4 ADD PUSH1 0x0 PUSH1 0x40 MLOAD DUP1 DUP4 SUB DUP2 PUSH1 0x0 DUP8 DUP1 EXTCODESIZE ISZERO DUP1 ISZERO PUSH2 0x36B JUMPI PUSH1 0x0 DUP1 REVERT JUMPDEST POP GAS CALL ISZERO DUP1 ISZERO PUSH2 0x37F JUMPI RETURNDATASIZE PUSH1 0x0 DUP1 RETURNDATACOPY RETURNDATASIZE PUSH1 0x0 REVERT JUMPDEST POP POP POP POP JUMP JUMPDEST PUSH1 0x0 SLOAD PUSH1 0x1 PUSH1 0x1 PUSH1 0xA0 SHL SUB AND CALLER EQ PUSH2 0x3AF JUMPI PUSH1 0x40 MLOAD PUSH3 0x461BCD PUSH1 0xE5 SHL DUP2 MSTORE PUSH1 0x4 ADD PUSH2 0x268 SWAP1 PUSH2 0x7E3 JUMP JUMPDEST PUSH1 0x1 DUP1 SLOAD PUSH1 0x1 PUSH1 0x1 PUSH1 0xA0 SHL SUB NOT AND PUSH1 0x1 PUSH1 0x1 PUSH1 0xA0 SHL SUB SWAP3 SWAP1 SWAP3 AND SWAP2 SWAP1 SWAP2 OR SWAP1 SSTORE JUMP JUMPDEST PUSH1 0x1 SLOAD PUSH1 0x1 PUSH1 0x1 PUSH1 0xA0 SHL SUB AND CALLER EQ PUSH2 0x3FB JUMPI PUSH1 0x40 MLOAD PUSH3 0x461BCD PUSH1 0xE5 SHL DUP2 MSTORE PUSH1 0x4 ADD PUSH2 0x268 SWAP1 PUSH2 0x7E3 JUMP JUMPDEST PUSH1 0x1 DUP1 SLOAD PUSH1 0x0 DUP1 SLOAD PUSH1 0x1 PUSH1 0x1 PUSH1 0xA0 SHL SUB NOT SWAP1 DUP2 AND PUSH1 0x1 PUSH1 0x1 PUSH1 0xA0 SHL SUB DUP5 AND OR SWAP1 SWAP2 SSTORE AND SWAP1 SSTORE JUMP JUMPDEST PUSH1 0x0 SLOAD PUSH1 0x1 PUSH1 0x1 PUSH1 0xA0 SHL SUB AND CALLER EQ PUSH2 0x44C JUMPI PUSH1 0x40 MLOAD PUSH3 0x461BCD PUSH1 0xE5 SHL DUP2 MSTORE PUSH1 0x4 ADD PUSH2 0x268 SWAP1 PUSH2 0x7E3 JUMP JUMPDEST PUSH1 0x0 JUMPDEST DUP2 MLOAD DUP2 LT ISZERO PUSH2 0x4B4 JUMPI PUSH1 0x1 PUSH1 0x3 PUSH1 0x0 DUP5 DUP5 DUP2 MLOAD DUP2 LT PUSH2 0x470 JUMPI PUSH2 0x470 PUSH2 0x806 JUMP JUMPDEST PUSH1 0x20 SWAP1 DUP2 MUL SWAP2 SWAP1 SWAP2 ADD DUP2 ADD MLOAD PUSH1 0x1 PUSH1 0x1 PUSH1 0xA0 SHL SUB AND DUP3 MSTORE DUP2 ADD SWAP2 SWAP1 SWAP2 MSTORE PUSH1 0x40 ADD PUSH1 0x0 KECCAK256 DUP1 SLOAD PUSH1 0xFF NOT AND SWAP2 ISZERO ISZERO SWAP2 SWAP1 SWAP2 OR SWAP1 SSTORE DUP1 PUSH2 0x4AC DUP2 PUSH2 0x81C JUMP JUMPDEST SWAP2 POP POP PUSH2 0x44F JUMP JUMPDEST POP POP JUMP JUMPDEST DUP1 CALLDATALOAD PUSH1 0x1 PUSH1 0x1 PUSH1 0xA0 SHL SUB DUP2 AND DUP2 EQ PUSH2 0x4CF JUMPI PUSH1 0x0 DUP1 REVERT JUMPDEST SWAP2 SWAP1 POP JUMP JUMPDEST PUSH1 0x0 PUSH1 0x20 DUP3 DUP5 SUB SLT ISZERO PUSH2 0x4E6 JUMPI PUSH1 0x0 DUP1 REVERT JUMPDEST PUSH2 0x4EF DUP3 PUSH2 0x4B8 JUMP JUMPDEST SWAP4 SWAP3 POP POP POP JUMP JUMPDEST PUSH4 0x4E487B71 PUSH1 0xE0 SHL PUSH1 0x0 MSTORE PUSH1 0x41 PUSH1 0x4 MSTORE PUSH1 0x24 PUSH1 0x0 REVERT JUMPDEST PUSH1 0x40 MLOAD PUSH1 0x1F DUP3 ADD PUSH1 0x1F NOT AND DUP2 ADD PUSH8 0xFFFFFFFFFFFFFFFF DUP2 GT DUP3 DUP3 LT OR ISZERO PUSH2 0x535 JUMPI PUSH2 0x535 PUSH2 0x4F6 JUMP JUMPDEST PUSH1 0x40 MSTORE SWAP2 SWAP1 POP JUMP JUMPDEST PUSH1 0x0 PUSH8 0xFFFFFFFFFFFFFFFF DUP3 GT ISZERO PUSH2 0x557 JUMPI PUSH2 0x557 PUSH2 0x4F6 JUMP JUMPDEST POP PUSH1 0x5 SHL PUSH1 0x20 ADD SWAP1 JUMP JUMPDEST PUSH1 0x0 DUP3 PUSH1 0x1F DUP4 ADD SLT PUSH2 0x572 JUMPI PUSH1 0x0 DUP1 REVERT JUMPDEST DUP2 CALLDATALOAD PUSH1 0x20 PUSH2 0x587 PUSH2 0x582 DUP4 PUSH2 0x53D JUMP JUMPDEST PUSH2 0x50C JUMP JUMPDEST DUP3 DUP2 MSTORE PUSH1 0x5 SWAP3 SWAP1 SWAP3 SHL DUP5 ADD DUP2 ADD SWAP2 DUP2 DUP2 ADD SWAP1 DUP7 DUP5 GT ISZERO PUSH2 0x5A6 JUMPI PUSH1 0x0 DUP1 REVERT JUMPDEST DUP3 DUP7 ADD JUMPDEST DUP5 DUP2 LT ISZERO PUSH2 0x5C1 JUMPI DUP1 CALLDATALOAD DUP4 MSTORE SWAP2 DUP4 ADD SWAP2 DUP4 ADD PUSH2 0x5AA JUMP JUMPDEST POP SWAP7 SWAP6 POP POP POP POP POP POP JUMP JUMPDEST PUSH1 0x0 DUP3 PUSH1 0x1F DUP4 ADD SLT PUSH2 0x5DD JUMPI PUSH1 0x0 DUP1 REVERT JUMPDEST DUP2 CALLDATALOAD PUSH8 0xFFFFFFFFFFFFFFFF DUP2 GT ISZERO PUSH2 0x5F7 JUMPI PUSH2 0x5F7 PUSH2 0x4F6 JUMP JUMPDEST PUSH2 0x60A PUSH1 0x1F DUP3 ADD PUSH1 0x1F NOT AND PUSH1 0x20 ADD PUSH2 0x50C JUMP JUMPDEST DUP2 DUP2 MSTORE DUP5 PUSH1 0x20 DUP4 DUP7 ADD ADD GT ISZERO PUSH2 0x61F JUMPI PUSH1 0x0 DUP1 REVERT JUMPDEST DUP2 PUSH1 0x20 DUP6 ADD PUSH1 0x20 DUP4 ADD CALLDATACOPY PUSH1 0x0 SWAP2 DUP2 ADD PUSH1 0x20 ADD SWAP2 SWAP1 SWAP2 MSTORE SWAP4 SWAP3 POP POP POP JUMP JUMPDEST PUSH1 0x0 DUP1 PUSH1 0x0 DUP1 PUSH1 0x0 PUSH1 0xA0 DUP7 DUP9 SUB SLT ISZERO PUSH2 0x654 JUMPI PUSH1 0x0 DUP1 REVERT JUMPDEST PUSH2 0x65D DUP7 PUSH2 0x4B8 JUMP JUMPDEST SWAP5 POP PUSH2 0x66B PUSH1 0x20 DUP8 ADD PUSH2 0x4B8 JUMP JUMPDEST SWAP4 POP PUSH1 0x40 DUP7 ADD CALLDATALOAD PUSH8 0xFFFFFFFFFFFFFFFF DUP1 DUP3 GT ISZERO PUSH2 0x688 JUMPI PUSH1 0x0 DUP1 REVERT JUMPDEST PUSH2 0x694 DUP10 DUP4 DUP11 ADD PUSH2 0x561 JUMP JUMPDEST SWAP5 POP PUSH1 0x60 DUP9 ADD CALLDATALOAD SWAP2 POP DUP1 DUP3 GT ISZERO PUSH2 0x6AA JUMPI PUSH1 0x0 DUP1 REVERT JUMPDEST PUSH2 0x6B6 DUP10 DUP4 DUP11 ADD PUSH2 0x561 JUMP JUMPDEST SWAP4 POP PUSH1 0x80 DUP9 ADD CALLDATALOAD SWAP2 POP DUP1 DUP3 GT ISZERO PUSH2 0x6CC JUMPI PUSH1 0x0 DUP1 REVERT JUMPDEST POP PUSH2 0x6D9 DUP9 DUP3 DUP10 ADD PUSH2 0x5CC JUMP JUMPDEST SWAP2 POP POP SWAP3 SWAP6 POP SWAP3 SWAP6 SWAP1 SWAP4 POP JUMP JUMPDEST PUSH1 0x0 PUSH1 0x20 DUP1 DUP4 DUP6 SUB SLT ISZERO PUSH2 0x6F9 JUMPI PUSH1 0x0 DUP1 REVERT JUMPDEST DUP3 CALLDATALOAD PUSH8 0xFFFFFFFFFFFFFFFF DUP2 GT ISZERO PUSH2 0x710 JUMPI PUSH1 0x0 DUP1 REVERT JUMPDEST DUP4 ADD PUSH1 0x1F DUP2 ADD DUP6 SGT PUSH2 0x721 JUMPI PUSH1 0x0 DUP1 REVERT JUMPDEST DUP1 CALLDATALOAD PUSH2 0x72F PUSH2 0x582 DUP3 PUSH2 0x53D JUMP JUMPDEST DUP2 DUP2 MSTORE PUSH1 0x5 SWAP2 SWAP1 SWAP2 SHL DUP3 ADD DUP4 ADD SWAP1 DUP4 DUP2 ADD SWAP1 DUP8 DUP4 GT ISZERO PUSH2 0x74E JUMPI PUSH1 0x0 DUP1 REVERT JUMPDEST SWAP3 DUP5 ADD SWAP3 JUMPDEST DUP3 DUP5 LT ISZERO PUSH2 0x773 JUMPI PUSH2 0x764 DUP5 PUSH2 0x4B8 JUMP JUMPDEST DUP3 MSTORE SWAP3 DUP5 ADD SWAP3 SWAP1 DUP5 ADD SWAP1 PUSH2 0x753 JUMP JUMPDEST SWAP8 SWAP7 POP POP POP POP POP POP POP JUMP JUMPDEST PUSH1 0x0 DUP1 PUSH1 0x0 DUP1 PUSH1 0x0 PUSH1 0xA0 DUP7 DUP9 SUB SLT ISZERO PUSH2 0x796 JUMPI PUSH1 0x0 DUP1 REVERT JUMPDEST PUSH2 0x79F DUP7 PUSH2 0x4B8 JUMP JUMPDEST SWAP5 POP PUSH2 0x7AD PUSH1 0x20 DUP8 ADD PUSH2 0x4B8 JUMP JUMPDEST SWAP4 POP PUSH1 0x40 DUP7 ADD CALLDATALOAD SWAP3 POP PUSH1 0x60 DUP7 ADD CALLDATALOAD SWAP2 POP PUSH1 0x80 DUP7 ADD CALLDATALOAD PUSH8 0xFFFFFFFFFFFFFFFF DUP2 GT ISZERO PUSH2 0x7D7 JUMPI PUSH1 0x0 DUP1 REVERT JUMPDEST PUSH2 0x6D9 DUP9 DUP3 DUP10 ADD PUSH2 0x5CC JUMP JUMPDEST PUSH1 0x20 DUP1 DUP3 MSTORE PUSH1 0x9 SWAP1 DUP3 ADD MSTORE PUSH9 0x3337B93134B23232B7 PUSH1 0xB9 SHL PUSH1 0x40 DUP3 ADD MSTORE PUSH1 0x60 ADD SWAP1 JUMP JUMPDEST PUSH4 0x4E487B71 PUSH1 0xE0 SHL PUSH1 0x0 MSTORE PUSH1 0x32 PUSH1 0x4 MSTORE PUSH1 0x24 PUSH1 0x0 REVERT JUMPDEST PUSH1 0x0 PUSH1 0x1 DUP3 ADD PUSH2 0x83C JUMPI PUSH4 0x4E487B71 PUSH1 0xE0 SHL PUSH1 0x0 MSTORE PUSH1 0x11 PUSH1 0x4 MSTORE PUSH1 0x24 PUSH1 0x0 REVERT JUMPDEST POP PUSH1 0x1 ADD SWAP1 JUMP INVALID LOG2 PUSH5 0x6970667358 0x22 SLT KECCAK256 EXTCODECOPY 0xB3 SWAP2 0xBA 0xBC PUSH5 0xDCF5E45395 PUSH18 0x1218E08CBB72B60B46F7B8A0012958D1EBB LOG0 0xEC PUSH5 0x736F6C6343 STOP ADDMOD GT STOP CALLER "},"methodIdentifiers":{"acceptSetter()":"5f8e422f","addUser(address[])":"cdfca7f2","claim()":"4e71d92d","itemID()":"43cdef60","nftToken()":"d06fcba8","onERC1155BatchReceived(address,address,uint256[],uint256[],bytes)":"bc197c81","onERC1155Received(address,address,uint256,uint256,bytes)":"f23a6e61","owner()":"8da5cb5b","transferOwner(address)":"4fb2e45d","userClaimed(address)":"3b7fcdca","users(address)":"a87430ba"}}}}}