{"contracts/claim.sol":{"Reward":{"abi":[{"inputs":[{"internalType":"address[]","name":"_users","type":"address[]"},{"internalType":"uint256","name":"_rewardAmount","type":"uint256"},{"internalType":"address","name":"_rewardToken","type":"address"}],"stateMutability":"nonpayable","type":"constructor"},{"inputs":[],"name":"acceptSetter","outputs":[],"stateMutability":"nonpayable","type":"function"},{"inputs":[],"name":"claim","outputs":[],"stateMutability":"nonpayable","type":"function"},{"inputs":[],"name":"owner","outputs":[{"internalType":"address","name":"","type":"address"}],"stateMutability":"view","type":"function"},{"inputs":[],"name":"rewardAmount","outputs":[{"internalType":"uint256","name":"","type":"uint256"}],"stateMutability":"view","type":"function"},{"inputs":[],"name":"rewardToken","outputs":[{"internalType":"address","name":"","type":"address"}],"stateMutability":"view","type":"function"},{"inputs":[{"internalType":"address","name":"_owner","type":"address"}],"name":"transferOwner","outputs":[],"stateMutability":"nonpayable","type":"function"},{"inputs":[{"internalType":"address","name":"","type":"address"}],"name":"userClaimed","outputs":[{"internalType":"uint256","name":"","type":"uint256"}],"stateMutability":"view","type":"function"},{"inputs":[{"internalType":"address","name":"","type":"address"}],"name":"users","outputs":[{"internalType":"bool","name":"","type":"bool"}],"stateMutability":"view","type":"function"}],"evm":{"bytecode":{"linkReferences":{},"object":"60c060405234801561001057600080fd5b5060405161076938038061076983398101604081905261002f916100f4565b60005b835181101561009757600160036000868481518110610053576100536101d4565b6020908102919091018101516001600160a01b03168252810191909152604001600020805460ff19169115159190911790558061008f816101ea565b915050610032565b5060a0919091526001600160a01b031660805250600080546001600160a01b03191633179055610211565b634e487b7160e01b600052604160045260246000fd5b80516001600160a01b03811681146100ef57600080fd5b919050565b60008060006060848603121561010957600080fd5b83516001600160401b038082111561012057600080fd5b818601915086601f83011261013457600080fd5b8151602082821115610148576101486100c2565b8160051b604051601f19603f8301168101818110868211171561016d5761016d6100c2565b60405292835281830193508481018201928a84111561018b57600080fd5b948201945b838610156101b0576101a1866100d8565b85529482019493820193610190565b8098505050808801519550505050506101cb604085016100d8565b90509250925092565b634e487b7160e01b600052603260045260246000fd5b60006001820161020a57634e487b7160e01b600052601160045260246000fd5b5060010190565b60805160a05161052561024460003960008181610148015261026601526000818161016f015261024401526105256000f3fe608060405234801561001057600080fd5b50600436106100885760003560e01c80638da5cb5b1161005b5780638da5cb5b146100e5578063a87430ba14610110578063f7b2a7be14610143578063f7c618c11461016a57600080fd5b80633b7fcdca1461008d5780634e71d92d146100c05780634fb2e45d146100ca5780635f8e422f146100dd575b600080fd5b6100ad61009b36600461046e565b60026020526000908152604090205481565b6040519081526020015b60405180910390f35b6100c8610191565b005b6100c86100d836600461046e565b61028c565b6100c86102f4565b6000546100f8906001600160a01b031681565b6040516001600160a01b0390911681526020016100b7565b61013361011e36600461046e565b60036020526000908152604090205460ff1681565b60405190151581526020016100b7565b6100ad7f000000000000000000000000000000000000000000000000000000000000000081565b6100f87f000000000000000000000000000000000000000000000000000000000000000081565b3360009081526003602052604090205460ff166101e65760405162461bcd60e51b815260206004820152600e60248201526d3ab9b2b9103337b93134b23232b760911b60448201526064015b60405180910390fd5b3360009081526002602052604090205461022c5760405162461bcd60e51b815260206004820152600760248201526618db185a5b595960ca1b60448201526064016101dd565b33600081815260026020526040902042905561028a907f0000000000000000000000000000000000000000000000000000000000000000907f0000000000000000000000000000000000000000000000000000000000000000610361565b565b6000546001600160a01b031633146102d25760405162461bcd60e51b81526020600482015260096024820152683337b93134b23232b760b91b60448201526064016101dd565b600180546001600160a01b0319166001600160a01b0392909216919091179055565b6001546001600160a01b0316331461033a5760405162461bcd60e51b81526020600482015260096024820152683337b93134b23232b760b91b60448201526064016101dd565b60018054600080546001600160a01b03199081166001600160a01b03841617909155169055565b604080516001600160a01b038481166024830152604480830185905283518084039091018152606490920183526020820180516001600160e01b031663a9059cbb60e01b17905291516000928392908716916103bd919061049e565b6000604051808303816000865af19150503d80600081146103fa576040519150601f19603f3d011682016040523d82523d6000602084013e6103ff565b606091505b509150915081801561042957508051158061042957508080602001905181019061042991906104cd565b6104675760405162461bcd60e51b815260206004820152600f60248201526e1514905394d1915497d19052531151608a1b60448201526064016101dd565b5050505050565b60006020828403121561048057600080fd5b81356001600160a01b038116811461049757600080fd5b9392505050565b6000825160005b818110156104bf57602081860181015185830152016104a5565b506000920191825250919050565b6000602082840312156104df57600080fd5b8151801515811461049757600080fdfea2646970667358221220a4216f8b01431c083315d9b6c28f887a788b114ff964c05a27a5604f98c8391f64736f6c63430008110033","opcodes":"PUSH1 0xC0 PUSH1 0x40 MSTORE CALLVALUE DUP1 ISZERO PUSH2 0x10 JUMPI PUSH1 0x0 DUP1 REVERT JUMPDEST POP PUSH1 0x40 MLOAD PUSH2 0x769 CODESIZE SUB DUP1 PUSH2 0x769 DUP4 CODECOPY DUP2 ADD PUSH1 0x40 DUP2 SWAP1 MSTORE PUSH2 0x2F SWAP2 PUSH2 0xF4 JUMP JUMPDEST PUSH1 0x0 JUMPDEST DUP4 MLOAD DUP2 LT ISZERO PUSH2 0x97 JUMPI PUSH1 0x1 PUSH1 0x3 PUSH1 0x0 DUP7 DUP5 DUP2 MLOAD DUP2 LT PUSH2 0x53 JUMPI PUSH2 0x53 PUSH2 0x1D4 JUMP JUMPDEST PUSH1 0x20 SWAP1 DUP2 MUL SWAP2 SWAP1 SWAP2 ADD DUP2 ADD MLOAD PUSH1 0x1 PUSH1 0x1 PUSH1 0xA0 SHL SUB AND DUP3 MSTORE DUP2 ADD SWAP2 SWAP1 SWAP2 MSTORE PUSH1 0x40 ADD PUSH1 0x0 KECCAK256 DUP1 SLOAD PUSH1 0xFF NOT AND SWAP2 ISZERO ISZERO SWAP2 SWAP1 SWAP2 OR SWAP1 SSTORE DUP1 PUSH2 0x8F DUP2 PUSH2 0x1EA JUMP JUMPDEST SWAP2 POP POP PUSH2 0x32 JUMP JUMPDEST POP PUSH1 0xA0 SWAP2 SWAP1 SWAP2 MSTORE PUSH1 0x1 PUSH1 0x1 PUSH1 0xA0 SHL SUB AND PUSH1 0x80 MSTORE POP PUSH1 0x0 DUP1 SLOAD PUSH1 0x1 PUSH1 0x1 PUSH1 0xA0 SHL SUB NOT AND CALLER OR SWAP1 SSTORE PUSH2 0x211 JUMP JUMPDEST PUSH4 0x4E487B71 PUSH1 0xE0 SHL PUSH1 0x0 MSTORE PUSH1 0x41 PUSH1 0x4 MSTORE PUSH1 0x24 PUSH1 0x0 REVERT JUMPDEST DUP1 MLOAD PUSH1 0x1 PUSH1 0x1 PUSH1 0xA0 SHL SUB DUP2 AND DUP2 EQ PUSH2 0xEF JUMPI PUSH1 0x0 DUP1 REVERT JUMPDEST SWAP2 SWAP1 POP JUMP JUMPDEST PUSH1 0x0 DUP1 PUSH1 0x0 PUSH1 0x60 DUP5 DUP7 SUB SLT ISZERO PUSH2 0x109 JUMPI PUSH1 0x0 DUP1 REVERT JUMPDEST DUP4 MLOAD PUSH1 0x1 PUSH1 0x1 PUSH1 0x40 SHL SUB DUP1 DUP3 GT ISZERO PUSH2 0x120 JUMPI PUSH1 0x0 DUP1 REVERT JUMPDEST DUP2 DUP7 ADD SWAP2 POP DUP7 PUSH1 0x1F DUP4 ADD SLT PUSH2 0x134 JUMPI PUSH1 0x0 DUP1 REVERT JUMPDEST DUP2 MLOAD PUSH1 0x20 DUP3 DUP3 GT ISZERO PUSH2 0x148 JUMPI PUSH2 0x148 PUSH2 0xC2 JUMP JUMPDEST DUP2 PUSH1 0x5 SHL PUSH1 0x40 MLOAD PUSH1 0x1F NOT PUSH1 0x3F DUP4 ADD AND DUP2 ADD DUP2 DUP2 LT DUP7 DUP3 GT OR ISZERO PUSH2 0x16D JUMPI PUSH2 0x16D PUSH2 0xC2 JUMP JUMPDEST PUSH1 0x40 MSTORE SWAP3 DUP4 MSTORE DUP2 DUP4 ADD SWAP4 POP DUP5 DUP2 ADD DUP3 ADD SWAP3 DUP11 DUP5 GT ISZERO PUSH2 0x18B JUMPI PUSH1 0x0 DUP1 REVERT JUMPDEST SWAP5 DUP3 ADD SWAP5 JUMPDEST DUP4 DUP7 LT ISZERO PUSH2 0x1B0 JUMPI PUSH2 0x1A1 DUP7 PUSH2 0xD8 JUMP JUMPDEST DUP6 MSTORE SWAP5 DUP3 ADD SWAP5 SWAP4 DUP3 ADD SWAP4 PUSH2 0x190 JUMP JUMPDEST DUP1 SWAP9 POP POP POP DUP1 DUP9 ADD MLOAD SWAP6 POP POP POP POP POP PUSH2 0x1CB PUSH1 0x40 DUP6 ADD PUSH2 0xD8 JUMP JUMPDEST SWAP1 POP SWAP3 POP SWAP3 POP SWAP3 JUMP JUMPDEST PUSH4 0x4E487B71 PUSH1 0xE0 SHL PUSH1 0x0 MSTORE PUSH1 0x32 PUSH1 0x4 MSTORE PUSH1 0x24 PUSH1 0x0 REVERT JUMPDEST PUSH1 0x0 PUSH1 0x1 DUP3 ADD PUSH2 0x20A JUMPI PUSH4 0x4E487B71 PUSH1 0xE0 SHL PUSH1 0x0 MSTORE PUSH1 0x11 PUSH1 0x4 MSTORE PUSH1 0x24 PUSH1 0x0 REVERT JUMPDEST POP PUSH1 0x1 ADD SWAP1 JUMP JUMPDEST PUSH1 0x80 MLOAD PUSH1 0xA0 MLOAD PUSH2 0x525 PUSH2 0x244 PUSH1 0x0 CODECOPY PUSH1 0x0 DUP2 DUP2 PUSH2 0x148 ADD MSTORE PUSH2 0x266 ADD MSTORE PUSH1 0x0 DUP2 DUP2 PUSH2 0x16F ADD MSTORE PUSH2 0x244 ADD MSTORE PUSH2 0x525 PUSH1 0x0 RETURN INVALID PUSH1 0x80 PUSH1 0x40 MSTORE CALLVALUE DUP1 ISZERO PUSH2 0x10 JUMPI PUSH1 0x0 DUP1 REVERT JUMPDEST POP PUSH1 0x4 CALLDATASIZE LT PUSH2 0x88 JUMPI PUSH1 0x0 CALLDATALOAD PUSH1 0xE0 SHR DUP1 PUSH4 0x8DA5CB5B GT PUSH2 0x5B JUMPI DUP1 PUSH4 0x8DA5CB5B EQ PUSH2 0xE5 JUMPI DUP1 PUSH4 0xA87430BA EQ PUSH2 0x110 JUMPI DUP1 PUSH4 0xF7B2A7BE EQ PUSH2 0x143 JUMPI DUP1 PUSH4 0xF7C618C1 EQ PUSH2 0x16A JUMPI PUSH1 0x0 DUP1 REVERT JUMPDEST DUP1 PUSH4 0x3B7FCDCA EQ PUSH2 0x8D JUMPI DUP1 PUSH4 0x4E71D92D EQ PUSH2 0xC0 JUMPI DUP1 PUSH4 0x4FB2E45D EQ PUSH2 0xCA JUMPI DUP1 PUSH4 0x5F8E422F EQ PUSH2 0xDD JUMPI JUMPDEST PUSH1 0x0 DUP1 REVERT JUMPDEST PUSH2 0xAD PUSH2 0x9B CALLDATASIZE PUSH1 0x4 PUSH2 0x46E JUMP JUMPDEST PUSH1 0x2 PUSH1 0x20 MSTORE PUSH1 0x0 SWAP1 DUP2 MSTORE PUSH1 0x40 SWAP1 KECCAK256 SLOAD DUP2 JUMP JUMPDEST PUSH1 0x40 MLOAD SWAP1 DUP2 MSTORE PUSH1 0x20 ADD JUMPDEST PUSH1 0x40 MLOAD DUP1 SWAP2 SUB SWAP1 RETURN JUMPDEST PUSH2 0xC8 PUSH2 0x191 JUMP JUMPDEST STOP JUMPDEST PUSH2 0xC8 PUSH2 0xD8 CALLDATASIZE PUSH1 0x4 PUSH2 0x46E JUMP JUMPDEST PUSH2 0x28C JUMP JUMPDEST PUSH2 0xC8 PUSH2 0x2F4 JUMP JUMPDEST PUSH1 0x0 SLOAD PUSH2 0xF8 SWAP1 PUSH1 0x1 PUSH1 0x1 PUSH1 0xA0 SHL SUB AND DUP2 JUMP JUMPDEST PUSH1 0x40 MLOAD PUSH1 0x1 PUSH1 0x1 PUSH1 0xA0 SHL SUB SWAP1 SWAP2 AND DUP2 MSTORE PUSH1 0x20 ADD PUSH2 0xB7 JUMP JUMPDEST PUSH2 0x133 PUSH2 0x11E CALLDATASIZE PUSH1 0x4 PUSH2 0x46E JUMP JUMPDEST PUSH1 0x3 PUSH1 0x20 MSTORE PUSH1 0x0 SWAP1 DUP2 MSTORE PUSH1 0x40 SWAP1 KECCAK256 SLOAD PUSH1 0xFF AND DUP2 JUMP JUMPDEST PUSH1 0x40 MLOAD SWAP1 ISZERO ISZERO DUP2 MSTORE PUSH1 0x20 ADD PUSH2 0xB7 JUMP JUMPDEST PUSH2 0xAD PUSH32 0x0 DUP2 JUMP JUMPDEST PUSH2 0xF8 PUSH32 0x0 DUP2 JUMP JUMPDEST CALLER PUSH1 0x0 SWAP1 DUP2 MSTORE PUSH1 0x3 PUSH1 0x20 MSTORE PUSH1 0x40 SWAP1 KECCAK256 SLOAD PUSH1 0xFF AND PUSH2 0x1E6 JUMPI PUSH1 0x40 MLOAD PUSH3 0x461BCD PUSH1 0xE5 SHL DUP2 MSTORE PUSH1 0x20 PUSH1 0x4 DUP3 ADD MSTORE PUSH1 0xE PUSH1 0x24 DUP3 ADD MSTORE PUSH14 0x3AB9B2B9103337B93134B23232B7 PUSH1 0x91 SHL PUSH1 0x44 DUP3 ADD MSTORE PUSH1 0x64 ADD JUMPDEST PUSH1 0x40 MLOAD DUP1 SWAP2 SUB SWAP1 REVERT JUMPDEST CALLER PUSH1 0x0 SWAP1 DUP2 MSTORE PUSH1 0x2 PUSH1 0x20 MSTORE PUSH1 0x40 SWAP1 KECCAK256 SLOAD PUSH2 0x22C JUMPI PUSH1 0x40 MLOAD PUSH3 0x461BCD PUSH1 0xE5 SHL DUP2 MSTORE PUSH1 0x20 PUSH1 0x4 DUP3 ADD MSTORE PUSH1 0x7 PUSH1 0x24 DUP3 ADD MSTORE PUSH7 0x18DB185A5B5959 PUSH1 0xCA SHL PUSH1 0x44 DUP3 ADD MSTORE PUSH1 0x64 ADD PUSH2 0x1DD JUMP JUMPDEST CALLER PUSH1 0x0 DUP2 DUP2 MSTORE PUSH1 0x2 PUSH1 0x20 MSTORE PUSH1 0x40 SWAP1 KECCAK256 TIMESTAMP SWAP1 SSTORE PUSH2 0x28A SWAP1 PUSH32 0x0 SWAP1 PUSH32 0x0 PUSH2 0x361 JUMP JUMPDEST JUMP JUMPDEST PUSH1 0x0 SLOAD PUSH1 0x1 PUSH1 0x1 PUSH1 0xA0 SHL SUB AND CALLER EQ PUSH2 0x2D2 JUMPI PUSH1 0x40 MLOAD PUSH3 0x461BCD PUSH1 0xE5 SHL DUP2 MSTORE PUSH1 0x20 PUSH1 0x4 DUP3 ADD MSTORE PUSH1 0x9 PUSH1 0x24 DUP3 ADD MSTORE PUSH9 0x3337B93134B23232B7 PUSH1 0xB9 SHL PUSH1 0x44 DUP3 ADD MSTORE PUSH1 0x64 ADD PUSH2 0x1DD JUMP JUMPDEST PUSH1 0x1 DUP1 SLOAD PUSH1 0x1 PUSH1 0x1 PUSH1 0xA0 SHL SUB NOT AND PUSH1 0x1 PUSH1 0x1 PUSH1 0xA0 SHL SUB SWAP3 SWAP1 SWAP3 AND SWAP2 SWAP1 SWAP2 OR SWAP1 SSTORE JUMP JUMPDEST PUSH1 0x1 SLOAD PUSH1 0x1 PUSH1 0x1 PUSH1 0xA0 SHL SUB AND CALLER EQ PUSH2 0x33A JUMPI PUSH1 0x40 MLOAD PUSH3 0x461BCD PUSH1 0xE5 SHL DUP2 MSTORE PUSH1 0x20 PUSH1 0x4 DUP3 ADD MSTORE PUSH1 0x9 PUSH1 0x24 DUP3 ADD MSTORE PUSH9 0x3337B93134B23232B7 PUSH1 0xB9 SHL PUSH1 0x44 DUP3 ADD MSTORE PUSH1 0x64 ADD PUSH2 0x1DD JUMP JUMPDEST PUSH1 0x1 DUP1 SLOAD PUSH1 0x0 DUP1 SLOAD PUSH1 0x1 PUSH1 0x1 PUSH1 0xA0 SHL SUB NOT SWAP1 DUP2 AND PUSH1 0x1 PUSH1 0x1 PUSH1 0xA0 SHL SUB DUP5 AND OR SWAP1 SWAP2 SSTORE AND SWAP1 SSTORE JUMP JUMPDEST PUSH1 0x40 DUP1 MLOAD PUSH1 0x1 PUSH1 0x1 PUSH1 0xA0 SHL SUB DUP5 DUP2 AND PUSH1 0x24 DUP4 ADD MSTORE PUSH1 0x44 DUP1 DUP4 ADD DUP6 SWAP1 MSTORE DUP4 MLOAD DUP1 DUP5 SUB SWAP1 SWAP2 ADD DUP2 MSTORE PUSH1 0x64 SWAP1 SWAP3 ADD DUP4 MSTORE PUSH1 0x20 DUP3 ADD DUP1 MLOAD PUSH1 0x1 PUSH1 0x1 PUSH1 0xE0 SHL SUB AND PUSH4 0xA9059CBB PUSH1 0xE0 SHL OR SWAP1 MSTORE SWAP2 MLOAD PUSH1 0x0 SWAP3 DUP4 SWAP3 SWAP1 DUP8 AND SWAP2 PUSH2 0x3BD SWAP2 SWAP1 PUSH2 0x49E JUMP JUMPDEST PUSH1 0x0 PUSH1 0x40 MLOAD DUP1 DUP4 SUB DUP2 PUSH1 0x0 DUP7 GAS CALL SWAP2 POP POP RETURNDATASIZE DUP1 PUSH1 0x0 DUP2 EQ PUSH2 0x3FA JUMPI PUSH1 0x40 MLOAD SWAP2 POP PUSH1 0x1F NOT PUSH1 0x3F RETURNDATASIZE ADD AND DUP3 ADD PUSH1 0x40 MSTORE RETURNDATASIZE DUP3 MSTORE RETURNDATASIZE PUSH1 0x0 PUSH1 0x20 DUP5 ADD RETURNDATACOPY PUSH2 0x3FF JUMP JUMPDEST PUSH1 0x60 SWAP2 POP JUMPDEST POP SWAP2 POP SWAP2 POP DUP2 DUP1 ISZERO PUSH2 0x429 JUMPI POP DUP1 MLOAD ISZERO DUP1 PUSH2 0x429 JUMPI POP DUP1 DUP1 PUSH1 0x20 ADD SWAP1 MLOAD DUP2 ADD SWAP1 PUSH2 0x429 SWAP2 SWAP1 PUSH2 0x4CD JUMP JUMPDEST PUSH2 0x467 JUMPI PUSH1 0x40 MLOAD PUSH3 0x461BCD PUSH1 0xE5 SHL DUP2 MSTORE PUSH1 0x20 PUSH1 0x4 DUP3 ADD MSTORE PUSH1 0xF PUSH1 0x24 DUP3 ADD MSTORE PUSH15 0x1514905394D1915497D19052531151 PUSH1 0x8A SHL PUSH1 0x44 DUP3 ADD MSTORE PUSH1 0x64 ADD PUSH2 0x1DD JUMP JUMPDEST POP POP POP POP POP JUMP JUMPDEST PUSH1 0x0 PUSH1 0x20 DUP3 DUP5 SUB SLT ISZERO PUSH2 0x480 JUMPI PUSH1 0x0 DUP1 REVERT JUMPDEST DUP2 CALLDATALOAD PUSH1 0x1 PUSH1 0x1 PUSH1 0xA0 SHL SUB DUP2 AND DUP2 EQ PUSH2 0x497 JUMPI PUSH1 0x0 DUP1 REVERT JUMPDEST SWAP4 SWAP3 POP POP POP JUMP JUMPDEST PUSH1 0x0 DUP3 MLOAD PUSH1 0x0 JUMPDEST DUP2 DUP2 LT ISZERO PUSH2 0x4BF JUMPI PUSH1 0x20 DUP2 DUP7 ADD DUP2 ADD MLOAD DUP6 DUP4 ADD MSTORE ADD PUSH2 0x4A5 JUMP JUMPDEST POP PUSH1 0x0 SWAP3 ADD SWAP2 DUP3 MSTORE POP SWAP2 SWAP1 POP JUMP JUMPDEST PUSH1 0x0 PUSH1 0x20 DUP3 DUP5 SUB SLT ISZERO PUSH2 0x4DF JUMPI PUSH1 0x0 DUP1 REVERT JUMPDEST DUP2 MLOAD DUP1 ISZERO ISZERO DUP2 EQ PUSH2 0x497 JUMPI PUSH1 0x0 DUP1 REVERT INVALID LOG2 PUSH5 0x6970667358 0x22 SLT KECCAK256 LOG4 0x21 PUSH16 0x8B01431C083315D9B6C28F887A788B11 0x4F 0xF9 PUSH5 0xC05A27A560 0x4F SWAP9 0xC8 CODECOPY 0x1F PUSH5 0x736F6C6343 STOP ADDMOD GT STOP CALLER "},"methodIdentifiers":{"acceptSetter()":"5f8e422f","claim()":"4e71d92d","owner()":"8da5cb5b","rewardAmount()":"f7b2a7be","rewardToken()":"f7c618c1","transferOwner(address)":"4fb2e45d","userClaimed(address)":"3b7fcdca","users(address)":"a87430ba"}}}}}