{"contracts/stakeBase.sol":{"StakeBase":{"abi":[{"inputs":[{"internalType":"uint8","name":"maxWeeks","type":"uint8"},{"internalType":"uint256","name":"maxScale","type":"uint256"},{"internalType":"uint8","name":"lockWeeks","type":"uint8"},{"internalType":"uint256","name":"beginTime","type":"uint256"},{"internalType":"uint256","name":"endTime","type":"uint256"},{"internalType":"address","name":"_rewardToken","type":"address"}],"stateMutability":"nonpayable","type":"constructor"},{"anonymous":false,"inputs":[{"indexed":true,"internalType":"address","name":"user","type":"address"},{"indexed":false,"internalType":"uint256","name":"amount","type":"uint256"}],"name":"ClaimReward","type":"event"},{"anonymous":false,"inputs":[{"indexed":true,"internalType":"address","name":"user","type":"address"},{"indexed":false,"internalType":"uint256","name":"no","type":"uint256"},{"indexed":false,"internalType":"uint256","name":"amount","type":"uint256"}],"name":"SetReward","type":"event"},{"inputs":[],"name":"BEGIN_TIME","outputs":[{"internalType":"uint256","name":"","type":"uint256"}],"stateMutability":"view","type":"function"},{"inputs":[],"name":"END_TIME","outputs":[{"internalType":"uint256","name":"","type":"uint256"}],"stateMutability":"view","type":"function"},{"inputs":[],"name":"LOCK_WEEKNUM","outputs":[{"internalType":"uint8","name":"","type":"uint8"}],"stateMutability":"view","type":"function"},{"inputs":[],"name":"MAX_SCALE","outputs":[{"internalType":"uint256","name":"","type":"uint256"}],"stateMutability":"view","type":"function"},{"inputs":[],"name":"MAX_WEEKS","outputs":[{"internalType":"uint8","name":"","type":"uint8"}],"stateMutability":"view","type":"function"},{"inputs":[],"name":"WEEK_SECONDS","outputs":[{"internalType":"uint24","name":"","type":"uint24"}],"stateMutability":"view","type":"function"},{"inputs":[],"name":"acceptSetter","outputs":[],"stateMutability":"nonpayable","type":"function"},{"inputs":[{"internalType":"address","name":"user","type":"address"}],"name":"canClaimAmount","outputs":[{"internalType":"uint256","name":"","type":"uint256"}],"stateMutability":"view","type":"function"},{"inputs":[{"internalType":"uint256","name":"deadline","type":"uint256"}],"name":"claimReward","outputs":[],"stateMutability":"nonpayable","type":"function"},{"inputs":[{"internalType":"uint256","name":"amount","type":"uint256"},{"internalType":"uint8","name":"k","type":"uint8"}],"name":"getScore","outputs":[{"internalType":"uint256","name":"score","type":"uint256"}],"stateMutability":"view","type":"function"},{"inputs":[],"name":"latestNo","outputs":[{"internalType":"uint256","name":"","type":"uint256"}],"stateMutability":"view","type":"function"},{"inputs":[{"internalType":"address","name":"user","type":"address"}],"name":"lockedRewardAmount","outputs":[{"internalType":"uint256","name":"","type":"uint256"},{"internalType":"uint256[]","name":"","type":"uint256[]"}],"stateMutability":"view","type":"function"},{"inputs":[],"name":"owner","outputs":[{"internalType":"address","name":"","type":"address"}],"stateMutability":"view","type":"function"},{"inputs":[],"name":"rewardToken","outputs":[{"internalType":"address","name":"","type":"address"}],"stateMutability":"view","type":"function"},{"inputs":[{"internalType":"uint256","name":"","type":"uint256"}],"name":"rewardsOf","outputs":[{"internalType":"uint256","name":"","type":"uint256"}],"stateMutability":"view","type":"function"},{"inputs":[{"internalType":"uint256","name":"no","type":"uint256"},{"internalType":"uint256","name":"amount","type":"uint256"},{"internalType":"uint256","name":"deadline","type":"uint256"}],"name":"setReward","outputs":[],"stateMutability":"nonpayable","type":"function"},{"inputs":[{"internalType":"uint256[]","name":"nos","type":"uint256[]"},{"internalType":"uint256[]","name":"amounts","type":"uint256[]"},{"internalType":"uint256","name":"deadline","type":"uint256"}],"name":"setRewards","outputs":[{"internalType":"uint256","name":"total","type":"uint256"}],"stateMutability":"nonpayable","type":"function"},{"inputs":[{"internalType":"uint256","name":"","type":"uint256"}],"name":"totalScores","outputs":[{"internalType":"uint256","name":"","type":"uint256"}],"stateMutability":"view","type":"function"},{"inputs":[{"internalType":"address","name":"_owner","type":"address"}],"name":"transferOwner","outputs":[],"stateMutability":"nonpayable","type":"function"},{"inputs":[{"internalType":"address","name":"","type":"address"},{"internalType":"uint256","name":"","type":"uint256"}],"name":"userCanClaimWeeks","outputs":[{"internalType":"uint256","name":"","type":"uint256"}],"stateMutability":"view","type":"function"},{"inputs":[{"internalType":"address","name":"","type":"address"},{"internalType":"uint256","name":"","type":"uint256"}],"name":"userScores","outputs":[{"internalType":"uint256","name":"","type":"uint256"}],"stateMutability":"view","type":"function"},{"inputs":[{"internalType":"uint256","name":"amount","type":"uint256"},{"internalType":"uint256","name":"deadline","type":"uint256"}],"name":"withdrawRewards","outputs":[],"stateMutability":"nonpayable","type":"function"}],"evm":{"bytecode":{"linkReferences":{},"object":"61014060405234801561001157600080fd5b50604051620015ad380380620015ad83398101604081905261003291610089565b6001600160a01b031660805260ff94851660a05260c093909352921660e0526101009190915261012052600080546001600160a01b031916331790556100fa565b805160ff8116811461008457600080fd5b919050565b60008060008060008060c087890312156100a257600080fd5b6100ab87610073565b9550602087015194506100c060408801610073565b6060880151608089015160a08a015192965090945092506001600160a01b03811681146100ec57600080fd5b809150509295509295509295565b60805160a05160c05160e0516101005161012051611408620001a5600039600081816102190152610ae00152600081816102ec0152610b0b0152600081816101b7015281816103e3015281816105a7015281816109030152610cdf01526000818161037e0152610c7b01526000818161033101528181610c170152610c420152600081816103a5015281816107580152818161086001528181610a0c0152610b7301526114086000f3fe608060405234801561001057600080fd5b50600436106101425760003560e01c80638da5cb5b116100b8578063e11400bb1161007c578063e11400bb1461032c578063e1c05d9314610353578063ee3453ed14610366578063f6def7cf14610379578063f7c618c1146103a0578063fa60c77c146103c757600080fd5b80638da5cb5b14610296578063ae169a50146102c1578063bb57852d146102d4578063c75363b6146102e7578063cd671a581461030e57600080fd5b806329ed1cfd1161010a57806329ed1cfd1461020b57806337ba682d146102145780634fb2e45d1461023b57806352cb5133146102505780635b680a45146102635780635f8e422f1461028e57600080fd5b806302e9e4951461014757806307c6e2fa146101715780630bce1284146101925780630d437d40146101b2578063157775df146101eb575b600080fd5b61015a610155366004611026565b6103da565b604051610168929190611041565b60405180910390f35b61018461017f366004611140565b6105e5565b604051908152602001610168565b6101846101a03660046111ad565b60056020526000908152604090205481565b6101d97f000000000000000000000000000000000000000000000000000000000000000081565b60405160ff9091168152602001610168565b6101846101f93660046111ad565b60046020526000908152604090205481565b61018460065481565b6101847f000000000000000000000000000000000000000000000000000000000000000081565b61024e610249366004611026565b6107c4565b005b61024e61025e3660046111c6565b610810565b6101846102713660046111e8565b600260209081526000928352604080842090915290825290205481565b61024e61088b565b6000546102a9906001600160a01b031681565b6040516001600160a01b039091168152602001610168565b61024e6102cf3660046111ad565b6108dc565b6101846102e23660046111e8565b610a6e565b6101847f000000000000000000000000000000000000000000000000000000000000000081565b61031862093a8081565b60405162ffffff9091168152602001610168565b6101d97f000000000000000000000000000000000000000000000000000000000000000081565b61024e610361366004611212565b610a93565b61018461037436600461123e565b610c0e565b6101847f000000000000000000000000000000000000000000000000000000000000000081565b6102a97f000000000000000000000000000000000000000000000000000000000000000081565b6101846103d5366004611026565b610cd8565b600060608160ff7f00000000000000000000000000000000000000000000000000000000000000001661041062093a804261128a565b61041a91906112ac565b6104259060016112c5565b6001600160a01b038516600090815260036020526040902090915081906001015411610464576040805160008152602081019091529094909350915050565b6001600160a01b0384166000908152600360205260408120805460019091015490918383116104935783610495565b825b905060006104a382846112ac565b67ffffffffffffffff8111156104bb576104bb61108f565b6040519080825280602002602001820160405280156104e4578160200160208202803683370190505b509050815b8381101561058f5760008181526004602052604090205415610554576000818152600460209081526040808320546001600160a01b038d16845260028352818420858552835281842054600590935292205461054591906112ee565b61054f919061128a565b610557565b60005b8261056285846112ac565b81518110610572576105726112d8565b60209081029190910101528061058781611305565b9150506104e9565b50600061059f62093a804261128a565b6105cc8460ff7f0000000000000000000000000000000000000000000000000000000000000000166112c5565b6105d691906112ac565b99919850909650505050505050565b600081804211156106115760405162461bcd60e51b81526004016106089061131e565b60405180910390fd5b6000546001600160a01b0316331461063b5760405162461bcd60e51b815260040161060890611345565b835185511461067f5760405162461bcd60e51b815260206004820152601060248201526f3830b930b6b2ba32b9399032b93937b960811b6044820152606401610608565b6000805b865181101561074d5785818151811061069e5761069e6112d8565b6020026020010151846106b191906112c5565b93508581815181106106c5576106c56112d8565b6020026020010151600560008984815181106106e3576106e36112d8565b602002602001015181526020019081526020016000208190555081878281518110610710576107106112d8565b6020026020010151111561073b57868181518110610730576107306112d8565b602002602001015191505b8061074581611305565b915050610683565b50600681905561077f7f0000000000000000000000000000000000000000000000000000000000000000333086610de3565b60408051600081526020810185905233917fc3991418cacd70a010fce559a44fcbb47534ca43bf7543964bdca2639f6e6e5a910160405180910390a250509392505050565b6000546001600160a01b031633146107ee5760405162461bcd60e51b815260040161060890611345565b600180546001600160a01b0319166001600160a01b0392909216919091179055565b80804211156108315760405162461bcd60e51b81526004016106089061131e565b6000546001600160a01b0316331461085b5760405162461bcd60e51b815260040161060890611345565b6108867f00000000000000000000000000000000000000000000000000000000000000003385610efd565b505050565b6001546001600160a01b031633146108b55760405162461bcd60e51b815260040161060890611345565b60018054600080546001600160a01b03199081166001600160a01b03841617909155169055565b80804211156108fd5760405162461bcd60e51b81526004016106089061131e565b600060ff7f00000000000000000000000000000000000000000000000000000000000000001661093062093a804261128a565b61093a91906112ac565b3360009081526003602052604081205491925090805b336000908152600360205260409020600101548110156109f3578381116109f35761097c8160016112c5565b600082815260046020526040902054909250156109e1576000818152600460209081526040808320543384526002835281842085855283528184205460059093529220546109ca91906112ee565b6109d4919061128a565b6109de90846112c5565b92505b806109eb81611305565b915050610950565b5033600090815260036020526040812082910155610a327f00000000000000000000000000000000000000000000000000000000000000003384610efd565b60405182815233907fba8de60c3403ec381d1d484652ea1980e3c3e56359195c92525bff4ce47ad98e9060200160405180910390a25050505050565b60036020528160005260406000208160028110610a8a57600080fd5b01549150829050565b8080421115610ab45760405162461bcd60e51b81526004016106089061131e565b6000546001600160a01b03163314610ade5760405162461bcd60e51b815260040161060890611345565b7f00000000000000000000000000000000000000000000000000000000000000004211158015610b2e57507f00000000000000000000000000000000000000000000000000000000000000004210155b610b6e5760405162461bcd60e51b81526020600482015260116024820152701b9bdd081a5b881d1a19481c195c9a5bd9607a1b6044820152606401610608565b610b9a7f0000000000000000000000000000000000000000000000000000000000000000333086610de3565b60008481526005602052604081208054859290610bb89084906112c5565b9091555050600654841115610bcd5760068490555b604080518581526020810185905233917fc3991418cacd70a010fce559a44fcbb47534ca43bf7543964bdca2639f6e6e5a910160405180910390a250505050565b6000610c3b60017f0000000000000000000000000000000000000000000000000000000000000000611368565b60ff1660017f000000000000000000000000000000000000000000000000000000000000000060ff16600185610c719190611368565b60ff16610c9f60017f00000000000000000000000000000000000000000000000000000000000000006112ac565b610ca991906112ee565b610cb391906112c5565b610cbd91906112ac565b610cc790856112ee565b610cd1919061128a565b9392505050565b60008060ff7f000000000000000000000000000000000000000000000000000000000000000016610d0c62093a804261128a565b610d1691906112ac565b6001600160a01b038416600090815260036020526040812054919250905b6001600160a01b038516600090815260036020526040902060010154811015610ddb57828111610ddb5760008181526004602052604090205415610dc9576000818152600460209081526040808320546001600160a01b0389168452600283528184208585528352818420546005909352922054610db291906112ee565b610dbc919061128a565b610dc690836112c5565b91505b80610dd381611305565b915050610d34565b509392505050565b604080516001600160a01b0385811660248301528481166044830152606480830185905283518084039091018152608490920183526020820180516001600160e01b03166323b872dd60e01b1790529151600092839290881691610e479190611381565b6000604051808303816000865af19150503d8060008114610e84576040519150601f19603f3d011682016040523d82523d6000602084013e610e89565b606091505b5091509150818015610eb3575080511580610eb3575080806020019051810190610eb391906113b0565b610ef55760405162461bcd60e51b81526020600482015260136024820152721d1c985b9cd9995c919c9bdb4819985a5b1959606a1b6044820152606401610608565b505050505050565b604080516001600160a01b038481166024830152604480830185905283518084039091018152606490920183526020820180516001600160e01b031663a9059cbb60e01b1790529151600092839290871691610f599190611381565b6000604051808303816000865af19150503d8060008114610f96576040519150601f19603f3d011682016040523d82523d6000602084013e610f9b565b606091505b5091509150818015610fc5575080511580610fc5575080806020019051810190610fc591906113b0565b6110035760405162461bcd60e51b815260206004820152600f60248201526e1514905394d1915497d19052531151608a1b6044820152606401610608565b5050505050565b80356001600160a01b038116811461102157600080fd5b919050565b60006020828403121561103857600080fd5b610cd18261100a565b6000604082018483526020604081850152818551808452606086019150828701935060005b8181101561108257845183529383019391830191600101611066565b5090979650505050505050565b634e487b7160e01b600052604160045260246000fd5b600082601f8301126110b657600080fd5b8135602067ffffffffffffffff808311156110d3576110d361108f565b8260051b604051601f19603f830116810181811084821117156110f8576110f861108f565b60405293845285810183019383810192508785111561111657600080fd5b83870191505b848210156111355781358352918301919083019061111c565b979650505050505050565b60008060006060848603121561115557600080fd5b833567ffffffffffffffff8082111561116d57600080fd5b611179878388016110a5565b9450602086013591508082111561118f57600080fd5b5061119c868287016110a5565b925050604084013590509250925092565b6000602082840312156111bf57600080fd5b5035919050565b600080604083850312156111d957600080fd5b50508035926020909101359150565b600080604083850312156111fb57600080fd5b6112048361100a565b946020939093013593505050565b60008060006060848603121561122757600080fd5b505081359360208301359350604090920135919050565b6000806040838503121561125157600080fd5b82359150602083013560ff8116811461126957600080fd5b809150509250929050565b634e487b7160e01b600052601160045260246000fd5b6000826112a757634e487b7160e01b600052601260045260246000fd5b500490565b818103818111156112bf576112bf611274565b92915050565b808201808211156112bf576112bf611274565b634e487b7160e01b600052603260045260246000fd5b80820281158282048414176112bf576112bf611274565b60006001820161131757611317611274565b5060010190565b6020808252600d908201526c6f76657220646561646c696e6560981b604082015260600190565b6020808252600990820152683337b93134b23232b760b91b604082015260600190565b60ff82811682821603908111156112bf576112bf611274565b6000825160005b818110156113a25760208186018101518583015201611388565b506000920191825250919050565b6000602082840312156113c257600080fd5b81518015158114610cd157600080fdfea2646970667358221220725c646fd7f715f1b4e78b27677b7284d2ae61d323abc00cf0dae360b8594af464736f6c63430008110033","opcodes":"PUSH2 0x140 PUSH1 0x40 MSTORE CALLVALUE DUP1 ISZERO PUSH2 0x11 JUMPI PUSH1 0x0 DUP1 REVERT JUMPDEST POP PUSH1 0x40 MLOAD PUSH3 0x15AD CODESIZE SUB DUP1 PUSH3 0x15AD DUP4 CODECOPY DUP2 ADD PUSH1 0x40 DUP2 SWAP1 MSTORE PUSH2 0x32 SWAP2 PUSH2 0x89 JUMP JUMPDEST PUSH1 0x1 PUSH1 0x1 PUSH1 0xA0 SHL SUB AND PUSH1 0x80 MSTORE PUSH1 0xFF SWAP5 DUP6 AND PUSH1 0xA0 MSTORE PUSH1 0xC0 SWAP4 SWAP1 SWAP4 MSTORE SWAP3 AND PUSH1 0xE0 MSTORE PUSH2 0x100 SWAP2 SWAP1 SWAP2 MSTORE PUSH2 0x120 MSTORE PUSH1 0x0 DUP1 SLOAD PUSH1 0x1 PUSH1 0x1 PUSH1 0xA0 SHL SUB NOT AND CALLER OR SWAP1 SSTORE PUSH2 0xFA JUMP JUMPDEST DUP1 MLOAD PUSH1 0xFF DUP2 AND DUP2 EQ PUSH2 0x84 JUMPI PUSH1 0x0 DUP1 REVERT JUMPDEST SWAP2 SWAP1 POP JUMP JUMPDEST PUSH1 0x0 DUP1 PUSH1 0x0 DUP1 PUSH1 0x0 DUP1 PUSH1 0xC0 DUP8 DUP10 SUB SLT ISZERO PUSH2 0xA2 JUMPI PUSH1 0x0 DUP1 REVERT JUMPDEST PUSH2 0xAB DUP8 PUSH2 0x73 JUMP JUMPDEST SWAP6 POP PUSH1 0x20 DUP8 ADD MLOAD SWAP5 POP PUSH2 0xC0 PUSH1 0x40 DUP9 ADD PUSH2 0x73 JUMP JUMPDEST PUSH1 0x60 DUP9 ADD MLOAD PUSH1 0x80 DUP10 ADD MLOAD PUSH1 0xA0 DUP11 ADD MLOAD SWAP3 SWAP7 POP SWAP1 SWAP5 POP SWAP3 POP PUSH1 0x1 PUSH1 0x1 PUSH1 0xA0 SHL SUB DUP2 AND DUP2 EQ PUSH2 0xEC JUMPI PUSH1 0x0 DUP1 REVERT JUMPDEST DUP1 SWAP2 POP POP SWAP3 SWAP6 POP SWAP3 SWAP6 POP SWAP3 SWAP6 JUMP JUMPDEST PUSH1 0x80 MLOAD PUSH1 0xA0 MLOAD PUSH1 0xC0 MLOAD PUSH1 0xE0 MLOAD PUSH2 0x100 MLOAD PUSH2 0x120 MLOAD PUSH2 0x1408 PUSH3 0x1A5 PUSH1 0x0 CODECOPY PUSH1 0x0 DUP2 DUP2 PUSH2 0x219 ADD MSTORE PUSH2 0xAE0 ADD MSTORE PUSH1 0x0 DUP2 DUP2 PUSH2 0x2EC ADD MSTORE PUSH2 0xB0B ADD MSTORE PUSH1 0x0 DUP2 DUP2 PUSH2 0x1B7 ADD MSTORE DUP2 DUP2 PUSH2 0x3E3 ADD MSTORE DUP2 DUP2 PUSH2 0x5A7 ADD MSTORE DUP2 DUP2 PUSH2 0x903 ADD MSTORE PUSH2 0xCDF ADD MSTORE PUSH1 0x0 DUP2 DUP2 PUSH2 0x37E ADD MSTORE PUSH2 0xC7B ADD MSTORE PUSH1 0x0 DUP2 DUP2 PUSH2 0x331 ADD MSTORE DUP2 DUP2 PUSH2 0xC17 ADD MSTORE PUSH2 0xC42 ADD MSTORE PUSH1 0x0 DUP2 DUP2 PUSH2 0x3A5 ADD MSTORE DUP2 DUP2 PUSH2 0x758 ADD MSTORE DUP2 DUP2 PUSH2 0x860 ADD MSTORE DUP2 DUP2 PUSH2 0xA0C ADD MSTORE PUSH2 0xB73 ADD MSTORE PUSH2 0x1408 PUSH1 0x0 RETURN INVALID PUSH1 0x80 PUSH1 0x40 MSTORE CALLVALUE DUP1 ISZERO PUSH2 0x10 JUMPI PUSH1 0x0 DUP1 REVERT JUMPDEST POP PUSH1 0x4 CALLDATASIZE LT PUSH2 0x142 JUMPI PUSH1 0x0 CALLDATALOAD PUSH1 0xE0 SHR DUP1 PUSH4 0x8DA5CB5B GT PUSH2 0xB8 JUMPI DUP1 PUSH4 0xE11400BB GT PUSH2 0x7C JUMPI DUP1 PUSH4 0xE11400BB EQ PUSH2 0x32C JUMPI DUP1 PUSH4 0xE1C05D93 EQ PUSH2 0x353 JUMPI DUP1 PUSH4 0xEE3453ED EQ PUSH2 0x366 JUMPI DUP1 PUSH4 0xF6DEF7CF EQ PUSH2 0x379 JUMPI DUP1 PUSH4 0xF7C618C1 EQ PUSH2 0x3A0 JUMPI DUP1 PUSH4 0xFA60C77C EQ PUSH2 0x3C7 JUMPI PUSH1 0x0 DUP1 REVERT JUMPDEST DUP1 PUSH4 0x8DA5CB5B EQ PUSH2 0x296 JUMPI DUP1 PUSH4 0xAE169A50 EQ PUSH2 0x2C1 JUMPI DUP1 PUSH4 0xBB57852D EQ PUSH2 0x2D4 JUMPI DUP1 PUSH4 0xC75363B6 EQ PUSH2 0x2E7 JUMPI DUP1 PUSH4 0xCD671A58 EQ PUSH2 0x30E JUMPI PUSH1 0x0 DUP1 REVERT JUMPDEST DUP1 PUSH4 0x29ED1CFD GT PUSH2 0x10A JUMPI DUP1 PUSH4 0x29ED1CFD EQ PUSH2 0x20B JUMPI DUP1 PUSH4 0x37BA682D EQ PUSH2 0x214 JUMPI DUP1 PUSH4 0x4FB2E45D EQ PUSH2 0x23B JUMPI DUP1 PUSH4 0x52CB5133 EQ PUSH2 0x250 JUMPI DUP1 PUSH4 0x5B680A45 EQ PUSH2 0x263 JUMPI DUP1 PUSH4 0x5F8E422F EQ PUSH2 0x28E JUMPI PUSH1 0x0 DUP1 REVERT JUMPDEST DUP1 PUSH4 0x2E9E495 EQ PUSH2 0x147 JUMPI DUP1 PUSH4 0x7C6E2FA EQ PUSH2 0x171 JUMPI DUP1 PUSH4 0xBCE1284 EQ PUSH2 0x192 JUMPI DUP1 PUSH4 0xD437D40 EQ PUSH2 0x1B2 JUMPI DUP1 PUSH4 0x157775DF EQ PUSH2 0x1EB JUMPI JUMPDEST PUSH1 0x0 DUP1 REVERT JUMPDEST PUSH2 0x15A PUSH2 0x155 CALLDATASIZE PUSH1 0x4 PUSH2 0x1026 JUMP JUMPDEST PUSH2 0x3DA JUMP JUMPDEST PUSH1 0x40 MLOAD PUSH2 0x168 SWAP3 SWAP2 SWAP1 PUSH2 0x1041 JUMP JUMPDEST PUSH1 0x40 MLOAD DUP1 SWAP2 SUB SWAP1 RETURN JUMPDEST PUSH2 0x184 PUSH2 0x17F CALLDATASIZE PUSH1 0x4 PUSH2 0x1140 JUMP JUMPDEST PUSH2 0x5E5 JUMP JUMPDEST PUSH1 0x40 MLOAD SWAP1 DUP2 MSTORE PUSH1 0x20 ADD PUSH2 0x168 JUMP JUMPDEST PUSH2 0x184 PUSH2 0x1A0 CALLDATASIZE PUSH1 0x4 PUSH2 0x11AD JUMP JUMPDEST PUSH1 0x5 PUSH1 0x20 MSTORE PUSH1 0x0 SWAP1 DUP2 MSTORE PUSH1 0x40 SWAP1 KECCAK256 SLOAD DUP2 JUMP JUMPDEST PUSH2 0x1D9 PUSH32 0x0 DUP2 JUMP JUMPDEST PUSH1 0x40 MLOAD PUSH1 0xFF SWAP1 SWAP2 AND DUP2 MSTORE PUSH1 0x20 ADD PUSH2 0x168 JUMP JUMPDEST PUSH2 0x184 PUSH2 0x1F9 CALLDATASIZE PUSH1 0x4 PUSH2 0x11AD JUMP JUMPDEST PUSH1 0x4 PUSH1 0x20 MSTORE PUSH1 0x0 SWAP1 DUP2 MSTORE PUSH1 0x40 SWAP1 KECCAK256 SLOAD DUP2 JUMP JUMPDEST PUSH2 0x184 PUSH1 0x6 SLOAD DUP2 JUMP JUMPDEST PUSH2 0x184 PUSH32 0x0 DUP2 JUMP JUMPDEST PUSH2 0x24E PUSH2 0x249 CALLDATASIZE PUSH1 0x4 PUSH2 0x1026 JUMP JUMPDEST PUSH2 0x7C4 JUMP JUMPDEST STOP JUMPDEST PUSH2 0x24E PUSH2 0x25E CALLDATASIZE PUSH1 0x4 PUSH2 0x11C6 JUMP JUMPDEST PUSH2 0x810 JUMP JUMPDEST PUSH2 0x184 PUSH2 0x271 CALLDATASIZE PUSH1 0x4 PUSH2 0x11E8 JUMP JUMPDEST PUSH1 0x2 PUSH1 0x20 SWAP1 DUP2 MSTORE PUSH1 0x0 SWAP3 DUP4 MSTORE PUSH1 0x40 DUP1 DUP5 KECCAK256 SWAP1 SWAP2 MSTORE SWAP1 DUP3 MSTORE SWAP1 KECCAK256 SLOAD DUP2 JUMP JUMPDEST PUSH2 0x24E PUSH2 0x88B JUMP JUMPDEST PUSH1 0x0 SLOAD PUSH2 0x2A9 SWAP1 PUSH1 0x1 PUSH1 0x1 PUSH1 0xA0 SHL SUB AND DUP2 JUMP JUMPDEST PUSH1 0x40 MLOAD PUSH1 0x1 PUSH1 0x1 PUSH1 0xA0 SHL SUB SWAP1 SWAP2 AND DUP2 MSTORE PUSH1 0x20 ADD PUSH2 0x168 JUMP JUMPDEST PUSH2 0x24E PUSH2 0x2CF CALLDATASIZE PUSH1 0x4 PUSH2 0x11AD JUMP JUMPDEST PUSH2 0x8DC JUMP JUMPDEST PUSH2 0x184 PUSH2 0x2E2 CALLDATASIZE PUSH1 0x4 PUSH2 0x11E8 JUMP JUMPDEST PUSH2 0xA6E JUMP JUMPDEST PUSH2 0x184 PUSH32 0x0 DUP2 JUMP JUMPDEST PUSH2 0x318 PUSH3 0x93A80 DUP2 JUMP JUMPDEST PUSH1 0x40 MLOAD PUSH3 0xFFFFFF SWAP1 SWAP2 AND DUP2 MSTORE PUSH1 0x20 ADD PUSH2 0x168 JUMP JUMPDEST PUSH2 0x1D9 PUSH32 0x0 DUP2 JUMP JUMPDEST PUSH2 0x24E PUSH2 0x361 CALLDATASIZE PUSH1 0x4 PUSH2 0x1212 JUMP JUMPDEST PUSH2 0xA93 JUMP JUMPDEST PUSH2 0x184 PUSH2 0x374 CALLDATASIZE PUSH1 0x4 PUSH2 0x123E JUMP JUMPDEST PUSH2 0xC0E JUMP JUMPDEST PUSH2 0x184 PUSH32 0x0 DUP2 JUMP JUMPDEST PUSH2 0x2A9 PUSH32 0x0 DUP2 JUMP JUMPDEST PUSH2 0x184 PUSH2 0x3D5 CALLDATASIZE PUSH1 0x4 PUSH2 0x1026 JUMP JUMPDEST PUSH2 0xCD8 JUMP JUMPDEST PUSH1 0x0 PUSH1 0x60 DUP2 PUSH1 0xFF PUSH32 0x0 AND PUSH2 0x410 PUSH3 0x93A80 TIMESTAMP PUSH2 0x128A JUMP JUMPDEST PUSH2 0x41A SWAP2 SWAP1 PUSH2 0x12AC JUMP JUMPDEST PUSH2 0x425 SWAP1 PUSH1 0x1 PUSH2 0x12C5 JUMP JUMPDEST PUSH1 0x1 PUSH1 0x1 PUSH1 0xA0 SHL SUB DUP6 AND PUSH1 0x0 SWAP1 DUP2 MSTORE PUSH1 0x3 PUSH1 0x20 MSTORE PUSH1 0x40 SWAP1 KECCAK256 SWAP1 SWAP2 POP DUP2 SWAP1 PUSH1 0x1 ADD SLOAD GT PUSH2 0x464 JUMPI PUSH1 0x40 DUP1 MLOAD PUSH1 0x0 DUP2 MSTORE PUSH1 0x20 DUP2 ADD SWAP1 SWAP2 MSTORE SWAP1 SWAP5 SWAP1 SWAP4 POP SWAP2 POP POP JUMP JUMPDEST PUSH1 0x1 PUSH1 0x1 PUSH1 0xA0 SHL SUB DUP5 AND PUSH1 0x0 SWAP1 DUP2 MSTORE PUSH1 0x3 PUSH1 0x20 MSTORE PUSH1 0x40 DUP2 KECCAK256 DUP1 SLOAD PUSH1 0x1 SWAP1 SWAP2 ADD SLOAD SWAP1 SWAP2 DUP4 DUP4 GT PUSH2 0x493 JUMPI DUP4 PUSH2 0x495 JUMP JUMPDEST DUP3 JUMPDEST SWAP1 POP PUSH1 0x0 PUSH2 0x4A3 DUP3 DUP5 PUSH2 0x12AC JUMP JUMPDEST PUSH8 0xFFFFFFFFFFFFFFFF DUP2 GT ISZERO PUSH2 0x4BB JUMPI PUSH2 0x4BB PUSH2 0x108F JUMP JUMPDEST PUSH1 0x40 MLOAD SWAP1 DUP1 DUP3 MSTORE DUP1 PUSH1 0x20 MUL PUSH1 0x20 ADD DUP3 ADD PUSH1 0x40 MSTORE DUP1 ISZERO PUSH2 0x4E4 JUMPI DUP2 PUSH1 0x20 ADD PUSH1 0x20 DUP3 MUL DUP1 CALLDATASIZE DUP4 CALLDATACOPY ADD SWAP1 POP JUMPDEST POP SWAP1 POP DUP2 JUMPDEST DUP4 DUP2 LT ISZERO PUSH2 0x58F JUMPI PUSH1 0x0 DUP2 DUP2 MSTORE PUSH1 0x4 PUSH1 0x20 MSTORE PUSH1 0x40 SWAP1 KECCAK256 SLOAD ISZERO PUSH2 0x554 JUMPI PUSH1 0x0 DUP2 DUP2 MSTORE PUSH1 0x4 PUSH1 0x20 SWAP1 DUP2 MSTORE PUSH1 0x40 DUP1 DUP4 KECCAK256 SLOAD PUSH1 0x1 PUSH1 0x1 PUSH1 0xA0 SHL SUB DUP14 AND DUP5 MSTORE PUSH1 0x2 DUP4 MSTORE DUP2 DUP5 KECCAK256 DUP6 DUP6 MSTORE DUP4 MSTORE DUP2 DUP5 KECCAK256 SLOAD PUSH1 0x5 SWAP1 SWAP4 MSTORE SWAP3 KECCAK256 SLOAD PUSH2 0x545 SWAP2 SWAP1 PUSH2 0x12EE JUMP JUMPDEST PUSH2 0x54F SWAP2 SWAP1 PUSH2 0x128A JUMP JUMPDEST PUSH2 0x557 JUMP JUMPDEST PUSH1 0x0 JUMPDEST DUP3 PUSH2 0x562 DUP6 DUP5 PUSH2 0x12AC JUMP JUMPDEST DUP2 MLOAD DUP2 LT PUSH2 0x572 JUMPI PUSH2 0x572 PUSH2 0x12D8 JUMP JUMPDEST PUSH1 0x20 SWAP1 DUP2 MUL SWAP2 SWAP1 SWAP2 ADD ADD MSTORE DUP1 PUSH2 0x587 DUP2 PUSH2 0x1305 JUMP JUMPDEST SWAP2 POP POP PUSH2 0x4E9 JUMP JUMPDEST POP PUSH1 0x0 PUSH2 0x59F PUSH3 0x93A80 TIMESTAMP PUSH2 0x128A JUMP JUMPDEST PUSH2 0x5CC DUP5 PUSH1 0xFF PUSH32 0x0 AND PUSH2 0x12C5 JUMP JUMPDEST PUSH2 0x5D6 SWAP2 SWAP1 PUSH2 0x12AC JUMP JUMPDEST SWAP10 SWAP2 SWAP9 POP SWAP1 SWAP7 POP POP POP POP POP POP POP JUMP JUMPDEST PUSH1 0x0 DUP2 DUP1 TIMESTAMP GT ISZERO PUSH2 0x611 JUMPI PUSH1 0x40 MLOAD PUSH3 0x461BCD PUSH1 0xE5 SHL DUP2 MSTORE PUSH1 0x4 ADD PUSH2 0x608 SWAP1 PUSH2 0x131E JUMP JUMPDEST PUSH1 0x40 MLOAD DUP1 SWAP2 SUB SWAP1 REVERT JUMPDEST PUSH1 0x0 SLOAD PUSH1 0x1 PUSH1 0x1 PUSH1 0xA0 SHL SUB AND CALLER EQ PUSH2 0x63B JUMPI PUSH1 0x40 MLOAD PUSH3 0x461BCD PUSH1 0xE5 SHL DUP2 MSTORE PUSH1 0x4 ADD PUSH2 0x608 SWAP1 PUSH2 0x1345 JUMP JUMPDEST DUP4 MLOAD DUP6 MLOAD EQ PUSH2 0x67F JUMPI PUSH1 0x40 MLOAD PUSH3 0x461BCD PUSH1 0xE5 SHL DUP2 MSTORE PUSH1 0x20 PUSH1 0x4 DUP3 ADD MSTORE PUSH1 0x10 PUSH1 0x24 DUP3 ADD MSTORE PUSH16 0x3830B930B6B2BA32B9399032B93937B9 PUSH1 0x81 SHL PUSH1 0x44 DUP3 ADD MSTORE PUSH1 0x64 ADD PUSH2 0x608 JUMP JUMPDEST PUSH1 0x0 DUP1 JUMPDEST DUP7 MLOAD DUP2 LT ISZERO PUSH2 0x74D JUMPI DUP6 DUP2 DUP2 MLOAD DUP2 LT PUSH2 0x69E JUMPI PUSH2 0x69E PUSH2 0x12D8 JUMP JUMPDEST PUSH1 0x20 MUL PUSH1 0x20 ADD ADD MLOAD DUP5 PUSH2 0x6B1 SWAP2 SWAP1 PUSH2 0x12C5 JUMP JUMPDEST SWAP4 POP DUP6 DUP2 DUP2 MLOAD DUP2 LT PUSH2 0x6C5 JUMPI PUSH2 0x6C5 PUSH2 0x12D8 JUMP JUMPDEST PUSH1 0x20 MUL PUSH1 0x20 ADD ADD MLOAD PUSH1 0x5 PUSH1 0x0 DUP10 DUP5 DUP2 MLOAD DUP2 LT PUSH2 0x6E3 JUMPI PUSH2 0x6E3 PUSH2 0x12D8 JUMP JUMPDEST PUSH1 0x20 MUL PUSH1 0x20 ADD ADD MLOAD DUP2 MSTORE PUSH1 0x20 ADD SWAP1 DUP2 MSTORE PUSH1 0x20 ADD PUSH1 0x0 KECCAK256 DUP2 SWAP1 SSTORE POP DUP2 DUP8 DUP3 DUP2 MLOAD DUP2 LT PUSH2 0x710 JUMPI PUSH2 0x710 PUSH2 0x12D8 JUMP JUMPDEST PUSH1 0x20 MUL PUSH1 0x20 ADD ADD MLOAD GT ISZERO PUSH2 0x73B JUMPI DUP7 DUP2 DUP2 MLOAD DUP2 LT PUSH2 0x730 JUMPI PUSH2 0x730 PUSH2 0x12D8 JUMP JUMPDEST PUSH1 0x20 MUL PUSH1 0x20 ADD ADD MLOAD SWAP2 POP JUMPDEST DUP1 PUSH2 0x745 DUP2 PUSH2 0x1305 JUMP JUMPDEST SWAP2 POP POP PUSH2 0x683 JUMP JUMPDEST POP PUSH1 0x6 DUP2 SWAP1 SSTORE PUSH2 0x77F PUSH32 0x0 CALLER ADDRESS DUP7 PUSH2 0xDE3 JUMP JUMPDEST PUSH1 0x40 DUP1 MLOAD PUSH1 0x0 DUP2 MSTORE PUSH1 0x20 DUP2 ADD DUP6 SWAP1 MSTORE CALLER SWAP2 PUSH32 0xC3991418CACD70A010FCE559A44FCBB47534CA43BF7543964BDCA2639F6E6E5A SWAP2 ADD PUSH1 0x40 MLOAD DUP1 SWAP2 SUB SWAP1 LOG2 POP POP SWAP4 SWAP3 POP POP POP JUMP JUMPDEST PUSH1 0x0 SLOAD PUSH1 0x1 PUSH1 0x1 PUSH1 0xA0 SHL SUB AND CALLER EQ PUSH2 0x7EE JUMPI PUSH1 0x40 MLOAD PUSH3 0x461BCD PUSH1 0xE5 SHL DUP2 MSTORE PUSH1 0x4 ADD PUSH2 0x608 SWAP1 PUSH2 0x1345 JUMP JUMPDEST PUSH1 0x1 DUP1 SLOAD PUSH1 0x1 PUSH1 0x1 PUSH1 0xA0 SHL SUB NOT AND PUSH1 0x1 PUSH1 0x1 PUSH1 0xA0 SHL SUB SWAP3 SWAP1 SWAP3 AND SWAP2 SWAP1 SWAP2 OR SWAP1 SSTORE JUMP JUMPDEST DUP1 DUP1 TIMESTAMP GT ISZERO PUSH2 0x831 JUMPI PUSH1 0x40 MLOAD PUSH3 0x461BCD PUSH1 0xE5 SHL DUP2 MSTORE PUSH1 0x4 ADD PUSH2 0x608 SWAP1 PUSH2 0x131E JUMP JUMPDEST PUSH1 0x0 SLOAD PUSH1 0x1 PUSH1 0x1 PUSH1 0xA0 SHL SUB AND CALLER EQ PUSH2 0x85B JUMPI PUSH1 0x40 MLOAD PUSH3 0x461BCD PUSH1 0xE5 SHL DUP2 MSTORE PUSH1 0x4 ADD PUSH2 0x608 SWAP1 PUSH2 0x1345 JUMP JUMPDEST PUSH2 0x886 PUSH32 0x0 CALLER DUP6 PUSH2 0xEFD JUMP JUMPDEST POP POP POP JUMP JUMPDEST PUSH1 0x1 SLOAD PUSH1 0x1 PUSH1 0x1 PUSH1 0xA0 SHL SUB AND CALLER EQ PUSH2 0x8B5 JUMPI PUSH1 0x40 MLOAD PUSH3 0x461BCD PUSH1 0xE5 SHL DUP2 MSTORE PUSH1 0x4 ADD PUSH2 0x608 SWAP1 PUSH2 0x1345 JUMP JUMPDEST PUSH1 0x1 DUP1 SLOAD PUSH1 0x0 DUP1 SLOAD PUSH1 0x1 PUSH1 0x1 PUSH1 0xA0 SHL SUB NOT SWAP1 DUP2 AND PUSH1 0x1 PUSH1 0x1 PUSH1 0xA0 SHL SUB DUP5 AND OR SWAP1 SWAP2 SSTORE AND SWAP1 SSTORE JUMP JUMPDEST DUP1 DUP1 TIMESTAMP GT ISZERO PUSH2 0x8FD JUMPI PUSH1 0x40 MLOAD PUSH3 0x461BCD PUSH1 0xE5 SHL DUP2 MSTORE PUSH1 0x4 ADD PUSH2 0x608 SWAP1 PUSH2 0x131E JUMP JUMPDEST PUSH1 0x0 PUSH1 0xFF PUSH32 0x0 AND PUSH2 0x930 PUSH3 0x93A80 TIMESTAMP PUSH2 0x128A JUMP JUMPDEST PUSH2 0x93A SWAP2 SWAP1 PUSH2 0x12AC JUMP JUMPDEST CALLER PUSH1 0x0 SWAP1 DUP2 MSTORE PUSH1 0x3 PUSH1 0x20 MSTORE PUSH1 0x40 DUP2 KECCAK256 SLOAD SWAP2 SWAP3 POP SWAP1 DUP1 JUMPDEST CALLER PUSH1 0x0 SWAP1 DUP2 MSTORE PUSH1 0x3 PUSH1 0x20 MSTORE PUSH1 0x40 SWAP1 KECCAK256 PUSH1 0x1 ADD SLOAD DUP2 LT ISZERO PUSH2 0x9F3 JUMPI DUP4 DUP2 GT PUSH2 0x9F3 JUMPI PUSH2 0x97C DUP2 PUSH1 0x1 PUSH2 0x12C5 JUMP JUMPDEST PUSH1 0x0 DUP3 DUP2 MSTORE PUSH1 0x4 PUSH1 0x20 MSTORE PUSH1 0x40 SWAP1 KECCAK256 SLOAD SWAP1 SWAP3 POP ISZERO PUSH2 0x9E1 JUMPI PUSH1 0x0 DUP2 DUP2 MSTORE PUSH1 0x4 PUSH1 0x20 SWAP1 DUP2 MSTORE PUSH1 0x40 DUP1 DUP4 KECCAK256 SLOAD CALLER DUP5 MSTORE PUSH1 0x2 DUP4 MSTORE DUP2 DUP5 KECCAK256 DUP6 DUP6 MSTORE DUP4 MSTORE DUP2 DUP5 KECCAK256 SLOAD PUSH1 0x5 SWAP1 SWAP4 MSTORE SWAP3 KECCAK256 SLOAD PUSH2 0x9CA SWAP2 SWAP1 PUSH2 0x12EE JUMP JUMPDEST PUSH2 0x9D4 SWAP2 SWAP1 PUSH2 0x128A JUMP JUMPDEST PUSH2 0x9DE SWAP1 DUP5 PUSH2 0x12C5 JUMP JUMPDEST SWAP3 POP JUMPDEST DUP1 PUSH2 0x9EB DUP2 PUSH2 0x1305 JUMP JUMPDEST SWAP2 POP POP PUSH2 0x950 JUMP JUMPDEST POP CALLER PUSH1 0x0 SWAP1 DUP2 MSTORE PUSH1 0x3 PUSH1 0x20 MSTORE PUSH1 0x40 DUP2 KECCAK256 DUP3 SWAP2 ADD SSTORE PUSH2 0xA32 PUSH32 0x0 CALLER DUP5 PUSH2 0xEFD JUMP JUMPDEST PUSH1 0x40 MLOAD DUP3 DUP2 MSTORE CALLER SWAP1 PUSH32 0xBA8DE60C3403EC381D1D484652EA1980E3C3E56359195C92525BFF4CE47AD98E SWAP1 PUSH1 0x20 ADD PUSH1 0x40 MLOAD DUP1 SWAP2 SUB SWAP1 LOG2 POP POP POP POP POP JUMP JUMPDEST PUSH1 0x3 PUSH1 0x20 MSTORE DUP2 PUSH1 0x0 MSTORE PUSH1 0x40 PUSH1 0x0 KECCAK256 DUP2 PUSH1 0x2 DUP2 LT PUSH2 0xA8A JUMPI PUSH1 0x0 DUP1 REVERT JUMPDEST ADD SLOAD SWAP2 POP DUP3 SWAP1 POP JUMP JUMPDEST DUP1 DUP1 TIMESTAMP GT ISZERO PUSH2 0xAB4 JUMPI PUSH1 0x40 MLOAD PUSH3 0x461BCD PUSH1 0xE5 SHL DUP2 MSTORE PUSH1 0x4 ADD PUSH2 0x608 SWAP1 PUSH2 0x131E JUMP JUMPDEST PUSH1 0x0 SLOAD PUSH1 0x1 PUSH1 0x1 PUSH1 0xA0 SHL SUB AND CALLER EQ PUSH2 0xADE JUMPI PUSH1 0x40 MLOAD PUSH3 0x461BCD PUSH1 0xE5 SHL DUP2 MSTORE PUSH1 0x4 ADD PUSH2 0x608 SWAP1 PUSH2 0x1345 JUMP JUMPDEST PUSH32 0x0 TIMESTAMP GT ISZERO DUP1 ISZERO PUSH2 0xB2E JUMPI POP PUSH32 0x0 TIMESTAMP LT ISZERO JUMPDEST PUSH2 0xB6E JUMPI PUSH1 0x40 MLOAD PUSH3 0x461BCD PUSH1 0xE5 SHL DUP2 MSTORE PUSH1 0x20 PUSH1 0x4 DUP3 ADD MSTORE PUSH1 0x11 PUSH1 0x24 DUP3 ADD MSTORE PUSH17 0x1B9BDD081A5B881D1A19481C195C9A5BD9 PUSH1 0x7A SHL PUSH1 0x44 DUP3 ADD MSTORE PUSH1 0x64 ADD PUSH2 0x608 JUMP JUMPDEST PUSH2 0xB9A PUSH32 0x0 CALLER ADDRESS DUP7 PUSH2 0xDE3 JUMP JUMPDEST PUSH1 0x0 DUP5 DUP2 MSTORE PUSH1 0x5 PUSH1 0x20 MSTORE PUSH1 0x40 DUP2 KECCAK256 DUP1 SLOAD DUP6 SWAP3 SWAP1 PUSH2 0xBB8 SWAP1 DUP5 SWAP1 PUSH2 0x12C5 JUMP JUMPDEST SWAP1 SWAP2 SSTORE POP POP PUSH1 0x6 SLOAD DUP5 GT ISZERO PUSH2 0xBCD JUMPI PUSH1 0x6 DUP5 SWAP1 SSTORE JUMPDEST PUSH1 0x40 DUP1 MLOAD DUP6 DUP2 MSTORE PUSH1 0x20 DUP2 ADD DUP6 SWAP1 MSTORE CALLER SWAP2 PUSH32 0xC3991418CACD70A010FCE559A44FCBB47534CA43BF7543964BDCA2639F6E6E5A SWAP2 ADD PUSH1 0x40 MLOAD DUP1 SWAP2 SUB SWAP1 LOG2 POP POP POP POP JUMP JUMPDEST PUSH1 0x0 PUSH2 0xC3B PUSH1 0x1 PUSH32 0x0 PUSH2 0x1368 JUMP JUMPDEST PUSH1 0xFF AND PUSH1 0x1 PUSH32 0x0 PUSH1 0xFF AND PUSH1 0x1 DUP6 PUSH2 0xC71 SWAP2 SWAP1 PUSH2 0x1368 JUMP JUMPDEST PUSH1 0xFF AND PUSH2 0xC9F PUSH1 0x1 PUSH32 0x0 PUSH2 0x12AC JUMP JUMPDEST PUSH2 0xCA9 SWAP2 SWAP1 PUSH2 0x12EE JUMP JUMPDEST PUSH2 0xCB3 SWAP2 SWAP1 PUSH2 0x12C5 JUMP JUMPDEST PUSH2 0xCBD SWAP2 SWAP1 PUSH2 0x12AC JUMP JUMPDEST PUSH2 0xCC7 SWAP1 DUP6 PUSH2 0x12EE JUMP JUMPDEST PUSH2 0xCD1 SWAP2 SWAP1 PUSH2 0x128A JUMP JUMPDEST SWAP4 SWAP3 POP POP POP JUMP JUMPDEST PUSH1 0x0 DUP1 PUSH1 0xFF PUSH32 0x0 AND PUSH2 0xD0C PUSH3 0x93A80 TIMESTAMP PUSH2 0x128A JUMP JUMPDEST PUSH2 0xD16 SWAP2 SWAP1 PUSH2 0x12AC JUMP JUMPDEST PUSH1 0x1 PUSH1 0x1 PUSH1 0xA0 SHL SUB DUP5 AND PUSH1 0x0 SWAP1 DUP2 MSTORE PUSH1 0x3 PUSH1 0x20 MSTORE PUSH1 0x40 DUP2 KECCAK256 SLOAD SWAP2 SWAP3 POP SWAP1 JUMPDEST PUSH1 0x1 PUSH1 0x1 PUSH1 0xA0 SHL SUB DUP6 AND PUSH1 0x0 SWAP1 DUP2 MSTORE PUSH1 0x3 PUSH1 0x20 MSTORE PUSH1 0x40 SWAP1 KECCAK256 PUSH1 0x1 ADD SLOAD DUP2 LT ISZERO PUSH2 0xDDB JUMPI DUP3 DUP2 GT PUSH2 0xDDB JUMPI PUSH1 0x0 DUP2 DUP2 MSTORE PUSH1 0x4 PUSH1 0x20 MSTORE PUSH1 0x40 SWAP1 KECCAK256 SLOAD ISZERO PUSH2 0xDC9 JUMPI PUSH1 0x0 DUP2 DUP2 MSTORE PUSH1 0x4 PUSH1 0x20 SWAP1 DUP2 MSTORE PUSH1 0x40 DUP1 DUP4 KECCAK256 SLOAD PUSH1 0x1 PUSH1 0x1 PUSH1 0xA0 SHL SUB DUP10 AND DUP5 MSTORE PUSH1 0x2 DUP4 MSTORE DUP2 DUP5 KECCAK256 DUP6 DUP6 MSTORE DUP4 MSTORE DUP2 DUP5 KECCAK256 SLOAD PUSH1 0x5 SWAP1 SWAP4 MSTORE SWAP3 KECCAK256 SLOAD PUSH2 0xDB2 SWAP2 SWAP1 PUSH2 0x12EE JUMP JUMPDEST PUSH2 0xDBC SWAP2 SWAP1 PUSH2 0x128A JUMP JUMPDEST PUSH2 0xDC6 SWAP1 DUP4 PUSH2 0x12C5 JUMP JUMPDEST SWAP2 POP JUMPDEST DUP1 PUSH2 0xDD3 DUP2 PUSH2 0x1305 JUMP JUMPDEST SWAP2 POP POP PUSH2 0xD34 JUMP JUMPDEST POP SWAP4 SWAP3 POP POP POP JUMP JUMPDEST PUSH1 0x40 DUP1 MLOAD PUSH1 0x1 PUSH1 0x1 PUSH1 0xA0 SHL SUB DUP6 DUP2 AND PUSH1 0x24 DUP4 ADD MSTORE DUP5 DUP2 AND PUSH1 0x44 DUP4 ADD MSTORE PUSH1 0x64 DUP1 DUP4 ADD DUP6 SWAP1 MSTORE DUP4 MLOAD DUP1 DUP5 SUB SWAP1 SWAP2 ADD DUP2 MSTORE PUSH1 0x84 SWAP1 SWAP3 ADD DUP4 MSTORE PUSH1 0x20 DUP3 ADD DUP1 MLOAD PUSH1 0x1 PUSH1 0x1 PUSH1 0xE0 SHL SUB AND PUSH4 0x23B872DD PUSH1 0xE0 SHL OR SWAP1 MSTORE SWAP2 MLOAD PUSH1 0x0 SWAP3 DUP4 SWAP3 SWAP1 DUP9 AND SWAP2 PUSH2 0xE47 SWAP2 SWAP1 PUSH2 0x1381 JUMP JUMPDEST PUSH1 0x0 PUSH1 0x40 MLOAD DUP1 DUP4 SUB DUP2 PUSH1 0x0 DUP7 GAS CALL SWAP2 POP POP RETURNDATASIZE DUP1 PUSH1 0x0 DUP2 EQ PUSH2 0xE84 JUMPI PUSH1 0x40 MLOAD SWAP2 POP PUSH1 0x1F NOT PUSH1 0x3F RETURNDATASIZE ADD AND DUP3 ADD PUSH1 0x40 MSTORE RETURNDATASIZE DUP3 MSTORE RETURNDATASIZE PUSH1 0x0 PUSH1 0x20 DUP5 ADD RETURNDATACOPY PUSH2 0xE89 JUMP JUMPDEST PUSH1 0x60 SWAP2 POP JUMPDEST POP SWAP2 POP SWAP2 POP DUP2 DUP1 ISZERO PUSH2 0xEB3 JUMPI POP DUP1 MLOAD ISZERO DUP1 PUSH2 0xEB3 JUMPI POP DUP1 DUP1 PUSH1 0x20 ADD SWAP1 MLOAD DUP2 ADD SWAP1 PUSH2 0xEB3 SWAP2 SWAP1 PUSH2 0x13B0 JUMP JUMPDEST PUSH2 0xEF5 JUMPI PUSH1 0x40 MLOAD PUSH3 0x461BCD PUSH1 0xE5 SHL DUP2 MSTORE PUSH1 0x20 PUSH1 0x4 DUP3 ADD MSTORE PUSH1 0x13 PUSH1 0x24 DUP3 ADD MSTORE PUSH19 0x1D1C985B9CD9995C919C9BDB4819985A5B1959 PUSH1 0x6A SHL PUSH1 0x44 DUP3 ADD MSTORE PUSH1 0x64 ADD PUSH2 0x608 JUMP JUMPDEST POP POP POP POP POP POP JUMP JUMPDEST PUSH1 0x40 DUP1 MLOAD PUSH1 0x1 PUSH1 0x1 PUSH1 0xA0 SHL SUB DUP5 DUP2 AND PUSH1 0x24 DUP4 ADD MSTORE PUSH1 0x44 DUP1 DUP4 ADD DUP6 SWAP1 MSTORE DUP4 MLOAD DUP1 DUP5 SUB SWAP1 SWAP2 ADD DUP2 MSTORE PUSH1 0x64 SWAP1 SWAP3 ADD DUP4 MSTORE PUSH1 0x20 DUP3 ADD DUP1 MLOAD PUSH1 0x1 PUSH1 0x1 PUSH1 0xE0 SHL SUB AND PUSH4 0xA9059CBB PUSH1 0xE0 SHL OR SWAP1 MSTORE SWAP2 MLOAD PUSH1 0x0 SWAP3 DUP4 SWAP3 SWAP1 DUP8 AND SWAP2 PUSH2 0xF59 SWAP2 SWAP1 PUSH2 0x1381 JUMP JUMPDEST PUSH1 0x0 PUSH1 0x40 MLOAD DUP1 DUP4 SUB DUP2 PUSH1 0x0 DUP7 GAS CALL SWAP2 POP POP RETURNDATASIZE DUP1 PUSH1 0x0 DUP2 EQ PUSH2 0xF96 JUMPI PUSH1 0x40 MLOAD SWAP2 POP PUSH1 0x1F NOT PUSH1 0x3F RETURNDATASIZE ADD AND DUP3 ADD PUSH1 0x40 MSTORE RETURNDATASIZE DUP3 MSTORE RETURNDATASIZE PUSH1 0x0 PUSH1 0x20 DUP5 ADD RETURNDATACOPY PUSH2 0xF9B JUMP JUMPDEST PUSH1 0x60 SWAP2 POP JUMPDEST POP SWAP2 POP SWAP2 POP DUP2 DUP1 ISZERO PUSH2 0xFC5 JUMPI POP DUP1 MLOAD ISZERO DUP1 PUSH2 0xFC5 JUMPI POP DUP1 DUP1 PUSH1 0x20 ADD SWAP1 MLOAD DUP2 ADD SWAP1 PUSH2 0xFC5 SWAP2 SWAP1 PUSH2 0x13B0 JUMP JUMPDEST PUSH2 0x1003 JUMPI PUSH1 0x40 MLOAD PUSH3 0x461BCD PUSH1 0xE5 SHL DUP2 MSTORE PUSH1 0x20 PUSH1 0x4 DUP3 ADD MSTORE PUSH1 0xF PUSH1 0x24 DUP3 ADD MSTORE PUSH15 0x1514905394D1915497D19052531151 PUSH1 0x8A SHL PUSH1 0x44 DUP3 ADD MSTORE PUSH1 0x64 ADD PUSH2 0x608 JUMP JUMPDEST POP POP POP POP POP JUMP JUMPDEST DUP1 CALLDATALOAD PUSH1 0x1 PUSH1 0x1 PUSH1 0xA0 SHL SUB DUP2 AND DUP2 EQ PUSH2 0x1021 JUMPI PUSH1 0x0 DUP1 REVERT JUMPDEST SWAP2 SWAP1 POP JUMP JUMPDEST PUSH1 0x0 PUSH1 0x20 DUP3 DUP5 SUB SLT ISZERO PUSH2 0x1038 JUMPI PUSH1 0x0 DUP1 REVERT JUMPDEST PUSH2 0xCD1 DUP3 PUSH2 0x100A JUMP JUMPDEST PUSH1 0x0 PUSH1 0x40 DUP3 ADD DUP5 DUP4 MSTORE PUSH1 0x20 PUSH1 0x40 DUP2 DUP6 ADD MSTORE DUP2 DUP6 MLOAD DUP1 DUP5 MSTORE PUSH1 0x60 DUP7 ADD SWAP2 POP DUP3 DUP8 ADD SWAP4 POP PUSH1 0x0 JUMPDEST DUP2 DUP2 LT ISZERO PUSH2 0x1082 JUMPI DUP5 MLOAD DUP4 MSTORE SWAP4 DUP4 ADD SWAP4 SWAP2 DUP4 ADD SWAP2 PUSH1 0x1 ADD PUSH2 0x1066 JUMP JUMPDEST POP SWAP1 SWAP8 SWAP7 POP POP POP POP POP POP POP JUMP JUMPDEST PUSH4 0x4E487B71 PUSH1 0xE0 SHL PUSH1 0x0 MSTORE PUSH1 0x41 PUSH1 0x4 MSTORE PUSH1 0x24 PUSH1 0x0 REVERT JUMPDEST PUSH1 0x0 DUP3 PUSH1 0x1F DUP4 ADD SLT PUSH2 0x10B6 JUMPI PUSH1 0x0 DUP1 REVERT JUMPDEST DUP2 CALLDATALOAD PUSH1 0x20 PUSH8 0xFFFFFFFFFFFFFFFF DUP1 DUP4 GT ISZERO PUSH2 0x10D3 JUMPI PUSH2 0x10D3 PUSH2 0x108F JUMP JUMPDEST DUP3 PUSH1 0x5 SHL PUSH1 0x40 MLOAD PUSH1 0x1F NOT PUSH1 0x3F DUP4 ADD AND DUP2 ADD DUP2 DUP2 LT DUP5 DUP3 GT OR ISZERO PUSH2 0x10F8 JUMPI PUSH2 0x10F8 PUSH2 0x108F JUMP JUMPDEST PUSH1 0x40 MSTORE SWAP4 DUP5 MSTORE DUP6 DUP2 ADD DUP4 ADD SWAP4 DUP4 DUP2 ADD SWAP3 POP DUP8 DUP6 GT ISZERO PUSH2 0x1116 JUMPI PUSH1 0x0 DUP1 REVERT JUMPDEST DUP4 DUP8 ADD SWAP2 POP JUMPDEST DUP5 DUP3 LT ISZERO PUSH2 0x1135 JUMPI DUP2 CALLDATALOAD DUP4 MSTORE SWAP2 DUP4 ADD SWAP2 SWAP1 DUP4 ADD SWAP1 PUSH2 0x111C JUMP JUMPDEST SWAP8 SWAP7 POP POP POP POP POP POP POP JUMP JUMPDEST PUSH1 0x0 DUP1 PUSH1 0x0 PUSH1 0x60 DUP5 DUP7 SUB SLT ISZERO PUSH2 0x1155 JUMPI PUSH1 0x0 DUP1 REVERT JUMPDEST DUP4 CALLDATALOAD PUSH8 0xFFFFFFFFFFFFFFFF DUP1 DUP3 GT ISZERO PUSH2 0x116D JUMPI PUSH1 0x0 DUP1 REVERT JUMPDEST PUSH2 0x1179 DUP8 DUP4 DUP9 ADD PUSH2 0x10A5 JUMP JUMPDEST SWAP5 POP PUSH1 0x20 DUP7 ADD CALLDATALOAD SWAP2 POP DUP1 DUP3 GT ISZERO PUSH2 0x118F JUMPI PUSH1 0x0 DUP1 REVERT JUMPDEST POP PUSH2 0x119C DUP7 DUP3 DUP8 ADD PUSH2 0x10A5 JUMP JUMPDEST SWAP3 POP POP PUSH1 0x40 DUP5 ADD CALLDATALOAD SWAP1 POP SWAP3 POP SWAP3 POP SWAP3 JUMP JUMPDEST PUSH1 0x0 PUSH1 0x20 DUP3 DUP5 SUB SLT ISZERO PUSH2 0x11BF JUMPI PUSH1 0x0 DUP1 REVERT JUMPDEST POP CALLDATALOAD SWAP2 SWAP1 POP JUMP JUMPDEST PUSH1 0x0 DUP1 PUSH1 0x40 DUP4 DUP6 SUB SLT ISZERO PUSH2 0x11D9 JUMPI PUSH1 0x0 DUP1 REVERT JUMPDEST POP POP DUP1 CALLDATALOAD SWAP3 PUSH1 0x20 SWAP1 SWAP2 ADD CALLDATALOAD SWAP2 POP JUMP JUMPDEST PUSH1 0x0 DUP1 PUSH1 0x40 DUP4 DUP6 SUB SLT ISZERO PUSH2 0x11FB JUMPI PUSH1 0x0 DUP1 REVERT JUMPDEST PUSH2 0x1204 DUP4 PUSH2 0x100A JUMP JUMPDEST SWAP5 PUSH1 0x20 SWAP4 SWAP1 SWAP4 ADD CALLDATALOAD SWAP4 POP POP POP JUMP JUMPDEST PUSH1 0x0 DUP1 PUSH1 0x0 PUSH1 0x60 DUP5 DUP7 SUB SLT ISZERO PUSH2 0x1227 JUMPI PUSH1 0x0 DUP1 REVERT JUMPDEST POP POP DUP2 CALLDATALOAD SWAP4 PUSH1 0x20 DUP4 ADD CALLDATALOAD SWAP4 POP PUSH1 0x40 SWAP1 SWAP3 ADD CALLDATALOAD SWAP2 SWAP1 POP JUMP JUMPDEST PUSH1 0x0 DUP1 PUSH1 0x40 DUP4 DUP6 SUB SLT ISZERO PUSH2 0x1251 JUMPI PUSH1 0x0 DUP1 REVERT JUMPDEST DUP3 CALLDATALOAD SWAP2 POP PUSH1 0x20 DUP4 ADD CALLDATALOAD PUSH1 0xFF DUP2 AND DUP2 EQ PUSH2 0x1269 JUMPI PUSH1 0x0 DUP1 REVERT JUMPDEST DUP1 SWAP2 POP POP SWAP3 POP SWAP3 SWAP1 POP JUMP JUMPDEST PUSH4 0x4E487B71 PUSH1 0xE0 SHL PUSH1 0x0 MSTORE PUSH1 0x11 PUSH1 0x4 MSTORE PUSH1 0x24 PUSH1 0x0 REVERT JUMPDEST PUSH1 0x0 DUP3 PUSH2 0x12A7 JUMPI PUSH4 0x4E487B71 PUSH1 0xE0 SHL PUSH1 0x0 MSTORE PUSH1 0x12 PUSH1 0x4 MSTORE PUSH1 0x24 PUSH1 0x0 REVERT JUMPDEST POP DIV SWAP1 JUMP JUMPDEST DUP2 DUP2 SUB DUP2 DUP2 GT ISZERO PUSH2 0x12BF JUMPI PUSH2 0x12BF PUSH2 0x1274 JUMP JUMPDEST SWAP3 SWAP2 POP POP JUMP JUMPDEST DUP1 DUP3 ADD DUP1 DUP3 GT ISZERO PUSH2 0x12BF JUMPI PUSH2 0x12BF PUSH2 0x1274 JUMP JUMPDEST PUSH4 0x4E487B71 PUSH1 0xE0 SHL PUSH1 0x0 MSTORE PUSH1 0x32 PUSH1 0x4 MSTORE PUSH1 0x24 PUSH1 0x0 REVERT JUMPDEST DUP1 DUP3 MUL DUP2 ISZERO DUP3 DUP3 DIV DUP5 EQ OR PUSH2 0x12BF JUMPI PUSH2 0x12BF PUSH2 0x1274 JUMP JUMPDEST PUSH1 0x0 PUSH1 0x1 DUP3 ADD PUSH2 0x1317 JUMPI PUSH2 0x1317 PUSH2 0x1274 JUMP JUMPDEST POP PUSH1 0x1 ADD SWAP1 JUMP JUMPDEST PUSH1 0x20 DUP1 DUP3 MSTORE PUSH1 0xD SWAP1 DUP3 ADD MSTORE PUSH13 0x6F76657220646561646C696E65 PUSH1 0x98 SHL PUSH1 0x40 DUP3 ADD MSTORE PUSH1 0x60 ADD SWAP1 JUMP JUMPDEST PUSH1 0x20 DUP1 DUP3 MSTORE PUSH1 0x9 SWAP1 DUP3 ADD MSTORE PUSH9 0x3337B93134B23232B7 PUSH1 0xB9 SHL PUSH1 0x40 DUP3 ADD MSTORE PUSH1 0x60 ADD SWAP1 JUMP JUMPDEST PUSH1 0xFF DUP3 DUP2 AND DUP3 DUP3 AND SUB SWAP1 DUP2 GT ISZERO PUSH2 0x12BF JUMPI PUSH2 0x12BF PUSH2 0x1274 JUMP JUMPDEST PUSH1 0x0 DUP3 MLOAD PUSH1 0x0 JUMPDEST DUP2 DUP2 LT ISZERO PUSH2 0x13A2 JUMPI PUSH1 0x20 DUP2 DUP7 ADD DUP2 ADD MLOAD DUP6 DUP4 ADD MSTORE ADD PUSH2 0x1388 JUMP JUMPDEST POP PUSH1 0x0 SWAP3 ADD SWAP2 DUP3 MSTORE POP SWAP2 SWAP1 POP JUMP JUMPDEST PUSH1 0x0 PUSH1 0x20 DUP3 DUP5 SUB SLT ISZERO PUSH2 0x13C2 JUMPI PUSH1 0x0 DUP1 REVERT JUMPDEST DUP2 MLOAD DUP1 ISZERO ISZERO DUP2 EQ PUSH2 0xCD1 JUMPI PUSH1 0x0 DUP1 REVERT INVALID LOG2 PUSH5 0x6970667358 0x22 SLT KECCAK256 PUSH19 0x5C646FD7F715F1B4E78B27677B7284D2AE61D3 0x23 0xAB 0xC0 0xC CREATE 0xDA 0xE3 PUSH1 0xB8 MSIZE 0x4A DELEGATECALL PUSH5 0x736F6C6343 STOP ADDMOD GT STOP CALLER "},"methodIdentifiers":{"BEGIN_TIME()":"c75363b6","END_TIME()":"37ba682d","LOCK_WEEKNUM()":"0d437d40","MAX_SCALE()":"f6def7cf","MAX_WEEKS()":"e11400bb","WEEK_SECONDS()":"cd671a58","acceptSetter()":"5f8e422f","canClaimAmount(address)":"fa60c77c","claimReward(uint256)":"ae169a50","getScore(uint256,uint8)":"ee3453ed","latestNo()":"29ed1cfd","lockedRewardAmount(address)":"02e9e495","owner()":"8da5cb5b","rewardToken()":"f7c618c1","rewardsOf(uint256)":"0bce1284","setReward(uint256,uint256,uint256)":"e1c05d93","setRewards(uint256[],uint256[],uint256)":"07c6e2fa","totalScores(uint256)":"157775df","transferOwner(address)":"4fb2e45d","userCanClaimWeeks(address,uint256)":"bb57852d","userScores(address,uint256)":"5b680a45","withdrawRewards(uint256,uint256)":"52cb5133"}}}}}