{"contracts/stakeERC20.sol":{"StakeERC20":{"abi":[{"inputs":[{"internalType":"uint8","name":"maxWeeks","type":"uint8"},{"internalType":"uint256","name":"maxScale","type":"uint256"},{"internalType":"uint8","name":"lockWeeks","type":"uint8"},{"internalType":"uint256","name":"beginTime","type":"uint256"},{"internalType":"uint256","name":"endTime","type":"uint256"},{"internalType":"address","name":"_rewardToken","type":"address"},{"internalType":"address","name":"_lpToken","type":"address"}],"stateMutability":"nonpayable","type":"constructor"},{"anonymous":false,"inputs":[{"indexed":true,"internalType":"address","name":"user","type":"address"},{"indexed":false,"internalType":"uint256","name":"amount","type":"uint256"}],"name":"ClaimReward","type":"event"},{"anonymous":false,"inputs":[{"indexed":true,"internalType":"address","name":"user","type":"address"},{"indexed":false,"internalType":"uint256","name":"no","type":"uint256"},{"indexed":false,"internalType":"uint256","name":"amount","type":"uint256"}],"name":"SetReward","type":"event"},{"anonymous":false,"inputs":[{"indexed":true,"internalType":"address","name":"user","type":"address"},{"indexed":false,"internalType":"uint256","name":"id","type":"uint256"},{"indexed":false,"internalType":"uint256","name":"amount","type":"uint256"},{"indexed":false,"internalType":"uint8","name":"k","type":"uint8"}],"name":"Stake","type":"event"},{"anonymous":false,"inputs":[{"indexed":true,"internalType":"address","name":"user","type":"address"},{"indexed":false,"internalType":"uint256","name":"amount","type":"uint256"}],"name":"Withdraw","type":"event"},{"inputs":[],"name":"BEGIN_TIME","outputs":[{"internalType":"uint256","name":"","type":"uint256"}],"stateMutability":"view","type":"function"},{"inputs":[],"name":"END_TIME","outputs":[{"internalType":"uint256","name":"","type":"uint256"}],"stateMutability":"view","type":"function"},{"inputs":[],"name":"LOCK_WEEKNUM","outputs":[{"internalType":"uint8","name":"","type":"uint8"}],"stateMutability":"view","type":"function"},{"inputs":[],"name":"MAX_SCALE","outputs":[{"internalType":"uint256","name":"","type":"uint256"}],"stateMutability":"view","type":"function"},{"inputs":[],"name":"MAX_WEEKS","outputs":[{"internalType":"uint8","name":"","type":"uint8"}],"stateMutability":"view","type":"function"},{"inputs":[],"name":"WEEK_SECONDS","outputs":[{"internalType":"uint24","name":"","type":"uint24"}],"stateMutability":"view","type":"function"},{"inputs":[],"name":"acceptSetter","outputs":[],"stateMutability":"nonpayable","type":"function"},{"inputs":[{"internalType":"address","name":"user","type":"address"}],"name":"canClaimAmount","outputs":[{"internalType":"uint256","name":"","type":"uint256"}],"stateMutability":"view","type":"function"},{"inputs":[{"internalType":"uint256","name":"deadline","type":"uint256"}],"name":"claimReward","outputs":[],"stateMutability":"nonpayable","type":"function"},{"inputs":[{"internalType":"uint256","name":"amount","type":"uint256"},{"internalType":"uint8","name":"k","type":"uint8"}],"name":"getScore","outputs":[{"internalType":"uint256","name":"score","type":"uint256"}],"stateMutability":"view","type":"function"},{"inputs":[],"name":"getStaking","outputs":[{"components":[{"internalType":"uint256","name":"amount","type":"uint256"},{"internalType":"uint256","name":"score","type":"uint256"},{"internalType":"uint256","name":"beginNo","type":"uint256"},{"internalType":"uint256","name":"endNo","type":"uint256"}],"internalType":"struct StakeERC20.StakingERC20[]","name":"","type":"tuple[]"}],"stateMutability":"view","type":"function"},{"inputs":[],"name":"latestNo","outputs":[{"internalType":"uint256","name":"","type":"uint256"}],"stateMutability":"view","type":"function"},{"inputs":[{"internalType":"address","name":"user","type":"address"}],"name":"lockedRewardAmount","outputs":[{"internalType":"uint256","name":"","type":"uint256"},{"internalType":"uint256[]","name":"","type":"uint256[]"}],"stateMutability":"view","type":"function"},{"inputs":[],"name":"lpToken","outputs":[{"internalType":"address","name":"","type":"address"}],"stateMutability":"view","type":"function"},{"inputs":[],"name":"nonce","outputs":[{"internalType":"uint256","name":"","type":"uint256"}],"stateMutability":"view","type":"function"},{"inputs":[],"name":"owner","outputs":[{"internalType":"address","name":"","type":"address"}],"stateMutability":"view","type":"function"},{"inputs":[],"name":"rewardToken","outputs":[{"internalType":"address","name":"","type":"address"}],"stateMutability":"view","type":"function"},{"inputs":[{"internalType":"uint256","name":"","type":"uint256"}],"name":"rewardsOf","outputs":[{"internalType":"uint256","name":"","type":"uint256"}],"stateMutability":"view","type":"function"},{"inputs":[{"internalType":"uint256","name":"no","type":"uint256"},{"internalType":"uint256","name":"amount","type":"uint256"},{"internalType":"uint256","name":"deadline","type":"uint256"}],"name":"setReward","outputs":[],"stateMutability":"nonpayable","type":"function"},{"inputs":[{"internalType":"uint256[]","name":"nos","type":"uint256[]"},{"internalType":"uint256[]","name":"amounts","type":"uint256[]"},{"internalType":"uint256","name":"deadline","type":"uint256"}],"name":"setRewards","outputs":[{"internalType":"uint256","name":"total","type":"uint256"}],"stateMutability":"nonpayable","type":"function"},{"inputs":[{"internalType":"uint256","name":"amount","type":"uint256"},{"internalType":"uint8","name":"k","type":"uint8"},{"internalType":"uint256","name":"deadline","type":"uint256"}],"name":"stake","outputs":[],"stateMutability":"nonpayable","type":"function"},{"inputs":[{"internalType":"uint256","name":"","type":"uint256"}],"name":"stakingERC20s","outputs":[{"internalType":"uint256","name":"amount","type":"uint256"},{"internalType":"uint256","name":"score","type":"uint256"},{"internalType":"uint256","name":"beginNo","type":"uint256"},{"internalType":"uint256","name":"endNo","type":"uint256"}],"stateMutability":"view","type":"function"},{"inputs":[{"internalType":"uint256","name":"","type":"uint256"}],"name":"totalScores","outputs":[{"internalType":"uint256","name":"","type":"uint256"}],"stateMutability":"view","type":"function"},{"inputs":[{"internalType":"address","name":"_owner","type":"address"}],"name":"transferOwner","outputs":[],"stateMutability":"nonpayable","type":"function"},{"inputs":[{"internalType":"address","name":"","type":"address"},{"internalType":"uint256","name":"","type":"uint256"}],"name":"userCanClaimWeeks","outputs":[{"internalType":"uint256","name":"","type":"uint256"}],"stateMutability":"view","type":"function"},{"inputs":[{"internalType":"address","name":"","type":"address"},{"internalType":"uint256","name":"","type":"uint256"}],"name":"userERC20s","outputs":[{"internalType":"uint256","name":"","type":"uint256"}],"stateMutability":"view","type":"function"},{"inputs":[{"internalType":"address","name":"","type":"address"},{"internalType":"uint256","name":"","type":"uint256"}],"name":"userScores","outputs":[{"internalType":"uint256","name":"","type":"uint256"}],"stateMutability":"view","type":"function"},{"inputs":[{"internalType":"uint256","name":"deadline","type":"uint256"}],"name":"withdraw","outputs":[{"internalType":"uint256","name":"total","type":"uint256"}],"stateMutability":"nonpayable","type":"function"},{"inputs":[{"internalType":"uint256","name":"amount","type":"uint256"},{"internalType":"uint256","name":"deadline","type":"uint256"}],"name":"withdrawRewards","outputs":[],"stateMutability":"nonpayable","type":"function"}],"evm":{"bytecode":{"linkReferences":{},"object":"6101606040523480156200001257600080fd5b5060405162001f0a38038062001f0a8339810160408190526200003591620000ac565b6001600160a01b0391821660805260ff96871660a05260c0959095529490921660e0526101005261012052600080546001600160a01b03191633179055166101405262000126565b805160ff811681146200008f57600080fd5b919050565b80516001600160a01b03811681146200008f57600080fd5b600080600080600080600060e0888a031215620000c857600080fd5b620000d3886200007d565b965060208801519550620000ea604089016200007d565b945060608801519350608088015192506200010860a0890162000094565b91506200011860c0890162000094565b905092959891949750929550565b60805160a05160c05160e051610100516101205161014051611d0b620001ff6000396000818161033b01528181610ab401526112db0152600081816102b901528181610fa3015261122c01526000818161043901528181610fce0152611257015260008181610244015281816105430152818161070701528181610d9501526114f60152600081816104cb015261113e01526000818161047e015281816110da0152818161110501526111cc0152600081816104f2015281816108b801528181610bb301528181610e9e01526110360152611d0b6000f3fe608060405234801561001057600080fd5b50600436106101cf5760003560e01c80638da5cb5b11610104578063cd671a58116100a2578063f6def7cf11610071578063f6def7cf146104c6578063f7c618c1146104ed578063f99b7d7514610514578063fa60c77c1461052757600080fd5b8063cd671a581461045b578063e11400bb14610479578063e1c05d93146104a0578063ee3453ed146104b357600080fd5b8063affed0e0116100de578063affed0e014610405578063ba0865011461040e578063bb57852d14610421578063c75363b61461043457600080fd5b80638da5cb5b1461038a578063a218de151461039d578063ae169a50146103f257600080fd5b806337ba682d116101715780635b680a451161014b5780635b680a45146103035780635f8e422f1461032e5780635fcbd285146103365780637b1391a61461037557600080fd5b806337ba682d146102b45780634fb2e45d146102db57806352cb5133146102f057600080fd5b80630d437d40116101ad5780630d437d401461023f578063157775df1461027857806329ed1cfd146102985780632e1a7d4d146102a157600080fd5b806302e9e495146101d457806307c6e2fa146101fe5780630bce12841461021f575b600080fd5b6101e76101e236600461183d565b61053a565b6040516101f5929190611858565b60405180910390f35b61021161020c366004611957565b610745565b6040519081526020016101f5565b61021161022d3660046119c4565b60056020526000908152604090205481565b6102667f000000000000000000000000000000000000000000000000000000000000000081565b60405160ff90911681526020016101f5565b6102116102863660046119c4565b60046020526000908152604090205481565b61021160065481565b6102116102af3660046119c4565b610924565b6102117f000000000000000000000000000000000000000000000000000000000000000081565b6102ee6102e936600461183d565b610b17565b005b6102ee6102fe3660046119dd565b610b63565b6102116103113660046119ff565b600260209081526000928352604080842090915290825290205481565b6102ee610bde565b61035d7f000000000000000000000000000000000000000000000000000000000000000081565b6040516001600160a01b0390911681526020016101f5565b61037d610c2f565b6040516101f59190611a29565b60005461035d906001600160a01b031681565b6103d26103ab3660046119c4565b60086020526000908152604090208054600182015460028301546003909301549192909184565b6040805194855260208501939093529183015260608201526080016101f5565b6102ee6104003660046119c4565b610d6e565b61021160075481565b61021161041c3660046119ff565b610f00565b61021161042f3660046119ff565b610f31565b6102117f000000000000000000000000000000000000000000000000000000000000000081565b61046562093a8081565b60405162ffffff90911681526020016101f5565b6102667f000000000000000000000000000000000000000000000000000000000000000081565b6102ee6104ae366004611a8d565b610f56565b6102116104c1366004611aca565b6110d1565b6102117f000000000000000000000000000000000000000000000000000000000000000081565b61035d7f000000000000000000000000000000000000000000000000000000000000000081565b6102ee610522366004611af6565b61119b565b61021161053536600461183d565b6114ef565b600060608160ff7f00000000000000000000000000000000000000000000000000000000000000001661057062093a8042611b41565b61057a9190611b63565b610585906001611b7c565b6001600160a01b0385166000908152600360205260409020909150819060010154116105c4576040805160008152602081019091529094909350915050565b6001600160a01b0384166000908152600360205260408120805460019091015490918383116105f357836105f5565b825b905060006106038284611b63565b67ffffffffffffffff81111561061b5761061b6118a6565b604051908082528060200260200182016040528015610644578160200160208202803683370190505b509050815b838110156106ef57600081815260046020526040902054156106b4576000818152600460209081526040808320546001600160a01b038d1684526002835281842085855283528184205460059093529220546106a59190611ba5565b6106af9190611b41565b6106b7565b60005b826106c28584611b63565b815181106106d2576106d2611b8f565b6020908102919091010152806106e781611bbc565b915050610649565b5060006106ff62093a8042611b41565b61072c8460ff7f000000000000000000000000000000000000000000000000000000000000000016611b7c565b6107369190611b63565b99919850909650505050505050565b600081804211156107715760405162461bcd60e51b815260040161076890611bd5565b60405180910390fd5b6000546001600160a01b0316331461079b5760405162461bcd60e51b815260040161076890611bfc565b83518551146107df5760405162461bcd60e51b815260206004820152601060248201526f3830b930b6b2ba32b9399032b93937b960811b6044820152606401610768565b6000805b86518110156108ad578581815181106107fe576107fe611b8f565b6020026020010151846108119190611b7c565b935085818151811061082557610825611b8f565b60200260200101516005600089848151811061084357610843611b8f565b60200260200101518152602001908152602001600020819055508187828151811061087057610870611b8f565b6020026020010151111561089b5786818151811061089057610890611b8f565b602002602001015191505b806108a581611bbc565b9150506107e3565b5060068190556108df7f00000000000000000000000000000000000000000000000000000000000000003330866115fa565b60408051600081526020810185905233917fc3991418cacd70a010fce559a44fcbb47534ca43bf7543964bdca2639f6e6e5a910160405180910390a250509392505050565b600081804211156109475760405162461bcd60e51b815260040161076890611bd5565b600061095662093a8042611b41565b336000908152600960205260409020549091505b3360009081526009602052604090205415610aa9578061098981611c1f565b336000908152600960205260408120805492945090925090839081106109b1576109b1611b8f565b9060005260206000200154905082600860008381526020019081526020016000206003015411610a95576000818152600860205260409020546109f49086611b7c565b336000908152600960205260409020805491965090610a1590600190611b63565b81548110610a2557610a25611b8f565b600091825260208083209091015433835260099091526040909120805484908110610a5257610a52611b8f565b6000918252602080832090910192909255338152600990915260409020805480610a7e57610a7e611c36565b600190038181906000526020600020016000905590555b81600003610aa35750610aa9565b5061096a565b8315610ada57610ada7f00000000000000000000000000000000000000000000000000000000000000003386611714565b60405184815233907f884edad9ce6fa2440d8a54cc123490eb96d2768479d49ff9c7366125a94243649060200160405180910390a2505050919050565b6000546001600160a01b03163314610b415760405162461bcd60e51b815260040161076890611bfc565b600180546001600160a01b0319166001600160a01b0392909216919091179055565b8080421115610b845760405162461bcd60e51b815260040161076890611bd5565b6000546001600160a01b03163314610bae5760405162461bcd60e51b815260040161076890611bfc565b610bd97f00000000000000000000000000000000000000000000000000000000000000003385611714565b505050565b6001546001600160a01b03163314610c085760405162461bcd60e51b815260040161076890611bfc565b60018054600080546001600160a01b03199081166001600160a01b03841617909155169055565b336000908152600960205260408120546060918167ffffffffffffffff811115610c5b57610c5b6118a6565b604051908082528060200260200182016040528015610cb757816020015b610ca46040518060800160405280600081526020016000815260200160008152602001600081525090565b815260200190600190039081610c795790505b50905060005b82811015610d67573360009081526009602052604081208054600892919084908110610ceb57610ceb611b8f565b90600052602060002001548152602001908152602001600020604051806080016040529081600082015481526020016001820154815260200160028201548152602001600382015481525050828281518110610d4957610d49611b8f565b60200260200101819052508080610d5f90611bbc565b915050610cbd565b5092915050565b8080421115610d8f5760405162461bcd60e51b815260040161076890611bd5565b600060ff7f000000000000000000000000000000000000000000000000000000000000000016610dc262093a8042611b41565b610dcc9190611b63565b3360009081526003602052604081205491925090805b33600090815260036020526040902060010154811015610e8557838111610e8557610e0e816001611b7c565b60008281526004602052604090205490925015610e7357600081815260046020908152604080832054338452600283528184208585528352818420546005909352922054610e5c9190611ba5565b610e669190611b41565b610e709084611b7c565b92505b80610e7d81611bbc565b915050610de2565b5033600090815260036020526040812082910155610ec47f00000000000000000000000000000000000000000000000000000000000000003384611714565b60405182815233907fba8de60c3403ec381d1d484652ea1980e3c3e56359195c92525bff4ce47ad98e9060200160405180910390a25050505050565b60096020528160005260406000208181548110610f1c57600080fd5b90600052602060002001600091509150505481565b60036020528160005260406000208160028110610f4d57600080fd5b01549150829050565b8080421115610f775760405162461bcd60e51b815260040161076890611bd5565b6000546001600160a01b03163314610fa15760405162461bcd60e51b815260040161076890611bfc565b7f00000000000000000000000000000000000000000000000000000000000000004211158015610ff157507f00000000000000000000000000000000000000000000000000000000000000004210155b6110315760405162461bcd60e51b81526020600482015260116024820152701b9bdd081a5b881d1a19481c195c9a5bd9607a1b6044820152606401610768565b61105d7f00000000000000000000000000000000000000000000000000000000000000003330866115fa565b6000848152600560205260408120805485929061107b908490611b7c565b90915550506006548411156110905760068490555b604080518581526020810185905233917fc3991418cacd70a010fce559a44fcbb47534ca43bf7543964bdca2639f6e6e5a910160405180910390a250505050565b60006110fe60017f0000000000000000000000000000000000000000000000000000000000000000611c4c565b60ff1660017f000000000000000000000000000000000000000000000000000000000000000060ff166001856111349190611c4c565b60ff1661116260017f0000000000000000000000000000000000000000000000000000000000000000611b63565b61116c9190611ba5565b6111769190611b7c565b6111809190611b63565b61118a9085611ba5565b6111949190611b41565b9392505050565b80804211156111bc5760405162461bcd60e51b815260040161076890611bd5565b60008360ff161180156111f557507f000000000000000000000000000000000000000000000000000000000000000060ff168360ff1611155b61122a5760405162461bcd60e51b8152602060048201526006602482015265359018bf1a9960d11b6044820152606401610768565b7f0000000000000000000000000000000000000000000000000000000000000000421115801561127a57507f00000000000000000000000000000000000000000000000000000000000000004210155b6112ba5760405162461bcd60e51b81526020600482015260116024820152701b9bdd081a5b881d1a19481c195c9a5bd9607a1b6044820152606401610768565b60006112c962093a8042611b41565b6112d4906001611b7c565b90506113027f00000000000000000000000000000000000000000000000000000000000000003330886115fa565b600061130e86866110d1565b905060005b8560ff168160ff1610156113a857816004600061133360ff851687611b7c565b815260200190815260200160002060008282546113509190611b7c565b9091555050336000908152600260205260408120839161137360ff851687611b7c565b815260200190815260200160002060008282546113909190611b7c565b909155508190506113a081611c65565b915050611313565b5060006113b860ff871684611b7c565b60408051608081018252898152602080820186815282840188815260608401868152600754600090815260088552868120955186559251600180870191909155915160028601555160039485015533825292909152919091209081015490549192509003611433573360009081526003602052604090208390555b3360009081526003602052604090208190600101541015611464573360009081526003602052604090208190600101555b3360008181526009602090815260408083206007805482546001810184559286529484902090910193909355915482519081529081018a905260ff89168183015290517f6fa2f6021ee337436cdf2b2570285886da18bc06402ce284d296504a0fe8f8759181900360600190a2600780549060006114e183611bbc565b919050555050505050505050565b60008060ff7f00000000000000000000000000000000000000000000000000000000000000001661152362093a8042611b41565b61152d9190611b63565b6001600160a01b038416600090815260036020526040812054919250905b6001600160a01b0385166000908152600360205260409020600101548110156115f2578281116115f257600081815260046020526040902054156115e0576000818152600460209081526040808320546001600160a01b03891684526002835281842085855283528184205460059093529220546115c99190611ba5565b6115d39190611b41565b6115dd9083611b7c565b91505b806115ea81611bbc565b91505061154b565b509392505050565b604080516001600160a01b0385811660248301528481166044830152606480830185905283518084039091018152608490920183526020820180516001600160e01b03166323b872dd60e01b179052915160009283929088169161165e9190611c84565b6000604051808303816000865af19150503d806000811461169b576040519150601f19603f3d011682016040523d82523d6000602084013e6116a0565b606091505b50915091508180156116ca5750805115806116ca5750808060200190518101906116ca9190611cb3565b61170c5760405162461bcd60e51b81526020600482015260136024820152721d1c985b9cd9995c919c9bdb4819985a5b1959606a1b6044820152606401610768565b505050505050565b604080516001600160a01b038481166024830152604480830185905283518084039091018152606490920183526020820180516001600160e01b031663a9059cbb60e01b17905291516000928392908716916117709190611c84565b6000604051808303816000865af19150503d80600081146117ad576040519150601f19603f3d011682016040523d82523d6000602084013e6117b2565b606091505b50915091508180156117dc5750805115806117dc5750808060200190518101906117dc9190611cb3565b61181a5760405162461bcd60e51b815260206004820152600f60248201526e1514905394d1915497d19052531151608a1b6044820152606401610768565b5050505050565b80356001600160a01b038116811461183857600080fd5b919050565b60006020828403121561184f57600080fd5b61119482611821565b6000604082018483526020604081850152818551808452606086019150828701935060005b818110156118995784518352938301939183019160010161187d565b5090979650505050505050565b634e487b7160e01b600052604160045260246000fd5b600082601f8301126118cd57600080fd5b8135602067ffffffffffffffff808311156118ea576118ea6118a6565b8260051b604051601f19603f8301168101818110848211171561190f5761190f6118a6565b60405293845285810183019383810192508785111561192d57600080fd5b83870191505b8482101561194c57813583529183019190830190611933565b979650505050505050565b60008060006060848603121561196c57600080fd5b833567ffffffffffffffff8082111561198457600080fd5b611990878388016118bc565b945060208601359150808211156119a657600080fd5b506119b3868287016118bc565b925050604084013590509250925092565b6000602082840312156119d657600080fd5b5035919050565b600080604083850312156119f057600080fd5b50508035926020909101359150565b60008060408385031215611a1257600080fd5b611a1b83611821565b946020939093013593505050565b602080825282518282018190526000919060409081850190868401855b82811015611a8057815180518552868101518786015285810151868601526060908101519085015260809093019290850190600101611a46565b5091979650505050505050565b600080600060608486031215611aa257600080fd5b505081359360208301359350604090920135919050565b803560ff8116811461183857600080fd5b60008060408385031215611add57600080fd5b82359150611aed60208401611ab9565b90509250929050565b600080600060608486031215611b0b57600080fd5b83359250611b1b60208501611ab9565b9150604084013590509250925092565b634e487b7160e01b600052601160045260246000fd5b600082611b5e57634e487b7160e01b600052601260045260246000fd5b500490565b81810381811115611b7657611b76611b2b565b92915050565b80820180821115611b7657611b76611b2b565b634e487b7160e01b600052603260045260246000fd5b8082028115828204841417611b7657611b76611b2b565b600060018201611bce57611bce611b2b565b5060010190565b6020808252600d908201526c6f76657220646561646c696e6560981b604082015260600190565b6020808252600990820152683337b93134b23232b760b91b604082015260600190565b600081611c2e57611c2e611b2b565b506000190190565b634e487b7160e01b600052603160045260246000fd5b60ff8281168282160390811115611b7657611b76611b2b565b600060ff821660ff8103611c7b57611c7b611b2b565b60010192915050565b6000825160005b81811015611ca55760208186018101518583015201611c8b565b506000920191825250919050565b600060208284031215611cc557600080fd5b8151801515811461119457600080fdfea2646970667358221220dcd93bbba11156bb514625c8722e045ee277e9a7b9eafd6aa1b7df9c5d2f8f3964736f6c63430008110033","opcodes":"PUSH2 0x160 PUSH1 0x40 MSTORE CALLVALUE DUP1 ISZERO PUSH3 0x12 JUMPI PUSH1 0x0 DUP1 REVERT JUMPDEST POP PUSH1 0x40 MLOAD PUSH3 0x1F0A CODESIZE SUB DUP1 PUSH3 0x1F0A DUP4 CODECOPY DUP2 ADD PUSH1 0x40 DUP2 SWAP1 MSTORE PUSH3 0x35 SWAP2 PUSH3 0xAC JUMP JUMPDEST PUSH1 0x1 PUSH1 0x1 PUSH1 0xA0 SHL SUB SWAP2 DUP3 AND PUSH1 0x80 MSTORE PUSH1 0xFF SWAP7 DUP8 AND PUSH1 0xA0 MSTORE PUSH1 0xC0 SWAP6 SWAP1 SWAP6 MSTORE SWAP5 SWAP1 SWAP3 AND PUSH1 0xE0 MSTORE PUSH2 0x100 MSTORE PUSH2 0x120 MSTORE PUSH1 0x0 DUP1 SLOAD PUSH1 0x1 PUSH1 0x1 PUSH1 0xA0 SHL SUB NOT AND CALLER OR SWAP1 SSTORE AND PUSH2 0x140 MSTORE PUSH3 0x126 JUMP JUMPDEST DUP1 MLOAD PUSH1 0xFF DUP2 AND DUP2 EQ PUSH3 0x8F JUMPI PUSH1 0x0 DUP1 REVERT JUMPDEST SWAP2 SWAP1 POP JUMP JUMPDEST DUP1 MLOAD PUSH1 0x1 PUSH1 0x1 PUSH1 0xA0 SHL SUB DUP2 AND DUP2 EQ PUSH3 0x8F JUMPI PUSH1 0x0 DUP1 REVERT JUMPDEST PUSH1 0x0 DUP1 PUSH1 0x0 DUP1 PUSH1 0x0 DUP1 PUSH1 0x0 PUSH1 0xE0 DUP9 DUP11 SUB SLT ISZERO PUSH3 0xC8 JUMPI PUSH1 0x0 DUP1 REVERT JUMPDEST PUSH3 0xD3 DUP9 PUSH3 0x7D JUMP JUMPDEST SWAP7 POP PUSH1 0x20 DUP9 ADD MLOAD SWAP6 POP PUSH3 0xEA PUSH1 0x40 DUP10 ADD PUSH3 0x7D JUMP JUMPDEST SWAP5 POP PUSH1 0x60 DUP9 ADD MLOAD SWAP4 POP PUSH1 0x80 DUP9 ADD MLOAD SWAP3 POP PUSH3 0x108 PUSH1 0xA0 DUP10 ADD PUSH3 0x94 JUMP JUMPDEST SWAP2 POP PUSH3 0x118 PUSH1 0xC0 DUP10 ADD PUSH3 0x94 JUMP JUMPDEST SWAP1 POP SWAP3 SWAP6 SWAP9 SWAP2 SWAP5 SWAP8 POP SWAP3 SWAP6 POP JUMP JUMPDEST PUSH1 0x80 MLOAD PUSH1 0xA0 MLOAD PUSH1 0xC0 MLOAD PUSH1 0xE0 MLOAD PUSH2 0x100 MLOAD PUSH2 0x120 MLOAD PUSH2 0x140 MLOAD PUSH2 0x1D0B PUSH3 0x1FF PUSH1 0x0 CODECOPY PUSH1 0x0 DUP2 DUP2 PUSH2 0x33B ADD MSTORE DUP2 DUP2 PUSH2 0xAB4 ADD MSTORE PUSH2 0x12DB ADD MSTORE PUSH1 0x0 DUP2 DUP2 PUSH2 0x2B9 ADD MSTORE DUP2 DUP2 PUSH2 0xFA3 ADD MSTORE PUSH2 0x122C ADD MSTORE PUSH1 0x0 DUP2 DUP2 PUSH2 0x439 ADD MSTORE DUP2 DUP2 PUSH2 0xFCE ADD MSTORE PUSH2 0x1257 ADD MSTORE PUSH1 0x0 DUP2 DUP2 PUSH2 0x244 ADD MSTORE DUP2 DUP2 PUSH2 0x543 ADD MSTORE DUP2 DUP2 PUSH2 0x707 ADD MSTORE DUP2 DUP2 PUSH2 0xD95 ADD MSTORE PUSH2 0x14F6 ADD MSTORE PUSH1 0x0 DUP2 DUP2 PUSH2 0x4CB ADD MSTORE PUSH2 0x113E ADD MSTORE PUSH1 0x0 DUP2 DUP2 PUSH2 0x47E ADD MSTORE DUP2 DUP2 PUSH2 0x10DA ADD MSTORE DUP2 DUP2 PUSH2 0x1105 ADD MSTORE PUSH2 0x11CC ADD MSTORE PUSH1 0x0 DUP2 DUP2 PUSH2 0x4F2 ADD MSTORE DUP2 DUP2 PUSH2 0x8B8 ADD MSTORE DUP2 DUP2 PUSH2 0xBB3 ADD MSTORE DUP2 DUP2 PUSH2 0xE9E ADD MSTORE PUSH2 0x1036 ADD MSTORE PUSH2 0x1D0B PUSH1 0x0 RETURN INVALID PUSH1 0x80 PUSH1 0x40 MSTORE CALLVALUE DUP1 ISZERO PUSH2 0x10 JUMPI PUSH1 0x0 DUP1 REVERT JUMPDEST POP PUSH1 0x4 CALLDATASIZE LT PUSH2 0x1CF JUMPI PUSH1 0x0 CALLDATALOAD PUSH1 0xE0 SHR DUP1 PUSH4 0x8DA5CB5B GT PUSH2 0x104 JUMPI DUP1 PUSH4 0xCD671A58 GT PUSH2 0xA2 JUMPI DUP1 PUSH4 0xF6DEF7CF GT PUSH2 0x71 JUMPI DUP1 PUSH4 0xF6DEF7CF EQ PUSH2 0x4C6 JUMPI DUP1 PUSH4 0xF7C618C1 EQ PUSH2 0x4ED JUMPI DUP1 PUSH4 0xF99B7D75 EQ PUSH2 0x514 JUMPI DUP1 PUSH4 0xFA60C77C EQ PUSH2 0x527 JUMPI PUSH1 0x0 DUP1 REVERT JUMPDEST DUP1 PUSH4 0xCD671A58 EQ PUSH2 0x45B JUMPI DUP1 PUSH4 0xE11400BB EQ PUSH2 0x479 JUMPI DUP1 PUSH4 0xE1C05D93 EQ PUSH2 0x4A0 JUMPI DUP1 PUSH4 0xEE3453ED EQ PUSH2 0x4B3 JUMPI PUSH1 0x0 DUP1 REVERT JUMPDEST DUP1 PUSH4 0xAFFED0E0 GT PUSH2 0xDE JUMPI DUP1 PUSH4 0xAFFED0E0 EQ PUSH2 0x405 JUMPI DUP1 PUSH4 0xBA086501 EQ PUSH2 0x40E JUMPI DUP1 PUSH4 0xBB57852D EQ PUSH2 0x421 JUMPI DUP1 PUSH4 0xC75363B6 EQ PUSH2 0x434 JUMPI PUSH1 0x0 DUP1 REVERT JUMPDEST DUP1 PUSH4 0x8DA5CB5B EQ PUSH2 0x38A JUMPI DUP1 PUSH4 0xA218DE15 EQ PUSH2 0x39D JUMPI DUP1 PUSH4 0xAE169A50 EQ PUSH2 0x3F2 JUMPI PUSH1 0x0 DUP1 REVERT JUMPDEST DUP1 PUSH4 0x37BA682D GT PUSH2 0x171 JUMPI DUP1 PUSH4 0x5B680A45 GT PUSH2 0x14B JUMPI DUP1 PUSH4 0x5B680A45 EQ PUSH2 0x303 JUMPI DUP1 PUSH4 0x5F8E422F EQ PUSH2 0x32E JUMPI DUP1 PUSH4 0x5FCBD285 EQ PUSH2 0x336 JUMPI DUP1 PUSH4 0x7B1391A6 EQ PUSH2 0x375 JUMPI PUSH1 0x0 DUP1 REVERT JUMPDEST DUP1 PUSH4 0x37BA682D EQ PUSH2 0x2B4 JUMPI DUP1 PUSH4 0x4FB2E45D EQ PUSH2 0x2DB JUMPI DUP1 PUSH4 0x52CB5133 EQ PUSH2 0x2F0 JUMPI PUSH1 0x0 DUP1 REVERT JUMPDEST DUP1 PUSH4 0xD437D40 GT PUSH2 0x1AD JUMPI DUP1 PUSH4 0xD437D40 EQ PUSH2 0x23F JUMPI DUP1 PUSH4 0x157775DF EQ PUSH2 0x278 JUMPI DUP1 PUSH4 0x29ED1CFD EQ PUSH2 0x298 JUMPI DUP1 PUSH4 0x2E1A7D4D EQ PUSH2 0x2A1 JUMPI PUSH1 0x0 DUP1 REVERT JUMPDEST DUP1 PUSH4 0x2E9E495 EQ PUSH2 0x1D4 JUMPI DUP1 PUSH4 0x7C6E2FA EQ PUSH2 0x1FE JUMPI DUP1 PUSH4 0xBCE1284 EQ PUSH2 0x21F JUMPI JUMPDEST PUSH1 0x0 DUP1 REVERT JUMPDEST PUSH2 0x1E7 PUSH2 0x1E2 CALLDATASIZE PUSH1 0x4 PUSH2 0x183D JUMP JUMPDEST PUSH2 0x53A JUMP JUMPDEST PUSH1 0x40 MLOAD PUSH2 0x1F5 SWAP3 SWAP2 SWAP1 PUSH2 0x1858 JUMP JUMPDEST PUSH1 0x40 MLOAD DUP1 SWAP2 SUB SWAP1 RETURN JUMPDEST PUSH2 0x211 PUSH2 0x20C CALLDATASIZE PUSH1 0x4 PUSH2 0x1957 JUMP JUMPDEST PUSH2 0x745 JUMP JUMPDEST PUSH1 0x40 MLOAD SWAP1 DUP2 MSTORE PUSH1 0x20 ADD PUSH2 0x1F5 JUMP JUMPDEST PUSH2 0x211 PUSH2 0x22D CALLDATASIZE PUSH1 0x4 PUSH2 0x19C4 JUMP JUMPDEST PUSH1 0x5 PUSH1 0x20 MSTORE PUSH1 0x0 SWAP1 DUP2 MSTORE PUSH1 0x40 SWAP1 KECCAK256 SLOAD DUP2 JUMP JUMPDEST PUSH2 0x266 PUSH32 0x0 DUP2 JUMP JUMPDEST PUSH1 0x40 MLOAD PUSH1 0xFF SWAP1 SWAP2 AND DUP2 MSTORE PUSH1 0x20 ADD PUSH2 0x1F5 JUMP JUMPDEST PUSH2 0x211 PUSH2 0x286 CALLDATASIZE PUSH1 0x4 PUSH2 0x19C4 JUMP JUMPDEST PUSH1 0x4 PUSH1 0x20 MSTORE PUSH1 0x0 SWAP1 DUP2 MSTORE PUSH1 0x40 SWAP1 KECCAK256 SLOAD DUP2 JUMP JUMPDEST PUSH2 0x211 PUSH1 0x6 SLOAD DUP2 JUMP JUMPDEST PUSH2 0x211 PUSH2 0x2AF CALLDATASIZE PUSH1 0x4 PUSH2 0x19C4 JUMP JUMPDEST PUSH2 0x924 JUMP JUMPDEST PUSH2 0x211 PUSH32 0x0 DUP2 JUMP JUMPDEST PUSH2 0x2EE PUSH2 0x2E9 CALLDATASIZE PUSH1 0x4 PUSH2 0x183D JUMP JUMPDEST PUSH2 0xB17 JUMP JUMPDEST STOP JUMPDEST PUSH2 0x2EE PUSH2 0x2FE CALLDATASIZE PUSH1 0x4 PUSH2 0x19DD JUMP JUMPDEST PUSH2 0xB63 JUMP JUMPDEST PUSH2 0x211 PUSH2 0x311 CALLDATASIZE PUSH1 0x4 PUSH2 0x19FF JUMP JUMPDEST PUSH1 0x2 PUSH1 0x20 SWAP1 DUP2 MSTORE PUSH1 0x0 SWAP3 DUP4 MSTORE PUSH1 0x40 DUP1 DUP5 KECCAK256 SWAP1 SWAP2 MSTORE SWAP1 DUP3 MSTORE SWAP1 KECCAK256 SLOAD DUP2 JUMP JUMPDEST PUSH2 0x2EE PUSH2 0xBDE JUMP JUMPDEST PUSH2 0x35D PUSH32 0x0 DUP2 JUMP JUMPDEST PUSH1 0x40 MLOAD PUSH1 0x1 PUSH1 0x1 PUSH1 0xA0 SHL SUB SWAP1 SWAP2 AND DUP2 MSTORE PUSH1 0x20 ADD PUSH2 0x1F5 JUMP JUMPDEST PUSH2 0x37D PUSH2 0xC2F JUMP JUMPDEST PUSH1 0x40 MLOAD PUSH2 0x1F5 SWAP2 SWAP1 PUSH2 0x1A29 JUMP JUMPDEST PUSH1 0x0 SLOAD PUSH2 0x35D SWAP1 PUSH1 0x1 PUSH1 0x1 PUSH1 0xA0 SHL SUB AND DUP2 JUMP JUMPDEST PUSH2 0x3D2 PUSH2 0x3AB CALLDATASIZE PUSH1 0x4 PUSH2 0x19C4 JUMP JUMPDEST PUSH1 0x8 PUSH1 0x20 MSTORE PUSH1 0x0 SWAP1 DUP2 MSTORE PUSH1 0x40 SWAP1 KECCAK256 DUP1 SLOAD PUSH1 0x1 DUP3 ADD SLOAD PUSH1 0x2 DUP4 ADD SLOAD PUSH1 0x3 SWAP1 SWAP4 ADD SLOAD SWAP2 SWAP3 SWAP1 SWAP2 DUP5 JUMP JUMPDEST PUSH1 0x40 DUP1 MLOAD SWAP5 DUP6 MSTORE PUSH1 0x20 DUP6 ADD SWAP4 SWAP1 SWAP4 MSTORE SWAP2 DUP4 ADD MSTORE PUSH1 0x60 DUP3 ADD MSTORE PUSH1 0x80 ADD PUSH2 0x1F5 JUMP JUMPDEST PUSH2 0x2EE PUSH2 0x400 CALLDATASIZE PUSH1 0x4 PUSH2 0x19C4 JUMP JUMPDEST PUSH2 0xD6E JUMP JUMPDEST PUSH2 0x211 PUSH1 0x7 SLOAD DUP2 JUMP JUMPDEST PUSH2 0x211 PUSH2 0x41C CALLDATASIZE PUSH1 0x4 PUSH2 0x19FF JUMP JUMPDEST PUSH2 0xF00 JUMP JUMPDEST PUSH2 0x211 PUSH2 0x42F CALLDATASIZE PUSH1 0x4 PUSH2 0x19FF JUMP JUMPDEST PUSH2 0xF31 JUMP JUMPDEST PUSH2 0x211 PUSH32 0x0 DUP2 JUMP JUMPDEST PUSH2 0x465 PUSH3 0x93A80 DUP2 JUMP JUMPDEST PUSH1 0x40 MLOAD PUSH3 0xFFFFFF SWAP1 SWAP2 AND DUP2 MSTORE PUSH1 0x20 ADD PUSH2 0x1F5 JUMP JUMPDEST PUSH2 0x266 PUSH32 0x0 DUP2 JUMP JUMPDEST PUSH2 0x2EE PUSH2 0x4AE CALLDATASIZE PUSH1 0x4 PUSH2 0x1A8D JUMP JUMPDEST PUSH2 0xF56 JUMP JUMPDEST PUSH2 0x211 PUSH2 0x4C1 CALLDATASIZE PUSH1 0x4 PUSH2 0x1ACA JUMP JUMPDEST PUSH2 0x10D1 JUMP JUMPDEST PUSH2 0x211 PUSH32 0x0 DUP2 JUMP JUMPDEST PUSH2 0x35D PUSH32 0x0 DUP2 JUMP JUMPDEST PUSH2 0x2EE PUSH2 0x522 CALLDATASIZE PUSH1 0x4 PUSH2 0x1AF6 JUMP JUMPDEST PUSH2 0x119B JUMP JUMPDEST PUSH2 0x211 PUSH2 0x535 CALLDATASIZE PUSH1 0x4 PUSH2 0x183D JUMP JUMPDEST PUSH2 0x14EF JUMP JUMPDEST PUSH1 0x0 PUSH1 0x60 DUP2 PUSH1 0xFF PUSH32 0x0 AND PUSH2 0x570 PUSH3 0x93A80 TIMESTAMP PUSH2 0x1B41 JUMP JUMPDEST PUSH2 0x57A SWAP2 SWAP1 PUSH2 0x1B63 JUMP JUMPDEST PUSH2 0x585 SWAP1 PUSH1 0x1 PUSH2 0x1B7C JUMP JUMPDEST PUSH1 0x1 PUSH1 0x1 PUSH1 0xA0 SHL SUB DUP6 AND PUSH1 0x0 SWAP1 DUP2 MSTORE PUSH1 0x3 PUSH1 0x20 MSTORE PUSH1 0x40 SWAP1 KECCAK256 SWAP1 SWAP2 POP DUP2 SWAP1 PUSH1 0x1 ADD SLOAD GT PUSH2 0x5C4 JUMPI PUSH1 0x40 DUP1 MLOAD PUSH1 0x0 DUP2 MSTORE PUSH1 0x20 DUP2 ADD SWAP1 SWAP2 MSTORE SWAP1 SWAP5 SWAP1 SWAP4 POP SWAP2 POP POP JUMP JUMPDEST PUSH1 0x1 PUSH1 0x1 PUSH1 0xA0 SHL SUB DUP5 AND PUSH1 0x0 SWAP1 DUP2 MSTORE PUSH1 0x3 PUSH1 0x20 MSTORE PUSH1 0x40 DUP2 KECCAK256 DUP1 SLOAD PUSH1 0x1 SWAP1 SWAP2 ADD SLOAD SWAP1 SWAP2 DUP4 DUP4 GT PUSH2 0x5F3 JUMPI DUP4 PUSH2 0x5F5 JUMP JUMPDEST DUP3 JUMPDEST SWAP1 POP PUSH1 0x0 PUSH2 0x603 DUP3 DUP5 PUSH2 0x1B63 JUMP JUMPDEST PUSH8 0xFFFFFFFFFFFFFFFF DUP2 GT ISZERO PUSH2 0x61B JUMPI PUSH2 0x61B PUSH2 0x18A6 JUMP JUMPDEST PUSH1 0x40 MLOAD SWAP1 DUP1 DUP3 MSTORE DUP1 PUSH1 0x20 MUL PUSH1 0x20 ADD DUP3 ADD PUSH1 0x40 MSTORE DUP1 ISZERO PUSH2 0x644 JUMPI DUP2 PUSH1 0x20 ADD PUSH1 0x20 DUP3 MUL DUP1 CALLDATASIZE DUP4 CALLDATACOPY ADD SWAP1 POP JUMPDEST POP SWAP1 POP DUP2 JUMPDEST DUP4 DUP2 LT ISZERO PUSH2 0x6EF JUMPI PUSH1 0x0 DUP2 DUP2 MSTORE PUSH1 0x4 PUSH1 0x20 MSTORE PUSH1 0x40 SWAP1 KECCAK256 SLOAD ISZERO PUSH2 0x6B4 JUMPI PUSH1 0x0 DUP2 DUP2 MSTORE PUSH1 0x4 PUSH1 0x20 SWAP1 DUP2 MSTORE PUSH1 0x40 DUP1 DUP4 KECCAK256 SLOAD PUSH1 0x1 PUSH1 0x1 PUSH1 0xA0 SHL SUB DUP14 AND DUP5 MSTORE PUSH1 0x2 DUP4 MSTORE DUP2 DUP5 KECCAK256 DUP6 DUP6 MSTORE DUP4 MSTORE DUP2 DUP5 KECCAK256 SLOAD PUSH1 0x5 SWAP1 SWAP4 MSTORE SWAP3 KECCAK256 SLOAD PUSH2 0x6A5 SWAP2 SWAP1 PUSH2 0x1BA5 JUMP JUMPDEST PUSH2 0x6AF SWAP2 SWAP1 PUSH2 0x1B41 JUMP JUMPDEST PUSH2 0x6B7 JUMP JUMPDEST PUSH1 0x0 JUMPDEST DUP3 PUSH2 0x6C2 DUP6 DUP5 PUSH2 0x1B63 JUMP JUMPDEST DUP2 MLOAD DUP2 LT PUSH2 0x6D2 JUMPI PUSH2 0x6D2 PUSH2 0x1B8F JUMP JUMPDEST PUSH1 0x20 SWAP1 DUP2 MUL SWAP2 SWAP1 SWAP2 ADD ADD MSTORE DUP1 PUSH2 0x6E7 DUP2 PUSH2 0x1BBC JUMP JUMPDEST SWAP2 POP POP PUSH2 0x649 JUMP JUMPDEST POP PUSH1 0x0 PUSH2 0x6FF PUSH3 0x93A80 TIMESTAMP PUSH2 0x1B41 JUMP JUMPDEST PUSH2 0x72C DUP5 PUSH1 0xFF PUSH32 0x0 AND PUSH2 0x1B7C JUMP JUMPDEST PUSH2 0x736 SWAP2 SWAP1 PUSH2 0x1B63 JUMP JUMPDEST SWAP10 SWAP2 SWAP9 POP SWAP1 SWAP7 POP POP POP POP POP POP POP JUMP JUMPDEST PUSH1 0x0 DUP2 DUP1 TIMESTAMP GT ISZERO PUSH2 0x771 JUMPI PUSH1 0x40 MLOAD PUSH3 0x461BCD PUSH1 0xE5 SHL DUP2 MSTORE PUSH1 0x4 ADD PUSH2 0x768 SWAP1 PUSH2 0x1BD5 JUMP JUMPDEST PUSH1 0x40 MLOAD DUP1 SWAP2 SUB SWAP1 REVERT JUMPDEST PUSH1 0x0 SLOAD PUSH1 0x1 PUSH1 0x1 PUSH1 0xA0 SHL SUB AND CALLER EQ PUSH2 0x79B JUMPI PUSH1 0x40 MLOAD PUSH3 0x461BCD PUSH1 0xE5 SHL DUP2 MSTORE PUSH1 0x4 ADD PUSH2 0x768 SWAP1 PUSH2 0x1BFC JUMP JUMPDEST DUP4 MLOAD DUP6 MLOAD EQ PUSH2 0x7DF JUMPI PUSH1 0x40 MLOAD PUSH3 0x461BCD PUSH1 0xE5 SHL DUP2 MSTORE PUSH1 0x20 PUSH1 0x4 DUP3 ADD MSTORE PUSH1 0x10 PUSH1 0x24 DUP3 ADD MSTORE PUSH16 0x3830B930B6B2BA32B9399032B93937B9 PUSH1 0x81 SHL PUSH1 0x44 DUP3 ADD MSTORE PUSH1 0x64 ADD PUSH2 0x768 JUMP JUMPDEST PUSH1 0x0 DUP1 JUMPDEST DUP7 MLOAD DUP2 LT ISZERO PUSH2 0x8AD JUMPI DUP6 DUP2 DUP2 MLOAD DUP2 LT PUSH2 0x7FE JUMPI PUSH2 0x7FE PUSH2 0x1B8F JUMP JUMPDEST PUSH1 0x20 MUL PUSH1 0x20 ADD ADD MLOAD DUP5 PUSH2 0x811 SWAP2 SWAP1 PUSH2 0x1B7C JUMP JUMPDEST SWAP4 POP DUP6 DUP2 DUP2 MLOAD DUP2 LT PUSH2 0x825 JUMPI PUSH2 0x825 PUSH2 0x1B8F JUMP JUMPDEST PUSH1 0x20 MUL PUSH1 0x20 ADD ADD MLOAD PUSH1 0x5 PUSH1 0x0 DUP10 DUP5 DUP2 MLOAD DUP2 LT PUSH2 0x843 JUMPI PUSH2 0x843 PUSH2 0x1B8F JUMP JUMPDEST PUSH1 0x20 MUL PUSH1 0x20 ADD ADD MLOAD DUP2 MSTORE PUSH1 0x20 ADD SWAP1 DUP2 MSTORE PUSH1 0x20 ADD PUSH1 0x0 KECCAK256 DUP2 SWAP1 SSTORE POP DUP2 DUP8 DUP3 DUP2 MLOAD DUP2 LT PUSH2 0x870 JUMPI PUSH2 0x870 PUSH2 0x1B8F JUMP JUMPDEST PUSH1 0x20 MUL PUSH1 0x20 ADD ADD MLOAD GT ISZERO PUSH2 0x89B JUMPI DUP7 DUP2 DUP2 MLOAD DUP2 LT PUSH2 0x890 JUMPI PUSH2 0x890 PUSH2 0x1B8F JUMP JUMPDEST PUSH1 0x20 MUL PUSH1 0x20 ADD ADD MLOAD SWAP2 POP JUMPDEST DUP1 PUSH2 0x8A5 DUP2 PUSH2 0x1BBC JUMP JUMPDEST SWAP2 POP POP PUSH2 0x7E3 JUMP JUMPDEST POP PUSH1 0x6 DUP2 SWAP1 SSTORE PUSH2 0x8DF PUSH32 0x0 CALLER ADDRESS DUP7 PUSH2 0x15FA JUMP JUMPDEST PUSH1 0x40 DUP1 MLOAD PUSH1 0x0 DUP2 MSTORE PUSH1 0x20 DUP2 ADD DUP6 SWAP1 MSTORE CALLER SWAP2 PUSH32 0xC3991418CACD70A010FCE559A44FCBB47534CA43BF7543964BDCA2639F6E6E5A SWAP2 ADD PUSH1 0x40 MLOAD DUP1 SWAP2 SUB SWAP1 LOG2 POP POP SWAP4 SWAP3 POP POP POP JUMP JUMPDEST PUSH1 0x0 DUP2 DUP1 TIMESTAMP GT ISZERO PUSH2 0x947 JUMPI PUSH1 0x40 MLOAD PUSH3 0x461BCD PUSH1 0xE5 SHL DUP2 MSTORE PUSH1 0x4 ADD PUSH2 0x768 SWAP1 PUSH2 0x1BD5 JUMP JUMPDEST PUSH1 0x0 PUSH2 0x956 PUSH3 0x93A80 TIMESTAMP PUSH2 0x1B41 JUMP JUMPDEST CALLER PUSH1 0x0 SWAP1 DUP2 MSTORE PUSH1 0x9 PUSH1 0x20 MSTORE PUSH1 0x40 SWAP1 KECCAK256 SLOAD SWAP1 SWAP2 POP JUMPDEST CALLER PUSH1 0x0 SWAP1 DUP2 MSTORE PUSH1 0x9 PUSH1 0x20 MSTORE PUSH1 0x40 SWAP1 KECCAK256 SLOAD ISZERO PUSH2 0xAA9 JUMPI DUP1 PUSH2 0x989 DUP2 PUSH2 0x1C1F JUMP JUMPDEST CALLER PUSH1 0x0 SWAP1 DUP2 MSTORE PUSH1 0x9 PUSH1 0x20 MSTORE PUSH1 0x40 DUP2 KECCAK256 DUP1 SLOAD SWAP3 SWAP5 POP SWAP1 SWAP3 POP SWAP1 DUP4 SWAP1 DUP2 LT PUSH2 0x9B1 JUMPI PUSH2 0x9B1 PUSH2 0x1B8F JUMP JUMPDEST SWAP1 PUSH1 0x0 MSTORE PUSH1 0x20 PUSH1 0x0 KECCAK256 ADD SLOAD SWAP1 POP DUP3 PUSH1 0x8 PUSH1 0x0 DUP4 DUP2 MSTORE PUSH1 0x20 ADD SWAP1 DUP2 MSTORE PUSH1 0x20 ADD PUSH1 0x0 KECCAK256 PUSH1 0x3 ADD SLOAD GT PUSH2 0xA95 JUMPI PUSH1 0x0 DUP2 DUP2 MSTORE PUSH1 0x8 PUSH1 0x20 MSTORE PUSH1 0x40 SWAP1 KECCAK256 SLOAD PUSH2 0x9F4 SWAP1 DUP7 PUSH2 0x1B7C JUMP JUMPDEST CALLER PUSH1 0x0 SWAP1 DUP2 MSTORE PUSH1 0x9 PUSH1 0x20 MSTORE PUSH1 0x40 SWAP1 KECCAK256 DUP1 SLOAD SWAP2 SWAP7 POP SWAP1 PUSH2 0xA15 SWAP1 PUSH1 0x1 SWAP1 PUSH2 0x1B63 JUMP JUMPDEST DUP2 SLOAD DUP2 LT PUSH2 0xA25 JUMPI PUSH2 0xA25 PUSH2 0x1B8F JUMP JUMPDEST PUSH1 0x0 SWAP2 DUP3 MSTORE PUSH1 0x20 DUP1 DUP4 KECCAK256 SWAP1 SWAP2 ADD SLOAD CALLER DUP4 MSTORE PUSH1 0x9 SWAP1 SWAP2 MSTORE PUSH1 0x40 SWAP1 SWAP2 KECCAK256 DUP1 SLOAD DUP5 SWAP1 DUP2 LT PUSH2 0xA52 JUMPI PUSH2 0xA52 PUSH2 0x1B8F JUMP JUMPDEST PUSH1 0x0 SWAP2 DUP3 MSTORE PUSH1 0x20 DUP1 DUP4 KECCAK256 SWAP1 SWAP2 ADD SWAP3 SWAP1 SWAP3 SSTORE CALLER DUP2 MSTORE PUSH1 0x9 SWAP1 SWAP2 MSTORE PUSH1 0x40 SWAP1 KECCAK256 DUP1 SLOAD DUP1 PUSH2 0xA7E JUMPI PUSH2 0xA7E PUSH2 0x1C36 JUMP JUMPDEST PUSH1 0x1 SWAP1 SUB DUP2 DUP2 SWAP1 PUSH1 0x0 MSTORE PUSH1 0x20 PUSH1 0x0 KECCAK256 ADD PUSH1 0x0 SWAP1 SSTORE SWAP1 SSTORE JUMPDEST DUP2 PUSH1 0x0 SUB PUSH2 0xAA3 JUMPI POP PUSH2 0xAA9 JUMP JUMPDEST POP PUSH2 0x96A JUMP JUMPDEST DUP4 ISZERO PUSH2 0xADA JUMPI PUSH2 0xADA PUSH32 0x0 CALLER DUP7 PUSH2 0x1714 JUMP JUMPDEST PUSH1 0x40 MLOAD DUP5 DUP2 MSTORE CALLER SWAP1 PUSH32 0x884EDAD9CE6FA2440D8A54CC123490EB96D2768479D49FF9C7366125A9424364 SWAP1 PUSH1 0x20 ADD PUSH1 0x40 MLOAD DUP1 SWAP2 SUB SWAP1 LOG2 POP POP POP SWAP2 SWAP1 POP JUMP JUMPDEST PUSH1 0x0 SLOAD PUSH1 0x1 PUSH1 0x1 PUSH1 0xA0 SHL SUB AND CALLER EQ PUSH2 0xB41 JUMPI PUSH1 0x40 MLOAD PUSH3 0x461BCD PUSH1 0xE5 SHL DUP2 MSTORE PUSH1 0x4 ADD PUSH2 0x768 SWAP1 PUSH2 0x1BFC JUMP JUMPDEST PUSH1 0x1 DUP1 SLOAD PUSH1 0x1 PUSH1 0x1 PUSH1 0xA0 SHL SUB NOT AND PUSH1 0x1 PUSH1 0x1 PUSH1 0xA0 SHL SUB SWAP3 SWAP1 SWAP3 AND SWAP2 SWAP1 SWAP2 OR SWAP1 SSTORE JUMP JUMPDEST DUP1 DUP1 TIMESTAMP GT ISZERO PUSH2 0xB84 JUMPI PUSH1 0x40 MLOAD PUSH3 0x461BCD PUSH1 0xE5 SHL DUP2 MSTORE PUSH1 0x4 ADD PUSH2 0x768 SWAP1 PUSH2 0x1BD5 JUMP JUMPDEST PUSH1 0x0 SLOAD PUSH1 0x1 PUSH1 0x1 PUSH1 0xA0 SHL SUB AND CALLER EQ PUSH2 0xBAE JUMPI PUSH1 0x40 MLOAD PUSH3 0x461BCD PUSH1 0xE5 SHL DUP2 MSTORE PUSH1 0x4 ADD PUSH2 0x768 SWAP1 PUSH2 0x1BFC JUMP JUMPDEST PUSH2 0xBD9 PUSH32 0x0 CALLER DUP6 PUSH2 0x1714 JUMP JUMPDEST POP POP POP JUMP JUMPDEST PUSH1 0x1 SLOAD PUSH1 0x1 PUSH1 0x1 PUSH1 0xA0 SHL SUB AND CALLER EQ PUSH2 0xC08 JUMPI PUSH1 0x40 MLOAD PUSH3 0x461BCD PUSH1 0xE5 SHL DUP2 MSTORE PUSH1 0x4 ADD PUSH2 0x768 SWAP1 PUSH2 0x1BFC JUMP JUMPDEST PUSH1 0x1 DUP1 SLOAD PUSH1 0x0 DUP1 SLOAD PUSH1 0x1 PUSH1 0x1 PUSH1 0xA0 SHL SUB NOT SWAP1 DUP2 AND PUSH1 0x1 PUSH1 0x1 PUSH1 0xA0 SHL SUB DUP5 AND OR SWAP1 SWAP2 SSTORE AND SWAP1 SSTORE JUMP JUMPDEST CALLER PUSH1 0x0 SWAP1 DUP2 MSTORE PUSH1 0x9 PUSH1 0x20 MSTORE PUSH1 0x40 DUP2 KECCAK256 SLOAD PUSH1 0x60 SWAP2 DUP2 PUSH8 0xFFFFFFFFFFFFFFFF DUP2 GT ISZERO PUSH2 0xC5B JUMPI PUSH2 0xC5B PUSH2 0x18A6 JUMP JUMPDEST PUSH1 0x40 MLOAD SWAP1 DUP1 DUP3 MSTORE DUP1 PUSH1 0x20 MUL PUSH1 0x20 ADD DUP3 ADD PUSH1 0x40 MSTORE DUP1 ISZERO PUSH2 0xCB7 JUMPI DUP2 PUSH1 0x20 ADD JUMPDEST PUSH2 0xCA4 PUSH1 0x40 MLOAD DUP1 PUSH1 0x80 ADD PUSH1 0x40 MSTORE DUP1 PUSH1 0x0 DUP2 MSTORE PUSH1 0x20 ADD PUSH1 0x0 DUP2 MSTORE PUSH1 0x20 ADD PUSH1 0x0 DUP2 MSTORE PUSH1 0x20 ADD PUSH1 0x0 DUP2 MSTORE POP SWAP1 JUMP JUMPDEST DUP2 MSTORE PUSH1 0x20 ADD SWAP1 PUSH1 0x1 SWAP1 SUB SWAP1 DUP2 PUSH2 0xC79 JUMPI SWAP1 POP JUMPDEST POP SWAP1 POP PUSH1 0x0 JUMPDEST DUP3 DUP2 LT ISZERO PUSH2 0xD67 JUMPI CALLER PUSH1 0x0 SWAP1 DUP2 MSTORE PUSH1 0x9 PUSH1 0x20 MSTORE PUSH1 0x40 DUP2 KECCAK256 DUP1 SLOAD PUSH1 0x8 SWAP3 SWAP2 SWAP1 DUP5 SWAP1 DUP2 LT PUSH2 0xCEB JUMPI PUSH2 0xCEB PUSH2 0x1B8F JUMP JUMPDEST SWAP1 PUSH1 0x0 MSTORE PUSH1 0x20 PUSH1 0x0 KECCAK256 ADD SLOAD DUP2 MSTORE PUSH1 0x20 ADD SWAP1 DUP2 MSTORE PUSH1 0x20 ADD PUSH1 0x0 KECCAK256 PUSH1 0x40 MLOAD DUP1 PUSH1 0x80 ADD PUSH1 0x40 MSTORE SWAP1 DUP2 PUSH1 0x0 DUP3 ADD SLOAD DUP2 MSTORE PUSH1 0x20 ADD PUSH1 0x1 DUP3 ADD SLOAD DUP2 MSTORE PUSH1 0x20 ADD PUSH1 0x2 DUP3 ADD SLOAD DUP2 MSTORE PUSH1 0x20 ADD PUSH1 0x3 DUP3 ADD SLOAD DUP2 MSTORE POP POP DUP3 DUP3 DUP2 MLOAD DUP2 LT PUSH2 0xD49 JUMPI PUSH2 0xD49 PUSH2 0x1B8F JUMP JUMPDEST PUSH1 0x20 MUL PUSH1 0x20 ADD ADD DUP2 SWAP1 MSTORE POP DUP1 DUP1 PUSH2 0xD5F SWAP1 PUSH2 0x1BBC JUMP JUMPDEST SWAP2 POP POP PUSH2 0xCBD JUMP JUMPDEST POP SWAP3 SWAP2 POP POP JUMP JUMPDEST DUP1 DUP1 TIMESTAMP GT ISZERO PUSH2 0xD8F JUMPI PUSH1 0x40 MLOAD PUSH3 0x461BCD PUSH1 0xE5 SHL DUP2 MSTORE PUSH1 0x4 ADD PUSH2 0x768 SWAP1 PUSH2 0x1BD5 JUMP JUMPDEST PUSH1 0x0 PUSH1 0xFF PUSH32 0x0 AND PUSH2 0xDC2 PUSH3 0x93A80 TIMESTAMP PUSH2 0x1B41 JUMP JUMPDEST PUSH2 0xDCC SWAP2 SWAP1 PUSH2 0x1B63 JUMP JUMPDEST CALLER PUSH1 0x0 SWAP1 DUP2 MSTORE PUSH1 0x3 PUSH1 0x20 MSTORE PUSH1 0x40 DUP2 KECCAK256 SLOAD SWAP2 SWAP3 POP SWAP1 DUP1 JUMPDEST CALLER PUSH1 0x0 SWAP1 DUP2 MSTORE PUSH1 0x3 PUSH1 0x20 MSTORE PUSH1 0x40 SWAP1 KECCAK256 PUSH1 0x1 ADD SLOAD DUP2 LT ISZERO PUSH2 0xE85 JUMPI DUP4 DUP2 GT PUSH2 0xE85 JUMPI PUSH2 0xE0E DUP2 PUSH1 0x1 PUSH2 0x1B7C JUMP JUMPDEST PUSH1 0x0 DUP3 DUP2 MSTORE PUSH1 0x4 PUSH1 0x20 MSTORE PUSH1 0x40 SWAP1 KECCAK256 SLOAD SWAP1 SWAP3 POP ISZERO PUSH2 0xE73 JUMPI PUSH1 0x0 DUP2 DUP2 MSTORE PUSH1 0x4 PUSH1 0x20 SWAP1 DUP2 MSTORE PUSH1 0x40 DUP1 DUP4 KECCAK256 SLOAD CALLER DUP5 MSTORE PUSH1 0x2 DUP4 MSTORE DUP2 DUP5 KECCAK256 DUP6 DUP6 MSTORE DUP4 MSTORE DUP2 DUP5 KECCAK256 SLOAD PUSH1 0x5 SWAP1 SWAP4 MSTORE SWAP3 KECCAK256 SLOAD PUSH2 0xE5C SWAP2 SWAP1 PUSH2 0x1BA5 JUMP JUMPDEST PUSH2 0xE66 SWAP2 SWAP1 PUSH2 0x1B41 JUMP JUMPDEST PUSH2 0xE70 SWAP1 DUP5 PUSH2 0x1B7C JUMP JUMPDEST SWAP3 POP JUMPDEST DUP1 PUSH2 0xE7D DUP2 PUSH2 0x1BBC JUMP JUMPDEST SWAP2 POP POP PUSH2 0xDE2 JUMP JUMPDEST POP CALLER PUSH1 0x0 SWAP1 DUP2 MSTORE PUSH1 0x3 PUSH1 0x20 MSTORE PUSH1 0x40 DUP2 KECCAK256 DUP3 SWAP2 ADD SSTORE PUSH2 0xEC4 PUSH32 0x0 CALLER DUP5 PUSH2 0x1714 JUMP JUMPDEST PUSH1 0x40 MLOAD DUP3 DUP2 MSTORE CALLER SWAP1 PUSH32 0xBA8DE60C3403EC381D1D484652EA1980E3C3E56359195C92525BFF4CE47AD98E SWAP1 PUSH1 0x20 ADD PUSH1 0x40 MLOAD DUP1 SWAP2 SUB SWAP1 LOG2 POP POP POP POP POP JUMP JUMPDEST PUSH1 0x9 PUSH1 0x20 MSTORE DUP2 PUSH1 0x0 MSTORE PUSH1 0x40 PUSH1 0x0 KECCAK256 DUP2 DUP2 SLOAD DUP2 LT PUSH2 0xF1C JUMPI PUSH1 0x0 DUP1 REVERT JUMPDEST SWAP1 PUSH1 0x0 MSTORE PUSH1 0x20 PUSH1 0x0 KECCAK256 ADD PUSH1 0x0 SWAP2 POP SWAP2 POP POP SLOAD DUP2 JUMP JUMPDEST PUSH1 0x3 PUSH1 0x20 MSTORE DUP2 PUSH1 0x0 MSTORE PUSH1 0x40 PUSH1 0x0 KECCAK256 DUP2 PUSH1 0x2 DUP2 LT PUSH2 0xF4D JUMPI PUSH1 0x0 DUP1 REVERT JUMPDEST ADD SLOAD SWAP2 POP DUP3 SWAP1 POP JUMP JUMPDEST DUP1 DUP1 TIMESTAMP GT ISZERO PUSH2 0xF77 JUMPI PUSH1 0x40 MLOAD PUSH3 0x461BCD PUSH1 0xE5 SHL DUP2 MSTORE PUSH1 0x4 ADD PUSH2 0x768 SWAP1 PUSH2 0x1BD5 JUMP JUMPDEST PUSH1 0x0 SLOAD PUSH1 0x1 PUSH1 0x1 PUSH1 0xA0 SHL SUB AND CALLER EQ PUSH2 0xFA1 JUMPI PUSH1 0x40 MLOAD PUSH3 0x461BCD PUSH1 0xE5 SHL DUP2 MSTORE PUSH1 0x4 ADD PUSH2 0x768 SWAP1 PUSH2 0x1BFC JUMP JUMPDEST PUSH32 0x0 TIMESTAMP GT ISZERO DUP1 ISZERO PUSH2 0xFF1 JUMPI POP PUSH32 0x0 TIMESTAMP LT ISZERO JUMPDEST PUSH2 0x1031 JUMPI PUSH1 0x40 MLOAD PUSH3 0x461BCD PUSH1 0xE5 SHL DUP2 MSTORE PUSH1 0x20 PUSH1 0x4 DUP3 ADD MSTORE PUSH1 0x11 PUSH1 0x24 DUP3 ADD MSTORE PUSH17 0x1B9BDD081A5B881D1A19481C195C9A5BD9 PUSH1 0x7A SHL PUSH1 0x44 DUP3 ADD MSTORE PUSH1 0x64 ADD PUSH2 0x768 JUMP JUMPDEST PUSH2 0x105D PUSH32 0x0 CALLER ADDRESS DUP7 PUSH2 0x15FA JUMP JUMPDEST PUSH1 0x0 DUP5 DUP2 MSTORE PUSH1 0x5 PUSH1 0x20 MSTORE PUSH1 0x40 DUP2 KECCAK256 DUP1 SLOAD DUP6 SWAP3 SWAP1 PUSH2 0x107B SWAP1 DUP5 SWAP1 PUSH2 0x1B7C JUMP JUMPDEST SWAP1 SWAP2 SSTORE POP POP PUSH1 0x6 SLOAD DUP5 GT ISZERO PUSH2 0x1090 JUMPI PUSH1 0x6 DUP5 SWAP1 SSTORE JUMPDEST PUSH1 0x40 DUP1 MLOAD DUP6 DUP2 MSTORE PUSH1 0x20 DUP2 ADD DUP6 SWAP1 MSTORE CALLER SWAP2 PUSH32 0xC3991418CACD70A010FCE559A44FCBB47534CA43BF7543964BDCA2639F6E6E5A SWAP2 ADD PUSH1 0x40 MLOAD DUP1 SWAP2 SUB SWAP1 LOG2 POP POP POP POP JUMP JUMPDEST PUSH1 0x0 PUSH2 0x10FE PUSH1 0x1 PUSH32 0x0 PUSH2 0x1C4C JUMP JUMPDEST PUSH1 0xFF AND PUSH1 0x1 PUSH32 0x0 PUSH1 0xFF AND PUSH1 0x1 DUP6 PUSH2 0x1134 SWAP2 SWAP1 PUSH2 0x1C4C JUMP JUMPDEST PUSH1 0xFF AND PUSH2 0x1162 PUSH1 0x1 PUSH32 0x0 PUSH2 0x1B63 JUMP JUMPDEST PUSH2 0x116C SWAP2 SWAP1 PUSH2 0x1BA5 JUMP JUMPDEST PUSH2 0x1176 SWAP2 SWAP1 PUSH2 0x1B7C JUMP JUMPDEST PUSH2 0x1180 SWAP2 SWAP1 PUSH2 0x1B63 JUMP JUMPDEST PUSH2 0x118A SWAP1 DUP6 PUSH2 0x1BA5 JUMP JUMPDEST PUSH2 0x1194 SWAP2 SWAP1 PUSH2 0x1B41 JUMP JUMPDEST SWAP4 SWAP3 POP POP POP JUMP JUMPDEST DUP1 DUP1 TIMESTAMP GT ISZERO PUSH2 0x11BC JUMPI PUSH1 0x40 MLOAD PUSH3 0x461BCD PUSH1 0xE5 SHL DUP2 MSTORE PUSH1 0x4 ADD PUSH2 0x768 SWAP1 PUSH2 0x1BD5 JUMP JUMPDEST PUSH1 0x0 DUP4 PUSH1 0xFF AND GT DUP1 ISZERO PUSH2 0x11F5 JUMPI POP PUSH32 0x0 PUSH1 0xFF AND DUP4 PUSH1 0xFF AND GT ISZERO JUMPDEST PUSH2 0x122A JUMPI PUSH1 0x40 MLOAD PUSH3 0x461BCD PUSH1 0xE5 SHL DUP2 MSTORE PUSH1 0x20 PUSH1 0x4 DUP3 ADD MSTORE PUSH1 0x6 PUSH1 0x24 DUP3 ADD MSTORE PUSH6 0x359018BF1A99 PUSH1 0xD1 SHL PUSH1 0x44 DUP3 ADD MSTORE PUSH1 0x64 ADD PUSH2 0x768 JUMP JUMPDEST PUSH32 0x0 TIMESTAMP GT ISZERO DUP1 ISZERO PUSH2 0x127A JUMPI POP PUSH32 0x0 TIMESTAMP LT ISZERO JUMPDEST PUSH2 0x12BA JUMPI PUSH1 0x40 MLOAD PUSH3 0x461BCD PUSH1 0xE5 SHL DUP2 MSTORE PUSH1 0x20 PUSH1 0x4 DUP3 ADD MSTORE PUSH1 0x11 PUSH1 0x24 DUP3 ADD MSTORE PUSH17 0x1B9BDD081A5B881D1A19481C195C9A5BD9 PUSH1 0x7A SHL PUSH1 0x44 DUP3 ADD MSTORE PUSH1 0x64 ADD PUSH2 0x768 JUMP JUMPDEST PUSH1 0x0 PUSH2 0x12C9 PUSH3 0x93A80 TIMESTAMP PUSH2 0x1B41 JUMP JUMPDEST PUSH2 0x12D4 SWAP1 PUSH1 0x1 PUSH2 0x1B7C JUMP JUMPDEST SWAP1 POP PUSH2 0x1302 PUSH32 0x0 CALLER ADDRESS DUP9 PUSH2 0x15FA JUMP JUMPDEST PUSH1 0x0 PUSH2 0x130E DUP7 DUP7 PUSH2 0x10D1 JUMP JUMPDEST SWAP1 POP PUSH1 0x0 JUMPDEST DUP6 PUSH1 0xFF AND DUP2 PUSH1 0xFF AND LT ISZERO PUSH2 0x13A8 JUMPI DUP2 PUSH1 0x4 PUSH1 0x0 PUSH2 0x1333 PUSH1 0xFF DUP6 AND DUP8 PUSH2 0x1B7C JUMP JUMPDEST DUP2 MSTORE PUSH1 0x20 ADD SWAP1 DUP2 MSTORE PUSH1 0x20 ADD PUSH1 0x0 KECCAK256 PUSH1 0x0 DUP3 DUP3 SLOAD PUSH2 0x1350 SWAP2 SWAP1 PUSH2 0x1B7C JUMP JUMPDEST SWAP1 SWAP2 SSTORE POP POP CALLER PUSH1 0x0 SWAP1 DUP2 MSTORE PUSH1 0x2 PUSH1 0x20 MSTORE PUSH1 0x40 DUP2 KECCAK256 DUP4 SWAP2 PUSH2 0x1373 PUSH1 0xFF DUP6 AND DUP8 PUSH2 0x1B7C JUMP JUMPDEST DUP2 MSTORE PUSH1 0x20 ADD SWAP1 DUP2 MSTORE PUSH1 0x20 ADD PUSH1 0x0 KECCAK256 PUSH1 0x0 DUP3 DUP3 SLOAD PUSH2 0x1390 SWAP2 SWAP1 PUSH2 0x1B7C JUMP JUMPDEST SWAP1 SWAP2 SSTORE POP DUP2 SWAP1 POP PUSH2 0x13A0 DUP2 PUSH2 0x1C65 JUMP JUMPDEST SWAP2 POP POP PUSH2 0x1313 JUMP JUMPDEST POP PUSH1 0x0 PUSH2 0x13B8 PUSH1 0xFF DUP8 AND DUP5 PUSH2 0x1B7C JUMP JUMPDEST PUSH1 0x40 DUP1 MLOAD PUSH1 0x80 DUP2 ADD DUP3 MSTORE DUP10 DUP2 MSTORE PUSH1 0x20 DUP1 DUP3 ADD DUP7 DUP2 MSTORE DUP3 DUP5 ADD DUP9 DUP2 MSTORE PUSH1 0x60 DUP5 ADD DUP7 DUP2 MSTORE PUSH1 0x7 SLOAD PUSH1 0x0 SWAP1 DUP2 MSTORE PUSH1 0x8 DUP6 MSTORE DUP7 DUP2 KECCAK256 SWAP6 MLOAD DUP7 SSTORE SWAP3 MLOAD PUSH1 0x1 DUP1 DUP8 ADD SWAP2 SWAP1 SWAP2 SSTORE SWAP2 MLOAD PUSH1 0x2 DUP7 ADD SSTORE MLOAD PUSH1 0x3 SWAP5 DUP6 ADD SSTORE CALLER DUP3 MSTORE SWAP3 SWAP1 SWAP2 MSTORE SWAP2 SWAP1 SWAP2 KECCAK256 SWAP1 DUP2 ADD SLOAD SWAP1 SLOAD SWAP2 SWAP3 POP SWAP1 SUB PUSH2 0x1433 JUMPI CALLER PUSH1 0x0 SWAP1 DUP2 MSTORE PUSH1 0x3 PUSH1 0x20 MSTORE PUSH1 0x40 SWAP1 KECCAK256 DUP4 SWAP1 SSTORE JUMPDEST CALLER PUSH1 0x0 SWAP1 DUP2 MSTORE PUSH1 0x3 PUSH1 0x20 MSTORE PUSH1 0x40 SWAP1 KECCAK256 DUP2 SWAP1 PUSH1 0x1 ADD SLOAD LT ISZERO PUSH2 0x1464 JUMPI CALLER PUSH1 0x0 SWAP1 DUP2 MSTORE PUSH1 0x3 PUSH1 0x20 MSTORE PUSH1 0x40 SWAP1 KECCAK256 DUP2 SWAP1 PUSH1 0x1 ADD SSTORE JUMPDEST CALLER PUSH1 0x0 DUP2 DUP2 MSTORE PUSH1 0x9 PUSH1 0x20 SWAP1 DUP2 MSTORE PUSH1 0x40 DUP1 DUP4 KECCAK256 PUSH1 0x7 DUP1 SLOAD DUP3 SLOAD PUSH1 0x1 DUP2 ADD DUP5 SSTORE SWAP3 DUP7 MSTORE SWAP5 DUP5 SWAP1 KECCAK256 SWAP1 SWAP2 ADD SWAP4 SWAP1 SWAP4 SSTORE SWAP2 SLOAD DUP3 MLOAD SWAP1 DUP2 MSTORE SWAP1 DUP2 ADD DUP11 SWAP1 MSTORE PUSH1 0xFF DUP10 AND DUP2 DUP4 ADD MSTORE SWAP1 MLOAD PUSH32 0x6FA2F6021EE337436CDF2B2570285886DA18BC06402CE284D296504A0FE8F875 SWAP2 DUP2 SWAP1 SUB PUSH1 0x60 ADD SWAP1 LOG2 PUSH1 0x7 DUP1 SLOAD SWAP1 PUSH1 0x0 PUSH2 0x14E1 DUP4 PUSH2 0x1BBC JUMP JUMPDEST SWAP2 SWAP1 POP SSTORE POP POP POP POP POP POP POP POP JUMP JUMPDEST PUSH1 0x0 DUP1 PUSH1 0xFF PUSH32 0x0 AND PUSH2 0x1523 PUSH3 0x93A80 TIMESTAMP PUSH2 0x1B41 JUMP JUMPDEST PUSH2 0x152D SWAP2 SWAP1 PUSH2 0x1B63 JUMP JUMPDEST PUSH1 0x1 PUSH1 0x1 PUSH1 0xA0 SHL SUB DUP5 AND PUSH1 0x0 SWAP1 DUP2 MSTORE PUSH1 0x3 PUSH1 0x20 MSTORE PUSH1 0x40 DUP2 KECCAK256 SLOAD SWAP2 SWAP3 POP SWAP1 JUMPDEST PUSH1 0x1 PUSH1 0x1 PUSH1 0xA0 SHL SUB DUP6 AND PUSH1 0x0 SWAP1 DUP2 MSTORE PUSH1 0x3 PUSH1 0x20 MSTORE PUSH1 0x40 SWAP1 KECCAK256 PUSH1 0x1 ADD SLOAD DUP2 LT ISZERO PUSH2 0x15F2 JUMPI DUP3 DUP2 GT PUSH2 0x15F2 JUMPI PUSH1 0x0 DUP2 DUP2 MSTORE PUSH1 0x4 PUSH1 0x20 MSTORE PUSH1 0x40 SWAP1 KECCAK256 SLOAD ISZERO PUSH2 0x15E0 JUMPI PUSH1 0x0 DUP2 DUP2 MSTORE PUSH1 0x4 PUSH1 0x20 SWAP1 DUP2 MSTORE PUSH1 0x40 DUP1 DUP4 KECCAK256 SLOAD PUSH1 0x1 PUSH1 0x1 PUSH1 0xA0 SHL SUB DUP10 AND DUP5 MSTORE PUSH1 0x2 DUP4 MSTORE DUP2 DUP5 KECCAK256 DUP6 DUP6 MSTORE DUP4 MSTORE DUP2 DUP5 KECCAK256 SLOAD PUSH1 0x5 SWAP1 SWAP4 MSTORE SWAP3 KECCAK256 SLOAD PUSH2 0x15C9 SWAP2 SWAP1 PUSH2 0x1BA5 JUMP JUMPDEST PUSH2 0x15D3 SWAP2 SWAP1 PUSH2 0x1B41 JUMP JUMPDEST PUSH2 0x15DD SWAP1 DUP4 PUSH2 0x1B7C JUMP JUMPDEST SWAP2 POP JUMPDEST DUP1 PUSH2 0x15EA DUP2 PUSH2 0x1BBC JUMP JUMPDEST SWAP2 POP POP PUSH2 0x154B JUMP JUMPDEST POP SWAP4 SWAP3 POP POP POP JUMP JUMPDEST PUSH1 0x40 DUP1 MLOAD PUSH1 0x1 PUSH1 0x1 PUSH1 0xA0 SHL SUB DUP6 DUP2 AND PUSH1 0x24 DUP4 ADD MSTORE DUP5 DUP2 AND PUSH1 0x44 DUP4 ADD MSTORE PUSH1 0x64 DUP1 DUP4 ADD DUP6 SWAP1 MSTORE DUP4 MLOAD DUP1 DUP5 SUB SWAP1 SWAP2 ADD DUP2 MSTORE PUSH1 0x84 SWAP1 SWAP3 ADD DUP4 MSTORE PUSH1 0x20 DUP3 ADD DUP1 MLOAD PUSH1 0x1 PUSH1 0x1 PUSH1 0xE0 SHL SUB AND PUSH4 0x23B872DD PUSH1 0xE0 SHL OR SWAP1 MSTORE SWAP2 MLOAD PUSH1 0x0 SWAP3 DUP4 SWAP3 SWAP1 DUP9 AND SWAP2 PUSH2 0x165E SWAP2 SWAP1 PUSH2 0x1C84 JUMP JUMPDEST PUSH1 0x0 PUSH1 0x40 MLOAD DUP1 DUP4 SUB DUP2 PUSH1 0x0 DUP7 GAS CALL SWAP2 POP POP RETURNDATASIZE DUP1 PUSH1 0x0 DUP2 EQ PUSH2 0x169B JUMPI PUSH1 0x40 MLOAD SWAP2 POP PUSH1 0x1F NOT PUSH1 0x3F RETURNDATASIZE ADD AND DUP3 ADD PUSH1 0x40 MSTORE RETURNDATASIZE DUP3 MSTORE RETURNDATASIZE PUSH1 0x0 PUSH1 0x20 DUP5 ADD RETURNDATACOPY PUSH2 0x16A0 JUMP JUMPDEST PUSH1 0x60 SWAP2 POP JUMPDEST POP SWAP2 POP SWAP2 POP DUP2 DUP1 ISZERO PUSH2 0x16CA JUMPI POP DUP1 MLOAD ISZERO DUP1 PUSH2 0x16CA JUMPI POP DUP1 DUP1 PUSH1 0x20 ADD SWAP1 MLOAD DUP2 ADD SWAP1 PUSH2 0x16CA SWAP2 SWAP1 PUSH2 0x1CB3 JUMP JUMPDEST PUSH2 0x170C JUMPI PUSH1 0x40 MLOAD PUSH3 0x461BCD PUSH1 0xE5 SHL DUP2 MSTORE PUSH1 0x20 PUSH1 0x4 DUP3 ADD MSTORE PUSH1 0x13 PUSH1 0x24 DUP3 ADD MSTORE PUSH19 0x1D1C985B9CD9995C919C9BDB4819985A5B1959 PUSH1 0x6A SHL PUSH1 0x44 DUP3 ADD MSTORE PUSH1 0x64 ADD PUSH2 0x768 JUMP JUMPDEST POP POP POP POP POP POP JUMP JUMPDEST PUSH1 0x40 DUP1 MLOAD PUSH1 0x1 PUSH1 0x1 PUSH1 0xA0 SHL SUB DUP5 DUP2 AND PUSH1 0x24 DUP4 ADD MSTORE PUSH1 0x44 DUP1 DUP4 ADD DUP6 SWAP1 MSTORE DUP4 MLOAD DUP1 DUP5 SUB SWAP1 SWAP2 ADD DUP2 MSTORE PUSH1 0x64 SWAP1 SWAP3 ADD DUP4 MSTORE PUSH1 0x20 DUP3 ADD DUP1 MLOAD PUSH1 0x1 PUSH1 0x1 PUSH1 0xE0 SHL SUB AND PUSH4 0xA9059CBB PUSH1 0xE0 SHL OR SWAP1 MSTORE SWAP2 MLOAD PUSH1 0x0 SWAP3 DUP4 SWAP3 SWAP1 DUP8 AND SWAP2 PUSH2 0x1770 SWAP2 SWAP1 PUSH2 0x1C84 JUMP JUMPDEST PUSH1 0x0 PUSH1 0x40 MLOAD DUP1 DUP4 SUB DUP2 PUSH1 0x0 DUP7 GAS CALL SWAP2 POP POP RETURNDATASIZE DUP1 PUSH1 0x0 DUP2 EQ PUSH2 0x17AD JUMPI PUSH1 0x40 MLOAD SWAP2 POP PUSH1 0x1F NOT PUSH1 0x3F RETURNDATASIZE ADD AND DUP3 ADD PUSH1 0x40 MSTORE RETURNDATASIZE DUP3 MSTORE RETURNDATASIZE PUSH1 0x0 PUSH1 0x20 DUP5 ADD RETURNDATACOPY PUSH2 0x17B2 JUMP JUMPDEST PUSH1 0x60 SWAP2 POP JUMPDEST POP SWAP2 POP SWAP2 POP DUP2 DUP1 ISZERO PUSH2 0x17DC JUMPI POP DUP1 MLOAD ISZERO DUP1 PUSH2 0x17DC JUMPI POP DUP1 DUP1 PUSH1 0x20 ADD SWAP1 MLOAD DUP2 ADD SWAP1 PUSH2 0x17DC SWAP2 SWAP1 PUSH2 0x1CB3 JUMP JUMPDEST PUSH2 0x181A JUMPI PUSH1 0x40 MLOAD PUSH3 0x461BCD PUSH1 0xE5 SHL DUP2 MSTORE PUSH1 0x20 PUSH1 0x4 DUP3 ADD MSTORE PUSH1 0xF PUSH1 0x24 DUP3 ADD MSTORE PUSH15 0x1514905394D1915497D19052531151 PUSH1 0x8A SHL PUSH1 0x44 DUP3 ADD MSTORE PUSH1 0x64 ADD PUSH2 0x768 JUMP JUMPDEST POP POP POP POP POP JUMP JUMPDEST DUP1 CALLDATALOAD PUSH1 0x1 PUSH1 0x1 PUSH1 0xA0 SHL SUB DUP2 AND DUP2 EQ PUSH2 0x1838 JUMPI PUSH1 0x0 DUP1 REVERT JUMPDEST SWAP2 SWAP1 POP JUMP JUMPDEST PUSH1 0x0 PUSH1 0x20 DUP3 DUP5 SUB SLT ISZERO PUSH2 0x184F JUMPI PUSH1 0x0 DUP1 REVERT JUMPDEST PUSH2 0x1194 DUP3 PUSH2 0x1821 JUMP JUMPDEST PUSH1 0x0 PUSH1 0x40 DUP3 ADD DUP5 DUP4 MSTORE PUSH1 0x20 PUSH1 0x40 DUP2 DUP6 ADD MSTORE DUP2 DUP6 MLOAD DUP1 DUP5 MSTORE PUSH1 0x60 DUP7 ADD SWAP2 POP DUP3 DUP8 ADD SWAP4 POP PUSH1 0x0 JUMPDEST DUP2 DUP2 LT ISZERO PUSH2 0x1899 JUMPI DUP5 MLOAD DUP4 MSTORE SWAP4 DUP4 ADD SWAP4 SWAP2 DUP4 ADD SWAP2 PUSH1 0x1 ADD PUSH2 0x187D JUMP JUMPDEST POP SWAP1 SWAP8 SWAP7 POP POP POP POP POP POP POP JUMP JUMPDEST PUSH4 0x4E487B71 PUSH1 0xE0 SHL PUSH1 0x0 MSTORE PUSH1 0x41 PUSH1 0x4 MSTORE PUSH1 0x24 PUSH1 0x0 REVERT JUMPDEST PUSH1 0x0 DUP3 PUSH1 0x1F DUP4 ADD SLT PUSH2 0x18CD JUMPI PUSH1 0x0 DUP1 REVERT JUMPDEST DUP2 CALLDATALOAD PUSH1 0x20 PUSH8 0xFFFFFFFFFFFFFFFF DUP1 DUP4 GT ISZERO PUSH2 0x18EA JUMPI PUSH2 0x18EA PUSH2 0x18A6 JUMP JUMPDEST DUP3 PUSH1 0x5 SHL PUSH1 0x40 MLOAD PUSH1 0x1F NOT PUSH1 0x3F DUP4 ADD AND DUP2 ADD DUP2 DUP2 LT DUP5 DUP3 GT OR ISZERO PUSH2 0x190F JUMPI PUSH2 0x190F PUSH2 0x18A6 JUMP JUMPDEST PUSH1 0x40 MSTORE SWAP4 DUP5 MSTORE DUP6 DUP2 ADD DUP4 ADD SWAP4 DUP4 DUP2 ADD SWAP3 POP DUP8 DUP6 GT ISZERO PUSH2 0x192D JUMPI PUSH1 0x0 DUP1 REVERT JUMPDEST DUP4 DUP8 ADD SWAP2 POP JUMPDEST DUP5 DUP3 LT ISZERO PUSH2 0x194C JUMPI DUP2 CALLDATALOAD DUP4 MSTORE SWAP2 DUP4 ADD SWAP2 SWAP1 DUP4 ADD SWAP1 PUSH2 0x1933 JUMP JUMPDEST SWAP8 SWAP7 POP POP POP POP POP POP POP JUMP JUMPDEST PUSH1 0x0 DUP1 PUSH1 0x0 PUSH1 0x60 DUP5 DUP7 SUB SLT ISZERO PUSH2 0x196C JUMPI PUSH1 0x0 DUP1 REVERT JUMPDEST DUP4 CALLDATALOAD PUSH8 0xFFFFFFFFFFFFFFFF DUP1 DUP3 GT ISZERO PUSH2 0x1984 JUMPI PUSH1 0x0 DUP1 REVERT JUMPDEST PUSH2 0x1990 DUP8 DUP4 DUP9 ADD PUSH2 0x18BC JUMP JUMPDEST SWAP5 POP PUSH1 0x20 DUP7 ADD CALLDATALOAD SWAP2 POP DUP1 DUP3 GT ISZERO PUSH2 0x19A6 JUMPI PUSH1 0x0 DUP1 REVERT JUMPDEST POP PUSH2 0x19B3 DUP7 DUP3 DUP8 ADD PUSH2 0x18BC JUMP JUMPDEST SWAP3 POP POP PUSH1 0x40 DUP5 ADD CALLDATALOAD SWAP1 POP SWAP3 POP SWAP3 POP SWAP3 JUMP JUMPDEST PUSH1 0x0 PUSH1 0x20 DUP3 DUP5 SUB SLT ISZERO PUSH2 0x19D6 JUMPI PUSH1 0x0 DUP1 REVERT JUMPDEST POP CALLDATALOAD SWAP2 SWAP1 POP JUMP JUMPDEST PUSH1 0x0 DUP1 PUSH1 0x40 DUP4 DUP6 SUB SLT ISZERO PUSH2 0x19F0 JUMPI PUSH1 0x0 DUP1 REVERT JUMPDEST POP POP DUP1 CALLDATALOAD SWAP3 PUSH1 0x20 SWAP1 SWAP2 ADD CALLDATALOAD SWAP2 POP JUMP JUMPDEST PUSH1 0x0 DUP1 PUSH1 0x40 DUP4 DUP6 SUB SLT ISZERO PUSH2 0x1A12 JUMPI PUSH1 0x0 DUP1 REVERT JUMPDEST PUSH2 0x1A1B DUP4 PUSH2 0x1821 JUMP JUMPDEST SWAP5 PUSH1 0x20 SWAP4 SWAP1 SWAP4 ADD CALLDATALOAD SWAP4 POP POP POP JUMP JUMPDEST PUSH1 0x20 DUP1 DUP3 MSTORE DUP3 MLOAD DUP3 DUP3 ADD DUP2 SWAP1 MSTORE PUSH1 0x0 SWAP2 SWAP1 PUSH1 0x40 SWAP1 DUP2 DUP6 ADD SWAP1 DUP7 DUP5 ADD DUP6 JUMPDEST DUP3 DUP2 LT ISZERO PUSH2 0x1A80 JUMPI DUP2 MLOAD DUP1 MLOAD DUP6 MSTORE DUP7 DUP2 ADD MLOAD DUP8 DUP7 ADD MSTORE DUP6 DUP2 ADD MLOAD DUP7 DUP7 ADD MSTORE PUSH1 0x60 SWAP1 DUP2 ADD MLOAD SWAP1 DUP6 ADD MSTORE PUSH1 0x80 SWAP1 SWAP4 ADD SWAP3 SWAP1 DUP6 ADD SWAP1 PUSH1 0x1 ADD PUSH2 0x1A46 JUMP JUMPDEST POP SWAP2 SWAP8 SWAP7 POP POP POP POP POP POP POP JUMP JUMPDEST PUSH1 0x0 DUP1 PUSH1 0x0 PUSH1 0x60 DUP5 DUP7 SUB SLT ISZERO PUSH2 0x1AA2 JUMPI PUSH1 0x0 DUP1 REVERT JUMPDEST POP POP DUP2 CALLDATALOAD SWAP4 PUSH1 0x20 DUP4 ADD CALLDATALOAD SWAP4 POP PUSH1 0x40 SWAP1 SWAP3 ADD CALLDATALOAD SWAP2 SWAP1 POP JUMP JUMPDEST DUP1 CALLDATALOAD PUSH1 0xFF DUP2 AND DUP2 EQ PUSH2 0x1838 JUMPI PUSH1 0x0 DUP1 REVERT JUMPDEST PUSH1 0x0 DUP1 PUSH1 0x40 DUP4 DUP6 SUB SLT ISZERO PUSH2 0x1ADD JUMPI PUSH1 0x0 DUP1 REVERT JUMPDEST DUP3 CALLDATALOAD SWAP2 POP PUSH2 0x1AED PUSH1 0x20 DUP5 ADD PUSH2 0x1AB9 JUMP JUMPDEST SWAP1 POP SWAP3 POP SWAP3 SWAP1 POP JUMP JUMPDEST PUSH1 0x0 DUP1 PUSH1 0x0 PUSH1 0x60 DUP5 DUP7 SUB SLT ISZERO PUSH2 0x1B0B JUMPI PUSH1 0x0 DUP1 REVERT JUMPDEST DUP4 CALLDATALOAD SWAP3 POP PUSH2 0x1B1B PUSH1 0x20 DUP6 ADD PUSH2 0x1AB9 JUMP JUMPDEST SWAP2 POP PUSH1 0x40 DUP5 ADD CALLDATALOAD SWAP1 POP SWAP3 POP SWAP3 POP SWAP3 JUMP JUMPDEST PUSH4 0x4E487B71 PUSH1 0xE0 SHL PUSH1 0x0 MSTORE PUSH1 0x11 PUSH1 0x4 MSTORE PUSH1 0x24 PUSH1 0x0 REVERT JUMPDEST PUSH1 0x0 DUP3 PUSH2 0x1B5E JUMPI PUSH4 0x4E487B71 PUSH1 0xE0 SHL PUSH1 0x0 MSTORE PUSH1 0x12 PUSH1 0x4 MSTORE PUSH1 0x24 PUSH1 0x0 REVERT JUMPDEST POP DIV SWAP1 JUMP JUMPDEST DUP2 DUP2 SUB DUP2 DUP2 GT ISZERO PUSH2 0x1B76 JUMPI PUSH2 0x1B76 PUSH2 0x1B2B JUMP JUMPDEST SWAP3 SWAP2 POP POP JUMP JUMPDEST DUP1 DUP3 ADD DUP1 DUP3 GT ISZERO PUSH2 0x1B76 JUMPI PUSH2 0x1B76 PUSH2 0x1B2B JUMP JUMPDEST PUSH4 0x4E487B71 PUSH1 0xE0 SHL PUSH1 0x0 MSTORE PUSH1 0x32 PUSH1 0x4 MSTORE PUSH1 0x24 PUSH1 0x0 REVERT JUMPDEST DUP1 DUP3 MUL DUP2 ISZERO DUP3 DUP3 DIV DUP5 EQ OR PUSH2 0x1B76 JUMPI PUSH2 0x1B76 PUSH2 0x1B2B JUMP JUMPDEST PUSH1 0x0 PUSH1 0x1 DUP3 ADD PUSH2 0x1BCE JUMPI PUSH2 0x1BCE PUSH2 0x1B2B JUMP JUMPDEST POP PUSH1 0x1 ADD SWAP1 JUMP JUMPDEST PUSH1 0x20 DUP1 DUP3 MSTORE PUSH1 0xD SWAP1 DUP3 ADD MSTORE PUSH13 0x6F76657220646561646C696E65 PUSH1 0x98 SHL PUSH1 0x40 DUP3 ADD MSTORE PUSH1 0x60 ADD SWAP1 JUMP JUMPDEST PUSH1 0x20 DUP1 DUP3 MSTORE PUSH1 0x9 SWAP1 DUP3 ADD MSTORE PUSH9 0x3337B93134B23232B7 PUSH1 0xB9 SHL PUSH1 0x40 DUP3 ADD MSTORE PUSH1 0x60 ADD SWAP1 JUMP JUMPDEST PUSH1 0x0 DUP2 PUSH2 0x1C2E JUMPI PUSH2 0x1C2E PUSH2 0x1B2B JUMP JUMPDEST POP PUSH1 0x0 NOT ADD SWAP1 JUMP JUMPDEST PUSH4 0x4E487B71 PUSH1 0xE0 SHL PUSH1 0x0 MSTORE PUSH1 0x31 PUSH1 0x4 MSTORE PUSH1 0x24 PUSH1 0x0 REVERT JUMPDEST PUSH1 0xFF DUP3 DUP2 AND DUP3 DUP3 AND SUB SWAP1 DUP2 GT ISZERO PUSH2 0x1B76 JUMPI PUSH2 0x1B76 PUSH2 0x1B2B JUMP JUMPDEST PUSH1 0x0 PUSH1 0xFF DUP3 AND PUSH1 0xFF DUP2 SUB PUSH2 0x1C7B JUMPI PUSH2 0x1C7B PUSH2 0x1B2B JUMP JUMPDEST PUSH1 0x1 ADD SWAP3 SWAP2 POP POP JUMP JUMPDEST PUSH1 0x0 DUP3 MLOAD PUSH1 0x0 JUMPDEST DUP2 DUP2 LT ISZERO PUSH2 0x1CA5 JUMPI PUSH1 0x20 DUP2 DUP7 ADD DUP2 ADD MLOAD DUP6 DUP4 ADD MSTORE ADD PUSH2 0x1C8B JUMP JUMPDEST POP PUSH1 0x0 SWAP3 ADD SWAP2 DUP3 MSTORE POP SWAP2 SWAP1 POP JUMP JUMPDEST PUSH1 0x0 PUSH1 0x20 DUP3 DUP5 SUB SLT ISZERO PUSH2 0x1CC5 JUMPI PUSH1 0x0 DUP1 REVERT JUMPDEST DUP2 MLOAD DUP1 ISZERO ISZERO DUP2 EQ PUSH2 0x1194 JUMPI PUSH1 0x0 DUP1 REVERT INVALID LOG2 PUSH5 0x6970667358 0x22 SLT KECCAK256 0xDC 0xD9 EXTCODESIZE 0xBB LOG1 GT JUMP 0xBB MLOAD CHAINID 0x25 0xC8 PUSH19 0x2E045EE277E9A7B9EAFD6AA1B7DF9C5D2F8F39 PUSH5 0x736F6C6343 STOP ADDMOD GT STOP CALLER "},"methodIdentifiers":{"BEGIN_TIME()":"c75363b6","END_TIME()":"37ba682d","LOCK_WEEKNUM()":"0d437d40","MAX_SCALE()":"f6def7cf","MAX_WEEKS()":"e11400bb","WEEK_SECONDS()":"cd671a58","acceptSetter()":"5f8e422f","canClaimAmount(address)":"fa60c77c","claimReward(uint256)":"ae169a50","getScore(uint256,uint8)":"ee3453ed","getStaking()":"7b1391a6","latestNo()":"29ed1cfd","lockedRewardAmount(address)":"02e9e495","lpToken()":"5fcbd285","nonce()":"affed0e0","owner()":"8da5cb5b","rewardToken()":"f7c618c1","rewardsOf(uint256)":"0bce1284","setReward(uint256,uint256,uint256)":"e1c05d93","setRewards(uint256[],uint256[],uint256)":"07c6e2fa","stake(uint256,uint8,uint256)":"f99b7d75","stakingERC20s(uint256)":"a218de15","totalScores(uint256)":"157775df","transferOwner(address)":"4fb2e45d","userCanClaimWeeks(address,uint256)":"bb57852d","userERC20s(address,uint256)":"ba086501","userScores(address,uint256)":"5b680a45","withdraw(uint256)":"2e1a7d4d","withdrawRewards(uint256,uint256)":"52cb5133"}}}}}