{"contracts/stakeNFT721.sol":{"StakeNFT721":{"abi":[{"inputs":[{"internalType":"uint8","name":"maxWeeks","type":"uint8"},{"internalType":"uint256","name":"maxScale","type":"uint256"},{"internalType":"uint8","name":"lockWeeks","type":"uint8"},{"internalType":"uint256","name":"beginTime","type":"uint256"},{"internalType":"uint256","name":"endTime","type":"uint256"},{"internalType":"address","name":"_rewardToken","type":"address"},{"internalType":"address","name":"tokenA","type":"address"},{"internalType":"address","name":"tokenB","type":"address"},{"internalType":"address","name":"nft","type":"address"},{"internalType":"int24","name":"tickMin","type":"int24"}],"stateMutability":"nonpayable","type":"constructor"},{"anonymous":false,"inputs":[{"indexed":true,"internalType":"address","name":"user","type":"address"},{"indexed":false,"internalType":"uint256","name":"tokenId","type":"uint256"},{"indexed":false,"internalType":"uint256","name":"amount","type":"uint256"}],"name":"ClaimReward","type":"event"},{"anonymous":false,"inputs":[{"indexed":true,"internalType":"address","name":"user","type":"address"},{"indexed":false,"internalType":"uint256","name":"amount","type":"uint256"}],"name":"ClaimReward","type":"event"},{"anonymous":false,"inputs":[{"indexed":true,"internalType":"address","name":"user","type":"address"},{"indexed":false,"internalType":"uint256","name":"no","type":"uint256"},{"indexed":false,"internalType":"uint256","name":"amount","type":"uint256"}],"name":"SetReward","type":"event"},{"anonymous":false,"inputs":[{"indexed":true,"internalType":"address","name":"user","type":"address"},{"indexed":false,"internalType":"uint256","name":"tokenId","type":"uint256"},{"indexed":false,"internalType":"uint256","name":"amount","type":"uint256"},{"indexed":false,"internalType":"uint8","name":"k","type":"uint8"}],"name":"Stake","type":"event"},{"anonymous":false,"inputs":[{"indexed":true,"internalType":"address","name":"user","type":"address"},{"indexed":false,"internalType":"uint256","name":"tokenId","type":"uint256"}],"name":"Withdraw","type":"event"},{"inputs":[],"name":"BEGIN_TIME","outputs":[{"internalType":"uint256","name":"","type":"uint256"}],"stateMutability":"view","type":"function"},{"inputs":[],"name":"END_TIME","outputs":[{"internalType":"uint256","name":"","type":"uint256"}],"stateMutability":"view","type":"function"},{"inputs":[],"name":"LOCK_WEEKNUM","outputs":[{"internalType":"uint8","name":"","type":"uint8"}],"stateMutability":"view","type":"function"},{"inputs":[],"name":"MAX_SCALE","outputs":[{"internalType":"uint256","name":"","type":"uint256"}],"stateMutability":"view","type":"function"},{"inputs":[],"name":"MAX_WEEKS","outputs":[{"internalType":"uint8","name":"","type":"uint8"}],"stateMutability":"view","type":"function"},{"inputs":[],"name":"WEEK_SECONDS","outputs":[{"internalType":"uint24","name":"","type":"uint24"}],"stateMutability":"view","type":"function"},{"inputs":[],"name":"acceptSetter","outputs":[],"stateMutability":"nonpayable","type":"function"},{"inputs":[],"name":"canClaimAmount","outputs":[{"internalType":"uint256","name":"","type":"uint256"}],"stateMutability":"view","type":"function"},{"inputs":[],"name":"claimReward","outputs":[],"stateMutability":"nonpayable","type":"function"},{"inputs":[{"internalType":"uint256","name":"amount","type":"uint256"},{"internalType":"uint8","name":"k","type":"uint8"}],"name":"getScore","outputs":[{"internalType":"uint256","name":"score","type":"uint256"}],"stateMutability":"view","type":"function"},{"inputs":[],"name":"getUserNFTs","outputs":[{"internalType":"uint256[]","name":"","type":"uint256[]"},{"internalType":"uint256","name":"","type":"uint256"}],"stateMutability":"view","type":"function"},{"inputs":[],"name":"latestNo","outputs":[{"internalType":"uint256","name":"","type":"uint256"}],"stateMutability":"view","type":"function"},{"inputs":[],"name":"lockedRewardAmount","outputs":[{"internalType":"uint256","name":"","type":"uint256"},{"internalType":"uint256[]","name":"","type":"uint256[]"}],"stateMutability":"view","type":"function"},{"inputs":[],"name":"nftToken","outputs":[{"internalType":"contract IIotabeeSwapNFT","name":"","type":"address"}],"stateMutability":"view","type":"function"},{"inputs":[],"name":"owner","outputs":[{"internalType":"address","name":"","type":"address"}],"stateMutability":"view","type":"function"},{"inputs":[],"name":"rewardToken","outputs":[{"internalType":"address","name":"","type":"address"}],"stateMutability":"view","type":"function"},{"inputs":[{"internalType":"uint256","name":"","type":"uint256"}],"name":"rewardsOf","outputs":[{"internalType":"uint256","name":"","type":"uint256"}],"stateMutability":"view","type":"function"},{"inputs":[{"internalType":"uint256","name":"no","type":"uint256"},{"internalType":"uint256","name":"amount","type":"uint256"}],"name":"setReward","outputs":[],"stateMutability":"nonpayable","type":"function"},{"inputs":[{"internalType":"uint256[]","name":"nos","type":"uint256[]"},{"internalType":"uint256[]","name":"amounts","type":"uint256[]"}],"name":"setRewards","outputs":[{"internalType":"uint256","name":"total","type":"uint256"}],"stateMutability":"nonpayable","type":"function"},{"inputs":[{"internalType":"uint256","name":"tokenId","type":"uint256"},{"internalType":"uint8","name":"k","type":"uint8"}],"name":"stake","outputs":[],"stateMutability":"nonpayable","type":"function"},{"inputs":[{"internalType":"uint256","name":"","type":"uint256"}],"name":"stakingNFTs","outputs":[{"internalType":"address","name":"owner","type":"address"},{"internalType":"uint256","name":"score","type":"uint256"},{"internalType":"uint256","name":"beginNo","type":"uint256"},{"internalType":"uint256","name":"endNo","type":"uint256"}],"stateMutability":"view","type":"function"},{"inputs":[],"name":"token0","outputs":[{"internalType":"address","name":"","type":"address"}],"stateMutability":"view","type":"function"},{"inputs":[],"name":"token1","outputs":[{"internalType":"address","name":"","type":"address"}],"stateMutability":"view","type":"function"},{"inputs":[{"internalType":"uint256","name":"","type":"uint256"}],"name":"totalScores","outputs":[{"internalType":"uint256","name":"","type":"uint256"}],"stateMutability":"view","type":"function"},{"inputs":[{"internalType":"address","name":"_owner","type":"address"}],"name":"transferOwner","outputs":[],"stateMutability":"nonpayable","type":"function"},{"inputs":[{"internalType":"address","name":"","type":"address"},{"internalType":"uint256","name":"","type":"uint256"}],"name":"userCanClaimWeeks","outputs":[{"internalType":"uint256","name":"","type":"uint256"}],"stateMutability":"view","type":"function"},{"inputs":[{"internalType":"address","name":"","type":"address"},{"internalType":"uint256","name":"","type":"uint256"}],"name":"userNFTs","outputs":[{"internalType":"uint256","name":"","type":"uint256"}],"stateMutability":"view","type":"function"},{"inputs":[{"internalType":"address","name":"","type":"address"},{"internalType":"uint256","name":"","type":"uint256"}],"name":"userScores","outputs":[{"internalType":"uint256","name":"","type":"uint256"}],"stateMutability":"view","type":"function"},{"inputs":[{"internalType":"uint256","name":"tokenId","type":"uint256"}],"name":"withdraw","outputs":[],"stateMutability":"nonpayable","type":"function"},{"inputs":[{"internalType":"uint256[]","name":"tokenIds","type":"uint256[]"}],"name":"withdraw","outputs":[],"stateMutability":"nonpayable","type":"function"},{"inputs":[{"internalType":"uint256","name":"amount","type":"uint256"}],"name":"withdrawRewards","outputs":[],"stateMutability":"nonpayable","type":"function"}],"evm":{"bytecode":{"linkReferences":{},"object":"6101e06040523480156200001257600080fd5b506040516200242138038062002421833981016040819052620000359162000103565b6001600160a01b0380861660805260ff808c1660a05260c08b9052891660e052610100889052610120879052600080546001600160a01b0319163317905583811690851610620000875782846200008a565b83835b6001600160a01b039081166101c0529081166101a052821661018052600281900b610140819052620000bc90620001c0565b60020b6101605250620001f198505050505050505050565b805160ff81168114620000e657600080fd5b919050565b80516001600160a01b0381168114620000e657600080fd5b6000806000806000806000806000806101408b8d0312156200012457600080fd5b6200012f8b620000d4565b995060208b015198506200014660408c01620000d4565b975060608b0151965060808b015195506200016460a08c01620000eb565b94506200017460c08c01620000eb565b93506200018460e08c01620000eb565b9250620001956101008c01620000eb565b91506101208b01518060020b8114620001ad57600080fd5b809150509295989b9194979a5092959850565b60008160020b627fffff198103620001e857634e487b7160e01b600052601160045260246000fd5b60000392915050565b60805160a05160c05160e05161010051610120516101405161016051610180516101a0516101c05161210f62000312600039600081816104d701526116db01526000818161025b015261169f0152600081816104b0015281816109e4015281816115fe0152818161180401526118d50152600061177d0152600061174d01526000818161036701528181610e8f015261111401526000818161046c01528181610eba015261113f01526000818161022201528181610b3701528181610c2701528181610dcd015261124601526000818161053801526114380152600081816104fe015281816105a7015281816113d401526113ff01526000818161055f01528181610e390152818161103a015281816111a7015261134e015261210f6000f3fe608060405234801561001057600080fd5b50600436106101e55760003560e01c80638da5cb5b1161010f578063cd671a58116100a2578063ee3453ed11610071578063ee3453ed14610520578063f6def7cf14610533578063f7c618c11461055a578063fdc5ab8e1461058157600080fd5b8063cd671a581461048e578063d06fcba8146104ab578063d21220a7146104d2578063e11400bb146104f957600080fd5b8063a47bd496116100de578063a47bd49614610439578063b88a802f1461044c578063bb57852d14610454578063c75363b61461046757600080fd5b80638da5cb5b146103ed5780639342c8f414610400578063979db1c414610413578063983d95ce1461042657600080fd5b806329ed1cfd116101875780635b680a45116101565780635b680a451461039c5780635f8e422f146103c75780638431165e146103cf5780638923de2b146103d757600080fd5b806329ed1cfd146103465780632e1a7d4d1461034f57806337ba682d146103625780634fb2e45d1461038957600080fd5b806310087fb1116101c357806310087fb11461029557806310c6c1c2146102aa578063157775df14610313578063291c73c31461033357600080fd5b80630bce1284146101ea5780630d437d401461021d5780630dfe168114610256575b600080fd5b61020a6101f8366004611b75565b60056020526000908152604090205481565b6040519081526020015b60405180910390f35b6102447f000000000000000000000000000000000000000000000000000000000000000081565b60405160ff9091168152602001610214565b61027d7f000000000000000000000000000000000000000000000000000000000000000081565b6040516001600160a01b039091168152602001610214565b6102a86102a3366004611b8e565b610597565b005b6102e96102b8366004611b75565b60076020526000908152604090208054600182015460028301546003909301546001600160a01b0390921692909184565b604080516001600160a01b0390951685526020850193909352918301526060820152608001610214565b61020a610321366004611b75565b60046020526000908152604090205481565b61020a610341366004611bd9565b610821565b61020a60065481565b6102a861035d366004611b75565b610852565b61020a7f000000000000000000000000000000000000000000000000000000000000000081565b6102a8610397366004611c05565b610a93565b61020a6103aa366004611bd9565b600260209081526000928352604080842090915290825290205481565b6102a8610adf565b61020a610b30565b6103df610c1e565b604051610214929190611c5d565b60005461027d906001600160a01b031681565b6102a861040e366004611b75565b610e0a565b61020a610421366004611d2f565b610e62565b6102a8610434366004611d93565b6110a4565b6102a8610447366004611dc8565b6110e8565b6102a8611240565b61020a610462366004611bd9565b6113a6565b61020a7f000000000000000000000000000000000000000000000000000000000000000081565b61049761025881565b60405162ffffff9091168152602001610214565b61027d7f000000000000000000000000000000000000000000000000000000000000000081565b61027d7f000000000000000000000000000000000000000000000000000000000000000081565b6102447f000000000000000000000000000000000000000000000000000000000000000081565b61020a61052e366004611b8e565b6113cb565b61020a7f000000000000000000000000000000000000000000000000000000000000000081565b61027d7f000000000000000000000000000000000000000000000000000000000000000081565b610589611495565b604051610214929190611dea565b60008160ff161180156105d057507f000000000000000000000000000000000000000000000000000000000000000060ff168160ff1611155b6106155760405162461bcd60e51b815260206004820152601160248201527039ba30b5b2903bb2b2b5b99032b93937b960791b60448201526064015b60405180910390fd5b6000610620836115f3565b9050600061063061025842611e22565b61063b906001611e44565b9050600061064983856113cb565b905060005b8460ff168160ff1610156106e357816004600061066e60ff851687611e44565b8152602001908152602001600020600082825461068b9190611e44565b909155505033600090815260026020526040812083916106ae60ff851687611e44565b815260200190815260200160002060008282546106cb9190611e44565b909155508190506106db81611e5d565b91505061064e565b5060006106f360ff861684611e44565b604080516080810182523380825260208083018781528385018981526060850187815260008e815260078552878120965187546001600160a01b0319166001600160a01b03909116178755925160018088019190915591516002870155516003958601559281529290529190209081015490549192509003610782573360009081526003602052604090208390555b33600090815260036020526040902081906001015410156107b3573360009081526003602052604090208190600101555b336000818152600860209081526040808320805460018101825590845292829020909201899055815189815290810187905260ff88168183015290517f6fa2f6021ee337436cdf2b2570285886da18bc06402ce284d296504a0fe8f8759181900360600190a2505050505050565b6008602052816000526040600020818154811061083d57600080fd5b90600052602060002001600091509150505481565b6000818152600760205260409020546001600160a01b031633146108aa5760405162461bcd60e51b815260206004820152600f60248201526e37bbb732b9103337b93134b23232b760891b604482015260640161060c565b60006108b861025842611e22565b60008381526007602052604090206003015490915081101561090a5760405162461bcd60e51b815260206004820152600b60248201526a6c6f636b65642074696d6560a81b604482015260640161060c565b336000908152600860205260408120905b8154811015610a575781818154811061093657610936611e7c565b90600052602060002001548403610a45578154829061095790600190611e92565b8154811061096757610967611e7c565b906000526020600020015482828154811061098457610984611e7c565b9060005260206000200181905550818054806109a2576109a2611ea5565b600082815260208120820160001990810191909155019055604051632142170760e11b8152306004820152336024820152604481018590526001600160a01b037f000000000000000000000000000000000000000000000000000000000000000016906342842e0e90606401600060405180830381600087803b158015610a2857600080fd5b505af1158015610a3c573d6000803e3d6000fd5b50505050610a57565b80610a4f81611ebb565b91505061091b565b5060405183815233907f884edad9ce6fa2440d8a54cc123490eb96d2768479d49ff9c7366125a9424364906020015b60405180910390a2505050565b6000546001600160a01b03163314610abd5760405162461bcd60e51b815260040161060c90611ed4565b600180546001600160a01b0319166001600160a01b0392909216919091179055565b6001546001600160a01b03163314610b095760405162461bcd60e51b815260040161060c90611ed4565b60018054600080546001600160a01b03199081166001600160a01b03841617909155169055565b60008060ff7f000000000000000000000000000000000000000000000000000000000000000016610b6361025842611e22565b610b6d9190611e92565b33600090815260036020526040812054919250905b33600090815260036020526040902060010154811015610c1757828111610c175760008181526004602052604090205415610c0557600081815260046020908152604080832054338452600283528184208585528352818420546005909352922054610bee9190611ef7565b610bf89190611e22565b610c029083611e44565b91505b80610c0f81611ebb565b915050610b82565b5092915050565b600060608160ff7f000000000000000000000000000000000000000000000000000000000000000016610c5361025842611e22565b610c5d9190611e92565b610c68906001611e44565b33600090815260036020526040902090915081906001015411610c9d5760408051600081526020810190915290939092509050565b33600090815260036020526040812080546001909101549091838311610cc35783610cc5565b825b90506000610cd38284611e92565b67ffffffffffffffff811115610ceb57610ceb611c7e565b604051908082528060200260200182016040528015610d14578160200160208202803683370190505b509050815b83811015610db65760008181526004602052604090205415610d7b57600081815260046020908152604080832054338452600283528184208585528352818420546005909352922054610d6c9190611ef7565b610d769190611e22565b610d7e565b60005b82610d898584611e92565b81518110610d9957610d99611e7c565b602090810291909101015280610dae81611ebb565b915050610d19565b506000610dc561025842611e22565b610df28460ff7f000000000000000000000000000000000000000000000000000000000000000016611e44565b610dfc9190611e92565b989197509095505050505050565b6000546001600160a01b03163314610e345760405162461bcd60e51b815260040161060c90611ed4565b610e5f7f0000000000000000000000000000000000000000000000000000000000000000338361194e565b50565b600080546001600160a01b03163314610e8d5760405162461bcd60e51b815260040161060c90611ed4565b7f00000000000000000000000000000000000000000000000000000000000000004211158015610edd57507f00000000000000000000000000000000000000000000000000000000000000004210155b610f1d5760405162461bcd60e51b81526020600482015260116024820152701b9bdd081a5b881d1a19481c195c9a5bd9607a1b604482015260640161060c565b8151835114610f615760405162461bcd60e51b815260206004820152601060248201526f3830b930b6b2ba32b9399032b93937b960811b604482015260640161060c565b6000805b845181101561102f57838181518110610f8057610f80611e7c565b602002602001015183610f939190611e44565b9250838181518110610fa757610fa7611e7c565b602002602001015160056000878481518110610fc557610fc5611e7c565b602002602001015181526020019081526020016000208190555081858281518110610ff257610ff2611e7c565b6020026020010151111561101d5784818151811061101257611012611e7c565b602002602001015191505b8061102781611ebb565b915050610f65565b5060068190556110617f0000000000000000000000000000000000000000000000000000000000000000333085611a5b565b60408051600081526020810184905233917fc3991418cacd70a010fce559a44fcbb47534ca43bf7543964bdca2639f6e6e5a910160405180910390a25092915050565b60005b81518110156110e4576110d28282815181106110c5576110c5611e7c565b6020026020010151610852565b806110dc81611ebb565b9150506110a7565b5050565b6000546001600160a01b031633146111125760405162461bcd60e51b815260040161060c90611ed4565b7f0000000000000000000000000000000000000000000000000000000000000000421115801561116257507f00000000000000000000000000000000000000000000000000000000000000004210155b6111a25760405162461bcd60e51b81526020600482015260116024820152701b9bdd081a5b881d1a19481c195c9a5bd9607a1b604482015260640161060c565b6111ce7f0000000000000000000000000000000000000000000000000000000000000000333084611a5b565b600082815260056020526040812080548392906111ec908490611e44565b90915550506006548211156112015760068290555b604080518381526020810183905233917fc3991418cacd70a010fce559a44fcbb47534ca43bf7543964bdca2639f6e6e5a910160405180910390a25050565b600060ff7f00000000000000000000000000000000000000000000000000000000000000001661127261025842611e22565b61127c9190611e92565b3360009081526003602052604081205491925090805b3360009081526003602052604090206001015481101561133557838111611335576112be816001611e44565b600082815260046020526040902054909250156113235760008181526004602090815260408083205433845260028352818420858552835281842054600590935292205461130c9190611ef7565b6113169190611e22565b6113209084611e44565b92505b8061132d81611ebb565b915050611292565b50336000908152600360205260408120829101556113747f0000000000000000000000000000000000000000000000000000000000000000338461194e565b60405182815233907fba8de60c3403ec381d1d484652ea1980e3c3e56359195c92525bff4ce47ad98e90602001610a86565b600360205281600052604060002081600281106113c257600080fd5b01549150829050565b60006113f860017f0000000000000000000000000000000000000000000000000000000000000000611f0e565b60ff1660017f000000000000000000000000000000000000000000000000000000000000000060ff1660018561142e9190611f0e565b60ff1661145c60017f0000000000000000000000000000000000000000000000000000000000000000611e92565b6114669190611ef7565b6114709190611e44565b61147a9190611e92565b6114849085611ef7565b61148e9190611e22565b9392505050565b3360009081526008602052604081205460609190819067ffffffffffffffff8111156114c3576114c3611c7e565b6040519080825280602002602001820160405280156114ec578160200160208202803683370190505b50905060006114fd61025842611e22565b3360009081526008602052604081205491925090815b336000908152600860205260409020548110156115e65733600090815260086020526040812080548390811061154b5761154b611e7c565b9060005260206000200154905084600760008381526020019081526020016000206003015411156115a6578086858151811061158957611589611e7c565b60209081029190910101528361159e81611ebb565b9450506115d3565b826115b081611f27565b935050808684815181106115c6576115c6611e7c565b6020026020010181815250505b50806115de81611ebb565b915050611513565b5092959294509192505050565b6000806000806000807f00000000000000000000000000000000000000000000000000000000000000006001600160a01b03166399fbab88886040518263ffffffff1660e01b815260040161164a91815260200190565b61018060405180830381865afa158015611668573d6000803e3d6000fd5b505050506040513d601f19601f8201168201806040525081019061168c9190611f8a565b50505050975097509750509650965050507f00000000000000000000000000000000000000000000000000000000000000006001600160a01b0316856001600160a01b031614801561170f57507f00000000000000000000000000000000000000000000000000000000000000006001600160a01b0316846001600160a01b0316145b61174b5760405162461bcd60e51b815260206004820152600d60248201526c3638103830b4b91032b93937b960991b604482015260640161060c565b7f000000000000000000000000000000000000000000000000000000000000000060020b8360020b1480156117a557507f000000000000000000000000000000000000000000000000000000000000000060020b8260020b145b6117e45760405162461bcd60e51b815260206004820152601060248201526f3a34b1b5903930b733b29032b93937b960811b604482015260640161060c565b60405163020604bf60e21b81526004810188905230906001600160a01b037f0000000000000000000000000000000000000000000000000000000000000000169063081812fc90602401602060405180830381865afa15801561184b573d6000803e3d6000fd5b505050506040513d601f19601f8201168201806040525081019061186f919061206b565b6001600160a01b0316146118b35760405162461bcd60e51b815260206004820152600b60248201526a6e6f7420617070726f766560a81b604482015260640161060c565b604051632142170760e11b8152336004820152306024820152604481018890527f00000000000000000000000000000000000000000000000000000000000000006001600160a01b0316906342842e0e90606401600060405180830381600087803b15801561192157600080fd5b505af1158015611935573d6000803e3d6000fd5b50506001600160801b0390921698975050505050505050565b604080516001600160a01b038481166024830152604480830185905283518084039091018152606490920183526020820180516001600160e01b031663a9059cbb60e01b17905291516000928392908716916119aa9190612088565b6000604051808303816000865af19150503d80600081146119e7576040519150601f19603f3d011682016040523d82523d6000602084013e6119ec565b606091505b5091509150818015611a16575080511580611a16575080806020019051810190611a1691906120b7565b611a545760405162461bcd60e51b815260206004820152600f60248201526e1514905394d1915497d19052531151608a1b604482015260640161060c565b5050505050565b604080516001600160a01b0385811660248301528481166044830152606480830185905283518084039091018152608490920183526020820180516001600160e01b03166323b872dd60e01b1790529151600092839290881691611abf9190612088565b6000604051808303816000865af19150503d8060008114611afc576040519150601f19603f3d011682016040523d82523d6000602084013e611b01565b606091505b5091509150818015611b2b575080511580611b2b575080806020019051810190611b2b91906120b7565b611b6d5760405162461bcd60e51b81526020600482015260136024820152721d1c985b9cd9995c919c9bdb4819985a5b1959606a1b604482015260640161060c565b505050505050565b600060208284031215611b8757600080fd5b5035919050565b60008060408385031215611ba157600080fd5b82359150602083013560ff81168114611bb957600080fd5b809150509250929050565b6001600160a01b0381168114610e5f57600080fd5b60008060408385031215611bec57600080fd5b8235611bf781611bc4565b946020939093013593505050565b600060208284031215611c1757600080fd5b813561148e81611bc4565b600081518084526020808501945080840160005b83811015611c5257815187529582019590820190600101611c36565b509495945050505050565b828152604060208201526000611c766040830184611c22565b949350505050565b634e487b7160e01b600052604160045260246000fd5b600082601f830112611ca557600080fd5b8135602067ffffffffffffffff80831115611cc257611cc2611c7e565b8260051b604051601f19603f83011681018181108482111715611ce757611ce7611c7e565b604052938452858101830193838101925087851115611d0557600080fd5b83870191505b84821015611d2457813583529183019190830190611d0b565b979650505050505050565b60008060408385031215611d4257600080fd5b823567ffffffffffffffff80821115611d5a57600080fd5b611d6686838701611c94565b93506020850135915080821115611d7c57600080fd5b50611d8985828601611c94565b9150509250929050565b600060208284031215611da557600080fd5b813567ffffffffffffffff811115611dbc57600080fd5b611c7684828501611c94565b60008060408385031215611ddb57600080fd5b50508035926020909101359150565b604081526000611dfd6040830185611c22565b90508260208301529392505050565b634e487b7160e01b600052601160045260246000fd5b600082611e3f57634e487b7160e01b600052601260045260246000fd5b500490565b80820180821115611e5757611e57611e0c565b92915050565b600060ff821660ff8103611e7357611e73611e0c565b60010192915050565b634e487b7160e01b600052603260045260246000fd5b81810381811115611e5757611e57611e0c565b634e487b7160e01b600052603160045260246000fd5b600060018201611ecd57611ecd611e0c565b5060010190565b6020808252600990820152683337b93134b23232b760b91b604082015260600190565b8082028115828204841417611e5757611e57611e0c565b60ff8281168282160390811115611e5757611e57611e0c565b600081611f3657611f36611e0c565b506000190190565b8051611f4981611bc4565b919050565b805162ffffff81168114611f4957600080fd5b8051600281900b8114611f4957600080fd5b80516001600160801b0381168114611f4957600080fd5b6000806000806000806000806000806000806101808d8f031215611fad57600080fd5b8c516bffffffffffffffffffffffff81168114611fc957600080fd5b9b50611fd760208e01611f3e565b9a50611fe560408e01611f3e565b9950611ff360608e01611f3e565b985061200160808e01611f4e565b975061200f60a08e01611f61565b965061201d60c08e01611f61565b955061202b60e08e01611f73565b94506101008d015193506101208d0151925061204a6101408e01611f73565b91506120596101608e01611f73565b90509295989b509295989b509295989b565b60006020828403121561207d57600080fd5b815161148e81611bc4565b6000825160005b818110156120a9576020818601810151858301520161208f565b506000920191825250919050565b6000602082840312156120c957600080fd5b8151801515811461148e57600080fdfea2646970667358221220b2a666f71414d3bf7f75a74edd946e394c43b7b6f83d077e56ece9c20a83337964736f6c63430008110033","opcodes":"PUSH2 0x1E0 PUSH1 0x40 MSTORE CALLVALUE DUP1 ISZERO PUSH3 0x12 JUMPI PUSH1 0x0 DUP1 REVERT JUMPDEST POP PUSH1 0x40 MLOAD PUSH3 0x2421 CODESIZE SUB DUP1 PUSH3 0x2421 DUP4 CODECOPY DUP2 ADD PUSH1 0x40 DUP2 SWAP1 MSTORE PUSH3 0x35 SWAP2 PUSH3 0x103 JUMP JUMPDEST PUSH1 0x1 PUSH1 0x1 PUSH1 0xA0 SHL SUB DUP1 DUP7 AND PUSH1 0x80 MSTORE PUSH1 0xFF DUP1 DUP13 AND PUSH1 0xA0 MSTORE PUSH1 0xC0 DUP12 SWAP1 MSTORE DUP10 AND PUSH1 0xE0 MSTORE PUSH2 0x100 DUP9 SWAP1 MSTORE PUSH2 0x120 DUP8 SWAP1 MSTORE PUSH1 0x0 DUP1 SLOAD PUSH1 0x1 PUSH1 0x1 PUSH1 0xA0 SHL SUB NOT AND CALLER OR SWAP1 SSTORE DUP4 DUP2 AND SWAP1 DUP6 AND LT PUSH3 0x87 JUMPI DUP3 DUP5 PUSH3 0x8A JUMP JUMPDEST DUP4 DUP4 JUMPDEST PUSH1 0x1 PUSH1 0x1 PUSH1 0xA0 SHL SUB SWAP1 DUP2 AND PUSH2 0x1C0 MSTORE SWAP1 DUP2 AND PUSH2 0x1A0 MSTORE DUP3 AND PUSH2 0x180 MSTORE PUSH1 0x2 DUP2 SWAP1 SIGNEXTEND PUSH2 0x140 DUP2 SWAP1 MSTORE PUSH3 0xBC SWAP1 PUSH3 0x1C0 JUMP JUMPDEST PUSH1 0x2 SIGNEXTEND PUSH2 0x160 MSTORE POP PUSH3 0x1F1 SWAP9 POP POP POP POP POP POP POP POP POP JUMP JUMPDEST DUP1 MLOAD PUSH1 0xFF DUP2 AND DUP2 EQ PUSH3 0xE6 JUMPI PUSH1 0x0 DUP1 REVERT JUMPDEST SWAP2 SWAP1 POP JUMP JUMPDEST DUP1 MLOAD PUSH1 0x1 PUSH1 0x1 PUSH1 0xA0 SHL SUB DUP2 AND DUP2 EQ PUSH3 0xE6 JUMPI PUSH1 0x0 DUP1 REVERT JUMPDEST PUSH1 0x0 DUP1 PUSH1 0x0 DUP1 PUSH1 0x0 DUP1 PUSH1 0x0 DUP1 PUSH1 0x0 DUP1 PUSH2 0x140 DUP12 DUP14 SUB SLT ISZERO PUSH3 0x124 JUMPI PUSH1 0x0 DUP1 REVERT JUMPDEST PUSH3 0x12F DUP12 PUSH3 0xD4 JUMP JUMPDEST SWAP10 POP PUSH1 0x20 DUP12 ADD MLOAD SWAP9 POP PUSH3 0x146 PUSH1 0x40 DUP13 ADD PUSH3 0xD4 JUMP JUMPDEST SWAP8 POP PUSH1 0x60 DUP12 ADD MLOAD SWAP7 POP PUSH1 0x80 DUP12 ADD MLOAD SWAP6 POP PUSH3 0x164 PUSH1 0xA0 DUP13 ADD PUSH3 0xEB JUMP JUMPDEST SWAP5 POP PUSH3 0x174 PUSH1 0xC0 DUP13 ADD PUSH3 0xEB JUMP JUMPDEST SWAP4 POP PUSH3 0x184 PUSH1 0xE0 DUP13 ADD PUSH3 0xEB JUMP JUMPDEST SWAP3 POP PUSH3 0x195 PUSH2 0x100 DUP13 ADD PUSH3 0xEB JUMP JUMPDEST SWAP2 POP PUSH2 0x120 DUP12 ADD MLOAD DUP1 PUSH1 0x2 SIGNEXTEND DUP2 EQ PUSH3 0x1AD JUMPI PUSH1 0x0 DUP1 REVERT JUMPDEST DUP1 SWAP2 POP POP SWAP3 SWAP6 SWAP9 SWAP12 SWAP2 SWAP5 SWAP8 SWAP11 POP SWAP3 SWAP6 SWAP9 POP JUMP JUMPDEST PUSH1 0x0 DUP2 PUSH1 0x2 SIGNEXTEND PUSH3 0x7FFFFF NOT DUP2 SUB PUSH3 0x1E8 JUMPI PUSH4 0x4E487B71 PUSH1 0xE0 SHL PUSH1 0x0 MSTORE PUSH1 0x11 PUSH1 0x4 MSTORE PUSH1 0x24 PUSH1 0x0 REVERT JUMPDEST PUSH1 0x0 SUB SWAP3 SWAP2 POP POP JUMP JUMPDEST PUSH1 0x80 MLOAD PUSH1 0xA0 MLOAD PUSH1 0xC0 MLOAD PUSH1 0xE0 MLOAD PUSH2 0x100 MLOAD PUSH2 0x120 MLOAD PUSH2 0x140 MLOAD PUSH2 0x160 MLOAD PUSH2 0x180 MLOAD PUSH2 0x1A0 MLOAD PUSH2 0x1C0 MLOAD PUSH2 0x210F PUSH3 0x312 PUSH1 0x0 CODECOPY PUSH1 0x0 DUP2 DUP2 PUSH2 0x4D7 ADD MSTORE PUSH2 0x16DB ADD MSTORE PUSH1 0x0 DUP2 DUP2 PUSH2 0x25B ADD MSTORE PUSH2 0x169F ADD MSTORE PUSH1 0x0 DUP2 DUP2 PUSH2 0x4B0 ADD MSTORE DUP2 DUP2 PUSH2 0x9E4 ADD MSTORE DUP2 DUP2 PUSH2 0x15FE ADD MSTORE DUP2 DUP2 PUSH2 0x1804 ADD MSTORE PUSH2 0x18D5 ADD MSTORE PUSH1 0x0 PUSH2 0x177D ADD MSTORE PUSH1 0x0 PUSH2 0x174D ADD MSTORE PUSH1 0x0 DUP2 DUP2 PUSH2 0x367 ADD MSTORE DUP2 DUP2 PUSH2 0xE8F ADD MSTORE PUSH2 0x1114 ADD MSTORE PUSH1 0x0 DUP2 DUP2 PUSH2 0x46C ADD MSTORE DUP2 DUP2 PUSH2 0xEBA ADD MSTORE PUSH2 0x113F ADD MSTORE PUSH1 0x0 DUP2 DUP2 PUSH2 0x222 ADD MSTORE DUP2 DUP2 PUSH2 0xB37 ADD MSTORE DUP2 DUP2 PUSH2 0xC27 ADD MSTORE DUP2 DUP2 PUSH2 0xDCD ADD MSTORE PUSH2 0x1246 ADD MSTORE PUSH1 0x0 DUP2 DUP2 PUSH2 0x538 ADD MSTORE PUSH2 0x1438 ADD MSTORE PUSH1 0x0 DUP2 DUP2 PUSH2 0x4FE ADD MSTORE DUP2 DUP2 PUSH2 0x5A7 ADD MSTORE DUP2 DUP2 PUSH2 0x13D4 ADD MSTORE PUSH2 0x13FF ADD MSTORE PUSH1 0x0 DUP2 DUP2 PUSH2 0x55F ADD MSTORE DUP2 DUP2 PUSH2 0xE39 ADD MSTORE DUP2 DUP2 PUSH2 0x103A ADD MSTORE DUP2 DUP2 PUSH2 0x11A7 ADD MSTORE PUSH2 0x134E ADD MSTORE PUSH2 0x210F PUSH1 0x0 RETURN INVALID PUSH1 0x80 PUSH1 0x40 MSTORE CALLVALUE DUP1 ISZERO PUSH2 0x10 JUMPI PUSH1 0x0 DUP1 REVERT JUMPDEST POP PUSH1 0x4 CALLDATASIZE LT PUSH2 0x1E5 JUMPI PUSH1 0x0 CALLDATALOAD PUSH1 0xE0 SHR DUP1 PUSH4 0x8DA5CB5B GT PUSH2 0x10F JUMPI DUP1 PUSH4 0xCD671A58 GT PUSH2 0xA2 JUMPI DUP1 PUSH4 0xEE3453ED GT PUSH2 0x71 JUMPI DUP1 PUSH4 0xEE3453ED EQ PUSH2 0x520 JUMPI DUP1 PUSH4 0xF6DEF7CF EQ PUSH2 0x533 JUMPI DUP1 PUSH4 0xF7C618C1 EQ PUSH2 0x55A JUMPI DUP1 PUSH4 0xFDC5AB8E EQ PUSH2 0x581 JUMPI PUSH1 0x0 DUP1 REVERT JUMPDEST DUP1 PUSH4 0xCD671A58 EQ PUSH2 0x48E JUMPI DUP1 PUSH4 0xD06FCBA8 EQ PUSH2 0x4AB JUMPI DUP1 PUSH4 0xD21220A7 EQ PUSH2 0x4D2 JUMPI DUP1 PUSH4 0xE11400BB EQ PUSH2 0x4F9 JUMPI PUSH1 0x0 DUP1 REVERT JUMPDEST DUP1 PUSH4 0xA47BD496 GT PUSH2 0xDE JUMPI DUP1 PUSH4 0xA47BD496 EQ PUSH2 0x439 JUMPI DUP1 PUSH4 0xB88A802F EQ PUSH2 0x44C JUMPI DUP1 PUSH4 0xBB57852D EQ PUSH2 0x454 JUMPI DUP1 PUSH4 0xC75363B6 EQ PUSH2 0x467 JUMPI PUSH1 0x0 DUP1 REVERT JUMPDEST DUP1 PUSH4 0x8DA5CB5B EQ PUSH2 0x3ED JUMPI DUP1 PUSH4 0x9342C8F4 EQ PUSH2 0x400 JUMPI DUP1 PUSH4 0x979DB1C4 EQ PUSH2 0x413 JUMPI DUP1 PUSH4 0x983D95CE EQ PUSH2 0x426 JUMPI PUSH1 0x0 DUP1 REVERT JUMPDEST DUP1 PUSH4 0x29ED1CFD GT PUSH2 0x187 JUMPI DUP1 PUSH4 0x5B680A45 GT PUSH2 0x156 JUMPI DUP1 PUSH4 0x5B680A45 EQ PUSH2 0x39C JUMPI DUP1 PUSH4 0x5F8E422F EQ PUSH2 0x3C7 JUMPI DUP1 PUSH4 0x8431165E EQ PUSH2 0x3CF JUMPI DUP1 PUSH4 0x8923DE2B EQ PUSH2 0x3D7 JUMPI PUSH1 0x0 DUP1 REVERT JUMPDEST DUP1 PUSH4 0x29ED1CFD EQ PUSH2 0x346 JUMPI DUP1 PUSH4 0x2E1A7D4D EQ PUSH2 0x34F JUMPI DUP1 PUSH4 0x37BA682D EQ PUSH2 0x362 JUMPI DUP1 PUSH4 0x4FB2E45D EQ PUSH2 0x389 JUMPI PUSH1 0x0 DUP1 REVERT JUMPDEST DUP1 PUSH4 0x10087FB1 GT PUSH2 0x1C3 JUMPI DUP1 PUSH4 0x10087FB1 EQ PUSH2 0x295 JUMPI DUP1 PUSH4 0x10C6C1C2 EQ PUSH2 0x2AA JUMPI DUP1 PUSH4 0x157775DF EQ PUSH2 0x313 JUMPI DUP1 PUSH4 0x291C73C3 EQ PUSH2 0x333 JUMPI PUSH1 0x0 DUP1 REVERT JUMPDEST DUP1 PUSH4 0xBCE1284 EQ PUSH2 0x1EA JUMPI DUP1 PUSH4 0xD437D40 EQ PUSH2 0x21D JUMPI DUP1 PUSH4 0xDFE1681 EQ PUSH2 0x256 JUMPI JUMPDEST PUSH1 0x0 DUP1 REVERT JUMPDEST PUSH2 0x20A PUSH2 0x1F8 CALLDATASIZE PUSH1 0x4 PUSH2 0x1B75 JUMP JUMPDEST PUSH1 0x5 PUSH1 0x20 MSTORE PUSH1 0x0 SWAP1 DUP2 MSTORE PUSH1 0x40 SWAP1 KECCAK256 SLOAD DUP2 JUMP JUMPDEST PUSH1 0x40 MLOAD SWAP1 DUP2 MSTORE PUSH1 0x20 ADD JUMPDEST PUSH1 0x40 MLOAD DUP1 SWAP2 SUB SWAP1 RETURN JUMPDEST PUSH2 0x244 PUSH32 0x0 DUP2 JUMP JUMPDEST PUSH1 0x40 MLOAD PUSH1 0xFF SWAP1 SWAP2 AND DUP2 MSTORE PUSH1 0x20 ADD PUSH2 0x214 JUMP JUMPDEST PUSH2 0x27D PUSH32 0x0 DUP2 JUMP JUMPDEST PUSH1 0x40 MLOAD PUSH1 0x1 PUSH1 0x1 PUSH1 0xA0 SHL SUB SWAP1 SWAP2 AND DUP2 MSTORE PUSH1 0x20 ADD PUSH2 0x214 JUMP JUMPDEST PUSH2 0x2A8 PUSH2 0x2A3 CALLDATASIZE PUSH1 0x4 PUSH2 0x1B8E JUMP JUMPDEST PUSH2 0x597 JUMP JUMPDEST STOP JUMPDEST PUSH2 0x2E9 PUSH2 0x2B8 CALLDATASIZE PUSH1 0x4 PUSH2 0x1B75 JUMP JUMPDEST PUSH1 0x7 PUSH1 0x20 MSTORE PUSH1 0x0 SWAP1 DUP2 MSTORE PUSH1 0x40 SWAP1 KECCAK256 DUP1 SLOAD PUSH1 0x1 DUP3 ADD SLOAD PUSH1 0x2 DUP4 ADD SLOAD PUSH1 0x3 SWAP1 SWAP4 ADD SLOAD PUSH1 0x1 PUSH1 0x1 PUSH1 0xA0 SHL SUB SWAP1 SWAP3 AND SWAP3 SWAP1 SWAP2 DUP5 JUMP JUMPDEST PUSH1 0x40 DUP1 MLOAD PUSH1 0x1 PUSH1 0x1 PUSH1 0xA0 SHL SUB SWAP1 SWAP6 AND DUP6 MSTORE PUSH1 0x20 DUP6 ADD SWAP4 SWAP1 SWAP4 MSTORE SWAP2 DUP4 ADD MSTORE PUSH1 0x60 DUP3 ADD MSTORE PUSH1 0x80 ADD PUSH2 0x214 JUMP JUMPDEST PUSH2 0x20A PUSH2 0x321 CALLDATASIZE PUSH1 0x4 PUSH2 0x1B75 JUMP JUMPDEST PUSH1 0x4 PUSH1 0x20 MSTORE PUSH1 0x0 SWAP1 DUP2 MSTORE PUSH1 0x40 SWAP1 KECCAK256 SLOAD DUP2 JUMP JUMPDEST PUSH2 0x20A PUSH2 0x341 CALLDATASIZE PUSH1 0x4 PUSH2 0x1BD9 JUMP JUMPDEST PUSH2 0x821 JUMP JUMPDEST PUSH2 0x20A PUSH1 0x6 SLOAD DUP2 JUMP JUMPDEST PUSH2 0x2A8 PUSH2 0x35D CALLDATASIZE PUSH1 0x4 PUSH2 0x1B75 JUMP JUMPDEST PUSH2 0x852 JUMP JUMPDEST PUSH2 0x20A PUSH32 0x0 DUP2 JUMP JUMPDEST PUSH2 0x2A8 PUSH2 0x397 CALLDATASIZE PUSH1 0x4 PUSH2 0x1C05 JUMP JUMPDEST PUSH2 0xA93 JUMP JUMPDEST PUSH2 0x20A PUSH2 0x3AA CALLDATASIZE PUSH1 0x4 PUSH2 0x1BD9 JUMP JUMPDEST PUSH1 0x2 PUSH1 0x20 SWAP1 DUP2 MSTORE PUSH1 0x0 SWAP3 DUP4 MSTORE PUSH1 0x40 DUP1 DUP5 KECCAK256 SWAP1 SWAP2 MSTORE SWAP1 DUP3 MSTORE SWAP1 KECCAK256 SLOAD DUP2 JUMP JUMPDEST PUSH2 0x2A8 PUSH2 0xADF JUMP JUMPDEST PUSH2 0x20A PUSH2 0xB30 JUMP JUMPDEST PUSH2 0x3DF PUSH2 0xC1E JUMP JUMPDEST PUSH1 0x40 MLOAD PUSH2 0x214 SWAP3 SWAP2 SWAP1 PUSH2 0x1C5D JUMP JUMPDEST PUSH1 0x0 SLOAD PUSH2 0x27D SWAP1 PUSH1 0x1 PUSH1 0x1 PUSH1 0xA0 SHL SUB AND DUP2 JUMP JUMPDEST PUSH2 0x2A8 PUSH2 0x40E CALLDATASIZE PUSH1 0x4 PUSH2 0x1B75 JUMP JUMPDEST PUSH2 0xE0A JUMP JUMPDEST PUSH2 0x20A PUSH2 0x421 CALLDATASIZE PUSH1 0x4 PUSH2 0x1D2F JUMP JUMPDEST PUSH2 0xE62 JUMP JUMPDEST PUSH2 0x2A8 PUSH2 0x434 CALLDATASIZE PUSH1 0x4 PUSH2 0x1D93 JUMP JUMPDEST PUSH2 0x10A4 JUMP JUMPDEST PUSH2 0x2A8 PUSH2 0x447 CALLDATASIZE PUSH1 0x4 PUSH2 0x1DC8 JUMP JUMPDEST PUSH2 0x10E8 JUMP JUMPDEST PUSH2 0x2A8 PUSH2 0x1240 JUMP JUMPDEST PUSH2 0x20A PUSH2 0x462 CALLDATASIZE PUSH1 0x4 PUSH2 0x1BD9 JUMP JUMPDEST PUSH2 0x13A6 JUMP JUMPDEST PUSH2 0x20A PUSH32 0x0 DUP2 JUMP JUMPDEST PUSH2 0x497 PUSH2 0x258 DUP2 JUMP JUMPDEST PUSH1 0x40 MLOAD PUSH3 0xFFFFFF SWAP1 SWAP2 AND DUP2 MSTORE PUSH1 0x20 ADD PUSH2 0x214 JUMP JUMPDEST PUSH2 0x27D PUSH32 0x0 DUP2 JUMP JUMPDEST PUSH2 0x27D PUSH32 0x0 DUP2 JUMP JUMPDEST PUSH2 0x244 PUSH32 0x0 DUP2 JUMP JUMPDEST PUSH2 0x20A PUSH2 0x52E CALLDATASIZE PUSH1 0x4 PUSH2 0x1B8E JUMP JUMPDEST PUSH2 0x13CB JUMP JUMPDEST PUSH2 0x20A PUSH32 0x0 DUP2 JUMP JUMPDEST PUSH2 0x27D PUSH32 0x0 DUP2 JUMP JUMPDEST PUSH2 0x589 PUSH2 0x1495 JUMP JUMPDEST PUSH1 0x40 MLOAD PUSH2 0x214 SWAP3 SWAP2 SWAP1 PUSH2 0x1DEA JUMP JUMPDEST PUSH1 0x0 DUP2 PUSH1 0xFF AND GT DUP1 ISZERO PUSH2 0x5D0 JUMPI POP PUSH32 0x0 PUSH1 0xFF AND DUP2 PUSH1 0xFF AND GT ISZERO JUMPDEST PUSH2 0x615 JUMPI PUSH1 0x40 MLOAD PUSH3 0x461BCD PUSH1 0xE5 SHL DUP2 MSTORE PUSH1 0x20 PUSH1 0x4 DUP3 ADD MSTORE PUSH1 0x11 PUSH1 0x24 DUP3 ADD MSTORE PUSH17 0x39BA30B5B2903BB2B2B5B99032B93937B9 PUSH1 0x79 SHL PUSH1 0x44 DUP3 ADD MSTORE PUSH1 0x64 ADD JUMPDEST PUSH1 0x40 MLOAD DUP1 SWAP2 SUB SWAP1 REVERT JUMPDEST PUSH1 0x0 PUSH2 0x620 DUP4 PUSH2 0x15F3 JUMP JUMPDEST SWAP1 POP PUSH1 0x0 PUSH2 0x630 PUSH2 0x258 TIMESTAMP PUSH2 0x1E22 JUMP JUMPDEST PUSH2 0x63B SWAP1 PUSH1 0x1 PUSH2 0x1E44 JUMP JUMPDEST SWAP1 POP PUSH1 0x0 PUSH2 0x649 DUP4 DUP6 PUSH2 0x13CB JUMP JUMPDEST SWAP1 POP PUSH1 0x0 JUMPDEST DUP5 PUSH1 0xFF AND DUP2 PUSH1 0xFF AND LT ISZERO PUSH2 0x6E3 JUMPI DUP2 PUSH1 0x4 PUSH1 0x0 PUSH2 0x66E PUSH1 0xFF DUP6 AND DUP8 PUSH2 0x1E44 JUMP JUMPDEST DUP2 MSTORE PUSH1 0x20 ADD SWAP1 DUP2 MSTORE PUSH1 0x20 ADD PUSH1 0x0 KECCAK256 PUSH1 0x0 DUP3 DUP3 SLOAD PUSH2 0x68B SWAP2 SWAP1 PUSH2 0x1E44 JUMP JUMPDEST SWAP1 SWAP2 SSTORE POP POP CALLER PUSH1 0x0 SWAP1 DUP2 MSTORE PUSH1 0x2 PUSH1 0x20 MSTORE PUSH1 0x40 DUP2 KECCAK256 DUP4 SWAP2 PUSH2 0x6AE PUSH1 0xFF DUP6 AND DUP8 PUSH2 0x1E44 JUMP JUMPDEST DUP2 MSTORE PUSH1 0x20 ADD SWAP1 DUP2 MSTORE PUSH1 0x20 ADD PUSH1 0x0 KECCAK256 PUSH1 0x0 DUP3 DUP3 SLOAD PUSH2 0x6CB SWAP2 SWAP1 PUSH2 0x1E44 JUMP JUMPDEST SWAP1 SWAP2 SSTORE POP DUP2 SWAP1 POP PUSH2 0x6DB DUP2 PUSH2 0x1E5D JUMP JUMPDEST SWAP2 POP POP PUSH2 0x64E JUMP JUMPDEST POP PUSH1 0x0 PUSH2 0x6F3 PUSH1 0xFF DUP7 AND DUP5 PUSH2 0x1E44 JUMP JUMPDEST PUSH1 0x40 DUP1 MLOAD PUSH1 0x80 DUP2 ADD DUP3 MSTORE CALLER DUP1 DUP3 MSTORE PUSH1 0x20 DUP1 DUP4 ADD DUP8 DUP2 MSTORE DUP4 DUP6 ADD DUP10 DUP2 MSTORE PUSH1 0x60 DUP6 ADD DUP8 DUP2 MSTORE PUSH1 0x0 DUP15 DUP2 MSTORE PUSH1 0x7 DUP6 MSTORE DUP8 DUP2 KECCAK256 SWAP7 MLOAD DUP8 SLOAD PUSH1 0x1 PUSH1 0x1 PUSH1 0xA0 SHL SUB NOT AND PUSH1 0x1 PUSH1 0x1 PUSH1 0xA0 SHL SUB SWAP1 SWAP2 AND OR DUP8 SSTORE SWAP3 MLOAD PUSH1 0x1 DUP1 DUP9 ADD SWAP2 SWAP1 SWAP2 SSTORE SWAP2 MLOAD PUSH1 0x2 DUP8 ADD SSTORE MLOAD PUSH1 0x3 SWAP6 DUP7 ADD SSTORE SWAP3 DUP2 MSTORE SWAP3 SWAP1 MSTORE SWAP2 SWAP1 KECCAK256 SWAP1 DUP2 ADD SLOAD SWAP1 SLOAD SWAP2 SWAP3 POP SWAP1 SUB PUSH2 0x782 JUMPI CALLER PUSH1 0x0 SWAP1 DUP2 MSTORE PUSH1 0x3 PUSH1 0x20 MSTORE PUSH1 0x40 SWAP1 KECCAK256 DUP4 SWAP1 SSTORE JUMPDEST CALLER PUSH1 0x0 SWAP1 DUP2 MSTORE PUSH1 0x3 PUSH1 0x20 MSTORE PUSH1 0x40 SWAP1 KECCAK256 DUP2 SWAP1 PUSH1 0x1 ADD SLOAD LT ISZERO PUSH2 0x7B3 JUMPI CALLER PUSH1 0x0 SWAP1 DUP2 MSTORE PUSH1 0x3 PUSH1 0x20 MSTORE PUSH1 0x40 SWAP1 KECCAK256 DUP2 SWAP1 PUSH1 0x1 ADD SSTORE JUMPDEST CALLER PUSH1 0x0 DUP2 DUP2 MSTORE PUSH1 0x8 PUSH1 0x20 SWAP1 DUP2 MSTORE PUSH1 0x40 DUP1 DUP4 KECCAK256 DUP1 SLOAD PUSH1 0x1 DUP2 ADD DUP3 SSTORE SWAP1 DUP5 MSTORE SWAP3 DUP3 SWAP1 KECCAK256 SWAP1 SWAP3 ADD DUP10 SWAP1 SSTORE DUP2 MLOAD DUP10 DUP2 MSTORE SWAP1 DUP2 ADD DUP8 SWAP1 MSTORE PUSH1 0xFF DUP9 AND DUP2 DUP4 ADD MSTORE SWAP1 MLOAD PUSH32 0x6FA2F6021EE337436CDF2B2570285886DA18BC06402CE284D296504A0FE8F875 SWAP2 DUP2 SWAP1 SUB PUSH1 0x60 ADD SWAP1 LOG2 POP POP POP POP POP POP JUMP JUMPDEST PUSH1 0x8 PUSH1 0x20 MSTORE DUP2 PUSH1 0x0 MSTORE PUSH1 0x40 PUSH1 0x0 KECCAK256 DUP2 DUP2 SLOAD DUP2 LT PUSH2 0x83D JUMPI PUSH1 0x0 DUP1 REVERT JUMPDEST SWAP1 PUSH1 0x0 MSTORE PUSH1 0x20 PUSH1 0x0 KECCAK256 ADD PUSH1 0x0 SWAP2 POP SWAP2 POP POP SLOAD DUP2 JUMP JUMPDEST PUSH1 0x0 DUP2 DUP2 MSTORE PUSH1 0x7 PUSH1 0x20 MSTORE PUSH1 0x40 SWAP1 KECCAK256 SLOAD PUSH1 0x1 PUSH1 0x1 PUSH1 0xA0 SHL SUB AND CALLER EQ PUSH2 0x8AA JUMPI PUSH1 0x40 MLOAD PUSH3 0x461BCD PUSH1 0xE5 SHL DUP2 MSTORE PUSH1 0x20 PUSH1 0x4 DUP3 ADD MSTORE PUSH1 0xF PUSH1 0x24 DUP3 ADD MSTORE PUSH15 0x37BBB732B9103337B93134B23232B7 PUSH1 0x89 SHL PUSH1 0x44 DUP3 ADD MSTORE PUSH1 0x64 ADD PUSH2 0x60C JUMP JUMPDEST PUSH1 0x0 PUSH2 0x8B8 PUSH2 0x258 TIMESTAMP PUSH2 0x1E22 JUMP JUMPDEST PUSH1 0x0 DUP4 DUP2 MSTORE PUSH1 0x7 PUSH1 0x20 MSTORE PUSH1 0x40 SWAP1 KECCAK256 PUSH1 0x3 ADD SLOAD SWAP1 SWAP2 POP DUP2 LT ISZERO PUSH2 0x90A JUMPI PUSH1 0x40 MLOAD PUSH3 0x461BCD PUSH1 0xE5 SHL DUP2 MSTORE PUSH1 0x20 PUSH1 0x4 DUP3 ADD MSTORE PUSH1 0xB PUSH1 0x24 DUP3 ADD MSTORE PUSH11 0x6C6F636B65642074696D65 PUSH1 0xA8 SHL PUSH1 0x44 DUP3 ADD MSTORE PUSH1 0x64 ADD PUSH2 0x60C JUMP JUMPDEST CALLER PUSH1 0x0 SWAP1 DUP2 MSTORE PUSH1 0x8 PUSH1 0x20 MSTORE PUSH1 0x40 DUP2 KECCAK256 SWAP1 JUMPDEST DUP2 SLOAD DUP2 LT ISZERO PUSH2 0xA57 JUMPI DUP2 DUP2 DUP2 SLOAD DUP2 LT PUSH2 0x936 JUMPI PUSH2 0x936 PUSH2 0x1E7C JUMP JUMPDEST SWAP1 PUSH1 0x0 MSTORE PUSH1 0x20 PUSH1 0x0 KECCAK256 ADD SLOAD DUP5 SUB PUSH2 0xA45 JUMPI DUP2 SLOAD DUP3 SWAP1 PUSH2 0x957 SWAP1 PUSH1 0x1 SWAP1 PUSH2 0x1E92 JUMP JUMPDEST DUP2 SLOAD DUP2 LT PUSH2 0x967 JUMPI PUSH2 0x967 PUSH2 0x1E7C JUMP JUMPDEST SWAP1 PUSH1 0x0 MSTORE PUSH1 0x20 PUSH1 0x0 KECCAK256 ADD SLOAD DUP3 DUP3 DUP2 SLOAD DUP2 LT PUSH2 0x984 JUMPI PUSH2 0x984 PUSH2 0x1E7C JUMP JUMPDEST SWAP1 PUSH1 0x0 MSTORE PUSH1 0x20 PUSH1 0x0 KECCAK256 ADD DUP2 SWAP1 SSTORE POP DUP2 DUP1 SLOAD DUP1 PUSH2 0x9A2 JUMPI PUSH2 0x9A2 PUSH2 0x1EA5 JUMP JUMPDEST PUSH1 0x0 DUP3 DUP2 MSTORE PUSH1 0x20 DUP2 KECCAK256 DUP3 ADD PUSH1 0x0 NOT SWAP1 DUP2 ADD SWAP2 SWAP1 SWAP2 SSTORE ADD SWAP1 SSTORE PUSH1 0x40 MLOAD PUSH4 0x21421707 PUSH1 0xE1 SHL DUP2 MSTORE ADDRESS PUSH1 0x4 DUP3 ADD MSTORE CALLER PUSH1 0x24 DUP3 ADD MSTORE PUSH1 0x44 DUP2 ADD DUP6 SWAP1 MSTORE PUSH1 0x1 PUSH1 0x1 PUSH1 0xA0 SHL SUB PUSH32 0x0 AND SWAP1 PUSH4 0x42842E0E SWAP1 PUSH1 0x64 ADD PUSH1 0x0 PUSH1 0x40 MLOAD DUP1 DUP4 SUB DUP2 PUSH1 0x0 DUP8 DUP1 EXTCODESIZE ISZERO DUP1 ISZERO PUSH2 0xA28 JUMPI PUSH1 0x0 DUP1 REVERT JUMPDEST POP GAS CALL ISZERO DUP1 ISZERO PUSH2 0xA3C JUMPI RETURNDATASIZE PUSH1 0x0 DUP1 RETURNDATACOPY RETURNDATASIZE PUSH1 0x0 REVERT JUMPDEST POP POP POP POP PUSH2 0xA57 JUMP JUMPDEST DUP1 PUSH2 0xA4F DUP2 PUSH2 0x1EBB JUMP JUMPDEST SWAP2 POP POP PUSH2 0x91B JUMP JUMPDEST POP PUSH1 0x40 MLOAD DUP4 DUP2 MSTORE CALLER SWAP1 PUSH32 0x884EDAD9CE6FA2440D8A54CC123490EB96D2768479D49FF9C7366125A9424364 SWAP1 PUSH1 0x20 ADD JUMPDEST PUSH1 0x40 MLOAD DUP1 SWAP2 SUB SWAP1 LOG2 POP POP POP JUMP JUMPDEST PUSH1 0x0 SLOAD PUSH1 0x1 PUSH1 0x1 PUSH1 0xA0 SHL SUB AND CALLER EQ PUSH2 0xABD JUMPI PUSH1 0x40 MLOAD PUSH3 0x461BCD PUSH1 0xE5 SHL DUP2 MSTORE PUSH1 0x4 ADD PUSH2 0x60C SWAP1 PUSH2 0x1ED4 JUMP JUMPDEST PUSH1 0x1 DUP1 SLOAD PUSH1 0x1 PUSH1 0x1 PUSH1 0xA0 SHL SUB NOT AND PUSH1 0x1 PUSH1 0x1 PUSH1 0xA0 SHL SUB SWAP3 SWAP1 SWAP3 AND SWAP2 SWAP1 SWAP2 OR SWAP1 SSTORE JUMP JUMPDEST PUSH1 0x1 SLOAD PUSH1 0x1 PUSH1 0x1 PUSH1 0xA0 SHL SUB AND CALLER EQ PUSH2 0xB09 JUMPI PUSH1 0x40 MLOAD PUSH3 0x461BCD PUSH1 0xE5 SHL DUP2 MSTORE PUSH1 0x4 ADD PUSH2 0x60C SWAP1 PUSH2 0x1ED4 JUMP JUMPDEST PUSH1 0x1 DUP1 SLOAD PUSH1 0x0 DUP1 SLOAD PUSH1 0x1 PUSH1 0x1 PUSH1 0xA0 SHL SUB NOT SWAP1 DUP2 AND PUSH1 0x1 PUSH1 0x1 PUSH1 0xA0 SHL SUB DUP5 AND OR SWAP1 SWAP2 SSTORE AND SWAP1 SSTORE JUMP JUMPDEST PUSH1 0x0 DUP1 PUSH1 0xFF PUSH32 0x0 AND PUSH2 0xB63 PUSH2 0x258 TIMESTAMP PUSH2 0x1E22 JUMP JUMPDEST PUSH2 0xB6D SWAP2 SWAP1 PUSH2 0x1E92 JUMP JUMPDEST CALLER PUSH1 0x0 SWAP1 DUP2 MSTORE PUSH1 0x3 PUSH1 0x20 MSTORE PUSH1 0x40 DUP2 KECCAK256 SLOAD SWAP2 SWAP3 POP SWAP1 JUMPDEST CALLER PUSH1 0x0 SWAP1 DUP2 MSTORE PUSH1 0x3 PUSH1 0x20 MSTORE PUSH1 0x40 SWAP1 KECCAK256 PUSH1 0x1 ADD SLOAD DUP2 LT ISZERO PUSH2 0xC17 JUMPI DUP3 DUP2 GT PUSH2 0xC17 JUMPI PUSH1 0x0 DUP2 DUP2 MSTORE PUSH1 0x4 PUSH1 0x20 MSTORE PUSH1 0x40 SWAP1 KECCAK256 SLOAD ISZERO PUSH2 0xC05 JUMPI PUSH1 0x0 DUP2 DUP2 MSTORE PUSH1 0x4 PUSH1 0x20 SWAP1 DUP2 MSTORE PUSH1 0x40 DUP1 DUP4 KECCAK256 SLOAD CALLER DUP5 MSTORE PUSH1 0x2 DUP4 MSTORE DUP2 DUP5 KECCAK256 DUP6 DUP6 MSTORE DUP4 MSTORE DUP2 DUP5 KECCAK256 SLOAD PUSH1 0x5 SWAP1 SWAP4 MSTORE SWAP3 KECCAK256 SLOAD PUSH2 0xBEE SWAP2 SWAP1 PUSH2 0x1EF7 JUMP JUMPDEST PUSH2 0xBF8 SWAP2 SWAP1 PUSH2 0x1E22 JUMP JUMPDEST PUSH2 0xC02 SWAP1 DUP4 PUSH2 0x1E44 JUMP JUMPDEST SWAP2 POP JUMPDEST DUP1 PUSH2 0xC0F DUP2 PUSH2 0x1EBB JUMP JUMPDEST SWAP2 POP POP PUSH2 0xB82 JUMP JUMPDEST POP SWAP3 SWAP2 POP POP JUMP JUMPDEST PUSH1 0x0 PUSH1 0x60 DUP2 PUSH1 0xFF PUSH32 0x0 AND PUSH2 0xC53 PUSH2 0x258 TIMESTAMP PUSH2 0x1E22 JUMP JUMPDEST PUSH2 0xC5D SWAP2 SWAP1 PUSH2 0x1E92 JUMP JUMPDEST PUSH2 0xC68 SWAP1 PUSH1 0x1 PUSH2 0x1E44 JUMP JUMPDEST CALLER PUSH1 0x0 SWAP1 DUP2 MSTORE PUSH1 0x3 PUSH1 0x20 MSTORE PUSH1 0x40 SWAP1 KECCAK256 SWAP1 SWAP2 POP DUP2 SWAP1 PUSH1 0x1 ADD SLOAD GT PUSH2 0xC9D JUMPI PUSH1 0x40 DUP1 MLOAD PUSH1 0x0 DUP2 MSTORE PUSH1 0x20 DUP2 ADD SWAP1 SWAP2 MSTORE SWAP1 SWAP4 SWAP1 SWAP3 POP SWAP1 POP JUMP JUMPDEST CALLER PUSH1 0x0 SWAP1 DUP2 MSTORE PUSH1 0x3 PUSH1 0x20 MSTORE PUSH1 0x40 DUP2 KECCAK256 DUP1 SLOAD PUSH1 0x1 SWAP1 SWAP2 ADD SLOAD SWAP1 SWAP2 DUP4 DUP4 GT PUSH2 0xCC3 JUMPI DUP4 PUSH2 0xCC5 JUMP JUMPDEST DUP3 JUMPDEST SWAP1 POP PUSH1 0x0 PUSH2 0xCD3 DUP3 DUP5 PUSH2 0x1E92 JUMP JUMPDEST PUSH8 0xFFFFFFFFFFFFFFFF DUP2 GT ISZERO PUSH2 0xCEB JUMPI PUSH2 0xCEB PUSH2 0x1C7E JUMP JUMPDEST PUSH1 0x40 MLOAD SWAP1 DUP1 DUP3 MSTORE DUP1 PUSH1 0x20 MUL PUSH1 0x20 ADD DUP3 ADD PUSH1 0x40 MSTORE DUP1 ISZERO PUSH2 0xD14 JUMPI DUP2 PUSH1 0x20 ADD PUSH1 0x20 DUP3 MUL DUP1 CALLDATASIZE DUP4 CALLDATACOPY ADD SWAP1 POP JUMPDEST POP SWAP1 POP DUP2 JUMPDEST DUP4 DUP2 LT ISZERO PUSH2 0xDB6 JUMPI PUSH1 0x0 DUP2 DUP2 MSTORE PUSH1 0x4 PUSH1 0x20 MSTORE PUSH1 0x40 SWAP1 KECCAK256 SLOAD ISZERO PUSH2 0xD7B JUMPI PUSH1 0x0 DUP2 DUP2 MSTORE PUSH1 0x4 PUSH1 0x20 SWAP1 DUP2 MSTORE PUSH1 0x40 DUP1 DUP4 KECCAK256 SLOAD CALLER DUP5 MSTORE PUSH1 0x2 DUP4 MSTORE DUP2 DUP5 KECCAK256 DUP6 DUP6 MSTORE DUP4 MSTORE DUP2 DUP5 KECCAK256 SLOAD PUSH1 0x5 SWAP1 SWAP4 MSTORE SWAP3 KECCAK256 SLOAD PUSH2 0xD6C SWAP2 SWAP1 PUSH2 0x1EF7 JUMP JUMPDEST PUSH2 0xD76 SWAP2 SWAP1 PUSH2 0x1E22 JUMP JUMPDEST PUSH2 0xD7E JUMP JUMPDEST PUSH1 0x0 JUMPDEST DUP3 PUSH2 0xD89 DUP6 DUP5 PUSH2 0x1E92 JUMP JUMPDEST DUP2 MLOAD DUP2 LT PUSH2 0xD99 JUMPI PUSH2 0xD99 PUSH2 0x1E7C JUMP JUMPDEST PUSH1 0x20 SWAP1 DUP2 MUL SWAP2 SWAP1 SWAP2 ADD ADD MSTORE DUP1 PUSH2 0xDAE DUP2 PUSH2 0x1EBB JUMP JUMPDEST SWAP2 POP POP PUSH2 0xD19 JUMP JUMPDEST POP PUSH1 0x0 PUSH2 0xDC5 PUSH2 0x258 TIMESTAMP PUSH2 0x1E22 JUMP JUMPDEST PUSH2 0xDF2 DUP5 PUSH1 0xFF PUSH32 0x0 AND PUSH2 0x1E44 JUMP JUMPDEST PUSH2 0xDFC SWAP2 SWAP1 PUSH2 0x1E92 JUMP JUMPDEST SWAP9 SWAP2 SWAP8 POP SWAP1 SWAP6 POP POP POP POP POP POP JUMP JUMPDEST PUSH1 0x0 SLOAD PUSH1 0x1 PUSH1 0x1 PUSH1 0xA0 SHL SUB AND CALLER EQ PUSH2 0xE34 JUMPI PUSH1 0x40 MLOAD PUSH3 0x461BCD PUSH1 0xE5 SHL DUP2 MSTORE PUSH1 0x4 ADD PUSH2 0x60C SWAP1 PUSH2 0x1ED4 JUMP JUMPDEST PUSH2 0xE5F PUSH32 0x0 CALLER DUP4 PUSH2 0x194E JUMP JUMPDEST POP JUMP JUMPDEST PUSH1 0x0 DUP1 SLOAD PUSH1 0x1 PUSH1 0x1 PUSH1 0xA0 SHL SUB AND CALLER EQ PUSH2 0xE8D JUMPI PUSH1 0x40 MLOAD PUSH3 0x461BCD PUSH1 0xE5 SHL DUP2 MSTORE PUSH1 0x4 ADD PUSH2 0x60C SWAP1 PUSH2 0x1ED4 JUMP JUMPDEST PUSH32 0x0 TIMESTAMP GT ISZERO DUP1 ISZERO PUSH2 0xEDD JUMPI POP PUSH32 0x0 TIMESTAMP LT ISZERO JUMPDEST PUSH2 0xF1D JUMPI PUSH1 0x40 MLOAD PUSH3 0x461BCD PUSH1 0xE5 SHL DUP2 MSTORE PUSH1 0x20 PUSH1 0x4 DUP3 ADD MSTORE PUSH1 0x11 PUSH1 0x24 DUP3 ADD MSTORE PUSH17 0x1B9BDD081A5B881D1A19481C195C9A5BD9 PUSH1 0x7A SHL PUSH1 0x44 DUP3 ADD MSTORE PUSH1 0x64 ADD PUSH2 0x60C JUMP JUMPDEST DUP2 MLOAD DUP4 MLOAD EQ PUSH2 0xF61 JUMPI PUSH1 0x40 MLOAD PUSH3 0x461BCD PUSH1 0xE5 SHL DUP2 MSTORE PUSH1 0x20 PUSH1 0x4 DUP3 ADD MSTORE PUSH1 0x10 PUSH1 0x24 DUP3 ADD MSTORE PUSH16 0x3830B930B6B2BA32B9399032B93937B9 PUSH1 0x81 SHL PUSH1 0x44 DUP3 ADD MSTORE PUSH1 0x64 ADD PUSH2 0x60C JUMP JUMPDEST PUSH1 0x0 DUP1 JUMPDEST DUP5 MLOAD DUP2 LT ISZERO PUSH2 0x102F JUMPI DUP4 DUP2 DUP2 MLOAD DUP2 LT PUSH2 0xF80 JUMPI PUSH2 0xF80 PUSH2 0x1E7C JUMP JUMPDEST PUSH1 0x20 MUL PUSH1 0x20 ADD ADD MLOAD DUP4 PUSH2 0xF93 SWAP2 SWAP1 PUSH2 0x1E44 JUMP JUMPDEST SWAP3 POP DUP4 DUP2 DUP2 MLOAD DUP2 LT PUSH2 0xFA7 JUMPI PUSH2 0xFA7 PUSH2 0x1E7C JUMP JUMPDEST PUSH1 0x20 MUL PUSH1 0x20 ADD ADD MLOAD PUSH1 0x5 PUSH1 0x0 DUP8 DUP5 DUP2 MLOAD DUP2 LT PUSH2 0xFC5 JUMPI PUSH2 0xFC5 PUSH2 0x1E7C JUMP JUMPDEST PUSH1 0x20 MUL PUSH1 0x20 ADD ADD MLOAD DUP2 MSTORE PUSH1 0x20 ADD SWAP1 DUP2 MSTORE PUSH1 0x20 ADD PUSH1 0x0 KECCAK256 DUP2 SWAP1 SSTORE POP DUP2 DUP6 DUP3 DUP2 MLOAD DUP2 LT PUSH2 0xFF2 JUMPI PUSH2 0xFF2 PUSH2 0x1E7C JUMP JUMPDEST PUSH1 0x20 MUL PUSH1 0x20 ADD ADD MLOAD GT ISZERO PUSH2 0x101D JUMPI DUP5 DUP2 DUP2 MLOAD DUP2 LT PUSH2 0x1012 JUMPI PUSH2 0x1012 PUSH2 0x1E7C JUMP JUMPDEST PUSH1 0x20 MUL PUSH1 0x20 ADD ADD MLOAD SWAP2 POP JUMPDEST DUP1 PUSH2 0x1027 DUP2 PUSH2 0x1EBB JUMP JUMPDEST SWAP2 POP POP PUSH2 0xF65 JUMP JUMPDEST POP PUSH1 0x6 DUP2 SWAP1 SSTORE PUSH2 0x1061 PUSH32 0x0 CALLER ADDRESS DUP6 PUSH2 0x1A5B JUMP JUMPDEST PUSH1 0x40 DUP1 MLOAD PUSH1 0x0 DUP2 MSTORE PUSH1 0x20 DUP2 ADD DUP5 SWAP1 MSTORE CALLER SWAP2 PUSH32 0xC3991418CACD70A010FCE559A44FCBB47534CA43BF7543964BDCA2639F6E6E5A SWAP2 ADD PUSH1 0x40 MLOAD DUP1 SWAP2 SUB SWAP1 LOG2 POP SWAP3 SWAP2 POP POP JUMP JUMPDEST PUSH1 0x0 JUMPDEST DUP2 MLOAD DUP2 LT ISZERO PUSH2 0x10E4 JUMPI PUSH2 0x10D2 DUP3 DUP3 DUP2 MLOAD DUP2 LT PUSH2 0x10C5 JUMPI PUSH2 0x10C5 PUSH2 0x1E7C JUMP JUMPDEST PUSH1 0x20 MUL PUSH1 0x20 ADD ADD MLOAD PUSH2 0x852 JUMP JUMPDEST DUP1 PUSH2 0x10DC DUP2 PUSH2 0x1EBB JUMP JUMPDEST SWAP2 POP POP PUSH2 0x10A7 JUMP JUMPDEST POP POP JUMP JUMPDEST PUSH1 0x0 SLOAD PUSH1 0x1 PUSH1 0x1 PUSH1 0xA0 SHL SUB AND CALLER EQ PUSH2 0x1112 JUMPI PUSH1 0x40 MLOAD PUSH3 0x461BCD PUSH1 0xE5 SHL DUP2 MSTORE PUSH1 0x4 ADD PUSH2 0x60C SWAP1 PUSH2 0x1ED4 JUMP JUMPDEST PUSH32 0x0 TIMESTAMP GT ISZERO DUP1 ISZERO PUSH2 0x1162 JUMPI POP PUSH32 0x0 TIMESTAMP LT ISZERO JUMPDEST PUSH2 0x11A2 JUMPI PUSH1 0x40 MLOAD PUSH3 0x461BCD PUSH1 0xE5 SHL DUP2 MSTORE PUSH1 0x20 PUSH1 0x4 DUP3 ADD MSTORE PUSH1 0x11 PUSH1 0x24 DUP3 ADD MSTORE PUSH17 0x1B9BDD081A5B881D1A19481C195C9A5BD9 PUSH1 0x7A SHL PUSH1 0x44 DUP3 ADD MSTORE PUSH1 0x64 ADD PUSH2 0x60C JUMP JUMPDEST PUSH2 0x11CE PUSH32 0x0 CALLER ADDRESS DUP5 PUSH2 0x1A5B JUMP JUMPDEST PUSH1 0x0 DUP3 DUP2 MSTORE PUSH1 0x5 PUSH1 0x20 MSTORE PUSH1 0x40 DUP2 KECCAK256 DUP1 SLOAD DUP4 SWAP3 SWAP1 PUSH2 0x11EC SWAP1 DUP5 SWAP1 PUSH2 0x1E44 JUMP JUMPDEST SWAP1 SWAP2 SSTORE POP POP PUSH1 0x6 SLOAD DUP3 GT ISZERO PUSH2 0x1201 JUMPI PUSH1 0x6 DUP3 SWAP1 SSTORE JUMPDEST PUSH1 0x40 DUP1 MLOAD DUP4 DUP2 MSTORE PUSH1 0x20 DUP2 ADD DUP4 SWAP1 MSTORE CALLER SWAP2 PUSH32 0xC3991418CACD70A010FCE559A44FCBB47534CA43BF7543964BDCA2639F6E6E5A SWAP2 ADD PUSH1 0x40 MLOAD DUP1 SWAP2 SUB SWAP1 LOG2 POP POP JUMP JUMPDEST PUSH1 0x0 PUSH1 0xFF PUSH32 0x0 AND PUSH2 0x1272 PUSH2 0x258 TIMESTAMP PUSH2 0x1E22 JUMP JUMPDEST PUSH2 0x127C SWAP2 SWAP1 PUSH2 0x1E92 JUMP JUMPDEST CALLER PUSH1 0x0 SWAP1 DUP2 MSTORE PUSH1 0x3 PUSH1 0x20 MSTORE PUSH1 0x40 DUP2 KECCAK256 SLOAD SWAP2 SWAP3 POP SWAP1 DUP1 JUMPDEST CALLER PUSH1 0x0 SWAP1 DUP2 MSTORE PUSH1 0x3 PUSH1 0x20 MSTORE PUSH1 0x40 SWAP1 KECCAK256 PUSH1 0x1 ADD SLOAD DUP2 LT ISZERO PUSH2 0x1335 JUMPI DUP4 DUP2 GT PUSH2 0x1335 JUMPI PUSH2 0x12BE DUP2 PUSH1 0x1 PUSH2 0x1E44 JUMP JUMPDEST PUSH1 0x0 DUP3 DUP2 MSTORE PUSH1 0x4 PUSH1 0x20 MSTORE PUSH1 0x40 SWAP1 KECCAK256 SLOAD SWAP1 SWAP3 POP ISZERO PUSH2 0x1323 JUMPI PUSH1 0x0 DUP2 DUP2 MSTORE PUSH1 0x4 PUSH1 0x20 SWAP1 DUP2 MSTORE PUSH1 0x40 DUP1 DUP4 KECCAK256 SLOAD CALLER DUP5 MSTORE PUSH1 0x2 DUP4 MSTORE DUP2 DUP5 KECCAK256 DUP6 DUP6 MSTORE DUP4 MSTORE DUP2 DUP5 KECCAK256 SLOAD PUSH1 0x5 SWAP1 SWAP4 MSTORE SWAP3 KECCAK256 SLOAD PUSH2 0x130C SWAP2 SWAP1 PUSH2 0x1EF7 JUMP JUMPDEST PUSH2 0x1316 SWAP2 SWAP1 PUSH2 0x1E22 JUMP JUMPDEST PUSH2 0x1320 SWAP1 DUP5 PUSH2 0x1E44 JUMP JUMPDEST SWAP3 POP JUMPDEST DUP1 PUSH2 0x132D DUP2 PUSH2 0x1EBB JUMP JUMPDEST SWAP2 POP POP PUSH2 0x1292 JUMP JUMPDEST POP CALLER PUSH1 0x0 SWAP1 DUP2 MSTORE PUSH1 0x3 PUSH1 0x20 MSTORE PUSH1 0x40 DUP2 KECCAK256 DUP3 SWAP2 ADD SSTORE PUSH2 0x1374 PUSH32 0x0 CALLER DUP5 PUSH2 0x194E JUMP JUMPDEST PUSH1 0x40 MLOAD DUP3 DUP2 MSTORE CALLER SWAP1 PUSH32 0xBA8DE60C3403EC381D1D484652EA1980E3C3E56359195C92525BFF4CE47AD98E SWAP1 PUSH1 0x20 ADD PUSH2 0xA86 JUMP JUMPDEST PUSH1 0x3 PUSH1 0x20 MSTORE DUP2 PUSH1 0x0 MSTORE PUSH1 0x40 PUSH1 0x0 KECCAK256 DUP2 PUSH1 0x2 DUP2 LT PUSH2 0x13C2 JUMPI PUSH1 0x0 DUP1 REVERT JUMPDEST ADD SLOAD SWAP2 POP DUP3 SWAP1 POP JUMP JUMPDEST PUSH1 0x0 PUSH2 0x13F8 PUSH1 0x1 PUSH32 0x0 PUSH2 0x1F0E JUMP JUMPDEST PUSH1 0xFF AND PUSH1 0x1 PUSH32 0x0 PUSH1 0xFF AND PUSH1 0x1 DUP6 PUSH2 0x142E SWAP2 SWAP1 PUSH2 0x1F0E JUMP JUMPDEST PUSH1 0xFF AND PUSH2 0x145C PUSH1 0x1 PUSH32 0x0 PUSH2 0x1E92 JUMP JUMPDEST PUSH2 0x1466 SWAP2 SWAP1 PUSH2 0x1EF7 JUMP JUMPDEST PUSH2 0x1470 SWAP2 SWAP1 PUSH2 0x1E44 JUMP JUMPDEST PUSH2 0x147A SWAP2 SWAP1 PUSH2 0x1E92 JUMP JUMPDEST PUSH2 0x1484 SWAP1 DUP6 PUSH2 0x1EF7 JUMP JUMPDEST PUSH2 0x148E SWAP2 SWAP1 PUSH2 0x1E22 JUMP JUMPDEST SWAP4 SWAP3 POP POP POP JUMP JUMPDEST CALLER PUSH1 0x0 SWAP1 DUP2 MSTORE PUSH1 0x8 PUSH1 0x20 MSTORE PUSH1 0x40 DUP2 KECCAK256 SLOAD PUSH1 0x60 SWAP2 SWAP1 DUP2 SWAP1 PUSH8 0xFFFFFFFFFFFFFFFF DUP2 GT ISZERO PUSH2 0x14C3 JUMPI PUSH2 0x14C3 PUSH2 0x1C7E JUMP JUMPDEST PUSH1 0x40 MLOAD SWAP1 DUP1 DUP3 MSTORE DUP1 PUSH1 0x20 MUL PUSH1 0x20 ADD DUP3 ADD PUSH1 0x40 MSTORE DUP1 ISZERO PUSH2 0x14EC JUMPI DUP2 PUSH1 0x20 ADD PUSH1 0x20 DUP3 MUL DUP1 CALLDATASIZE DUP4 CALLDATACOPY ADD SWAP1 POP JUMPDEST POP SWAP1 POP PUSH1 0x0 PUSH2 0x14FD PUSH2 0x258 TIMESTAMP PUSH2 0x1E22 JUMP JUMPDEST CALLER PUSH1 0x0 SWAP1 DUP2 MSTORE PUSH1 0x8 PUSH1 0x20 MSTORE PUSH1 0x40 DUP2 KECCAK256 SLOAD SWAP2 SWAP3 POP SWAP1 DUP2 JUMPDEST CALLER PUSH1 0x0 SWAP1 DUP2 MSTORE PUSH1 0x8 PUSH1 0x20 MSTORE PUSH1 0x40 SWAP1 KECCAK256 SLOAD DUP2 LT ISZERO PUSH2 0x15E6 JUMPI CALLER PUSH1 0x0 SWAP1 DUP2 MSTORE PUSH1 0x8 PUSH1 0x20 MSTORE PUSH1 0x40 DUP2 KECCAK256 DUP1 SLOAD DUP4 SWAP1 DUP2 LT PUSH2 0x154B JUMPI PUSH2 0x154B PUSH2 0x1E7C JUMP JUMPDEST SWAP1 PUSH1 0x0 MSTORE PUSH1 0x20 PUSH1 0x0 KECCAK256 ADD SLOAD SWAP1 POP DUP5 PUSH1 0x7 PUSH1 0x0 DUP4 DUP2 MSTORE PUSH1 0x20 ADD SWAP1 DUP2 MSTORE PUSH1 0x20 ADD PUSH1 0x0 KECCAK256 PUSH1 0x3 ADD SLOAD GT ISZERO PUSH2 0x15A6 JUMPI DUP1 DUP7 DUP6 DUP2 MLOAD DUP2 LT PUSH2 0x1589 JUMPI PUSH2 0x1589 PUSH2 0x1E7C JUMP JUMPDEST PUSH1 0x20 SWAP1 DUP2 MUL SWAP2 SWAP1 SWAP2 ADD ADD MSTORE DUP4 PUSH2 0x159E DUP2 PUSH2 0x1EBB JUMP JUMPDEST SWAP5 POP POP PUSH2 0x15D3 JUMP JUMPDEST DUP3 PUSH2 0x15B0 DUP2 PUSH2 0x1F27 JUMP JUMPDEST SWAP4 POP POP DUP1 DUP7 DUP5 DUP2 MLOAD DUP2 LT PUSH2 0x15C6 JUMPI PUSH2 0x15C6 PUSH2 0x1E7C JUMP JUMPDEST PUSH1 0x20 MUL PUSH1 0x20 ADD ADD DUP2 DUP2 MSTORE POP POP JUMPDEST POP DUP1 PUSH2 0x15DE DUP2 PUSH2 0x1EBB JUMP JUMPDEST SWAP2 POP POP PUSH2 0x1513 JUMP JUMPDEST POP SWAP3 SWAP6 SWAP3 SWAP5 POP SWAP2 SWAP3 POP POP POP JUMP JUMPDEST PUSH1 0x0 DUP1 PUSH1 0x0 DUP1 PUSH1 0x0 DUP1 PUSH32 0x0 PUSH1 0x1 PUSH1 0x1 PUSH1 0xA0 SHL SUB AND PUSH4 0x99FBAB88 DUP9 PUSH1 0x40 MLOAD DUP3 PUSH4 0xFFFFFFFF AND PUSH1 0xE0 SHL DUP2 MSTORE PUSH1 0x4 ADD PUSH2 0x164A SWAP2 DUP2 MSTORE PUSH1 0x20 ADD SWAP1 JUMP JUMPDEST PUSH2 0x180 PUSH1 0x40 MLOAD DUP1 DUP4 SUB DUP2 DUP7 GAS STATICCALL ISZERO DUP1 ISZERO PUSH2 0x1668 JUMPI RETURNDATASIZE PUSH1 0x0 DUP1 RETURNDATACOPY RETURNDATASIZE PUSH1 0x0 REVERT JUMPDEST POP POP POP POP PUSH1 0x40 MLOAD RETURNDATASIZE PUSH1 0x1F NOT PUSH1 0x1F DUP3 ADD AND DUP3 ADD DUP1 PUSH1 0x40 MSTORE POP DUP2 ADD SWAP1 PUSH2 0x168C SWAP2 SWAP1 PUSH2 0x1F8A JUMP JUMPDEST POP POP POP POP SWAP8 POP SWAP8 POP SWAP8 POP POP SWAP7 POP SWAP7 POP POP POP PUSH32 0x0 PUSH1 0x1 PUSH1 0x1 PUSH1 0xA0 SHL SUB AND DUP6 PUSH1 0x1 PUSH1 0x1 PUSH1 0xA0 SHL SUB AND EQ DUP1 ISZERO PUSH2 0x170F JUMPI POP PUSH32 0x0 PUSH1 0x1 PUSH1 0x1 PUSH1 0xA0 SHL SUB AND DUP5 PUSH1 0x1 PUSH1 0x1 PUSH1 0xA0 SHL SUB AND EQ JUMPDEST PUSH2 0x174B JUMPI PUSH1 0x40 MLOAD PUSH3 0x461BCD PUSH1 0xE5 SHL DUP2 MSTORE PUSH1 0x20 PUSH1 0x4 DUP3 ADD MSTORE PUSH1 0xD PUSH1 0x24 DUP3 ADD MSTORE PUSH13 0x3638103830B4B91032B93937B9 PUSH1 0x99 SHL PUSH1 0x44 DUP3 ADD MSTORE PUSH1 0x64 ADD PUSH2 0x60C JUMP JUMPDEST PUSH32 0x0 PUSH1 0x2 SIGNEXTEND DUP4 PUSH1 0x2 SIGNEXTEND EQ DUP1 ISZERO PUSH2 0x17A5 JUMPI POP PUSH32 0x0 PUSH1 0x2 SIGNEXTEND DUP3 PUSH1 0x2 SIGNEXTEND EQ JUMPDEST PUSH2 0x17E4 JUMPI PUSH1 0x40 MLOAD PUSH3 0x461BCD PUSH1 0xE5 SHL DUP2 MSTORE PUSH1 0x20 PUSH1 0x4 DUP3 ADD MSTORE PUSH1 0x10 PUSH1 0x24 DUP3 ADD MSTORE PUSH16 0x3A34B1B5903930B733B29032B93937B9 PUSH1 0x81 SHL PUSH1 0x44 DUP3 ADD MSTORE PUSH1 0x64 ADD PUSH2 0x60C JUMP JUMPDEST PUSH1 0x40 MLOAD PUSH4 0x20604BF PUSH1 0xE2 SHL DUP2 MSTORE PUSH1 0x4 DUP2 ADD DUP9 SWAP1 MSTORE ADDRESS SWAP1 PUSH1 0x1 PUSH1 0x1 PUSH1 0xA0 SHL SUB PUSH32 0x0 AND SWAP1 PUSH4 0x81812FC SWAP1 PUSH1 0x24 ADD PUSH1 0x20 PUSH1 0x40 MLOAD DUP1 DUP4 SUB DUP2 DUP7 GAS STATICCALL ISZERO DUP1 ISZERO PUSH2 0x184B JUMPI RETURNDATASIZE PUSH1 0x0 DUP1 RETURNDATACOPY RETURNDATASIZE PUSH1 0x0 REVERT JUMPDEST POP POP POP POP PUSH1 0x40 MLOAD RETURNDATASIZE PUSH1 0x1F NOT PUSH1 0x1F DUP3 ADD AND DUP3 ADD DUP1 PUSH1 0x40 MSTORE POP DUP2 ADD SWAP1 PUSH2 0x186F SWAP2 SWAP1 PUSH2 0x206B JUMP JUMPDEST PUSH1 0x1 PUSH1 0x1 PUSH1 0xA0 SHL SUB AND EQ PUSH2 0x18B3 JUMPI PUSH1 0x40 MLOAD PUSH3 0x461BCD PUSH1 0xE5 SHL DUP2 MSTORE PUSH1 0x20 PUSH1 0x4 DUP3 ADD MSTORE PUSH1 0xB PUSH1 0x24 DUP3 ADD MSTORE PUSH11 0x6E6F7420617070726F7665 PUSH1 0xA8 SHL PUSH1 0x44 DUP3 ADD MSTORE PUSH1 0x64 ADD PUSH2 0x60C JUMP JUMPDEST PUSH1 0x40 MLOAD PUSH4 0x21421707 PUSH1 0xE1 SHL DUP2 MSTORE CALLER PUSH1 0x4 DUP3 ADD MSTORE ADDRESS PUSH1 0x24 DUP3 ADD MSTORE PUSH1 0x44 DUP2 ADD DUP9 SWAP1 MSTORE PUSH32 0x0 PUSH1 0x1 PUSH1 0x1 PUSH1 0xA0 SHL SUB AND SWAP1 PUSH4 0x42842E0E SWAP1 PUSH1 0x64 ADD PUSH1 0x0 PUSH1 0x40 MLOAD DUP1 DUP4 SUB DUP2 PUSH1 0x0 DUP8 DUP1 EXTCODESIZE ISZERO DUP1 ISZERO PUSH2 0x1921 JUMPI PUSH1 0x0 DUP1 REVERT JUMPDEST POP GAS CALL ISZERO DUP1 ISZERO PUSH2 0x1935 JUMPI RETURNDATASIZE PUSH1 0x0 DUP1 RETURNDATACOPY RETURNDATASIZE PUSH1 0x0 REVERT JUMPDEST POP POP PUSH1 0x1 PUSH1 0x1 PUSH1 0x80 SHL SUB SWAP1 SWAP3 AND SWAP9 SWAP8 POP POP POP POP POP POP POP POP JUMP JUMPDEST PUSH1 0x40 DUP1 MLOAD PUSH1 0x1 PUSH1 0x1 PUSH1 0xA0 SHL SUB DUP5 DUP2 AND PUSH1 0x24 DUP4 ADD MSTORE PUSH1 0x44 DUP1 DUP4 ADD DUP6 SWAP1 MSTORE DUP4 MLOAD DUP1 DUP5 SUB SWAP1 SWAP2 ADD DUP2 MSTORE PUSH1 0x64 SWAP1 SWAP3 ADD DUP4 MSTORE PUSH1 0x20 DUP3 ADD DUP1 MLOAD PUSH1 0x1 PUSH1 0x1 PUSH1 0xE0 SHL SUB AND PUSH4 0xA9059CBB PUSH1 0xE0 SHL OR SWAP1 MSTORE SWAP2 MLOAD PUSH1 0x0 SWAP3 DUP4 SWAP3 SWAP1 DUP8 AND SWAP2 PUSH2 0x19AA SWAP2 SWAP1 PUSH2 0x2088 JUMP JUMPDEST PUSH1 0x0 PUSH1 0x40 MLOAD DUP1 DUP4 SUB DUP2 PUSH1 0x0 DUP7 GAS CALL SWAP2 POP POP RETURNDATASIZE DUP1 PUSH1 0x0 DUP2 EQ PUSH2 0x19E7 JUMPI PUSH1 0x40 MLOAD SWAP2 POP PUSH1 0x1F NOT PUSH1 0x3F RETURNDATASIZE ADD AND DUP3 ADD PUSH1 0x40 MSTORE RETURNDATASIZE DUP3 MSTORE RETURNDATASIZE PUSH1 0x0 PUSH1 0x20 DUP5 ADD RETURNDATACOPY PUSH2 0x19EC JUMP JUMPDEST PUSH1 0x60 SWAP2 POP JUMPDEST POP SWAP2 POP SWAP2 POP DUP2 DUP1 ISZERO PUSH2 0x1A16 JUMPI POP DUP1 MLOAD ISZERO DUP1 PUSH2 0x1A16 JUMPI POP DUP1 DUP1 PUSH1 0x20 ADD SWAP1 MLOAD DUP2 ADD SWAP1 PUSH2 0x1A16 SWAP2 SWAP1 PUSH2 0x20B7 JUMP JUMPDEST PUSH2 0x1A54 JUMPI PUSH1 0x40 MLOAD PUSH3 0x461BCD PUSH1 0xE5 SHL DUP2 MSTORE PUSH1 0x20 PUSH1 0x4 DUP3 ADD MSTORE PUSH1 0xF PUSH1 0x24 DUP3 ADD MSTORE PUSH15 0x1514905394D1915497D19052531151 PUSH1 0x8A SHL PUSH1 0x44 DUP3 ADD MSTORE PUSH1 0x64 ADD PUSH2 0x60C JUMP JUMPDEST POP POP POP POP POP JUMP JUMPDEST PUSH1 0x40 DUP1 MLOAD PUSH1 0x1 PUSH1 0x1 PUSH1 0xA0 SHL SUB DUP6 DUP2 AND PUSH1 0x24 DUP4 ADD MSTORE DUP5 DUP2 AND PUSH1 0x44 DUP4 ADD MSTORE PUSH1 0x64 DUP1 DUP4 ADD DUP6 SWAP1 MSTORE DUP4 MLOAD DUP1 DUP5 SUB SWAP1 SWAP2 ADD DUP2 MSTORE PUSH1 0x84 SWAP1 SWAP3 ADD DUP4 MSTORE PUSH1 0x20 DUP3 ADD DUP1 MLOAD PUSH1 0x1 PUSH1 0x1 PUSH1 0xE0 SHL SUB AND PUSH4 0x23B872DD PUSH1 0xE0 SHL OR SWAP1 MSTORE SWAP2 MLOAD PUSH1 0x0 SWAP3 DUP4 SWAP3 SWAP1 DUP9 AND SWAP2 PUSH2 0x1ABF SWAP2 SWAP1 PUSH2 0x2088 JUMP JUMPDEST PUSH1 0x0 PUSH1 0x40 MLOAD DUP1 DUP4 SUB DUP2 PUSH1 0x0 DUP7 GAS CALL SWAP2 POP POP RETURNDATASIZE DUP1 PUSH1 0x0 DUP2 EQ PUSH2 0x1AFC JUMPI PUSH1 0x40 MLOAD SWAP2 POP PUSH1 0x1F NOT PUSH1 0x3F RETURNDATASIZE ADD AND DUP3 ADD PUSH1 0x40 MSTORE RETURNDATASIZE DUP3 MSTORE RETURNDATASIZE PUSH1 0x0 PUSH1 0x20 DUP5 ADD RETURNDATACOPY PUSH2 0x1B01 JUMP JUMPDEST PUSH1 0x60 SWAP2 POP JUMPDEST POP SWAP2 POP SWAP2 POP DUP2 DUP1 ISZERO PUSH2 0x1B2B JUMPI POP DUP1 MLOAD ISZERO DUP1 PUSH2 0x1B2B JUMPI POP DUP1 DUP1 PUSH1 0x20 ADD SWAP1 MLOAD DUP2 ADD SWAP1 PUSH2 0x1B2B SWAP2 SWAP1 PUSH2 0x20B7 JUMP JUMPDEST PUSH2 0x1B6D JUMPI PUSH1 0x40 MLOAD PUSH3 0x461BCD PUSH1 0xE5 SHL DUP2 MSTORE PUSH1 0x20 PUSH1 0x4 DUP3 ADD MSTORE PUSH1 0x13 PUSH1 0x24 DUP3 ADD MSTORE PUSH19 0x1D1C985B9CD9995C919C9BDB4819985A5B1959 PUSH1 0x6A SHL PUSH1 0x44 DUP3 ADD MSTORE PUSH1 0x64 ADD PUSH2 0x60C JUMP JUMPDEST POP POP POP POP POP POP JUMP JUMPDEST PUSH1 0x0 PUSH1 0x20 DUP3 DUP5 SUB SLT ISZERO PUSH2 0x1B87 JUMPI PUSH1 0x0 DUP1 REVERT JUMPDEST POP CALLDATALOAD SWAP2 SWAP1 POP JUMP JUMPDEST PUSH1 0x0 DUP1 PUSH1 0x40 DUP4 DUP6 SUB SLT ISZERO PUSH2 0x1BA1 JUMPI PUSH1 0x0 DUP1 REVERT JUMPDEST DUP3 CALLDATALOAD SWAP2 POP PUSH1 0x20 DUP4 ADD CALLDATALOAD PUSH1 0xFF DUP2 AND DUP2 EQ PUSH2 0x1BB9 JUMPI PUSH1 0x0 DUP1 REVERT JUMPDEST DUP1 SWAP2 POP POP SWAP3 POP SWAP3 SWAP1 POP JUMP JUMPDEST PUSH1 0x1 PUSH1 0x1 PUSH1 0xA0 SHL SUB DUP2 AND DUP2 EQ PUSH2 0xE5F JUMPI PUSH1 0x0 DUP1 REVERT JUMPDEST PUSH1 0x0 DUP1 PUSH1 0x40 DUP4 DUP6 SUB SLT ISZERO PUSH2 0x1BEC JUMPI PUSH1 0x0 DUP1 REVERT JUMPDEST DUP3 CALLDATALOAD PUSH2 0x1BF7 DUP2 PUSH2 0x1BC4 JUMP JUMPDEST SWAP5 PUSH1 0x20 SWAP4 SWAP1 SWAP4 ADD CALLDATALOAD SWAP4 POP POP POP JUMP JUMPDEST PUSH1 0x0 PUSH1 0x20 DUP3 DUP5 SUB SLT ISZERO PUSH2 0x1C17 JUMPI PUSH1 0x0 DUP1 REVERT JUMPDEST DUP2 CALLDATALOAD PUSH2 0x148E DUP2 PUSH2 0x1BC4 JUMP JUMPDEST PUSH1 0x0 DUP2 MLOAD DUP1 DUP5 MSTORE PUSH1 0x20 DUP1 DUP6 ADD SWAP5 POP DUP1 DUP5 ADD PUSH1 0x0 JUMPDEST DUP4 DUP2 LT ISZERO PUSH2 0x1C52 JUMPI DUP2 MLOAD DUP8 MSTORE SWAP6 DUP3 ADD SWAP6 SWAP1 DUP3 ADD SWAP1 PUSH1 0x1 ADD PUSH2 0x1C36 JUMP JUMPDEST POP SWAP5 SWAP6 SWAP5 POP POP POP POP POP JUMP JUMPDEST DUP3 DUP2 MSTORE PUSH1 0x40 PUSH1 0x20 DUP3 ADD MSTORE PUSH1 0x0 PUSH2 0x1C76 PUSH1 0x40 DUP4 ADD DUP5 PUSH2 0x1C22 JUMP JUMPDEST SWAP5 SWAP4 POP POP POP POP JUMP JUMPDEST PUSH4 0x4E487B71 PUSH1 0xE0 SHL PUSH1 0x0 MSTORE PUSH1 0x41 PUSH1 0x4 MSTORE PUSH1 0x24 PUSH1 0x0 REVERT JUMPDEST PUSH1 0x0 DUP3 PUSH1 0x1F DUP4 ADD SLT PUSH2 0x1CA5 JUMPI PUSH1 0x0 DUP1 REVERT JUMPDEST DUP2 CALLDATALOAD PUSH1 0x20 PUSH8 0xFFFFFFFFFFFFFFFF DUP1 DUP4 GT ISZERO PUSH2 0x1CC2 JUMPI PUSH2 0x1CC2 PUSH2 0x1C7E JUMP JUMPDEST DUP3 PUSH1 0x5 SHL PUSH1 0x40 MLOAD PUSH1 0x1F NOT PUSH1 0x3F DUP4 ADD AND DUP2 ADD DUP2 DUP2 LT DUP5 DUP3 GT OR ISZERO PUSH2 0x1CE7 JUMPI PUSH2 0x1CE7 PUSH2 0x1C7E JUMP JUMPDEST PUSH1 0x40 MSTORE SWAP4 DUP5 MSTORE DUP6 DUP2 ADD DUP4 ADD SWAP4 DUP4 DUP2 ADD SWAP3 POP DUP8 DUP6 GT ISZERO PUSH2 0x1D05 JUMPI PUSH1 0x0 DUP1 REVERT JUMPDEST DUP4 DUP8 ADD SWAP2 POP JUMPDEST DUP5 DUP3 LT ISZERO PUSH2 0x1D24 JUMPI DUP2 CALLDATALOAD DUP4 MSTORE SWAP2 DUP4 ADD SWAP2 SWAP1 DUP4 ADD SWAP1 PUSH2 0x1D0B JUMP JUMPDEST SWAP8 SWAP7 POP POP POP POP POP POP POP JUMP JUMPDEST PUSH1 0x0 DUP1 PUSH1 0x40 DUP4 DUP6 SUB SLT ISZERO PUSH2 0x1D42 JUMPI PUSH1 0x0 DUP1 REVERT JUMPDEST DUP3 CALLDATALOAD PUSH8 0xFFFFFFFFFFFFFFFF DUP1 DUP3 GT ISZERO PUSH2 0x1D5A JUMPI PUSH1 0x0 DUP1 REVERT JUMPDEST PUSH2 0x1D66 DUP7 DUP4 DUP8 ADD PUSH2 0x1C94 JUMP JUMPDEST SWAP4 POP PUSH1 0x20 DUP6 ADD CALLDATALOAD SWAP2 POP DUP1 DUP3 GT ISZERO PUSH2 0x1D7C JUMPI PUSH1 0x0 DUP1 REVERT JUMPDEST POP PUSH2 0x1D89 DUP6 DUP3 DUP7 ADD PUSH2 0x1C94 JUMP JUMPDEST SWAP2 POP POP SWAP3 POP SWAP3 SWAP1 POP JUMP JUMPDEST PUSH1 0x0 PUSH1 0x20 DUP3 DUP5 SUB SLT ISZERO PUSH2 0x1DA5 JUMPI PUSH1 0x0 DUP1 REVERT JUMPDEST DUP2 CALLDATALOAD PUSH8 0xFFFFFFFFFFFFFFFF DUP2 GT ISZERO PUSH2 0x1DBC JUMPI PUSH1 0x0 DUP1 REVERT JUMPDEST PUSH2 0x1C76 DUP5 DUP3 DUP6 ADD PUSH2 0x1C94 JUMP JUMPDEST PUSH1 0x0 DUP1 PUSH1 0x40 DUP4 DUP6 SUB SLT ISZERO PUSH2 0x1DDB JUMPI PUSH1 0x0 DUP1 REVERT JUMPDEST POP POP DUP1 CALLDATALOAD SWAP3 PUSH1 0x20 SWAP1 SWAP2 ADD CALLDATALOAD SWAP2 POP JUMP JUMPDEST PUSH1 0x40 DUP2 MSTORE PUSH1 0x0 PUSH2 0x1DFD PUSH1 0x40 DUP4 ADD DUP6 PUSH2 0x1C22 JUMP JUMPDEST SWAP1 POP DUP3 PUSH1 0x20 DUP4 ADD MSTORE SWAP4 SWAP3 POP POP POP JUMP JUMPDEST PUSH4 0x4E487B71 PUSH1 0xE0 SHL PUSH1 0x0 MSTORE PUSH1 0x11 PUSH1 0x4 MSTORE PUSH1 0x24 PUSH1 0x0 REVERT JUMPDEST PUSH1 0x0 DUP3 PUSH2 0x1E3F JUMPI PUSH4 0x4E487B71 PUSH1 0xE0 SHL PUSH1 0x0 MSTORE PUSH1 0x12 PUSH1 0x4 MSTORE PUSH1 0x24 PUSH1 0x0 REVERT JUMPDEST POP DIV SWAP1 JUMP JUMPDEST DUP1 DUP3 ADD DUP1 DUP3 GT ISZERO PUSH2 0x1E57 JUMPI PUSH2 0x1E57 PUSH2 0x1E0C JUMP JUMPDEST SWAP3 SWAP2 POP POP JUMP JUMPDEST PUSH1 0x0 PUSH1 0xFF DUP3 AND PUSH1 0xFF DUP2 SUB PUSH2 0x1E73 JUMPI PUSH2 0x1E73 PUSH2 0x1E0C JUMP JUMPDEST PUSH1 0x1 ADD SWAP3 SWAP2 POP POP JUMP JUMPDEST PUSH4 0x4E487B71 PUSH1 0xE0 SHL PUSH1 0x0 MSTORE PUSH1 0x32 PUSH1 0x4 MSTORE PUSH1 0x24 PUSH1 0x0 REVERT JUMPDEST DUP2 DUP2 SUB DUP2 DUP2 GT ISZERO PUSH2 0x1E57 JUMPI PUSH2 0x1E57 PUSH2 0x1E0C JUMP JUMPDEST PUSH4 0x4E487B71 PUSH1 0xE0 SHL PUSH1 0x0 MSTORE PUSH1 0x31 PUSH1 0x4 MSTORE PUSH1 0x24 PUSH1 0x0 REVERT JUMPDEST PUSH1 0x0 PUSH1 0x1 DUP3 ADD PUSH2 0x1ECD JUMPI PUSH2 0x1ECD PUSH2 0x1E0C JUMP JUMPDEST POP PUSH1 0x1 ADD SWAP1 JUMP JUMPDEST PUSH1 0x20 DUP1 DUP3 MSTORE PUSH1 0x9 SWAP1 DUP3 ADD MSTORE PUSH9 0x3337B93134B23232B7 PUSH1 0xB9 SHL PUSH1 0x40 DUP3 ADD MSTORE PUSH1 0x60 ADD SWAP1 JUMP JUMPDEST DUP1 DUP3 MUL DUP2 ISZERO DUP3 DUP3 DIV DUP5 EQ OR PUSH2 0x1E57 JUMPI PUSH2 0x1E57 PUSH2 0x1E0C JUMP JUMPDEST PUSH1 0xFF DUP3 DUP2 AND DUP3 DUP3 AND SUB SWAP1 DUP2 GT ISZERO PUSH2 0x1E57 JUMPI PUSH2 0x1E57 PUSH2 0x1E0C JUMP JUMPDEST PUSH1 0x0 DUP2 PUSH2 0x1F36 JUMPI PUSH2 0x1F36 PUSH2 0x1E0C JUMP JUMPDEST POP PUSH1 0x0 NOT ADD SWAP1 JUMP JUMPDEST DUP1 MLOAD PUSH2 0x1F49 DUP2 PUSH2 0x1BC4 JUMP JUMPDEST SWAP2 SWAP1 POP JUMP JUMPDEST DUP1 MLOAD PUSH3 0xFFFFFF DUP2 AND DUP2 EQ PUSH2 0x1F49 JUMPI PUSH1 0x0 DUP1 REVERT JUMPDEST DUP1 MLOAD PUSH1 0x2 DUP2 SWAP1 SIGNEXTEND DUP2 EQ PUSH2 0x1F49 JUMPI PUSH1 0x0 DUP1 REVERT JUMPDEST DUP1 MLOAD PUSH1 0x1 PUSH1 0x1 PUSH1 0x80 SHL SUB DUP2 AND DUP2 EQ PUSH2 0x1F49 JUMPI PUSH1 0x0 DUP1 REVERT JUMPDEST PUSH1 0x0 DUP1 PUSH1 0x0 DUP1 PUSH1 0x0 DUP1 PUSH1 0x0 DUP1 PUSH1 0x0 DUP1 PUSH1 0x0 DUP1 PUSH2 0x180 DUP14 DUP16 SUB SLT ISZERO PUSH2 0x1FAD JUMPI PUSH1 0x0 DUP1 REVERT JUMPDEST DUP13 MLOAD PUSH12 0xFFFFFFFFFFFFFFFFFFFFFFFF DUP2 AND DUP2 EQ PUSH2 0x1FC9 JUMPI PUSH1 0x0 DUP1 REVERT JUMPDEST SWAP12 POP PUSH2 0x1FD7 PUSH1 0x20 DUP15 ADD PUSH2 0x1F3E JUMP JUMPDEST SWAP11 POP PUSH2 0x1FE5 PUSH1 0x40 DUP15 ADD PUSH2 0x1F3E JUMP JUMPDEST SWAP10 POP PUSH2 0x1FF3 PUSH1 0x60 DUP15 ADD PUSH2 0x1F3E JUMP JUMPDEST SWAP9 POP PUSH2 0x2001 PUSH1 0x80 DUP15 ADD PUSH2 0x1F4E JUMP JUMPDEST SWAP8 POP PUSH2 0x200F PUSH1 0xA0 DUP15 ADD PUSH2 0x1F61 JUMP JUMPDEST SWAP7 POP PUSH2 0x201D PUSH1 0xC0 DUP15 ADD PUSH2 0x1F61 JUMP JUMPDEST SWAP6 POP PUSH2 0x202B PUSH1 0xE0 DUP15 ADD PUSH2 0x1F73 JUMP JUMPDEST SWAP5 POP PUSH2 0x100 DUP14 ADD MLOAD SWAP4 POP PUSH2 0x120 DUP14 ADD MLOAD SWAP3 POP PUSH2 0x204A PUSH2 0x140 DUP15 ADD PUSH2 0x1F73 JUMP JUMPDEST SWAP2 POP PUSH2 0x2059 PUSH2 0x160 DUP15 ADD PUSH2 0x1F73 JUMP JUMPDEST SWAP1 POP SWAP3 SWAP6 SWAP9 SWAP12 POP SWAP3 SWAP6 SWAP9 SWAP12 POP SWAP3 SWAP6 SWAP9 SWAP12 JUMP JUMPDEST PUSH1 0x0 PUSH1 0x20 DUP3 DUP5 SUB SLT ISZERO PUSH2 0x207D JUMPI PUSH1 0x0 DUP1 REVERT JUMPDEST DUP2 MLOAD PUSH2 0x148E DUP2 PUSH2 0x1BC4 JUMP JUMPDEST PUSH1 0x0 DUP3 MLOAD PUSH1 0x0 JUMPDEST DUP2 DUP2 LT ISZERO PUSH2 0x20A9 JUMPI PUSH1 0x20 DUP2 DUP7 ADD DUP2 ADD MLOAD DUP6 DUP4 ADD MSTORE ADD PUSH2 0x208F JUMP JUMPDEST POP PUSH1 0x0 SWAP3 ADD SWAP2 DUP3 MSTORE POP SWAP2 SWAP1 POP JUMP JUMPDEST PUSH1 0x0 PUSH1 0x20 DUP3 DUP5 SUB SLT ISZERO PUSH2 0x20C9 JUMPI PUSH1 0x0 DUP1 REVERT JUMPDEST DUP2 MLOAD DUP1 ISZERO ISZERO DUP2 EQ PUSH2 0x148E JUMPI PUSH1 0x0 DUP1 REVERT INVALID LOG2 PUSH5 0x6970667358 0x22 SLT KECCAK256 0xB2 0xA6 PUSH7 0xF71414D3BF7F75 0xA7 0x4E 0xDD SWAP5 PUSH15 0x394C43B7B6F83D077E56ECE9C20A83 CALLER PUSH26 0x64736F6C63430008110033000000000000000000000000000000 "},"methodIdentifiers":{"BEGIN_TIME()":"c75363b6","END_TIME()":"37ba682d","LOCK_WEEKNUM()":"0d437d40","MAX_SCALE()":"f6def7cf","MAX_WEEKS()":"e11400bb","WEEK_SECONDS()":"cd671a58","acceptSetter()":"5f8e422f","canClaimAmount()":"8431165e","claimReward()":"b88a802f","getScore(uint256,uint8)":"ee3453ed","getUserNFTs()":"fdc5ab8e","latestNo()":"29ed1cfd","lockedRewardAmount()":"8923de2b","nftToken()":"d06fcba8","owner()":"8da5cb5b","rewardToken()":"f7c618c1","rewardsOf(uint256)":"0bce1284","setReward(uint256,uint256)":"a47bd496","setRewards(uint256[],uint256[])":"979db1c4","stake(uint256,uint8)":"10087fb1","stakingNFTs(uint256)":"10c6c1c2","token0()":"0dfe1681","token1()":"d21220a7","totalScores(uint256)":"157775df","transferOwner(address)":"4fb2e45d","userCanClaimWeeks(address,uint256)":"bb57852d","userNFTs(address,uint256)":"291c73c3","userScores(address,uint256)":"5b680a45","withdraw(uint256)":"2e1a7d4d","withdraw(uint256[])":"983d95ce","withdrawRewards(uint256)":"9342c8f4"}}}}}