{
  "_format": "hh-sol-artifact-1",
  "contractName": "Reward",
  "sourceName": "contracts/claimNFT.sol",
  "abi": [
    {
      "inputs": [
        {
          "internalType": "address[]",
          "name": "_users",
          "type": "address[]"
        },
        {
          "internalType": "address",
          "name": "_rewardToken",
          "type": "address"
        },
        {
          "internalType": "uint256",
          "name": "_tokenid",
          "type": "uint256"
        }
      ],
      "stateMutability": "nonpayable",
      "type": "constructor"
    },
    {
      "inputs": [],
      "name": "acceptSetter",
      "outputs": [],
      "stateMutability": "nonpayable",
      "type": "function"
    },
    {
      "inputs": [
        {
          "internalType": "address[]",
          "name": "_users",
          "type": "address[]"
        }
      ],
      "name": "addUser",
      "outputs": [],
      "stateMutability": "nonpayable",
      "type": "function"
    },
    {
      "inputs": [],
      "name": "claim",
      "outputs": [],
      "stateMutability": "nonpayable",
      "type": "function"
    },
    {
      "inputs": [],
      "name": "itemID",
      "outputs": [
        {
          "internalType": "uint256",
          "name": "",
          "type": "uint256"
        }
      ],
      "stateMutability": "view",
      "type": "function"
    },
    {
      "inputs": [],
      "name": "nftToken",
      "outputs": [
        {
          "internalType": "contract IERC1155",
          "name": "",
          "type": "address"
        }
      ],
      "stateMutability": "view",
      "type": "function"
    },
    {
      "inputs": [
        {
          "internalType": "address",
          "name": "",
          "type": "address"
        },
        {
          "internalType": "address",
          "name": "",
          "type": "address"
        },
        {
          "internalType": "uint256[]",
          "name": "",
          "type": "uint256[]"
        },
        {
          "internalType": "uint256[]",
          "name": "",
          "type": "uint256[]"
        },
        {
          "internalType": "bytes",
          "name": "",
          "type": "bytes"
        }
      ],
      "name": "onERC1155BatchReceived",
      "outputs": [
        {
          "internalType": "bytes4",
          "name": "",
          "type": "bytes4"
        }
      ],
      "stateMutability": "nonpayable",
      "type": "function"
    },
    {
      "inputs": [
        {
          "internalType": "address",
          "name": "",
          "type": "address"
        },
        {
          "internalType": "address",
          "name": "",
          "type": "address"
        },
        {
          "internalType": "uint256",
          "name": "",
          "type": "uint256"
        },
        {
          "internalType": "uint256",
          "name": "",
          "type": "uint256"
        },
        {
          "internalType": "bytes",
          "name": "",
          "type": "bytes"
        }
      ],
      "name": "onERC1155Received",
      "outputs": [
        {
          "internalType": "bytes4",
          "name": "",
          "type": "bytes4"
        }
      ],
      "stateMutability": "nonpayable",
      "type": "function"
    },
    {
      "inputs": [],
      "name": "owner",
      "outputs": [
        {
          "internalType": "address",
          "name": "",
          "type": "address"
        }
      ],
      "stateMutability": "view",
      "type": "function"
    },
    {
      "inputs": [
        {
          "internalType": "address",
          "name": "_owner",
          "type": "address"
        }
      ],
      "name": "transferOwner",
      "outputs": [],
      "stateMutability": "nonpayable",
      "type": "function"
    },
    {
      "inputs": [
        {
          "internalType": "address",
          "name": "",
          "type": "address"
        }
      ],
      "name": "userClaimed",
      "outputs": [
        {
          "internalType": "uint256",
          "name": "",
          "type": "uint256"
        }
      ],
      "stateMutability": "view",
      "type": "function"
    },
    {
      "inputs": [
        {
          "internalType": "address",
          "name": "",
          "type": "address"
        }
      ],
      "name": "users",
      "outputs": [
        {
          "internalType": "bool",
          "name": "",
          "type": "bool"
        }
      ],
      "stateMutability": "view",
      "type": "function"
    }
  ],
  "bytecode": "0x60c060405234801561001057600080fd5b5060405162000abd38038062000abd833981016040819052610031916100f5565b60005b835181101561009957600160036000868481518110610055576100556101d4565b6020908102919091018101516001600160a01b03168252810191909152604001600020805460ff191691151591909117905580610091816101ea565b915050610034565b506001600160a01b0390911660805260a05250600080546001600160a01b03191633179055610211565b634e487b7160e01b600052604160045260246000fd5b80516001600160a01b03811681146100f057600080fd5b919050565b60008060006060848603121561010a57600080fd5b83516001600160401b038082111561012157600080fd5b818601915086601f83011261013557600080fd5b8151602082821115610149576101496100c3565b8160051b604051601f19603f8301168101818110868211171561016e5761016e6100c3565b60405292835281830193508481018201928a84111561018c57600080fd5b948201945b838610156101b1576101a2866100d9565b85529482019493820193610191565b97506101c090508882016100d9565b955050505050604084015190509250925092565b634e487b7160e01b600052603260045260246000fd5b60006001820161020a57634e487b7160e01b600052601160045260246000fd5b5060010190565b60805160a051610879620002446000396000818160e601526102e60152600081816101db015261032701526108796000f3fe608060405234801561001057600080fd5b50600436106100a95760003560e01c80638da5cb5b116100715780638da5cb5b1461012d578063a87430ba14610158578063bc197c811461018b578063cdfca7f2146101c3578063d06fcba8146101d6578063f23a6e61146101fd57600080fd5b80633b7fcdca146100ae57806343cdef60146100e15780634e71d92d146101085780634fb2e45d146101125780635f8e422f14610125575b600080fd5b6100ce6100bc3660046104d4565b60026020526000908152604090205481565b6040519081526020015b60405180910390f35b6100ce7f000000000000000000000000000000000000000000000000000000000000000081565b61011061021c565b005b6101106101203660046104d4565b610385565b6101106103d1565b600054610140906001600160a01b031681565b6040516001600160a01b0390911681526020016100d8565b61017b6101663660046104d4565b60036020526000908152604090205460ff1681565b60405190151581526020016100d8565b6101aa61019936600461063c565b63bc197c8160e01b95945050505050565b6040516001600160e01b031990911681526020016100d8565b6101106101d13660046106e6565b610422565b6101407f000000000000000000000000000000000000000000000000000000000000000081565b6101aa61020b36600461077e565b63f23a6e6160e01b95945050505050565b3360009081526003602052604090205460ff166102715760405162461bcd60e51b815260206004820152600e60248201526d3ab9b2b9103337b93134b23232b760911b60448201526064015b60405180910390fd5b33600090815260026020526040902054156102b85760405162461bcd60e51b815260206004820152600760248201526618db185a5b595960ca1b6044820152606401610268565b3360008181526002602052604080822042905551637921219560e11b815230600482015260248101929092527f000000000000000000000000000000000000000000000000000000000000000060448301526001606483015260a0608483015260a48201526001600160a01b037f0000000000000000000000000000000000000000000000000000000000000000169063f242432a9060c401600060405180830381600087803b15801561036b57600080fd5b505af115801561037f573d6000803e3d6000fd5b50505050565b6000546001600160a01b031633146103af5760405162461bcd60e51b8152600401610268906107e3565b600180546001600160a01b0319166001600160a01b0392909216919091179055565b6001546001600160a01b031633146103fb5760405162461bcd60e51b8152600401610268906107e3565b60018054600080546001600160a01b03199081166001600160a01b03841617909155169055565b6000546001600160a01b0316331461044c5760405162461bcd60e51b8152600401610268906107e3565b60005b81518110156104b45760016003600084848151811061047057610470610806565b6020908102919091018101516001600160a01b03168252810191909152604001600020805460ff1916911515919091179055806104ac8161081c565b91505061044f565b5050565b80356001600160a01b03811681146104cf57600080fd5b919050565b6000602082840312156104e657600080fd5b6104ef826104b8565b9392505050565b634e487b7160e01b600052604160045260246000fd5b604051601f8201601f1916810167ffffffffffffffff81118282101715610535576105356104f6565b604052919050565b600067ffffffffffffffff821115610557576105576104f6565b5060051b60200190565b600082601f83011261057257600080fd5b813560206105876105828361053d565b61050c565b82815260059290921b840181019181810190868411156105a657600080fd5b8286015b848110156105c157803583529183019183016105aa565b509695505050505050565b600082601f8301126105dd57600080fd5b813567ffffffffffffffff8111156105f7576105f76104f6565b61060a601f8201601f191660200161050c565b81815284602083860101111561061f57600080fd5b816020850160208301376000918101602001919091529392505050565b600080600080600060a0868803121561065457600080fd5b61065d866104b8565b945061066b602087016104b8565b9350604086013567ffffffffffffffff8082111561068857600080fd5b61069489838a01610561565b945060608801359150808211156106aa57600080fd5b6106b689838a01610561565b935060808801359150808211156106cc57600080fd5b506106d9888289016105cc565b9150509295509295909350565b600060208083850312156106f957600080fd5b823567ffffffffffffffff81111561071057600080fd5b8301601f8101851361072157600080fd5b803561072f6105828261053d565b81815260059190911b8201830190838101908783111561074e57600080fd5b928401925b8284101561077357610764846104b8565b82529284019290840190610753565b979650505050505050565b600080600080600060a0868803121561079657600080fd5b61079f866104b8565b94506107ad602087016104b8565b93506040860135925060608601359150608086013567ffffffffffffffff8111156107d757600080fd5b6106d9888289016105cc565b6020808252600990820152683337b93134b23232b760b91b604082015260600190565b634e487b7160e01b600052603260045260246000fd5b60006001820161083c57634e487b7160e01b600052601160045260246000fd5b506001019056fea26469706673582212203cb391babc64dcf5e453957101218e08cbb72b60b46f7b8a0012958d1ebba0ec64736f6c63430008110033",
  "linkReferences": {},
  "deployedLinkReferences": {}
}