{
  "_format": "hh-sol-artifact-1",
  "contractName": "Reward",
  "sourceName": "contracts/claimNFT.sol",
  "abi": [
    {
      "inputs": [
        {
          "internalType": "address[]",
          "name": "_users",
          "type": "address[]"
        },
        {
          "internalType": "uint256",
          "name": "_rewardAmount",
          "type": "uint256"
        },
        {
          "internalType": "address",
          "name": "_rewardToken",
          "type": "address"
        }
      ],
      "stateMutability": "nonpayable",
      "type": "constructor"
    },
    {
      "inputs": [],
      "name": "acceptSetter",
      "outputs": [],
      "stateMutability": "nonpayable",
      "type": "function"
    },
    {
      "inputs": [
        {
          "internalType": "uint256[]",
          "name": "ids",
          "type": "uint256[]"
        }
      ],
      "name": "addTokenIds",
      "outputs": [],
      "stateMutability": "nonpayable",
      "type": "function"
    },
    {
      "inputs": [
        {
          "internalType": "address[]",
          "name": "_users",
          "type": "address[]"
        }
      ],
      "name": "addUser",
      "outputs": [],
      "stateMutability": "nonpayable",
      "type": "function"
    },
    {
      "inputs": [],
      "name": "claim",
      "outputs": [],
      "stateMutability": "nonpayable",
      "type": "function"
    },
    {
      "inputs": [],
      "name": "nftToken",
      "outputs": [
        {
          "internalType": "contract IERC1155",
          "name": "",
          "type": "address"
        }
      ],
      "stateMutability": "view",
      "type": "function"
    },
    {
      "inputs": [],
      "name": "owner",
      "outputs": [
        {
          "internalType": "address",
          "name": "",
          "type": "address"
        }
      ],
      "stateMutability": "view",
      "type": "function"
    },
    {
      "inputs": [],
      "name": "rewardAmount",
      "outputs": [
        {
          "internalType": "uint256",
          "name": "",
          "type": "uint256"
        }
      ],
      "stateMutability": "view",
      "type": "function"
    },
    {
      "inputs": [
        {
          "internalType": "uint256",
          "name": "",
          "type": "uint256"
        }
      ],
      "name": "tokenids",
      "outputs": [
        {
          "internalType": "uint256",
          "name": "",
          "type": "uint256"
        }
      ],
      "stateMutability": "view",
      "type": "function"
    },
    {
      "inputs": [
        {
          "internalType": "address",
          "name": "_owner",
          "type": "address"
        }
      ],
      "name": "transferOwner",
      "outputs": [],
      "stateMutability": "nonpayable",
      "type": "function"
    },
    {
      "inputs": [
        {
          "internalType": "address",
          "name": "",
          "type": "address"
        }
      ],
      "name": "userClaimed",
      "outputs": [
        {
          "internalType": "uint256",
          "name": "",
          "type": "uint256"
        }
      ],
      "stateMutability": "view",
      "type": "function"
    },
    {
      "inputs": [
        {
          "internalType": "address",
          "name": "",
          "type": "address"
        }
      ],
      "name": "users",
      "outputs": [
        {
          "internalType": "bool",
          "name": "",
          "type": "bool"
        }
      ],
      "stateMutability": "view",
      "type": "function"
    }
  ],
  "bytecode": "0x60c060405234801561001057600080fd5b50604051610a51380380610a5183398101604081905261002f916100f4565b60005b835181101561009757600160046000868481518110610053576100536101d4565b6020908102919091018101516001600160a01b03168252810191909152604001600020805460ff19169115159190911790558061008f816101ea565b915050610032565b5060a0919091526001600160a01b031660805250600080546001600160a01b03191633179055610211565b634e487b7160e01b600052604160045260246000fd5b80516001600160a01b03811681146100ef57600080fd5b919050565b60008060006060848603121561010957600080fd5b83516001600160401b038082111561012057600080fd5b818601915086601f83011261013457600080fd5b8151602082821115610148576101486100c2565b8160051b604051601f19603f8301168101818110868211171561016d5761016d6100c2565b60405292835281830193508481018201928a84111561018b57600080fd5b948201945b838610156101b0576101a1866100d8565b85529482019493820193610190565b8098505050808801519550505050506101cb604085016100d8565b90509250925092565b634e487b7160e01b600052603260045260246000fd5b60006001820161020a57634e487b7160e01b600052601160045260246000fd5b5060010190565b60805160a05161081461023d60003960006101c90152600081816101a201526103b301526108146000f3fe608060405234801561001057600080fd5b50600436106100a95760003560e01c80638da5cb5b116100715780638da5cb5b14610119578063a87430ba14610144578063c502d2d014610177578063cdfca7f21461018a578063d06fcba81461019d578063f7b2a7be146101c457600080fd5b8063263419b1146100ae5780633b7fcdca146100c35780634e71d92d146100f65780634fb2e45d146100fe5780635f8e422f14610111575b600080fd5b6100c16100bc3660046105cd565b6101eb565b005b6100e36100d136600461067f565b60036020526000908152604090205481565b6040519081526020015b60405180910390f35b6100c1610273565b6100c161010c36600461067f565b610412565b6100c161045e565b60005461012c906001600160a01b031681565b6040516001600160a01b0390911681526020016100ed565b61016761015236600461067f565b60046020526000908152604090205460ff1681565b60405190151581526020016100ed565b6100e36101853660046106a1565b6104af565b6100c16101983660046106ba565b6104d0565b61012c7f000000000000000000000000000000000000000000000000000000000000000081565b6100e37f000000000000000000000000000000000000000000000000000000000000000081565b6000546001600160a01b0316331461021e5760405162461bcd60e51b815260040161021590610747565b60405180910390fd5b60005b815181101561026f57600282828151811061023e5761023e61076a565b602090810291909101810151825460018101845560009384529190922001558061026781610796565b915050610221565b5050565b3360009081526004602052604090205460ff166102c35760405162461bcd60e51b815260206004820152600e60248201526d3ab9b2b9103337b93134b23232b760911b6044820152606401610215565b336000908152600360205260409020546103095760405162461bcd60e51b815260206004820152600760248201526618db185a5b595960ca1b6044820152606401610215565b3360009081526003602052604081204290556002805461032b906001906107af565b8154811061033b5761033b61076a565b906000526020600020015490506002805480610359576103596107c8565b6000828152602081208201600019908101829055909101909155604051637921219560e11b8152306004820152336024820152604481018390526064810182905260a0608482015260a48101919091526001600160a01b037f0000000000000000000000000000000000000000000000000000000000000000169063f242432a9060c401600060405180830381600087803b1580156103f757600080fd5b505af115801561040b573d6000803e3d6000fd5b5050505050565b6000546001600160a01b0316331461043c5760405162461bcd60e51b815260040161021590610747565b600180546001600160a01b0319166001600160a01b0392909216919091179055565b6001546001600160a01b031633146104885760405162461bcd60e51b815260040161021590610747565b60018054600080546001600160a01b03199081166001600160a01b03841617909155169055565b600281815481106104bf57600080fd5b600091825260209091200154905081565b6000546001600160a01b031633146104fa5760405162461bcd60e51b815260040161021590610747565b60005b815181101561026f5760016004600084848151811061051e5761051e61076a565b6020908102919091018101516001600160a01b03168252810191909152604001600020805460ff19169115159190911790558061055a81610796565b9150506104fd565b634e487b7160e01b600052604160045260246000fd5b604051601f8201601f1916810167ffffffffffffffff811182821017156105a1576105a1610562565b604052919050565b600067ffffffffffffffff8211156105c3576105c3610562565b5060051b60200190565b600060208083850312156105e057600080fd5b823567ffffffffffffffff8111156105f757600080fd5b8301601f8101851361060857600080fd5b803561061b610616826105a9565b610578565b81815260059190911b8201830190838101908783111561063a57600080fd5b928401925b828410156106585783358252928401929084019061063f565b979650505050505050565b80356001600160a01b038116811461067a57600080fd5b919050565b60006020828403121561069157600080fd5b61069a82610663565b9392505050565b6000602082840312156106b357600080fd5b5035919050565b600060208083850312156106cd57600080fd5b823567ffffffffffffffff8111156106e457600080fd5b8301601f810185136106f557600080fd5b8035610703610616826105a9565b81815260059190911b8201830190838101908783111561072257600080fd5b928401925b828410156106585761073884610663565b82529284019290840190610727565b6020808252600990820152683337b93134b23232b760b91b604082015260600190565b634e487b7160e01b600052603260045260246000fd5b634e487b7160e01b600052601160045260246000fd5b6000600182016107a8576107a8610780565b5060010190565b818103818111156107c2576107c2610780565b92915050565b634e487b7160e01b600052603160045260246000fdfea2646970667358221220cf3b80e94534765a72d02419f3ad2ee2ea19c32fbadabee0a4e646b53606a56064736f6c63430008110033",
  "linkReferences": {},
  "deployedLinkReferences": {}
}