{
  "_format": "hh-sol-artifact-1",
  "contractName": "StakeBase",
  "sourceName": "contracts/stakeBase.sol",
  "abi": [
    {
      "inputs": [
        {
          "internalType": "uint8",
          "name": "maxWeeks",
          "type": "uint8"
        },
        {
          "internalType": "uint256",
          "name": "maxScale",
          "type": "uint256"
        },
        {
          "internalType": "uint8",
          "name": "lockWeeks",
          "type": "uint8"
        },
        {
          "internalType": "uint256",
          "name": "beginTime",
          "type": "uint256"
        },
        {
          "internalType": "uint256",
          "name": "endTime",
          "type": "uint256"
        },
        {
          "internalType": "address",
          "name": "_rewardToken",
          "type": "address"
        }
      ],
      "stateMutability": "nonpayable",
      "type": "constructor"
    },
    {
      "anonymous": false,
      "inputs": [
        {
          "indexed": true,
          "internalType": "address",
          "name": "user",
          "type": "address"
        },
        {
          "indexed": false,
          "internalType": "uint256",
          "name": "amount",
          "type": "uint256"
        }
      ],
      "name": "ClaimReward",
      "type": "event"
    },
    {
      "anonymous": false,
      "inputs": [
        {
          "indexed": true,
          "internalType": "address",
          "name": "user",
          "type": "address"
        },
        {
          "indexed": false,
          "internalType": "uint256",
          "name": "no",
          "type": "uint256"
        },
        {
          "indexed": false,
          "internalType": "uint256",
          "name": "amount",
          "type": "uint256"
        }
      ],
      "name": "SetReward",
      "type": "event"
    },
    {
      "inputs": [],
      "name": "BEGIN_TIME",
      "outputs": [
        {
          "internalType": "uint256",
          "name": "",
          "type": "uint256"
        }
      ],
      "stateMutability": "view",
      "type": "function"
    },
    {
      "inputs": [],
      "name": "END_TIME",
      "outputs": [
        {
          "internalType": "uint256",
          "name": "",
          "type": "uint256"
        }
      ],
      "stateMutability": "view",
      "type": "function"
    },
    {
      "inputs": [],
      "name": "LOCK_WEEKNUM",
      "outputs": [
        {
          "internalType": "uint8",
          "name": "",
          "type": "uint8"
        }
      ],
      "stateMutability": "view",
      "type": "function"
    },
    {
      "inputs": [],
      "name": "MAX_SCALE",
      "outputs": [
        {
          "internalType": "uint256",
          "name": "",
          "type": "uint256"
        }
      ],
      "stateMutability": "view",
      "type": "function"
    },
    {
      "inputs": [],
      "name": "MAX_WEEKS",
      "outputs": [
        {
          "internalType": "uint8",
          "name": "",
          "type": "uint8"
        }
      ],
      "stateMutability": "view",
      "type": "function"
    },
    {
      "inputs": [],
      "name": "WEEK_SECONDS",
      "outputs": [
        {
          "internalType": "uint24",
          "name": "",
          "type": "uint24"
        }
      ],
      "stateMutability": "view",
      "type": "function"
    },
    {
      "inputs": [],
      "name": "acceptSetter",
      "outputs": [],
      "stateMutability": "nonpayable",
      "type": "function"
    },
    {
      "inputs": [
        {
          "internalType": "address",
          "name": "user",
          "type": "address"
        }
      ],
      "name": "canClaimAmount",
      "outputs": [
        {
          "internalType": "uint256",
          "name": "",
          "type": "uint256"
        }
      ],
      "stateMutability": "view",
      "type": "function"
    },
    {
      "inputs": [
        {
          "internalType": "uint256",
          "name": "deadline",
          "type": "uint256"
        }
      ],
      "name": "claimReward",
      "outputs": [],
      "stateMutability": "nonpayable",
      "type": "function"
    },
    {
      "inputs": [
        {
          "internalType": "uint256",
          "name": "amount",
          "type": "uint256"
        },
        {
          "internalType": "uint8",
          "name": "k",
          "type": "uint8"
        }
      ],
      "name": "getScore",
      "outputs": [
        {
          "internalType": "uint256",
          "name": "score",
          "type": "uint256"
        }
      ],
      "stateMutability": "view",
      "type": "function"
    },
    {
      "inputs": [],
      "name": "latestNo",
      "outputs": [
        {
          "internalType": "uint256",
          "name": "",
          "type": "uint256"
        }
      ],
      "stateMutability": "view",
      "type": "function"
    },
    {
      "inputs": [
        {
          "internalType": "address",
          "name": "user",
          "type": "address"
        }
      ],
      "name": "lockedRewardAmount",
      "outputs": [
        {
          "internalType": "uint256",
          "name": "",
          "type": "uint256"
        },
        {
          "internalType": "uint256[]",
          "name": "",
          "type": "uint256[]"
        }
      ],
      "stateMutability": "view",
      "type": "function"
    },
    {
      "inputs": [],
      "name": "owner",
      "outputs": [
        {
          "internalType": "address",
          "name": "",
          "type": "address"
        }
      ],
      "stateMutability": "view",
      "type": "function"
    },
    {
      "inputs": [],
      "name": "rewardToken",
      "outputs": [
        {
          "internalType": "address",
          "name": "",
          "type": "address"
        }
      ],
      "stateMutability": "view",
      "type": "function"
    },
    {
      "inputs": [
        {
          "internalType": "uint256",
          "name": "",
          "type": "uint256"
        }
      ],
      "name": "rewardsOf",
      "outputs": [
        {
          "internalType": "uint256",
          "name": "",
          "type": "uint256"
        }
      ],
      "stateMutability": "view",
      "type": "function"
    },
    {
      "inputs": [
        {
          "internalType": "uint256",
          "name": "no",
          "type": "uint256"
        },
        {
          "internalType": "uint256",
          "name": "amount",
          "type": "uint256"
        },
        {
          "internalType": "uint256",
          "name": "deadline",
          "type": "uint256"
        }
      ],
      "name": "setReward",
      "outputs": [],
      "stateMutability": "nonpayable",
      "type": "function"
    },
    {
      "inputs": [
        {
          "internalType": "uint256[]",
          "name": "nos",
          "type": "uint256[]"
        },
        {
          "internalType": "uint256[]",
          "name": "amounts",
          "type": "uint256[]"
        },
        {
          "internalType": "uint256",
          "name": "deadline",
          "type": "uint256"
        }
      ],
      "name": "setRewards",
      "outputs": [
        {
          "internalType": "uint256",
          "name": "total",
          "type": "uint256"
        }
      ],
      "stateMutability": "nonpayable",
      "type": "function"
    },
    {
      "inputs": [
        {
          "internalType": "uint256",
          "name": "",
          "type": "uint256"
        }
      ],
      "name": "totalScores",
      "outputs": [
        {
          "internalType": "uint256",
          "name": "",
          "type": "uint256"
        }
      ],
      "stateMutability": "view",
      "type": "function"
    },
    {
      "inputs": [
        {
          "internalType": "address",
          "name": "_owner",
          "type": "address"
        }
      ],
      "name": "transferOwner",
      "outputs": [],
      "stateMutability": "nonpayable",
      "type": "function"
    },
    {
      "inputs": [
        {
          "internalType": "address",
          "name": "",
          "type": "address"
        },
        {
          "internalType": "uint256",
          "name": "",
          "type": "uint256"
        }
      ],
      "name": "userCanClaimWeeks",
      "outputs": [
        {
          "internalType": "uint256",
          "name": "",
          "type": "uint256"
        }
      ],
      "stateMutability": "view",
      "type": "function"
    },
    {
      "inputs": [
        {
          "internalType": "address",
          "name": "",
          "type": "address"
        },
        {
          "internalType": "uint256",
          "name": "",
          "type": "uint256"
        }
      ],
      "name": "userScores",
      "outputs": [
        {
          "internalType": "uint256",
          "name": "",
          "type": "uint256"
        }
      ],
      "stateMutability": "view",
      "type": "function"
    },
    {
      "inputs": [
        {
          "internalType": "uint256",
          "name": "amount",
          "type": "uint256"
        },
        {
          "internalType": "uint256",
          "name": "deadline",
          "type": "uint256"
        }
      ],
      "name": "withdrawRewards",
      "outputs": [],
      "stateMutability": "nonpayable",
      "type": "function"
    }
  ],
  "bytecode": "0x61014060405234801561001157600080fd5b50604051620015ad380380620015ad83398101604081905261003291610089565b6001600160a01b031660805260ff94851660a05260c093909352921660e0526101009190915261012052600080546001600160a01b031916331790556100fa565b805160ff8116811461008457600080fd5b919050565b60008060008060008060c087890312156100a257600080fd5b6100ab87610073565b9550602087015194506100c060408801610073565b6060880151608089015160a08a015192965090945092506001600160a01b03811681146100ec57600080fd5b809150509295509295509295565b60805160a05160c05160e0516101005161012051611408620001a5600039600081816102190152610ae00152600081816102ec0152610b0b0152600081816101b7015281816103e3015281816105a7015281816109030152610cdf01526000818161037e0152610c7b01526000818161033101528181610c170152610c420152600081816103a5015281816107580152818161086001528181610a0c0152610b7301526114086000f3fe608060405234801561001057600080fd5b50600436106101425760003560e01c80638da5cb5b116100b8578063e11400bb1161007c578063e11400bb1461032c578063e1c05d9314610353578063ee3453ed14610366578063f6def7cf14610379578063f7c618c1146103a0578063fa60c77c146103c757600080fd5b80638da5cb5b14610296578063ae169a50146102c1578063bb57852d146102d4578063c75363b6146102e7578063cd671a581461030e57600080fd5b806329ed1cfd1161010a57806329ed1cfd1461020b57806337ba682d146102145780634fb2e45d1461023b57806352cb5133146102505780635b680a45146102635780635f8e422f1461028e57600080fd5b806302e9e4951461014757806307c6e2fa146101715780630bce1284146101925780630d437d40146101b2578063157775df146101eb575b600080fd5b61015a610155366004611026565b6103da565b604051610168929190611041565b60405180910390f35b61018461017f366004611140565b6105e5565b604051908152602001610168565b6101846101a03660046111ad565b60056020526000908152604090205481565b6101d97f000000000000000000000000000000000000000000000000000000000000000081565b60405160ff9091168152602001610168565b6101846101f93660046111ad565b60046020526000908152604090205481565b61018460065481565b6101847f000000000000000000000000000000000000000000000000000000000000000081565b61024e610249366004611026565b6107c4565b005b61024e61025e3660046111c6565b610810565b6101846102713660046111e8565b600260209081526000928352604080842090915290825290205481565b61024e61088b565b6000546102a9906001600160a01b031681565b6040516001600160a01b039091168152602001610168565b61024e6102cf3660046111ad565b6108dc565b6101846102e23660046111e8565b610a6e565b6101847f000000000000000000000000000000000000000000000000000000000000000081565b61031862093a8081565b60405162ffffff9091168152602001610168565b6101d97f000000000000000000000000000000000000000000000000000000000000000081565b61024e610361366004611212565b610a93565b61018461037436600461123e565b610c0e565b6101847f000000000000000000000000000000000000000000000000000000000000000081565b6102a97f000000000000000000000000000000000000000000000000000000000000000081565b6101846103d5366004611026565b610cd8565b600060608160ff7f00000000000000000000000000000000000000000000000000000000000000001661041062093a804261128a565b61041a91906112ac565b6104259060016112c5565b6001600160a01b038516600090815260036020526040902090915081906001015411610464576040805160008152602081019091529094909350915050565b6001600160a01b0384166000908152600360205260408120805460019091015490918383116104935783610495565b825b905060006104a382846112ac565b67ffffffffffffffff8111156104bb576104bb61108f565b6040519080825280602002602001820160405280156104e4578160200160208202803683370190505b509050815b8381101561058f5760008181526004602052604090205415610554576000818152600460209081526040808320546001600160a01b038d16845260028352818420858552835281842054600590935292205461054591906112ee565b61054f919061128a565b610557565b60005b8261056285846112ac565b81518110610572576105726112d8565b60209081029190910101528061058781611305565b9150506104e9565b50600061059f62093a804261128a565b6105cc8460ff7f0000000000000000000000000000000000000000000000000000000000000000166112c5565b6105d691906112ac565b99919850909650505050505050565b600081804211156106115760405162461bcd60e51b81526004016106089061131e565b60405180910390fd5b6000546001600160a01b0316331461063b5760405162461bcd60e51b815260040161060890611345565b835185511461067f5760405162461bcd60e51b815260206004820152601060248201526f3830b930b6b2ba32b9399032b93937b960811b6044820152606401610608565b6000805b865181101561074d5785818151811061069e5761069e6112d8565b6020026020010151846106b191906112c5565b93508581815181106106c5576106c56112d8565b6020026020010151600560008984815181106106e3576106e36112d8565b602002602001015181526020019081526020016000208190555081878281518110610710576107106112d8565b6020026020010151111561073b57868181518110610730576107306112d8565b602002602001015191505b8061074581611305565b915050610683565b50600681905561077f7f0000000000000000000000000000000000000000000000000000000000000000333086610de3565b60408051600081526020810185905233917fc3991418cacd70a010fce559a44fcbb47534ca43bf7543964bdca2639f6e6e5a910160405180910390a250509392505050565b6000546001600160a01b031633146107ee5760405162461bcd60e51b815260040161060890611345565b600180546001600160a01b0319166001600160a01b0392909216919091179055565b80804211156108315760405162461bcd60e51b81526004016106089061131e565b6000546001600160a01b0316331461085b5760405162461bcd60e51b815260040161060890611345565b6108867f00000000000000000000000000000000000000000000000000000000000000003385610efd565b505050565b6001546001600160a01b031633146108b55760405162461bcd60e51b815260040161060890611345565b60018054600080546001600160a01b03199081166001600160a01b03841617909155169055565b80804211156108fd5760405162461bcd60e51b81526004016106089061131e565b600060ff7f00000000000000000000000000000000000000000000000000000000000000001661093062093a804261128a565b61093a91906112ac565b3360009081526003602052604081205491925090805b336000908152600360205260409020600101548110156109f3578381116109f35761097c8160016112c5565b600082815260046020526040902054909250156109e1576000818152600460209081526040808320543384526002835281842085855283528184205460059093529220546109ca91906112ee565b6109d4919061128a565b6109de90846112c5565b92505b806109eb81611305565b915050610950565b5033600090815260036020526040812082910155610a327f00000000000000000000000000000000000000000000000000000000000000003384610efd565b60405182815233907fba8de60c3403ec381d1d484652ea1980e3c3e56359195c92525bff4ce47ad98e9060200160405180910390a25050505050565b60036020528160005260406000208160028110610a8a57600080fd5b01549150829050565b8080421115610ab45760405162461bcd60e51b81526004016106089061131e565b6000546001600160a01b03163314610ade5760405162461bcd60e51b815260040161060890611345565b7f00000000000000000000000000000000000000000000000000000000000000004211158015610b2e57507f00000000000000000000000000000000000000000000000000000000000000004210155b610b6e5760405162461bcd60e51b81526020600482015260116024820152701b9bdd081a5b881d1a19481c195c9a5bd9607a1b6044820152606401610608565b610b9a7f0000000000000000000000000000000000000000000000000000000000000000333086610de3565b60008481526005602052604081208054859290610bb89084906112c5565b9091555050600654841115610bcd5760068490555b604080518581526020810185905233917fc3991418cacd70a010fce559a44fcbb47534ca43bf7543964bdca2639f6e6e5a910160405180910390a250505050565b6000610c3b60017f0000000000000000000000000000000000000000000000000000000000000000611368565b60ff1660017f000000000000000000000000000000000000000000000000000000000000000060ff16600185610c719190611368565b60ff16610c9f60017f00000000000000000000000000000000000000000000000000000000000000006112ac565b610ca991906112ee565b610cb391906112c5565b610cbd91906112ac565b610cc790856112ee565b610cd1919061128a565b9392505050565b60008060ff7f000000000000000000000000000000000000000000000000000000000000000016610d0c62093a804261128a565b610d1691906112ac565b6001600160a01b038416600090815260036020526040812054919250905b6001600160a01b038516600090815260036020526040902060010154811015610ddb57828111610ddb5760008181526004602052604090205415610dc9576000818152600460209081526040808320546001600160a01b0389168452600283528184208585528352818420546005909352922054610db291906112ee565b610dbc919061128a565b610dc690836112c5565b91505b80610dd381611305565b915050610d34565b509392505050565b604080516001600160a01b0385811660248301528481166044830152606480830185905283518084039091018152608490920183526020820180516001600160e01b03166323b872dd60e01b1790529151600092839290881691610e479190611381565b6000604051808303816000865af19150503d8060008114610e84576040519150601f19603f3d011682016040523d82523d6000602084013e610e89565b606091505b5091509150818015610eb3575080511580610eb3575080806020019051810190610eb391906113b0565b610ef55760405162461bcd60e51b81526020600482015260136024820152721d1c985b9cd9995c919c9bdb4819985a5b1959606a1b6044820152606401610608565b505050505050565b604080516001600160a01b038481166024830152604480830185905283518084039091018152606490920183526020820180516001600160e01b031663a9059cbb60e01b1790529151600092839290871691610f599190611381565b6000604051808303816000865af19150503d8060008114610f96576040519150601f19603f3d011682016040523d82523d6000602084013e610f9b565b606091505b5091509150818015610fc5575080511580610fc5575080806020019051810190610fc591906113b0565b6110035760405162461bcd60e51b815260206004820152600f60248201526e1514905394d1915497d19052531151608a1b6044820152606401610608565b5050505050565b80356001600160a01b038116811461102157600080fd5b919050565b60006020828403121561103857600080fd5b610cd18261100a565b6000604082018483526020604081850152818551808452606086019150828701935060005b8181101561108257845183529383019391830191600101611066565b5090979650505050505050565b634e487b7160e01b600052604160045260246000fd5b600082601f8301126110b657600080fd5b8135602067ffffffffffffffff808311156110d3576110d361108f565b8260051b604051601f19603f830116810181811084821117156110f8576110f861108f565b60405293845285810183019383810192508785111561111657600080fd5b83870191505b848210156111355781358352918301919083019061111c565b979650505050505050565b60008060006060848603121561115557600080fd5b833567ffffffffffffffff8082111561116d57600080fd5b611179878388016110a5565b9450602086013591508082111561118f57600080fd5b5061119c868287016110a5565b925050604084013590509250925092565b6000602082840312156111bf57600080fd5b5035919050565b600080604083850312156111d957600080fd5b50508035926020909101359150565b600080604083850312156111fb57600080fd5b6112048361100a565b946020939093013593505050565b60008060006060848603121561122757600080fd5b505081359360208301359350604090920135919050565b6000806040838503121561125157600080fd5b82359150602083013560ff8116811461126957600080fd5b809150509250929050565b634e487b7160e01b600052601160045260246000fd5b6000826112a757634e487b7160e01b600052601260045260246000fd5b500490565b818103818111156112bf576112bf611274565b92915050565b808201808211156112bf576112bf611274565b634e487b7160e01b600052603260045260246000fd5b80820281158282048414176112bf576112bf611274565b60006001820161131757611317611274565b5060010190565b6020808252600d908201526c6f76657220646561646c696e6560981b604082015260600190565b6020808252600990820152683337b93134b23232b760b91b604082015260600190565b60ff82811682821603908111156112bf576112bf611274565b6000825160005b818110156113a25760208186018101518583015201611388565b506000920191825250919050565b6000602082840312156113c257600080fd5b81518015158114610cd157600080fdfea2646970667358221220725c646fd7f715f1b4e78b27677b7284d2ae61d323abc00cf0dae360b8594af464736f6c63430008110033",
  "linkReferences": {},
  "deployedLinkReferences": {}
}