{
  "_format": "hh-sol-artifact-1",
  "contractName": "StakeBase",
  "sourceName": "contracts/stakeBase.sol",
  "abi": [
    {
      "inputs": [
        {
          "internalType": "uint8",
          "name": "maxWeeks",
          "type": "uint8"
        },
        {
          "internalType": "uint256",
          "name": "maxScale",
          "type": "uint256"
        },
        {
          "internalType": "uint8",
          "name": "lockWeeks",
          "type": "uint8"
        },
        {
          "internalType": "uint256",
          "name": "beginTime",
          "type": "uint256"
        },
        {
          "internalType": "uint256",
          "name": "endTime",
          "type": "uint256"
        },
        {
          "internalType": "address",
          "name": "_rewardToken",
          "type": "address"
        }
      ],
      "stateMutability": "nonpayable",
      "type": "constructor"
    },
    {
      "anonymous": false,
      "inputs": [
        {
          "indexed": true,
          "internalType": "address",
          "name": "user",
          "type": "address"
        },
        {
          "indexed": false,
          "internalType": "uint256",
          "name": "amount",
          "type": "uint256"
        }
      ],
      "name": "ClaimReward",
      "type": "event"
    },
    {
      "anonymous": false,
      "inputs": [
        {
          "indexed": true,
          "internalType": "address",
          "name": "user",
          "type": "address"
        },
        {
          "indexed": false,
          "internalType": "uint256",
          "name": "no",
          "type": "uint256"
        },
        {
          "indexed": false,
          "internalType": "uint256",
          "name": "amount",
          "type": "uint256"
        }
      ],
      "name": "SetReward",
      "type": "event"
    },
    {
      "inputs": [],
      "name": "BEGIN_TIME",
      "outputs": [
        {
          "internalType": "uint256",
          "name": "",
          "type": "uint256"
        }
      ],
      "stateMutability": "view",
      "type": "function"
    },
    {
      "inputs": [],
      "name": "END_TIME",
      "outputs": [
        {
          "internalType": "uint256",
          "name": "",
          "type": "uint256"
        }
      ],
      "stateMutability": "view",
      "type": "function"
    },
    {
      "inputs": [],
      "name": "LOCK_WEEKNUM",
      "outputs": [
        {
          "internalType": "uint8",
          "name": "",
          "type": "uint8"
        }
      ],
      "stateMutability": "view",
      "type": "function"
    },
    {
      "inputs": [],
      "name": "MAX_SCALE",
      "outputs": [
        {
          "internalType": "uint256",
          "name": "",
          "type": "uint256"
        }
      ],
      "stateMutability": "view",
      "type": "function"
    },
    {
      "inputs": [],
      "name": "MAX_WEEKS",
      "outputs": [
        {
          "internalType": "uint8",
          "name": "",
          "type": "uint8"
        }
      ],
      "stateMutability": "view",
      "type": "function"
    },
    {
      "inputs": [],
      "name": "WEEK_SECONDS",
      "outputs": [
        {
          "internalType": "uint24",
          "name": "",
          "type": "uint24"
        }
      ],
      "stateMutability": "view",
      "type": "function"
    },
    {
      "inputs": [],
      "name": "acceptSetter",
      "outputs": [],
      "stateMutability": "nonpayable",
      "type": "function"
    },
    {
      "inputs": [],
      "name": "canClaimAmount",
      "outputs": [
        {
          "internalType": "uint256",
          "name": "",
          "type": "uint256"
        }
      ],
      "stateMutability": "view",
      "type": "function"
    },
    {
      "inputs": [
        {
          "internalType": "uint256",
          "name": "deadline",
          "type": "uint256"
        }
      ],
      "name": "claimReward",
      "outputs": [],
      "stateMutability": "nonpayable",
      "type": "function"
    },
    {
      "inputs": [
        {
          "internalType": "uint256",
          "name": "amount",
          "type": "uint256"
        },
        {
          "internalType": "uint8",
          "name": "k",
          "type": "uint8"
        }
      ],
      "name": "getScore",
      "outputs": [
        {
          "internalType": "uint256",
          "name": "score",
          "type": "uint256"
        }
      ],
      "stateMutability": "view",
      "type": "function"
    },
    {
      "inputs": [],
      "name": "latestNo",
      "outputs": [
        {
          "internalType": "uint256",
          "name": "",
          "type": "uint256"
        }
      ],
      "stateMutability": "view",
      "type": "function"
    },
    {
      "inputs": [],
      "name": "lockedRewardAmount",
      "outputs": [
        {
          "internalType": "uint256",
          "name": "",
          "type": "uint256"
        },
        {
          "internalType": "uint256[]",
          "name": "",
          "type": "uint256[]"
        }
      ],
      "stateMutability": "view",
      "type": "function"
    },
    {
      "inputs": [],
      "name": "owner",
      "outputs": [
        {
          "internalType": "address",
          "name": "",
          "type": "address"
        }
      ],
      "stateMutability": "view",
      "type": "function"
    },
    {
      "inputs": [],
      "name": "rewardToken",
      "outputs": [
        {
          "internalType": "address",
          "name": "",
          "type": "address"
        }
      ],
      "stateMutability": "view",
      "type": "function"
    },
    {
      "inputs": [
        {
          "internalType": "uint256",
          "name": "",
          "type": "uint256"
        }
      ],
      "name": "rewardsOf",
      "outputs": [
        {
          "internalType": "uint256",
          "name": "",
          "type": "uint256"
        }
      ],
      "stateMutability": "view",
      "type": "function"
    },
    {
      "inputs": [
        {
          "internalType": "uint256",
          "name": "no",
          "type": "uint256"
        },
        {
          "internalType": "uint256",
          "name": "amount",
          "type": "uint256"
        },
        {
          "internalType": "uint256",
          "name": "deadline",
          "type": "uint256"
        }
      ],
      "name": "setReward",
      "outputs": [],
      "stateMutability": "nonpayable",
      "type": "function"
    },
    {
      "inputs": [
        {
          "internalType": "uint256[]",
          "name": "nos",
          "type": "uint256[]"
        },
        {
          "internalType": "uint256[]",
          "name": "amounts",
          "type": "uint256[]"
        },
        {
          "internalType": "uint256",
          "name": "deadline",
          "type": "uint256"
        }
      ],
      "name": "setRewards",
      "outputs": [
        {
          "internalType": "uint256",
          "name": "total",
          "type": "uint256"
        }
      ],
      "stateMutability": "nonpayable",
      "type": "function"
    },
    {
      "inputs": [
        {
          "internalType": "uint256",
          "name": "",
          "type": "uint256"
        }
      ],
      "name": "totalScores",
      "outputs": [
        {
          "internalType": "uint256",
          "name": "",
          "type": "uint256"
        }
      ],
      "stateMutability": "view",
      "type": "function"
    },
    {
      "inputs": [
        {
          "internalType": "address",
          "name": "_owner",
          "type": "address"
        }
      ],
      "name": "transferOwner",
      "outputs": [],
      "stateMutability": "nonpayable",
      "type": "function"
    },
    {
      "inputs": [
        {
          "internalType": "address",
          "name": "",
          "type": "address"
        },
        {
          "internalType": "uint256",
          "name": "",
          "type": "uint256"
        }
      ],
      "name": "userCanClaimWeeks",
      "outputs": [
        {
          "internalType": "uint256",
          "name": "",
          "type": "uint256"
        }
      ],
      "stateMutability": "view",
      "type": "function"
    },
    {
      "inputs": [
        {
          "internalType": "address",
          "name": "",
          "type": "address"
        },
        {
          "internalType": "uint256",
          "name": "",
          "type": "uint256"
        }
      ],
      "name": "userScores",
      "outputs": [
        {
          "internalType": "uint256",
          "name": "",
          "type": "uint256"
        }
      ],
      "stateMutability": "view",
      "type": "function"
    },
    {
      "inputs": [
        {
          "internalType": "uint256",
          "name": "amount",
          "type": "uint256"
        },
        {
          "internalType": "uint256",
          "name": "deadline",
          "type": "uint256"
        }
      ],
      "name": "withdrawRewards",
      "outputs": [],
      "stateMutability": "nonpayable",
      "type": "function"
    }
  ],
  "bytecode": "0x61014060405234801561001157600080fd5b5060405161155738038061155783398101604081905261003091610087565b6001600160a01b031660805260ff94851660a05260c093909352921660e0526101009190915261012052600080546001600160a01b031916331790556100f8565b805160ff8116811461008257600080fd5b919050565b60008060008060008060c087890312156100a057600080fd5b6100a987610071565b9550602087015194506100be60408801610071565b6060880151608089015160a08a015192965090945092506001600160a01b03811681146100ea57600080fd5b809150509295509295509295565b60805160a05160c05160e05161010051610120516113b56101a2600039600081816101f40152610b980152600081816102e50152610bc3015260008181610192015281816106be015281816107af0152818161095701526109bb0152600081816103770152610d3301526000818161032a01528181610ccf0152610cfa01526000818161039e015281816105330152818161063b01528181610ac40152610c2b01526113b56000f3fe608060405234801561001057600080fd5b50600436106101425760003560e01c80638923de2b116100b8578063cd671a581161007c578063cd671a5814610307578063e11400bb14610325578063e1c05d931461034c578063ee3453ed1461035f578063f6def7cf14610372578063f7c618c11461039957600080fd5b80638923de2b146102795780638da5cb5b1461028f578063ae169a50146102ba578063bb57852d146102cd578063c75363b6146102e057600080fd5b806337ba682d1161010a57806337ba682d146101ef5780634fb2e45d1461021657806352cb51331461022b5780635b680a451461023e5780635f8e422f146102695780638431165e1461027157600080fd5b806307c6e2fa146101475780630bce12841461016d5780630d437d401461018d578063157775df146101c657806329ed1cfd146101e6575b600080fd5b61015a610155366004611068565b6103c0565b6040519081526020015b60405180910390f35b61015a61017b3660046110d5565b60056020526000908152604090205481565b6101b47f000000000000000000000000000000000000000000000000000000000000000081565b60405160ff9091168152602001610164565b61015a6101d43660046110d5565b60046020526000908152604090205481565b61015a60065481565b61015a7f000000000000000000000000000000000000000000000000000000000000000081565b61022961022436600461110a565b61059f565b005b610229610239366004611125565b6105eb565b61015a61024c366004611147565b600260209081526000928352604080842090915290825290205481565b610229610666565b61015a6106b7565b6102816107a6565b604051610164929190611171565b6000546102a2906001600160a01b031681565b6040516001600160a01b039091168152602001610164565b6102296102c83660046110d5565b610994565b61015a6102db366004611147565b610b26565b61015a7f000000000000000000000000000000000000000000000000000000000000000081565b61031162093a8081565b60405162ffffff9091168152602001610164565b6101b47f000000000000000000000000000000000000000000000000000000000000000081565b61022961035a3660046111bf565b610b4b565b61015a61036d3660046111eb565b610cc6565b61015a7f000000000000000000000000000000000000000000000000000000000000000081565b6102a27f000000000000000000000000000000000000000000000000000000000000000081565b600081804211156103ec5760405162461bcd60e51b81526004016103e390611221565b60405180910390fd5b6000546001600160a01b031633146104165760405162461bcd60e51b81526004016103e390611248565b835185511461045a5760405162461bcd60e51b815260206004820152601060248201526f3830b930b6b2ba32b9399032b93937b960811b60448201526064016103e3565b6000805b8651811015610528578581815181106104795761047961126b565b60200260200101518461048c9190611297565b93508581815181106104a0576104a061126b565b6020026020010151600560008984815181106104be576104be61126b565b6020026020010151815260200190815260200160002081905550818782815181106104eb576104eb61126b565b602002602001015111156105165786818151811061050b5761050b61126b565b602002602001015191505b80610520816112b0565b91505061045e565b50600681905561055a7f0000000000000000000000000000000000000000000000000000000000000000333086610d90565b60408051600081526020810185905233917fc3991418cacd70a010fce559a44fcbb47534ca43bf7543964bdca2639f6e6e5a910160405180910390a250509392505050565b6000546001600160a01b031633146105c95760405162461bcd60e51b81526004016103e390611248565b600180546001600160a01b0319166001600160a01b0392909216919091179055565b808042111561060c5760405162461bcd60e51b81526004016103e390611221565b6000546001600160a01b031633146106365760405162461bcd60e51b81526004016103e390611248565b6106617f00000000000000000000000000000000000000000000000000000000000000003385610eaa565b505050565b6001546001600160a01b031633146106905760405162461bcd60e51b81526004016103e390611248565b60018054600080546001600160a01b03199081166001600160a01b03841617909155169055565b60008060ff7f0000000000000000000000000000000000000000000000000000000000000000166106eb62093a80426112c9565b6106f591906112eb565b33600090815260036020526040812054919250905b3360009081526003602052604090206001015481101561079f5782811161079f576000818152600460205260409020541561078d5760008181526004602090815260408083205433845260028352818420858552835281842054600590935292205461077691906112fe565b61078091906112c9565b61078a9083611297565b91505b80610797816112b0565b91505061070a565b5092915050565b600060608160ff7f0000000000000000000000000000000000000000000000000000000000000000166107dc62093a80426112c9565b6107e691906112eb565b6107f1906001611297565b336000908152600360205260409020909150819060010154116108265760408051600081526020810190915290939092509050565b3360009081526003602052604081208054600190910154909183831161084c578361084e565b825b9050600061085c82846112eb565b67ffffffffffffffff81111561087457610874610fb7565b60405190808252806020026020018201604052801561089d578160200160208202803683370190505b509050815b8381101561093f5760008181526004602052604090205415610904576000818152600460209081526040808320543384526002835281842085855283528184205460059093529220546108f591906112fe565b6108ff91906112c9565b610907565b60005b8261091285846112eb565b815181106109225761092261126b565b602090810291909101015280610937816112b0565b9150506108a2565b50600061094f62093a80426112c9565b61097c8460ff7f000000000000000000000000000000000000000000000000000000000000000016611297565b61098691906112eb565b989197509095505050505050565b80804211156109b55760405162461bcd60e51b81526004016103e390611221565b600060ff7f0000000000000000000000000000000000000000000000000000000000000000166109e862093a80426112c9565b6109f291906112eb565b3360009081526003602052604081205491925090805b33600090815260036020526040902060010154811015610aab57838111610aab57610a34816001611297565b60008281526004602052604090205490925015610a9957600081815260046020908152604080832054338452600283528184208585528352818420546005909352922054610a8291906112fe565b610a8c91906112c9565b610a969084611297565b92505b80610aa3816112b0565b915050610a08565b5033600090815260036020526040812082910155610aea7f00000000000000000000000000000000000000000000000000000000000000003384610eaa565b60405182815233907fba8de60c3403ec381d1d484652ea1980e3c3e56359195c92525bff4ce47ad98e9060200160405180910390a25050505050565b60036020528160005260406000208160028110610b4257600080fd5b01549150829050565b8080421115610b6c5760405162461bcd60e51b81526004016103e390611221565b6000546001600160a01b03163314610b965760405162461bcd60e51b81526004016103e390611248565b7f00000000000000000000000000000000000000000000000000000000000000004211158015610be657507f00000000000000000000000000000000000000000000000000000000000000004210155b610c265760405162461bcd60e51b81526020600482015260116024820152701b9bdd081a5b881d1a19481c195c9a5bd9607a1b60448201526064016103e3565b610c527f0000000000000000000000000000000000000000000000000000000000000000333086610d90565b60008481526005602052604081208054859290610c70908490611297565b9091555050600654841115610c855760068490555b604080518581526020810185905233917fc3991418cacd70a010fce559a44fcbb47534ca43bf7543964bdca2639f6e6e5a910160405180910390a250505050565b6000610cf360017f0000000000000000000000000000000000000000000000000000000000000000611315565b60ff1660017f000000000000000000000000000000000000000000000000000000000000000060ff16600185610d299190611315565b60ff16610d5760017f00000000000000000000000000000000000000000000000000000000000000006112eb565b610d6191906112fe565b610d6b9190611297565b610d7591906112eb565b610d7f90856112fe565b610d8991906112c9565b9392505050565b604080516001600160a01b0385811660248301528481166044830152606480830185905283518084039091018152608490920183526020820180516001600160e01b03166323b872dd60e01b1790529151600092839290881691610df4919061132e565b6000604051808303816000865af19150503d8060008114610e31576040519150601f19603f3d011682016040523d82523d6000602084013e610e36565b606091505b5091509150818015610e60575080511580610e60575080806020019051810190610e60919061135d565b610ea25760405162461bcd60e51b81526020600482015260136024820152721d1c985b9cd9995c919c9bdb4819985a5b1959606a1b60448201526064016103e3565b505050505050565b604080516001600160a01b038481166024830152604480830185905283518084039091018152606490920183526020820180516001600160e01b031663a9059cbb60e01b1790529151600092839290871691610f06919061132e565b6000604051808303816000865af19150503d8060008114610f43576040519150601f19603f3d011682016040523d82523d6000602084013e610f48565b606091505b5091509150818015610f72575080511580610f72575080806020019051810190610f72919061135d565b610fb05760405162461bcd60e51b815260206004820152600f60248201526e1514905394d1915497d19052531151608a1b60448201526064016103e3565b5050505050565b634e487b7160e01b600052604160045260246000fd5b600082601f830112610fde57600080fd5b8135602067ffffffffffffffff80831115610ffb57610ffb610fb7565b8260051b604051601f19603f8301168101818110848211171561102057611020610fb7565b60405293845285810183019383810192508785111561103e57600080fd5b83870191505b8482101561105d57813583529183019190830190611044565b979650505050505050565b60008060006060848603121561107d57600080fd5b833567ffffffffffffffff8082111561109557600080fd5b6110a187838801610fcd565b945060208601359150808211156110b757600080fd5b506110c486828701610fcd565b925050604084013590509250925092565b6000602082840312156110e757600080fd5b5035919050565b80356001600160a01b038116811461110557600080fd5b919050565b60006020828403121561111c57600080fd5b610d89826110ee565b6000806040838503121561113857600080fd5b50508035926020909101359150565b6000806040838503121561115a57600080fd5b611163836110ee565b946020939093013593505050565b6000604082018483526020604081850152818551808452606086019150828701935060005b818110156111b257845183529383019391830191600101611196565b5090979650505050505050565b6000806000606084860312156111d457600080fd5b505081359360208301359350604090920135919050565b600080604083850312156111fe57600080fd5b82359150602083013560ff8116811461121657600080fd5b809150509250929050565b6020808252600d908201526c6f76657220646561646c696e6560981b604082015260600190565b6020808252600990820152683337b93134b23232b760b91b604082015260600190565b634e487b7160e01b600052603260045260246000fd5b634e487b7160e01b600052601160045260246000fd5b808201808211156112aa576112aa611281565b92915050565b6000600182016112c2576112c2611281565b5060010190565b6000826112e657634e487b7160e01b600052601260045260246000fd5b500490565b818103818111156112aa576112aa611281565b80820281158282048414176112aa576112aa611281565b60ff82811682821603908111156112aa576112aa611281565b6000825160005b8181101561134f5760208186018101518583015201611335565b506000920191825250919050565b60006020828403121561136f57600080fd5b81518015158114610d8957600080fdfea2646970667358221220a7d527a9b179bab0cd4bbd5eaaafe25d67363c74b13f825eedf9f702187abc7f64736f6c63430008110033",
  "linkReferences": {},
  "deployedLinkReferences": {}
}