{
  "_format": "hh-sol-artifact-1",
  "contractName": "StakeBase",
  "sourceName": "contracts/stakeBase.sol",
  "abi": [
    {
      "inputs": [
        {
          "internalType": "uint24",
          "name": "weekSeconds",
          "type": "uint24"
        },
        {
          "internalType": "uint8",
          "name": "maxWeeks",
          "type": "uint8"
        },
        {
          "internalType": "uint256",
          "name": "maxScale",
          "type": "uint256"
        },
        {
          "internalType": "uint8",
          "name": "lockWeeks",
          "type": "uint8"
        },
        {
          "internalType": "uint256",
          "name": "beginTime",
          "type": "uint256"
        },
        {
          "internalType": "uint256",
          "name": "endTime",
          "type": "uint256"
        },
        {
          "internalType": "address",
          "name": "_rewardToken",
          "type": "address"
        }
      ],
      "stateMutability": "nonpayable",
      "type": "constructor"
    },
    {
      "anonymous": false,
      "inputs": [
        {
          "indexed": true,
          "internalType": "address",
          "name": "user",
          "type": "address"
        },
        {
          "indexed": false,
          "internalType": "uint256",
          "name": "amount",
          "type": "uint256"
        }
      ],
      "name": "ClaimReward",
      "type": "event"
    },
    {
      "anonymous": false,
      "inputs": [
        {
          "indexed": true,
          "internalType": "address",
          "name": "user",
          "type": "address"
        },
        {
          "indexed": false,
          "internalType": "uint256",
          "name": "no",
          "type": "uint256"
        },
        {
          "indexed": false,
          "internalType": "uint256",
          "name": "amount",
          "type": "uint256"
        }
      ],
      "name": "SetReward",
      "type": "event"
    },
    {
      "inputs": [],
      "name": "BEGIN_TIME",
      "outputs": [
        {
          "internalType": "uint256",
          "name": "",
          "type": "uint256"
        }
      ],
      "stateMutability": "view",
      "type": "function"
    },
    {
      "inputs": [],
      "name": "END_TIME",
      "outputs": [
        {
          "internalType": "uint256",
          "name": "",
          "type": "uint256"
        }
      ],
      "stateMutability": "view",
      "type": "function"
    },
    {
      "inputs": [],
      "name": "LOCK_WEEKNUM",
      "outputs": [
        {
          "internalType": "uint8",
          "name": "",
          "type": "uint8"
        }
      ],
      "stateMutability": "view",
      "type": "function"
    },
    {
      "inputs": [],
      "name": "MAX_SCALE",
      "outputs": [
        {
          "internalType": "uint256",
          "name": "",
          "type": "uint256"
        }
      ],
      "stateMutability": "view",
      "type": "function"
    },
    {
      "inputs": [],
      "name": "MAX_WEEKS",
      "outputs": [
        {
          "internalType": "uint8",
          "name": "",
          "type": "uint8"
        }
      ],
      "stateMutability": "view",
      "type": "function"
    },
    {
      "inputs": [],
      "name": "WEEK_SECONDS",
      "outputs": [
        {
          "internalType": "uint24",
          "name": "",
          "type": "uint24"
        }
      ],
      "stateMutability": "view",
      "type": "function"
    },
    {
      "inputs": [],
      "name": "acceptSetter",
      "outputs": [],
      "stateMutability": "nonpayable",
      "type": "function"
    },
    {
      "inputs": [
        {
          "internalType": "address",
          "name": "user",
          "type": "address"
        }
      ],
      "name": "canClaimAmount",
      "outputs": [
        {
          "internalType": "uint256",
          "name": "",
          "type": "uint256"
        }
      ],
      "stateMutability": "view",
      "type": "function"
    },
    {
      "inputs": [
        {
          "internalType": "uint256",
          "name": "deadline",
          "type": "uint256"
        }
      ],
      "name": "claimReward",
      "outputs": [],
      "stateMutability": "nonpayable",
      "type": "function"
    },
    {
      "inputs": [
        {
          "internalType": "uint256",
          "name": "amount",
          "type": "uint256"
        },
        {
          "internalType": "uint8",
          "name": "k",
          "type": "uint8"
        }
      ],
      "name": "getScore",
      "outputs": [
        {
          "internalType": "uint256",
          "name": "score",
          "type": "uint256"
        }
      ],
      "stateMutability": "view",
      "type": "function"
    },
    {
      "inputs": [],
      "name": "latestNo",
      "outputs": [
        {
          "internalType": "uint256",
          "name": "",
          "type": "uint256"
        }
      ],
      "stateMutability": "view",
      "type": "function"
    },
    {
      "inputs": [
        {
          "internalType": "address",
          "name": "user",
          "type": "address"
        }
      ],
      "name": "lockedRewardAmount",
      "outputs": [
        {
          "internalType": "uint256",
          "name": "",
          "type": "uint256"
        },
        {
          "internalType": "uint256[]",
          "name": "",
          "type": "uint256[]"
        }
      ],
      "stateMutability": "view",
      "type": "function"
    },
    {
      "inputs": [],
      "name": "owner",
      "outputs": [
        {
          "internalType": "address",
          "name": "",
          "type": "address"
        }
      ],
      "stateMutability": "view",
      "type": "function"
    },
    {
      "inputs": [],
      "name": "rewardToken",
      "outputs": [
        {
          "internalType": "address",
          "name": "",
          "type": "address"
        }
      ],
      "stateMutability": "view",
      "type": "function"
    },
    {
      "inputs": [
        {
          "internalType": "uint256",
          "name": "",
          "type": "uint256"
        }
      ],
      "name": "rewardsOf",
      "outputs": [
        {
          "internalType": "uint256",
          "name": "",
          "type": "uint256"
        }
      ],
      "stateMutability": "view",
      "type": "function"
    },
    {
      "inputs": [
        {
          "internalType": "uint256",
          "name": "no",
          "type": "uint256"
        },
        {
          "internalType": "uint256",
          "name": "amount",
          "type": "uint256"
        },
        {
          "internalType": "uint256",
          "name": "deadline",
          "type": "uint256"
        }
      ],
      "name": "setReward",
      "outputs": [],
      "stateMutability": "nonpayable",
      "type": "function"
    },
    {
      "inputs": [
        {
          "internalType": "uint256[]",
          "name": "nos",
          "type": "uint256[]"
        },
        {
          "internalType": "uint256[]",
          "name": "amounts",
          "type": "uint256[]"
        },
        {
          "internalType": "uint256",
          "name": "deadline",
          "type": "uint256"
        }
      ],
      "name": "setRewards",
      "outputs": [],
      "stateMutability": "nonpayable",
      "type": "function"
    },
    {
      "inputs": [
        {
          "internalType": "uint256",
          "name": "",
          "type": "uint256"
        }
      ],
      "name": "totalScores",
      "outputs": [
        {
          "internalType": "uint256",
          "name": "",
          "type": "uint256"
        }
      ],
      "stateMutability": "view",
      "type": "function"
    },
    {
      "inputs": [
        {
          "internalType": "address",
          "name": "_owner",
          "type": "address"
        }
      ],
      "name": "transferOwner",
      "outputs": [],
      "stateMutability": "nonpayable",
      "type": "function"
    },
    {
      "inputs": [
        {
          "internalType": "address",
          "name": "",
          "type": "address"
        },
        {
          "internalType": "uint256",
          "name": "",
          "type": "uint256"
        }
      ],
      "name": "userCanClaimWeeks",
      "outputs": [
        {
          "internalType": "uint256",
          "name": "",
          "type": "uint256"
        }
      ],
      "stateMutability": "view",
      "type": "function"
    },
    {
      "inputs": [
        {
          "internalType": "address",
          "name": "",
          "type": "address"
        },
        {
          "internalType": "uint256",
          "name": "",
          "type": "uint256"
        }
      ],
      "name": "userScores",
      "outputs": [
        {
          "internalType": "uint256",
          "name": "",
          "type": "uint256"
        }
      ],
      "stateMutability": "view",
      "type": "function"
    }
  ],
  "bytecode": "0x61016060405234801561001157600080fd5b5060405161133f38038061133f83398101604081905261003091610090565b6001600160a01b031660805262ffffff90951660a05260ff93841660c05260e092909252909116610100526101205261014052600080546001600160a01b0319163317905561011d565b805160ff8116811461008b57600080fd5b919050565b600080600080600080600060e0888a0312156100ab57600080fd5b875162ffffff811681146100be57600080fd5b96506100cc6020890161007a565b9550604088015194506100e16060890161007a565b608089015160a08a015160c08b015192965090945092506001600160a01b038116811461010d57600080fd5b8091505092959891949750929550565b60805160a05160c05160e0516101005161012051610140516111746101cb6000396000610210015260006102ce0152600081816101ae015281816103e2015281816105ea015281816108350152610b6501526000818161037d0152610b0101526000818161033001528181610a9d0152610ac80152600081816102f50152818161040b015281816105bc0152818161085e0152610b8e0152600081816103a4015261096001526111746000f3fe608060405234801561001057600080fd5b50600436106101375760003560e01c80638da5cb5b116100b8578063e11400bb1161007c578063e11400bb1461032b578063e1c05d9314610352578063ee3453ed14610365578063f6def7cf14610378578063f7c618c11461039f578063fa60c77c146103c657600080fd5b80638da5cb5b14610278578063ae169a50146102a3578063bb57852d146102b6578063c75363b6146102c9578063cd671a58146102f057600080fd5b806329ed1cfd116100ff57806329ed1cfd1461020257806337ba682d1461020b5780634fb2e45d146102325780635b680a45146102455780635f8e422f1461027057600080fd5b806302e9e4951461013c57806307c6e2fa146101665780630bce12841461017b5780630d437d40146101a9578063157775df146101e2575b600080fd5b61014f61014a366004610db4565b6103d9565b60405161015d929190610dcf565b60405180910390f35b610179610174366004610ece565b610628565b005b61019b610189366004610f3b565b60056020526000908152604090205481565b60405190815260200161015d565b6101d07f000000000000000000000000000000000000000000000000000000000000000081565b60405160ff909116815260200161015d565b61019b6101f0366004610f3b565b60046020526000908152604090205481565b61019b60065481565b61019b7f000000000000000000000000000000000000000000000000000000000000000081565b610179610240366004610db4565b610771565b61019b610253366004610f54565b600260209081526000928352604080842090915290825290205481565b6101796107bd565b60005461028b906001600160a01b031681565b6040516001600160a01b03909116815260200161015d565b6101796102b1366004610f3b565b61080e565b61019b6102c4366004610f54565b6109c2565b61019b7f000000000000000000000000000000000000000000000000000000000000000081565b6103177f000000000000000000000000000000000000000000000000000000000000000081565b60405162ffffff909116815260200161015d565b6101d07f000000000000000000000000000000000000000000000000000000000000000081565b610179610360366004610f7e565b6109e7565b61019b610373366004610faa565b610a94565b61019b7f000000000000000000000000000000000000000000000000000000000000000081565b61028b7f000000000000000000000000000000000000000000000000000000000000000081565b61019b6103d4366004610db4565b610b5e565b600060608160ff7f00000000000000000000000000000000000000000000000000000000000000001661043162ffffff7f00000000000000000000000000000000000000000000000000000000000000001642610ff6565b61043b9190611018565b610446906001611031565b6001600160a01b038516600090815260036020526040902090915081906001015411610485576040805160008152602081019091529094909350915050565b6001600160a01b0384166000908152600360205260408120805460019091015490918383116104b457836104b6565b825b905060006104c48284611018565b67ffffffffffffffff8111156104dc576104dc610e1d565b604051908082528060200260200182016040528015610505578160200160208202803683370190505b509050815b838110156105b05760008181526004602052604090205415610575576000818152600460209081526040808320546001600160a01b038d168452600283528184208585528352818420546005909352922054610566919061105a565b6105709190610ff6565b610578565b60005b826105838584611018565b8151811061059357610593611044565b6020908102919091010152806105a881611071565b91505061050a565b5060006105e262ffffff7f00000000000000000000000000000000000000000000000000000000000000001642610ff6565b61060f8460ff7f000000000000000000000000000000000000000000000000000000000000000016611031565b6106199190611018565b99919850909650505050505050565b80804211156106525760405162461bcd60e51b81526004016106499061108a565b60405180910390fd5b6000546001600160a01b0316331461067c5760405162461bcd60e51b8152600401610649906110b1565b82518451146106c05760405162461bcd60e51b815260206004820152601060248201526f3830b930b6b2ba32b9399032b93937b960811b6044820152606401610649565b6000805b8551811015610767578481815181106106df576106df611044565b6020026020010151600560008884815181106106fd576106fd611044565b60200260200101518152602001908152602001600020819055508186828151811061072a5761072a611044565b602002602001015111156107555785818151811061074a5761074a611044565b602002602001015191505b8061075f81611071565b9150506106c4565b5060065550505050565b6000546001600160a01b0316331461079b5760405162461bcd60e51b8152600401610649906110b1565b600180546001600160a01b0319166001600160a01b0392909216919091179055565b6001546001600160a01b031633146107e75760405162461bcd60e51b8152600401610649906110b1565b60018054600080546001600160a01b03199081166001600160a01b03841617909155169055565b808042111561082f5760405162461bcd60e51b81526004016106499061108a565b600060ff7f00000000000000000000000000000000000000000000000000000000000000001661088462ffffff7f00000000000000000000000000000000000000000000000000000000000000001642610ff6565b61088e9190611018565b3360009081526003602052604081205491925090805b3360009081526003602052604090206001015481101561094757838111610947576108d0816001611031565b600082815260046020526040902054909250156109355760008181526004602090815260408083205433845260028352818420858552835281842054600590935292205461091e919061105a565b6109289190610ff6565b6109329084611031565b92505b8061093f81611071565b9150506108a4565b50336000908152600360205260408120829101556109867f00000000000000000000000000000000000000000000000000000000000000003384610c8b565b60405182815233907fba8de60c3403ec381d1d484652ea1980e3c3e56359195c92525bff4ce47ad98e9060200160405180910390a25050505050565b600360205281600052604060002081600281106109de57600080fd5b01549150829050565b8080421115610a085760405162461bcd60e51b81526004016106499061108a565b6000546001600160a01b03163314610a325760405162461bcd60e51b8152600401610649906110b1565b6000848152600560205260409020839055600654841115610a535760068490555b604080518581526020810185905233917fc3991418cacd70a010fce559a44fcbb47534ca43bf7543964bdca2639f6e6e5a910160405180910390a250505050565b6000610ac160017f00000000000000000000000000000000000000000000000000000000000000006110d4565b60ff1660017f000000000000000000000000000000000000000000000000000000000000000060ff16600185610af791906110d4565b60ff16610b2560017f0000000000000000000000000000000000000000000000000000000000000000611018565b610b2f919061105a565b610b399190611031565b610b439190611018565b610b4d908561105a565b610b579190610ff6565b9392505050565b60008060ff7f000000000000000000000000000000000000000000000000000000000000000016610bb462ffffff7f00000000000000000000000000000000000000000000000000000000000000001642610ff6565b610bbe9190611018565b6001600160a01b038416600090815260036020526040812054919250905b6001600160a01b038516600090815260036020526040902060010154811015610c8357828111610c835760008181526004602052604090205415610c71576000818152600460209081526040808320546001600160a01b0389168452600283528184208585528352818420546005909352922054610c5a919061105a565b610c649190610ff6565b610c6e9083611031565b91505b80610c7b81611071565b915050610bdc565b509392505050565b604080516001600160a01b038481166024830152604480830185905283518084039091018152606490920183526020820180516001600160e01b031663a9059cbb60e01b1790529151600092839290871691610ce791906110ed565b6000604051808303816000865af19150503d8060008114610d24576040519150601f19603f3d011682016040523d82523d6000602084013e610d29565b606091505b5091509150818015610d53575080511580610d53575080806020019051810190610d53919061111c565b610d915760405162461bcd60e51b815260206004820152600f60248201526e1514905394d1915497d19052531151608a1b6044820152606401610649565b5050505050565b80356001600160a01b0381168114610daf57600080fd5b919050565b600060208284031215610dc657600080fd5b610b5782610d98565b6000604082018483526020604081850152818551808452606086019150828701935060005b81811015610e1057845183529383019391830191600101610df4565b5090979650505050505050565b634e487b7160e01b600052604160045260246000fd5b600082601f830112610e4457600080fd5b8135602067ffffffffffffffff80831115610e6157610e61610e1d565b8260051b604051601f19603f83011681018181108482111715610e8657610e86610e1d565b604052938452858101830193838101925087851115610ea457600080fd5b83870191505b84821015610ec357813583529183019190830190610eaa565b979650505050505050565b600080600060608486031215610ee357600080fd5b833567ffffffffffffffff80821115610efb57600080fd5b610f0787838801610e33565b94506020860135915080821115610f1d57600080fd5b50610f2a86828701610e33565b925050604084013590509250925092565b600060208284031215610f4d57600080fd5b5035919050565b60008060408385031215610f6757600080fd5b610f7083610d98565b946020939093013593505050565b600080600060608486031215610f9357600080fd5b505081359360208301359350604090920135919050565b60008060408385031215610fbd57600080fd5b82359150602083013560ff81168114610fd557600080fd5b809150509250929050565b634e487b7160e01b600052601160045260246000fd5b60008261101357634e487b7160e01b600052601260045260246000fd5b500490565b8181038181111561102b5761102b610fe0565b92915050565b8082018082111561102b5761102b610fe0565b634e487b7160e01b600052603260045260246000fd5b808202811582820484141761102b5761102b610fe0565b60006001820161108357611083610fe0565b5060010190565b6020808252600d908201526c6f76657220646561646c696e6560981b604082015260600190565b6020808252600990820152683337b93134b23232b760b91b604082015260600190565b60ff828116828216039081111561102b5761102b610fe0565b6000825160005b8181101561110e57602081860181015185830152016110f4565b506000920191825250919050565b60006020828403121561112e57600080fd5b81518015158114610b5757600080fdfea2646970667358221220077751b186f94dbb1926ac3a0138b2fd68196d7da70dfdc2dea3fea7d04d6e8364736f6c63430008110033",
  "linkReferences": {},
  "deployedLinkReferences": {}
}