{
  "_format": "hh-sol-artifact-1",
  "contractName": "StakeBase",
  "sourceName": "contracts/stakeBase.sol",
  "abi": [
    {
      "inputs": [
        {
          "internalType": "uint8",
          "name": "maxWeeks",
          "type": "uint8"
        },
        {
          "internalType": "uint256",
          "name": "maxScale",
          "type": "uint256"
        },
        {
          "internalType": "uint8",
          "name": "lockWeeks",
          "type": "uint8"
        },
        {
          "internalType": "uint256",
          "name": "beginTime",
          "type": "uint256"
        },
        {
          "internalType": "uint256",
          "name": "endTime",
          "type": "uint256"
        },
        {
          "internalType": "address",
          "name": "_rewardToken",
          "type": "address"
        }
      ],
      "stateMutability": "nonpayable",
      "type": "constructor"
    },
    {
      "anonymous": false,
      "inputs": [
        {
          "indexed": true,
          "internalType": "address",
          "name": "user",
          "type": "address"
        },
        {
          "indexed": false,
          "internalType": "uint256",
          "name": "amount",
          "type": "uint256"
        }
      ],
      "name": "ClaimReward",
      "type": "event"
    },
    {
      "anonymous": false,
      "inputs": [
        {
          "indexed": true,
          "internalType": "address",
          "name": "user",
          "type": "address"
        },
        {
          "indexed": false,
          "internalType": "uint256",
          "name": "no",
          "type": "uint256"
        },
        {
          "indexed": false,
          "internalType": "uint256",
          "name": "amount",
          "type": "uint256"
        }
      ],
      "name": "SetReward",
      "type": "event"
    },
    {
      "inputs": [],
      "name": "BEGIN_TIME",
      "outputs": [
        {
          "internalType": "uint256",
          "name": "",
          "type": "uint256"
        }
      ],
      "stateMutability": "view",
      "type": "function"
    },
    {
      "inputs": [],
      "name": "END_TIME",
      "outputs": [
        {
          "internalType": "uint256",
          "name": "",
          "type": "uint256"
        }
      ],
      "stateMutability": "view",
      "type": "function"
    },
    {
      "inputs": [],
      "name": "LOCK_WEEKNUM",
      "outputs": [
        {
          "internalType": "uint8",
          "name": "",
          "type": "uint8"
        }
      ],
      "stateMutability": "view",
      "type": "function"
    },
    {
      "inputs": [],
      "name": "MAX_SCALE",
      "outputs": [
        {
          "internalType": "uint256",
          "name": "",
          "type": "uint256"
        }
      ],
      "stateMutability": "view",
      "type": "function"
    },
    {
      "inputs": [],
      "name": "MAX_WEEKS",
      "outputs": [
        {
          "internalType": "uint8",
          "name": "",
          "type": "uint8"
        }
      ],
      "stateMutability": "view",
      "type": "function"
    },
    {
      "inputs": [],
      "name": "WEEK_SECONDS",
      "outputs": [
        {
          "internalType": "uint24",
          "name": "",
          "type": "uint24"
        }
      ],
      "stateMutability": "view",
      "type": "function"
    },
    {
      "inputs": [],
      "name": "acceptSetter",
      "outputs": [],
      "stateMutability": "nonpayable",
      "type": "function"
    },
    {
      "inputs": [],
      "name": "canClaimAmount",
      "outputs": [
        {
          "internalType": "uint256",
          "name": "",
          "type": "uint256"
        }
      ],
      "stateMutability": "view",
      "type": "function"
    },
    {
      "inputs": [
        {
          "internalType": "uint256",
          "name": "deadline",
          "type": "uint256"
        }
      ],
      "name": "claimReward",
      "outputs": [],
      "stateMutability": "nonpayable",
      "type": "function"
    },
    {
      "inputs": [
        {
          "internalType": "uint256",
          "name": "amount",
          "type": "uint256"
        },
        {
          "internalType": "uint8",
          "name": "k",
          "type": "uint8"
        }
      ],
      "name": "getScore",
      "outputs": [
        {
          "internalType": "uint256",
          "name": "score",
          "type": "uint256"
        }
      ],
      "stateMutability": "view",
      "type": "function"
    },
    {
      "inputs": [],
      "name": "latestNo",
      "outputs": [
        {
          "internalType": "uint256",
          "name": "",
          "type": "uint256"
        }
      ],
      "stateMutability": "view",
      "type": "function"
    },
    {
      "inputs": [],
      "name": "lockedRewardAmount",
      "outputs": [
        {
          "internalType": "uint256",
          "name": "",
          "type": "uint256"
        },
        {
          "internalType": "uint256[]",
          "name": "",
          "type": "uint256[]"
        }
      ],
      "stateMutability": "view",
      "type": "function"
    },
    {
      "inputs": [],
      "name": "owner",
      "outputs": [
        {
          "internalType": "address",
          "name": "",
          "type": "address"
        }
      ],
      "stateMutability": "view",
      "type": "function"
    },
    {
      "inputs": [],
      "name": "rewardToken",
      "outputs": [
        {
          "internalType": "address",
          "name": "",
          "type": "address"
        }
      ],
      "stateMutability": "view",
      "type": "function"
    },
    {
      "inputs": [
        {
          "internalType": "uint256",
          "name": "",
          "type": "uint256"
        }
      ],
      "name": "rewardsOf",
      "outputs": [
        {
          "internalType": "uint256",
          "name": "",
          "type": "uint256"
        }
      ],
      "stateMutability": "view",
      "type": "function"
    },
    {
      "inputs": [
        {
          "internalType": "uint256",
          "name": "no",
          "type": "uint256"
        },
        {
          "internalType": "uint256",
          "name": "amount",
          "type": "uint256"
        },
        {
          "internalType": "uint256",
          "name": "deadline",
          "type": "uint256"
        }
      ],
      "name": "setReward",
      "outputs": [],
      "stateMutability": "nonpayable",
      "type": "function"
    },
    {
      "inputs": [
        {
          "internalType": "uint256[]",
          "name": "nos",
          "type": "uint256[]"
        },
        {
          "internalType": "uint256[]",
          "name": "amounts",
          "type": "uint256[]"
        },
        {
          "internalType": "uint256",
          "name": "deadline",
          "type": "uint256"
        }
      ],
      "name": "setRewards",
      "outputs": [
        {
          "internalType": "uint256",
          "name": "total",
          "type": "uint256"
        }
      ],
      "stateMutability": "nonpayable",
      "type": "function"
    },
    {
      "inputs": [
        {
          "internalType": "uint256",
          "name": "",
          "type": "uint256"
        }
      ],
      "name": "totalScores",
      "outputs": [
        {
          "internalType": "uint256",
          "name": "",
          "type": "uint256"
        }
      ],
      "stateMutability": "view",
      "type": "function"
    },
    {
      "inputs": [
        {
          "internalType": "address",
          "name": "_owner",
          "type": "address"
        }
      ],
      "name": "transferOwner",
      "outputs": [],
      "stateMutability": "nonpayable",
      "type": "function"
    },
    {
      "inputs": [
        {
          "internalType": "address",
          "name": "",
          "type": "address"
        },
        {
          "internalType": "uint256",
          "name": "",
          "type": "uint256"
        }
      ],
      "name": "userCanClaimWeeks",
      "outputs": [
        {
          "internalType": "uint256",
          "name": "",
          "type": "uint256"
        }
      ],
      "stateMutability": "view",
      "type": "function"
    },
    {
      "inputs": [
        {
          "internalType": "address",
          "name": "",
          "type": "address"
        },
        {
          "internalType": "uint256",
          "name": "",
          "type": "uint256"
        }
      ],
      "name": "userScores",
      "outputs": [
        {
          "internalType": "uint256",
          "name": "",
          "type": "uint256"
        }
      ],
      "stateMutability": "view",
      "type": "function"
    },
    {
      "inputs": [
        {
          "internalType": "uint256",
          "name": "amount",
          "type": "uint256"
        },
        {
          "internalType": "uint256",
          "name": "deadline",
          "type": "uint256"
        }
      ],
      "name": "withdrawRewards",
      "outputs": [],
      "stateMutability": "nonpayable",
      "type": "function"
    }
  ],
  "bytecode": "0x61014060405234801561001157600080fd5b5060405161155238038061155283398101604081905261003091610087565b6001600160a01b031660805260ff94851660a05260c093909352921660e0526101009190915261012052600080546001600160a01b031916331790556100f8565b805160ff8116811461008257600080fd5b919050565b60008060008060008060c087890312156100a057600080fd5b6100a987610071565b9550602087015194506100be60408801610071565b6060880151608089015160a08a015192965090945092506001600160a01b03811681146100ea57600080fd5b809150509295509295509295565b60805160a05160c05160e05161010051610120516113b06101a2600039600081816101f40152610b930152600081816102e50152610bbe015260008181610192015281816106bd015281816107ad0152818161095301526109b70152600081816103760152610d2e01526000818161032901528181610cca0152610cf501526000818161039d015281816105320152818161063a01528181610abf0152610c2601526113b06000f3fe608060405234801561001057600080fd5b50600436106101425760003560e01c80638923de2b116100b8578063cd671a581161007c578063cd671a5814610307578063e11400bb14610324578063e1c05d931461034b578063ee3453ed1461035e578063f6def7cf14610371578063f7c618c11461039857600080fd5b80638923de2b146102795780638da5cb5b1461028f578063ae169a50146102ba578063bb57852d146102cd578063c75363b6146102e057600080fd5b806337ba682d1161010a57806337ba682d146101ef5780634fb2e45d1461021657806352cb51331461022b5780635b680a451461023e5780635f8e422f146102695780638431165e1461027157600080fd5b806307c6e2fa146101475780630bce12841461016d5780630d437d401461018d578063157775df146101c657806329ed1cfd146101e6575b600080fd5b61015a610155366004611063565b6103bf565b6040519081526020015b60405180910390f35b61015a61017b3660046110d0565b60056020526000908152604090205481565b6101b47f000000000000000000000000000000000000000000000000000000000000000081565b60405160ff9091168152602001610164565b61015a6101d43660046110d0565b60046020526000908152604090205481565b61015a60065481565b61015a7f000000000000000000000000000000000000000000000000000000000000000081565b610229610224366004611105565b61059e565b005b610229610239366004611120565b6105ea565b61015a61024c366004611142565b600260209081526000928352604080842090915290825290205481565b610229610665565b61015a6106b6565b6102816107a4565b60405161016492919061116c565b6000546102a2906001600160a01b031681565b6040516001600160a01b039091168152602001610164565b6102296102c83660046110d0565b610990565b61015a6102db366004611142565b610b21565b61015a7f000000000000000000000000000000000000000000000000000000000000000081565b610310610e1081565b60405162ffffff9091168152602001610164565b6101b47f000000000000000000000000000000000000000000000000000000000000000081565b6102296103593660046111ba565b610b46565b61015a61036c3660046111e6565b610cc1565b61015a7f000000000000000000000000000000000000000000000000000000000000000081565b6102a27f000000000000000000000000000000000000000000000000000000000000000081565b600081804211156103eb5760405162461bcd60e51b81526004016103e29061121c565b60405180910390fd5b6000546001600160a01b031633146104155760405162461bcd60e51b81526004016103e290611243565b83518551146104595760405162461bcd60e51b815260206004820152601060248201526f3830b930b6b2ba32b9399032b93937b960811b60448201526064016103e2565b6000805b86518110156105275785818151811061047857610478611266565b60200260200101518461048b9190611292565b935085818151811061049f5761049f611266565b6020026020010151600560008984815181106104bd576104bd611266565b6020026020010151815260200190815260200160002081905550818782815181106104ea576104ea611266565b602002602001015111156105155786818151811061050a5761050a611266565b602002602001015191505b8061051f816112ab565b91505061045d565b5060068190556105597f0000000000000000000000000000000000000000000000000000000000000000333086610d8b565b60408051600081526020810185905233917fc3991418cacd70a010fce559a44fcbb47534ca43bf7543964bdca2639f6e6e5a910160405180910390a250509392505050565b6000546001600160a01b031633146105c85760405162461bcd60e51b81526004016103e290611243565b600180546001600160a01b0319166001600160a01b0392909216919091179055565b808042111561060b5760405162461bcd60e51b81526004016103e29061121c565b6000546001600160a01b031633146106355760405162461bcd60e51b81526004016103e290611243565b6106607f00000000000000000000000000000000000000000000000000000000000000003385610ea5565b505050565b6001546001600160a01b0316331461068f5760405162461bcd60e51b81526004016103e290611243565b60018054600080546001600160a01b03199081166001600160a01b03841617909155169055565b60008060ff7f0000000000000000000000000000000000000000000000000000000000000000166106e9610e10426112c4565b6106f391906112e6565b33600090815260036020526040812054919250905b3360009081526003602052604090206001015481101561079d5782811161079d576000818152600460205260409020541561078b5760008181526004602090815260408083205433845260028352818420858552835281842054600590935292205461077491906112f9565b61077e91906112c4565b6107889083611292565b91505b80610795816112ab565b915050610708565b5092915050565b600060608160ff7f0000000000000000000000000000000000000000000000000000000000000000166107d9610e10426112c4565b6107e391906112e6565b6107ee906001611292565b336000908152600360205260409020909150819060010154116108235760408051600081526020810190915290939092509050565b33600090815260036020526040812080546001909101549091838311610849578361084b565b825b9050600061085982846112e6565b67ffffffffffffffff81111561087157610871610fb2565b60405190808252806020026020018201604052801561089a578160200160208202803683370190505b509050815b8381101561093c5760008181526004602052604090205415610901576000818152600460209081526040808320543384526002835281842085855283528184205460059093529220546108f291906112f9565b6108fc91906112c4565b610904565b60005b8261090f85846112e6565b8151811061091f5761091f611266565b602090810291909101015280610934816112ab565b91505061089f565b50600061094b610e10426112c4565b6109788460ff7f000000000000000000000000000000000000000000000000000000000000000016611292565b61098291906112e6565b989197509095505050505050565b80804211156109b15760405162461bcd60e51b81526004016103e29061121c565b600060ff7f0000000000000000000000000000000000000000000000000000000000000000166109e3610e10426112c4565b6109ed91906112e6565b3360009081526003602052604081205491925090805b33600090815260036020526040902060010154811015610aa657838111610aa657610a2f816001611292565b60008281526004602052604090205490925015610a9457600081815260046020908152604080832054338452600283528184208585528352818420546005909352922054610a7d91906112f9565b610a8791906112c4565b610a919084611292565b92505b80610a9e816112ab565b915050610a03565b5033600090815260036020526040812082910155610ae57f00000000000000000000000000000000000000000000000000000000000000003384610ea5565b60405182815233907fba8de60c3403ec381d1d484652ea1980e3c3e56359195c92525bff4ce47ad98e9060200160405180910390a25050505050565b60036020528160005260406000208160028110610b3d57600080fd5b01549150829050565b8080421115610b675760405162461bcd60e51b81526004016103e29061121c565b6000546001600160a01b03163314610b915760405162461bcd60e51b81526004016103e290611243565b7f00000000000000000000000000000000000000000000000000000000000000004211158015610be157507f00000000000000000000000000000000000000000000000000000000000000004210155b610c215760405162461bcd60e51b81526020600482015260116024820152701b9bdd081a5b881d1a19481c195c9a5bd9607a1b60448201526064016103e2565b610c4d7f0000000000000000000000000000000000000000000000000000000000000000333086610d8b565b60008481526005602052604081208054859290610c6b908490611292565b9091555050600654841115610c805760068490555b604080518581526020810185905233917fc3991418cacd70a010fce559a44fcbb47534ca43bf7543964bdca2639f6e6e5a910160405180910390a250505050565b6000610cee60017f0000000000000000000000000000000000000000000000000000000000000000611310565b60ff1660017f000000000000000000000000000000000000000000000000000000000000000060ff16600185610d249190611310565b60ff16610d5260017f00000000000000000000000000000000000000000000000000000000000000006112e6565b610d5c91906112f9565b610d669190611292565b610d7091906112e6565b610d7a90856112f9565b610d8491906112c4565b9392505050565b604080516001600160a01b0385811660248301528481166044830152606480830185905283518084039091018152608490920183526020820180516001600160e01b03166323b872dd60e01b1790529151600092839290881691610def9190611329565b6000604051808303816000865af19150503d8060008114610e2c576040519150601f19603f3d011682016040523d82523d6000602084013e610e31565b606091505b5091509150818015610e5b575080511580610e5b575080806020019051810190610e5b9190611358565b610e9d5760405162461bcd60e51b81526020600482015260136024820152721d1c985b9cd9995c919c9bdb4819985a5b1959606a1b60448201526064016103e2565b505050505050565b604080516001600160a01b038481166024830152604480830185905283518084039091018152606490920183526020820180516001600160e01b031663a9059cbb60e01b1790529151600092839290871691610f019190611329565b6000604051808303816000865af19150503d8060008114610f3e576040519150601f19603f3d011682016040523d82523d6000602084013e610f43565b606091505b5091509150818015610f6d575080511580610f6d575080806020019051810190610f6d9190611358565b610fab5760405162461bcd60e51b815260206004820152600f60248201526e1514905394d1915497d19052531151608a1b60448201526064016103e2565b5050505050565b634e487b7160e01b600052604160045260246000fd5b600082601f830112610fd957600080fd5b8135602067ffffffffffffffff80831115610ff657610ff6610fb2565b8260051b604051601f19603f8301168101818110848211171561101b5761101b610fb2565b60405293845285810183019383810192508785111561103957600080fd5b83870191505b848210156110585781358352918301919083019061103f565b979650505050505050565b60008060006060848603121561107857600080fd5b833567ffffffffffffffff8082111561109057600080fd5b61109c87838801610fc8565b945060208601359150808211156110b257600080fd5b506110bf86828701610fc8565b925050604084013590509250925092565b6000602082840312156110e257600080fd5b5035919050565b80356001600160a01b038116811461110057600080fd5b919050565b60006020828403121561111757600080fd5b610d84826110e9565b6000806040838503121561113357600080fd5b50508035926020909101359150565b6000806040838503121561115557600080fd5b61115e836110e9565b946020939093013593505050565b6000604082018483526020604081850152818551808452606086019150828701935060005b818110156111ad57845183529383019391830191600101611191565b5090979650505050505050565b6000806000606084860312156111cf57600080fd5b505081359360208301359350604090920135919050565b600080604083850312156111f957600080fd5b82359150602083013560ff8116811461121157600080fd5b809150509250929050565b6020808252600d908201526c6f76657220646561646c696e6560981b604082015260600190565b6020808252600990820152683337b93134b23232b760b91b604082015260600190565b634e487b7160e01b600052603260045260246000fd5b634e487b7160e01b600052601160045260246000fd5b808201808211156112a5576112a561127c565b92915050565b6000600182016112bd576112bd61127c565b5060010190565b6000826112e157634e487b7160e01b600052601260045260246000fd5b500490565b818103818111156112a5576112a561127c565b80820281158282048414176112a5576112a561127c565b60ff82811682821603908111156112a5576112a561127c565b6000825160005b8181101561134a5760208186018101518583015201611330565b506000920191825250919050565b60006020828403121561136a57600080fd5b81518015158114610d8457600080fdfea2646970667358221220900e0b9c3f33a13406f785ce5b8c5818aec9f53ee6042191f3e928dfd0156b8464736f6c63430008110033",
  "linkReferences": {},
  "deployedLinkReferences": {}
}