{
  "_format": "hh-sol-artifact-1",
  "contractName": "StakeBase",
  "sourceName": "contracts/stakeBase.sol",
  "abi": [
    {
      "inputs": [
        {
          "internalType": "uint8",
          "name": "maxWeeks",
          "type": "uint8"
        },
        {
          "internalType": "uint256",
          "name": "maxScale",
          "type": "uint256"
        },
        {
          "internalType": "uint8",
          "name": "lockWeeks",
          "type": "uint8"
        },
        {
          "internalType": "uint256",
          "name": "beginTime",
          "type": "uint256"
        },
        {
          "internalType": "uint256",
          "name": "endTime",
          "type": "uint256"
        },
        {
          "internalType": "address",
          "name": "_rewardToken",
          "type": "address"
        }
      ],
      "stateMutability": "nonpayable",
      "type": "constructor"
    },
    {
      "anonymous": false,
      "inputs": [
        {
          "indexed": true,
          "internalType": "address",
          "name": "user",
          "type": "address"
        },
        {
          "indexed": false,
          "internalType": "uint256",
          "name": "amount",
          "type": "uint256"
        }
      ],
      "name": "ClaimReward",
      "type": "event"
    },
    {
      "anonymous": false,
      "inputs": [
        {
          "indexed": true,
          "internalType": "address",
          "name": "user",
          "type": "address"
        },
        {
          "indexed": false,
          "internalType": "uint256",
          "name": "no",
          "type": "uint256"
        },
        {
          "indexed": false,
          "internalType": "uint256",
          "name": "amount",
          "type": "uint256"
        }
      ],
      "name": "SetReward",
      "type": "event"
    },
    {
      "inputs": [],
      "name": "BEGIN_TIME",
      "outputs": [
        {
          "internalType": "uint256",
          "name": "",
          "type": "uint256"
        }
      ],
      "stateMutability": "view",
      "type": "function"
    },
    {
      "inputs": [],
      "name": "END_TIME",
      "outputs": [
        {
          "internalType": "uint256",
          "name": "",
          "type": "uint256"
        }
      ],
      "stateMutability": "view",
      "type": "function"
    },
    {
      "inputs": [],
      "name": "LOCK_WEEKNUM",
      "outputs": [
        {
          "internalType": "uint8",
          "name": "",
          "type": "uint8"
        }
      ],
      "stateMutability": "view",
      "type": "function"
    },
    {
      "inputs": [],
      "name": "MAX_SCALE",
      "outputs": [
        {
          "internalType": "uint256",
          "name": "",
          "type": "uint256"
        }
      ],
      "stateMutability": "view",
      "type": "function"
    },
    {
      "inputs": [],
      "name": "MAX_WEEKS",
      "outputs": [
        {
          "internalType": "uint8",
          "name": "",
          "type": "uint8"
        }
      ],
      "stateMutability": "view",
      "type": "function"
    },
    {
      "inputs": [],
      "name": "WEEK_SECONDS",
      "outputs": [
        {
          "internalType": "uint24",
          "name": "",
          "type": "uint24"
        }
      ],
      "stateMutability": "view",
      "type": "function"
    },
    {
      "inputs": [],
      "name": "acceptSetter",
      "outputs": [],
      "stateMutability": "nonpayable",
      "type": "function"
    },
    {
      "inputs": [
        {
          "internalType": "address",
          "name": "user",
          "type": "address"
        }
      ],
      "name": "canClaimAmount",
      "outputs": [
        {
          "internalType": "uint256",
          "name": "",
          "type": "uint256"
        }
      ],
      "stateMutability": "view",
      "type": "function"
    },
    {
      "inputs": [
        {
          "internalType": "uint256",
          "name": "deadline",
          "type": "uint256"
        }
      ],
      "name": "claimReward",
      "outputs": [],
      "stateMutability": "nonpayable",
      "type": "function"
    },
    {
      "inputs": [
        {
          "internalType": "uint256",
          "name": "amount",
          "type": "uint256"
        },
        {
          "internalType": "uint8",
          "name": "k",
          "type": "uint8"
        }
      ],
      "name": "getScore",
      "outputs": [
        {
          "internalType": "uint256",
          "name": "score",
          "type": "uint256"
        }
      ],
      "stateMutability": "view",
      "type": "function"
    },
    {
      "inputs": [],
      "name": "latestNo",
      "outputs": [
        {
          "internalType": "uint256",
          "name": "",
          "type": "uint256"
        }
      ],
      "stateMutability": "view",
      "type": "function"
    },
    {
      "inputs": [
        {
          "internalType": "address",
          "name": "user",
          "type": "address"
        }
      ],
      "name": "lockedRewardAmount",
      "outputs": [
        {
          "internalType": "uint256",
          "name": "",
          "type": "uint256"
        },
        {
          "internalType": "uint256[]",
          "name": "",
          "type": "uint256[]"
        }
      ],
      "stateMutability": "view",
      "type": "function"
    },
    {
      "inputs": [],
      "name": "owner",
      "outputs": [
        {
          "internalType": "address",
          "name": "",
          "type": "address"
        }
      ],
      "stateMutability": "view",
      "type": "function"
    },
    {
      "inputs": [],
      "name": "rewardToken",
      "outputs": [
        {
          "internalType": "address",
          "name": "",
          "type": "address"
        }
      ],
      "stateMutability": "view",
      "type": "function"
    },
    {
      "inputs": [
        {
          "internalType": "uint256",
          "name": "",
          "type": "uint256"
        }
      ],
      "name": "rewardsOf",
      "outputs": [
        {
          "internalType": "uint256",
          "name": "",
          "type": "uint256"
        }
      ],
      "stateMutability": "view",
      "type": "function"
    },
    {
      "inputs": [
        {
          "internalType": "uint256",
          "name": "no",
          "type": "uint256"
        },
        {
          "internalType": "uint256",
          "name": "amount",
          "type": "uint256"
        },
        {
          "internalType": "uint256",
          "name": "deadline",
          "type": "uint256"
        }
      ],
      "name": "setReward",
      "outputs": [],
      "stateMutability": "nonpayable",
      "type": "function"
    },
    {
      "inputs": [
        {
          "internalType": "uint256[]",
          "name": "nos",
          "type": "uint256[]"
        },
        {
          "internalType": "uint256[]",
          "name": "amounts",
          "type": "uint256[]"
        },
        {
          "internalType": "uint256",
          "name": "deadline",
          "type": "uint256"
        }
      ],
      "name": "setRewards",
      "outputs": [],
      "stateMutability": "nonpayable",
      "type": "function"
    },
    {
      "inputs": [
        {
          "internalType": "uint256",
          "name": "",
          "type": "uint256"
        }
      ],
      "name": "totalScores",
      "outputs": [
        {
          "internalType": "uint256",
          "name": "",
          "type": "uint256"
        }
      ],
      "stateMutability": "view",
      "type": "function"
    },
    {
      "inputs": [
        {
          "internalType": "address",
          "name": "_owner",
          "type": "address"
        }
      ],
      "name": "transferOwner",
      "outputs": [],
      "stateMutability": "nonpayable",
      "type": "function"
    },
    {
      "inputs": [
        {
          "internalType": "address",
          "name": "",
          "type": "address"
        },
        {
          "internalType": "uint256",
          "name": "",
          "type": "uint256"
        }
      ],
      "name": "userCanClaimWeeks",
      "outputs": [
        {
          "internalType": "uint256",
          "name": "",
          "type": "uint256"
        }
      ],
      "stateMutability": "view",
      "type": "function"
    },
    {
      "inputs": [
        {
          "internalType": "address",
          "name": "",
          "type": "address"
        },
        {
          "internalType": "uint256",
          "name": "",
          "type": "uint256"
        }
      ],
      "name": "userScores",
      "outputs": [
        {
          "internalType": "uint256",
          "name": "",
          "type": "uint256"
        }
      ],
      "stateMutability": "view",
      "type": "function"
    }
  ],
  "bytecode": "0x61014060405234801561001157600080fd5b506040516113ad3803806113ad83398101604081905261003091610087565b6001600160a01b031660805260ff94851660a05260c093909352921660e0526101009190915261012052600080546001600160a01b031916331790556100f8565b805160ff8116811461008257600080fd5b919050565b60008060008060008060c087890312156100a057600080fd5b6100a987610071565b9550602087015194506100be60408801610071565b6060880151608089015160a08a015192965090945092506001600160a01b03811681146100ea57600080fd5b809150509295509295509295565b60805160a05160c05160e05161010051610120516112276101866000396000610210015260006102ce0152600081816101ae015281816103c501528181610589015281816107d40152610b200152600081816103600152610abc01526000818161031301528181610a580152610a83015260008181610387015281816108dd01526109b401526112276000f3fe608060405234801561001057600080fd5b50600436106101375760003560e01c80638da5cb5b116100b8578063e11400bb1161007c578063e11400bb1461030e578063e1c05d9314610335578063ee3453ed14610348578063f6def7cf1461035b578063f7c618c114610382578063fa60c77c146103a957600080fd5b80638da5cb5b14610278578063ae169a50146102a3578063bb57852d146102b6578063c75363b6146102c9578063cd671a58146102f057600080fd5b806329ed1cfd116100ff57806329ed1cfd1461020257806337ba682d1461020b5780634fb2e45d146102325780635b680a45146102455780635f8e422f1461027057600080fd5b806302e9e4951461013c57806307c6e2fa146101665780630bce12841461017b5780630d437d40146101a9578063157775df146101e2575b600080fd5b61014f61014a366004610e67565b6103bc565b60405161015d929190610e82565b60405180910390f35b610179610174366004610f81565b6105c7565b005b61019b610189366004610fee565b60056020526000908152604090205481565b60405190815260200161015d565b6101d07f000000000000000000000000000000000000000000000000000000000000000081565b60405160ff909116815260200161015d565b61019b6101f0366004610fee565b60046020526000908152604090205481565b61019b60065481565b61019b7f000000000000000000000000000000000000000000000000000000000000000081565b610179610240366004610e67565b610710565b61019b610253366004611007565b600260209081526000928352604080842090915290825290205481565b61017961075c565b60005461028b906001600160a01b031681565b6040516001600160a01b03909116815260200161015d565b6101796102b1366004610fee565b6107ad565b61019b6102c4366004611007565b61093f565b61019b7f000000000000000000000000000000000000000000000000000000000000000081565b6102fa62093a8081565b60405162ffffff909116815260200161015d565b6101d07f000000000000000000000000000000000000000000000000000000000000000081565b610179610343366004611031565b610964565b61019b61035636600461105d565b610a4f565b61019b7f000000000000000000000000000000000000000000000000000000000000000081565b61028b7f000000000000000000000000000000000000000000000000000000000000000081565b61019b6103b7366004610e67565b610b19565b600060608160ff7f0000000000000000000000000000000000000000000000000000000000000000166103f262093a80426110a9565b6103fc91906110cb565b6104079060016110e4565b6001600160a01b038516600090815260036020526040902090915081906001015411610446576040805160008152602081019091529094909350915050565b6001600160a01b0384166000908152600360205260408120805460019091015490918383116104755783610477565b825b9050600061048582846110cb565b67ffffffffffffffff81111561049d5761049d610ed0565b6040519080825280602002602001820160405280156104c6578160200160208202803683370190505b509050815b838110156105715760008181526004602052604090205415610536576000818152600460209081526040808320546001600160a01b038d168452600283528184208585528352818420546005909352922054610527919061110d565b61053191906110a9565b610539565b60005b8261054485846110cb565b81518110610554576105546110f7565b60209081029190910101528061056981611124565b9150506104cb565b50600061058162093a80426110a9565b6105ae8460ff7f0000000000000000000000000000000000000000000000000000000000000000166110e4565b6105b891906110cb565b99919850909650505050505050565b80804211156105f15760405162461bcd60e51b81526004016105e89061113d565b60405180910390fd5b6000546001600160a01b0316331461061b5760405162461bcd60e51b81526004016105e890611164565b825184511461065f5760405162461bcd60e51b815260206004820152601060248201526f3830b930b6b2ba32b9399032b93937b960811b60448201526064016105e8565b6000805b85518110156107065784818151811061067e5761067e6110f7565b60200260200101516005600088848151811061069c5761069c6110f7565b6020026020010151815260200190815260200160002081905550818682815181106106c9576106c96110f7565b602002602001015111156106f4578581815181106106e9576106e96110f7565b602002602001015191505b806106fe81611124565b915050610663565b5060065550505050565b6000546001600160a01b0316331461073a5760405162461bcd60e51b81526004016105e890611164565b600180546001600160a01b0319166001600160a01b0392909216919091179055565b6001546001600160a01b031633146107865760405162461bcd60e51b81526004016105e890611164565b60018054600080546001600160a01b03199081166001600160a01b03841617909155169055565b80804211156107ce5760405162461bcd60e51b81526004016105e89061113d565b600060ff7f00000000000000000000000000000000000000000000000000000000000000001661080162093a80426110a9565b61080b91906110cb565b3360009081526003602052604081205491925090805b336000908152600360205260409020600101548110156108c4578381116108c45761084d8160016110e4565b600082815260046020526040902054909250156108b25760008181526004602090815260408083205433845260028352818420858552835281842054600590935292205461089b919061110d565b6108a591906110a9565b6108af90846110e4565b92505b806108bc81611124565b915050610821565b50336000908152600360205260408120829101556109037f00000000000000000000000000000000000000000000000000000000000000003384610c24565b60405182815233907fba8de60c3403ec381d1d484652ea1980e3c3e56359195c92525bff4ce47ad98e9060200160405180910390a25050505050565b6003602052816000526040600020816002811061095b57600080fd5b01549150829050565b80804211156109855760405162461bcd60e51b81526004016105e89061113d565b6000546001600160a01b031633146109af5760405162461bcd60e51b81526004016105e890611164565b6109db7f0000000000000000000000000000000000000000000000000000000000000000333086610d31565b600084815260056020526040812080548592906109f99084906110e4565b9091555050600654841115610a0e5760068490555b604080518581526020810185905233917fc3991418cacd70a010fce559a44fcbb47534ca43bf7543964bdca2639f6e6e5a910160405180910390a250505050565b6000610a7c60017f0000000000000000000000000000000000000000000000000000000000000000611187565b60ff1660017f000000000000000000000000000000000000000000000000000000000000000060ff16600185610ab29190611187565b60ff16610ae060017f00000000000000000000000000000000000000000000000000000000000000006110cb565b610aea919061110d565b610af491906110e4565b610afe91906110cb565b610b08908561110d565b610b1291906110a9565b9392505050565b60008060ff7f000000000000000000000000000000000000000000000000000000000000000016610b4d62093a80426110a9565b610b5791906110cb565b6001600160a01b038416600090815260036020526040812054919250905b6001600160a01b038516600090815260036020526040902060010154811015610c1c57828111610c1c5760008181526004602052604090205415610c0a576000818152600460209081526040808320546001600160a01b0389168452600283528184208585528352818420546005909352922054610bf3919061110d565b610bfd91906110a9565b610c0790836110e4565b91505b80610c1481611124565b915050610b75565b509392505050565b604080516001600160a01b038481166024830152604480830185905283518084039091018152606490920183526020820180516001600160e01b031663a9059cbb60e01b1790529151600092839290871691610c8091906111a0565b6000604051808303816000865af19150503d8060008114610cbd576040519150601f19603f3d011682016040523d82523d6000602084013e610cc2565b606091505b5091509150818015610cec575080511580610cec575080806020019051810190610cec91906111cf565b610d2a5760405162461bcd60e51b815260206004820152600f60248201526e1514905394d1915497d19052531151608a1b60448201526064016105e8565b5050505050565b604080516001600160a01b0385811660248301528481166044830152606480830185905283518084039091018152608490920183526020820180516001600160e01b03166323b872dd60e01b1790529151600092839290881691610d9591906111a0565b6000604051808303816000865af19150503d8060008114610dd2576040519150601f19603f3d011682016040523d82523d6000602084013e610dd7565b606091505b5091509150818015610e01575080511580610e01575080806020019051810190610e0191906111cf565b610e435760405162461bcd60e51b81526020600482015260136024820152721d1c985b9cd9995c919c9bdb4819985a5b1959606a1b60448201526064016105e8565b505050505050565b80356001600160a01b0381168114610e6257600080fd5b919050565b600060208284031215610e7957600080fd5b610b1282610e4b565b6000604082018483526020604081850152818551808452606086019150828701935060005b81811015610ec357845183529383019391830191600101610ea7565b5090979650505050505050565b634e487b7160e01b600052604160045260246000fd5b600082601f830112610ef757600080fd5b8135602067ffffffffffffffff80831115610f1457610f14610ed0565b8260051b604051601f19603f83011681018181108482111715610f3957610f39610ed0565b604052938452858101830193838101925087851115610f5757600080fd5b83870191505b84821015610f7657813583529183019190830190610f5d565b979650505050505050565b600080600060608486031215610f9657600080fd5b833567ffffffffffffffff80821115610fae57600080fd5b610fba87838801610ee6565b94506020860135915080821115610fd057600080fd5b50610fdd86828701610ee6565b925050604084013590509250925092565b60006020828403121561100057600080fd5b5035919050565b6000806040838503121561101a57600080fd5b61102383610e4b565b946020939093013593505050565b60008060006060848603121561104657600080fd5b505081359360208301359350604090920135919050565b6000806040838503121561107057600080fd5b82359150602083013560ff8116811461108857600080fd5b809150509250929050565b634e487b7160e01b600052601160045260246000fd5b6000826110c657634e487b7160e01b600052601260045260246000fd5b500490565b818103818111156110de576110de611093565b92915050565b808201808211156110de576110de611093565b634e487b7160e01b600052603260045260246000fd5b80820281158282048414176110de576110de611093565b60006001820161113657611136611093565b5060010190565b6020808252600d908201526c6f76657220646561646c696e6560981b604082015260600190565b6020808252600990820152683337b93134b23232b760b91b604082015260600190565b60ff82811682821603908111156110de576110de611093565b6000825160005b818110156111c157602081860181015185830152016111a7565b506000920191825250919050565b6000602082840312156111e157600080fd5b81518015158114610b1257600080fdfea26469706673582212202c3e601727ab13b1894c137bf925e7ad591946e7ad87c9c41b095a09f164b5e164736f6c63430008110033",
  "linkReferences": {},
  "deployedLinkReferences": {}
}