{
  "_format": "hh-sol-artifact-1",
  "contractName": "StakeBase",
  "sourceName": "contracts/stakeBase.sol",
  "abi": [
    {
      "inputs": [
        {
          "internalType": "uint8",
          "name": "maxWeeks",
          "type": "uint8"
        },
        {
          "internalType": "uint256",
          "name": "maxScale",
          "type": "uint256"
        },
        {
          "internalType": "uint8",
          "name": "lockWeeks",
          "type": "uint8"
        },
        {
          "internalType": "uint256",
          "name": "beginTime",
          "type": "uint256"
        },
        {
          "internalType": "uint256",
          "name": "endTime",
          "type": "uint256"
        },
        {
          "internalType": "address",
          "name": "_rewardToken",
          "type": "address"
        }
      ],
      "stateMutability": "nonpayable",
      "type": "constructor"
    },
    {
      "anonymous": false,
      "inputs": [
        {
          "indexed": true,
          "internalType": "address",
          "name": "user",
          "type": "address"
        },
        {
          "indexed": false,
          "internalType": "uint256",
          "name": "amount",
          "type": "uint256"
        }
      ],
      "name": "ClaimReward",
      "type": "event"
    },
    {
      "anonymous": false,
      "inputs": [
        {
          "indexed": true,
          "internalType": "address",
          "name": "user",
          "type": "address"
        },
        {
          "indexed": false,
          "internalType": "uint256",
          "name": "no",
          "type": "uint256"
        },
        {
          "indexed": false,
          "internalType": "uint256",
          "name": "amount",
          "type": "uint256"
        }
      ],
      "name": "SetReward",
      "type": "event"
    },
    {
      "inputs": [],
      "name": "BEGIN_TIME",
      "outputs": [
        {
          "internalType": "uint256",
          "name": "",
          "type": "uint256"
        }
      ],
      "stateMutability": "view",
      "type": "function"
    },
    {
      "inputs": [],
      "name": "END_TIME",
      "outputs": [
        {
          "internalType": "uint256",
          "name": "",
          "type": "uint256"
        }
      ],
      "stateMutability": "view",
      "type": "function"
    },
    {
      "inputs": [],
      "name": "LOCK_WEEKNUM",
      "outputs": [
        {
          "internalType": "uint8",
          "name": "",
          "type": "uint8"
        }
      ],
      "stateMutability": "view",
      "type": "function"
    },
    {
      "inputs": [],
      "name": "MAX_SCALE",
      "outputs": [
        {
          "internalType": "uint256",
          "name": "",
          "type": "uint256"
        }
      ],
      "stateMutability": "view",
      "type": "function"
    },
    {
      "inputs": [],
      "name": "MAX_WEEKS",
      "outputs": [
        {
          "internalType": "uint8",
          "name": "",
          "type": "uint8"
        }
      ],
      "stateMutability": "view",
      "type": "function"
    },
    {
      "inputs": [],
      "name": "WEEK_SECONDS",
      "outputs": [
        {
          "internalType": "uint24",
          "name": "",
          "type": "uint24"
        }
      ],
      "stateMutability": "view",
      "type": "function"
    },
    {
      "inputs": [],
      "name": "acceptSetter",
      "outputs": [],
      "stateMutability": "nonpayable",
      "type": "function"
    },
    {
      "inputs": [],
      "name": "canClaimAmount",
      "outputs": [
        {
          "internalType": "uint256",
          "name": "",
          "type": "uint256"
        }
      ],
      "stateMutability": "view",
      "type": "function"
    },
    {
      "inputs": [],
      "name": "claimReward",
      "outputs": [],
      "stateMutability": "nonpayable",
      "type": "function"
    },
    {
      "inputs": [
        {
          "internalType": "uint256",
          "name": "amount",
          "type": "uint256"
        },
        {
          "internalType": "uint8",
          "name": "k",
          "type": "uint8"
        }
      ],
      "name": "getScore",
      "outputs": [
        {
          "internalType": "uint256",
          "name": "score",
          "type": "uint256"
        }
      ],
      "stateMutability": "view",
      "type": "function"
    },
    {
      "inputs": [],
      "name": "latestNo",
      "outputs": [
        {
          "internalType": "uint256",
          "name": "",
          "type": "uint256"
        }
      ],
      "stateMutability": "view",
      "type": "function"
    },
    {
      "inputs": [],
      "name": "lockedRewardAmount",
      "outputs": [
        {
          "internalType": "uint256",
          "name": "",
          "type": "uint256"
        },
        {
          "internalType": "uint256[]",
          "name": "",
          "type": "uint256[]"
        }
      ],
      "stateMutability": "view",
      "type": "function"
    },
    {
      "inputs": [],
      "name": "owner",
      "outputs": [
        {
          "internalType": "address",
          "name": "",
          "type": "address"
        }
      ],
      "stateMutability": "view",
      "type": "function"
    },
    {
      "inputs": [],
      "name": "rewardToken",
      "outputs": [
        {
          "internalType": "address",
          "name": "",
          "type": "address"
        }
      ],
      "stateMutability": "view",
      "type": "function"
    },
    {
      "inputs": [
        {
          "internalType": "uint256",
          "name": "",
          "type": "uint256"
        }
      ],
      "name": "rewardsOf",
      "outputs": [
        {
          "internalType": "uint256",
          "name": "",
          "type": "uint256"
        }
      ],
      "stateMutability": "view",
      "type": "function"
    },
    {
      "inputs": [
        {
          "internalType": "uint256",
          "name": "no",
          "type": "uint256"
        },
        {
          "internalType": "uint256",
          "name": "amount",
          "type": "uint256"
        }
      ],
      "name": "setReward",
      "outputs": [],
      "stateMutability": "nonpayable",
      "type": "function"
    },
    {
      "inputs": [
        {
          "internalType": "uint256[]",
          "name": "nos",
          "type": "uint256[]"
        },
        {
          "internalType": "uint256[]",
          "name": "amounts",
          "type": "uint256[]"
        }
      ],
      "name": "setRewards",
      "outputs": [
        {
          "internalType": "uint256",
          "name": "total",
          "type": "uint256"
        }
      ],
      "stateMutability": "nonpayable",
      "type": "function"
    },
    {
      "inputs": [
        {
          "internalType": "uint256",
          "name": "",
          "type": "uint256"
        }
      ],
      "name": "totalScores",
      "outputs": [
        {
          "internalType": "uint256",
          "name": "",
          "type": "uint256"
        }
      ],
      "stateMutability": "view",
      "type": "function"
    },
    {
      "inputs": [
        {
          "internalType": "address",
          "name": "_owner",
          "type": "address"
        }
      ],
      "name": "transferOwner",
      "outputs": [],
      "stateMutability": "nonpayable",
      "type": "function"
    },
    {
      "inputs": [
        {
          "internalType": "address",
          "name": "",
          "type": "address"
        },
        {
          "internalType": "uint256",
          "name": "",
          "type": "uint256"
        }
      ],
      "name": "userCanClaimWeeks",
      "outputs": [
        {
          "internalType": "uint256",
          "name": "",
          "type": "uint256"
        }
      ],
      "stateMutability": "view",
      "type": "function"
    },
    {
      "inputs": [
        {
          "internalType": "address",
          "name": "",
          "type": "address"
        },
        {
          "internalType": "uint256",
          "name": "",
          "type": "uint256"
        }
      ],
      "name": "userScores",
      "outputs": [
        {
          "internalType": "uint256",
          "name": "",
          "type": "uint256"
        }
      ],
      "stateMutability": "view",
      "type": "function"
    },
    {
      "inputs": [
        {
          "internalType": "uint256",
          "name": "amount",
          "type": "uint256"
        }
      ],
      "name": "withdrawRewards",
      "outputs": [],
      "stateMutability": "nonpayable",
      "type": "function"
    }
  ],
  "bytecode": "0x61014060405234801561001157600080fd5b506040516114fc3803806114fc83398101604081905261003091610087565b6001600160a01b031660805260ff94851660a05260c093909352921660e0526101009190915261012052600080546001600160a01b031916331790556100f8565b805160ff8116811461008257600080fd5b919050565b60008060008060008060c087890312156100a057600080fd5b6100a987610071565b9550602087015194506100be60408801610071565b6060880151608089015160a08a015192965090945092506001600160a01b03811681146100ea57600080fd5b809150509295509295509295565b60805160a05160c05160e051610100516101205161134c6101b0600039600081816101e1015281816107b901526109fa0152600081816102ed015281816107e40152610a2501526000818161017f0152818161046101528181610551015281816106f70152610b2c01526000818161036b0152610d2601526000818161033101528181610cc20152610ced015260008181610392015281816107630152818161096401528181610a8d0152610c34015261134c6000f3fe608060405234801561001057600080fd5b50600436106101425760003560e01c80639342c8f4116100b8578063c75363b61161007c578063c75363b6146102e8578063cd671a581461030f578063e11400bb1461032c578063ee3453ed14610353578063f6def7cf14610366578063f7c618c11461038d57600080fd5b80639342c8f414610294578063979db1c4146102a7578063a47bd496146102ba578063b88a802f146102cd578063bb57852d146102d557600080fd5b80634fb2e45d1161010a5780634fb2e45d146102035780635b680a45146102185780635f8e422f146102435780638431165e1461024b5780638923de2b146102535780638da5cb5b1461026957600080fd5b80630bce1284146101475780630d437d401461017a578063157775df146101b357806329ed1cfd146101d357806337ba682d146101dc575b600080fd5b610167610155366004610faa565b60056020526000908152604090205481565b6040519081526020015b60405180910390f35b6101a17f000000000000000000000000000000000000000000000000000000000000000081565b60405160ff9091168152602001610171565b6101676101c1366004610faa565b60046020526000908152604090205481565b61016760065481565b6101677f000000000000000000000000000000000000000000000000000000000000000081565b610216610211366004610fdf565b6103b4565b005b610167610226366004610ffa565b600260209081526000928352604080842090915290825290205481565b610216610409565b61016761045a565b61025b610548565b604051610171929190611024565b60005461027c906001600160a01b031681565b6040516001600160a01b039091168152602001610171565b6102166102a2366004610faa565b610734565b6101676102b5366004611123565b61078c565b6102166102c8366004611187565b6109ce565b610216610b26565b6101676102e3366004610ffa565b610c94565b6101677f000000000000000000000000000000000000000000000000000000000000000081565b61031861025881565b60405162ffffff9091168152602001610171565b6101a17f000000000000000000000000000000000000000000000000000000000000000081565b6101676103613660046111a9565b610cb9565b6101677f000000000000000000000000000000000000000000000000000000000000000081565b61027c7f000000000000000000000000000000000000000000000000000000000000000081565b6000546001600160a01b031633146103e75760405162461bcd60e51b81526004016103de906111df565b60405180910390fd5b600180546001600160a01b0319166001600160a01b0392909216919091179055565b6001546001600160a01b031633146104335760405162461bcd60e51b81526004016103de906111df565b60018054600080546001600160a01b03199081166001600160a01b03841617909155169055565b60008060ff7f00000000000000000000000000000000000000000000000000000000000000001661048d61025842611218565b610497919061123a565b33600090815260036020526040812054919250905b3360009081526003602052604090206001015481101561054157828111610541576000818152600460205260409020541561052f576000818152600460209081526040808320543384526002835281842085855283528184205460059093529220546105189190611269565b6105229190611218565b61052c9083611280565b91505b8061053981611293565b9150506104ac565b5092915050565b600060608160ff7f00000000000000000000000000000000000000000000000000000000000000001661057d61025842611218565b610587919061123a565b610592906001611280565b336000908152600360205260409020909150819060010154116105c75760408051600081526020810190915290939092509050565b336000908152600360205260408120805460019091015490918383116105ed57836105ef565b825b905060006105fd828461123a565b67ffffffffffffffff81111561061557610615611072565b60405190808252806020026020018201604052801561063e578160200160208202803683370190505b509050815b838110156106e057600081815260046020526040902054156106a5576000818152600460209081526040808320543384526002835281842085855283528184205460059093529220546106969190611269565b6106a09190611218565b6106a8565b60005b826106b3858461123a565b815181106106c3576106c3611253565b6020908102919091010152806106d881611293565b915050610643565b5060006106ef61025842611218565b61071c8460ff7f000000000000000000000000000000000000000000000000000000000000000016611280565b610726919061123a565b989197509095505050505050565b6000546001600160a01b0316331461075e5760405162461bcd60e51b81526004016103de906111df565b6107897f00000000000000000000000000000000000000000000000000000000000000003383610d83565b50565b600080546001600160a01b031633146107b75760405162461bcd60e51b81526004016103de906111df565b7f0000000000000000000000000000000000000000000000000000000000000000421115801561080757507f00000000000000000000000000000000000000000000000000000000000000004210155b6108475760405162461bcd60e51b81526020600482015260116024820152701b9bdd081a5b881d1a19481c195c9a5bd9607a1b60448201526064016103de565b815183511461088b5760405162461bcd60e51b815260206004820152601060248201526f3830b930b6b2ba32b9399032b93937b960811b60448201526064016103de565b6000805b8451811015610959578381815181106108aa576108aa611253565b6020026020010151836108bd9190611280565b92508381815181106108d1576108d1611253565b6020026020010151600560008784815181106108ef576108ef611253565b60200260200101518152602001908152602001600020819055508185828151811061091c5761091c611253565b602002602001015111156109475784818151811061093c5761093c611253565b602002602001015191505b8061095181611293565b91505061088f565b50600681905561098b7f0000000000000000000000000000000000000000000000000000000000000000333085610e90565b60408051600081526020810184905233917fc3991418cacd70a010fce559a44fcbb47534ca43bf7543964bdca2639f6e6e5a910160405180910390a25092915050565b6000546001600160a01b031633146109f85760405162461bcd60e51b81526004016103de906111df565b7f00000000000000000000000000000000000000000000000000000000000000004211158015610a4857507f00000000000000000000000000000000000000000000000000000000000000004210155b610a885760405162461bcd60e51b81526020600482015260116024820152701b9bdd081a5b881d1a19481c195c9a5bd9607a1b60448201526064016103de565b610ab47f0000000000000000000000000000000000000000000000000000000000000000333084610e90565b60008281526005602052604081208054839290610ad2908490611280565b9091555050600654821115610ae75760068290555b604080518381526020810183905233917fc3991418cacd70a010fce559a44fcbb47534ca43bf7543964bdca2639f6e6e5a910160405180910390a25050565b600060ff7f000000000000000000000000000000000000000000000000000000000000000016610b5861025842611218565b610b62919061123a565b3360009081526003602052604081205491925090805b33600090815260036020526040902060010154811015610c1b57838111610c1b57610ba4816001611280565b60008281526004602052604090205490925015610c0957600081815260046020908152604080832054338452600283528184208585528352818420546005909352922054610bf29190611269565b610bfc9190611218565b610c069084611280565b92505b80610c1381611293565b915050610b78565b5033600090815260036020526040812082910155610c5a7f00000000000000000000000000000000000000000000000000000000000000003384610d83565b60405182815233907fba8de60c3403ec381d1d484652ea1980e3c3e56359195c92525bff4ce47ad98e9060200160405180910390a2505050565b60036020528160005260406000208160028110610cb057600080fd5b01549150829050565b6000610ce660017f00000000000000000000000000000000000000000000000000000000000000006112ac565b60ff1660017f000000000000000000000000000000000000000000000000000000000000000060ff16600185610d1c91906112ac565b60ff16610d4a60017f000000000000000000000000000000000000000000000000000000000000000061123a565b610d549190611269565b610d5e9190611280565b610d68919061123a565b610d729085611269565b610d7c9190611218565b9392505050565b604080516001600160a01b038481166024830152604480830185905283518084039091018152606490920183526020820180516001600160e01b031663a9059cbb60e01b1790529151600092839290871691610ddf91906112c5565b6000604051808303816000865af19150503d8060008114610e1c576040519150601f19603f3d011682016040523d82523d6000602084013e610e21565b606091505b5091509150818015610e4b575080511580610e4b575080806020019051810190610e4b91906112f4565b610e895760405162461bcd60e51b815260206004820152600f60248201526e1514905394d1915497d19052531151608a1b60448201526064016103de565b5050505050565b604080516001600160a01b0385811660248301528481166044830152606480830185905283518084039091018152608490920183526020820180516001600160e01b03166323b872dd60e01b1790529151600092839290881691610ef491906112c5565b6000604051808303816000865af19150503d8060008114610f31576040519150601f19603f3d011682016040523d82523d6000602084013e610f36565b606091505b5091509150818015610f60575080511580610f60575080806020019051810190610f6091906112f4565b610fa25760405162461bcd60e51b81526020600482015260136024820152721d1c985b9cd9995c919c9bdb4819985a5b1959606a1b60448201526064016103de565b505050505050565b600060208284031215610fbc57600080fd5b5035919050565b80356001600160a01b0381168114610fda57600080fd5b919050565b600060208284031215610ff157600080fd5b610d7c82610fc3565b6000806040838503121561100d57600080fd5b61101683610fc3565b946020939093013593505050565b6000604082018483526020604081850152818551808452606086019150828701935060005b8181101561106557845183529383019391830191600101611049565b5090979650505050505050565b634e487b7160e01b600052604160045260246000fd5b600082601f83011261109957600080fd5b8135602067ffffffffffffffff808311156110b6576110b6611072565b8260051b604051601f19603f830116810181811084821117156110db576110db611072565b6040529384528581018301938381019250878511156110f957600080fd5b83870191505b84821015611118578135835291830191908301906110ff565b979650505050505050565b6000806040838503121561113657600080fd5b823567ffffffffffffffff8082111561114e57600080fd5b61115a86838701611088565b9350602085013591508082111561117057600080fd5b5061117d85828601611088565b9150509250929050565b6000806040838503121561119a57600080fd5b50508035926020909101359150565b600080604083850312156111bc57600080fd5b82359150602083013560ff811681146111d457600080fd5b809150509250929050565b6020808252600990820152683337b93134b23232b760b91b604082015260600190565b634e487b7160e01b600052601160045260246000fd5b60008261123557634e487b7160e01b600052601260045260246000fd5b500490565b8181038181111561124d5761124d611202565b92915050565b634e487b7160e01b600052603260045260246000fd5b808202811582820484141761124d5761124d611202565b8082018082111561124d5761124d611202565b6000600182016112a5576112a5611202565b5060010190565b60ff828116828216039081111561124d5761124d611202565b6000825160005b818110156112e657602081860181015185830152016112cc565b506000920191825250919050565b60006020828403121561130657600080fd5b81518015158114610d7c57600080fdfea2646970667358221220fa29f24aed0fe81b5af915759f9bb71b92fdf589a1794920b7453705686c5bf064736f6c63430008110033",
  "linkReferences": {},
  "deployedLinkReferences": {}
}