{
  "_format": "hh-sol-artifact-1",
  "contractName": "StakeBase",
  "sourceName": "contracts/stakeBase.sol",
  "abi": [
    {
      "inputs": [
        {
          "internalType": "uint8",
          "name": "maxWeeks",
          "type": "uint8"
        },
        {
          "internalType": "uint256",
          "name": "maxScale",
          "type": "uint256"
        },
        {
          "internalType": "uint8",
          "name": "lockWeeks",
          "type": "uint8"
        },
        {
          "internalType": "uint256",
          "name": "beginTime",
          "type": "uint256"
        },
        {
          "internalType": "uint256",
          "name": "endTime",
          "type": "uint256"
        },
        {
          "internalType": "address",
          "name": "_rewardToken",
          "type": "address"
        }
      ],
      "stateMutability": "nonpayable",
      "type": "constructor"
    },
    {
      "anonymous": false,
      "inputs": [
        {
          "indexed": true,
          "internalType": "address",
          "name": "user",
          "type": "address"
        },
        {
          "indexed": false,
          "internalType": "uint256",
          "name": "amount",
          "type": "uint256"
        }
      ],
      "name": "ClaimReward",
      "type": "event"
    },
    {
      "anonymous": false,
      "inputs": [
        {
          "indexed": true,
          "internalType": "address",
          "name": "user",
          "type": "address"
        },
        {
          "indexed": false,
          "internalType": "uint256",
          "name": "no",
          "type": "uint256"
        },
        {
          "indexed": false,
          "internalType": "uint256",
          "name": "amount",
          "type": "uint256"
        }
      ],
      "name": "SetReward",
      "type": "event"
    },
    {
      "inputs": [],
      "name": "BEGIN_TIME",
      "outputs": [
        {
          "internalType": "uint256",
          "name": "",
          "type": "uint256"
        }
      ],
      "stateMutability": "view",
      "type": "function"
    },
    {
      "inputs": [],
      "name": "END_TIME",
      "outputs": [
        {
          "internalType": "uint256",
          "name": "",
          "type": "uint256"
        }
      ],
      "stateMutability": "view",
      "type": "function"
    },
    {
      "inputs": [],
      "name": "LOCK_WEEKNUM",
      "outputs": [
        {
          "internalType": "uint8",
          "name": "",
          "type": "uint8"
        }
      ],
      "stateMutability": "view",
      "type": "function"
    },
    {
      "inputs": [],
      "name": "MAX_SCALE",
      "outputs": [
        {
          "internalType": "uint256",
          "name": "",
          "type": "uint256"
        }
      ],
      "stateMutability": "view",
      "type": "function"
    },
    {
      "inputs": [],
      "name": "MAX_WEEKS",
      "outputs": [
        {
          "internalType": "uint8",
          "name": "",
          "type": "uint8"
        }
      ],
      "stateMutability": "view",
      "type": "function"
    },
    {
      "inputs": [],
      "name": "WEEK_SECONDS",
      "outputs": [
        {
          "internalType": "uint24",
          "name": "",
          "type": "uint24"
        }
      ],
      "stateMutability": "view",
      "type": "function"
    },
    {
      "inputs": [],
      "name": "acceptSetter",
      "outputs": [],
      "stateMutability": "nonpayable",
      "type": "function"
    },
    {
      "inputs": [
        {
          "internalType": "address",
          "name": "user",
          "type": "address"
        }
      ],
      "name": "canClaimAmount",
      "outputs": [
        {
          "internalType": "uint256",
          "name": "",
          "type": "uint256"
        }
      ],
      "stateMutability": "view",
      "type": "function"
    },
    {
      "inputs": [
        {
          "internalType": "uint256",
          "name": "deadline",
          "type": "uint256"
        }
      ],
      "name": "claimReward",
      "outputs": [],
      "stateMutability": "nonpayable",
      "type": "function"
    },
    {
      "inputs": [
        {
          "internalType": "uint256",
          "name": "amount",
          "type": "uint256"
        },
        {
          "internalType": "uint8",
          "name": "k",
          "type": "uint8"
        }
      ],
      "name": "getScore",
      "outputs": [
        {
          "internalType": "uint256",
          "name": "score",
          "type": "uint256"
        }
      ],
      "stateMutability": "view",
      "type": "function"
    },
    {
      "inputs": [],
      "name": "latestNo",
      "outputs": [
        {
          "internalType": "uint256",
          "name": "",
          "type": "uint256"
        }
      ],
      "stateMutability": "view",
      "type": "function"
    },
    {
      "inputs": [
        {
          "internalType": "address",
          "name": "user",
          "type": "address"
        }
      ],
      "name": "lockedRewardAmount",
      "outputs": [
        {
          "internalType": "uint256",
          "name": "",
          "type": "uint256"
        },
        {
          "internalType": "uint256[]",
          "name": "",
          "type": "uint256[]"
        }
      ],
      "stateMutability": "view",
      "type": "function"
    },
    {
      "inputs": [],
      "name": "owner",
      "outputs": [
        {
          "internalType": "address",
          "name": "",
          "type": "address"
        }
      ],
      "stateMutability": "view",
      "type": "function"
    },
    {
      "inputs": [],
      "name": "rewardToken",
      "outputs": [
        {
          "internalType": "address",
          "name": "",
          "type": "address"
        }
      ],
      "stateMutability": "view",
      "type": "function"
    },
    {
      "inputs": [
        {
          "internalType": "uint256",
          "name": "",
          "type": "uint256"
        }
      ],
      "name": "rewardsOf",
      "outputs": [
        {
          "internalType": "uint256",
          "name": "",
          "type": "uint256"
        }
      ],
      "stateMutability": "view",
      "type": "function"
    },
    {
      "inputs": [
        {
          "internalType": "uint256",
          "name": "no",
          "type": "uint256"
        },
        {
          "internalType": "uint256",
          "name": "amount",
          "type": "uint256"
        },
        {
          "internalType": "uint256",
          "name": "deadline",
          "type": "uint256"
        }
      ],
      "name": "setReward",
      "outputs": [],
      "stateMutability": "nonpayable",
      "type": "function"
    },
    {
      "inputs": [
        {
          "internalType": "uint256[]",
          "name": "nos",
          "type": "uint256[]"
        },
        {
          "internalType": "uint256[]",
          "name": "amounts",
          "type": "uint256[]"
        },
        {
          "internalType": "uint256",
          "name": "deadline",
          "type": "uint256"
        }
      ],
      "name": "setRewards",
      "outputs": [
        {
          "internalType": "uint256",
          "name": "total",
          "type": "uint256"
        }
      ],
      "stateMutability": "nonpayable",
      "type": "function"
    },
    {
      "inputs": [
        {
          "internalType": "uint256",
          "name": "",
          "type": "uint256"
        }
      ],
      "name": "totalScores",
      "outputs": [
        {
          "internalType": "uint256",
          "name": "",
          "type": "uint256"
        }
      ],
      "stateMutability": "view",
      "type": "function"
    },
    {
      "inputs": [
        {
          "internalType": "address",
          "name": "_owner",
          "type": "address"
        }
      ],
      "name": "transferOwner",
      "outputs": [],
      "stateMutability": "nonpayable",
      "type": "function"
    },
    {
      "inputs": [
        {
          "internalType": "address",
          "name": "",
          "type": "address"
        },
        {
          "internalType": "uint256",
          "name": "",
          "type": "uint256"
        }
      ],
      "name": "userCanClaimWeeks",
      "outputs": [
        {
          "internalType": "uint256",
          "name": "",
          "type": "uint256"
        }
      ],
      "stateMutability": "view",
      "type": "function"
    },
    {
      "inputs": [
        {
          "internalType": "address",
          "name": "",
          "type": "address"
        },
        {
          "internalType": "uint256",
          "name": "",
          "type": "uint256"
        }
      ],
      "name": "userScores",
      "outputs": [
        {
          "internalType": "uint256",
          "name": "",
          "type": "uint256"
        }
      ],
      "stateMutability": "view",
      "type": "function"
    },
    {
      "inputs": [
        {
          "internalType": "uint256",
          "name": "amount",
          "type": "uint256"
        },
        {
          "internalType": "uint256",
          "name": "deadline",
          "type": "uint256"
        }
      ],
      "name": "withdrawRewards",
      "outputs": [],
      "stateMutability": "nonpayable",
      "type": "function"
    }
  ],
  "bytecode": "0x61014060405234801561001157600080fd5b50604051620015a8380380620015a883398101604081905261003291610089565b6001600160a01b031660805260ff94851660a05260c093909352921660e0526101009190915261012052600080546001600160a01b031916331790556100fa565b805160ff8116811461008457600080fd5b919050565b60008060008060008060c087890312156100a257600080fd5b6100ab87610073565b9550602087015194506100c060408801610073565b6060880151608089015160a08a015192965090945092506001600160a01b03811681146100ec57600080fd5b809150509295509295509295565b60805160a05160c05160e0516101005161012051611403620001a5600039600081816102190152610adc0152600081816102ec0152610b070152600081816101b7015281816103e2015281816105a4015281816109000152610cdb01526000818161037d0152610c7701526000818161033001528181610c130152610c3e0152600081816103a4015281816107550152818161085d01528181610a080152610b6f01526114036000f3fe608060405234801561001057600080fd5b50600436106101425760003560e01c80638da5cb5b116100b8578063e11400bb1161007c578063e11400bb1461032b578063e1c05d9314610352578063ee3453ed14610365578063f6def7cf14610378578063f7c618c11461039f578063fa60c77c146103c657600080fd5b80638da5cb5b14610296578063ae169a50146102c1578063bb57852d146102d4578063c75363b6146102e7578063cd671a581461030e57600080fd5b806329ed1cfd1161010a57806329ed1cfd1461020b57806337ba682d146102145780634fb2e45d1461023b57806352cb5133146102505780635b680a45146102635780635f8e422f1461028e57600080fd5b806302e9e4951461014757806307c6e2fa146101715780630bce1284146101925780630d437d40146101b2578063157775df146101eb575b600080fd5b61015a610155366004611021565b6103d9565b60405161016892919061103c565b60405180910390f35b61018461017f36600461113b565b6105e2565b604051908152602001610168565b6101846101a03660046111a8565b60056020526000908152604090205481565b6101d97f000000000000000000000000000000000000000000000000000000000000000081565b60405160ff9091168152602001610168565b6101846101f93660046111a8565b60046020526000908152604090205481565b61018460065481565b6101847f000000000000000000000000000000000000000000000000000000000000000081565b61024e610249366004611021565b6107c1565b005b61024e61025e3660046111c1565b61080d565b6101846102713660046111e3565b600260209081526000928352604080842090915290825290205481565b61024e610888565b6000546102a9906001600160a01b031681565b6040516001600160a01b039091168152602001610168565b61024e6102cf3660046111a8565b6108d9565b6101846102e23660046111e3565b610a6a565b6101847f000000000000000000000000000000000000000000000000000000000000000081565b610317610e1081565b60405162ffffff9091168152602001610168565b6101d97f000000000000000000000000000000000000000000000000000000000000000081565b61024e61036036600461120d565b610a8f565b610184610373366004611239565b610c0a565b6101847f000000000000000000000000000000000000000000000000000000000000000081565b6102a97f000000000000000000000000000000000000000000000000000000000000000081565b6101846103d4366004611021565b610cd4565b600060608160ff7f00000000000000000000000000000000000000000000000000000000000000001661040e610e1042611285565b61041891906112a7565b6104239060016112c0565b6001600160a01b038516600090815260036020526040902090915081906001015411610462576040805160008152602081019091529094909350915050565b6001600160a01b0384166000908152600360205260408120805460019091015490918383116104915783610493565b825b905060006104a182846112a7565b67ffffffffffffffff8111156104b9576104b961108a565b6040519080825280602002602001820160405280156104e2578160200160208202803683370190505b509050815b8381101561058d5760008181526004602052604090205415610552576000818152600460209081526040808320546001600160a01b038d16845260028352818420858552835281842054600590935292205461054391906112e9565b61054d9190611285565b610555565b60005b8261056085846112a7565b81518110610570576105706112d3565b60209081029190910101528061058581611300565b9150506104e7565b50600061059c610e1042611285565b6105c98460ff7f0000000000000000000000000000000000000000000000000000000000000000166112c0565b6105d391906112a7565b99919850909650505050505050565b6000818042111561060e5760405162461bcd60e51b815260040161060590611319565b60405180910390fd5b6000546001600160a01b031633146106385760405162461bcd60e51b815260040161060590611340565b835185511461067c5760405162461bcd60e51b815260206004820152601060248201526f3830b930b6b2ba32b9399032b93937b960811b6044820152606401610605565b6000805b865181101561074a5785818151811061069b5761069b6112d3565b6020026020010151846106ae91906112c0565b93508581815181106106c2576106c26112d3565b6020026020010151600560008984815181106106e0576106e06112d3565b60200260200101518152602001908152602001600020819055508187828151811061070d5761070d6112d3565b602002602001015111156107385786818151811061072d5761072d6112d3565b602002602001015191505b8061074281611300565b915050610680565b50600681905561077c7f0000000000000000000000000000000000000000000000000000000000000000333086610dde565b60408051600081526020810185905233917fc3991418cacd70a010fce559a44fcbb47534ca43bf7543964bdca2639f6e6e5a910160405180910390a250509392505050565b6000546001600160a01b031633146107eb5760405162461bcd60e51b815260040161060590611340565b600180546001600160a01b0319166001600160a01b0392909216919091179055565b808042111561082e5760405162461bcd60e51b815260040161060590611319565b6000546001600160a01b031633146108585760405162461bcd60e51b815260040161060590611340565b6108837f00000000000000000000000000000000000000000000000000000000000000003385610ef8565b505050565b6001546001600160a01b031633146108b25760405162461bcd60e51b815260040161060590611340565b60018054600080546001600160a01b03199081166001600160a01b03841617909155169055565b80804211156108fa5760405162461bcd60e51b815260040161060590611319565b600060ff7f00000000000000000000000000000000000000000000000000000000000000001661092c610e1042611285565b61093691906112a7565b3360009081526003602052604081205491925090805b336000908152600360205260409020600101548110156109ef578381116109ef576109788160016112c0565b600082815260046020526040902054909250156109dd576000818152600460209081526040808320543384526002835281842085855283528184205460059093529220546109c691906112e9565b6109d09190611285565b6109da90846112c0565b92505b806109e781611300565b91505061094c565b5033600090815260036020526040812082910155610a2e7f00000000000000000000000000000000000000000000000000000000000000003384610ef8565b60405182815233907fba8de60c3403ec381d1d484652ea1980e3c3e56359195c92525bff4ce47ad98e9060200160405180910390a25050505050565b60036020528160005260406000208160028110610a8657600080fd5b01549150829050565b8080421115610ab05760405162461bcd60e51b815260040161060590611319565b6000546001600160a01b03163314610ada5760405162461bcd60e51b815260040161060590611340565b7f00000000000000000000000000000000000000000000000000000000000000004211158015610b2a57507f00000000000000000000000000000000000000000000000000000000000000004210155b610b6a5760405162461bcd60e51b81526020600482015260116024820152701b9bdd081a5b881d1a19481c195c9a5bd9607a1b6044820152606401610605565b610b967f0000000000000000000000000000000000000000000000000000000000000000333086610dde565b60008481526005602052604081208054859290610bb49084906112c0565b9091555050600654841115610bc95760068490555b604080518581526020810185905233917fc3991418cacd70a010fce559a44fcbb47534ca43bf7543964bdca2639f6e6e5a910160405180910390a250505050565b6000610c3760017f0000000000000000000000000000000000000000000000000000000000000000611363565b60ff1660017f000000000000000000000000000000000000000000000000000000000000000060ff16600185610c6d9190611363565b60ff16610c9b60017f00000000000000000000000000000000000000000000000000000000000000006112a7565b610ca591906112e9565b610caf91906112c0565b610cb991906112a7565b610cc390856112e9565b610ccd9190611285565b9392505050565b60008060ff7f000000000000000000000000000000000000000000000000000000000000000016610d07610e1042611285565b610d1191906112a7565b6001600160a01b038416600090815260036020526040812054919250905b6001600160a01b038516600090815260036020526040902060010154811015610dd657828111610dd65760008181526004602052604090205415610dc4576000818152600460209081526040808320546001600160a01b0389168452600283528184208585528352818420546005909352922054610dad91906112e9565b610db79190611285565b610dc190836112c0565b91505b80610dce81611300565b915050610d2f565b509392505050565b604080516001600160a01b0385811660248301528481166044830152606480830185905283518084039091018152608490920183526020820180516001600160e01b03166323b872dd60e01b1790529151600092839290881691610e42919061137c565b6000604051808303816000865af19150503d8060008114610e7f576040519150601f19603f3d011682016040523d82523d6000602084013e610e84565b606091505b5091509150818015610eae575080511580610eae575080806020019051810190610eae91906113ab565b610ef05760405162461bcd60e51b81526020600482015260136024820152721d1c985b9cd9995c919c9bdb4819985a5b1959606a1b6044820152606401610605565b505050505050565b604080516001600160a01b038481166024830152604480830185905283518084039091018152606490920183526020820180516001600160e01b031663a9059cbb60e01b1790529151600092839290871691610f54919061137c565b6000604051808303816000865af19150503d8060008114610f91576040519150601f19603f3d011682016040523d82523d6000602084013e610f96565b606091505b5091509150818015610fc0575080511580610fc0575080806020019051810190610fc091906113ab565b610ffe5760405162461bcd60e51b815260206004820152600f60248201526e1514905394d1915497d19052531151608a1b6044820152606401610605565b5050505050565b80356001600160a01b038116811461101c57600080fd5b919050565b60006020828403121561103357600080fd5b610ccd82611005565b6000604082018483526020604081850152818551808452606086019150828701935060005b8181101561107d57845183529383019391830191600101611061565b5090979650505050505050565b634e487b7160e01b600052604160045260246000fd5b600082601f8301126110b157600080fd5b8135602067ffffffffffffffff808311156110ce576110ce61108a565b8260051b604051601f19603f830116810181811084821117156110f3576110f361108a565b60405293845285810183019383810192508785111561111157600080fd5b83870191505b8482101561113057813583529183019190830190611117565b979650505050505050565b60008060006060848603121561115057600080fd5b833567ffffffffffffffff8082111561116857600080fd5b611174878388016110a0565b9450602086013591508082111561118a57600080fd5b50611197868287016110a0565b925050604084013590509250925092565b6000602082840312156111ba57600080fd5b5035919050565b600080604083850312156111d457600080fd5b50508035926020909101359150565b600080604083850312156111f657600080fd5b6111ff83611005565b946020939093013593505050565b60008060006060848603121561122257600080fd5b505081359360208301359350604090920135919050565b6000806040838503121561124c57600080fd5b82359150602083013560ff8116811461126457600080fd5b809150509250929050565b634e487b7160e01b600052601160045260246000fd5b6000826112a257634e487b7160e01b600052601260045260246000fd5b500490565b818103818111156112ba576112ba61126f565b92915050565b808201808211156112ba576112ba61126f565b634e487b7160e01b600052603260045260246000fd5b80820281158282048414176112ba576112ba61126f565b6000600182016113125761131261126f565b5060010190565b6020808252600d908201526c6f76657220646561646c696e6560981b604082015260600190565b6020808252600990820152683337b93134b23232b760b91b604082015260600190565b60ff82811682821603908111156112ba576112ba61126f565b6000825160005b8181101561139d5760208186018101518583015201611383565b506000920191825250919050565b6000602082840312156113bd57600080fd5b81518015158114610ccd57600080fdfea26469706673582212203fe05e7af59bd68ec3c963ba30227fd64c3bebd357b31d801ae09ce8ec6ae9d264736f6c63430008110033",
  "linkReferences": {},
  "deployedLinkReferences": {}
}