{
  "_format": "hh-sol-artifact-1",
  "contractName": "Reward",
  "sourceName": "contracts/claimSMR.sol",
  "abi": [
    {
      "inputs": [
        {
          "internalType": "address[]",
          "name": "_users",
          "type": "address[]"
        },
        {
          "internalType": "uint256",
          "name": "_rewardAmount",
          "type": "uint256"
        }
      ],
      "stateMutability": "nonpayable",
      "type": "constructor"
    },
    {
      "anonymous": false,
      "inputs": [
        {
          "indexed": false,
          "internalType": "address",
          "name": "Sender",
          "type": "address"
        },
        {
          "indexed": false,
          "internalType": "uint256",
          "name": "Value",
          "type": "uint256"
        }
      ],
      "name": "Received",
      "type": "event"
    },
    {
      "inputs": [],
      "name": "acceptSetter",
      "outputs": [],
      "stateMutability": "nonpayable",
      "type": "function"
    },
    {
      "inputs": [
        {
          "internalType": "address[]",
          "name": "_users",
          "type": "address[]"
        }
      ],
      "name": "addUser",
      "outputs": [],
      "stateMutability": "nonpayable",
      "type": "function"
    },
    {
      "inputs": [],
      "name": "claim",
      "outputs": [],
      "stateMutability": "nonpayable",
      "type": "function"
    },
    {
      "inputs": [],
      "name": "owner",
      "outputs": [
        {
          "internalType": "address",
          "name": "",
          "type": "address"
        }
      ],
      "stateMutability": "view",
      "type": "function"
    },
    {
      "inputs": [],
      "name": "rewardAmount",
      "outputs": [
        {
          "internalType": "uint256",
          "name": "",
          "type": "uint256"
        }
      ],
      "stateMutability": "view",
      "type": "function"
    },
    {
      "inputs": [
        {
          "internalType": "address",
          "name": "_owner",
          "type": "address"
        }
      ],
      "name": "transferOwner",
      "outputs": [],
      "stateMutability": "nonpayable",
      "type": "function"
    },
    {
      "inputs": [
        {
          "internalType": "address",
          "name": "",
          "type": "address"
        }
      ],
      "name": "userClaimed",
      "outputs": [
        {
          "internalType": "uint256",
          "name": "",
          "type": "uint256"
        }
      ],
      "stateMutability": "view",
      "type": "function"
    },
    {
      "inputs": [
        {
          "internalType": "address",
          "name": "",
          "type": "address"
        }
      ],
      "name": "users",
      "outputs": [
        {
          "internalType": "bool",
          "name": "",
          "type": "bool"
        }
      ],
      "stateMutability": "view",
      "type": "function"
    },
    {
      "stateMutability": "payable",
      "type": "receive"
    }
  ],
  "bytecode": "0x60a060405234801561001057600080fd5b5060405161085b38038061085b83398101604081905261002f916100e5565b60005b825181101561009757600160036000858481518110610053576100536101b1565b6020908102919091018101516001600160a01b03168252810191909152604001600020805460ff19169115159190911790558061008f816101c7565b915050610032565b5060805250600080546001600160a01b031916331790556101ee565b634e487b7160e01b600052604160045260246000fd5b80516001600160a01b03811681146100e057600080fd5b919050565b600080604083850312156100f857600080fd5b82516001600160401b038082111561010f57600080fd5b818501915085601f83011261012357600080fd5b8151602082821115610137576101376100b3565b8160051b604051601f19603f8301168101818110868211171561015c5761015c6100b3565b60405292835281830193508481018201928984111561017a57600080fd5b948201945b8386101561019f57610190866100c9565b8552948201949382019361017f565b97909101519698969750505050505050565b634e487b7160e01b600052603260045260246000fd5b6000600182016101e757634e487b7160e01b600052601160045260246000fd5b5060010190565b60805161064b610210600039600081816101f901526102cf015261064b6000f3fe60806040526004361061007f5760003560e01c80638da5cb5b1161004e5780638da5cb5b1461014f578063a87430ba14610187578063cdfca7f2146101c7578063f7b2a7be146101e757600080fd5b80633b7fcdca146100c35780634e71d92d146101035780634fb2e45d1461011a5780635f8e422f1461013a57600080fd5b366100be57604080513381523460208201527f88a5966d370b9919b20f3e2c13ff65706f196a4e32cc2c12bf57088f88525874910160405180910390a1005b600080fd5b3480156100cf57600080fd5b506100f06100de3660046104b8565b60026020526000908152604090205481565b6040519081526020015b60405180910390f35b34801561010f57600080fd5b5061011861021b565b005b34801561012657600080fd5b506101186101353660046104b8565b610369565b34801561014657600080fd5b506101186103b5565b34801561015b57600080fd5b5060005461016f906001600160a01b031681565b6040516001600160a01b0390911681526020016100fa565b34801561019357600080fd5b506101b76101a23660046104b8565b60036020526000908152604090205460ff1681565b60405190151581526020016100fa565b3480156101d357600080fd5b506101186101e23660046104f0565b610406565b3480156101f357600080fd5b506100f07f000000000000000000000000000000000000000000000000000000000000000081565b3360009081526003602052604090205460ff166102705760405162461bcd60e51b815260206004820152600e60248201526d3ab9b2b9103337b93134b23232b760911b60448201526064015b60405180910390fd5b336000908152600260205260409020546102b65760405162461bcd60e51b815260206004820152600760248201526618db185a5b595960ca1b6044820152606401610267565b33600081815260026020526040808220429055519091907f0000000000000000000000000000000000000000000000000000000000000000908381818185875af1925050503d8060008114610327576040519150601f19603f3d011682016040523d82523d6000602084013e61032c565b606091505b50509050806103665760405162461bcd60e51b815260206004820152600660248201526521636c61696d60d01b6044820152606401610267565b50565b6000546001600160a01b031633146103935760405162461bcd60e51b8152600401610267906105b5565b600180546001600160a01b0319166001600160a01b0392909216919091179055565b6001546001600160a01b031633146103df5760405162461bcd60e51b8152600401610267906105b5565b60018054600080546001600160a01b03199081166001600160a01b03841617909155169055565b6000546001600160a01b031633146104305760405162461bcd60e51b8152600401610267906105b5565b60005b815181101561049857600160036000848481518110610454576104546105d8565b6020908102919091018101516001600160a01b03168252810191909152604001600020805460ff191691151591909117905580610490816105ee565b915050610433565b5050565b80356001600160a01b03811681146104b357600080fd5b919050565b6000602082840312156104ca57600080fd5b6104d38261049c565b9392505050565b634e487b7160e01b600052604160045260246000fd5b6000602080838503121561050357600080fd5b823567ffffffffffffffff8082111561051b57600080fd5b818501915085601f83011261052f57600080fd5b813581811115610541576105416104da565b8060051b604051601f19603f83011681018181108582111715610566576105666104da565b60405291825284820192508381018501918883111561058457600080fd5b938501935b828510156105a95761059a8561049c565b84529385019392850192610589565b98975050505050505050565b6020808252600990820152683337b93134b23232b760b91b604082015260600190565b634e487b7160e01b600052603260045260246000fd5b60006001820161060e57634e487b7160e01b600052601160045260246000fd5b506001019056fea2646970667358221220a7c2db22d165f83b894614431820e4fda6d73499b0bd2d942cc6e6526ce4346964736f6c63430008110033",
  "linkReferences": {},
  "deployedLinkReferences": {}
}