{
  "_format": "hh-sol-artifact-1",
  "contractName": "StakeERC20",
  "sourceName": "contracts/stakeERC20.sol",
  "abi": [
    {
      "inputs": [
        {
          "internalType": "uint8",
          "name": "maxWeeks",
          "type": "uint8"
        },
        {
          "internalType": "uint256",
          "name": "maxScale",
          "type": "uint256"
        },
        {
          "internalType": "uint8",
          "name": "lockWeeks",
          "type": "uint8"
        },
        {
          "internalType": "uint256",
          "name": "beginTime",
          "type": "uint256"
        },
        {
          "internalType": "uint256",
          "name": "endTime",
          "type": "uint256"
        },
        {
          "internalType": "address",
          "name": "_rewardToken",
          "type": "address"
        },
        {
          "internalType": "address",
          "name": "_lpToken",
          "type": "address"
        }
      ],
      "stateMutability": "nonpayable",
      "type": "constructor"
    },
    {
      "anonymous": false,
      "inputs": [
        {
          "indexed": true,
          "internalType": "address",
          "name": "user",
          "type": "address"
        },
        {
          "indexed": false,
          "internalType": "uint256",
          "name": "amount",
          "type": "uint256"
        }
      ],
      "name": "ClaimReward",
      "type": "event"
    },
    {
      "anonymous": false,
      "inputs": [
        {
          "indexed": true,
          "internalType": "address",
          "name": "user",
          "type": "address"
        },
        {
          "indexed": false,
          "internalType": "uint256",
          "name": "no",
          "type": "uint256"
        },
        {
          "indexed": false,
          "internalType": "uint256",
          "name": "amount",
          "type": "uint256"
        }
      ],
      "name": "SetReward",
      "type": "event"
    },
    {
      "anonymous": false,
      "inputs": [
        {
          "indexed": true,
          "internalType": "address",
          "name": "user",
          "type": "address"
        },
        {
          "indexed": false,
          "internalType": "uint256",
          "name": "id",
          "type": "uint256"
        },
        {
          "indexed": false,
          "internalType": "uint256",
          "name": "amount",
          "type": "uint256"
        },
        {
          "indexed": false,
          "internalType": "uint8",
          "name": "k",
          "type": "uint8"
        }
      ],
      "name": "Stake",
      "type": "event"
    },
    {
      "anonymous": false,
      "inputs": [
        {
          "indexed": true,
          "internalType": "address",
          "name": "user",
          "type": "address"
        },
        {
          "indexed": false,
          "internalType": "uint256",
          "name": "amount",
          "type": "uint256"
        }
      ],
      "name": "Withdraw",
      "type": "event"
    },
    {
      "inputs": [],
      "name": "BEGIN_TIME",
      "outputs": [
        {
          "internalType": "uint256",
          "name": "",
          "type": "uint256"
        }
      ],
      "stateMutability": "view",
      "type": "function"
    },
    {
      "inputs": [],
      "name": "END_TIME",
      "outputs": [
        {
          "internalType": "uint256",
          "name": "",
          "type": "uint256"
        }
      ],
      "stateMutability": "view",
      "type": "function"
    },
    {
      "inputs": [],
      "name": "LOCK_WEEKNUM",
      "outputs": [
        {
          "internalType": "uint8",
          "name": "",
          "type": "uint8"
        }
      ],
      "stateMutability": "view",
      "type": "function"
    },
    {
      "inputs": [],
      "name": "MAX_SCALE",
      "outputs": [
        {
          "internalType": "uint256",
          "name": "",
          "type": "uint256"
        }
      ],
      "stateMutability": "view",
      "type": "function"
    },
    {
      "inputs": [],
      "name": "MAX_WEEKS",
      "outputs": [
        {
          "internalType": "uint8",
          "name": "",
          "type": "uint8"
        }
      ],
      "stateMutability": "view",
      "type": "function"
    },
    {
      "inputs": [],
      "name": "WEEK_SECONDS",
      "outputs": [
        {
          "internalType": "uint24",
          "name": "",
          "type": "uint24"
        }
      ],
      "stateMutability": "view",
      "type": "function"
    },
    {
      "inputs": [],
      "name": "acceptSetter",
      "outputs": [],
      "stateMutability": "nonpayable",
      "type": "function"
    },
    {
      "inputs": [],
      "name": "canClaimAmount",
      "outputs": [
        {
          "internalType": "uint256",
          "name": "",
          "type": "uint256"
        }
      ],
      "stateMutability": "view",
      "type": "function"
    },
    {
      "inputs": [
        {
          "internalType": "uint256",
          "name": "deadline",
          "type": "uint256"
        }
      ],
      "name": "claimReward",
      "outputs": [],
      "stateMutability": "nonpayable",
      "type": "function"
    },
    {
      "inputs": [
        {
          "internalType": "uint256",
          "name": "amount",
          "type": "uint256"
        },
        {
          "internalType": "uint8",
          "name": "k",
          "type": "uint8"
        }
      ],
      "name": "getScore",
      "outputs": [
        {
          "internalType": "uint256",
          "name": "score",
          "type": "uint256"
        }
      ],
      "stateMutability": "view",
      "type": "function"
    },
    {
      "inputs": [],
      "name": "getStaking",
      "outputs": [
        {
          "components": [
            {
              "internalType": "uint256",
              "name": "amount",
              "type": "uint256"
            },
            {
              "internalType": "uint256",
              "name": "score",
              "type": "uint256"
            },
            {
              "internalType": "uint256",
              "name": "beginNo",
              "type": "uint256"
            },
            {
              "internalType": "uint256",
              "name": "endNo",
              "type": "uint256"
            }
          ],
          "internalType": "struct StakeERC20.StakingERC20[]",
          "name": "",
          "type": "tuple[]"
        }
      ],
      "stateMutability": "view",
      "type": "function"
    },
    {
      "inputs": [],
      "name": "latestNo",
      "outputs": [
        {
          "internalType": "uint256",
          "name": "",
          "type": "uint256"
        }
      ],
      "stateMutability": "view",
      "type": "function"
    },
    {
      "inputs": [],
      "name": "lockedRewardAmount",
      "outputs": [
        {
          "internalType": "uint256",
          "name": "",
          "type": "uint256"
        },
        {
          "internalType": "uint256[]",
          "name": "",
          "type": "uint256[]"
        }
      ],
      "stateMutability": "view",
      "type": "function"
    },
    {
      "inputs": [],
      "name": "lpToken",
      "outputs": [
        {
          "internalType": "address",
          "name": "",
          "type": "address"
        }
      ],
      "stateMutability": "view",
      "type": "function"
    },
    {
      "inputs": [],
      "name": "nonce",
      "outputs": [
        {
          "internalType": "uint256",
          "name": "",
          "type": "uint256"
        }
      ],
      "stateMutability": "view",
      "type": "function"
    },
    {
      "inputs": [],
      "name": "owner",
      "outputs": [
        {
          "internalType": "address",
          "name": "",
          "type": "address"
        }
      ],
      "stateMutability": "view",
      "type": "function"
    },
    {
      "inputs": [],
      "name": "rewardToken",
      "outputs": [
        {
          "internalType": "address",
          "name": "",
          "type": "address"
        }
      ],
      "stateMutability": "view",
      "type": "function"
    },
    {
      "inputs": [
        {
          "internalType": "uint256",
          "name": "",
          "type": "uint256"
        }
      ],
      "name": "rewardsOf",
      "outputs": [
        {
          "internalType": "uint256",
          "name": "",
          "type": "uint256"
        }
      ],
      "stateMutability": "view",
      "type": "function"
    },
    {
      "inputs": [
        {
          "internalType": "uint256",
          "name": "no",
          "type": "uint256"
        },
        {
          "internalType": "uint256",
          "name": "amount",
          "type": "uint256"
        },
        {
          "internalType": "uint256",
          "name": "deadline",
          "type": "uint256"
        }
      ],
      "name": "setReward",
      "outputs": [],
      "stateMutability": "nonpayable",
      "type": "function"
    },
    {
      "inputs": [
        {
          "internalType": "uint256[]",
          "name": "nos",
          "type": "uint256[]"
        },
        {
          "internalType": "uint256[]",
          "name": "amounts",
          "type": "uint256[]"
        },
        {
          "internalType": "uint256",
          "name": "deadline",
          "type": "uint256"
        }
      ],
      "name": "setRewards",
      "outputs": [
        {
          "internalType": "uint256",
          "name": "total",
          "type": "uint256"
        }
      ],
      "stateMutability": "nonpayable",
      "type": "function"
    },
    {
      "inputs": [
        {
          "internalType": "uint256",
          "name": "amount",
          "type": "uint256"
        },
        {
          "internalType": "uint8",
          "name": "k",
          "type": "uint8"
        },
        {
          "internalType": "uint256",
          "name": "deadline",
          "type": "uint256"
        }
      ],
      "name": "stake",
      "outputs": [],
      "stateMutability": "nonpayable",
      "type": "function"
    },
    {
      "inputs": [
        {
          "internalType": "uint256",
          "name": "",
          "type": "uint256"
        }
      ],
      "name": "stakingERC20s",
      "outputs": [
        {
          "internalType": "uint256",
          "name": "amount",
          "type": "uint256"
        },
        {
          "internalType": "uint256",
          "name": "score",
          "type": "uint256"
        },
        {
          "internalType": "uint256",
          "name": "beginNo",
          "type": "uint256"
        },
        {
          "internalType": "uint256",
          "name": "endNo",
          "type": "uint256"
        }
      ],
      "stateMutability": "view",
      "type": "function"
    },
    {
      "inputs": [
        {
          "internalType": "uint256",
          "name": "",
          "type": "uint256"
        }
      ],
      "name": "totalScores",
      "outputs": [
        {
          "internalType": "uint256",
          "name": "",
          "type": "uint256"
        }
      ],
      "stateMutability": "view",
      "type": "function"
    },
    {
      "inputs": [
        {
          "internalType": "address",
          "name": "_owner",
          "type": "address"
        }
      ],
      "name": "transferOwner",
      "outputs": [],
      "stateMutability": "nonpayable",
      "type": "function"
    },
    {
      "inputs": [
        {
          "internalType": "address",
          "name": "",
          "type": "address"
        },
        {
          "internalType": "uint256",
          "name": "",
          "type": "uint256"
        }
      ],
      "name": "userCanClaimWeeks",
      "outputs": [
        {
          "internalType": "uint256",
          "name": "",
          "type": "uint256"
        }
      ],
      "stateMutability": "view",
      "type": "function"
    },
    {
      "inputs": [
        {
          "internalType": "address",
          "name": "",
          "type": "address"
        },
        {
          "internalType": "uint256",
          "name": "",
          "type": "uint256"
        }
      ],
      "name": "userERC20s",
      "outputs": [
        {
          "internalType": "uint256",
          "name": "",
          "type": "uint256"
        }
      ],
      "stateMutability": "view",
      "type": "function"
    },
    {
      "inputs": [
        {
          "internalType": "address",
          "name": "",
          "type": "address"
        },
        {
          "internalType": "uint256",
          "name": "",
          "type": "uint256"
        }
      ],
      "name": "userScores",
      "outputs": [
        {
          "internalType": "uint256",
          "name": "",
          "type": "uint256"
        }
      ],
      "stateMutability": "view",
      "type": "function"
    },
    {
      "inputs": [
        {
          "internalType": "uint256",
          "name": "deadline",
          "type": "uint256"
        }
      ],
      "name": "withdraw",
      "outputs": [
        {
          "internalType": "uint256",
          "name": "total",
          "type": "uint256"
        }
      ],
      "stateMutability": "nonpayable",
      "type": "function"
    },
    {
      "inputs": [
        {
          "internalType": "uint256",
          "name": "amount",
          "type": "uint256"
        },
        {
          "internalType": "uint256",
          "name": "deadline",
          "type": "uint256"
        }
      ],
      "name": "withdrawRewards",
      "outputs": [],
      "stateMutability": "nonpayable",
      "type": "function"
    }
  ],
  "bytecode": "0x6101606040523480156200001257600080fd5b5060405162001eb038038062001eb08339810160408190526200003591620000ac565b6001600160a01b0391821660805260ff96871660a05260c0959095529490921660e0526101005261012052600080546001600160a01b03191633179055166101405262000126565b805160ff811681146200008f57600080fd5b919050565b80516001600160a01b03811681146200008f57600080fd5b600080600080600080600060e0888a031215620000c857600080fd5b620000d3886200007d565b965060208801519550620000ea604089016200007d565b945060608801519350608088015192506200010860a0890162000094565b91506200011860c0890162000094565b905092959891949750929550565b60805160a05160c05160e051610100516101205161014051611cb1620001ff600039600081816103160152818161088f015261138c0152600081816102940152818161105401526112dd0152600081816104320152818161107f015261130801526000818161021f01528181610b5001528181610c3a01528181610de20152610e460152600081816104c401526111ef0152600081816104770152818161118b015281816111b6015261127d0152600081816104eb015281816106930152818161098e01528181610f4f01526110e70152611cb16000f3fe608060405234801561001057600080fd5b50600436106101cf5760003560e01c80638923de2b11610104578063c75363b6116100a2578063ee3453ed11610071578063ee3453ed146104ac578063f6def7cf146104bf578063f7c618c1146104e6578063f99b7d751461050d57600080fd5b8063c75363b61461042d578063cd671a5814610454578063e11400bb14610472578063e1c05d931461049957600080fd5b8063ae169a50116100de578063ae169a50146103eb578063affed0e0146103fe578063ba08650114610407578063bb57852d1461041a57600080fd5b80638923de2b1461036d5780638da5cb5b14610383578063a218de151461039657600080fd5b80634fb2e45d116101715780635f8e422f1161014b5780635f8e422f146103095780635fcbd285146103115780637b1391a6146103505780638431165e1461036557600080fd5b80634fb2e45d146102b657806352cb5133146102cb5780635b680a45146102de57600080fd5b8063157775df116101ad578063157775df1461025357806329ed1cfd146102735780632e1a7d4d1461027c57806337ba682d1461028f57600080fd5b806307c6e2fa146101d45780630bce1284146101fa5780630d437d401461021a575b600080fd5b6101e76101e2366004611878565b610520565b6040519081526020015b60405180910390f35b6101e76102083660046118e5565b60056020526000908152604090205481565b6102417f000000000000000000000000000000000000000000000000000000000000000081565b60405160ff90911681526020016101f1565b6101e76102613660046118e5565b60046020526000908152604090205481565b6101e760065481565b6101e761028a3660046118e5565b6106ff565b6101e77f000000000000000000000000000000000000000000000000000000000000000081565b6102c96102c436600461191a565b6108f2565b005b6102c96102d9366004611935565b61093e565b6101e76102ec366004611957565b600260209081526000928352604080842090915290825290205481565b6102c96109b9565b6103387f000000000000000000000000000000000000000000000000000000000000000081565b6040516001600160a01b0390911681526020016101f1565b610358610a0a565b6040516101f19190611981565b6101e7610b49565b610375610c31565b6040516101f19291906119e5565b600054610338906001600160a01b031681565b6103cb6103a43660046118e5565b60086020526000908152604090208054600182015460028301546003909301549192909184565b6040805194855260208501939093529183015260608201526080016101f1565b6102c96103f93660046118e5565b610e1f565b6101e760075481565b6101e7610415366004611957565b610fb1565b6101e7610428366004611957565b610fe2565b6101e77f000000000000000000000000000000000000000000000000000000000000000081565b61045e62093a8081565b60405162ffffff90911681526020016101f1565b6102417f000000000000000000000000000000000000000000000000000000000000000081565b6102c96104a7366004611a33565b611007565b6101e76104ba366004611a70565b611182565b6101e77f000000000000000000000000000000000000000000000000000000000000000081565b6103387f000000000000000000000000000000000000000000000000000000000000000081565b6102c961051b366004611a9c565b61124c565b6000818042111561054c5760405162461bcd60e51b815260040161054390611ad1565b60405180910390fd5b6000546001600160a01b031633146105765760405162461bcd60e51b815260040161054390611af8565b83518551146105ba5760405162461bcd60e51b815260206004820152601060248201526f3830b930b6b2ba32b9399032b93937b960811b6044820152606401610543565b6000805b8651811015610688578581815181106105d9576105d9611b1b565b6020026020010151846105ec9190611b47565b935085818151811061060057610600611b1b565b60200260200101516005600089848151811061061e5761061e611b1b565b60200260200101518152602001908152602001600020819055508187828151811061064b5761064b611b1b565b602002602001015111156106765786818151811061066b5761066b611b1b565b602002602001015191505b8061068081611b60565b9150506105be565b5060068190556106ba7f00000000000000000000000000000000000000000000000000000000000000003330866115a0565b60408051600081526020810185905233917fc3991418cacd70a010fce559a44fcbb47534ca43bf7543964bdca2639f6e6e5a910160405180910390a250509392505050565b600081804211156107225760405162461bcd60e51b815260040161054390611ad1565b600061073162093a8042611b79565b336000908152600960205260409020549091505b3360009081526009602052604090205415610884578061076481611b9b565b3360009081526009602052604081208054929450909250908390811061078c5761078c611b1b565b9060005260206000200154905082600860008381526020019081526020016000206003015411610870576000818152600860205260409020546107cf9086611b47565b3360009081526009602052604090208054919650906107f090600190611bb2565b8154811061080057610800611b1b565b60009182526020808320909101543383526009909152604090912080548490811061082d5761082d611b1b565b600091825260208083209091019290925533815260099091526040902080548061085957610859611bc5565b600190038181906000526020600020016000905590555b8160000361087e5750610884565b50610745565b83156108b5576108b57f000000000000000000000000000000000000000000000000000000000000000033866116ba565b60405184815233907f884edad9ce6fa2440d8a54cc123490eb96d2768479d49ff9c7366125a94243649060200160405180910390a2505050919050565b6000546001600160a01b0316331461091c5760405162461bcd60e51b815260040161054390611af8565b600180546001600160a01b0319166001600160a01b0392909216919091179055565b808042111561095f5760405162461bcd60e51b815260040161054390611ad1565b6000546001600160a01b031633146109895760405162461bcd60e51b815260040161054390611af8565b6109b47f000000000000000000000000000000000000000000000000000000000000000033856116ba565b505050565b6001546001600160a01b031633146109e35760405162461bcd60e51b815260040161054390611af8565b60018054600080546001600160a01b03199081166001600160a01b03841617909155169055565b336000908152600960205260408120546060918167ffffffffffffffff811115610a3657610a366117c7565b604051908082528060200260200182016040528015610a9257816020015b610a7f6040518060800160405280600081526020016000815260200160008152602001600081525090565b815260200190600190039081610a545790505b50905060005b82811015610b42573360009081526009602052604081208054600892919084908110610ac657610ac6611b1b565b90600052602060002001548152602001908152602001600020604051806080016040529081600082015481526020016001820154815260200160028201548152602001600382015481525050828281518110610b2457610b24611b1b565b60200260200101819052508080610b3a90611b60565b915050610a98565b5092915050565b60008060ff7f000000000000000000000000000000000000000000000000000000000000000016610b7d62093a8042611b79565b610b879190611bb2565b33600090815260036020526040812054919250905b33600090815260036020526040902060010154811015610b4257828111610b425760008181526004602052604090205415610c1f57600081815260046020908152604080832054338452600283528184208585528352818420546005909352922054610c089190611bdb565b610c129190611b79565b610c1c9083611b47565b91505b80610c2981611b60565b915050610b9c565b600060608160ff7f000000000000000000000000000000000000000000000000000000000000000016610c6762093a8042611b79565b610c719190611bb2565b610c7c906001611b47565b33600090815260036020526040902090915081906001015411610cb15760408051600081526020810190915290939092509050565b33600090815260036020526040812080546001909101549091838311610cd75783610cd9565b825b90506000610ce78284611bb2565b67ffffffffffffffff811115610cff57610cff6117c7565b604051908082528060200260200182016040528015610d28578160200160208202803683370190505b509050815b83811015610dca5760008181526004602052604090205415610d8f57600081815260046020908152604080832054338452600283528184208585528352818420546005909352922054610d809190611bdb565b610d8a9190611b79565b610d92565b60005b82610d9d8584611bb2565b81518110610dad57610dad611b1b565b602090810291909101015280610dc281611b60565b915050610d2d565b506000610dda62093a8042611b79565b610e078460ff7f000000000000000000000000000000000000000000000000000000000000000016611b47565b610e119190611bb2565b989197509095505050505050565b8080421115610e405760405162461bcd60e51b815260040161054390611ad1565b600060ff7f000000000000000000000000000000000000000000000000000000000000000016610e7362093a8042611b79565b610e7d9190611bb2565b3360009081526003602052604081205491925090805b33600090815260036020526040902060010154811015610f3657838111610f3657610ebf816001611b47565b60008281526004602052604090205490925015610f2457600081815260046020908152604080832054338452600283528184208585528352818420546005909352922054610f0d9190611bdb565b610f179190611b79565b610f219084611b47565b92505b80610f2e81611b60565b915050610e93565b5033600090815260036020526040812082910155610f757f000000000000000000000000000000000000000000000000000000000000000033846116ba565b60405182815233907fba8de60c3403ec381d1d484652ea1980e3c3e56359195c92525bff4ce47ad98e9060200160405180910390a25050505050565b60096020528160005260406000208181548110610fcd57600080fd5b90600052602060002001600091509150505481565b60036020528160005260406000208160028110610ffe57600080fd5b01549150829050565b80804211156110285760405162461bcd60e51b815260040161054390611ad1565b6000546001600160a01b031633146110525760405162461bcd60e51b815260040161054390611af8565b7f000000000000000000000000000000000000000000000000000000000000000042111580156110a257507f00000000000000000000000000000000000000000000000000000000000000004210155b6110e25760405162461bcd60e51b81526020600482015260116024820152701b9bdd081a5b881d1a19481c195c9a5bd9607a1b6044820152606401610543565b61110e7f00000000000000000000000000000000000000000000000000000000000000003330866115a0565b6000848152600560205260408120805485929061112c908490611b47565b90915550506006548411156111415760068490555b604080518581526020810185905233917fc3991418cacd70a010fce559a44fcbb47534ca43bf7543964bdca2639f6e6e5a910160405180910390a250505050565b60006111af60017f0000000000000000000000000000000000000000000000000000000000000000611bf2565b60ff1660017f000000000000000000000000000000000000000000000000000000000000000060ff166001856111e59190611bf2565b60ff1661121360017f0000000000000000000000000000000000000000000000000000000000000000611bb2565b61121d9190611bdb565b6112279190611b47565b6112319190611bb2565b61123b9085611bdb565b6112459190611b79565b9392505050565b808042111561126d5760405162461bcd60e51b815260040161054390611ad1565b60008360ff161180156112a657507f000000000000000000000000000000000000000000000000000000000000000060ff168360ff1611155b6112db5760405162461bcd60e51b8152602060048201526006602482015265359018bf1a9960d11b6044820152606401610543565b7f0000000000000000000000000000000000000000000000000000000000000000421115801561132b57507f00000000000000000000000000000000000000000000000000000000000000004210155b61136b5760405162461bcd60e51b81526020600482015260116024820152701b9bdd081a5b881d1a19481c195c9a5bd9607a1b6044820152606401610543565b600061137a62093a8042611b79565b611385906001611b47565b90506113b37f00000000000000000000000000000000000000000000000000000000000000003330886115a0565b60006113bf8686611182565b905060005b8560ff168160ff1610156114595781600460006113e460ff851687611b47565b815260200190815260200160002060008282546114019190611b47565b9091555050336000908152600260205260408120839161142460ff851687611b47565b815260200190815260200160002060008282546114419190611b47565b9091555081905061145181611c0b565b9150506113c4565b50600061146960ff871684611b47565b604080516080810182528981526020808201868152828401888152606084018681526007546000908152600885528681209551865592516001808701919091559151600286015551600394850155338252929091529190912090810154905491925090036114e4573360009081526003602052604090208390555b3360009081526003602052604090208190600101541015611515573360009081526003602052604090208190600101555b3360008181526009602090815260408083206007805482546001810184559286529484902090910193909355915482519081529081018a905260ff89168183015290517f6fa2f6021ee337436cdf2b2570285886da18bc06402ce284d296504a0fe8f8759181900360600190a26007805490600061159283611b60565b919050555050505050505050565b604080516001600160a01b0385811660248301528481166044830152606480830185905283518084039091018152608490920183526020820180516001600160e01b03166323b872dd60e01b17905291516000928392908816916116049190611c2a565b6000604051808303816000865af19150503d8060008114611641576040519150601f19603f3d011682016040523d82523d6000602084013e611646565b606091505b50915091508180156116705750805115806116705750808060200190518101906116709190611c59565b6116b25760405162461bcd60e51b81526020600482015260136024820152721d1c985b9cd9995c919c9bdb4819985a5b1959606a1b6044820152606401610543565b505050505050565b604080516001600160a01b038481166024830152604480830185905283518084039091018152606490920183526020820180516001600160e01b031663a9059cbb60e01b17905291516000928392908716916117169190611c2a565b6000604051808303816000865af19150503d8060008114611753576040519150601f19603f3d011682016040523d82523d6000602084013e611758565b606091505b50915091508180156117825750805115806117825750808060200190518101906117829190611c59565b6117c05760405162461bcd60e51b815260206004820152600f60248201526e1514905394d1915497d19052531151608a1b6044820152606401610543565b5050505050565b634e487b7160e01b600052604160045260246000fd5b600082601f8301126117ee57600080fd5b8135602067ffffffffffffffff8083111561180b5761180b6117c7565b8260051b604051601f19603f83011681018181108482111715611830576118306117c7565b60405293845285810183019383810192508785111561184e57600080fd5b83870191505b8482101561186d57813583529183019190830190611854565b979650505050505050565b60008060006060848603121561188d57600080fd5b833567ffffffffffffffff808211156118a557600080fd5b6118b1878388016117dd565b945060208601359150808211156118c757600080fd5b506118d4868287016117dd565b925050604084013590509250925092565b6000602082840312156118f757600080fd5b5035919050565b80356001600160a01b038116811461191557600080fd5b919050565b60006020828403121561192c57600080fd5b611245826118fe565b6000806040838503121561194857600080fd5b50508035926020909101359150565b6000806040838503121561196a57600080fd5b611973836118fe565b946020939093013593505050565b602080825282518282018190526000919060409081850190868401855b828110156119d85781518051855286810151878601528581015186860152606090810151908501526080909301929085019060010161199e565b5091979650505050505050565b6000604082018483526020604081850152818551808452606086019150828701935060005b81811015611a2657845183529383019391830191600101611a0a565b5090979650505050505050565b600080600060608486031215611a4857600080fd5b505081359360208301359350604090920135919050565b803560ff8116811461191557600080fd5b60008060408385031215611a8357600080fd5b82359150611a9360208401611a5f565b90509250929050565b600080600060608486031215611ab157600080fd5b83359250611ac160208501611a5f565b9150604084013590509250925092565b6020808252600d908201526c6f76657220646561646c696e6560981b604082015260600190565b6020808252600990820152683337b93134b23232b760b91b604082015260600190565b634e487b7160e01b600052603260045260246000fd5b634e487b7160e01b600052601160045260246000fd5b80820180821115611b5a57611b5a611b31565b92915050565b600060018201611b7257611b72611b31565b5060010190565b600082611b9657634e487b7160e01b600052601260045260246000fd5b500490565b600081611baa57611baa611b31565b506000190190565b81810381811115611b5a57611b5a611b31565b634e487b7160e01b600052603160045260246000fd5b8082028115828204841417611b5a57611b5a611b31565b60ff8281168282160390811115611b5a57611b5a611b31565b600060ff821660ff8103611c2157611c21611b31565b60010192915050565b6000825160005b81811015611c4b5760208186018101518583015201611c31565b506000920191825250919050565b600060208284031215611c6b57600080fd5b8151801515811461124557600080fdfea264697066735822122084b0982e05bf155eea1bd86473973f03c2377313ca04e71ce2f3e23afbaf0ec064736f6c63430008110033",
  "linkReferences": {},
  "deployedLinkReferences": {}
}