{
  "_format": "hh-sol-artifact-1",
  "contractName": "StakeERC20",
  "sourceName": "contracts/stakeERC20.sol",
  "abi": [
    {
      "inputs": [
        {
          "internalType": "uint8",
          "name": "maxWeeks",
          "type": "uint8"
        },
        {
          "internalType": "uint256",
          "name": "maxScale",
          "type": "uint256"
        },
        {
          "internalType": "uint8",
          "name": "lockWeeks",
          "type": "uint8"
        },
        {
          "internalType": "uint256",
          "name": "beginTime",
          "type": "uint256"
        },
        {
          "internalType": "uint256",
          "name": "endTime",
          "type": "uint256"
        },
        {
          "internalType": "address",
          "name": "_rewardToken",
          "type": "address"
        },
        {
          "internalType": "address",
          "name": "_lpToken",
          "type": "address"
        }
      ],
      "stateMutability": "nonpayable",
      "type": "constructor"
    },
    {
      "anonymous": false,
      "inputs": [
        {
          "indexed": true,
          "internalType": "address",
          "name": "user",
          "type": "address"
        },
        {
          "indexed": false,
          "internalType": "uint256",
          "name": "amount",
          "type": "uint256"
        }
      ],
      "name": "ClaimReward",
      "type": "event"
    },
    {
      "anonymous": false,
      "inputs": [
        {
          "indexed": true,
          "internalType": "address",
          "name": "user",
          "type": "address"
        },
        {
          "indexed": false,
          "internalType": "uint256",
          "name": "no",
          "type": "uint256"
        },
        {
          "indexed": false,
          "internalType": "uint256",
          "name": "amount",
          "type": "uint256"
        }
      ],
      "name": "SetReward",
      "type": "event"
    },
    {
      "anonymous": false,
      "inputs": [
        {
          "indexed": true,
          "internalType": "address",
          "name": "user",
          "type": "address"
        },
        {
          "indexed": false,
          "internalType": "uint256",
          "name": "id",
          "type": "uint256"
        },
        {
          "indexed": false,
          "internalType": "uint256",
          "name": "amount",
          "type": "uint256"
        },
        {
          "indexed": false,
          "internalType": "uint8",
          "name": "k",
          "type": "uint8"
        }
      ],
      "name": "Stake",
      "type": "event"
    },
    {
      "anonymous": false,
      "inputs": [
        {
          "indexed": true,
          "internalType": "address",
          "name": "user",
          "type": "address"
        },
        {
          "indexed": false,
          "internalType": "uint256",
          "name": "amount",
          "type": "uint256"
        }
      ],
      "name": "Withdraw",
      "type": "event"
    },
    {
      "inputs": [],
      "name": "BEGIN_TIME",
      "outputs": [
        {
          "internalType": "uint256",
          "name": "",
          "type": "uint256"
        }
      ],
      "stateMutability": "view",
      "type": "function"
    },
    {
      "inputs": [],
      "name": "END_TIME",
      "outputs": [
        {
          "internalType": "uint256",
          "name": "",
          "type": "uint256"
        }
      ],
      "stateMutability": "view",
      "type": "function"
    },
    {
      "inputs": [],
      "name": "LOCK_WEEKNUM",
      "outputs": [
        {
          "internalType": "uint8",
          "name": "",
          "type": "uint8"
        }
      ],
      "stateMutability": "view",
      "type": "function"
    },
    {
      "inputs": [],
      "name": "MAX_SCALE",
      "outputs": [
        {
          "internalType": "uint256",
          "name": "",
          "type": "uint256"
        }
      ],
      "stateMutability": "view",
      "type": "function"
    },
    {
      "inputs": [],
      "name": "MAX_WEEKS",
      "outputs": [
        {
          "internalType": "uint8",
          "name": "",
          "type": "uint8"
        }
      ],
      "stateMutability": "view",
      "type": "function"
    },
    {
      "inputs": [],
      "name": "WEEK_SECONDS",
      "outputs": [
        {
          "internalType": "uint24",
          "name": "",
          "type": "uint24"
        }
      ],
      "stateMutability": "view",
      "type": "function"
    },
    {
      "inputs": [],
      "name": "acceptSetter",
      "outputs": [],
      "stateMutability": "nonpayable",
      "type": "function"
    },
    {
      "inputs": [
        {
          "internalType": "address",
          "name": "user",
          "type": "address"
        }
      ],
      "name": "canClaimAmount",
      "outputs": [
        {
          "internalType": "uint256",
          "name": "",
          "type": "uint256"
        }
      ],
      "stateMutability": "view",
      "type": "function"
    },
    {
      "inputs": [
        {
          "internalType": "uint256",
          "name": "deadline",
          "type": "uint256"
        }
      ],
      "name": "claimReward",
      "outputs": [],
      "stateMutability": "nonpayable",
      "type": "function"
    },
    {
      "inputs": [
        {
          "internalType": "uint256",
          "name": "amount",
          "type": "uint256"
        },
        {
          "internalType": "uint8",
          "name": "k",
          "type": "uint8"
        }
      ],
      "name": "getScore",
      "outputs": [
        {
          "internalType": "uint256",
          "name": "score",
          "type": "uint256"
        }
      ],
      "stateMutability": "view",
      "type": "function"
    },
    {
      "inputs": [],
      "name": "getStaking",
      "outputs": [
        {
          "components": [
            {
              "internalType": "uint256",
              "name": "amount",
              "type": "uint256"
            },
            {
              "internalType": "uint256",
              "name": "score",
              "type": "uint256"
            },
            {
              "internalType": "uint256",
              "name": "beginNo",
              "type": "uint256"
            },
            {
              "internalType": "uint256",
              "name": "endNo",
              "type": "uint256"
            }
          ],
          "internalType": "struct StakeERC20.StakingERC20[]",
          "name": "",
          "type": "tuple[]"
        }
      ],
      "stateMutability": "view",
      "type": "function"
    },
    {
      "inputs": [],
      "name": "latestNo",
      "outputs": [
        {
          "internalType": "uint256",
          "name": "",
          "type": "uint256"
        }
      ],
      "stateMutability": "view",
      "type": "function"
    },
    {
      "inputs": [
        {
          "internalType": "address",
          "name": "user",
          "type": "address"
        }
      ],
      "name": "lockedRewardAmount",
      "outputs": [
        {
          "internalType": "uint256",
          "name": "",
          "type": "uint256"
        },
        {
          "internalType": "uint256[]",
          "name": "",
          "type": "uint256[]"
        }
      ],
      "stateMutability": "view",
      "type": "function"
    },
    {
      "inputs": [],
      "name": "lpToken",
      "outputs": [
        {
          "internalType": "address",
          "name": "",
          "type": "address"
        }
      ],
      "stateMutability": "view",
      "type": "function"
    },
    {
      "inputs": [],
      "name": "nonce",
      "outputs": [
        {
          "internalType": "uint256",
          "name": "",
          "type": "uint256"
        }
      ],
      "stateMutability": "view",
      "type": "function"
    },
    {
      "inputs": [],
      "name": "owner",
      "outputs": [
        {
          "internalType": "address",
          "name": "",
          "type": "address"
        }
      ],
      "stateMutability": "view",
      "type": "function"
    },
    {
      "inputs": [],
      "name": "rewardToken",
      "outputs": [
        {
          "internalType": "address",
          "name": "",
          "type": "address"
        }
      ],
      "stateMutability": "view",
      "type": "function"
    },
    {
      "inputs": [
        {
          "internalType": "uint256",
          "name": "",
          "type": "uint256"
        }
      ],
      "name": "rewardsOf",
      "outputs": [
        {
          "internalType": "uint256",
          "name": "",
          "type": "uint256"
        }
      ],
      "stateMutability": "view",
      "type": "function"
    },
    {
      "inputs": [
        {
          "internalType": "uint256",
          "name": "no",
          "type": "uint256"
        },
        {
          "internalType": "uint256",
          "name": "amount",
          "type": "uint256"
        },
        {
          "internalType": "uint256",
          "name": "deadline",
          "type": "uint256"
        }
      ],
      "name": "setReward",
      "outputs": [],
      "stateMutability": "nonpayable",
      "type": "function"
    },
    {
      "inputs": [
        {
          "internalType": "uint256[]",
          "name": "nos",
          "type": "uint256[]"
        },
        {
          "internalType": "uint256[]",
          "name": "amounts",
          "type": "uint256[]"
        },
        {
          "internalType": "uint256",
          "name": "deadline",
          "type": "uint256"
        }
      ],
      "name": "setRewards",
      "outputs": [],
      "stateMutability": "nonpayable",
      "type": "function"
    },
    {
      "inputs": [
        {
          "internalType": "uint256",
          "name": "amount",
          "type": "uint256"
        },
        {
          "internalType": "uint8",
          "name": "k",
          "type": "uint8"
        },
        {
          "internalType": "uint256",
          "name": "deadline",
          "type": "uint256"
        }
      ],
      "name": "stake",
      "outputs": [],
      "stateMutability": "nonpayable",
      "type": "function"
    },
    {
      "inputs": [
        {
          "internalType": "uint256",
          "name": "",
          "type": "uint256"
        }
      ],
      "name": "stakingERC20s",
      "outputs": [
        {
          "internalType": "uint256",
          "name": "amount",
          "type": "uint256"
        },
        {
          "internalType": "uint256",
          "name": "score",
          "type": "uint256"
        },
        {
          "internalType": "uint256",
          "name": "beginNo",
          "type": "uint256"
        },
        {
          "internalType": "uint256",
          "name": "endNo",
          "type": "uint256"
        }
      ],
      "stateMutability": "view",
      "type": "function"
    },
    {
      "inputs": [
        {
          "internalType": "uint256",
          "name": "",
          "type": "uint256"
        }
      ],
      "name": "totalScores",
      "outputs": [
        {
          "internalType": "uint256",
          "name": "",
          "type": "uint256"
        }
      ],
      "stateMutability": "view",
      "type": "function"
    },
    {
      "inputs": [
        {
          "internalType": "address",
          "name": "_owner",
          "type": "address"
        }
      ],
      "name": "transferOwner",
      "outputs": [],
      "stateMutability": "nonpayable",
      "type": "function"
    },
    {
      "inputs": [
        {
          "internalType": "address",
          "name": "",
          "type": "address"
        },
        {
          "internalType": "uint256",
          "name": "",
          "type": "uint256"
        }
      ],
      "name": "userCanClaimWeeks",
      "outputs": [
        {
          "internalType": "uint256",
          "name": "",
          "type": "uint256"
        }
      ],
      "stateMutability": "view",
      "type": "function"
    },
    {
      "inputs": [
        {
          "internalType": "address",
          "name": "",
          "type": "address"
        },
        {
          "internalType": "uint256",
          "name": "",
          "type": "uint256"
        }
      ],
      "name": "userERC20s",
      "outputs": [
        {
          "internalType": "uint256",
          "name": "",
          "type": "uint256"
        }
      ],
      "stateMutability": "view",
      "type": "function"
    },
    {
      "inputs": [
        {
          "internalType": "address",
          "name": "",
          "type": "address"
        },
        {
          "internalType": "uint256",
          "name": "",
          "type": "uint256"
        }
      ],
      "name": "userScores",
      "outputs": [
        {
          "internalType": "uint256",
          "name": "",
          "type": "uint256"
        }
      ],
      "stateMutability": "view",
      "type": "function"
    },
    {
      "inputs": [
        {
          "internalType": "uint256",
          "name": "deadline",
          "type": "uint256"
        }
      ],
      "name": "withdraw",
      "outputs": [
        {
          "internalType": "uint256",
          "name": "total",
          "type": "uint256"
        }
      ],
      "stateMutability": "nonpayable",
      "type": "function"
    }
  ],
  "bytecode": "0x6101606040523480156200001257600080fd5b5060405162001d0d38038062001d0d8339810160408190526200003591620000ac565b6001600160a01b0391821660805260ff96871660a05260c0959095529490921660e0526101005261012052600080546001600160a01b03191633179055166101405262000126565b805160ff811681146200008f57600080fd5b919050565b80516001600160a01b03811681146200008f57600080fd5b600080600080600080600060e0888a031215620000c857600080fd5b620000d3886200007d565b965060208801519550620000ea604089016200007d565b945060608801519350608088015192506200010860a0890162000094565b91506200011860c0890162000094565b905092959891949750929550565b60805160a05160c05160e051610100516101205161014051611b2a620001e36000396000818161031d01528181610a00015261111c0152600081816102b0015261106d01526000818161041b015261109801526000818161023b01528181610525015281816106e901528181610c6601526113370152600081816104ad0152610f7f01526000818161046001528181610f1b01528181610f46015261100d0152600081816104d401528181610d6f0152610e770152611b2a6000f3fe608060405234801561001057600080fd5b50600436106101c45760003560e01c8063a218de15116100f9578063e11400bb11610097578063f6def7cf11610071578063f6def7cf146104a8578063f7c618c1146104cf578063f99b7d75146104f6578063fa60c77c1461050957600080fd5b8063e11400bb1461045b578063e1c05d9314610482578063ee3453ed1461049557600080fd5b8063ba086501116100d3578063ba086501146103f0578063bb57852d14610403578063c75363b614610416578063cd671a581461043d57600080fd5b8063a218de151461037f578063ae169a50146103d4578063affed0e0146103e757600080fd5b806337ba682d116101665780635f8e422f116101405780635f8e422f146103105780635fcbd285146103185780637b1391a6146103575780638da5cb5b1461036c57600080fd5b806337ba682d146102ab5780634fb2e45d146102d25780635b680a45146102e557600080fd5b80630d437d40116101a25780630d437d4014610236578063157775df1461026f57806329ed1cfd1461028f5780632e1a7d4d1461029857600080fd5b806302e9e495146101c957806307c6e2fa146101f35780630bce128414610208575b600080fd5b6101dc6101d736600461167e565b61051c565b6040516101ea929190611699565b60405180910390f35b610206610201366004611798565b610727565b005b610228610216366004611805565b60056020526000908152604090205481565b6040519081526020016101ea565b61025d7f000000000000000000000000000000000000000000000000000000000000000081565b60405160ff90911681526020016101ea565b61022861027d366004611805565b60046020526000908152604090205481565b61022860065481565b6102286102a6366004611805565b610870565b6102287f000000000000000000000000000000000000000000000000000000000000000081565b6102066102e036600461167e565b610a63565b6102286102f336600461181e565b600260209081526000928352604080842090915290825290205481565b610206610aaf565b61033f7f000000000000000000000000000000000000000000000000000000000000000081565b6040516001600160a01b0390911681526020016101ea565b61035f610b00565b6040516101ea9190611848565b60005461033f906001600160a01b031681565b6103b461038d366004611805565b60086020526000908152604090208054600182015460028301546003909301549192909184565b6040805194855260208501939093529183015260608201526080016101ea565b6102066103e2366004611805565b610c3f565b61022860075481565b6102286103fe36600461181e565b610dd1565b61022861041136600461181e565b610e02565b6102287f000000000000000000000000000000000000000000000000000000000000000081565b61044762093a8081565b60405162ffffff90911681526020016101ea565b61025d7f000000000000000000000000000000000000000000000000000000000000000081565b6102066104903660046118ac565b610e27565b6102286104a33660046118e9565b610f12565b6102287f000000000000000000000000000000000000000000000000000000000000000081565b61033f7f000000000000000000000000000000000000000000000000000000000000000081565b610206610504366004611915565b610fdc565b61022861051736600461167e565b611330565b600060608160ff7f00000000000000000000000000000000000000000000000000000000000000001661055262093a8042611960565b61055c9190611982565b61056790600161199b565b6001600160a01b0385166000908152600360205260409020909150819060010154116105a6576040805160008152602081019091529094909350915050565b6001600160a01b0384166000908152600360205260408120805460019091015490918383116105d557836105d7565b825b905060006105e58284611982565b67ffffffffffffffff8111156105fd576105fd6116e7565b604051908082528060200260200182016040528015610626578160200160208202803683370190505b509050815b838110156106d15760008181526004602052604090205415610696576000818152600460209081526040808320546001600160a01b038d16845260028352818420858552835281842054600590935292205461068791906119c4565b6106919190611960565b610699565b60005b826106a48584611982565b815181106106b4576106b46119ae565b6020908102919091010152806106c9816119db565b91505061062b565b5060006106e162093a8042611960565b61070e8460ff7f00000000000000000000000000000000000000000000000000000000000000001661199b565b6107189190611982565b99919850909650505050505050565b80804211156107515760405162461bcd60e51b8152600401610748906119f4565b60405180910390fd5b6000546001600160a01b0316331461077b5760405162461bcd60e51b815260040161074890611a1b565b82518451146107bf5760405162461bcd60e51b815260206004820152601060248201526f3830b930b6b2ba32b9399032b93937b960811b6044820152606401610748565b6000805b8551811015610866578481815181106107de576107de6119ae565b6020026020010151600560008884815181106107fc576107fc6119ae565b602002602001015181526020019081526020016000208190555081868281518110610829576108296119ae565b6020026020010151111561085457858181518110610849576108496119ae565b602002602001015191505b8061085e816119db565b9150506107c3565b5060065550505050565b600081804211156108935760405162461bcd60e51b8152600401610748906119f4565b60006108a262093a8042611960565b336000908152600960205260409020549091505b33600090815260096020526040902054156109f557806108d581611a3e565b336000908152600960205260408120805492945090925090839081106108fd576108fd6119ae565b90600052602060002001549050826008600083815260200190815260200160002060030154116109e157600081815260086020526040902054610940908661199b565b33600090815260096020526040902080549196509061096190600190611982565b81548110610971576109716119ae565b60009182526020808320909101543383526009909152604090912080548490811061099e5761099e6119ae565b60009182526020808320909101929092553381526009909152604090208054806109ca576109ca611a55565b600190038181906000526020600020016000905590555b816000036109ef57506109f5565b506108b6565b8315610a2657610a267f0000000000000000000000000000000000000000000000000000000000000000338661143b565b60405184815233907f884edad9ce6fa2440d8a54cc123490eb96d2768479d49ff9c7366125a94243649060200160405180910390a2505050919050565b6000546001600160a01b03163314610a8d5760405162461bcd60e51b815260040161074890611a1b565b600180546001600160a01b0319166001600160a01b0392909216919091179055565b6001546001600160a01b03163314610ad95760405162461bcd60e51b815260040161074890611a1b565b60018054600080546001600160a01b03199081166001600160a01b03841617909155169055565b336000908152600960205260408120546060918167ffffffffffffffff811115610b2c57610b2c6116e7565b604051908082528060200260200182016040528015610b8857816020015b610b756040518060800160405280600081526020016000815260200160008152602001600081525090565b815260200190600190039081610b4a5790505b50905060005b82811015610c38573360009081526009602052604081208054600892919084908110610bbc57610bbc6119ae565b90600052602060002001548152602001908152602001600020604051806080016040529081600082015481526020016001820154815260200160028201548152602001600382015481525050828281518110610c1a57610c1a6119ae565b60200260200101819052508080610c30906119db565b915050610b8e565b5092915050565b8080421115610c605760405162461bcd60e51b8152600401610748906119f4565b600060ff7f000000000000000000000000000000000000000000000000000000000000000016610c9362093a8042611960565b610c9d9190611982565b3360009081526003602052604081205491925090805b33600090815260036020526040902060010154811015610d5657838111610d5657610cdf81600161199b565b60008281526004602052604090205490925015610d4457600081815260046020908152604080832054338452600283528184208585528352818420546005909352922054610d2d91906119c4565b610d379190611960565b610d41908461199b565b92505b80610d4e816119db565b915050610cb3565b5033600090815260036020526040812082910155610d957f0000000000000000000000000000000000000000000000000000000000000000338461143b565b60405182815233907fba8de60c3403ec381d1d484652ea1980e3c3e56359195c92525bff4ce47ad98e9060200160405180910390a25050505050565b60096020528160005260406000208181548110610ded57600080fd5b90600052602060002001600091509150505481565b60036020528160005260406000208160028110610e1e57600080fd5b01549150829050565b8080421115610e485760405162461bcd60e51b8152600401610748906119f4565b6000546001600160a01b03163314610e725760405162461bcd60e51b815260040161074890611a1b565b610e9e7f0000000000000000000000000000000000000000000000000000000000000000333086611548565b60008481526005602052604081208054859290610ebc90849061199b565b9091555050600654841115610ed15760068490555b604080518581526020810185905233917fc3991418cacd70a010fce559a44fcbb47534ca43bf7543964bdca2639f6e6e5a910160405180910390a250505050565b6000610f3f60017f0000000000000000000000000000000000000000000000000000000000000000611a6b565b60ff1660017f000000000000000000000000000000000000000000000000000000000000000060ff16600185610f759190611a6b565b60ff16610fa360017f0000000000000000000000000000000000000000000000000000000000000000611982565b610fad91906119c4565b610fb7919061199b565b610fc19190611982565b610fcb90856119c4565b610fd59190611960565b9392505050565b8080421115610ffd5760405162461bcd60e51b8152600401610748906119f4565b60008360ff1611801561103657507f000000000000000000000000000000000000000000000000000000000000000060ff168360ff1611155b61106b5760405162461bcd60e51b8152602060048201526006602482015265359018bf1a9960d11b6044820152606401610748565b7f000000000000000000000000000000000000000000000000000000000000000042111580156110bb57507f00000000000000000000000000000000000000000000000000000000000000004210155b6110fb5760405162461bcd60e51b81526020600482015260116024820152701b9bdd081a5b881d1a19481c195c9a5bd9607a1b6044820152606401610748565b600061110a62093a8042611960565b61111590600161199b565b90506111437f0000000000000000000000000000000000000000000000000000000000000000333088611548565b600061114f8686610f12565b905060005b8560ff168160ff1610156111e957816004600061117460ff85168761199b565b81526020019081526020016000206000828254611191919061199b565b909155505033600090815260026020526040812083916111b460ff85168761199b565b815260200190815260200160002060008282546111d1919061199b565b909155508190506111e181611a84565b915050611154565b5060006111f960ff87168461199b565b60408051608081018252898152602080820186815282840188815260608401868152600754600090815260088552868120955186559251600180870191909155915160028601555160039485015533825292909152919091209081015490549192509003611274573360009081526003602052604090208390555b33600090815260036020526040902081906001015410156112a5573360009081526003602052604090208190600101555b3360008181526009602090815260408083206007805482546001810184559286529484902090910193909355915482519081529081018a905260ff89168183015290517f6fa2f6021ee337436cdf2b2570285886da18bc06402ce284d296504a0fe8f8759181900360600190a260078054906000611322836119db565b919050555050505050505050565b60008060ff7f00000000000000000000000000000000000000000000000000000000000000001661136462093a8042611960565b61136e9190611982565b6001600160a01b038416600090815260036020526040812054919250905b6001600160a01b038516600090815260036020526040902060010154811015611433578281116114335760008181526004602052604090205415611421576000818152600460209081526040808320546001600160a01b038916845260028352818420858552835281842054600590935292205461140a91906119c4565b6114149190611960565b61141e908361199b565b91505b8061142b816119db565b91505061138c565b509392505050565b604080516001600160a01b038481166024830152604480830185905283518084039091018152606490920183526020820180516001600160e01b031663a9059cbb60e01b17905291516000928392908716916114979190611aa3565b6000604051808303816000865af19150503d80600081146114d4576040519150601f19603f3d011682016040523d82523d6000602084013e6114d9565b606091505b50915091508180156115035750805115806115035750808060200190518101906115039190611ad2565b6115415760405162461bcd60e51b815260206004820152600f60248201526e1514905394d1915497d19052531151608a1b6044820152606401610748565b5050505050565b604080516001600160a01b0385811660248301528481166044830152606480830185905283518084039091018152608490920183526020820180516001600160e01b03166323b872dd60e01b17905291516000928392908816916115ac9190611aa3565b6000604051808303816000865af19150503d80600081146115e9576040519150601f19603f3d011682016040523d82523d6000602084013e6115ee565b606091505b50915091508180156116185750805115806116185750808060200190518101906116189190611ad2565b61165a5760405162461bcd60e51b81526020600482015260136024820152721d1c985b9cd9995c919c9bdb4819985a5b1959606a1b6044820152606401610748565b505050505050565b80356001600160a01b038116811461167957600080fd5b919050565b60006020828403121561169057600080fd5b610fd582611662565b6000604082018483526020604081850152818551808452606086019150828701935060005b818110156116da578451835293830193918301916001016116be565b5090979650505050505050565b634e487b7160e01b600052604160045260246000fd5b600082601f83011261170e57600080fd5b8135602067ffffffffffffffff8083111561172b5761172b6116e7565b8260051b604051601f19603f83011681018181108482111715611750576117506116e7565b60405293845285810183019383810192508785111561176e57600080fd5b83870191505b8482101561178d57813583529183019190830190611774565b979650505050505050565b6000806000606084860312156117ad57600080fd5b833567ffffffffffffffff808211156117c557600080fd5b6117d1878388016116fd565b945060208601359150808211156117e757600080fd5b506117f4868287016116fd565b925050604084013590509250925092565b60006020828403121561181757600080fd5b5035919050565b6000806040838503121561183157600080fd5b61183a83611662565b946020939093013593505050565b602080825282518282018190526000919060409081850190868401855b8281101561189f57815180518552868101518786015285810151868601526060908101519085015260809093019290850190600101611865565b5091979650505050505050565b6000806000606084860312156118c157600080fd5b505081359360208301359350604090920135919050565b803560ff8116811461167957600080fd5b600080604083850312156118fc57600080fd5b8235915061190c602084016118d8565b90509250929050565b60008060006060848603121561192a57600080fd5b8335925061193a602085016118d8565b9150604084013590509250925092565b634e487b7160e01b600052601160045260246000fd5b60008261197d57634e487b7160e01b600052601260045260246000fd5b500490565b818103818111156119955761199561194a565b92915050565b808201808211156119955761199561194a565b634e487b7160e01b600052603260045260246000fd5b80820281158282048414176119955761199561194a565b6000600182016119ed576119ed61194a565b5060010190565b6020808252600d908201526c6f76657220646561646c696e6560981b604082015260600190565b6020808252600990820152683337b93134b23232b760b91b604082015260600190565b600081611a4d57611a4d61194a565b506000190190565b634e487b7160e01b600052603160045260246000fd5b60ff82811682821603908111156119955761199561194a565b600060ff821660ff8103611a9a57611a9a61194a565b60010192915050565b6000825160005b81811015611ac45760208186018101518583015201611aaa565b506000920191825250919050565b600060208284031215611ae457600080fd5b81518015158114610fd557600080fdfea2646970667358221220df66fa280544debbb5fb0691e5ae73738e8485cc9f8a1ba26812de279fef0c4b64736f6c63430008110033",
  "linkReferences": {},
  "deployedLinkReferences": {}
}