{
  "_format": "hh-sol-artifact-1",
  "contractName": "StakeERC20",
  "sourceName": "contracts/stakeERC20.sol",
  "abi": [
    {
      "inputs": [
        {
          "internalType": "uint24",
          "name": "weekSeconds",
          "type": "uint24"
        },
        {
          "internalType": "uint8",
          "name": "maxWeeks",
          "type": "uint8"
        },
        {
          "internalType": "uint256",
          "name": "maxScale",
          "type": "uint256"
        },
        {
          "internalType": "uint8",
          "name": "lockWeeks",
          "type": "uint8"
        },
        {
          "internalType": "uint256",
          "name": "beginTime",
          "type": "uint256"
        },
        {
          "internalType": "uint256",
          "name": "endTime",
          "type": "uint256"
        },
        {
          "internalType": "address",
          "name": "_rewardToken",
          "type": "address"
        },
        {
          "internalType": "address",
          "name": "_lpToken",
          "type": "address"
        }
      ],
      "stateMutability": "nonpayable",
      "type": "constructor"
    },
    {
      "anonymous": false,
      "inputs": [
        {
          "indexed": true,
          "internalType": "address",
          "name": "user",
          "type": "address"
        },
        {
          "indexed": false,
          "internalType": "uint256",
          "name": "amount",
          "type": "uint256"
        }
      ],
      "name": "ClaimReward",
      "type": "event"
    },
    {
      "anonymous": false,
      "inputs": [
        {
          "indexed": true,
          "internalType": "address",
          "name": "user",
          "type": "address"
        },
        {
          "indexed": false,
          "internalType": "uint256",
          "name": "no",
          "type": "uint256"
        },
        {
          "indexed": false,
          "internalType": "uint256",
          "name": "amount",
          "type": "uint256"
        }
      ],
      "name": "SetReward",
      "type": "event"
    },
    {
      "anonymous": false,
      "inputs": [
        {
          "indexed": true,
          "internalType": "address",
          "name": "user",
          "type": "address"
        },
        {
          "indexed": false,
          "internalType": "uint256",
          "name": "id",
          "type": "uint256"
        },
        {
          "indexed": false,
          "internalType": "uint256",
          "name": "amount",
          "type": "uint256"
        },
        {
          "indexed": false,
          "internalType": "uint8",
          "name": "k",
          "type": "uint8"
        }
      ],
      "name": "Stake",
      "type": "event"
    },
    {
      "anonymous": false,
      "inputs": [
        {
          "indexed": true,
          "internalType": "address",
          "name": "user",
          "type": "address"
        },
        {
          "indexed": false,
          "internalType": "uint256",
          "name": "amount",
          "type": "uint256"
        }
      ],
      "name": "Withdraw",
      "type": "event"
    },
    {
      "inputs": [],
      "name": "BEGIN_TIME",
      "outputs": [
        {
          "internalType": "uint256",
          "name": "",
          "type": "uint256"
        }
      ],
      "stateMutability": "view",
      "type": "function"
    },
    {
      "inputs": [],
      "name": "END_TIME",
      "outputs": [
        {
          "internalType": "uint256",
          "name": "",
          "type": "uint256"
        }
      ],
      "stateMutability": "view",
      "type": "function"
    },
    {
      "inputs": [],
      "name": "LOCK_WEEKNUM",
      "outputs": [
        {
          "internalType": "uint8",
          "name": "",
          "type": "uint8"
        }
      ],
      "stateMutability": "view",
      "type": "function"
    },
    {
      "inputs": [],
      "name": "MAX_SCALE",
      "outputs": [
        {
          "internalType": "uint256",
          "name": "",
          "type": "uint256"
        }
      ],
      "stateMutability": "view",
      "type": "function"
    },
    {
      "inputs": [],
      "name": "MAX_WEEKS",
      "outputs": [
        {
          "internalType": "uint8",
          "name": "",
          "type": "uint8"
        }
      ],
      "stateMutability": "view",
      "type": "function"
    },
    {
      "inputs": [],
      "name": "WEEK_SECONDS",
      "outputs": [
        {
          "internalType": "uint24",
          "name": "",
          "type": "uint24"
        }
      ],
      "stateMutability": "view",
      "type": "function"
    },
    {
      "inputs": [],
      "name": "acceptSetter",
      "outputs": [],
      "stateMutability": "nonpayable",
      "type": "function"
    },
    {
      "inputs": [
        {
          "internalType": "address",
          "name": "user",
          "type": "address"
        }
      ],
      "name": "canClaimAmount",
      "outputs": [
        {
          "internalType": "uint256",
          "name": "",
          "type": "uint256"
        }
      ],
      "stateMutability": "view",
      "type": "function"
    },
    {
      "inputs": [
        {
          "internalType": "uint256",
          "name": "deadline",
          "type": "uint256"
        }
      ],
      "name": "claimReward",
      "outputs": [],
      "stateMutability": "nonpayable",
      "type": "function"
    },
    {
      "inputs": [
        {
          "internalType": "uint256",
          "name": "amount",
          "type": "uint256"
        },
        {
          "internalType": "uint8",
          "name": "k",
          "type": "uint8"
        }
      ],
      "name": "getScore",
      "outputs": [
        {
          "internalType": "uint256",
          "name": "score",
          "type": "uint256"
        }
      ],
      "stateMutability": "view",
      "type": "function"
    },
    {
      "inputs": [],
      "name": "getStaking",
      "outputs": [
        {
          "components": [
            {
              "internalType": "uint256",
              "name": "amount",
              "type": "uint256"
            },
            {
              "internalType": "uint256",
              "name": "score",
              "type": "uint256"
            },
            {
              "internalType": "uint256",
              "name": "beginNo",
              "type": "uint256"
            },
            {
              "internalType": "uint256",
              "name": "endNo",
              "type": "uint256"
            }
          ],
          "internalType": "struct StakeERC20.StakingERC20[]",
          "name": "",
          "type": "tuple[]"
        }
      ],
      "stateMutability": "view",
      "type": "function"
    },
    {
      "inputs": [],
      "name": "latestNo",
      "outputs": [
        {
          "internalType": "uint256",
          "name": "",
          "type": "uint256"
        }
      ],
      "stateMutability": "view",
      "type": "function"
    },
    {
      "inputs": [
        {
          "internalType": "address",
          "name": "user",
          "type": "address"
        }
      ],
      "name": "lockedRewardAmount",
      "outputs": [
        {
          "internalType": "uint256",
          "name": "",
          "type": "uint256"
        },
        {
          "internalType": "uint256[]",
          "name": "",
          "type": "uint256[]"
        }
      ],
      "stateMutability": "view",
      "type": "function"
    },
    {
      "inputs": [],
      "name": "lpToken",
      "outputs": [
        {
          "internalType": "address",
          "name": "",
          "type": "address"
        }
      ],
      "stateMutability": "view",
      "type": "function"
    },
    {
      "inputs": [],
      "name": "nonce",
      "outputs": [
        {
          "internalType": "uint256",
          "name": "",
          "type": "uint256"
        }
      ],
      "stateMutability": "view",
      "type": "function"
    },
    {
      "inputs": [],
      "name": "owner",
      "outputs": [
        {
          "internalType": "address",
          "name": "",
          "type": "address"
        }
      ],
      "stateMutability": "view",
      "type": "function"
    },
    {
      "inputs": [],
      "name": "rewardToken",
      "outputs": [
        {
          "internalType": "address",
          "name": "",
          "type": "address"
        }
      ],
      "stateMutability": "view",
      "type": "function"
    },
    {
      "inputs": [
        {
          "internalType": "uint256",
          "name": "",
          "type": "uint256"
        }
      ],
      "name": "rewardsOf",
      "outputs": [
        {
          "internalType": "uint256",
          "name": "",
          "type": "uint256"
        }
      ],
      "stateMutability": "view",
      "type": "function"
    },
    {
      "inputs": [
        {
          "internalType": "uint256",
          "name": "no",
          "type": "uint256"
        },
        {
          "internalType": "uint256",
          "name": "amount",
          "type": "uint256"
        },
        {
          "internalType": "uint256",
          "name": "deadline",
          "type": "uint256"
        }
      ],
      "name": "setReward",
      "outputs": [],
      "stateMutability": "nonpayable",
      "type": "function"
    },
    {
      "inputs": [
        {
          "internalType": "uint256[]",
          "name": "nos",
          "type": "uint256[]"
        },
        {
          "internalType": "uint256[]",
          "name": "amounts",
          "type": "uint256[]"
        },
        {
          "internalType": "uint256",
          "name": "deadline",
          "type": "uint256"
        }
      ],
      "name": "setRewards",
      "outputs": [],
      "stateMutability": "nonpayable",
      "type": "function"
    },
    {
      "inputs": [
        {
          "internalType": "uint256",
          "name": "amount",
          "type": "uint256"
        },
        {
          "internalType": "uint8",
          "name": "k",
          "type": "uint8"
        },
        {
          "internalType": "uint256",
          "name": "deadline",
          "type": "uint256"
        }
      ],
      "name": "stake",
      "outputs": [],
      "stateMutability": "nonpayable",
      "type": "function"
    },
    {
      "inputs": [
        {
          "internalType": "uint256",
          "name": "",
          "type": "uint256"
        }
      ],
      "name": "stakingERC20s",
      "outputs": [
        {
          "internalType": "uint256",
          "name": "amount",
          "type": "uint256"
        },
        {
          "internalType": "uint256",
          "name": "score",
          "type": "uint256"
        },
        {
          "internalType": "uint256",
          "name": "beginNo",
          "type": "uint256"
        },
        {
          "internalType": "uint256",
          "name": "endNo",
          "type": "uint256"
        }
      ],
      "stateMutability": "view",
      "type": "function"
    },
    {
      "inputs": [
        {
          "internalType": "uint256",
          "name": "",
          "type": "uint256"
        }
      ],
      "name": "totalScores",
      "outputs": [
        {
          "internalType": "uint256",
          "name": "",
          "type": "uint256"
        }
      ],
      "stateMutability": "view",
      "type": "function"
    },
    {
      "inputs": [
        {
          "internalType": "address",
          "name": "_owner",
          "type": "address"
        }
      ],
      "name": "transferOwner",
      "outputs": [],
      "stateMutability": "nonpayable",
      "type": "function"
    },
    {
      "inputs": [
        {
          "internalType": "address",
          "name": "",
          "type": "address"
        },
        {
          "internalType": "uint256",
          "name": "",
          "type": "uint256"
        }
      ],
      "name": "userCanClaimWeeks",
      "outputs": [
        {
          "internalType": "uint256",
          "name": "",
          "type": "uint256"
        }
      ],
      "stateMutability": "view",
      "type": "function"
    },
    {
      "inputs": [
        {
          "internalType": "address",
          "name": "",
          "type": "address"
        },
        {
          "internalType": "uint256",
          "name": "",
          "type": "uint256"
        }
      ],
      "name": "userERC20s",
      "outputs": [
        {
          "internalType": "uint256",
          "name": "",
          "type": "uint256"
        }
      ],
      "stateMutability": "view",
      "type": "function"
    },
    {
      "inputs": [
        {
          "internalType": "address",
          "name": "",
          "type": "address"
        },
        {
          "internalType": "uint256",
          "name": "",
          "type": "uint256"
        }
      ],
      "name": "userScores",
      "outputs": [
        {
          "internalType": "uint256",
          "name": "",
          "type": "uint256"
        }
      ],
      "stateMutability": "view",
      "type": "function"
    },
    {
      "inputs": [
        {
          "internalType": "uint256",
          "name": "deadline",
          "type": "uint256"
        }
      ],
      "name": "withdraw",
      "outputs": [
        {
          "internalType": "uint256",
          "name": "total",
          "type": "uint256"
        }
      ],
      "stateMutability": "nonpayable",
      "type": "function"
    }
  ],
  "bytecode": "0x6101806040523480156200001257600080fd5b5060405162001e1038038062001e108339810160408190526200003591620000ba565b6001600160a01b0391821660805262ffffff90971660a05260ff95861660c05260e09490945293909116610100526101205261014091909152600080546001600160a01b03191633179055166101605262000150565b805160ff811681146200009d57600080fd5b919050565b80516001600160a01b03811681146200009d57600080fd5b600080600080600080600080610100898b031215620000d857600080fd5b885162ffffff81168114620000ec57600080fd5b9750620000fc60208a016200008b565b9650604089015195506200011360608a016200008b565b94506080890151935060a089015192506200013160c08a01620000a2565b91506200014160e08a01620000a2565b90509295985092959890939650565b60805160a05160c05160e05161010051610120516101405161016051611bd56200023b6000396000818161031d01528181610a8301526111a50152600081816102b001526110d401526000818161041b01526110ff01526000818161023b015281816105420152818161074a01528181610ce901526113c00152600081816104ca0152610fe601526000818161047d01528181610f8201528181610fad01526110740152600081816104420152818161056b0152818161071c015281816108ff01528181610d120152818161116d01526113e90152600081816104f10152610e140152611bd56000f3fe608060405234801561001057600080fd5b50600436106101c45760003560e01c8063a218de15116100f9578063e11400bb11610097578063f6def7cf11610071578063f6def7cf146104c5578063f7c618c1146104ec578063f99b7d7514610513578063fa60c77c1461052657600080fd5b8063e11400bb14610478578063e1c05d931461049f578063ee3453ed146104b257600080fd5b8063ba086501116100d3578063ba086501146103f0578063bb57852d14610403578063c75363b614610416578063cd671a581461043d57600080fd5b8063a218de151461037f578063ae169a50146103d4578063affed0e0146103e757600080fd5b806337ba682d116101665780635f8e422f116101405780635f8e422f146103105780635fcbd285146103185780637b1391a6146103575780638da5cb5b1461036c57600080fd5b806337ba682d146102ab5780634fb2e45d146102d25780635b680a45146102e557600080fd5b80630d437d40116101a25780630d437d4014610236578063157775df1461026f57806329ed1cfd1461028f5780632e1a7d4d1461029857600080fd5b806302e9e495146101c957806307c6e2fa146101f35780630bce128414610208575b600080fd5b6101dc6101d7366004611729565b610539565b6040516101ea929190611744565b60405180910390f35b610206610201366004611843565b610788565b005b6102286102163660046118b0565b60056020526000908152604090205481565b6040519081526020016101ea565b61025d7f000000000000000000000000000000000000000000000000000000000000000081565b60405160ff90911681526020016101ea565b61022861027d3660046118b0565b60046020526000908152604090205481565b61022860065481565b6102286102a63660046118b0565b6108d1565b6102287f000000000000000000000000000000000000000000000000000000000000000081565b6102066102e0366004611729565b610ae6565b6102286102f33660046118c9565b600260209081526000928352604080842090915290825290205481565b610206610b32565b61033f7f000000000000000000000000000000000000000000000000000000000000000081565b6040516001600160a01b0390911681526020016101ea565b61035f610b83565b6040516101ea91906118f3565b60005461033f906001600160a01b031681565b6103b461038d3660046118b0565b60086020526000908152604090208054600182015460028301546003909301549192909184565b6040805194855260208501939093529183015260608201526080016101ea565b6102066103e23660046118b0565b610cc2565b61022860075481565b6102286103fe3660046118c9565b610e76565b6102286104113660046118c9565b610ea7565b6102287f000000000000000000000000000000000000000000000000000000000000000081565b6104647f000000000000000000000000000000000000000000000000000000000000000081565b60405162ffffff90911681526020016101ea565b61025d7f000000000000000000000000000000000000000000000000000000000000000081565b6102066104ad366004611957565b610ecc565b6102286104c0366004611994565b610f79565b6102287f000000000000000000000000000000000000000000000000000000000000000081565b61033f7f000000000000000000000000000000000000000000000000000000000000000081565b6102066105213660046119c0565b611043565b610228610534366004611729565b6113b9565b600060608160ff7f00000000000000000000000000000000000000000000000000000000000000001661059162ffffff7f00000000000000000000000000000000000000000000000000000000000000001642611a0b565b61059b9190611a2d565b6105a6906001611a46565b6001600160a01b0385166000908152600360205260409020909150819060010154116105e5576040805160008152602081019091529094909350915050565b6001600160a01b0384166000908152600360205260408120805460019091015490918383116106145783610616565b825b905060006106248284611a2d565b67ffffffffffffffff81111561063c5761063c611792565b604051908082528060200260200182016040528015610665578160200160208202803683370190505b509050815b8381101561071057600081815260046020526040902054156106d5576000818152600460209081526040808320546001600160a01b038d1684526002835281842085855283528184205460059093529220546106c69190611a6f565b6106d09190611a0b565b6106d8565b60005b826106e38584611a2d565b815181106106f3576106f3611a59565b60209081029190910101528061070881611a86565b91505061066a565b50600061074262ffffff7f00000000000000000000000000000000000000000000000000000000000000001642611a0b565b61076f8460ff7f000000000000000000000000000000000000000000000000000000000000000016611a46565b6107799190611a2d565b99919850909650505050505050565b80804211156107b25760405162461bcd60e51b81526004016107a990611a9f565b60405180910390fd5b6000546001600160a01b031633146107dc5760405162461bcd60e51b81526004016107a990611ac6565b82518451146108205760405162461bcd60e51b815260206004820152601060248201526f3830b930b6b2ba32b9399032b93937b960811b60448201526064016107a9565b6000805b85518110156108c75784818151811061083f5761083f611a59565b60200260200101516005600088848151811061085d5761085d611a59565b60200260200101518152602001908152602001600020819055508186828151811061088a5761088a611a59565b602002602001015111156108b5578581815181106108aa576108aa611a59565b602002602001015191505b806108bf81611a86565b915050610824565b5060065550505050565b600081804211156108f45760405162461bcd60e51b81526004016107a990611a9f565b600061092562ffffff7f00000000000000000000000000000000000000000000000000000000000000001642611a0b565b336000908152600960205260409020549091505b3360009081526009602052604090205415610a78578061095881611ae9565b3360009081526009602052604081208054929450909250908390811061098057610980611a59565b9060005260206000200154905082600860008381526020019081526020016000206003015411610a64576000818152600860205260409020546109c39086611a46565b3360009081526009602052604090208054919650906109e490600190611a2d565b815481106109f4576109f4611a59565b600091825260208083209091015433835260099091526040909120805484908110610a2157610a21611a59565b6000918252602080832090910192909255338152600990915260409020805480610a4d57610a4d611b00565b600190038181906000526020600020016000905590555b81600003610a725750610a78565b50610939565b8315610aa957610aa97f000000000000000000000000000000000000000000000000000000000000000033866114e6565b60405184815233907f884edad9ce6fa2440d8a54cc123490eb96d2768479d49ff9c7366125a94243649060200160405180910390a2505050919050565b6000546001600160a01b03163314610b105760405162461bcd60e51b81526004016107a990611ac6565b600180546001600160a01b0319166001600160a01b0392909216919091179055565b6001546001600160a01b03163314610b5c5760405162461bcd60e51b81526004016107a990611ac6565b60018054600080546001600160a01b03199081166001600160a01b03841617909155169055565b336000908152600960205260408120546060918167ffffffffffffffff811115610baf57610baf611792565b604051908082528060200260200182016040528015610c0b57816020015b610bf86040518060800160405280600081526020016000815260200160008152602001600081525090565b815260200190600190039081610bcd5790505b50905060005b82811015610cbb573360009081526009602052604081208054600892919084908110610c3f57610c3f611a59565b90600052602060002001548152602001908152602001600020604051806080016040529081600082015481526020016001820154815260200160028201548152602001600382015481525050828281518110610c9d57610c9d611a59565b60200260200101819052508080610cb390611a86565b915050610c11565b5092915050565b8080421115610ce35760405162461bcd60e51b81526004016107a990611a9f565b600060ff7f000000000000000000000000000000000000000000000000000000000000000016610d3862ffffff7f00000000000000000000000000000000000000000000000000000000000000001642611a0b565b610d429190611a2d565b3360009081526003602052604081205491925090805b33600090815260036020526040902060010154811015610dfb57838111610dfb57610d84816001611a46565b60008281526004602052604090205490925015610de957600081815260046020908152604080832054338452600283528184208585528352818420546005909352922054610dd29190611a6f565b610ddc9190611a0b565b610de69084611a46565b92505b80610df381611a86565b915050610d58565b5033600090815260036020526040812082910155610e3a7f000000000000000000000000000000000000000000000000000000000000000033846114e6565b60405182815233907fba8de60c3403ec381d1d484652ea1980e3c3e56359195c92525bff4ce47ad98e9060200160405180910390a25050505050565b60096020528160005260406000208181548110610e9257600080fd5b90600052602060002001600091509150505481565b60036020528160005260406000208160028110610ec357600080fd5b01549150829050565b8080421115610eed5760405162461bcd60e51b81526004016107a990611a9f565b6000546001600160a01b03163314610f175760405162461bcd60e51b81526004016107a990611ac6565b6000848152600560205260409020839055600654841115610f385760068490555b604080518581526020810185905233917fc3991418cacd70a010fce559a44fcbb47534ca43bf7543964bdca2639f6e6e5a910160405180910390a250505050565b6000610fa660017f0000000000000000000000000000000000000000000000000000000000000000611b16565b60ff1660017f000000000000000000000000000000000000000000000000000000000000000060ff16600185610fdc9190611b16565b60ff1661100a60017f0000000000000000000000000000000000000000000000000000000000000000611a2d565b6110149190611a6f565b61101e9190611a46565b6110289190611a2d565b6110329085611a6f565b61103c9190611a0b565b9392505050565b80804211156110645760405162461bcd60e51b81526004016107a990611a9f565b60008360ff1611801561109d57507f000000000000000000000000000000000000000000000000000000000000000060ff168360ff1611155b6110d25760405162461bcd60e51b8152602060048201526006602482015265359018bf1a9960d11b60448201526064016107a9565b7f0000000000000000000000000000000000000000000000000000000000000000421115801561112257507f00000000000000000000000000000000000000000000000000000000000000004210155b6111625760405162461bcd60e51b81526020600482015260116024820152701b9bdd081a5b881d1a19481c195c9a5bd9607a1b60448201526064016107a9565b600061119362ffffff7f00000000000000000000000000000000000000000000000000000000000000001642611a0b565b61119e906001611a46565b90506111cc7f00000000000000000000000000000000000000000000000000000000000000003330886115f3565b60006111d88686610f79565b905060005b8560ff168160ff1610156112725781600460006111fd60ff851687611a46565b8152602001908152602001600020600082825461121a9190611a46565b9091555050336000908152600260205260408120839161123d60ff851687611a46565b8152602001908152602001600020600082825461125a9190611a46565b9091555081905061126a81611b2f565b9150506111dd565b50600061128260ff871684611a46565b604080516080810182528981526020808201868152828401888152606084018681526007546000908152600885528681209551865592516001808701919091559151600286015551600394850155338252929091529190912090810154905491925090036112fd573360009081526003602052604090208390555b336000908152600360205260409020819060010154101561132e573360009081526003602052604090208190600101555b3360008181526009602090815260408083206007805482546001810184559286529484902090910193909355915482519081529081018a905260ff89168183015290517f6fa2f6021ee337436cdf2b2570285886da18bc06402ce284d296504a0fe8f8759181900360600190a2600780549060006113ab83611a86565b919050555050505050505050565b60008060ff7f00000000000000000000000000000000000000000000000000000000000000001661140f62ffffff7f00000000000000000000000000000000000000000000000000000000000000001642611a0b565b6114199190611a2d565b6001600160a01b038416600090815260036020526040812054919250905b6001600160a01b0385166000908152600360205260409020600101548110156114de578281116114de57600081815260046020526040902054156114cc576000818152600460209081526040808320546001600160a01b03891684526002835281842085855283528184205460059093529220546114b59190611a6f565b6114bf9190611a0b565b6114c99083611a46565b91505b806114d681611a86565b915050611437565b509392505050565b604080516001600160a01b038481166024830152604480830185905283518084039091018152606490920183526020820180516001600160e01b031663a9059cbb60e01b17905291516000928392908716916115429190611b4e565b6000604051808303816000865af19150503d806000811461157f576040519150601f19603f3d011682016040523d82523d6000602084013e611584565b606091505b50915091508180156115ae5750805115806115ae5750808060200190518101906115ae9190611b7d565b6115ec5760405162461bcd60e51b815260206004820152600f60248201526e1514905394d1915497d19052531151608a1b60448201526064016107a9565b5050505050565b604080516001600160a01b0385811660248301528481166044830152606480830185905283518084039091018152608490920183526020820180516001600160e01b03166323b872dd60e01b17905291516000928392908816916116579190611b4e565b6000604051808303816000865af19150503d8060008114611694576040519150601f19603f3d011682016040523d82523d6000602084013e611699565b606091505b50915091508180156116c35750805115806116c35750808060200190518101906116c39190611b7d565b6117055760405162461bcd60e51b81526020600482015260136024820152721d1c985b9cd9995c919c9bdb4819985a5b1959606a1b60448201526064016107a9565b505050505050565b80356001600160a01b038116811461172457600080fd5b919050565b60006020828403121561173b57600080fd5b61103c8261170d565b6000604082018483526020604081850152818551808452606086019150828701935060005b8181101561178557845183529383019391830191600101611769565b5090979650505050505050565b634e487b7160e01b600052604160045260246000fd5b600082601f8301126117b957600080fd5b8135602067ffffffffffffffff808311156117d6576117d6611792565b8260051b604051601f19603f830116810181811084821117156117fb576117fb611792565b60405293845285810183019383810192508785111561181957600080fd5b83870191505b848210156118385781358352918301919083019061181f565b979650505050505050565b60008060006060848603121561185857600080fd5b833567ffffffffffffffff8082111561187057600080fd5b61187c878388016117a8565b9450602086013591508082111561189257600080fd5b5061189f868287016117a8565b925050604084013590509250925092565b6000602082840312156118c257600080fd5b5035919050565b600080604083850312156118dc57600080fd5b6118e58361170d565b946020939093013593505050565b602080825282518282018190526000919060409081850190868401855b8281101561194a57815180518552868101518786015285810151868601526060908101519085015260809093019290850190600101611910565b5091979650505050505050565b60008060006060848603121561196c57600080fd5b505081359360208301359350604090920135919050565b803560ff8116811461172457600080fd5b600080604083850312156119a757600080fd5b823591506119b760208401611983565b90509250929050565b6000806000606084860312156119d557600080fd5b833592506119e560208501611983565b9150604084013590509250925092565b634e487b7160e01b600052601160045260246000fd5b600082611a2857634e487b7160e01b600052601260045260246000fd5b500490565b81810381811115611a4057611a406119f5565b92915050565b80820180821115611a4057611a406119f5565b634e487b7160e01b600052603260045260246000fd5b8082028115828204841417611a4057611a406119f5565b600060018201611a9857611a986119f5565b5060010190565b6020808252600d908201526c6f76657220646561646c696e6560981b604082015260600190565b6020808252600990820152683337b93134b23232b760b91b604082015260600190565b600081611af857611af86119f5565b506000190190565b634e487b7160e01b600052603160045260246000fd5b60ff8281168282160390811115611a4057611a406119f5565b600060ff821660ff8103611b4557611b456119f5565b60010192915050565b6000825160005b81811015611b6f5760208186018101518583015201611b55565b506000920191825250919050565b600060208284031215611b8f57600080fd5b8151801515811461103c57600080fdfea2646970667358221220427fa43c6fd0761d357a83b777ebe3e3b00d914b1a9f2bf55a4eb5c015aefd6a64736f6c63430008110033",
  "linkReferences": {},
  "deployedLinkReferences": {}
}