{
  "_format": "hh-sol-artifact-1",
  "contractName": "StakeERC20",
  "sourceName": "contracts/stakeERC20.sol",
  "abi": [
    {
      "inputs": [
        {
          "internalType": "uint8",
          "name": "maxWeeks",
          "type": "uint8"
        },
        {
          "internalType": "uint256",
          "name": "maxScale",
          "type": "uint256"
        },
        {
          "internalType": "uint8",
          "name": "lockWeeks",
          "type": "uint8"
        },
        {
          "internalType": "uint256",
          "name": "beginTime",
          "type": "uint256"
        },
        {
          "internalType": "uint256",
          "name": "endTime",
          "type": "uint256"
        },
        {
          "internalType": "address",
          "name": "_rewardToken",
          "type": "address"
        },
        {
          "internalType": "address",
          "name": "_lpToken",
          "type": "address"
        }
      ],
      "stateMutability": "nonpayable",
      "type": "constructor"
    },
    {
      "anonymous": false,
      "inputs": [
        {
          "indexed": true,
          "internalType": "address",
          "name": "user",
          "type": "address"
        },
        {
          "indexed": false,
          "internalType": "uint256",
          "name": "amount",
          "type": "uint256"
        }
      ],
      "name": "ClaimReward",
      "type": "event"
    },
    {
      "anonymous": false,
      "inputs": [
        {
          "indexed": true,
          "internalType": "address",
          "name": "user",
          "type": "address"
        },
        {
          "indexed": false,
          "internalType": "uint256",
          "name": "no",
          "type": "uint256"
        },
        {
          "indexed": false,
          "internalType": "uint256",
          "name": "amount",
          "type": "uint256"
        }
      ],
      "name": "SetReward",
      "type": "event"
    },
    {
      "anonymous": false,
      "inputs": [
        {
          "indexed": true,
          "internalType": "address",
          "name": "user",
          "type": "address"
        },
        {
          "indexed": false,
          "internalType": "uint256",
          "name": "id",
          "type": "uint256"
        },
        {
          "indexed": false,
          "internalType": "uint256",
          "name": "amount",
          "type": "uint256"
        },
        {
          "indexed": false,
          "internalType": "uint8",
          "name": "k",
          "type": "uint8"
        }
      ],
      "name": "Stake",
      "type": "event"
    },
    {
      "anonymous": false,
      "inputs": [
        {
          "indexed": true,
          "internalType": "address",
          "name": "user",
          "type": "address"
        },
        {
          "indexed": false,
          "internalType": "uint256",
          "name": "amount",
          "type": "uint256"
        }
      ],
      "name": "Withdraw",
      "type": "event"
    },
    {
      "inputs": [],
      "name": "BEGIN_TIME",
      "outputs": [
        {
          "internalType": "uint256",
          "name": "",
          "type": "uint256"
        }
      ],
      "stateMutability": "view",
      "type": "function"
    },
    {
      "inputs": [],
      "name": "END_TIME",
      "outputs": [
        {
          "internalType": "uint256",
          "name": "",
          "type": "uint256"
        }
      ],
      "stateMutability": "view",
      "type": "function"
    },
    {
      "inputs": [],
      "name": "LOCK_WEEKNUM",
      "outputs": [
        {
          "internalType": "uint8",
          "name": "",
          "type": "uint8"
        }
      ],
      "stateMutability": "view",
      "type": "function"
    },
    {
      "inputs": [],
      "name": "MAX_SCALE",
      "outputs": [
        {
          "internalType": "uint256",
          "name": "",
          "type": "uint256"
        }
      ],
      "stateMutability": "view",
      "type": "function"
    },
    {
      "inputs": [],
      "name": "MAX_WEEKS",
      "outputs": [
        {
          "internalType": "uint8",
          "name": "",
          "type": "uint8"
        }
      ],
      "stateMutability": "view",
      "type": "function"
    },
    {
      "inputs": [],
      "name": "WEEK_SECONDS",
      "outputs": [
        {
          "internalType": "uint24",
          "name": "",
          "type": "uint24"
        }
      ],
      "stateMutability": "view",
      "type": "function"
    },
    {
      "inputs": [],
      "name": "acceptSetter",
      "outputs": [],
      "stateMutability": "nonpayable",
      "type": "function"
    },
    {
      "inputs": [
        {
          "internalType": "address",
          "name": "user",
          "type": "address"
        }
      ],
      "name": "canClaimAmount",
      "outputs": [
        {
          "internalType": "uint256",
          "name": "",
          "type": "uint256"
        }
      ],
      "stateMutability": "view",
      "type": "function"
    },
    {
      "inputs": [
        {
          "internalType": "uint256",
          "name": "deadline",
          "type": "uint256"
        }
      ],
      "name": "claimReward",
      "outputs": [],
      "stateMutability": "nonpayable",
      "type": "function"
    },
    {
      "inputs": [
        {
          "internalType": "uint256",
          "name": "amount",
          "type": "uint256"
        },
        {
          "internalType": "uint8",
          "name": "k",
          "type": "uint8"
        }
      ],
      "name": "getScore",
      "outputs": [
        {
          "internalType": "uint256",
          "name": "score",
          "type": "uint256"
        }
      ],
      "stateMutability": "view",
      "type": "function"
    },
    {
      "inputs": [],
      "name": "getStaking",
      "outputs": [
        {
          "components": [
            {
              "internalType": "uint256",
              "name": "amount",
              "type": "uint256"
            },
            {
              "internalType": "uint256",
              "name": "score",
              "type": "uint256"
            },
            {
              "internalType": "uint256",
              "name": "beginNo",
              "type": "uint256"
            },
            {
              "internalType": "uint256",
              "name": "endNo",
              "type": "uint256"
            }
          ],
          "internalType": "struct StakeERC20.StakingERC20[]",
          "name": "",
          "type": "tuple[]"
        }
      ],
      "stateMutability": "view",
      "type": "function"
    },
    {
      "inputs": [],
      "name": "latestNo",
      "outputs": [
        {
          "internalType": "uint256",
          "name": "",
          "type": "uint256"
        }
      ],
      "stateMutability": "view",
      "type": "function"
    },
    {
      "inputs": [
        {
          "internalType": "address",
          "name": "user",
          "type": "address"
        }
      ],
      "name": "lockedRewardAmount",
      "outputs": [
        {
          "internalType": "uint256",
          "name": "",
          "type": "uint256"
        },
        {
          "internalType": "uint256[]",
          "name": "",
          "type": "uint256[]"
        }
      ],
      "stateMutability": "view",
      "type": "function"
    },
    {
      "inputs": [],
      "name": "lpToken",
      "outputs": [
        {
          "internalType": "address",
          "name": "",
          "type": "address"
        }
      ],
      "stateMutability": "view",
      "type": "function"
    },
    {
      "inputs": [],
      "name": "nonce",
      "outputs": [
        {
          "internalType": "uint256",
          "name": "",
          "type": "uint256"
        }
      ],
      "stateMutability": "view",
      "type": "function"
    },
    {
      "inputs": [],
      "name": "owner",
      "outputs": [
        {
          "internalType": "address",
          "name": "",
          "type": "address"
        }
      ],
      "stateMutability": "view",
      "type": "function"
    },
    {
      "inputs": [],
      "name": "rewardToken",
      "outputs": [
        {
          "internalType": "address",
          "name": "",
          "type": "address"
        }
      ],
      "stateMutability": "view",
      "type": "function"
    },
    {
      "inputs": [
        {
          "internalType": "uint256",
          "name": "",
          "type": "uint256"
        }
      ],
      "name": "rewardsOf",
      "outputs": [
        {
          "internalType": "uint256",
          "name": "",
          "type": "uint256"
        }
      ],
      "stateMutability": "view",
      "type": "function"
    },
    {
      "inputs": [
        {
          "internalType": "uint256",
          "name": "no",
          "type": "uint256"
        },
        {
          "internalType": "uint256",
          "name": "amount",
          "type": "uint256"
        },
        {
          "internalType": "uint256",
          "name": "deadline",
          "type": "uint256"
        }
      ],
      "name": "setReward",
      "outputs": [],
      "stateMutability": "nonpayable",
      "type": "function"
    },
    {
      "inputs": [
        {
          "internalType": "uint256[]",
          "name": "nos",
          "type": "uint256[]"
        },
        {
          "internalType": "uint256[]",
          "name": "amounts",
          "type": "uint256[]"
        },
        {
          "internalType": "uint256",
          "name": "deadline",
          "type": "uint256"
        }
      ],
      "name": "setRewards",
      "outputs": [
        {
          "internalType": "uint256",
          "name": "total",
          "type": "uint256"
        }
      ],
      "stateMutability": "nonpayable",
      "type": "function"
    },
    {
      "inputs": [
        {
          "internalType": "uint256",
          "name": "amount",
          "type": "uint256"
        },
        {
          "internalType": "uint8",
          "name": "k",
          "type": "uint8"
        },
        {
          "internalType": "uint256",
          "name": "deadline",
          "type": "uint256"
        }
      ],
      "name": "stake",
      "outputs": [],
      "stateMutability": "nonpayable",
      "type": "function"
    },
    {
      "inputs": [
        {
          "internalType": "uint256",
          "name": "",
          "type": "uint256"
        }
      ],
      "name": "stakingERC20s",
      "outputs": [
        {
          "internalType": "uint256",
          "name": "amount",
          "type": "uint256"
        },
        {
          "internalType": "uint256",
          "name": "score",
          "type": "uint256"
        },
        {
          "internalType": "uint256",
          "name": "beginNo",
          "type": "uint256"
        },
        {
          "internalType": "uint256",
          "name": "endNo",
          "type": "uint256"
        }
      ],
      "stateMutability": "view",
      "type": "function"
    },
    {
      "inputs": [
        {
          "internalType": "uint256",
          "name": "",
          "type": "uint256"
        }
      ],
      "name": "totalScores",
      "outputs": [
        {
          "internalType": "uint256",
          "name": "",
          "type": "uint256"
        }
      ],
      "stateMutability": "view",
      "type": "function"
    },
    {
      "inputs": [
        {
          "internalType": "address",
          "name": "_owner",
          "type": "address"
        }
      ],
      "name": "transferOwner",
      "outputs": [],
      "stateMutability": "nonpayable",
      "type": "function"
    },
    {
      "inputs": [
        {
          "internalType": "address",
          "name": "",
          "type": "address"
        },
        {
          "internalType": "uint256",
          "name": "",
          "type": "uint256"
        }
      ],
      "name": "userCanClaimWeeks",
      "outputs": [
        {
          "internalType": "uint256",
          "name": "",
          "type": "uint256"
        }
      ],
      "stateMutability": "view",
      "type": "function"
    },
    {
      "inputs": [
        {
          "internalType": "address",
          "name": "",
          "type": "address"
        },
        {
          "internalType": "uint256",
          "name": "",
          "type": "uint256"
        }
      ],
      "name": "userERC20s",
      "outputs": [
        {
          "internalType": "uint256",
          "name": "",
          "type": "uint256"
        }
      ],
      "stateMutability": "view",
      "type": "function"
    },
    {
      "inputs": [
        {
          "internalType": "address",
          "name": "",
          "type": "address"
        },
        {
          "internalType": "uint256",
          "name": "",
          "type": "uint256"
        }
      ],
      "name": "userScores",
      "outputs": [
        {
          "internalType": "uint256",
          "name": "",
          "type": "uint256"
        }
      ],
      "stateMutability": "view",
      "type": "function"
    },
    {
      "inputs": [
        {
          "internalType": "uint256",
          "name": "deadline",
          "type": "uint256"
        }
      ],
      "name": "withdraw",
      "outputs": [
        {
          "internalType": "uint256",
          "name": "total",
          "type": "uint256"
        }
      ],
      "stateMutability": "nonpayable",
      "type": "function"
    },
    {
      "inputs": [
        {
          "internalType": "uint256",
          "name": "amount",
          "type": "uint256"
        },
        {
          "internalType": "uint256",
          "name": "deadline",
          "type": "uint256"
        }
      ],
      "name": "withdrawRewards",
      "outputs": [],
      "stateMutability": "nonpayable",
      "type": "function"
    }
  ],
  "bytecode": "0x6101606040523480156200001257600080fd5b5060405162001f0338038062001f038339810160408190526200003591620000ac565b6001600160a01b0391821660805260ff96871660a05260c0959095529490921660e0526101005261012052600080546001600160a01b03191633179055166101405262000126565b805160ff811681146200008f57600080fd5b919050565b80516001600160a01b03811681146200008f57600080fd5b600080600080600080600060e0888a031215620000c857600080fd5b620000d3886200007d565b965060208801519550620000ea604089016200007d565b945060608801519350608088015192506200010860a0890162000094565b91506200011860c0890162000094565b905092959891949750929550565b60805160a05160c05160e051610100516101205161014051611d04620001ff6000396000818161033b01528181610ab001526112d50152600081816102b901528181610f9e015261122701526000818161043901528181610fc90152611252015260008181610244015281816105420152818161070401528181610d9101526114f00152600081816104ca015261113901526000818161047d015281816110d50152818161110001526111c70152600081816104f1015281816108b501528181610baf01528181610e9901526110310152611d046000f3fe608060405234801561001057600080fd5b50600436106101cf5760003560e01c80638da5cb5b11610104578063cd671a58116100a2578063f6def7cf11610071578063f6def7cf146104c5578063f7c618c1146104ec578063f99b7d7514610513578063fa60c77c1461052657600080fd5b8063cd671a581461045b578063e11400bb14610478578063e1c05d931461049f578063ee3453ed146104b257600080fd5b8063affed0e0116100de578063affed0e014610405578063ba0865011461040e578063bb57852d14610421578063c75363b61461043457600080fd5b80638da5cb5b1461038a578063a218de151461039d578063ae169a50146103f257600080fd5b806337ba682d116101715780635b680a451161014b5780635b680a45146103035780635f8e422f1461032e5780635fcbd285146103365780637b1391a61461037557600080fd5b806337ba682d146102b45780634fb2e45d146102db57806352cb5133146102f057600080fd5b80630d437d40116101ad5780630d437d401461023f578063157775df1461027857806329ed1cfd146102985780632e1a7d4d146102a157600080fd5b806302e9e495146101d457806307c6e2fa146101fe5780630bce12841461021f575b600080fd5b6101e76101e2366004611836565b610539565b6040516101f5929190611851565b60405180910390f35b61021161020c366004611950565b610742565b6040519081526020016101f5565b61021161022d3660046119bd565b60056020526000908152604090205481565b6102667f000000000000000000000000000000000000000000000000000000000000000081565b60405160ff90911681526020016101f5565b6102116102863660046119bd565b60046020526000908152604090205481565b61021160065481565b6102116102af3660046119bd565b610921565b6102117f000000000000000000000000000000000000000000000000000000000000000081565b6102ee6102e9366004611836565b610b13565b005b6102ee6102fe3660046119d6565b610b5f565b6102116103113660046119f8565b600260209081526000928352604080842090915290825290205481565b6102ee610bda565b61035d7f000000000000000000000000000000000000000000000000000000000000000081565b6040516001600160a01b0390911681526020016101f5565b61037d610c2b565b6040516101f59190611a22565b60005461035d906001600160a01b031681565b6103d26103ab3660046119bd565b60086020526000908152604090208054600182015460028301546003909301549192909184565b6040805194855260208501939093529183015260608201526080016101f5565b6102ee6104003660046119bd565b610d6a565b61021160075481565b61021161041c3660046119f8565b610efb565b61021161042f3660046119f8565b610f2c565b6102117f000000000000000000000000000000000000000000000000000000000000000081565b610464610e1081565b60405162ffffff90911681526020016101f5565b6102667f000000000000000000000000000000000000000000000000000000000000000081565b6102ee6104ad366004611a86565b610f51565b6102116104c0366004611ac3565b6110cc565b6102117f000000000000000000000000000000000000000000000000000000000000000081565b61035d7f000000000000000000000000000000000000000000000000000000000000000081565b6102ee610521366004611aef565b611196565b610211610534366004611836565b6114e9565b600060608160ff7f00000000000000000000000000000000000000000000000000000000000000001661056e610e1042611b3a565b6105789190611b5c565b610583906001611b75565b6001600160a01b0385166000908152600360205260409020909150819060010154116105c2576040805160008152602081019091529094909350915050565b6001600160a01b0384166000908152600360205260408120805460019091015490918383116105f157836105f3565b825b905060006106018284611b5c565b67ffffffffffffffff8111156106195761061961189f565b604051908082528060200260200182016040528015610642578160200160208202803683370190505b509050815b838110156106ed57600081815260046020526040902054156106b2576000818152600460209081526040808320546001600160a01b038d1684526002835281842085855283528184205460059093529220546106a39190611b9e565b6106ad9190611b3a565b6106b5565b60005b826106c08584611b5c565b815181106106d0576106d0611b88565b6020908102919091010152806106e581611bb5565b915050610647565b5060006106fc610e1042611b3a565b6107298460ff7f000000000000000000000000000000000000000000000000000000000000000016611b75565b6107339190611b5c565b99919850909650505050505050565b6000818042111561076e5760405162461bcd60e51b815260040161076590611bce565b60405180910390fd5b6000546001600160a01b031633146107985760405162461bcd60e51b815260040161076590611bf5565b83518551146107dc5760405162461bcd60e51b815260206004820152601060248201526f3830b930b6b2ba32b9399032b93937b960811b6044820152606401610765565b6000805b86518110156108aa578581815181106107fb576107fb611b88565b60200260200101518461080e9190611b75565b935085818151811061082257610822611b88565b60200260200101516005600089848151811061084057610840611b88565b60200260200101518152602001908152602001600020819055508187828151811061086d5761086d611b88565b602002602001015111156108985786818151811061088d5761088d611b88565b602002602001015191505b806108a281611bb5565b9150506107e0565b5060068190556108dc7f00000000000000000000000000000000000000000000000000000000000000003330866115f3565b60408051600081526020810185905233917fc3991418cacd70a010fce559a44fcbb47534ca43bf7543964bdca2639f6e6e5a910160405180910390a250509392505050565b600081804211156109445760405162461bcd60e51b815260040161076590611bce565b6000610952610e1042611b3a565b336000908152600960205260409020549091505b3360009081526009602052604090205415610aa5578061098581611c18565b336000908152600960205260408120805492945090925090839081106109ad576109ad611b88565b9060005260206000200154905082600860008381526020019081526020016000206003015411610a91576000818152600860205260409020546109f09086611b75565b336000908152600960205260409020805491965090610a1190600190611b5c565b81548110610a2157610a21611b88565b600091825260208083209091015433835260099091526040909120805484908110610a4e57610a4e611b88565b6000918252602080832090910192909255338152600990915260409020805480610a7a57610a7a611c2f565b600190038181906000526020600020016000905590555b81600003610a9f5750610aa5565b50610966565b8315610ad657610ad67f0000000000000000000000000000000000000000000000000000000000000000338661170d565b60405184815233907f884edad9ce6fa2440d8a54cc123490eb96d2768479d49ff9c7366125a94243649060200160405180910390a2505050919050565b6000546001600160a01b03163314610b3d5760405162461bcd60e51b815260040161076590611bf5565b600180546001600160a01b0319166001600160a01b0392909216919091179055565b8080421115610b805760405162461bcd60e51b815260040161076590611bce565b6000546001600160a01b03163314610baa5760405162461bcd60e51b815260040161076590611bf5565b610bd57f0000000000000000000000000000000000000000000000000000000000000000338561170d565b505050565b6001546001600160a01b03163314610c045760405162461bcd60e51b815260040161076590611bf5565b60018054600080546001600160a01b03199081166001600160a01b03841617909155169055565b336000908152600960205260408120546060918167ffffffffffffffff811115610c5757610c5761189f565b604051908082528060200260200182016040528015610cb357816020015b610ca06040518060800160405280600081526020016000815260200160008152602001600081525090565b815260200190600190039081610c755790505b50905060005b82811015610d63573360009081526009602052604081208054600892919084908110610ce757610ce7611b88565b90600052602060002001548152602001908152602001600020604051806080016040529081600082015481526020016001820154815260200160028201548152602001600382015481525050828281518110610d4557610d45611b88565b60200260200101819052508080610d5b90611bb5565b915050610cb9565b5092915050565b8080421115610d8b5760405162461bcd60e51b815260040161076590611bce565b600060ff7f000000000000000000000000000000000000000000000000000000000000000016610dbd610e1042611b3a565b610dc79190611b5c565b3360009081526003602052604081205491925090805b33600090815260036020526040902060010154811015610e8057838111610e8057610e09816001611b75565b60008281526004602052604090205490925015610e6e57600081815260046020908152604080832054338452600283528184208585528352818420546005909352922054610e579190611b9e565b610e619190611b3a565b610e6b9084611b75565b92505b80610e7881611bb5565b915050610ddd565b5033600090815260036020526040812082910155610ebf7f0000000000000000000000000000000000000000000000000000000000000000338461170d565b60405182815233907fba8de60c3403ec381d1d484652ea1980e3c3e56359195c92525bff4ce47ad98e9060200160405180910390a25050505050565b60096020528160005260406000208181548110610f1757600080fd5b90600052602060002001600091509150505481565b60036020528160005260406000208160028110610f4857600080fd5b01549150829050565b8080421115610f725760405162461bcd60e51b815260040161076590611bce565b6000546001600160a01b03163314610f9c5760405162461bcd60e51b815260040161076590611bf5565b7f00000000000000000000000000000000000000000000000000000000000000004211158015610fec57507f00000000000000000000000000000000000000000000000000000000000000004210155b61102c5760405162461bcd60e51b81526020600482015260116024820152701b9bdd081a5b881d1a19481c195c9a5bd9607a1b6044820152606401610765565b6110587f00000000000000000000000000000000000000000000000000000000000000003330866115f3565b60008481526005602052604081208054859290611076908490611b75565b909155505060065484111561108b5760068490555b604080518581526020810185905233917fc3991418cacd70a010fce559a44fcbb47534ca43bf7543964bdca2639f6e6e5a910160405180910390a250505050565b60006110f960017f0000000000000000000000000000000000000000000000000000000000000000611c45565b60ff1660017f000000000000000000000000000000000000000000000000000000000000000060ff1660018561112f9190611c45565b60ff1661115d60017f0000000000000000000000000000000000000000000000000000000000000000611b5c565b6111679190611b9e565b6111719190611b75565b61117b9190611b5c565b6111859085611b9e565b61118f9190611b3a565b9392505050565b80804211156111b75760405162461bcd60e51b815260040161076590611bce565b60008360ff161180156111f057507f000000000000000000000000000000000000000000000000000000000000000060ff168360ff1611155b6112255760405162461bcd60e51b8152602060048201526006602482015265359018bf1a9960d11b6044820152606401610765565b7f0000000000000000000000000000000000000000000000000000000000000000421115801561127557507f00000000000000000000000000000000000000000000000000000000000000004210155b6112b55760405162461bcd60e51b81526020600482015260116024820152701b9bdd081a5b881d1a19481c195c9a5bd9607a1b6044820152606401610765565b60006112c3610e1042611b3a565b6112ce906001611b75565b90506112fc7f00000000000000000000000000000000000000000000000000000000000000003330886115f3565b600061130886866110cc565b905060005b8560ff168160ff1610156113a257816004600061132d60ff851687611b75565b8152602001908152602001600020600082825461134a9190611b75565b9091555050336000908152600260205260408120839161136d60ff851687611b75565b8152602001908152602001600020600082825461138a9190611b75565b9091555081905061139a81611c5e565b91505061130d565b5060006113b260ff871684611b75565b6040805160808101825289815260208082018681528284018881526060840186815260075460009081526008855286812095518655925160018087019190915591516002860155516003948501553382529290915291909120908101549054919250900361142d573360009081526003602052604090208390555b336000908152600360205260409020819060010154101561145e573360009081526003602052604090208190600101555b3360008181526009602090815260408083206007805482546001810184559286529484902090910193909355915482519081529081018a905260ff89168183015290517f6fa2f6021ee337436cdf2b2570285886da18bc06402ce284d296504a0fe8f8759181900360600190a2600780549060006114db83611bb5565b919050555050505050505050565b60008060ff7f00000000000000000000000000000000000000000000000000000000000000001661151c610e1042611b3a565b6115269190611b5c565b6001600160a01b038416600090815260036020526040812054919250905b6001600160a01b0385166000908152600360205260409020600101548110156115eb578281116115eb57600081815260046020526040902054156115d9576000818152600460209081526040808320546001600160a01b03891684526002835281842085855283528184205460059093529220546115c29190611b9e565b6115cc9190611b3a565b6115d69083611b75565b91505b806115e381611bb5565b915050611544565b509392505050565b604080516001600160a01b0385811660248301528481166044830152606480830185905283518084039091018152608490920183526020820180516001600160e01b03166323b872dd60e01b17905291516000928392908816916116579190611c7d565b6000604051808303816000865af19150503d8060008114611694576040519150601f19603f3d011682016040523d82523d6000602084013e611699565b606091505b50915091508180156116c35750805115806116c35750808060200190518101906116c39190611cac565b6117055760405162461bcd60e51b81526020600482015260136024820152721d1c985b9cd9995c919c9bdb4819985a5b1959606a1b6044820152606401610765565b505050505050565b604080516001600160a01b038481166024830152604480830185905283518084039091018152606490920183526020820180516001600160e01b031663a9059cbb60e01b17905291516000928392908716916117699190611c7d565b6000604051808303816000865af19150503d80600081146117a6576040519150601f19603f3d011682016040523d82523d6000602084013e6117ab565b606091505b50915091508180156117d55750805115806117d55750808060200190518101906117d59190611cac565b6118135760405162461bcd60e51b815260206004820152600f60248201526e1514905394d1915497d19052531151608a1b6044820152606401610765565b5050505050565b80356001600160a01b038116811461183157600080fd5b919050565b60006020828403121561184857600080fd5b61118f8261181a565b6000604082018483526020604081850152818551808452606086019150828701935060005b8181101561189257845183529383019391830191600101611876565b5090979650505050505050565b634e487b7160e01b600052604160045260246000fd5b600082601f8301126118c657600080fd5b8135602067ffffffffffffffff808311156118e3576118e361189f565b8260051b604051601f19603f830116810181811084821117156119085761190861189f565b60405293845285810183019383810192508785111561192657600080fd5b83870191505b848210156119455781358352918301919083019061192c565b979650505050505050565b60008060006060848603121561196557600080fd5b833567ffffffffffffffff8082111561197d57600080fd5b611989878388016118b5565b9450602086013591508082111561199f57600080fd5b506119ac868287016118b5565b925050604084013590509250925092565b6000602082840312156119cf57600080fd5b5035919050565b600080604083850312156119e957600080fd5b50508035926020909101359150565b60008060408385031215611a0b57600080fd5b611a148361181a565b946020939093013593505050565b602080825282518282018190526000919060409081850190868401855b82811015611a7957815180518552868101518786015285810151868601526060908101519085015260809093019290850190600101611a3f565b5091979650505050505050565b600080600060608486031215611a9b57600080fd5b505081359360208301359350604090920135919050565b803560ff8116811461183157600080fd5b60008060408385031215611ad657600080fd5b82359150611ae660208401611ab2565b90509250929050565b600080600060608486031215611b0457600080fd5b83359250611b1460208501611ab2565b9150604084013590509250925092565b634e487b7160e01b600052601160045260246000fd5b600082611b5757634e487b7160e01b600052601260045260246000fd5b500490565b81810381811115611b6f57611b6f611b24565b92915050565b80820180821115611b6f57611b6f611b24565b634e487b7160e01b600052603260045260246000fd5b8082028115828204841417611b6f57611b6f611b24565b600060018201611bc757611bc7611b24565b5060010190565b6020808252600d908201526c6f76657220646561646c696e6560981b604082015260600190565b6020808252600990820152683337b93134b23232b760b91b604082015260600190565b600081611c2757611c27611b24565b506000190190565b634e487b7160e01b600052603160045260246000fd5b60ff8281168282160390811115611b6f57611b6f611b24565b600060ff821660ff8103611c7457611c74611b24565b60010192915050565b6000825160005b81811015611c9e5760208186018101518583015201611c84565b506000920191825250919050565b600060208284031215611cbe57600080fd5b8151801515811461118f57600080fdfea2646970667358221220df068f2f48e800de30183ec1b2f52a8a8bd69c082c8da3506723ea2de05766a264736f6c63430008110033",
  "linkReferences": {},
  "deployedLinkReferences": {}
}