{
  "_format": "hh-sol-artifact-1",
  "contractName": "StakeERC20",
  "sourceName": "contracts/stakeERC20.sol",
  "abi": [
    {
      "inputs": [
        {
          "internalType": "uint8",
          "name": "maxWeeks",
          "type": "uint8"
        },
        {
          "internalType": "uint256",
          "name": "maxScale",
          "type": "uint256"
        },
        {
          "internalType": "uint8",
          "name": "lockWeeks",
          "type": "uint8"
        },
        {
          "internalType": "uint256",
          "name": "beginTime",
          "type": "uint256"
        },
        {
          "internalType": "uint256",
          "name": "endTime",
          "type": "uint256"
        },
        {
          "internalType": "address",
          "name": "_rewardToken",
          "type": "address"
        },
        {
          "internalType": "address",
          "name": "_lpToken",
          "type": "address"
        }
      ],
      "stateMutability": "nonpayable",
      "type": "constructor"
    },
    {
      "anonymous": false,
      "inputs": [
        {
          "indexed": true,
          "internalType": "address",
          "name": "user",
          "type": "address"
        },
        {
          "indexed": false,
          "internalType": "uint256",
          "name": "amount",
          "type": "uint256"
        }
      ],
      "name": "ClaimReward",
      "type": "event"
    },
    {
      "anonymous": false,
      "inputs": [
        {
          "indexed": true,
          "internalType": "address",
          "name": "user",
          "type": "address"
        },
        {
          "indexed": false,
          "internalType": "uint256",
          "name": "no",
          "type": "uint256"
        },
        {
          "indexed": false,
          "internalType": "uint256",
          "name": "amount",
          "type": "uint256"
        }
      ],
      "name": "SetReward",
      "type": "event"
    },
    {
      "anonymous": false,
      "inputs": [
        {
          "indexed": true,
          "internalType": "address",
          "name": "user",
          "type": "address"
        },
        {
          "indexed": false,
          "internalType": "uint256",
          "name": "id",
          "type": "uint256"
        },
        {
          "indexed": false,
          "internalType": "uint256",
          "name": "amount",
          "type": "uint256"
        },
        {
          "indexed": false,
          "internalType": "uint8",
          "name": "k",
          "type": "uint8"
        }
      ],
      "name": "Stake",
      "type": "event"
    },
    {
      "anonymous": false,
      "inputs": [
        {
          "indexed": true,
          "internalType": "address",
          "name": "user",
          "type": "address"
        },
        {
          "indexed": false,
          "internalType": "uint256",
          "name": "amount",
          "type": "uint256"
        }
      ],
      "name": "Withdraw",
      "type": "event"
    },
    {
      "inputs": [],
      "name": "BEGIN_TIME",
      "outputs": [
        {
          "internalType": "uint256",
          "name": "",
          "type": "uint256"
        }
      ],
      "stateMutability": "view",
      "type": "function"
    },
    {
      "inputs": [],
      "name": "END_TIME",
      "outputs": [
        {
          "internalType": "uint256",
          "name": "",
          "type": "uint256"
        }
      ],
      "stateMutability": "view",
      "type": "function"
    },
    {
      "inputs": [],
      "name": "LOCK_WEEKNUM",
      "outputs": [
        {
          "internalType": "uint8",
          "name": "",
          "type": "uint8"
        }
      ],
      "stateMutability": "view",
      "type": "function"
    },
    {
      "inputs": [],
      "name": "MAX_SCALE",
      "outputs": [
        {
          "internalType": "uint256",
          "name": "",
          "type": "uint256"
        }
      ],
      "stateMutability": "view",
      "type": "function"
    },
    {
      "inputs": [],
      "name": "MAX_WEEKS",
      "outputs": [
        {
          "internalType": "uint8",
          "name": "",
          "type": "uint8"
        }
      ],
      "stateMutability": "view",
      "type": "function"
    },
    {
      "inputs": [],
      "name": "WEEK_SECONDS",
      "outputs": [
        {
          "internalType": "uint24",
          "name": "",
          "type": "uint24"
        }
      ],
      "stateMutability": "view",
      "type": "function"
    },
    {
      "inputs": [],
      "name": "acceptSetter",
      "outputs": [],
      "stateMutability": "nonpayable",
      "type": "function"
    },
    {
      "inputs": [
        {
          "internalType": "address",
          "name": "user",
          "type": "address"
        }
      ],
      "name": "canClaimAmount",
      "outputs": [
        {
          "internalType": "uint256",
          "name": "",
          "type": "uint256"
        }
      ],
      "stateMutability": "view",
      "type": "function"
    },
    {
      "inputs": [
        {
          "internalType": "uint256",
          "name": "deadline",
          "type": "uint256"
        }
      ],
      "name": "claimReward",
      "outputs": [],
      "stateMutability": "nonpayable",
      "type": "function"
    },
    {
      "inputs": [
        {
          "internalType": "uint256",
          "name": "amount",
          "type": "uint256"
        },
        {
          "internalType": "uint8",
          "name": "k",
          "type": "uint8"
        }
      ],
      "name": "getScore",
      "outputs": [
        {
          "internalType": "uint256",
          "name": "score",
          "type": "uint256"
        }
      ],
      "stateMutability": "view",
      "type": "function"
    },
    {
      "inputs": [],
      "name": "getStaking",
      "outputs": [
        {
          "components": [
            {
              "internalType": "uint256",
              "name": "amount",
              "type": "uint256"
            },
            {
              "internalType": "uint256",
              "name": "score",
              "type": "uint256"
            },
            {
              "internalType": "uint256",
              "name": "beginNo",
              "type": "uint256"
            },
            {
              "internalType": "uint256",
              "name": "endNo",
              "type": "uint256"
            }
          ],
          "internalType": "struct StakeERC20.StakingERC20[]",
          "name": "",
          "type": "tuple[]"
        }
      ],
      "stateMutability": "view",
      "type": "function"
    },
    {
      "inputs": [],
      "name": "latestNo",
      "outputs": [
        {
          "internalType": "uint256",
          "name": "",
          "type": "uint256"
        }
      ],
      "stateMutability": "view",
      "type": "function"
    },
    {
      "inputs": [
        {
          "internalType": "address",
          "name": "user",
          "type": "address"
        }
      ],
      "name": "lockedRewardAmount",
      "outputs": [
        {
          "internalType": "uint256",
          "name": "",
          "type": "uint256"
        },
        {
          "internalType": "uint256[]",
          "name": "",
          "type": "uint256[]"
        }
      ],
      "stateMutability": "view",
      "type": "function"
    },
    {
      "inputs": [],
      "name": "lpToken",
      "outputs": [
        {
          "internalType": "address",
          "name": "",
          "type": "address"
        }
      ],
      "stateMutability": "view",
      "type": "function"
    },
    {
      "inputs": [],
      "name": "nonce",
      "outputs": [
        {
          "internalType": "uint256",
          "name": "",
          "type": "uint256"
        }
      ],
      "stateMutability": "view",
      "type": "function"
    },
    {
      "inputs": [],
      "name": "owner",
      "outputs": [
        {
          "internalType": "address",
          "name": "",
          "type": "address"
        }
      ],
      "stateMutability": "view",
      "type": "function"
    },
    {
      "inputs": [],
      "name": "rewardToken",
      "outputs": [
        {
          "internalType": "address",
          "name": "",
          "type": "address"
        }
      ],
      "stateMutability": "view",
      "type": "function"
    },
    {
      "inputs": [
        {
          "internalType": "uint256",
          "name": "",
          "type": "uint256"
        }
      ],
      "name": "rewardsOf",
      "outputs": [
        {
          "internalType": "uint256",
          "name": "",
          "type": "uint256"
        }
      ],
      "stateMutability": "view",
      "type": "function"
    },
    {
      "inputs": [
        {
          "internalType": "uint256",
          "name": "no",
          "type": "uint256"
        },
        {
          "internalType": "uint256",
          "name": "amount",
          "type": "uint256"
        },
        {
          "internalType": "uint256",
          "name": "deadline",
          "type": "uint256"
        }
      ],
      "name": "setReward",
      "outputs": [],
      "stateMutability": "nonpayable",
      "type": "function"
    },
    {
      "inputs": [
        {
          "internalType": "uint256[]",
          "name": "nos",
          "type": "uint256[]"
        },
        {
          "internalType": "uint256[]",
          "name": "amounts",
          "type": "uint256[]"
        },
        {
          "internalType": "uint256",
          "name": "deadline",
          "type": "uint256"
        }
      ],
      "name": "setRewards",
      "outputs": [
        {
          "internalType": "uint256",
          "name": "total",
          "type": "uint256"
        }
      ],
      "stateMutability": "nonpayable",
      "type": "function"
    },
    {
      "inputs": [
        {
          "internalType": "uint256",
          "name": "amount",
          "type": "uint256"
        },
        {
          "internalType": "uint8",
          "name": "k",
          "type": "uint8"
        },
        {
          "internalType": "uint256",
          "name": "deadline",
          "type": "uint256"
        }
      ],
      "name": "stake",
      "outputs": [],
      "stateMutability": "nonpayable",
      "type": "function"
    },
    {
      "inputs": [
        {
          "internalType": "uint256",
          "name": "",
          "type": "uint256"
        }
      ],
      "name": "stakingERC20s",
      "outputs": [
        {
          "internalType": "uint256",
          "name": "amount",
          "type": "uint256"
        },
        {
          "internalType": "uint256",
          "name": "score",
          "type": "uint256"
        },
        {
          "internalType": "uint256",
          "name": "beginNo",
          "type": "uint256"
        },
        {
          "internalType": "uint256",
          "name": "endNo",
          "type": "uint256"
        }
      ],
      "stateMutability": "view",
      "type": "function"
    },
    {
      "inputs": [
        {
          "internalType": "uint256",
          "name": "",
          "type": "uint256"
        }
      ],
      "name": "totalScores",
      "outputs": [
        {
          "internalType": "uint256",
          "name": "",
          "type": "uint256"
        }
      ],
      "stateMutability": "view",
      "type": "function"
    },
    {
      "inputs": [
        {
          "internalType": "address",
          "name": "_owner",
          "type": "address"
        }
      ],
      "name": "transferOwner",
      "outputs": [],
      "stateMutability": "nonpayable",
      "type": "function"
    },
    {
      "inputs": [
        {
          "internalType": "address",
          "name": "",
          "type": "address"
        },
        {
          "internalType": "uint256",
          "name": "",
          "type": "uint256"
        }
      ],
      "name": "userCanClaimWeeks",
      "outputs": [
        {
          "internalType": "uint256",
          "name": "",
          "type": "uint256"
        }
      ],
      "stateMutability": "view",
      "type": "function"
    },
    {
      "inputs": [
        {
          "internalType": "address",
          "name": "",
          "type": "address"
        },
        {
          "internalType": "uint256",
          "name": "",
          "type": "uint256"
        }
      ],
      "name": "userERC20s",
      "outputs": [
        {
          "internalType": "uint256",
          "name": "",
          "type": "uint256"
        }
      ],
      "stateMutability": "view",
      "type": "function"
    },
    {
      "inputs": [
        {
          "internalType": "address",
          "name": "",
          "type": "address"
        },
        {
          "internalType": "uint256",
          "name": "",
          "type": "uint256"
        }
      ],
      "name": "userScores",
      "outputs": [
        {
          "internalType": "uint256",
          "name": "",
          "type": "uint256"
        }
      ],
      "stateMutability": "view",
      "type": "function"
    },
    {
      "inputs": [
        {
          "internalType": "uint256",
          "name": "deadline",
          "type": "uint256"
        }
      ],
      "name": "withdraw",
      "outputs": [
        {
          "internalType": "uint256",
          "name": "total",
          "type": "uint256"
        }
      ],
      "stateMutability": "nonpayable",
      "type": "function"
    },
    {
      "inputs": [
        {
          "internalType": "uint256",
          "name": "amount",
          "type": "uint256"
        },
        {
          "internalType": "uint256",
          "name": "deadline",
          "type": "uint256"
        }
      ],
      "name": "withdrawRewards",
      "outputs": [],
      "stateMutability": "nonpayable",
      "type": "function"
    }
  ],
  "bytecode": "0x6101606040523480156200001257600080fd5b5060405162001f0a38038062001f0a8339810160408190526200003591620000ac565b6001600160a01b0391821660805260ff96871660a05260c0959095529490921660e0526101005261012052600080546001600160a01b03191633179055166101405262000126565b805160ff811681146200008f57600080fd5b919050565b80516001600160a01b03811681146200008f57600080fd5b600080600080600080600060e0888a031215620000c857600080fd5b620000d3886200007d565b965060208801519550620000ea604089016200007d565b945060608801519350608088015192506200010860a0890162000094565b91506200011860c0890162000094565b905092959891949750929550565b60805160a05160c05160e051610100516101205161014051611d0b620001ff6000396000818161033b01528181610ab401526112db0152600081816102b901528181610fa3015261122c01526000818161043901528181610fce0152611257015260008181610244015281816105430152818161070701528181610d9501526114f60152600081816104cb015261113e01526000818161047e015281816110da0152818161110501526111cc0152600081816104f2015281816108b801528181610bb301528181610e9e01526110360152611d0b6000f3fe608060405234801561001057600080fd5b50600436106101cf5760003560e01c80638da5cb5b11610104578063cd671a58116100a2578063f6def7cf11610071578063f6def7cf146104c6578063f7c618c1146104ed578063f99b7d7514610514578063fa60c77c1461052757600080fd5b8063cd671a581461045b578063e11400bb14610479578063e1c05d93146104a0578063ee3453ed146104b357600080fd5b8063affed0e0116100de578063affed0e014610405578063ba0865011461040e578063bb57852d14610421578063c75363b61461043457600080fd5b80638da5cb5b1461038a578063a218de151461039d578063ae169a50146103f257600080fd5b806337ba682d116101715780635b680a451161014b5780635b680a45146103035780635f8e422f1461032e5780635fcbd285146103365780637b1391a61461037557600080fd5b806337ba682d146102b45780634fb2e45d146102db57806352cb5133146102f057600080fd5b80630d437d40116101ad5780630d437d401461023f578063157775df1461027857806329ed1cfd146102985780632e1a7d4d146102a157600080fd5b806302e9e495146101d457806307c6e2fa146101fe5780630bce12841461021f575b600080fd5b6101e76101e236600461183d565b61053a565b6040516101f5929190611858565b60405180910390f35b61021161020c366004611957565b610745565b6040519081526020016101f5565b61021161022d3660046119c4565b60056020526000908152604090205481565b6102667f000000000000000000000000000000000000000000000000000000000000000081565b60405160ff90911681526020016101f5565b6102116102863660046119c4565b60046020526000908152604090205481565b61021160065481565b6102116102af3660046119c4565b610924565b6102117f000000000000000000000000000000000000000000000000000000000000000081565b6102ee6102e936600461183d565b610b17565b005b6102ee6102fe3660046119dd565b610b63565b6102116103113660046119ff565b600260209081526000928352604080842090915290825290205481565b6102ee610bde565b61035d7f000000000000000000000000000000000000000000000000000000000000000081565b6040516001600160a01b0390911681526020016101f5565b61037d610c2f565b6040516101f59190611a29565b60005461035d906001600160a01b031681565b6103d26103ab3660046119c4565b60086020526000908152604090208054600182015460028301546003909301549192909184565b6040805194855260208501939093529183015260608201526080016101f5565b6102ee6104003660046119c4565b610d6e565b61021160075481565b61021161041c3660046119ff565b610f00565b61021161042f3660046119ff565b610f31565b6102117f000000000000000000000000000000000000000000000000000000000000000081565b61046562093a8081565b60405162ffffff90911681526020016101f5565b6102667f000000000000000000000000000000000000000000000000000000000000000081565b6102ee6104ae366004611a8d565b610f56565b6102116104c1366004611aca565b6110d1565b6102117f000000000000000000000000000000000000000000000000000000000000000081565b61035d7f000000000000000000000000000000000000000000000000000000000000000081565b6102ee610522366004611af6565b61119b565b61021161053536600461183d565b6114ef565b600060608160ff7f00000000000000000000000000000000000000000000000000000000000000001661057062093a8042611b41565b61057a9190611b63565b610585906001611b7c565b6001600160a01b0385166000908152600360205260409020909150819060010154116105c4576040805160008152602081019091529094909350915050565b6001600160a01b0384166000908152600360205260408120805460019091015490918383116105f357836105f5565b825b905060006106038284611b63565b67ffffffffffffffff81111561061b5761061b6118a6565b604051908082528060200260200182016040528015610644578160200160208202803683370190505b509050815b838110156106ef57600081815260046020526040902054156106b4576000818152600460209081526040808320546001600160a01b038d1684526002835281842085855283528184205460059093529220546106a59190611ba5565b6106af9190611b41565b6106b7565b60005b826106c28584611b63565b815181106106d2576106d2611b8f565b6020908102919091010152806106e781611bbc565b915050610649565b5060006106ff62093a8042611b41565b61072c8460ff7f000000000000000000000000000000000000000000000000000000000000000016611b7c565b6107369190611b63565b99919850909650505050505050565b600081804211156107715760405162461bcd60e51b815260040161076890611bd5565b60405180910390fd5b6000546001600160a01b0316331461079b5760405162461bcd60e51b815260040161076890611bfc565b83518551146107df5760405162461bcd60e51b815260206004820152601060248201526f3830b930b6b2ba32b9399032b93937b960811b6044820152606401610768565b6000805b86518110156108ad578581815181106107fe576107fe611b8f565b6020026020010151846108119190611b7c565b935085818151811061082557610825611b8f565b60200260200101516005600089848151811061084357610843611b8f565b60200260200101518152602001908152602001600020819055508187828151811061087057610870611b8f565b6020026020010151111561089b5786818151811061089057610890611b8f565b602002602001015191505b806108a581611bbc565b9150506107e3565b5060068190556108df7f00000000000000000000000000000000000000000000000000000000000000003330866115fa565b60408051600081526020810185905233917fc3991418cacd70a010fce559a44fcbb47534ca43bf7543964bdca2639f6e6e5a910160405180910390a250509392505050565b600081804211156109475760405162461bcd60e51b815260040161076890611bd5565b600061095662093a8042611b41565b336000908152600960205260409020549091505b3360009081526009602052604090205415610aa9578061098981611c1f565b336000908152600960205260408120805492945090925090839081106109b1576109b1611b8f565b9060005260206000200154905082600860008381526020019081526020016000206003015411610a95576000818152600860205260409020546109f49086611b7c565b336000908152600960205260409020805491965090610a1590600190611b63565b81548110610a2557610a25611b8f565b600091825260208083209091015433835260099091526040909120805484908110610a5257610a52611b8f565b6000918252602080832090910192909255338152600990915260409020805480610a7e57610a7e611c36565b600190038181906000526020600020016000905590555b81600003610aa35750610aa9565b5061096a565b8315610ada57610ada7f00000000000000000000000000000000000000000000000000000000000000003386611714565b60405184815233907f884edad9ce6fa2440d8a54cc123490eb96d2768479d49ff9c7366125a94243649060200160405180910390a2505050919050565b6000546001600160a01b03163314610b415760405162461bcd60e51b815260040161076890611bfc565b600180546001600160a01b0319166001600160a01b0392909216919091179055565b8080421115610b845760405162461bcd60e51b815260040161076890611bd5565b6000546001600160a01b03163314610bae5760405162461bcd60e51b815260040161076890611bfc565b610bd97f00000000000000000000000000000000000000000000000000000000000000003385611714565b505050565b6001546001600160a01b03163314610c085760405162461bcd60e51b815260040161076890611bfc565b60018054600080546001600160a01b03199081166001600160a01b03841617909155169055565b336000908152600960205260408120546060918167ffffffffffffffff811115610c5b57610c5b6118a6565b604051908082528060200260200182016040528015610cb757816020015b610ca46040518060800160405280600081526020016000815260200160008152602001600081525090565b815260200190600190039081610c795790505b50905060005b82811015610d67573360009081526009602052604081208054600892919084908110610ceb57610ceb611b8f565b90600052602060002001548152602001908152602001600020604051806080016040529081600082015481526020016001820154815260200160028201548152602001600382015481525050828281518110610d4957610d49611b8f565b60200260200101819052508080610d5f90611bbc565b915050610cbd565b5092915050565b8080421115610d8f5760405162461bcd60e51b815260040161076890611bd5565b600060ff7f000000000000000000000000000000000000000000000000000000000000000016610dc262093a8042611b41565b610dcc9190611b63565b3360009081526003602052604081205491925090805b33600090815260036020526040902060010154811015610e8557838111610e8557610e0e816001611b7c565b60008281526004602052604090205490925015610e7357600081815260046020908152604080832054338452600283528184208585528352818420546005909352922054610e5c9190611ba5565b610e669190611b41565b610e709084611b7c565b92505b80610e7d81611bbc565b915050610de2565b5033600090815260036020526040812082910155610ec47f00000000000000000000000000000000000000000000000000000000000000003384611714565b60405182815233907fba8de60c3403ec381d1d484652ea1980e3c3e56359195c92525bff4ce47ad98e9060200160405180910390a25050505050565b60096020528160005260406000208181548110610f1c57600080fd5b90600052602060002001600091509150505481565b60036020528160005260406000208160028110610f4d57600080fd5b01549150829050565b8080421115610f775760405162461bcd60e51b815260040161076890611bd5565b6000546001600160a01b03163314610fa15760405162461bcd60e51b815260040161076890611bfc565b7f00000000000000000000000000000000000000000000000000000000000000004211158015610ff157507f00000000000000000000000000000000000000000000000000000000000000004210155b6110315760405162461bcd60e51b81526020600482015260116024820152701b9bdd081a5b881d1a19481c195c9a5bd9607a1b6044820152606401610768565b61105d7f00000000000000000000000000000000000000000000000000000000000000003330866115fa565b6000848152600560205260408120805485929061107b908490611b7c565b90915550506006548411156110905760068490555b604080518581526020810185905233917fc3991418cacd70a010fce559a44fcbb47534ca43bf7543964bdca2639f6e6e5a910160405180910390a250505050565b60006110fe60017f0000000000000000000000000000000000000000000000000000000000000000611c4c565b60ff1660017f000000000000000000000000000000000000000000000000000000000000000060ff166001856111349190611c4c565b60ff1661116260017f0000000000000000000000000000000000000000000000000000000000000000611b63565b61116c9190611ba5565b6111769190611b7c565b6111809190611b63565b61118a9085611ba5565b6111949190611b41565b9392505050565b80804211156111bc5760405162461bcd60e51b815260040161076890611bd5565b60008360ff161180156111f557507f000000000000000000000000000000000000000000000000000000000000000060ff168360ff1611155b61122a5760405162461bcd60e51b8152602060048201526006602482015265359018bf1a9960d11b6044820152606401610768565b7f0000000000000000000000000000000000000000000000000000000000000000421115801561127a57507f00000000000000000000000000000000000000000000000000000000000000004210155b6112ba5760405162461bcd60e51b81526020600482015260116024820152701b9bdd081a5b881d1a19481c195c9a5bd9607a1b6044820152606401610768565b60006112c962093a8042611b41565b6112d4906001611b7c565b90506113027f00000000000000000000000000000000000000000000000000000000000000003330886115fa565b600061130e86866110d1565b905060005b8560ff168160ff1610156113a857816004600061133360ff851687611b7c565b815260200190815260200160002060008282546113509190611b7c565b9091555050336000908152600260205260408120839161137360ff851687611b7c565b815260200190815260200160002060008282546113909190611b7c565b909155508190506113a081611c65565b915050611313565b5060006113b860ff871684611b7c565b60408051608081018252898152602080820186815282840188815260608401868152600754600090815260088552868120955186559251600180870191909155915160028601555160039485015533825292909152919091209081015490549192509003611433573360009081526003602052604090208390555b3360009081526003602052604090208190600101541015611464573360009081526003602052604090208190600101555b3360008181526009602090815260408083206007805482546001810184559286529484902090910193909355915482519081529081018a905260ff89168183015290517f6fa2f6021ee337436cdf2b2570285886da18bc06402ce284d296504a0fe8f8759181900360600190a2600780549060006114e183611bbc565b919050555050505050505050565b60008060ff7f00000000000000000000000000000000000000000000000000000000000000001661152362093a8042611b41565b61152d9190611b63565b6001600160a01b038416600090815260036020526040812054919250905b6001600160a01b0385166000908152600360205260409020600101548110156115f2578281116115f257600081815260046020526040902054156115e0576000818152600460209081526040808320546001600160a01b03891684526002835281842085855283528184205460059093529220546115c99190611ba5565b6115d39190611b41565b6115dd9083611b7c565b91505b806115ea81611bbc565b91505061154b565b509392505050565b604080516001600160a01b0385811660248301528481166044830152606480830185905283518084039091018152608490920183526020820180516001600160e01b03166323b872dd60e01b179052915160009283929088169161165e9190611c84565b6000604051808303816000865af19150503d806000811461169b576040519150601f19603f3d011682016040523d82523d6000602084013e6116a0565b606091505b50915091508180156116ca5750805115806116ca5750808060200190518101906116ca9190611cb3565b61170c5760405162461bcd60e51b81526020600482015260136024820152721d1c985b9cd9995c919c9bdb4819985a5b1959606a1b6044820152606401610768565b505050505050565b604080516001600160a01b038481166024830152604480830185905283518084039091018152606490920183526020820180516001600160e01b031663a9059cbb60e01b17905291516000928392908716916117709190611c84565b6000604051808303816000865af19150503d80600081146117ad576040519150601f19603f3d011682016040523d82523d6000602084013e6117b2565b606091505b50915091508180156117dc5750805115806117dc5750808060200190518101906117dc9190611cb3565b61181a5760405162461bcd60e51b815260206004820152600f60248201526e1514905394d1915497d19052531151608a1b6044820152606401610768565b5050505050565b80356001600160a01b038116811461183857600080fd5b919050565b60006020828403121561184f57600080fd5b61119482611821565b6000604082018483526020604081850152818551808452606086019150828701935060005b818110156118995784518352938301939183019160010161187d565b5090979650505050505050565b634e487b7160e01b600052604160045260246000fd5b600082601f8301126118cd57600080fd5b8135602067ffffffffffffffff808311156118ea576118ea6118a6565b8260051b604051601f19603f8301168101818110848211171561190f5761190f6118a6565b60405293845285810183019383810192508785111561192d57600080fd5b83870191505b8482101561194c57813583529183019190830190611933565b979650505050505050565b60008060006060848603121561196c57600080fd5b833567ffffffffffffffff8082111561198457600080fd5b611990878388016118bc565b945060208601359150808211156119a657600080fd5b506119b3868287016118bc565b925050604084013590509250925092565b6000602082840312156119d657600080fd5b5035919050565b600080604083850312156119f057600080fd5b50508035926020909101359150565b60008060408385031215611a1257600080fd5b611a1b83611821565b946020939093013593505050565b602080825282518282018190526000919060409081850190868401855b82811015611a8057815180518552868101518786015285810151868601526060908101519085015260809093019290850190600101611a46565b5091979650505050505050565b600080600060608486031215611aa257600080fd5b505081359360208301359350604090920135919050565b803560ff8116811461183857600080fd5b60008060408385031215611add57600080fd5b82359150611aed60208401611ab9565b90509250929050565b600080600060608486031215611b0b57600080fd5b83359250611b1b60208501611ab9565b9150604084013590509250925092565b634e487b7160e01b600052601160045260246000fd5b600082611b5e57634e487b7160e01b600052601260045260246000fd5b500490565b81810381811115611b7657611b76611b2b565b92915050565b80820180821115611b7657611b76611b2b565b634e487b7160e01b600052603260045260246000fd5b8082028115828204841417611b7657611b76611b2b565b600060018201611bce57611bce611b2b565b5060010190565b6020808252600d908201526c6f76657220646561646c696e6560981b604082015260600190565b6020808252600990820152683337b93134b23232b760b91b604082015260600190565b600081611c2e57611c2e611b2b565b506000190190565b634e487b7160e01b600052603160045260246000fd5b60ff8281168282160390811115611b7657611b76611b2b565b600060ff821660ff8103611c7b57611c7b611b2b565b60010192915050565b6000825160005b81811015611ca55760208186018101518583015201611c8b565b506000920191825250919050565b600060208284031215611cc557600080fd5b8151801515811461119457600080fdfea2646970667358221220dcd93bbba11156bb514625c8722e045ee277e9a7b9eafd6aa1b7df9c5d2f8f3964736f6c63430008110033",
  "linkReferences": {},
  "deployedLinkReferences": {}
}