{
  "_format": "hh-sol-artifact-1",
  "contractName": "StakeERC20",
  "sourceName": "contracts/stakeERC20.sol",
  "abi": [
    {
      "inputs": [
        {
          "internalType": "uint8",
          "name": "maxWeeks",
          "type": "uint8"
        },
        {
          "internalType": "uint256",
          "name": "maxScale",
          "type": "uint256"
        },
        {
          "internalType": "uint8",
          "name": "lockWeeks",
          "type": "uint8"
        },
        {
          "internalType": "uint256",
          "name": "beginTime",
          "type": "uint256"
        },
        {
          "internalType": "uint256",
          "name": "endTime",
          "type": "uint256"
        },
        {
          "internalType": "address",
          "name": "_rewardToken",
          "type": "address"
        },
        {
          "internalType": "address",
          "name": "_lpToken",
          "type": "address"
        }
      ],
      "stateMutability": "nonpayable",
      "type": "constructor"
    },
    {
      "anonymous": false,
      "inputs": [
        {
          "indexed": true,
          "internalType": "address",
          "name": "user",
          "type": "address"
        },
        {
          "indexed": false,
          "internalType": "uint256",
          "name": "amount",
          "type": "uint256"
        }
      ],
      "name": "ClaimReward",
      "type": "event"
    },
    {
      "anonymous": false,
      "inputs": [
        {
          "indexed": true,
          "internalType": "address",
          "name": "user",
          "type": "address"
        },
        {
          "indexed": false,
          "internalType": "uint256",
          "name": "no",
          "type": "uint256"
        },
        {
          "indexed": false,
          "internalType": "uint256",
          "name": "amount",
          "type": "uint256"
        }
      ],
      "name": "SetReward",
      "type": "event"
    },
    {
      "anonymous": false,
      "inputs": [
        {
          "indexed": true,
          "internalType": "address",
          "name": "user",
          "type": "address"
        },
        {
          "indexed": false,
          "internalType": "uint256",
          "name": "id",
          "type": "uint256"
        },
        {
          "indexed": false,
          "internalType": "uint256",
          "name": "amount",
          "type": "uint256"
        },
        {
          "indexed": false,
          "internalType": "uint8",
          "name": "k",
          "type": "uint8"
        }
      ],
      "name": "Stake",
      "type": "event"
    },
    {
      "anonymous": false,
      "inputs": [
        {
          "indexed": true,
          "internalType": "address",
          "name": "user",
          "type": "address"
        },
        {
          "indexed": false,
          "internalType": "uint256",
          "name": "amount",
          "type": "uint256"
        }
      ],
      "name": "Withdraw",
      "type": "event"
    },
    {
      "inputs": [],
      "name": "BEGIN_TIME",
      "outputs": [
        {
          "internalType": "uint256",
          "name": "",
          "type": "uint256"
        }
      ],
      "stateMutability": "view",
      "type": "function"
    },
    {
      "inputs": [],
      "name": "END_TIME",
      "outputs": [
        {
          "internalType": "uint256",
          "name": "",
          "type": "uint256"
        }
      ],
      "stateMutability": "view",
      "type": "function"
    },
    {
      "inputs": [],
      "name": "LOCK_WEEKNUM",
      "outputs": [
        {
          "internalType": "uint8",
          "name": "",
          "type": "uint8"
        }
      ],
      "stateMutability": "view",
      "type": "function"
    },
    {
      "inputs": [],
      "name": "MAX_SCALE",
      "outputs": [
        {
          "internalType": "uint256",
          "name": "",
          "type": "uint256"
        }
      ],
      "stateMutability": "view",
      "type": "function"
    },
    {
      "inputs": [],
      "name": "MAX_WEEKS",
      "outputs": [
        {
          "internalType": "uint8",
          "name": "",
          "type": "uint8"
        }
      ],
      "stateMutability": "view",
      "type": "function"
    },
    {
      "inputs": [],
      "name": "WEEK_SECONDS",
      "outputs": [
        {
          "internalType": "uint24",
          "name": "",
          "type": "uint24"
        }
      ],
      "stateMutability": "view",
      "type": "function"
    },
    {
      "inputs": [],
      "name": "acceptSetter",
      "outputs": [],
      "stateMutability": "nonpayable",
      "type": "function"
    },
    {
      "inputs": [],
      "name": "canClaimAmount",
      "outputs": [
        {
          "internalType": "uint256",
          "name": "",
          "type": "uint256"
        }
      ],
      "stateMutability": "view",
      "type": "function"
    },
    {
      "inputs": [],
      "name": "claimReward",
      "outputs": [],
      "stateMutability": "nonpayable",
      "type": "function"
    },
    {
      "inputs": [
        {
          "internalType": "uint256",
          "name": "amount",
          "type": "uint256"
        },
        {
          "internalType": "uint8",
          "name": "k",
          "type": "uint8"
        }
      ],
      "name": "getScore",
      "outputs": [
        {
          "internalType": "uint256",
          "name": "score",
          "type": "uint256"
        }
      ],
      "stateMutability": "view",
      "type": "function"
    },
    {
      "inputs": [],
      "name": "getStaking",
      "outputs": [
        {
          "components": [
            {
              "internalType": "uint256",
              "name": "amount",
              "type": "uint256"
            },
            {
              "internalType": "uint256",
              "name": "score",
              "type": "uint256"
            },
            {
              "internalType": "uint256",
              "name": "beginNo",
              "type": "uint256"
            },
            {
              "internalType": "uint256",
              "name": "endNo",
              "type": "uint256"
            }
          ],
          "internalType": "struct StakeERC20.StakingERC20[]",
          "name": "",
          "type": "tuple[]"
        }
      ],
      "stateMutability": "view",
      "type": "function"
    },
    {
      "inputs": [],
      "name": "latestNo",
      "outputs": [
        {
          "internalType": "uint256",
          "name": "",
          "type": "uint256"
        }
      ],
      "stateMutability": "view",
      "type": "function"
    },
    {
      "inputs": [],
      "name": "lockedRewardAmount",
      "outputs": [
        {
          "internalType": "uint256",
          "name": "",
          "type": "uint256"
        },
        {
          "internalType": "uint256[]",
          "name": "",
          "type": "uint256[]"
        }
      ],
      "stateMutability": "view",
      "type": "function"
    },
    {
      "inputs": [],
      "name": "lpToken",
      "outputs": [
        {
          "internalType": "address",
          "name": "",
          "type": "address"
        }
      ],
      "stateMutability": "view",
      "type": "function"
    },
    {
      "inputs": [],
      "name": "nonce",
      "outputs": [
        {
          "internalType": "uint256",
          "name": "",
          "type": "uint256"
        }
      ],
      "stateMutability": "view",
      "type": "function"
    },
    {
      "inputs": [],
      "name": "owner",
      "outputs": [
        {
          "internalType": "address",
          "name": "",
          "type": "address"
        }
      ],
      "stateMutability": "view",
      "type": "function"
    },
    {
      "inputs": [],
      "name": "rewardToken",
      "outputs": [
        {
          "internalType": "address",
          "name": "",
          "type": "address"
        }
      ],
      "stateMutability": "view",
      "type": "function"
    },
    {
      "inputs": [
        {
          "internalType": "uint256",
          "name": "",
          "type": "uint256"
        }
      ],
      "name": "rewardsOf",
      "outputs": [
        {
          "internalType": "uint256",
          "name": "",
          "type": "uint256"
        }
      ],
      "stateMutability": "view",
      "type": "function"
    },
    {
      "inputs": [
        {
          "internalType": "uint256",
          "name": "no",
          "type": "uint256"
        },
        {
          "internalType": "uint256",
          "name": "amount",
          "type": "uint256"
        }
      ],
      "name": "setReward",
      "outputs": [],
      "stateMutability": "nonpayable",
      "type": "function"
    },
    {
      "inputs": [
        {
          "internalType": "uint256[]",
          "name": "nos",
          "type": "uint256[]"
        },
        {
          "internalType": "uint256[]",
          "name": "amounts",
          "type": "uint256[]"
        }
      ],
      "name": "setRewards",
      "outputs": [
        {
          "internalType": "uint256",
          "name": "total",
          "type": "uint256"
        }
      ],
      "stateMutability": "nonpayable",
      "type": "function"
    },
    {
      "inputs": [
        {
          "internalType": "uint256",
          "name": "amount",
          "type": "uint256"
        },
        {
          "internalType": "uint8",
          "name": "k",
          "type": "uint8"
        }
      ],
      "name": "stake",
      "outputs": [],
      "stateMutability": "nonpayable",
      "type": "function"
    },
    {
      "inputs": [
        {
          "internalType": "uint256",
          "name": "",
          "type": "uint256"
        }
      ],
      "name": "stakingERC20s",
      "outputs": [
        {
          "internalType": "uint256",
          "name": "amount",
          "type": "uint256"
        },
        {
          "internalType": "uint256",
          "name": "score",
          "type": "uint256"
        },
        {
          "internalType": "uint256",
          "name": "beginNo",
          "type": "uint256"
        },
        {
          "internalType": "uint256",
          "name": "endNo",
          "type": "uint256"
        }
      ],
      "stateMutability": "view",
      "type": "function"
    },
    {
      "inputs": [
        {
          "internalType": "uint256",
          "name": "",
          "type": "uint256"
        }
      ],
      "name": "totalScores",
      "outputs": [
        {
          "internalType": "uint256",
          "name": "",
          "type": "uint256"
        }
      ],
      "stateMutability": "view",
      "type": "function"
    },
    {
      "inputs": [
        {
          "internalType": "address",
          "name": "_owner",
          "type": "address"
        }
      ],
      "name": "transferOwner",
      "outputs": [],
      "stateMutability": "nonpayable",
      "type": "function"
    },
    {
      "inputs": [
        {
          "internalType": "address",
          "name": "",
          "type": "address"
        },
        {
          "internalType": "uint256",
          "name": "",
          "type": "uint256"
        }
      ],
      "name": "userCanClaimWeeks",
      "outputs": [
        {
          "internalType": "uint256",
          "name": "",
          "type": "uint256"
        }
      ],
      "stateMutability": "view",
      "type": "function"
    },
    {
      "inputs": [
        {
          "internalType": "address",
          "name": "",
          "type": "address"
        },
        {
          "internalType": "uint256",
          "name": "",
          "type": "uint256"
        }
      ],
      "name": "userERC20s",
      "outputs": [
        {
          "internalType": "uint256",
          "name": "",
          "type": "uint256"
        }
      ],
      "stateMutability": "view",
      "type": "function"
    },
    {
      "inputs": [
        {
          "internalType": "address",
          "name": "",
          "type": "address"
        },
        {
          "internalType": "uint256",
          "name": "",
          "type": "uint256"
        }
      ],
      "name": "userScores",
      "outputs": [
        {
          "internalType": "uint256",
          "name": "",
          "type": "uint256"
        }
      ],
      "stateMutability": "view",
      "type": "function"
    },
    {
      "inputs": [],
      "name": "withdraw",
      "outputs": [
        {
          "internalType": "uint256",
          "name": "total",
          "type": "uint256"
        }
      ],
      "stateMutability": "nonpayable",
      "type": "function"
    },
    {
      "inputs": [
        {
          "internalType": "uint256",
          "name": "amount",
          "type": "uint256"
        }
      ],
      "name": "withdrawRewards",
      "outputs": [],
      "stateMutability": "nonpayable",
      "type": "function"
    }
  ],
  "bytecode": "0x6101606040523480156200001257600080fd5b5060405162001d7f38038062001d7f8339810160408190526200003591620000ac565b6001600160a01b0391821660805260ff96871660a05260c0959095529490921660e0526101005261012052600080546001600160a01b03191633179055166101405262000126565b805160ff811681146200008f57600080fd5b919050565b80516001600160a01b03811681146200008f57600080fd5b600080600080600080600060e0888a031215620000c857600080fd5b620000d3886200007d565b965060208801519550620000ea604089016200007d565b945060608801519350608088015192506200010860a0890162000094565b91506200011860c0890162000094565b905092959891949750929550565b60805160a05160c05160e051610100516101205161014051611b726200020d600039600081816102f80152818161060801526109870152600081816102830152818161057e01528181610f1b0152611138015260008181610442015281816105a901528181610f46015261116301526000818161020c01528181610bca01528181610cb301528181610e5901526112460152600081816104c00152611471015260008181610486015281816105190152818161140d01526114380152600081816104e701528181610ec5015281816110a2015281816111a7015261134e0152611b726000f3fe608060405234801561001057600080fd5b50600436106101cf5760003560e01c80638da5cb5b11610104578063ba086501116100a2578063e11400bb11610071578063e11400bb14610481578063ee3453ed146104a8578063f6def7cf146104bb578063f7c618c1146104e257600080fd5b8063ba08650114610417578063bb57852d1461042a578063c75363b61461043d578063cd671a581461046457600080fd5b8063a218de15116100de578063a218de151461039e578063a47bd496146103f3578063affed0e014610406578063b88a802f1461040f57600080fd5b80638da5cb5b146103655780639342c8f414610378578063979db1c41461038b57600080fd5b80634fb2e45d116101715780635fcbd2851161014b5780635fcbd285146102f35780637b1391a6146103325780638431165e146103475780638923de2b1461034f57600080fd5b80634fb2e45d146102ad5780635b680a45146102c05780635f8e422f146102eb57600080fd5b8063157775df116101ad578063157775df1461025557806329ed1cfd1461027557806337ba682d1461027e5780633ccfd60b146102a557600080fd5b80630bce1284146101d45780630d437d401461020757806310087fb114610240575b600080fd5b6101f46101e23660046116f5565b60056020526000908152604090205481565b6040519081526020015b60405180910390f35b61022e7f000000000000000000000000000000000000000000000000000000000000000081565b60405160ff90911681526020016101fe565b61025361024e36600461170e565b610509565b005b6101f46102633660046116f5565b60046020526000908152604090205481565b6101f460065481565b6101f47f000000000000000000000000000000000000000000000000000000000000000081565b6101f461081a565b6102536102bb366004611760565b6109e7565b6101f46102ce36600461177b565b600260209081526000928352604080842090915290825290205481565b610253610a33565b61031a7f000000000000000000000000000000000000000000000000000000000000000081565b6040516001600160a01b0390911681526020016101fe565b61033a610a84565b6040516101fe91906117a5565b6101f4610bc3565b610357610caa565b6040516101fe929190611809565b60005461031a906001600160a01b031681565b6102536103863660046116f5565b610e96565b6101f4610399366004611908565b610eee565b6103d36103ac3660046116f5565b60086020526000908152604090208054600182015460028301546003909301549192909184565b6040805194855260208501939093529183015260608201526080016101fe565b61025361040136600461196c565b61110c565b6101f460075481565b610253611240565b6101f461042536600461177b565b6113ae565b6101f461043836600461177b565b6113df565b6101f47f000000000000000000000000000000000000000000000000000000000000000081565b61046d61025881565b60405162ffffff90911681526020016101fe565b61022e7f000000000000000000000000000000000000000000000000000000000000000081565b6101f46104b636600461170e565b611404565b6101f47f000000000000000000000000000000000000000000000000000000000000000081565b61031a7f000000000000000000000000000000000000000000000000000000000000000081565b60008160ff1611801561054257507f000000000000000000000000000000000000000000000000000000000000000060ff168160ff1611155b61057c5760405162461bcd60e51b8152602060048201526006602482015265359018bf1a9960d11b60448201526064015b60405180910390fd5b7f000000000000000000000000000000000000000000000000000000000000000042111580156105cc57507f00000000000000000000000000000000000000000000000000000000000000004210155b6105e85760405162461bcd60e51b81526004016105739061198e565b60006105f6610258426119cf565b6106019060016119f1565b905061062f7f00000000000000000000000000000000000000000000000000000000000000003330866114ce565b600061063b8484611404565b905060005b8360ff168160ff1610156106d557816004600061066060ff8516876119f1565b8152602001908152602001600020600082825461067d91906119f1565b909155505033600090815260026020526040812083916106a060ff8516876119f1565b815260200190815260200160002060008282546106bd91906119f1565b909155508190506106cd81611a0a565b915050610640565b5060006106e560ff8516846119f1565b60408051608081018252878152602080820186815282840188815260608401868152600754600090815260088552868120955186559251600180870191909155915160028601555160039485015533825292909152919091209081015490549192509003610760573360009081526003602052604090208390555b3360009081526003602052604090208190600101541015610791573360009081526003602052604090208190600101555b33600081815260096020908152604080832060078054825460018101845592865294849020909101939093559154825190815290810188905260ff87168183015290517f6fa2f6021ee337436cdf2b2570285886da18bc06402ce284d296504a0fe8f8759181900360600190a26007805490600061080e83611a3f565b91905055505050505050565b600080610829610258426119cf565b336000908152600960205260409020549091505b336000908152600960205260409020541561097c578061085c81611a58565b3360009081526009602052604081208054929450909250908390811061088457610884611a29565b9060005260206000200154905082600860008381526020019081526020016000206003015411610968576000818152600860205260409020546108c790856119f1565b3360009081526009602052604090208054919550906108e890600190611a6f565b815481106108f8576108f8611a29565b60009182526020808320909101543383526009909152604090912080548490811061092557610925611a29565b600091825260208083209091019290925533815260099091526040902080548061095157610951611a82565b600190038181906000526020600020016000905590555b81600003610976575061097c565b5061083d565b82156109ad576109ad7f000000000000000000000000000000000000000000000000000000000000000033856115e8565b60405183815233907f884edad9ce6fa2440d8a54cc123490eb96d2768479d49ff9c7366125a94243649060200160405180910390a2505090565b6000546001600160a01b03163314610a115760405162461bcd60e51b815260040161057390611a98565b600180546001600160a01b0319166001600160a01b0392909216919091179055565b6001546001600160a01b03163314610a5d5760405162461bcd60e51b815260040161057390611a98565b60018054600080546001600160a01b03199081166001600160a01b03841617909155169055565b336000908152600960205260408120546060918167ffffffffffffffff811115610ab057610ab0611857565b604051908082528060200260200182016040528015610b0c57816020015b610af96040518060800160405280600081526020016000815260200160008152602001600081525090565b815260200190600190039081610ace5790505b50905060005b82811015610bbc573360009081526009602052604081208054600892919084908110610b4057610b40611a29565b90600052602060002001548152602001908152602001600020604051806080016040529081600082015481526020016001820154815260200160028201548152602001600382015481525050828281518110610b9e57610b9e611a29565b60200260200101819052508080610bb490611a3f565b915050610b12565b5092915050565b60008060ff7f000000000000000000000000000000000000000000000000000000000000000016610bf6610258426119cf565b610c009190611a6f565b33600090815260036020526040812054919250905b33600090815260036020526040902060010154811015610bbc57828111610bbc5760008181526004602052604090205415610c9857600081815260046020908152604080832054338452600283528184208585528352818420546005909352922054610c819190611abb565b610c8b91906119cf565b610c9590836119f1565b91505b80610ca281611a3f565b915050610c15565b600060608160ff7f000000000000000000000000000000000000000000000000000000000000000016610cdf610258426119cf565b610ce99190611a6f565b610cf49060016119f1565b33600090815260036020526040902090915081906001015411610d295760408051600081526020810190915290939092509050565b33600090815260036020526040812080546001909101549091838311610d4f5783610d51565b825b90506000610d5f8284611a6f565b67ffffffffffffffff811115610d7757610d77611857565b604051908082528060200260200182016040528015610da0578160200160208202803683370190505b509050815b83811015610e425760008181526004602052604090205415610e0757600081815260046020908152604080832054338452600283528184208585528352818420546005909352922054610df89190611abb565b610e0291906119cf565b610e0a565b60005b82610e158584611a6f565b81518110610e2557610e25611a29565b602090810291909101015280610e3a81611a3f565b915050610da5565b506000610e51610258426119cf565b610e7e8460ff7f0000000000000000000000000000000000000000000000000000000000000000166119f1565b610e889190611a6f565b989197509095505050505050565b6000546001600160a01b03163314610ec05760405162461bcd60e51b815260040161057390611a98565b610eeb7f000000000000000000000000000000000000000000000000000000000000000033836115e8565b50565b600080546001600160a01b03163314610f195760405162461bcd60e51b815260040161057390611a98565b7f00000000000000000000000000000000000000000000000000000000000000004211158015610f6957507f00000000000000000000000000000000000000000000000000000000000000004210155b610f855760405162461bcd60e51b81526004016105739061198e565b8151835114610fc95760405162461bcd60e51b815260206004820152601060248201526f3830b930b6b2ba32b9399032b93937b960811b6044820152606401610573565b6000805b845181101561109757838181518110610fe857610fe8611a29565b602002602001015183610ffb91906119f1565b925083818151811061100f5761100f611a29565b60200260200101516005600087848151811061102d5761102d611a29565b60200260200101518152602001908152602001600020819055508185828151811061105a5761105a611a29565b602002602001015111156110855784818151811061107a5761107a611a29565b602002602001015191505b8061108f81611a3f565b915050610fcd565b5060068190556110c97f00000000000000000000000000000000000000000000000000000000000000003330856114ce565b60408051600081526020810184905233917fc3991418cacd70a010fce559a44fcbb47534ca43bf7543964bdca2639f6e6e5a910160405180910390a25092915050565b6000546001600160a01b031633146111365760405162461bcd60e51b815260040161057390611a98565b7f0000000000000000000000000000000000000000000000000000000000000000421115801561118657507f00000000000000000000000000000000000000000000000000000000000000004210155b6111a25760405162461bcd60e51b81526004016105739061198e565b6111ce7f00000000000000000000000000000000000000000000000000000000000000003330846114ce565b600082815260056020526040812080548392906111ec9084906119f1565b90915550506006548211156112015760068290555b604080518381526020810183905233917fc3991418cacd70a010fce559a44fcbb47534ca43bf7543964bdca2639f6e6e5a910160405180910390a25050565b600060ff7f000000000000000000000000000000000000000000000000000000000000000016611272610258426119cf565b61127c9190611a6f565b3360009081526003602052604081205491925090805b3360009081526003602052604090206001015481101561133557838111611335576112be8160016119f1565b600082815260046020526040902054909250156113235760008181526004602090815260408083205433845260028352818420858552835281842054600590935292205461130c9190611abb565b61131691906119cf565b61132090846119f1565b92505b8061132d81611a3f565b915050611292565b50336000908152600360205260408120829101556113747f000000000000000000000000000000000000000000000000000000000000000033846115e8565b60405182815233907fba8de60c3403ec381d1d484652ea1980e3c3e56359195c92525bff4ce47ad98e9060200160405180910390a2505050565b600960205281600052604060002081815481106113ca57600080fd5b90600052602060002001600091509150505481565b600360205281600052604060002081600281106113fb57600080fd5b01549150829050565b600061143160017f0000000000000000000000000000000000000000000000000000000000000000611ad2565b60ff1660017f000000000000000000000000000000000000000000000000000000000000000060ff166001856114679190611ad2565b60ff1661149560017f0000000000000000000000000000000000000000000000000000000000000000611a6f565b61149f9190611abb565b6114a991906119f1565b6114b39190611a6f565b6114bd9085611abb565b6114c791906119cf565b9392505050565b604080516001600160a01b0385811660248301528481166044830152606480830185905283518084039091018152608490920183526020820180516001600160e01b03166323b872dd60e01b17905291516000928392908816916115329190611aeb565b6000604051808303816000865af19150503d806000811461156f576040519150601f19603f3d011682016040523d82523d6000602084013e611574565b606091505b509150915081801561159e57508051158061159e57508080602001905181019061159e9190611b1a565b6115e05760405162461bcd60e51b81526020600482015260136024820152721d1c985b9cd9995c919c9bdb4819985a5b1959606a1b6044820152606401610573565b505050505050565b604080516001600160a01b038481166024830152604480830185905283518084039091018152606490920183526020820180516001600160e01b031663a9059cbb60e01b17905291516000928392908716916116449190611aeb565b6000604051808303816000865af19150503d8060008114611681576040519150601f19603f3d011682016040523d82523d6000602084013e611686565b606091505b50915091508180156116b05750805115806116b05750808060200190518101906116b09190611b1a565b6116ee5760405162461bcd60e51b815260206004820152600f60248201526e1514905394d1915497d19052531151608a1b6044820152606401610573565b5050505050565b60006020828403121561170757600080fd5b5035919050565b6000806040838503121561172157600080fd5b82359150602083013560ff8116811461173957600080fd5b809150509250929050565b80356001600160a01b038116811461175b57600080fd5b919050565b60006020828403121561177257600080fd5b6114c782611744565b6000806040838503121561178e57600080fd5b61179783611744565b946020939093013593505050565b602080825282518282018190526000919060409081850190868401855b828110156117fc578151805185528681015187860152858101518686015260609081015190850152608090930192908501906001016117c2565b5091979650505050505050565b6000604082018483526020604081850152818551808452606086019150828701935060005b8181101561184a5784518352938301939183019160010161182e565b5090979650505050505050565b634e487b7160e01b600052604160045260246000fd5b600082601f83011261187e57600080fd5b8135602067ffffffffffffffff8083111561189b5761189b611857565b8260051b604051601f19603f830116810181811084821117156118c0576118c0611857565b6040529384528581018301938381019250878511156118de57600080fd5b83870191505b848210156118fd578135835291830191908301906118e4565b979650505050505050565b6000806040838503121561191b57600080fd5b823567ffffffffffffffff8082111561193357600080fd5b61193f8683870161186d565b9350602085013591508082111561195557600080fd5b506119628582860161186d565b9150509250929050565b6000806040838503121561197f57600080fd5b50508035926020909101359150565b6020808252601190820152701b9bdd081a5b881d1a19481c195c9a5bd9607a1b604082015260600190565b634e487b7160e01b600052601160045260246000fd5b6000826119ec57634e487b7160e01b600052601260045260246000fd5b500490565b80820180821115611a0457611a046119b9565b92915050565b600060ff821660ff8103611a2057611a206119b9565b60010192915050565b634e487b7160e01b600052603260045260246000fd5b600060018201611a5157611a516119b9565b5060010190565b600081611a6757611a676119b9565b506000190190565b81810381811115611a0457611a046119b9565b634e487b7160e01b600052603160045260246000fd5b6020808252600990820152683337b93134b23232b760b91b604082015260600190565b8082028115828204841417611a0457611a046119b9565b60ff8281168282160390811115611a0457611a046119b9565b6000825160005b81811015611b0c5760208186018101518583015201611af2565b506000920191825250919050565b600060208284031215611b2c57600080fd5b815180151581146114c757600080fdfea264697066735822122030bb56144ad684995e1b8126dc751628bef2ad59f39fa5e028fd5ed324a068b864736f6c63430008110033",
  "linkReferences": {},
  "deployedLinkReferences": {}
}