{
  "_format": "hh-sol-artifact-1",
  "contractName": "StakeERC20",
  "sourceName": "contracts/stakeERC20.sol",
  "abi": [
    {
      "inputs": [
        {
          "internalType": "uint8",
          "name": "maxWeeks",
          "type": "uint8"
        },
        {
          "internalType": "uint256",
          "name": "maxScale",
          "type": "uint256"
        },
        {
          "internalType": "uint8",
          "name": "lockWeeks",
          "type": "uint8"
        },
        {
          "internalType": "uint256",
          "name": "beginTime",
          "type": "uint256"
        },
        {
          "internalType": "uint256",
          "name": "endTime",
          "type": "uint256"
        },
        {
          "internalType": "address",
          "name": "_rewardToken",
          "type": "address"
        },
        {
          "internalType": "address",
          "name": "_lpToken",
          "type": "address"
        }
      ],
      "stateMutability": "nonpayable",
      "type": "constructor"
    },
    {
      "anonymous": false,
      "inputs": [
        {
          "indexed": true,
          "internalType": "address",
          "name": "user",
          "type": "address"
        },
        {
          "indexed": false,
          "internalType": "uint256",
          "name": "amount",
          "type": "uint256"
        }
      ],
      "name": "ClaimReward",
      "type": "event"
    },
    {
      "anonymous": false,
      "inputs": [
        {
          "indexed": true,
          "internalType": "address",
          "name": "user",
          "type": "address"
        },
        {
          "indexed": false,
          "internalType": "uint256",
          "name": "no",
          "type": "uint256"
        },
        {
          "indexed": false,
          "internalType": "uint256",
          "name": "amount",
          "type": "uint256"
        }
      ],
      "name": "SetReward",
      "type": "event"
    },
    {
      "anonymous": false,
      "inputs": [
        {
          "indexed": true,
          "internalType": "address",
          "name": "user",
          "type": "address"
        },
        {
          "indexed": false,
          "internalType": "uint256",
          "name": "id",
          "type": "uint256"
        },
        {
          "indexed": false,
          "internalType": "uint256",
          "name": "amount",
          "type": "uint256"
        },
        {
          "indexed": false,
          "internalType": "uint8",
          "name": "k",
          "type": "uint8"
        }
      ],
      "name": "Stake",
      "type": "event"
    },
    {
      "anonymous": false,
      "inputs": [
        {
          "indexed": true,
          "internalType": "address",
          "name": "user",
          "type": "address"
        },
        {
          "indexed": false,
          "internalType": "uint256",
          "name": "amount",
          "type": "uint256"
        }
      ],
      "name": "Withdraw",
      "type": "event"
    },
    {
      "inputs": [],
      "name": "BEGIN_TIME",
      "outputs": [
        {
          "internalType": "uint256",
          "name": "",
          "type": "uint256"
        }
      ],
      "stateMutability": "view",
      "type": "function"
    },
    {
      "inputs": [],
      "name": "END_TIME",
      "outputs": [
        {
          "internalType": "uint256",
          "name": "",
          "type": "uint256"
        }
      ],
      "stateMutability": "view",
      "type": "function"
    },
    {
      "inputs": [],
      "name": "LOCK_WEEKNUM",
      "outputs": [
        {
          "internalType": "uint8",
          "name": "",
          "type": "uint8"
        }
      ],
      "stateMutability": "view",
      "type": "function"
    },
    {
      "inputs": [],
      "name": "MAX_SCALE",
      "outputs": [
        {
          "internalType": "uint256",
          "name": "",
          "type": "uint256"
        }
      ],
      "stateMutability": "view",
      "type": "function"
    },
    {
      "inputs": [],
      "name": "MAX_WEEKS",
      "outputs": [
        {
          "internalType": "uint8",
          "name": "",
          "type": "uint8"
        }
      ],
      "stateMutability": "view",
      "type": "function"
    },
    {
      "inputs": [],
      "name": "WEEK_SECONDS",
      "outputs": [
        {
          "internalType": "uint24",
          "name": "",
          "type": "uint24"
        }
      ],
      "stateMutability": "view",
      "type": "function"
    },
    {
      "inputs": [],
      "name": "acceptSetter",
      "outputs": [],
      "stateMutability": "nonpayable",
      "type": "function"
    },
    {
      "inputs": [],
      "name": "canClaimAmount",
      "outputs": [
        {
          "internalType": "uint256",
          "name": "",
          "type": "uint256"
        }
      ],
      "stateMutability": "view",
      "type": "function"
    },
    {
      "inputs": [
        {
          "internalType": "uint256",
          "name": "deadline",
          "type": "uint256"
        }
      ],
      "name": "claimReward",
      "outputs": [],
      "stateMutability": "nonpayable",
      "type": "function"
    },
    {
      "inputs": [
        {
          "internalType": "uint256",
          "name": "amount",
          "type": "uint256"
        },
        {
          "internalType": "uint8",
          "name": "k",
          "type": "uint8"
        }
      ],
      "name": "getScore",
      "outputs": [
        {
          "internalType": "uint256",
          "name": "score",
          "type": "uint256"
        }
      ],
      "stateMutability": "view",
      "type": "function"
    },
    {
      "inputs": [],
      "name": "getStaking",
      "outputs": [
        {
          "components": [
            {
              "internalType": "uint256",
              "name": "amount",
              "type": "uint256"
            },
            {
              "internalType": "uint256",
              "name": "score",
              "type": "uint256"
            },
            {
              "internalType": "uint256",
              "name": "beginNo",
              "type": "uint256"
            },
            {
              "internalType": "uint256",
              "name": "endNo",
              "type": "uint256"
            }
          ],
          "internalType": "struct StakeERC20.StakingERC20[]",
          "name": "",
          "type": "tuple[]"
        }
      ],
      "stateMutability": "view",
      "type": "function"
    },
    {
      "inputs": [],
      "name": "latestNo",
      "outputs": [
        {
          "internalType": "uint256",
          "name": "",
          "type": "uint256"
        }
      ],
      "stateMutability": "view",
      "type": "function"
    },
    {
      "inputs": [],
      "name": "lockedRewardAmount",
      "outputs": [
        {
          "internalType": "uint256",
          "name": "",
          "type": "uint256"
        },
        {
          "internalType": "uint256[]",
          "name": "",
          "type": "uint256[]"
        }
      ],
      "stateMutability": "view",
      "type": "function"
    },
    {
      "inputs": [],
      "name": "lpToken",
      "outputs": [
        {
          "internalType": "address",
          "name": "",
          "type": "address"
        }
      ],
      "stateMutability": "view",
      "type": "function"
    },
    {
      "inputs": [],
      "name": "nonce",
      "outputs": [
        {
          "internalType": "uint256",
          "name": "",
          "type": "uint256"
        }
      ],
      "stateMutability": "view",
      "type": "function"
    },
    {
      "inputs": [],
      "name": "owner",
      "outputs": [
        {
          "internalType": "address",
          "name": "",
          "type": "address"
        }
      ],
      "stateMutability": "view",
      "type": "function"
    },
    {
      "inputs": [],
      "name": "rewardToken",
      "outputs": [
        {
          "internalType": "address",
          "name": "",
          "type": "address"
        }
      ],
      "stateMutability": "view",
      "type": "function"
    },
    {
      "inputs": [
        {
          "internalType": "uint256",
          "name": "",
          "type": "uint256"
        }
      ],
      "name": "rewardsOf",
      "outputs": [
        {
          "internalType": "uint256",
          "name": "",
          "type": "uint256"
        }
      ],
      "stateMutability": "view",
      "type": "function"
    },
    {
      "inputs": [
        {
          "internalType": "uint256",
          "name": "no",
          "type": "uint256"
        },
        {
          "internalType": "uint256",
          "name": "amount",
          "type": "uint256"
        },
        {
          "internalType": "uint256",
          "name": "deadline",
          "type": "uint256"
        }
      ],
      "name": "setReward",
      "outputs": [],
      "stateMutability": "nonpayable",
      "type": "function"
    },
    {
      "inputs": [
        {
          "internalType": "uint256[]",
          "name": "nos",
          "type": "uint256[]"
        },
        {
          "internalType": "uint256[]",
          "name": "amounts",
          "type": "uint256[]"
        },
        {
          "internalType": "uint256",
          "name": "deadline",
          "type": "uint256"
        }
      ],
      "name": "setRewards",
      "outputs": [
        {
          "internalType": "uint256",
          "name": "total",
          "type": "uint256"
        }
      ],
      "stateMutability": "nonpayable",
      "type": "function"
    },
    {
      "inputs": [
        {
          "internalType": "uint256",
          "name": "amount",
          "type": "uint256"
        },
        {
          "internalType": "uint8",
          "name": "k",
          "type": "uint8"
        },
        {
          "internalType": "uint256",
          "name": "deadline",
          "type": "uint256"
        }
      ],
      "name": "stake",
      "outputs": [],
      "stateMutability": "nonpayable",
      "type": "function"
    },
    {
      "inputs": [
        {
          "internalType": "uint256",
          "name": "",
          "type": "uint256"
        }
      ],
      "name": "stakingERC20s",
      "outputs": [
        {
          "internalType": "uint256",
          "name": "amount",
          "type": "uint256"
        },
        {
          "internalType": "uint256",
          "name": "score",
          "type": "uint256"
        },
        {
          "internalType": "uint256",
          "name": "beginNo",
          "type": "uint256"
        },
        {
          "internalType": "uint256",
          "name": "endNo",
          "type": "uint256"
        }
      ],
      "stateMutability": "view",
      "type": "function"
    },
    {
      "inputs": [
        {
          "internalType": "uint256",
          "name": "",
          "type": "uint256"
        }
      ],
      "name": "totalScores",
      "outputs": [
        {
          "internalType": "uint256",
          "name": "",
          "type": "uint256"
        }
      ],
      "stateMutability": "view",
      "type": "function"
    },
    {
      "inputs": [
        {
          "internalType": "address",
          "name": "_owner",
          "type": "address"
        }
      ],
      "name": "transferOwner",
      "outputs": [],
      "stateMutability": "nonpayable",
      "type": "function"
    },
    {
      "inputs": [
        {
          "internalType": "address",
          "name": "",
          "type": "address"
        },
        {
          "internalType": "uint256",
          "name": "",
          "type": "uint256"
        }
      ],
      "name": "userCanClaimWeeks",
      "outputs": [
        {
          "internalType": "uint256",
          "name": "",
          "type": "uint256"
        }
      ],
      "stateMutability": "view",
      "type": "function"
    },
    {
      "inputs": [
        {
          "internalType": "address",
          "name": "",
          "type": "address"
        },
        {
          "internalType": "uint256",
          "name": "",
          "type": "uint256"
        }
      ],
      "name": "userERC20s",
      "outputs": [
        {
          "internalType": "uint256",
          "name": "",
          "type": "uint256"
        }
      ],
      "stateMutability": "view",
      "type": "function"
    },
    {
      "inputs": [
        {
          "internalType": "address",
          "name": "",
          "type": "address"
        },
        {
          "internalType": "uint256",
          "name": "",
          "type": "uint256"
        }
      ],
      "name": "userScores",
      "outputs": [
        {
          "internalType": "uint256",
          "name": "",
          "type": "uint256"
        }
      ],
      "stateMutability": "view",
      "type": "function"
    },
    {
      "inputs": [
        {
          "internalType": "uint256",
          "name": "deadline",
          "type": "uint256"
        }
      ],
      "name": "withdraw",
      "outputs": [
        {
          "internalType": "uint256",
          "name": "total",
          "type": "uint256"
        }
      ],
      "stateMutability": "nonpayable",
      "type": "function"
    },
    {
      "inputs": [
        {
          "internalType": "uint256",
          "name": "amount",
          "type": "uint256"
        },
        {
          "internalType": "uint256",
          "name": "deadline",
          "type": "uint256"
        }
      ],
      "name": "withdrawRewards",
      "outputs": [],
      "stateMutability": "nonpayable",
      "type": "function"
    }
  ],
  "bytecode": "0x6101606040523480156200001257600080fd5b5060405162001ea938038062001ea98339810160408190526200003591620000ac565b6001600160a01b0391821660805260ff96871660a05260c0959095529490921660e0526101005261012052600080546001600160a01b03191633179055166101405262000126565b805160ff811681146200008f57600080fd5b919050565b80516001600160a01b03811681146200008f57600080fd5b600080600080600080600060e0888a031215620000c857600080fd5b620000d3886200007d565b965060208801519550620000ea604089016200007d565b945060608801519350608088015192506200010860a0890162000094565b91506200011860c0890162000094565b905092959891949750929550565b60805160a05160c05160e051610100516101205161014051611caa620001ff600039600081816103160152818161088d01526113850152600081816102940152818161104e01526112d701526000818161043201528181611079015261130201526000818161021f01528181610b4e01528181610c3701528181610ddd0152610e410152600081816104c301526111e901526000818161047601528181611185015281816111b001526112770152600081816104ea015281816106920152818161098c01528181610f4901526110e10152611caa6000f3fe608060405234801561001057600080fd5b50600436106101cf5760003560e01c80638923de2b11610104578063c75363b6116100a2578063ee3453ed11610071578063ee3453ed146104ab578063f6def7cf146104be578063f7c618c1146104e5578063f99b7d751461050c57600080fd5b8063c75363b61461042d578063cd671a5814610454578063e11400bb14610471578063e1c05d931461049857600080fd5b8063ae169a50116100de578063ae169a50146103eb578063affed0e0146103fe578063ba08650114610407578063bb57852d1461041a57600080fd5b80638923de2b1461036d5780638da5cb5b14610383578063a218de151461039657600080fd5b80634fb2e45d116101715780635f8e422f1161014b5780635f8e422f146103095780635fcbd285146103115780637b1391a6146103505780638431165e1461036557600080fd5b80634fb2e45d146102b657806352cb5133146102cb5780635b680a45146102de57600080fd5b8063157775df116101ad578063157775df1461025357806329ed1cfd146102735780632e1a7d4d1461027c57806337ba682d1461028f57600080fd5b806307c6e2fa146101d45780630bce1284146101fa5780630d437d401461021a575b600080fd5b6101e76101e2366004611871565b61051f565b6040519081526020015b60405180910390f35b6101e76102083660046118de565b60056020526000908152604090205481565b6102417f000000000000000000000000000000000000000000000000000000000000000081565b60405160ff90911681526020016101f1565b6101e76102613660046118de565b60046020526000908152604090205481565b6101e760065481565b6101e761028a3660046118de565b6106fe565b6101e77f000000000000000000000000000000000000000000000000000000000000000081565b6102c96102c4366004611913565b6108f0565b005b6102c96102d936600461192e565b61093c565b6101e76102ec366004611950565b600260209081526000928352604080842090915290825290205481565b6102c96109b7565b6103387f000000000000000000000000000000000000000000000000000000000000000081565b6040516001600160a01b0390911681526020016101f1565b610358610a08565b6040516101f1919061197a565b6101e7610b47565b610375610c2e565b6040516101f19291906119de565b600054610338906001600160a01b031681565b6103cb6103a43660046118de565b60086020526000908152604090208054600182015460028301546003909301549192909184565b6040805194855260208501939093529183015260608201526080016101f1565b6102c96103f93660046118de565b610e1a565b6101e760075481565b6101e7610415366004611950565b610fab565b6101e7610428366004611950565b610fdc565b6101e77f000000000000000000000000000000000000000000000000000000000000000081565b61045d610e1081565b60405162ffffff90911681526020016101f1565b6102417f000000000000000000000000000000000000000000000000000000000000000081565b6102c96104a6366004611a2c565b611001565b6101e76104b9366004611a69565b61117c565b6101e77f000000000000000000000000000000000000000000000000000000000000000081565b6103387f000000000000000000000000000000000000000000000000000000000000000081565b6102c961051a366004611a95565b611246565b6000818042111561054b5760405162461bcd60e51b815260040161054290611aca565b60405180910390fd5b6000546001600160a01b031633146105755760405162461bcd60e51b815260040161054290611af1565b83518551146105b95760405162461bcd60e51b815260206004820152601060248201526f3830b930b6b2ba32b9399032b93937b960811b6044820152606401610542565b6000805b8651811015610687578581815181106105d8576105d8611b14565b6020026020010151846105eb9190611b40565b93508581815181106105ff576105ff611b14565b60200260200101516005600089848151811061061d5761061d611b14565b60200260200101518152602001908152602001600020819055508187828151811061064a5761064a611b14565b602002602001015111156106755786818151811061066a5761066a611b14565b602002602001015191505b8061067f81611b59565b9150506105bd565b5060068190556106b97f0000000000000000000000000000000000000000000000000000000000000000333086611599565b60408051600081526020810185905233917fc3991418cacd70a010fce559a44fcbb47534ca43bf7543964bdca2639f6e6e5a910160405180910390a250509392505050565b600081804211156107215760405162461bcd60e51b815260040161054290611aca565b600061072f610e1042611b72565b336000908152600960205260409020549091505b3360009081526009602052604090205415610882578061076281611b94565b3360009081526009602052604081208054929450909250908390811061078a5761078a611b14565b906000526020600020015490508260086000838152602001908152602001600020600301541161086e576000818152600860205260409020546107cd9086611b40565b3360009081526009602052604090208054919650906107ee90600190611bab565b815481106107fe576107fe611b14565b60009182526020808320909101543383526009909152604090912080548490811061082b5761082b611b14565b600091825260208083209091019290925533815260099091526040902080548061085757610857611bbe565b600190038181906000526020600020016000905590555b8160000361087c5750610882565b50610743565b83156108b3576108b37f000000000000000000000000000000000000000000000000000000000000000033866116b3565b60405184815233907f884edad9ce6fa2440d8a54cc123490eb96d2768479d49ff9c7366125a94243649060200160405180910390a2505050919050565b6000546001600160a01b0316331461091a5760405162461bcd60e51b815260040161054290611af1565b600180546001600160a01b0319166001600160a01b0392909216919091179055565b808042111561095d5760405162461bcd60e51b815260040161054290611aca565b6000546001600160a01b031633146109875760405162461bcd60e51b815260040161054290611af1565b6109b27f000000000000000000000000000000000000000000000000000000000000000033856116b3565b505050565b6001546001600160a01b031633146109e15760405162461bcd60e51b815260040161054290611af1565b60018054600080546001600160a01b03199081166001600160a01b03841617909155169055565b336000908152600960205260408120546060918167ffffffffffffffff811115610a3457610a346117c0565b604051908082528060200260200182016040528015610a9057816020015b610a7d6040518060800160405280600081526020016000815260200160008152602001600081525090565b815260200190600190039081610a525790505b50905060005b82811015610b40573360009081526009602052604081208054600892919084908110610ac457610ac4611b14565b90600052602060002001548152602001908152602001600020604051806080016040529081600082015481526020016001820154815260200160028201548152602001600382015481525050828281518110610b2257610b22611b14565b60200260200101819052508080610b3890611b59565b915050610a96565b5092915050565b60008060ff7f000000000000000000000000000000000000000000000000000000000000000016610b7a610e1042611b72565b610b849190611bab565b33600090815260036020526040812054919250905b33600090815260036020526040902060010154811015610b4057828111610b405760008181526004602052604090205415610c1c57600081815260046020908152604080832054338452600283528184208585528352818420546005909352922054610c059190611bd4565b610c0f9190611b72565b610c199083611b40565b91505b80610c2681611b59565b915050610b99565b600060608160ff7f000000000000000000000000000000000000000000000000000000000000000016610c63610e1042611b72565b610c6d9190611bab565b610c78906001611b40565b33600090815260036020526040902090915081906001015411610cad5760408051600081526020810190915290939092509050565b33600090815260036020526040812080546001909101549091838311610cd35783610cd5565b825b90506000610ce38284611bab565b67ffffffffffffffff811115610cfb57610cfb6117c0565b604051908082528060200260200182016040528015610d24578160200160208202803683370190505b509050815b83811015610dc65760008181526004602052604090205415610d8b57600081815260046020908152604080832054338452600283528184208585528352818420546005909352922054610d7c9190611bd4565b610d869190611b72565b610d8e565b60005b82610d998584611bab565b81518110610da957610da9611b14565b602090810291909101015280610dbe81611b59565b915050610d29565b506000610dd5610e1042611b72565b610e028460ff7f000000000000000000000000000000000000000000000000000000000000000016611b40565b610e0c9190611bab565b989197509095505050505050565b8080421115610e3b5760405162461bcd60e51b815260040161054290611aca565b600060ff7f000000000000000000000000000000000000000000000000000000000000000016610e6d610e1042611b72565b610e779190611bab565b3360009081526003602052604081205491925090805b33600090815260036020526040902060010154811015610f3057838111610f3057610eb9816001611b40565b60008281526004602052604090205490925015610f1e57600081815260046020908152604080832054338452600283528184208585528352818420546005909352922054610f079190611bd4565b610f119190611b72565b610f1b9084611b40565b92505b80610f2881611b59565b915050610e8d565b5033600090815260036020526040812082910155610f6f7f000000000000000000000000000000000000000000000000000000000000000033846116b3565b60405182815233907fba8de60c3403ec381d1d484652ea1980e3c3e56359195c92525bff4ce47ad98e9060200160405180910390a25050505050565b60096020528160005260406000208181548110610fc757600080fd5b90600052602060002001600091509150505481565b60036020528160005260406000208160028110610ff857600080fd5b01549150829050565b80804211156110225760405162461bcd60e51b815260040161054290611aca565b6000546001600160a01b0316331461104c5760405162461bcd60e51b815260040161054290611af1565b7f0000000000000000000000000000000000000000000000000000000000000000421115801561109c57507f00000000000000000000000000000000000000000000000000000000000000004210155b6110dc5760405162461bcd60e51b81526020600482015260116024820152701b9bdd081a5b881d1a19481c195c9a5bd9607a1b6044820152606401610542565b6111087f0000000000000000000000000000000000000000000000000000000000000000333086611599565b60008481526005602052604081208054859290611126908490611b40565b909155505060065484111561113b5760068490555b604080518581526020810185905233917fc3991418cacd70a010fce559a44fcbb47534ca43bf7543964bdca2639f6e6e5a910160405180910390a250505050565b60006111a960017f0000000000000000000000000000000000000000000000000000000000000000611beb565b60ff1660017f000000000000000000000000000000000000000000000000000000000000000060ff166001856111df9190611beb565b60ff1661120d60017f0000000000000000000000000000000000000000000000000000000000000000611bab565b6112179190611bd4565b6112219190611b40565b61122b9190611bab565b6112359085611bd4565b61123f9190611b72565b9392505050565b80804211156112675760405162461bcd60e51b815260040161054290611aca565b60008360ff161180156112a057507f000000000000000000000000000000000000000000000000000000000000000060ff168360ff1611155b6112d55760405162461bcd60e51b8152602060048201526006602482015265359018bf1a9960d11b6044820152606401610542565b7f0000000000000000000000000000000000000000000000000000000000000000421115801561132557507f00000000000000000000000000000000000000000000000000000000000000004210155b6113655760405162461bcd60e51b81526020600482015260116024820152701b9bdd081a5b881d1a19481c195c9a5bd9607a1b6044820152606401610542565b6000611373610e1042611b72565b61137e906001611b40565b90506113ac7f0000000000000000000000000000000000000000000000000000000000000000333088611599565b60006113b8868661117c565b905060005b8560ff168160ff1610156114525781600460006113dd60ff851687611b40565b815260200190815260200160002060008282546113fa9190611b40565b9091555050336000908152600260205260408120839161141d60ff851687611b40565b8152602001908152602001600020600082825461143a9190611b40565b9091555081905061144a81611c04565b9150506113bd565b50600061146260ff871684611b40565b604080516080810182528981526020808201868152828401888152606084018681526007546000908152600885528681209551865592516001808701919091559151600286015551600394850155338252929091529190912090810154905491925090036114dd573360009081526003602052604090208390555b336000908152600360205260409020819060010154101561150e573360009081526003602052604090208190600101555b3360008181526009602090815260408083206007805482546001810184559286529484902090910193909355915482519081529081018a905260ff89168183015290517f6fa2f6021ee337436cdf2b2570285886da18bc06402ce284d296504a0fe8f8759181900360600190a26007805490600061158b83611b59565b919050555050505050505050565b604080516001600160a01b0385811660248301528481166044830152606480830185905283518084039091018152608490920183526020820180516001600160e01b03166323b872dd60e01b17905291516000928392908816916115fd9190611c23565b6000604051808303816000865af19150503d806000811461163a576040519150601f19603f3d011682016040523d82523d6000602084013e61163f565b606091505b50915091508180156116695750805115806116695750808060200190518101906116699190611c52565b6116ab5760405162461bcd60e51b81526020600482015260136024820152721d1c985b9cd9995c919c9bdb4819985a5b1959606a1b6044820152606401610542565b505050505050565b604080516001600160a01b038481166024830152604480830185905283518084039091018152606490920183526020820180516001600160e01b031663a9059cbb60e01b179052915160009283929087169161170f9190611c23565b6000604051808303816000865af19150503d806000811461174c576040519150601f19603f3d011682016040523d82523d6000602084013e611751565b606091505b509150915081801561177b57508051158061177b57508080602001905181019061177b9190611c52565b6117b95760405162461bcd60e51b815260206004820152600f60248201526e1514905394d1915497d19052531151608a1b6044820152606401610542565b5050505050565b634e487b7160e01b600052604160045260246000fd5b600082601f8301126117e757600080fd5b8135602067ffffffffffffffff80831115611804576118046117c0565b8260051b604051601f19603f83011681018181108482111715611829576118296117c0565b60405293845285810183019383810192508785111561184757600080fd5b83870191505b848210156118665781358352918301919083019061184d565b979650505050505050565b60008060006060848603121561188657600080fd5b833567ffffffffffffffff8082111561189e57600080fd5b6118aa878388016117d6565b945060208601359150808211156118c057600080fd5b506118cd868287016117d6565b925050604084013590509250925092565b6000602082840312156118f057600080fd5b5035919050565b80356001600160a01b038116811461190e57600080fd5b919050565b60006020828403121561192557600080fd5b61123f826118f7565b6000806040838503121561194157600080fd5b50508035926020909101359150565b6000806040838503121561196357600080fd5b61196c836118f7565b946020939093013593505050565b602080825282518282018190526000919060409081850190868401855b828110156119d157815180518552868101518786015285810151868601526060908101519085015260809093019290850190600101611997565b5091979650505050505050565b6000604082018483526020604081850152818551808452606086019150828701935060005b81811015611a1f57845183529383019391830191600101611a03565b5090979650505050505050565b600080600060608486031215611a4157600080fd5b505081359360208301359350604090920135919050565b803560ff8116811461190e57600080fd5b60008060408385031215611a7c57600080fd5b82359150611a8c60208401611a58565b90509250929050565b600080600060608486031215611aaa57600080fd5b83359250611aba60208501611a58565b9150604084013590509250925092565b6020808252600d908201526c6f76657220646561646c696e6560981b604082015260600190565b6020808252600990820152683337b93134b23232b760b91b604082015260600190565b634e487b7160e01b600052603260045260246000fd5b634e487b7160e01b600052601160045260246000fd5b80820180821115611b5357611b53611b2a565b92915050565b600060018201611b6b57611b6b611b2a565b5060010190565b600082611b8f57634e487b7160e01b600052601260045260246000fd5b500490565b600081611ba357611ba3611b2a565b506000190190565b81810381811115611b5357611b53611b2a565b634e487b7160e01b600052603160045260246000fd5b8082028115828204841417611b5357611b53611b2a565b60ff8281168282160390811115611b5357611b53611b2a565b600060ff821660ff8103611c1a57611c1a611b2a565b60010192915050565b6000825160005b81811015611c445760208186018101518583015201611c2a565b506000920191825250919050565b600060208284031215611c6457600080fd5b8151801515811461123f57600080fdfea264697066735822122074ceaf2524068d2dc8295acdf578628162a3ed0faca97f7b5a00cd084f5fe5ba64736f6c63430008110033",
  "linkReferences": {},
  "deployedLinkReferences": {}
}