{
  "_format": "hh-sol-artifact-1",
  "contractName": "StakeNFT721",
  "sourceName": "contracts/stakeNFT721.sol",
  "abi": [
    {
      "inputs": [
        {
          "internalType": "uint8",
          "name": "maxWeeks",
          "type": "uint8"
        },
        {
          "internalType": "uint256",
          "name": "maxScale",
          "type": "uint256"
        },
        {
          "internalType": "uint8",
          "name": "lockWeeks",
          "type": "uint8"
        },
        {
          "internalType": "uint256",
          "name": "beginTime",
          "type": "uint256"
        },
        {
          "internalType": "uint256",
          "name": "endTime",
          "type": "uint256"
        },
        {
          "internalType": "address",
          "name": "_rewardToken",
          "type": "address"
        },
        {
          "internalType": "address",
          "name": "tokenA",
          "type": "address"
        },
        {
          "internalType": "address",
          "name": "tokenB",
          "type": "address"
        },
        {
          "internalType": "uint24",
          "name": "_fee",
          "type": "uint24"
        },
        {
          "internalType": "address",
          "name": "nft",
          "type": "address"
        },
        {
          "internalType": "int24",
          "name": "tickMax",
          "type": "int24"
        }
      ],
      "stateMutability": "nonpayable",
      "type": "constructor"
    },
    {
      "anonymous": false,
      "inputs": [
        {
          "indexed": true,
          "internalType": "address",
          "name": "user",
          "type": "address"
        },
        {
          "indexed": false,
          "internalType": "uint256",
          "name": "amount",
          "type": "uint256"
        }
      ],
      "name": "ClaimReward",
      "type": "event"
    },
    {
      "anonymous": false,
      "inputs": [
        {
          "indexed": true,
          "internalType": "address",
          "name": "user",
          "type": "address"
        },
        {
          "indexed": false,
          "internalType": "uint256",
          "name": "no",
          "type": "uint256"
        },
        {
          "indexed": false,
          "internalType": "uint256",
          "name": "amount",
          "type": "uint256"
        }
      ],
      "name": "SetReward",
      "type": "event"
    },
    {
      "anonymous": false,
      "inputs": [
        {
          "indexed": true,
          "internalType": "address",
          "name": "user",
          "type": "address"
        },
        {
          "indexed": false,
          "internalType": "uint256",
          "name": "tokenId",
          "type": "uint256"
        },
        {
          "indexed": false,
          "internalType": "uint256",
          "name": "amount",
          "type": "uint256"
        },
        {
          "indexed": false,
          "internalType": "uint8",
          "name": "k",
          "type": "uint8"
        }
      ],
      "name": "Stake",
      "type": "event"
    },
    {
      "anonymous": false,
      "inputs": [
        {
          "indexed": true,
          "internalType": "address",
          "name": "user",
          "type": "address"
        },
        {
          "indexed": false,
          "internalType": "uint256",
          "name": "tokenId",
          "type": "uint256"
        }
      ],
      "name": "Withdraw",
      "type": "event"
    },
    {
      "anonymous": false,
      "inputs": [
        {
          "indexed": true,
          "internalType": "address",
          "name": "user",
          "type": "address"
        },
        {
          "indexed": false,
          "internalType": "uint128",
          "name": "liquidity",
          "type": "uint128"
        },
        {
          "indexed": false,
          "internalType": "uint256",
          "name": "tokenId",
          "type": "uint256"
        },
        {
          "indexed": false,
          "internalType": "uint256",
          "name": "mergeId",
          "type": "uint256"
        },
        {
          "indexed": false,
          "internalType": "uint256",
          "name": "token0Fee",
          "type": "uint256"
        },
        {
          "indexed": false,
          "internalType": "uint256",
          "name": "token1Fee",
          "type": "uint256"
        }
      ],
      "name": "WithdrawAndMerge",
      "type": "event"
    },
    {
      "inputs": [],
      "name": "BEGIN_TIME",
      "outputs": [
        {
          "internalType": "uint256",
          "name": "",
          "type": "uint256"
        }
      ],
      "stateMutability": "view",
      "type": "function"
    },
    {
      "inputs": [],
      "name": "END_TIME",
      "outputs": [
        {
          "internalType": "uint256",
          "name": "",
          "type": "uint256"
        }
      ],
      "stateMutability": "view",
      "type": "function"
    },
    {
      "inputs": [],
      "name": "LOCK_WEEKNUM",
      "outputs": [
        {
          "internalType": "uint8",
          "name": "",
          "type": "uint8"
        }
      ],
      "stateMutability": "view",
      "type": "function"
    },
    {
      "inputs": [],
      "name": "MAX_SCALE",
      "outputs": [
        {
          "internalType": "uint256",
          "name": "",
          "type": "uint256"
        }
      ],
      "stateMutability": "view",
      "type": "function"
    },
    {
      "inputs": [],
      "name": "MAX_TICK",
      "outputs": [
        {
          "internalType": "int24",
          "name": "",
          "type": "int24"
        }
      ],
      "stateMutability": "view",
      "type": "function"
    },
    {
      "inputs": [],
      "name": "MAX_WEEKS",
      "outputs": [
        {
          "internalType": "uint8",
          "name": "",
          "type": "uint8"
        }
      ],
      "stateMutability": "view",
      "type": "function"
    },
    {
      "inputs": [],
      "name": "MIN_TICK",
      "outputs": [
        {
          "internalType": "int24",
          "name": "",
          "type": "int24"
        }
      ],
      "stateMutability": "view",
      "type": "function"
    },
    {
      "inputs": [],
      "name": "WEEK_SECONDS",
      "outputs": [
        {
          "internalType": "uint24",
          "name": "",
          "type": "uint24"
        }
      ],
      "stateMutability": "view",
      "type": "function"
    },
    {
      "inputs": [],
      "name": "acceptSetter",
      "outputs": [],
      "stateMutability": "nonpayable",
      "type": "function"
    },
    {
      "inputs": [
        {
          "internalType": "address",
          "name": "user",
          "type": "address"
        }
      ],
      "name": "canClaimAmount",
      "outputs": [
        {
          "internalType": "uint256",
          "name": "",
          "type": "uint256"
        }
      ],
      "stateMutability": "view",
      "type": "function"
    },
    {
      "inputs": [
        {
          "internalType": "uint256",
          "name": "deadline",
          "type": "uint256"
        }
      ],
      "name": "claimReward",
      "outputs": [],
      "stateMutability": "nonpayable",
      "type": "function"
    },
    {
      "inputs": [],
      "name": "fee",
      "outputs": [
        {
          "internalType": "uint24",
          "name": "",
          "type": "uint24"
        }
      ],
      "stateMutability": "view",
      "type": "function"
    },
    {
      "inputs": [
        {
          "internalType": "uint256",
          "name": "amount",
          "type": "uint256"
        },
        {
          "internalType": "uint8",
          "name": "k",
          "type": "uint8"
        }
      ],
      "name": "getScore",
      "outputs": [
        {
          "internalType": "uint256",
          "name": "score",
          "type": "uint256"
        }
      ],
      "stateMutability": "view",
      "type": "function"
    },
    {
      "inputs": [],
      "name": "getUserNFTs",
      "outputs": [
        {
          "internalType": "uint256[]",
          "name": "",
          "type": "uint256[]"
        },
        {
          "internalType": "uint256",
          "name": "",
          "type": "uint256"
        }
      ],
      "stateMutability": "view",
      "type": "function"
    },
    {
      "inputs": [],
      "name": "latestNo",
      "outputs": [
        {
          "internalType": "uint256",
          "name": "",
          "type": "uint256"
        }
      ],
      "stateMutability": "view",
      "type": "function"
    },
    {
      "inputs": [
        {
          "internalType": "address",
          "name": "user",
          "type": "address"
        }
      ],
      "name": "lockedRewardAmount",
      "outputs": [
        {
          "internalType": "uint256",
          "name": "",
          "type": "uint256"
        },
        {
          "internalType": "uint256[]",
          "name": "",
          "type": "uint256[]"
        }
      ],
      "stateMutability": "view",
      "type": "function"
    },
    {
      "inputs": [],
      "name": "nftToken",
      "outputs": [
        {
          "internalType": "contract IIotabeeSwapNFT",
          "name": "",
          "type": "address"
        }
      ],
      "stateMutability": "view",
      "type": "function"
    },
    {
      "inputs": [
        {
          "internalType": "address",
          "name": "",
          "type": "address"
        },
        {
          "internalType": "address",
          "name": "",
          "type": "address"
        },
        {
          "internalType": "uint256",
          "name": "",
          "type": "uint256"
        },
        {
          "internalType": "bytes",
          "name": "",
          "type": "bytes"
        }
      ],
      "name": "onERC721Received",
      "outputs": [
        {
          "internalType": "bytes4",
          "name": "",
          "type": "bytes4"
        }
      ],
      "stateMutability": "pure",
      "type": "function"
    },
    {
      "inputs": [],
      "name": "owner",
      "outputs": [
        {
          "internalType": "address",
          "name": "",
          "type": "address"
        }
      ],
      "stateMutability": "view",
      "type": "function"
    },
    {
      "inputs": [],
      "name": "rewardToken",
      "outputs": [
        {
          "internalType": "address",
          "name": "",
          "type": "address"
        }
      ],
      "stateMutability": "view",
      "type": "function"
    },
    {
      "inputs": [
        {
          "internalType": "uint256",
          "name": "",
          "type": "uint256"
        }
      ],
      "name": "rewardsOf",
      "outputs": [
        {
          "internalType": "uint256",
          "name": "",
          "type": "uint256"
        }
      ],
      "stateMutability": "view",
      "type": "function"
    },
    {
      "inputs": [
        {
          "internalType": "uint256",
          "name": "no",
          "type": "uint256"
        },
        {
          "internalType": "uint256",
          "name": "amount",
          "type": "uint256"
        },
        {
          "internalType": "uint256",
          "name": "deadline",
          "type": "uint256"
        }
      ],
      "name": "setReward",
      "outputs": [],
      "stateMutability": "nonpayable",
      "type": "function"
    },
    {
      "inputs": [
        {
          "internalType": "uint256[]",
          "name": "nos",
          "type": "uint256[]"
        },
        {
          "internalType": "uint256[]",
          "name": "amounts",
          "type": "uint256[]"
        },
        {
          "internalType": "uint256",
          "name": "deadline",
          "type": "uint256"
        }
      ],
      "name": "setRewards",
      "outputs": [
        {
          "internalType": "uint256",
          "name": "total",
          "type": "uint256"
        }
      ],
      "stateMutability": "nonpayable",
      "type": "function"
    },
    {
      "inputs": [
        {
          "internalType": "uint256",
          "name": "tokenId",
          "type": "uint256"
        },
        {
          "internalType": "uint8",
          "name": "k",
          "type": "uint8"
        },
        {
          "internalType": "uint256",
          "name": "deadline",
          "type": "uint256"
        }
      ],
      "name": "stake",
      "outputs": [],
      "stateMutability": "nonpayable",
      "type": "function"
    },
    {
      "inputs": [
        {
          "internalType": "uint256",
          "name": "",
          "type": "uint256"
        }
      ],
      "name": "stakingNFTs",
      "outputs": [
        {
          "internalType": "address",
          "name": "owner",
          "type": "address"
        },
        {
          "internalType": "uint256",
          "name": "score",
          "type": "uint256"
        },
        {
          "internalType": "uint256",
          "name": "beginNo",
          "type": "uint256"
        },
        {
          "internalType": "uint256",
          "name": "endNo",
          "type": "uint256"
        }
      ],
      "stateMutability": "view",
      "type": "function"
    },
    {
      "inputs": [],
      "name": "token0",
      "outputs": [
        {
          "internalType": "address",
          "name": "",
          "type": "address"
        }
      ],
      "stateMutability": "view",
      "type": "function"
    },
    {
      "inputs": [],
      "name": "token1",
      "outputs": [
        {
          "internalType": "address",
          "name": "",
          "type": "address"
        }
      ],
      "stateMutability": "view",
      "type": "function"
    },
    {
      "inputs": [
        {
          "internalType": "uint256",
          "name": "",
          "type": "uint256"
        }
      ],
      "name": "totalScores",
      "outputs": [
        {
          "internalType": "uint256",
          "name": "",
          "type": "uint256"
        }
      ],
      "stateMutability": "view",
      "type": "function"
    },
    {
      "inputs": [
        {
          "internalType": "address",
          "name": "_owner",
          "type": "address"
        }
      ],
      "name": "transferOwner",
      "outputs": [],
      "stateMutability": "nonpayable",
      "type": "function"
    },
    {
      "inputs": [
        {
          "internalType": "address",
          "name": "",
          "type": "address"
        },
        {
          "internalType": "uint256",
          "name": "",
          "type": "uint256"
        }
      ],
      "name": "userCanClaimWeeks",
      "outputs": [
        {
          "internalType": "uint256",
          "name": "",
          "type": "uint256"
        }
      ],
      "stateMutability": "view",
      "type": "function"
    },
    {
      "inputs": [
        {
          "internalType": "address",
          "name": "",
          "type": "address"
        },
        {
          "internalType": "uint256",
          "name": "",
          "type": "uint256"
        }
      ],
      "name": "userNFTs",
      "outputs": [
        {
          "internalType": "uint256",
          "name": "",
          "type": "uint256"
        }
      ],
      "stateMutability": "view",
      "type": "function"
    },
    {
      "inputs": [
        {
          "internalType": "address",
          "name": "",
          "type": "address"
        },
        {
          "internalType": "uint256",
          "name": "",
          "type": "uint256"
        }
      ],
      "name": "userScores",
      "outputs": [
        {
          "internalType": "uint256",
          "name": "",
          "type": "uint256"
        }
      ],
      "stateMutability": "view",
      "type": "function"
    },
    {
      "inputs": [
        {
          "internalType": "uint256",
          "name": "tokenId",
          "type": "uint256"
        },
        {
          "internalType": "uint256",
          "name": "deadline",
          "type": "uint256"
        }
      ],
      "name": "withdraw",
      "outputs": [],
      "stateMutability": "nonpayable",
      "type": "function"
    },
    {
      "inputs": [
        {
          "internalType": "uint256",
          "name": "tokenId",
          "type": "uint256"
        },
        {
          "internalType": "uint256",
          "name": "mergeTokenId",
          "type": "uint256"
        },
        {
          "internalType": "uint256",
          "name": "deadline",
          "type": "uint256"
        }
      ],
      "name": "withdrawAndMerge",
      "outputs": [],
      "stateMutability": "nonpayable",
      "type": "function"
    },
    {
      "inputs": [
        {
          "internalType": "uint256",
          "name": "amount",
          "type": "uint256"
        },
        {
          "internalType": "uint256",
          "name": "deadline",
          "type": "uint256"
        }
      ],
      "name": "withdrawRewards",
      "outputs": [],
      "stateMutability": "nonpayable",
      "type": "function"
    }
  ],
  "bytecode": "0x6102006040523480156200001257600080fd5b506040516200312438038062003124833981016040819052620000359162000205565b6001600160a01b0380871660805260ff808d1660a05260c08c90528a1660e052610100899052610120889052600080546001600160a01b0319163317905584811690861610620000875783856200008a565b84845b6001600160a01b039081166101c0529081166101a05262ffffff84166101e052821661018052600281900b61016052620000c481620002df565b60020b610140526101a05160405163095ea7b360e01b81526001600160a01b03848116600483015260001960248301529091169063095ea7b3906044016020604051808303816000875af115801562000121573d6000803e3d6000fd5b505050506040513d601f19601f8201168201806040525081019062000147919062000310565b506101c05160405163095ea7b360e01b81526001600160a01b03848116600483015260001960248301529091169063095ea7b3906044016020604051808303816000875af11580156200019e573d6000803e3d6000fd5b505050506040513d601f19601f82011682018060405250810190620001c4919062000310565b5050505050505050505050506200033b565b805160ff81168114620001e857600080fd5b919050565b80516001600160a01b0381168114620001e857600080fd5b60008060008060008060008060008060006101608c8e0312156200022857600080fd5b620002338c620001d6565b9a5060208c015199506200024a60408d01620001d6565b985060608c0151975060808c015196506200026860a08d01620001ed565b95506200027860c08d01620001ed565b94506200028860e08d01620001ed565b93506101008c015162ffffff81168114620002a257600080fd5b9250620002b36101208d01620001ed565b91506101408c01518060020b8114620002cb57600080fd5b809150509295989b509295989b9093969950565b60008160020b627fffff1981036200030757634e487b7160e01b600052601160045260246000fd5b60000392915050565b6000602082840312156200032357600080fd5b815180151581146200033457600080fd5b9392505050565b60805160a05160c05160e05161010051610120516101405161016051610180516101a0516101c0516101e051612c70620004b4600039600081816105ae01526121b60152600081816105870152818161113701526121730152600081816102bf01528181611101015261213701526000818161056001528181610b9201528181610d1e01528181610da401528181610f0e01528181610f8001528181611098015281816113c0015281816120950152818161240101526124d2015260008181610482015261224a0152600081816104cf015261221a0152600081816103ef015281816117820152611a0b01526000818161051c015281816117ad0152611a36015260008181610286015281816106b001528181610872015281816115b00152611d0d015260008181610622015261191d0152600081816105d5015281816118b9015281816118e401526119ab01526000818161064901528181610a230152818161150d015281816116b801526118150152612c706000f3fe608060405234801561001057600080fd5b50600436106102115760003560e01c80636882a88811610125578063ddca3f43116100ad578063f6def7cf1161007c578063f6def7cf1461061d578063f7c618c114610644578063f99b7d751461066b578063fa60c77c1461067e578063fdc5ab8e1461069157600080fd5b8063ddca3f43146105a9578063e11400bb146105d0578063e1c05d93146105f7578063ee3453ed1461060a57600080fd5b8063bb57852d116100f4578063bb57852d14610504578063c75363b614610517578063cd671a581461053e578063d06fcba81461055b578063d21220a71461058257600080fd5b80636882a8881461047d5780638da5cb5b146104b7578063a1634b14146104ca578063ae169a50146104f157600080fd5b80631a906d65116101a8578063441a3e7011610177578063441a3e70146104115780634fb2e45d1461042457806352cb5133146104375780635b680a451461044a5780635f8e422f1461047557600080fd5b80631a906d65146103b9578063291c73c3146103ce57806329ed1cfd146103e157806337ba682d146103ea57600080fd5b80630dfe1681116101e45780630dfe1681146102ba57806310c6c1c2146102f9578063150b7a0214610362578063157775df1461039957600080fd5b806302e9e4951461021657806307c6e2fa146102405780630bce1284146102615780630d437d4014610281575b600080fd5b610229610224366004612555565b6106a7565b6040516102379291906125ad565b60405180910390f35b61025361024e366004612695565b6108b0565b604051908152602001610237565b61025361026f366004612702565b60056020526000908152604090205481565b6102a87f000000000000000000000000000000000000000000000000000000000000000081565b60405160ff9091168152602001610237565b6102e17f000000000000000000000000000000000000000000000000000000000000000081565b6040516001600160a01b039091168152602001610237565b610338610307366004612702565b60076020526000908152604090208054600182015460028301546003909301546001600160a01b0390921692909184565b604080516001600160a01b0390951685526020850193909352918301526060820152608001610237565b61038061037036600461271b565b630a85bd0160e11b949350505050565b6040516001600160e01b03199091168152602001610237565b6102536103a7366004612702565b60046020526000908152604090205481565b6103cc6103c73660046127df565b610a8f565b005b6102536103dc36600461280b565b6111dc565b61025360065481565b6102537f000000000000000000000000000000000000000000000000000000000000000081565b6103cc61041f366004612837565b61120d565b6103cc610432366004612555565b611471565b6103cc610445366004612837565b6114bd565b61025361045836600461280b565b600260209081526000928352604080842090915290825290205481565b6103cc611538565b6104a47f000000000000000000000000000000000000000000000000000000000000000081565b60405160029190910b8152602001610237565b6000546102e1906001600160a01b031681565b6104a47f000000000000000000000000000000000000000000000000000000000000000081565b6103cc6104ff366004612702565b611589565b61025361051236600461280b565b611710565b6102537f000000000000000000000000000000000000000000000000000000000000000081565b610547610e1081565b60405162ffffff9091168152602001610237565b6102e17f000000000000000000000000000000000000000000000000000000000000000081565b6102e17f000000000000000000000000000000000000000000000000000000000000000081565b6105477f000000000000000000000000000000000000000000000000000000000000000081565b6102a87f000000000000000000000000000000000000000000000000000000000000000081565b6103cc6106053660046127df565b611735565b61025361061836600461286f565b6118b0565b6102537f000000000000000000000000000000000000000000000000000000000000000081565b6102e17f000000000000000000000000000000000000000000000000000000000000000081565b6103cc61067936600461289b565b61197a565b61025361068c366004612555565b611d06565b610699611e10565b6040516102379291906128d0565b600060608160ff7f0000000000000000000000000000000000000000000000000000000000000000166106dc610e1042612908565b6106e6919061292a565b6106f1906001612943565b6001600160a01b038516600090815260036020526040902090915081906001015411610730576040805160008152602081019091529094909350915050565b6001600160a01b03841660009081526003602052604081208054600190910154909183831161075f5783610761565b825b9050600061076f828461292a565b67ffffffffffffffff811115610787576107876125ce565b6040519080825280602002602001820160405280156107b0578160200160208202803683370190505b509050815b8381101561085b5760008181526004602052604090205415610820576000818152600460209081526040808320546001600160a01b038d168452600283528184208585528352818420546005909352922054610811919061296c565b61081b9190612908565b610823565b60005b8261082e858461292a565b8151811061083e5761083e612956565b60209081029190910101528061085381612983565b9150506107b5565b50600061086a610e1042612908565b6108978460ff7f000000000000000000000000000000000000000000000000000000000000000016612943565b6108a1919061292a565b99919850909650505050505050565b600081804211156108dc5760405162461bcd60e51b81526004016108d39061299c565b60405180910390fd5b6000546001600160a01b031633146109065760405162461bcd60e51b81526004016108d3906129c3565b835185511461094a5760405162461bcd60e51b815260206004820152601060248201526f3830b930b6b2ba32b9399032b93937b960811b60448201526064016108d3565b6000805b8651811015610a185785818151811061096957610969612956565b60200260200101518461097c9190612943565b935085818151811061099057610990612956565b6020026020010151600560008984815181106109ae576109ae612956565b6020026020010151815260200190815260200160002081905550818782815181106109db576109db612956565b60200260200101511115610a06578681815181106109fb576109fb612956565b602002602001015191505b80610a1081612983565b91505061094e565b506006819055610a4a7f0000000000000000000000000000000000000000000000000000000000000000333086611f6e565b60408051600081526020810185905233917fc3991418cacd70a010fce559a44fcbb47534ca43bf7543964bdca2639f6e6e5a910160405180910390a250509392505050565b8080421115610ab05760405162461bcd60e51b81526004016108d39061299c565b6000848152600760205260409020546001600160a01b03163314610b085760405162461bcd60e51b815260206004820152600f60248201526e37bbb732b9103337b93134b23232b760891b60448201526064016108d3565b6000610b16610e1042612908565b600086815260076020526040902060030154909150811015610b685760405162461bcd60e51b815260206004820152600b60248201526a6c6f636b65642074696d6560a81b60448201526064016108d3565b610b7184612088565b506040516331a9108f60e11b81526004810185905233906001600160a01b037f00000000000000000000000000000000000000000000000000000000000000001690636352211e90602401602060405180830381865afa158015610bd9573d6000803e3d6000fd5b505050506040513d601f19601f82011682018060405250810190610bfd91906129f1565b6001600160a01b031614610c3f5760405162461bcd60e51b8152602060048201526009602482015268369037bbb732b9103360b91b60448201526064016108d3565b336000908152600860205260408120905b8154811015610d0457818181548110610c6b57610c6b612956565b90600052602060002001548703610cf25781548290610c8c9060019061292a565b81548110610c9c57610c9c612956565b9060005260206000200154828281548110610cb957610cb9612956565b906000526020600020018190555081805480610cd757610cd7612a0e565b60019003818190600052602060002001600090559055610d04565b80610cfc81612983565b915050610c50565b5060405163133f757160e31b8152600481018790526000907f00000000000000000000000000000000000000000000000000000000000000006001600160a01b0316906399fbab889060240161018060405180830381865afa158015610d6e573d6000803e3d6000fd5b505050506040513d601f19601f82011682018060405250810190610d929190612a60565b505050509750505050505050506000807f00000000000000000000000000000000000000000000000000000000000000006001600160a01b0316630c49ccbe6040518060a001604052808c8152602001866001600160801b0316815260200160008152602001600081526020018a8152506040518263ffffffff1660e01b8152600401610e5d9190600060a082019050825182526001600160801b03602084015116602083015260408301516040830152606083015160608301526080830151608083015292915050565b60408051808303816000875af1158015610e7b573d6000803e3d6000fd5b505050506040513d601f19601f82011682018060405250810190610e9f9190612b41565b604080516080810182528c815230602082019081526001600160801b0382840181815260608401828152945163fc6f786560e01b81529351600485015291516001600160a01b0390811660248501529151811660448401529251909216606482015292945090925060009182917f0000000000000000000000000000000000000000000000000000000000000000169063fc6f78659060840160408051808303816000875af1158015610f56573d6000803e3d6000fd5b505050506040513d601f19601f82011682018060405250810190610f7a9190612b41565b915091507f00000000000000000000000000000000000000000000000000000000000000006001600160a01b031663219f5d176040518060c001604052808d815260200187815260200186815260200160008152602001600081526020018c8152506040518263ffffffff1660e01b81526004016110379190600060c082019050825182526020830151602083015260408301516040830152606083015160608301526080830151608083015260a083015160a083015292915050565b6060604051808303816000875af1158015611056573d6000803e3d6000fd5b505050506040513d601f19601f8201168201806040525081019061107a9190612b65565b604051630852cd8d60e31b8152600481018f905292975090955093507f00000000000000000000000000000000000000000000000000000000000000006001600160a01b0316906342966c6890602401600060405180830381600087803b1580156110e457600080fd5b505af11580156110f8573d6000803e3d6000fd5b505050506111327f000000000000000000000000000000000000000000000000000000000000000033868561112d919061292a565b6122c5565b6111617f00000000000000000000000000000000000000000000000000000000000000003361112d868561292a565b337f9292b1de86834b12fcdc5d8fc52cca04b266ebc75a61d49888ec43218a7e6029868d8d611190898861292a565b61119a898861292a565b604080516001600160801b0390961686526020860194909452928401919091526060830152608082015260a00160405180910390a25050505050505050505050565b600860205281600052604060002081815481106111f857600080fd5b90600052602060002001600091509150505481565b808042111561122e5760405162461bcd60e51b81526004016108d39061299c565b6000838152600760205260409020546001600160a01b031633146112865760405162461bcd60e51b815260206004820152600f60248201526e37bbb732b9103337b93134b23232b760891b60448201526064016108d3565b6000611294610e1042612908565b6000858152600760205260409020600301549091508110156112e65760405162461bcd60e51b815260206004820152600b60248201526a6c6f636b65642074696d6560a81b60448201526064016108d3565b336000908152600860205260408120905b81548110156114335781818154811061131257611312612956565b9060005260206000200154860361142157815482906113339060019061292a565b8154811061134357611343612956565b906000526020600020015482828154811061136057611360612956565b90600052602060002001819055508180548061137e5761137e612a0e565b600082815260208120820160001990810191909155019055604051632142170760e11b8152306004820152336024820152604481018790526001600160a01b037f000000000000000000000000000000000000000000000000000000000000000016906342842e0e90606401600060405180830381600087803b15801561140457600080fd5b505af1158015611418573d6000803e3d6000fd5b50505050611433565b8061142b81612983565b9150506112f7565b5060405185815233907f884edad9ce6fa2440d8a54cc123490eb96d2768479d49ff9c7366125a9424364906020015b60405180910390a25050505050565b6000546001600160a01b0316331461149b5760405162461bcd60e51b81526004016108d3906129c3565b600180546001600160a01b0319166001600160a01b0392909216919091179055565b80804211156114de5760405162461bcd60e51b81526004016108d39061299c565b6000546001600160a01b031633146115085760405162461bcd60e51b81526004016108d3906129c3565b6115337f000000000000000000000000000000000000000000000000000000000000000033856122c5565b505050565b6001546001600160a01b031633146115625760405162461bcd60e51b81526004016108d3906129c3565b60018054600080546001600160a01b03199081166001600160a01b03841617909155169055565b80804211156115aa5760405162461bcd60e51b81526004016108d39061299c565b600060ff7f0000000000000000000000000000000000000000000000000000000000000000166115dc610e1042612908565b6115e6919061292a565b3360009081526003602052604081205491925090805b3360009081526003602052604090206001015481101561169f5783811161169f57611628816001612943565b6000828152600460205260409020549092501561168d57600081815260046020908152604080832054338452600283528184208585528352818420546005909352922054611676919061296c565b6116809190612908565b61168a9084612943565b92505b8061169781612983565b9150506115fc565b50336000908152600360205260408120829101556116de7f000000000000000000000000000000000000000000000000000000000000000033846122c5565b60405182815233907fba8de60c3403ec381d1d484652ea1980e3c3e56359195c92525bff4ce47ad98e90602001611462565b6003602052816000526040600020816002811061172c57600080fd5b01549150829050565b80804211156117565760405162461bcd60e51b81526004016108d39061299c565b6000546001600160a01b031633146117805760405162461bcd60e51b81526004016108d3906129c3565b7f000000000000000000000000000000000000000000000000000000000000000042111580156117d057507f00000000000000000000000000000000000000000000000000000000000000004210155b6118105760405162461bcd60e51b81526020600482015260116024820152701b9bdd081a5b881d1a19481c195c9a5bd9607a1b60448201526064016108d3565b61183c7f0000000000000000000000000000000000000000000000000000000000000000333086611f6e565b6000848152600560205260408120805485929061185a908490612943565b909155505060065484111561186f5760068490555b604080518581526020810185905233917fc3991418cacd70a010fce559a44fcbb47534ca43bf7543964bdca2639f6e6e5a910160405180910390a250505050565b60006118dd60017f0000000000000000000000000000000000000000000000000000000000000000612b9a565b60ff1660017f000000000000000000000000000000000000000000000000000000000000000060ff166001856119139190612b9a565b60ff1661194160017f000000000000000000000000000000000000000000000000000000000000000061292a565b61194b919061296c565b6119559190612943565b61195f919061292a565b611969908561296c565b6119739190612908565b9392505050565b808042111561199b5760405162461bcd60e51b81526004016108d39061299c565b60008360ff161180156119d457507f000000000000000000000000000000000000000000000000000000000000000060ff168360ff1611155b611a095760405162461bcd60e51b8152602060048201526006602482015265359018bf1a9960d11b60448201526064016108d3565b7f00000000000000000000000000000000000000000000000000000000000000004211158015611a5957507f00000000000000000000000000000000000000000000000000000000000000004210155b611a995760405162461bcd60e51b81526020600482015260116024820152701b9bdd081a5b881d1a19481c195c9a5bd9607a1b60448201526064016108d3565b6000611aa7610e1042612908565b611ab2906001612943565b90506000611abf866123d2565b90506000611acd82876118b0565b905060005b8660ff168160ff161015611b67578160046000611af260ff851688612943565b81526020019081526020016000206000828254611b0f9190612943565b90915550503360009081526002602052604081208391611b3260ff851688612943565b81526020019081526020016000206000828254611b4f9190612943565b90915550819050611b5f81612bb3565b915050611ad2565b506000611b7760ff881685612943565b90506040518060800160405280336001600160a01b0316815260200183815260200185815260200182815250600760008a815260200190815260200160002060008201518160000160006101000a8154816001600160a01b0302191690836001600160a01b0316021790555060208201518160010155604082015181600201556060820151816003015590505060036000336001600160a01b03166001600160a01b03168152602001908152602001600020600160028110611c3b57611c3b612956565b01543360009081526003602052604090205403611c65573360009081526003602052604090208490555b3360009081526003602052604090208190600101541015611c96573360009081526003602052604090208190600101555b3360008181526008602090815260408083208054600181018255908452928290209092018b905581518b815290810186905260ff8a168183015290517f6fa2f6021ee337436cdf2b2570285886da18bc06402ce284d296504a0fe8f8759181900360600190a25050505050505050565b60008060ff7f000000000000000000000000000000000000000000000000000000000000000016611d39610e1042612908565b611d43919061292a565b6001600160a01b038416600090815260036020526040812054919250905b6001600160a01b038516600090815260036020526040902060010154811015611e0857828111611e085760008181526004602052604090205415611df6576000818152600460209081526040808320546001600160a01b0389168452600283528184208585528352818420546005909352922054611ddf919061296c565b611de99190612908565b611df39083612943565b91505b80611e0081612983565b915050611d61565b509392505050565b3360009081526008602052604081205460609190819067ffffffffffffffff811115611e3e57611e3e6125ce565b604051908082528060200260200182016040528015611e67578160200160208202803683370190505b5090506000611e78610e1042612908565b3360009081526008602052604081205491925090815b33600090815260086020526040902054811015611f6157336000908152600860205260408120805483908110611ec657611ec6612956565b906000526020600020015490508460076000838152602001908152602001600020600301541115611f215780868581518110611f0457611f04612956565b602090810291909101015283611f1981612983565b945050611f4e565b82611f2b81612bd2565b93505080868481518110611f4157611f41612956565b6020026020010181815250505b5080611f5981612983565b915050611e8e565b5092959294509192505050565b604080516001600160a01b0385811660248301528481166044830152606480830185905283518084039091018152608490920183526020820180516001600160e01b03166323b872dd60e01b1790529151600092839290881691611fd29190612be9565b6000604051808303816000865af19150503d806000811461200f576040519150601f19603f3d011682016040523d82523d6000602084013e612014565b606091505b509150915081801561203e57508051158061203e57508080602001905181019061203e9190612c18565b6120805760405162461bcd60e51b81526020600482015260136024820152721d1c985b9cd9995c919c9bdb4819985a5b1959606a1b60448201526064016108d3565b505050505050565b60008060008060008060007f00000000000000000000000000000000000000000000000000000000000000006001600160a01b03166399fbab88896040518263ffffffff1660e01b81526004016120e191815260200190565b61018060405180830381865afa1580156120ff573d6000803e3d6000fd5b505050506040513d601f19601f820116820180604052508101906121239190612a60565b5050505097509750975097509750975050507f00000000000000000000000000000000000000000000000000000000000000006001600160a01b0316866001600160a01b03161480156121a757507f00000000000000000000000000000000000000000000000000000000000000006001600160a01b0316856001600160a01b0316145b80156121dc57508362ffffff167f000000000000000000000000000000000000000000000000000000000000000062ffffff16145b6122185760405162461bcd60e51b815260206004820152600d60248201526c3638103830b4b91032b93937b960991b60448201526064016108d3565b7f000000000000000000000000000000000000000000000000000000000000000060020b8360020b14801561227257507f000000000000000000000000000000000000000000000000000000000000000060020b8260020b145b6122b15760405162461bcd60e51b815260206004820152601060248201526f3a34b1b5903930b733b29032b93937b960811b60448201526064016108d3565b6001600160801b0316979650505050505050565b604080516001600160a01b038481166024830152604480830185905283518084039091018152606490920183526020820180516001600160e01b031663a9059cbb60e01b17905291516000928392908716916123219190612be9565b6000604051808303816000865af19150503d806000811461235e576040519150601f19603f3d011682016040523d82523d6000602084013e612363565b606091505b509150915081801561238d57508051158061238d57508080602001905181019061238d9190612c18565b6123cb5760405162461bcd60e51b815260206004820152600f60248201526e1514905394d1915497d19052531151608a1b60448201526064016108d3565b5050505050565b6000806123de83612088565b60405163020604bf60e21b81526004810185905290915030906001600160a01b037f0000000000000000000000000000000000000000000000000000000000000000169063081812fc90602401602060405180830381865afa158015612448573d6000803e3d6000fd5b505050506040513d601f19601f8201168201806040525081019061246c91906129f1565b6001600160a01b0316146124b05760405162461bcd60e51b815260206004820152600b60248201526a6e6f7420617070726f766560a81b60448201526064016108d3565b604051632142170760e11b8152336004820152306024820152604481018490527f00000000000000000000000000000000000000000000000000000000000000006001600160a01b0316906342842e0e90606401600060405180830381600087803b15801561251e57600080fd5b505af1158015612532573d6000803e3d6000fd5b509295945050505050565b6001600160a01b038116811461255257600080fd5b50565b60006020828403121561256757600080fd5b81356119738161253d565b600081518084526020808501945080840160005b838110156125a257815187529582019590820190600101612586565b509495945050505050565b8281526040602082015260006125c66040830184612572565b949350505050565b634e487b7160e01b600052604160045260246000fd5b604051601f8201601f1916810167ffffffffffffffff8111828210171561260d5761260d6125ce565b604052919050565b600082601f83011261262657600080fd5b8135602067ffffffffffffffff821115612642576126426125ce565b8160051b6126518282016125e4565b928352848101820192828101908785111561266b57600080fd5b83870192505b8483101561268a57823582529183019190830190612671565b979650505050505050565b6000806000606084860312156126aa57600080fd5b833567ffffffffffffffff808211156126c257600080fd5b6126ce87838801612615565b945060208601359150808211156126e457600080fd5b506126f186828701612615565b925050604084013590509250925092565b60006020828403121561271457600080fd5b5035919050565b6000806000806080858703121561273157600080fd5b843561273c8161253d565b935060208581013561274d8161253d565b935060408601359250606086013567ffffffffffffffff8082111561277157600080fd5b818801915088601f83011261278557600080fd5b813581811115612797576127976125ce565b6127a9601f8201601f191685016125e4565b915080825289848285010111156127bf57600080fd5b808484018584013760008482840101525080935050505092959194509250565b6000806000606084860312156127f457600080fd5b505081359360208301359350604090920135919050565b6000806040838503121561281e57600080fd5b82356128298161253d565b946020939093013593505050565b6000806040838503121561284a57600080fd5b50508035926020909101359150565b803560ff8116811461286a57600080fd5b919050565b6000806040838503121561288257600080fd5b8235915061289260208401612859565b90509250929050565b6000806000606084860312156128b057600080fd5b833592506128c060208501612859565b9150604084013590509250925092565b6040815260006128e36040830185612572565b90508260208301529392505050565b634e487b7160e01b600052601160045260246000fd5b60008261292557634e487b7160e01b600052601260045260246000fd5b500490565b8181038181111561293d5761293d6128f2565b92915050565b8082018082111561293d5761293d6128f2565b634e487b7160e01b600052603260045260246000fd5b808202811582820484141761293d5761293d6128f2565b600060018201612995576129956128f2565b5060010190565b6020808252600d908201526c6f76657220646561646c696e6560981b604082015260600190565b6020808252600990820152683337b93134b23232b760b91b604082015260600190565b805161286a8161253d565b600060208284031215612a0357600080fd5b81516119738161253d565b634e487b7160e01b600052603160045260246000fd5b805162ffffff8116811461286a57600080fd5b8051600281900b811461286a57600080fd5b80516001600160801b038116811461286a57600080fd5b6000806000806000806000806000806000806101808d8f031215612a8357600080fd5b8c516bffffffffffffffffffffffff81168114612a9f57600080fd5b9b50612aad60208e016129e6565b9a50612abb60408e016129e6565b9950612ac960608e016129e6565b9850612ad760808e01612a24565b9750612ae560a08e01612a37565b9650612af360c08e01612a37565b9550612b0160e08e01612a49565b94506101008d015193506101208d01519250612b206101408e01612a49565b9150612b2f6101608e01612a49565b90509295989b509295989b509295989b565b60008060408385031215612b5457600080fd5b505080516020909101519092909150565b600080600060608486031215612b7a57600080fd5b612b8384612a49565b925060208401519150604084015190509250925092565b60ff828116828216039081111561293d5761293d6128f2565b600060ff821660ff8103612bc957612bc96128f2565b60010192915050565b600081612be157612be16128f2565b506000190190565b6000825160005b81811015612c0a5760208186018101518583015201612bf0565b506000920191825250919050565b600060208284031215612c2a57600080fd5b8151801515811461197357600080fdfea2646970667358221220332da26c3e4b16e7725efc332911e6022887a98d027b2f5b5da55c21be722b1164736f6c63430008110033",
  "linkReferences": {},
  "deployedLinkReferences": {}
}