{
  "_format": "hh-sol-artifact-1",
  "contractName": "StakeNFT721",
  "sourceName": "contracts/stakeNFT721.sol",
  "abi": [
    {
      "inputs": [
        {
          "internalType": "uint8",
          "name": "maxWeeks",
          "type": "uint8"
        },
        {
          "internalType": "uint256",
          "name": "maxScale",
          "type": "uint256"
        },
        {
          "internalType": "uint8",
          "name": "lockWeeks",
          "type": "uint8"
        },
        {
          "internalType": "uint256",
          "name": "beginTime",
          "type": "uint256"
        },
        {
          "internalType": "uint256",
          "name": "endTime",
          "type": "uint256"
        },
        {
          "internalType": "address",
          "name": "_rewardToken",
          "type": "address"
        },
        {
          "internalType": "address",
          "name": "tokenA",
          "type": "address"
        },
        {
          "internalType": "address",
          "name": "tokenB",
          "type": "address"
        },
        {
          "internalType": "uint24",
          "name": "_fee",
          "type": "uint24"
        },
        {
          "internalType": "address",
          "name": "nft",
          "type": "address"
        },
        {
          "internalType": "int24",
          "name": "tickMax",
          "type": "int24"
        }
      ],
      "stateMutability": "nonpayable",
      "type": "constructor"
    },
    {
      "anonymous": false,
      "inputs": [
        {
          "indexed": true,
          "internalType": "address",
          "name": "user",
          "type": "address"
        },
        {
          "indexed": false,
          "internalType": "uint256",
          "name": "amount",
          "type": "uint256"
        }
      ],
      "name": "ClaimReward",
      "type": "event"
    },
    {
      "anonymous": false,
      "inputs": [
        {
          "indexed": true,
          "internalType": "address",
          "name": "user",
          "type": "address"
        },
        {
          "indexed": false,
          "internalType": "uint256",
          "name": "no",
          "type": "uint256"
        },
        {
          "indexed": false,
          "internalType": "uint256",
          "name": "amount",
          "type": "uint256"
        }
      ],
      "name": "SetReward",
      "type": "event"
    },
    {
      "anonymous": false,
      "inputs": [
        {
          "indexed": true,
          "internalType": "address",
          "name": "user",
          "type": "address"
        },
        {
          "indexed": false,
          "internalType": "uint256",
          "name": "tokenId",
          "type": "uint256"
        },
        {
          "indexed": false,
          "internalType": "uint256",
          "name": "amount",
          "type": "uint256"
        },
        {
          "indexed": false,
          "internalType": "uint8",
          "name": "k",
          "type": "uint8"
        }
      ],
      "name": "Stake",
      "type": "event"
    },
    {
      "anonymous": false,
      "inputs": [
        {
          "indexed": true,
          "internalType": "address",
          "name": "user",
          "type": "address"
        },
        {
          "indexed": false,
          "internalType": "uint256",
          "name": "tokenId",
          "type": "uint256"
        }
      ],
      "name": "Withdraw",
      "type": "event"
    },
    {
      "anonymous": false,
      "inputs": [
        {
          "indexed": true,
          "internalType": "address",
          "name": "user",
          "type": "address"
        },
        {
          "indexed": false,
          "internalType": "uint128",
          "name": "liquidity",
          "type": "uint128"
        },
        {
          "indexed": false,
          "internalType": "uint256",
          "name": "tokenId",
          "type": "uint256"
        },
        {
          "indexed": false,
          "internalType": "uint256",
          "name": "mergeId",
          "type": "uint256"
        },
        {
          "indexed": false,
          "internalType": "uint256",
          "name": "token0Fee",
          "type": "uint256"
        },
        {
          "indexed": false,
          "internalType": "uint256",
          "name": "token1Fee",
          "type": "uint256"
        }
      ],
      "name": "WithdrawAndMerge",
      "type": "event"
    },
    {
      "inputs": [],
      "name": "BEGIN_TIME",
      "outputs": [
        {
          "internalType": "uint256",
          "name": "",
          "type": "uint256"
        }
      ],
      "stateMutability": "view",
      "type": "function"
    },
    {
      "inputs": [],
      "name": "END_TIME",
      "outputs": [
        {
          "internalType": "uint256",
          "name": "",
          "type": "uint256"
        }
      ],
      "stateMutability": "view",
      "type": "function"
    },
    {
      "inputs": [],
      "name": "LOCK_WEEKNUM",
      "outputs": [
        {
          "internalType": "uint8",
          "name": "",
          "type": "uint8"
        }
      ],
      "stateMutability": "view",
      "type": "function"
    },
    {
      "inputs": [],
      "name": "MAX_SCALE",
      "outputs": [
        {
          "internalType": "uint256",
          "name": "",
          "type": "uint256"
        }
      ],
      "stateMutability": "view",
      "type": "function"
    },
    {
      "inputs": [],
      "name": "MAX_TICK",
      "outputs": [
        {
          "internalType": "int24",
          "name": "",
          "type": "int24"
        }
      ],
      "stateMutability": "view",
      "type": "function"
    },
    {
      "inputs": [],
      "name": "MAX_WEEKS",
      "outputs": [
        {
          "internalType": "uint8",
          "name": "",
          "type": "uint8"
        }
      ],
      "stateMutability": "view",
      "type": "function"
    },
    {
      "inputs": [],
      "name": "MIN_TICK",
      "outputs": [
        {
          "internalType": "int24",
          "name": "",
          "type": "int24"
        }
      ],
      "stateMutability": "view",
      "type": "function"
    },
    {
      "inputs": [],
      "name": "WEEK_SECONDS",
      "outputs": [
        {
          "internalType": "uint24",
          "name": "",
          "type": "uint24"
        }
      ],
      "stateMutability": "view",
      "type": "function"
    },
    {
      "inputs": [],
      "name": "acceptSetter",
      "outputs": [],
      "stateMutability": "nonpayable",
      "type": "function"
    },
    {
      "inputs": [
        {
          "internalType": "address",
          "name": "user",
          "type": "address"
        }
      ],
      "name": "canClaimAmount",
      "outputs": [
        {
          "internalType": "uint256",
          "name": "",
          "type": "uint256"
        }
      ],
      "stateMutability": "view",
      "type": "function"
    },
    {
      "inputs": [
        {
          "internalType": "uint256",
          "name": "deadline",
          "type": "uint256"
        }
      ],
      "name": "claimReward",
      "outputs": [],
      "stateMutability": "nonpayable",
      "type": "function"
    },
    {
      "inputs": [],
      "name": "fee",
      "outputs": [
        {
          "internalType": "uint24",
          "name": "",
          "type": "uint24"
        }
      ],
      "stateMutability": "view",
      "type": "function"
    },
    {
      "inputs": [
        {
          "internalType": "uint256",
          "name": "amount",
          "type": "uint256"
        },
        {
          "internalType": "uint8",
          "name": "k",
          "type": "uint8"
        }
      ],
      "name": "getScore",
      "outputs": [
        {
          "internalType": "uint256",
          "name": "score",
          "type": "uint256"
        }
      ],
      "stateMutability": "view",
      "type": "function"
    },
    {
      "inputs": [],
      "name": "getUserNFTs",
      "outputs": [
        {
          "internalType": "uint256[]",
          "name": "",
          "type": "uint256[]"
        },
        {
          "internalType": "uint256",
          "name": "",
          "type": "uint256"
        }
      ],
      "stateMutability": "view",
      "type": "function"
    },
    {
      "inputs": [],
      "name": "latestNo",
      "outputs": [
        {
          "internalType": "uint256",
          "name": "",
          "type": "uint256"
        }
      ],
      "stateMutability": "view",
      "type": "function"
    },
    {
      "inputs": [
        {
          "internalType": "address",
          "name": "user",
          "type": "address"
        }
      ],
      "name": "lockedRewardAmount",
      "outputs": [
        {
          "internalType": "uint256",
          "name": "",
          "type": "uint256"
        },
        {
          "internalType": "uint256[]",
          "name": "",
          "type": "uint256[]"
        }
      ],
      "stateMutability": "view",
      "type": "function"
    },
    {
      "inputs": [],
      "name": "nftToken",
      "outputs": [
        {
          "internalType": "contract IIotabeeSwapNFT",
          "name": "",
          "type": "address"
        }
      ],
      "stateMutability": "view",
      "type": "function"
    },
    {
      "inputs": [
        {
          "internalType": "address",
          "name": "",
          "type": "address"
        },
        {
          "internalType": "address",
          "name": "",
          "type": "address"
        },
        {
          "internalType": "uint256",
          "name": "",
          "type": "uint256"
        },
        {
          "internalType": "bytes",
          "name": "",
          "type": "bytes"
        }
      ],
      "name": "onERC721Received",
      "outputs": [
        {
          "internalType": "bytes4",
          "name": "",
          "type": "bytes4"
        }
      ],
      "stateMutability": "pure",
      "type": "function"
    },
    {
      "inputs": [],
      "name": "owner",
      "outputs": [
        {
          "internalType": "address",
          "name": "",
          "type": "address"
        }
      ],
      "stateMutability": "view",
      "type": "function"
    },
    {
      "inputs": [],
      "name": "rewardToken",
      "outputs": [
        {
          "internalType": "address",
          "name": "",
          "type": "address"
        }
      ],
      "stateMutability": "view",
      "type": "function"
    },
    {
      "inputs": [
        {
          "internalType": "uint256",
          "name": "",
          "type": "uint256"
        }
      ],
      "name": "rewardsOf",
      "outputs": [
        {
          "internalType": "uint256",
          "name": "",
          "type": "uint256"
        }
      ],
      "stateMutability": "view",
      "type": "function"
    },
    {
      "inputs": [
        {
          "internalType": "uint256",
          "name": "no",
          "type": "uint256"
        },
        {
          "internalType": "uint256",
          "name": "amount",
          "type": "uint256"
        },
        {
          "internalType": "uint256",
          "name": "deadline",
          "type": "uint256"
        }
      ],
      "name": "setReward",
      "outputs": [],
      "stateMutability": "nonpayable",
      "type": "function"
    },
    {
      "inputs": [
        {
          "internalType": "uint256[]",
          "name": "nos",
          "type": "uint256[]"
        },
        {
          "internalType": "uint256[]",
          "name": "amounts",
          "type": "uint256[]"
        },
        {
          "internalType": "uint256",
          "name": "deadline",
          "type": "uint256"
        }
      ],
      "name": "setRewards",
      "outputs": [],
      "stateMutability": "nonpayable",
      "type": "function"
    },
    {
      "inputs": [
        {
          "internalType": "uint256",
          "name": "tokenId",
          "type": "uint256"
        },
        {
          "internalType": "uint8",
          "name": "k",
          "type": "uint8"
        },
        {
          "internalType": "uint256",
          "name": "deadline",
          "type": "uint256"
        }
      ],
      "name": "stake",
      "outputs": [],
      "stateMutability": "nonpayable",
      "type": "function"
    },
    {
      "inputs": [
        {
          "internalType": "uint256",
          "name": "",
          "type": "uint256"
        }
      ],
      "name": "stakingNFTs",
      "outputs": [
        {
          "internalType": "address",
          "name": "owner",
          "type": "address"
        },
        {
          "internalType": "uint256",
          "name": "score",
          "type": "uint256"
        },
        {
          "internalType": "uint256",
          "name": "beginNo",
          "type": "uint256"
        },
        {
          "internalType": "uint256",
          "name": "endNo",
          "type": "uint256"
        }
      ],
      "stateMutability": "view",
      "type": "function"
    },
    {
      "inputs": [],
      "name": "token0",
      "outputs": [
        {
          "internalType": "address",
          "name": "",
          "type": "address"
        }
      ],
      "stateMutability": "view",
      "type": "function"
    },
    {
      "inputs": [],
      "name": "token1",
      "outputs": [
        {
          "internalType": "address",
          "name": "",
          "type": "address"
        }
      ],
      "stateMutability": "view",
      "type": "function"
    },
    {
      "inputs": [
        {
          "internalType": "uint256",
          "name": "",
          "type": "uint256"
        }
      ],
      "name": "totalScores",
      "outputs": [
        {
          "internalType": "uint256",
          "name": "",
          "type": "uint256"
        }
      ],
      "stateMutability": "view",
      "type": "function"
    },
    {
      "inputs": [
        {
          "internalType": "address",
          "name": "_owner",
          "type": "address"
        }
      ],
      "name": "transferOwner",
      "outputs": [],
      "stateMutability": "nonpayable",
      "type": "function"
    },
    {
      "inputs": [
        {
          "internalType": "address",
          "name": "",
          "type": "address"
        },
        {
          "internalType": "uint256",
          "name": "",
          "type": "uint256"
        }
      ],
      "name": "userCanClaimWeeks",
      "outputs": [
        {
          "internalType": "uint256",
          "name": "",
          "type": "uint256"
        }
      ],
      "stateMutability": "view",
      "type": "function"
    },
    {
      "inputs": [
        {
          "internalType": "address",
          "name": "",
          "type": "address"
        },
        {
          "internalType": "uint256",
          "name": "",
          "type": "uint256"
        }
      ],
      "name": "userNFTs",
      "outputs": [
        {
          "internalType": "uint256",
          "name": "",
          "type": "uint256"
        }
      ],
      "stateMutability": "view",
      "type": "function"
    },
    {
      "inputs": [
        {
          "internalType": "address",
          "name": "",
          "type": "address"
        },
        {
          "internalType": "uint256",
          "name": "",
          "type": "uint256"
        }
      ],
      "name": "userScores",
      "outputs": [
        {
          "internalType": "uint256",
          "name": "",
          "type": "uint256"
        }
      ],
      "stateMutability": "view",
      "type": "function"
    },
    {
      "inputs": [
        {
          "internalType": "uint256",
          "name": "tokenId",
          "type": "uint256"
        },
        {
          "internalType": "uint256",
          "name": "deadline",
          "type": "uint256"
        }
      ],
      "name": "withdraw",
      "outputs": [],
      "stateMutability": "nonpayable",
      "type": "function"
    },
    {
      "inputs": [
        {
          "internalType": "uint256",
          "name": "tokenId",
          "type": "uint256"
        },
        {
          "internalType": "uint256",
          "name": "mergeTokenId",
          "type": "uint256"
        },
        {
          "internalType": "uint256",
          "name": "deadline",
          "type": "uint256"
        }
      ],
      "name": "withdrawAndMerge",
      "outputs": [],
      "stateMutability": "nonpayable",
      "type": "function"
    }
  ],
  "bytecode": "0x6102006040523480156200001257600080fd5b5060405162002f5238038062002f52833981016040819052620000359162000205565b6001600160a01b0380871660805260ff808d1660a05260c08c90528a1660e052610100899052610120889052600080546001600160a01b0319163317905584811690861610620000875783856200008a565b84845b6001600160a01b039081166101c0529081166101a05262ffffff84166101e052821661018052600281900b61016052620000c481620002df565b60020b610140526101a05160405163095ea7b360e01b81526001600160a01b03848116600483015260001960248301529091169063095ea7b3906044016020604051808303816000875af115801562000121573d6000803e3d6000fd5b505050506040513d601f19601f8201168201806040525081019062000147919062000310565b506101c05160405163095ea7b360e01b81526001600160a01b03848116600483015260001960248301529091169063095ea7b3906044016020604051808303816000875af11580156200019e573d6000803e3d6000fd5b505050506040513d601f19601f82011682018060405250810190620001c4919062000310565b5050505050505050505050506200033b565b805160ff81168114620001e857600080fd5b919050565b80516001600160a01b0381168114620001e857600080fd5b60008060008060008060008060008060006101608c8e0312156200022857600080fd5b620002338c620001d6565b9a5060208c015199506200024a60408d01620001d6565b985060608c0151975060808c015196506200026860a08d01620001ed565b95506200027860c08d01620001ed565b94506200028860e08d01620001ed565b93506101008c015162ffffff81168114620002a257600080fd5b9250620002b36101208d01620001ed565b91506101408c01518060020b8114620002cb57600080fd5b809150509295989b509295989b9093969950565b60008160020b627fffff1981036200030757634e487b7160e01b600052601160045260246000fd5b60000392915050565b6000602082840312156200032357600080fd5b815180151581146200033457600080fd5b9392505050565b60805160a05160c05160e05161010051610120516101405161016051610180516101a0516101c0516101e051612aba62000498600039600081816105910152611ee601526000818161056a015281816110870152611ea30152600081816102b6015281816110510152611e6701526000818161054301528181610ae201528181610c6e01528181610cf401528181610e5e01528181610ed001528181610fe80152818161131101528181611dc50152818161224b015261231c0152600081816104640152611f7a0152600081816104b10152611f4a0152600081816103e401526118520152600081816104fe015261187d01526000818161027d0152818161069301528181610857015281816114860152611b5501526000818161060501526117640152600081816105b8015281816117000152818161172b01526117f201526000818161062c0152818161158f015261165c0152612aba6000f3fe608060405234801561001057600080fd5b50600436106102065760003560e01c80638da5cb5b1161011a578063ddca3f43116100ad578063f6def7cf1161007c578063f6def7cf14610600578063f7c618c114610627578063f99b7d751461064e578063fa60c77c14610661578063fdc5ab8e1461067457600080fd5b8063ddca3f431461058c578063e11400bb146105b3578063e1c05d93146105da578063ee3453ed146105ed57600080fd5b8063c75363b6116100e9578063c75363b6146104f9578063cd671a5814610520578063d06fcba81461053e578063d21220a71461056557600080fd5b80638da5cb5b14610499578063a1634b14146104ac578063ae169a50146104d3578063bb57852d146104e657600080fd5b80631a906d651161019d578063441a3e701161016c578063441a3e70146104065780634fb2e45d146104195780635b680a451461042c5780635f8e422f146104575780636882a8881461045f57600080fd5b80631a906d65146103b0578063291c73c3146103c357806329ed1cfd146103d657806337ba682d146103df57600080fd5b80630dfe1681116101d95780630dfe1681146102b157806310c6c1c2146102f0578063150b7a0214610359578063157775df1461039057600080fd5b806302e9e4951461020b57806307c6e2fa146102355780630bce12841461024a5780630d437d4014610278575b600080fd5b61021e61021936600461239f565b61068a565b60405161022c9291906123f7565b60405180910390f35b6102486102433660046124df565b610895565b005b61026a61025836600461254c565b60056020526000908152604090205481565b60405190815260200161022c565b61029f7f000000000000000000000000000000000000000000000000000000000000000081565b60405160ff909116815260200161022c565b6102d87f000000000000000000000000000000000000000000000000000000000000000081565b6040516001600160a01b03909116815260200161022c565b61032f6102fe36600461254c565b60076020526000908152604090208054600182015460028301546003909301546001600160a01b0390921692909184565b604080516001600160a01b039095168552602085019390935291830152606082015260800161022c565b610377610367366004612565565b630a85bd0160e11b949350505050565b6040516001600160e01b0319909116815260200161022c565b61026a61039e36600461254c565b60046020526000908152604090205481565b6102486103be366004612629565b6109de565b61026a6103d1366004612655565b61112c565b61026a60065481565b61026a7f000000000000000000000000000000000000000000000000000000000000000081565b610248610414366004612681565b61115d565b61024861042736600461239f565b6113c2565b61026a61043a366004612655565b600260209081526000928352604080842090915290825290205481565b61024861140e565b6104867f000000000000000000000000000000000000000000000000000000000000000081565b60405160029190910b815260200161022c565b6000546102d8906001600160a01b031681565b6104867f000000000000000000000000000000000000000000000000000000000000000081565b6102486104e136600461254c565b61145f565b61026a6104f4366004612655565b6115e7565b61026a7f000000000000000000000000000000000000000000000000000000000000000081565b61052a62093a8081565b60405162ffffff909116815260200161022c565b6102d87f000000000000000000000000000000000000000000000000000000000000000081565b6102d87f000000000000000000000000000000000000000000000000000000000000000081565b61052a7f000000000000000000000000000000000000000000000000000000000000000081565b61029f7f000000000000000000000000000000000000000000000000000000000000000081565b6102486105e8366004612629565b61160c565b61026a6105fb3660046126b9565b6116f7565b61026a7f000000000000000000000000000000000000000000000000000000000000000081565b6102d87f000000000000000000000000000000000000000000000000000000000000000081565b61024861065c3660046126e5565b6117c1565b61026a61066f36600461239f565b611b4e565b61067c611c59565b60405161022c92919061271a565b600060608160ff7f0000000000000000000000000000000000000000000000000000000000000000166106c062093a8042612752565b6106ca9190612774565b6106d590600161278d565b6001600160a01b038516600090815260036020526040902090915081906001015411610714576040805160008152602081019091529094909350915050565b6001600160a01b0384166000908152600360205260408120805460019091015490918383116107435783610745565b825b905060006107538284612774565b67ffffffffffffffff81111561076b5761076b612418565b604051908082528060200260200182016040528015610794578160200160208202803683370190505b509050815b8381101561083f5760008181526004602052604090205415610804576000818152600460209081526040808320546001600160a01b038d1684526002835281842085855283528184205460059093529220546107f591906127b6565b6107ff9190612752565b610807565b60005b826108128584612774565b81518110610822576108226127a0565b602090810291909101015280610837816127cd565b915050610799565b50600061084f62093a8042612752565b61087c8460ff7f00000000000000000000000000000000000000000000000000000000000000001661278d565b6108869190612774565b99919850909650505050505050565b80804211156108bf5760405162461bcd60e51b81526004016108b6906127e6565b60405180910390fd5b6000546001600160a01b031633146108e95760405162461bcd60e51b81526004016108b69061280d565b825184511461092d5760405162461bcd60e51b815260206004820152601060248201526f3830b930b6b2ba32b9399032b93937b960811b60448201526064016108b6565b6000805b85518110156109d45784818151811061094c5761094c6127a0565b60200260200101516005600088848151811061096a5761096a6127a0565b602002602001015181526020019081526020016000208190555081868281518110610997576109976127a0565b602002602001015111156109c2578581815181106109b7576109b76127a0565b602002602001015191505b806109cc816127cd565b915050610931565b5060065550505050565b80804211156109ff5760405162461bcd60e51b81526004016108b6906127e6565b6000848152600760205260409020546001600160a01b03163314610a575760405162461bcd60e51b815260206004820152600f60248201526e37bbb732b9103337b93134b23232b760891b60448201526064016108b6565b6000610a6662093a8042612752565b600086815260076020526040902060030154909150811015610ab85760405162461bcd60e51b815260206004820152600b60248201526a6c6f636b65642074696d6560a81b60448201526064016108b6565b610ac184611db8565b506040516331a9108f60e11b81526004810185905233906001600160a01b037f00000000000000000000000000000000000000000000000000000000000000001690636352211e90602401602060405180830381865afa158015610b29573d6000803e3d6000fd5b505050506040513d601f19601f82011682018060405250810190610b4d919061283b565b6001600160a01b031614610b8f5760405162461bcd60e51b8152602060048201526009602482015268369037bbb732b9103360b91b60448201526064016108b6565b336000908152600860205260408120905b8154811015610c5457818181548110610bbb57610bbb6127a0565b90600052602060002001548703610c425781548290610bdc90600190612774565b81548110610bec57610bec6127a0565b9060005260206000200154828281548110610c0957610c096127a0565b906000526020600020018190555081805480610c2757610c27612858565b60019003818190600052602060002001600090559055610c54565b80610c4c816127cd565b915050610ba0565b5060405163133f757160e31b8152600481018790526000907f00000000000000000000000000000000000000000000000000000000000000006001600160a01b0316906399fbab889060240161018060405180830381865afa158015610cbe573d6000803e3d6000fd5b505050506040513d601f19601f82011682018060405250810190610ce291906128aa565b505050509750505050505050506000807f00000000000000000000000000000000000000000000000000000000000000006001600160a01b0316630c49ccbe6040518060a001604052808c8152602001866001600160801b0316815260200160008152602001600081526020018a8152506040518263ffffffff1660e01b8152600401610dad9190600060a082019050825182526001600160801b03602084015116602083015260408301516040830152606083015160608301526080830151608083015292915050565b60408051808303816000875af1158015610dcb573d6000803e3d6000fd5b505050506040513d601f19601f82011682018060405250810190610def919061298b565b604080516080810182528c815230602082019081526001600160801b0382840181815260608401828152945163fc6f786560e01b81529351600485015291516001600160a01b0390811660248501529151811660448401529251909216606482015292945090925060009182917f0000000000000000000000000000000000000000000000000000000000000000169063fc6f78659060840160408051808303816000875af1158015610ea6573d6000803e3d6000fd5b505050506040513d601f19601f82011682018060405250810190610eca919061298b565b915091507f00000000000000000000000000000000000000000000000000000000000000006001600160a01b031663219f5d176040518060c001604052808d815260200187815260200186815260200160008152602001600081526020018c8152506040518263ffffffff1660e01b8152600401610f879190600060c082019050825182526020830151602083015260408301516040830152606083015160608301526080830151608083015260a083015160a083015292915050565b6060604051808303816000875af1158015610fa6573d6000803e3d6000fd5b505050506040513d601f19601f82011682018060405250810190610fca91906129af565b604051630852cd8d60e31b8152600481018f905292975090955093507f00000000000000000000000000000000000000000000000000000000000000006001600160a01b0316906342966c6890602401600060405180830381600087803b15801561103457600080fd5b505af1158015611048573d6000803e3d6000fd5b505050506110827f000000000000000000000000000000000000000000000000000000000000000033868561107d9190612774565b611ff5565b6110b17f00000000000000000000000000000000000000000000000000000000000000003361107d8685612774565b337f9292b1de86834b12fcdc5d8fc52cca04b266ebc75a61d49888ec43218a7e6029868d8d6110e08988612774565b6110ea8988612774565b604080516001600160801b0390961686526020860194909452928401919091526060830152608082015260a00160405180910390a25050505050505050505050565b6008602052816000526040600020818154811061114857600080fd5b90600052602060002001600091509150505481565b808042111561117e5760405162461bcd60e51b81526004016108b6906127e6565b6000838152600760205260409020546001600160a01b031633146111d65760405162461bcd60e51b815260206004820152600f60248201526e37bbb732b9103337b93134b23232b760891b60448201526064016108b6565b60006111e562093a8042612752565b6000858152600760205260409020600301549091508110156112375760405162461bcd60e51b815260206004820152600b60248201526a6c6f636b65642074696d6560a81b60448201526064016108b6565b336000908152600860205260408120905b815481101561138457818181548110611263576112636127a0565b90600052602060002001548603611372578154829061128490600190612774565b81548110611294576112946127a0565b90600052602060002001548282815481106112b1576112b16127a0565b9060005260206000200181905550818054806112cf576112cf612858565b600082815260208120820160001990810191909155019055604051632142170760e11b8152306004820152336024820152604481018790526001600160a01b037f000000000000000000000000000000000000000000000000000000000000000016906342842e0e90606401600060405180830381600087803b15801561135557600080fd5b505af1158015611369573d6000803e3d6000fd5b50505050611384565b8061137c816127cd565b915050611248565b5060405185815233907f884edad9ce6fa2440d8a54cc123490eb96d2768479d49ff9c7366125a9424364906020015b60405180910390a25050505050565b6000546001600160a01b031633146113ec5760405162461bcd60e51b81526004016108b69061280d565b600180546001600160a01b0319166001600160a01b0392909216919091179055565b6001546001600160a01b031633146114385760405162461bcd60e51b81526004016108b69061280d565b60018054600080546001600160a01b03199081166001600160a01b03841617909155169055565b80804211156114805760405162461bcd60e51b81526004016108b6906127e6565b600060ff7f0000000000000000000000000000000000000000000000000000000000000000166114b362093a8042612752565b6114bd9190612774565b3360009081526003602052604081205491925090805b3360009081526003602052604090206001015481101561157657838111611576576114ff81600161278d565b600082815260046020526040902054909250156115645760008181526004602090815260408083205433845260028352818420858552835281842054600590935292205461154d91906127b6565b6115579190612752565b611561908461278d565b92505b8061156e816127cd565b9150506114d3565b50336000908152600360205260408120829101556115b57f00000000000000000000000000000000000000000000000000000000000000003384611ff5565b60405182815233907fba8de60c3403ec381d1d484652ea1980e3c3e56359195c92525bff4ce47ad98e906020016113b3565b6003602052816000526040600020816002811061160357600080fd5b01549150829050565b808042111561162d5760405162461bcd60e51b81526004016108b6906127e6565b6000546001600160a01b031633146116575760405162461bcd60e51b81526004016108b69061280d565b6116837f0000000000000000000000000000000000000000000000000000000000000000333086612102565b600084815260056020526040812080548592906116a190849061278d565b90915550506006548411156116b65760068490555b604080518581526020810185905233917fc3991418cacd70a010fce559a44fcbb47534ca43bf7543964bdca2639f6e6e5a910160405180910390a250505050565b600061172460017f00000000000000000000000000000000000000000000000000000000000000006129e4565b60ff1660017f000000000000000000000000000000000000000000000000000000000000000060ff1660018561175a91906129e4565b60ff1661178860017f0000000000000000000000000000000000000000000000000000000000000000612774565b61179291906127b6565b61179c919061278d565b6117a69190612774565b6117b090856127b6565b6117ba9190612752565b9392505050565b80804211156117e25760405162461bcd60e51b81526004016108b6906127e6565b60008360ff1611801561181b57507f000000000000000000000000000000000000000000000000000000000000000060ff168360ff1611155b6118505760405162461bcd60e51b8152602060048201526006602482015265359018bf1a9960d11b60448201526064016108b6565b7f000000000000000000000000000000000000000000000000000000000000000042111580156118a057507f00000000000000000000000000000000000000000000000000000000000000004210155b6118e05760405162461bcd60e51b81526020600482015260116024820152701b9bdd081a5b881d1a19481c195c9a5bd9607a1b60448201526064016108b6565b60006118ef62093a8042612752565b6118fa90600161278d565b905060006119078661221c565b9050600061191582876116f7565b905060005b8660ff168160ff1610156119af57816004600061193a60ff85168861278d565b81526020019081526020016000206000828254611957919061278d565b9091555050336000908152600260205260408120839161197a60ff85168861278d565b81526020019081526020016000206000828254611997919061278d565b909155508190506119a7816129fd565b91505061191a565b5060006119bf60ff88168561278d565b90506040518060800160405280336001600160a01b0316815260200183815260200185815260200182815250600760008a815260200190815260200160002060008201518160000160006101000a8154816001600160a01b0302191690836001600160a01b0316021790555060208201518160010155604082015181600201556060820151816003015590505060036000336001600160a01b03166001600160a01b03168152602001908152602001600020600160028110611a8357611a836127a0565b01543360009081526003602052604090205403611aad573360009081526003602052604090208490555b3360009081526003602052604090208190600101541015611ade573360009081526003602052604090208190600101555b3360008181526008602090815260408083208054600181018255908452928290209092018b905581518b815290810186905260ff8a168183015290517f6fa2f6021ee337436cdf2b2570285886da18bc06402ce284d296504a0fe8f8759181900360600190a25050505050505050565b60008060ff7f000000000000000000000000000000000000000000000000000000000000000016611b8262093a8042612752565b611b8c9190612774565b6001600160a01b038416600090815260036020526040812054919250905b6001600160a01b038516600090815260036020526040902060010154811015611c5157828111611c515760008181526004602052604090205415611c3f576000818152600460209081526040808320546001600160a01b0389168452600283528184208585528352818420546005909352922054611c2891906127b6565b611c329190612752565b611c3c908361278d565b91505b80611c49816127cd565b915050611baa565b509392505050565b3360009081526008602052604081205460609190819067ffffffffffffffff811115611c8757611c87612418565b604051908082528060200260200182016040528015611cb0578160200160208202803683370190505b5090506000611cc262093a8042612752565b3360009081526008602052604081205491925090815b33600090815260086020526040902054811015611dab57336000908152600860205260408120805483908110611d1057611d106127a0565b906000526020600020015490508460076000838152602001908152602001600020600301541115611d6b5780868581518110611d4e57611d4e6127a0565b602090810291909101015283611d63816127cd565b945050611d98565b82611d7581612a1c565b93505080868481518110611d8b57611d8b6127a0565b6020026020010181815250505b5080611da3816127cd565b915050611cd8565b5092959294509192505050565b60008060008060008060007f00000000000000000000000000000000000000000000000000000000000000006001600160a01b03166399fbab88896040518263ffffffff1660e01b8152600401611e1191815260200190565b61018060405180830381865afa158015611e2f573d6000803e3d6000fd5b505050506040513d601f19601f82011682018060405250810190611e5391906128aa565b5050505097509750975097509750975050507f00000000000000000000000000000000000000000000000000000000000000006001600160a01b0316866001600160a01b0316148015611ed757507f00000000000000000000000000000000000000000000000000000000000000006001600160a01b0316856001600160a01b0316145b8015611f0c57508362ffffff167f000000000000000000000000000000000000000000000000000000000000000062ffffff16145b611f485760405162461bcd60e51b815260206004820152600d60248201526c3638103830b4b91032b93937b960991b60448201526064016108b6565b7f000000000000000000000000000000000000000000000000000000000000000060020b8360020b148015611fa257507f000000000000000000000000000000000000000000000000000000000000000060020b8260020b145b611fe15760405162461bcd60e51b815260206004820152601060248201526f3a34b1b5903930b733b29032b93937b960811b60448201526064016108b6565b6001600160801b0316979650505050505050565b604080516001600160a01b038481166024830152604480830185905283518084039091018152606490920183526020820180516001600160e01b031663a9059cbb60e01b17905291516000928392908716916120519190612a33565b6000604051808303816000865af19150503d806000811461208e576040519150601f19603f3d011682016040523d82523d6000602084013e612093565b606091505b50915091508180156120bd5750805115806120bd5750808060200190518101906120bd9190612a62565b6120fb5760405162461bcd60e51b815260206004820152600f60248201526e1514905394d1915497d19052531151608a1b60448201526064016108b6565b5050505050565b604080516001600160a01b0385811660248301528481166044830152606480830185905283518084039091018152608490920183526020820180516001600160e01b03166323b872dd60e01b17905291516000928392908816916121669190612a33565b6000604051808303816000865af19150503d80600081146121a3576040519150601f19603f3d011682016040523d82523d6000602084013e6121a8565b606091505b50915091508180156121d25750805115806121d25750808060200190518101906121d29190612a62565b6122145760405162461bcd60e51b81526020600482015260136024820152721d1c985b9cd9995c919c9bdb4819985a5b1959606a1b60448201526064016108b6565b505050505050565b60008061222883611db8565b60405163020604bf60e21b81526004810185905290915030906001600160a01b037f0000000000000000000000000000000000000000000000000000000000000000169063081812fc90602401602060405180830381865afa158015612292573d6000803e3d6000fd5b505050506040513d601f19601f820116820180604052508101906122b6919061283b565b6001600160a01b0316146122fa5760405162461bcd60e51b815260206004820152600b60248201526a6e6f7420617070726f766560a81b60448201526064016108b6565b604051632142170760e11b8152336004820152306024820152604481018490527f00000000000000000000000000000000000000000000000000000000000000006001600160a01b0316906342842e0e90606401600060405180830381600087803b15801561236857600080fd5b505af115801561237c573d6000803e3d6000fd5b509295945050505050565b6001600160a01b038116811461239c57600080fd5b50565b6000602082840312156123b157600080fd5b81356117ba81612387565b600081518084526020808501945080840160005b838110156123ec578151875295820195908201906001016123d0565b509495945050505050565b82815260406020820152600061241060408301846123bc565b949350505050565b634e487b7160e01b600052604160045260246000fd5b604051601f8201601f1916810167ffffffffffffffff8111828210171561245757612457612418565b604052919050565b600082601f83011261247057600080fd5b8135602067ffffffffffffffff82111561248c5761248c612418565b8160051b61249b82820161242e565b92835284810182019282810190878511156124b557600080fd5b83870192505b848310156124d4578235825291830191908301906124bb565b979650505050505050565b6000806000606084860312156124f457600080fd5b833567ffffffffffffffff8082111561250c57600080fd5b6125188783880161245f565b9450602086013591508082111561252e57600080fd5b5061253b8682870161245f565b925050604084013590509250925092565b60006020828403121561255e57600080fd5b5035919050565b6000806000806080858703121561257b57600080fd5b843561258681612387565b935060208581013561259781612387565b935060408601359250606086013567ffffffffffffffff808211156125bb57600080fd5b818801915088601f8301126125cf57600080fd5b8135818111156125e1576125e1612418565b6125f3601f8201601f1916850161242e565b9150808252898482850101111561260957600080fd5b808484018584013760008482840101525080935050505092959194509250565b60008060006060848603121561263e57600080fd5b505081359360208301359350604090920135919050565b6000806040838503121561266857600080fd5b823561267381612387565b946020939093013593505050565b6000806040838503121561269457600080fd5b50508035926020909101359150565b803560ff811681146126b457600080fd5b919050565b600080604083850312156126cc57600080fd5b823591506126dc602084016126a3565b90509250929050565b6000806000606084860312156126fa57600080fd5b8335925061270a602085016126a3565b9150604084013590509250925092565b60408152600061272d60408301856123bc565b90508260208301529392505050565b634e487b7160e01b600052601160045260246000fd5b60008261276f57634e487b7160e01b600052601260045260246000fd5b500490565b818103818111156127875761278761273c565b92915050565b808201808211156127875761278761273c565b634e487b7160e01b600052603260045260246000fd5b80820281158282048414176127875761278761273c565b6000600182016127df576127df61273c565b5060010190565b6020808252600d908201526c6f76657220646561646c696e6560981b604082015260600190565b6020808252600990820152683337b93134b23232b760b91b604082015260600190565b80516126b481612387565b60006020828403121561284d57600080fd5b81516117ba81612387565b634e487b7160e01b600052603160045260246000fd5b805162ffffff811681146126b457600080fd5b8051600281900b81146126b457600080fd5b80516001600160801b03811681146126b457600080fd5b6000806000806000806000806000806000806101808d8f0312156128cd57600080fd5b8c516bffffffffffffffffffffffff811681146128e957600080fd5b9b506128f760208e01612830565b9a5061290560408e01612830565b995061291360608e01612830565b985061292160808e0161286e565b975061292f60a08e01612881565b965061293d60c08e01612881565b955061294b60e08e01612893565b94506101008d015193506101208d0151925061296a6101408e01612893565b91506129796101608e01612893565b90509295989b509295989b509295989b565b6000806040838503121561299e57600080fd5b505080516020909101519092909150565b6000806000606084860312156129c457600080fd5b6129cd84612893565b925060208401519150604084015190509250925092565b60ff82811682821603908111156127875761278761273c565b600060ff821660ff8103612a1357612a1361273c565b60010192915050565b600081612a2b57612a2b61273c565b506000190190565b6000825160005b81811015612a545760208186018101518583015201612a3a565b506000920191825250919050565b600060208284031215612a7457600080fd5b815180151581146117ba57600080fdfea264697066735822122085c8af52c0bb653d2e774945b6be4be8f0a3f596192a37a3482428d4c479a2c564736f6c63430008110033",
  "linkReferences": {},
  "deployedLinkReferences": {}
}