{
  "_format": "hh-sol-artifact-1",
  "contractName": "StakeNFT721",
  "sourceName": "contracts/stakeNFT721.sol",
  "abi": [
    {
      "inputs": [
        {
          "internalType": "uint8",
          "name": "maxWeeks",
          "type": "uint8"
        },
        {
          "internalType": "uint256",
          "name": "maxScale",
          "type": "uint256"
        },
        {
          "internalType": "uint8",
          "name": "lockWeeks",
          "type": "uint8"
        },
        {
          "internalType": "uint256",
          "name": "beginTime",
          "type": "uint256"
        },
        {
          "internalType": "uint256",
          "name": "endTime",
          "type": "uint256"
        },
        {
          "internalType": "address",
          "name": "_rewardToken",
          "type": "address"
        },
        {
          "internalType": "address",
          "name": "tokenA",
          "type": "address"
        },
        {
          "internalType": "address",
          "name": "tokenB",
          "type": "address"
        },
        {
          "internalType": "uint24",
          "name": "_fee",
          "type": "uint24"
        },
        {
          "internalType": "address",
          "name": "nft",
          "type": "address"
        },
        {
          "internalType": "int24",
          "name": "tickMax",
          "type": "int24"
        }
      ],
      "stateMutability": "nonpayable",
      "type": "constructor"
    },
    {
      "anonymous": false,
      "inputs": [
        {
          "indexed": true,
          "internalType": "address",
          "name": "user",
          "type": "address"
        },
        {
          "indexed": false,
          "internalType": "uint256",
          "name": "amount",
          "type": "uint256"
        }
      ],
      "name": "ClaimReward",
      "type": "event"
    },
    {
      "anonymous": false,
      "inputs": [
        {
          "indexed": true,
          "internalType": "address",
          "name": "user",
          "type": "address"
        },
        {
          "indexed": false,
          "internalType": "uint256",
          "name": "no",
          "type": "uint256"
        },
        {
          "indexed": false,
          "internalType": "uint256",
          "name": "amount",
          "type": "uint256"
        }
      ],
      "name": "SetReward",
      "type": "event"
    },
    {
      "anonymous": false,
      "inputs": [
        {
          "indexed": true,
          "internalType": "address",
          "name": "user",
          "type": "address"
        },
        {
          "indexed": false,
          "internalType": "uint256",
          "name": "tokenId",
          "type": "uint256"
        },
        {
          "indexed": false,
          "internalType": "uint256",
          "name": "amount",
          "type": "uint256"
        },
        {
          "indexed": false,
          "internalType": "uint8",
          "name": "k",
          "type": "uint8"
        }
      ],
      "name": "Stake",
      "type": "event"
    },
    {
      "anonymous": false,
      "inputs": [
        {
          "indexed": true,
          "internalType": "address",
          "name": "user",
          "type": "address"
        },
        {
          "indexed": false,
          "internalType": "uint256",
          "name": "tokenId",
          "type": "uint256"
        }
      ],
      "name": "Withdraw",
      "type": "event"
    },
    {
      "anonymous": false,
      "inputs": [
        {
          "indexed": true,
          "internalType": "address",
          "name": "user",
          "type": "address"
        },
        {
          "indexed": false,
          "internalType": "uint128",
          "name": "liquidity",
          "type": "uint128"
        },
        {
          "indexed": false,
          "internalType": "uint256",
          "name": "tokenId",
          "type": "uint256"
        },
        {
          "indexed": false,
          "internalType": "uint256",
          "name": "mergeId",
          "type": "uint256"
        },
        {
          "indexed": false,
          "internalType": "uint256",
          "name": "token0Fee",
          "type": "uint256"
        },
        {
          "indexed": false,
          "internalType": "uint256",
          "name": "token1Fee",
          "type": "uint256"
        }
      ],
      "name": "WithdrawAndMerge",
      "type": "event"
    },
    {
      "inputs": [],
      "name": "BEGIN_TIME",
      "outputs": [
        {
          "internalType": "uint256",
          "name": "",
          "type": "uint256"
        }
      ],
      "stateMutability": "view",
      "type": "function"
    },
    {
      "inputs": [],
      "name": "END_TIME",
      "outputs": [
        {
          "internalType": "uint256",
          "name": "",
          "type": "uint256"
        }
      ],
      "stateMutability": "view",
      "type": "function"
    },
    {
      "inputs": [],
      "name": "LOCK_WEEKNUM",
      "outputs": [
        {
          "internalType": "uint8",
          "name": "",
          "type": "uint8"
        }
      ],
      "stateMutability": "view",
      "type": "function"
    },
    {
      "inputs": [],
      "name": "MAX_SCALE",
      "outputs": [
        {
          "internalType": "uint256",
          "name": "",
          "type": "uint256"
        }
      ],
      "stateMutability": "view",
      "type": "function"
    },
    {
      "inputs": [],
      "name": "MAX_TICK",
      "outputs": [
        {
          "internalType": "int24",
          "name": "",
          "type": "int24"
        }
      ],
      "stateMutability": "view",
      "type": "function"
    },
    {
      "inputs": [],
      "name": "MAX_WEEKS",
      "outputs": [
        {
          "internalType": "uint8",
          "name": "",
          "type": "uint8"
        }
      ],
      "stateMutability": "view",
      "type": "function"
    },
    {
      "inputs": [],
      "name": "MIN_TICK",
      "outputs": [
        {
          "internalType": "int24",
          "name": "",
          "type": "int24"
        }
      ],
      "stateMutability": "view",
      "type": "function"
    },
    {
      "inputs": [],
      "name": "WEEK_SECONDS",
      "outputs": [
        {
          "internalType": "uint24",
          "name": "",
          "type": "uint24"
        }
      ],
      "stateMutability": "view",
      "type": "function"
    },
    {
      "inputs": [],
      "name": "acceptSetter",
      "outputs": [],
      "stateMutability": "nonpayable",
      "type": "function"
    },
    {
      "inputs": [],
      "name": "canClaimAmount",
      "outputs": [
        {
          "internalType": "uint256",
          "name": "",
          "type": "uint256"
        }
      ],
      "stateMutability": "view",
      "type": "function"
    },
    {
      "inputs": [
        {
          "internalType": "uint256",
          "name": "deadline",
          "type": "uint256"
        }
      ],
      "name": "claimReward",
      "outputs": [],
      "stateMutability": "nonpayable",
      "type": "function"
    },
    {
      "inputs": [],
      "name": "fee",
      "outputs": [
        {
          "internalType": "uint24",
          "name": "",
          "type": "uint24"
        }
      ],
      "stateMutability": "view",
      "type": "function"
    },
    {
      "inputs": [
        {
          "internalType": "uint256",
          "name": "amount",
          "type": "uint256"
        },
        {
          "internalType": "uint8",
          "name": "k",
          "type": "uint8"
        }
      ],
      "name": "getScore",
      "outputs": [
        {
          "internalType": "uint256",
          "name": "score",
          "type": "uint256"
        }
      ],
      "stateMutability": "view",
      "type": "function"
    },
    {
      "inputs": [],
      "name": "getUserNFTs",
      "outputs": [
        {
          "internalType": "uint256[]",
          "name": "",
          "type": "uint256[]"
        },
        {
          "internalType": "uint256",
          "name": "",
          "type": "uint256"
        }
      ],
      "stateMutability": "view",
      "type": "function"
    },
    {
      "inputs": [],
      "name": "latestNo",
      "outputs": [
        {
          "internalType": "uint256",
          "name": "",
          "type": "uint256"
        }
      ],
      "stateMutability": "view",
      "type": "function"
    },
    {
      "inputs": [],
      "name": "lockedRewardAmount",
      "outputs": [
        {
          "internalType": "uint256",
          "name": "",
          "type": "uint256"
        },
        {
          "internalType": "uint256[]",
          "name": "",
          "type": "uint256[]"
        }
      ],
      "stateMutability": "view",
      "type": "function"
    },
    {
      "inputs": [],
      "name": "nftToken",
      "outputs": [
        {
          "internalType": "contract IIotabeeSwapNFT",
          "name": "",
          "type": "address"
        }
      ],
      "stateMutability": "view",
      "type": "function"
    },
    {
      "inputs": [
        {
          "internalType": "address",
          "name": "",
          "type": "address"
        },
        {
          "internalType": "address",
          "name": "",
          "type": "address"
        },
        {
          "internalType": "uint256",
          "name": "",
          "type": "uint256"
        },
        {
          "internalType": "bytes",
          "name": "",
          "type": "bytes"
        }
      ],
      "name": "onERC721Received",
      "outputs": [
        {
          "internalType": "bytes4",
          "name": "",
          "type": "bytes4"
        }
      ],
      "stateMutability": "pure",
      "type": "function"
    },
    {
      "inputs": [],
      "name": "owner",
      "outputs": [
        {
          "internalType": "address",
          "name": "",
          "type": "address"
        }
      ],
      "stateMutability": "view",
      "type": "function"
    },
    {
      "inputs": [],
      "name": "rewardToken",
      "outputs": [
        {
          "internalType": "address",
          "name": "",
          "type": "address"
        }
      ],
      "stateMutability": "view",
      "type": "function"
    },
    {
      "inputs": [
        {
          "internalType": "uint256",
          "name": "",
          "type": "uint256"
        }
      ],
      "name": "rewardsOf",
      "outputs": [
        {
          "internalType": "uint256",
          "name": "",
          "type": "uint256"
        }
      ],
      "stateMutability": "view",
      "type": "function"
    },
    {
      "inputs": [
        {
          "internalType": "uint256",
          "name": "no",
          "type": "uint256"
        },
        {
          "internalType": "uint256",
          "name": "amount",
          "type": "uint256"
        },
        {
          "internalType": "uint256",
          "name": "deadline",
          "type": "uint256"
        }
      ],
      "name": "setReward",
      "outputs": [],
      "stateMutability": "nonpayable",
      "type": "function"
    },
    {
      "inputs": [
        {
          "internalType": "uint256[]",
          "name": "nos",
          "type": "uint256[]"
        },
        {
          "internalType": "uint256[]",
          "name": "amounts",
          "type": "uint256[]"
        },
        {
          "internalType": "uint256",
          "name": "deadline",
          "type": "uint256"
        }
      ],
      "name": "setRewards",
      "outputs": [
        {
          "internalType": "uint256",
          "name": "total",
          "type": "uint256"
        }
      ],
      "stateMutability": "nonpayable",
      "type": "function"
    },
    {
      "inputs": [
        {
          "internalType": "uint256",
          "name": "tokenId",
          "type": "uint256"
        },
        {
          "internalType": "uint8",
          "name": "k",
          "type": "uint8"
        },
        {
          "internalType": "uint256",
          "name": "deadline",
          "type": "uint256"
        }
      ],
      "name": "stake",
      "outputs": [],
      "stateMutability": "nonpayable",
      "type": "function"
    },
    {
      "inputs": [
        {
          "internalType": "uint256",
          "name": "",
          "type": "uint256"
        }
      ],
      "name": "stakingNFTs",
      "outputs": [
        {
          "internalType": "address",
          "name": "owner",
          "type": "address"
        },
        {
          "internalType": "uint256",
          "name": "score",
          "type": "uint256"
        },
        {
          "internalType": "uint256",
          "name": "beginNo",
          "type": "uint256"
        },
        {
          "internalType": "uint256",
          "name": "endNo",
          "type": "uint256"
        }
      ],
      "stateMutability": "view",
      "type": "function"
    },
    {
      "inputs": [],
      "name": "token0",
      "outputs": [
        {
          "internalType": "address",
          "name": "",
          "type": "address"
        }
      ],
      "stateMutability": "view",
      "type": "function"
    },
    {
      "inputs": [],
      "name": "token1",
      "outputs": [
        {
          "internalType": "address",
          "name": "",
          "type": "address"
        }
      ],
      "stateMutability": "view",
      "type": "function"
    },
    {
      "inputs": [
        {
          "internalType": "uint256",
          "name": "",
          "type": "uint256"
        }
      ],
      "name": "totalScores",
      "outputs": [
        {
          "internalType": "uint256",
          "name": "",
          "type": "uint256"
        }
      ],
      "stateMutability": "view",
      "type": "function"
    },
    {
      "inputs": [
        {
          "internalType": "address",
          "name": "_owner",
          "type": "address"
        }
      ],
      "name": "transferOwner",
      "outputs": [],
      "stateMutability": "nonpayable",
      "type": "function"
    },
    {
      "inputs": [
        {
          "internalType": "address",
          "name": "",
          "type": "address"
        },
        {
          "internalType": "uint256",
          "name": "",
          "type": "uint256"
        }
      ],
      "name": "userCanClaimWeeks",
      "outputs": [
        {
          "internalType": "uint256",
          "name": "",
          "type": "uint256"
        }
      ],
      "stateMutability": "view",
      "type": "function"
    },
    {
      "inputs": [
        {
          "internalType": "address",
          "name": "",
          "type": "address"
        },
        {
          "internalType": "uint256",
          "name": "",
          "type": "uint256"
        }
      ],
      "name": "userNFTs",
      "outputs": [
        {
          "internalType": "uint256",
          "name": "",
          "type": "uint256"
        }
      ],
      "stateMutability": "view",
      "type": "function"
    },
    {
      "inputs": [
        {
          "internalType": "address",
          "name": "",
          "type": "address"
        },
        {
          "internalType": "uint256",
          "name": "",
          "type": "uint256"
        }
      ],
      "name": "userScores",
      "outputs": [
        {
          "internalType": "uint256",
          "name": "",
          "type": "uint256"
        }
      ],
      "stateMutability": "view",
      "type": "function"
    },
    {
      "inputs": [
        {
          "internalType": "uint256",
          "name": "tokenId",
          "type": "uint256"
        },
        {
          "internalType": "uint256",
          "name": "deadline",
          "type": "uint256"
        }
      ],
      "name": "withdraw",
      "outputs": [],
      "stateMutability": "nonpayable",
      "type": "function"
    },
    {
      "inputs": [
        {
          "internalType": "uint256",
          "name": "tokenId",
          "type": "uint256"
        },
        {
          "internalType": "uint256",
          "name": "mergeTokenId",
          "type": "uint256"
        },
        {
          "internalType": "uint256",
          "name": "deadline",
          "type": "uint256"
        }
      ],
      "name": "withdrawAndMerge",
      "outputs": [],
      "stateMutability": "nonpayable",
      "type": "function"
    },
    {
      "inputs": [
        {
          "internalType": "uint256",
          "name": "amount",
          "type": "uint256"
        },
        {
          "internalType": "uint256",
          "name": "deadline",
          "type": "uint256"
        }
      ],
      "name": "withdrawRewards",
      "outputs": [],
      "stateMutability": "nonpayable",
      "type": "function"
    }
  ],
  "bytecode": "0x6102006040523480156200001257600080fd5b50604051620030d1380380620030d1833981016040819052620000359162000205565b6001600160a01b0380871660805260ff808d1660a05260c08c90528a1660e052610100899052610120889052600080546001600160a01b0319163317905584811690861610620000875783856200008a565b84845b6001600160a01b039081166101c0529081166101a05262ffffff84166101e052821661018052600281900b61016052620000c481620002df565b60020b610140526101a05160405163095ea7b360e01b81526001600160a01b03848116600483015260001960248301529091169063095ea7b3906044016020604051808303816000875af115801562000121573d6000803e3d6000fd5b505050506040513d601f19601f8201168201806040525081019062000147919062000310565b506101c05160405163095ea7b360e01b81526001600160a01b03848116600483015260001960248301529091169063095ea7b3906044016020604051808303816000875af11580156200019e573d6000803e3d6000fd5b505050506040513d601f19601f82011682018060405250810190620001c4919062000310565b5050505050505050505050506200033b565b805160ff81168114620001e857600080fd5b919050565b80516001600160a01b0381168114620001e857600080fd5b60008060008060008060008060008060006101608c8e0312156200022857600080fd5b620002338c620001d6565b9a5060208c015199506200024a60408d01620001d6565b985060608c0151975060808c015196506200026860a08d01620001ed565b95506200027860c08d01620001ed565b94506200028860e08d01620001ed565b93506101008c015162ffffff81168114620002a257600080fd5b9250620002b36101208d01620001ed565b91506101408c01518060020b8114620002cb57600080fd5b809150509295989b509295989b9093969950565b60008160020b627fffff1981036200030757634e487b7160e01b600052601160045260246000fd5b60000392915050565b6000602082840312156200032357600080fd5b815180151581146200033457600080fd5b9392505050565b60805160a05160c05160e05161010051610120516101405161016051610180516101a0516101c0516101e051612c1d620004b4600039600081816105a7015261216301526000818161058001528181610f14015261212001526000818161029a01528181610ede01526120e40152600081816105590152818161096f01528181610afb01528181610b8101528181610ceb01528181610d5d01528181610e750152818161119d01528181612042015281816123ae015261247f01526000818161045d01526121f70152600081816104c801526121c70152600081816103ca015281816118390152611ac2015260008181610515015281816118640152611aed0152600081816102610152818161136d0152818161145d01528181611603015261166701526000818161061b01526119d40152600081816105ce015281816119700152818161199b0152611a6201526000818161064201528181610800015281816112ea0152818161176f01526118cc0152612c1d6000f3fe608060405234801561001057600080fd5b50600436106102115760003560e01c80638431165e11610125578063d21220a7116100ad578063ee3453ed1161007c578063ee3453ed14610603578063f6def7cf14610616578063f7c618c11461063d578063f99b7d7514610664578063fdc5ab8e1461067757600080fd5b8063d21220a71461057b578063ddca3f43146105a2578063e11400bb146105c9578063e1c05d93146105f057600080fd5b8063ae169a50116100f4578063ae169a50146104ea578063bb57852d146104fd578063c75363b614610510578063cd671a5814610537578063d06fcba81461055457600080fd5b80638431165e146104925780638923de2b1461049a5780638da5cb5b146104b0578063a1634b14146104c357600080fd5b8063291c73c3116101a85780634fb2e45d116101775780634fb2e45d146103ff57806352cb5133146104125780635b680a45146104255780635f8e422f146104505780636882a8881461045857600080fd5b8063291c73c3146103a957806329ed1cfd146103bc57806337ba682d146103c5578063441a3e70146103ec57600080fd5b806310c6c1c2116101e457806310c6c1c2146102d4578063150b7a021461033d578063157775df146103745780631a906d651461039457600080fd5b806307c6e2fa146102165780630bce12841461023c5780630d437d401461025c5780630dfe168114610295575b600080fd5b6102296102243660046125b1565b61068d565b6040519081526020015b60405180910390f35b61022961024a36600461261e565b60056020526000908152604090205481565b6102837f000000000000000000000000000000000000000000000000000000000000000081565b60405160ff9091168152602001610233565b6102bc7f000000000000000000000000000000000000000000000000000000000000000081565b6040516001600160a01b039091168152602001610233565b6103136102e236600461261e565b60076020526000908152604090208054600182015460028301546003909301546001600160a01b0390921692909184565b604080516001600160a01b0390951685526020850193909352918301526060820152608001610233565b61035b61034b36600461264f565b630a85bd0160e11b949350505050565b6040516001600160e01b03199091168152602001610233565b61022961038236600461261e565b60046020526000908152604090205481565b6103a76103a2366004612713565b61086c565b005b6102296103b736600461273f565b610fb9565b61022960065481565b6102297f000000000000000000000000000000000000000000000000000000000000000081565b6103a76103fa36600461276b565b610fea565b6103a761040d36600461278d565b61124e565b6103a761042036600461276b565b61129a565b61022961043336600461273f565b600260209081526000928352604080842090915290825290205481565b6103a7611315565b61047f7f000000000000000000000000000000000000000000000000000000000000000081565b60405160029190910b8152602001610233565b610229611366565b6104a2611454565b6040516102339291906127e5565b6000546102bc906001600160a01b031681565b61047f7f000000000000000000000000000000000000000000000000000000000000000081565b6103a76104f836600461261e565b611640565b61022961050b36600461273f565b6117c7565b6102297f000000000000000000000000000000000000000000000000000000000000000081565b610540610e1081565b60405162ffffff9091168152602001610233565b6102bc7f000000000000000000000000000000000000000000000000000000000000000081565b6102bc7f000000000000000000000000000000000000000000000000000000000000000081565b6105407f000000000000000000000000000000000000000000000000000000000000000081565b6102837f000000000000000000000000000000000000000000000000000000000000000081565b6103a76105fe366004612713565b6117ec565b61022961061136600461281c565b611967565b6102297f000000000000000000000000000000000000000000000000000000000000000081565b6102bc7f000000000000000000000000000000000000000000000000000000000000000081565b6103a7610672366004612848565b611a31565b61067f611dbd565b60405161023392919061287d565b600081804211156106b95760405162461bcd60e51b81526004016106b09061289f565b60405180910390fd5b6000546001600160a01b031633146106e35760405162461bcd60e51b81526004016106b0906128c6565b83518551146107275760405162461bcd60e51b815260206004820152601060248201526f3830b930b6b2ba32b9399032b93937b960811b60448201526064016106b0565b6000805b86518110156107f557858181518110610746576107466128e9565b6020026020010151846107599190612915565b935085818151811061076d5761076d6128e9565b60200260200101516005600089848151811061078b5761078b6128e9565b6020026020010151815260200190815260200160002081905550818782815181106107b8576107b86128e9565b602002602001015111156107e3578681815181106107d8576107d86128e9565b602002602001015191505b806107ed8161292e565b91505061072b565b5060068190556108277f0000000000000000000000000000000000000000000000000000000000000000333086611f1b565b60408051600081526020810185905233917fc3991418cacd70a010fce559a44fcbb47534ca43bf7543964bdca2639f6e6e5a910160405180910390a250509392505050565b808042111561088d5760405162461bcd60e51b81526004016106b09061289f565b6000848152600760205260409020546001600160a01b031633146108e55760405162461bcd60e51b815260206004820152600f60248201526e37bbb732b9103337b93134b23232b760891b60448201526064016106b0565b60006108f3610e1042612947565b6000868152600760205260409020600301549091508110156109455760405162461bcd60e51b815260206004820152600b60248201526a6c6f636b65642074696d6560a81b60448201526064016106b0565b61094e84612035565b506040516331a9108f60e11b81526004810185905233906001600160a01b037f00000000000000000000000000000000000000000000000000000000000000001690636352211e90602401602060405180830381865afa1580156109b6573d6000803e3d6000fd5b505050506040513d601f19601f820116820180604052508101906109da9190612974565b6001600160a01b031614610a1c5760405162461bcd60e51b8152602060048201526009602482015268369037bbb732b9103360b91b60448201526064016106b0565b336000908152600860205260408120905b8154811015610ae157818181548110610a4857610a486128e9565b90600052602060002001548703610acf5781548290610a6990600190612991565b81548110610a7957610a796128e9565b9060005260206000200154828281548110610a9657610a966128e9565b906000526020600020018190555081805480610ab457610ab46129a4565b60019003818190600052602060002001600090559055610ae1565b80610ad98161292e565b915050610a2d565b5060405163133f757160e31b8152600481018790526000907f00000000000000000000000000000000000000000000000000000000000000006001600160a01b0316906399fbab889060240161018060405180830381865afa158015610b4b573d6000803e3d6000fd5b505050506040513d601f19601f82011682018060405250810190610b6f91906129f6565b505050509750505050505050506000807f00000000000000000000000000000000000000000000000000000000000000006001600160a01b0316630c49ccbe6040518060a001604052808c8152602001866001600160801b0316815260200160008152602001600081526020018a8152506040518263ffffffff1660e01b8152600401610c3a9190600060a082019050825182526001600160801b03602084015116602083015260408301516040830152606083015160608301526080830151608083015292915050565b60408051808303816000875af1158015610c58573d6000803e3d6000fd5b505050506040513d601f19601f82011682018060405250810190610c7c9190612ad7565b604080516080810182528c815230602082019081526001600160801b0382840181815260608401828152945163fc6f786560e01b81529351600485015291516001600160a01b0390811660248501529151811660448401529251909216606482015292945090925060009182917f0000000000000000000000000000000000000000000000000000000000000000169063fc6f78659060840160408051808303816000875af1158015610d33573d6000803e3d6000fd5b505050506040513d601f19601f82011682018060405250810190610d579190612ad7565b915091507f00000000000000000000000000000000000000000000000000000000000000006001600160a01b031663219f5d176040518060c001604052808d815260200187815260200186815260200160008152602001600081526020018c8152506040518263ffffffff1660e01b8152600401610e149190600060c082019050825182526020830151602083015260408301516040830152606083015160608301526080830151608083015260a083015160a083015292915050565b6060604051808303816000875af1158015610e33573d6000803e3d6000fd5b505050506040513d601f19601f82011682018060405250810190610e579190612afb565b604051630852cd8d60e31b8152600481018f905292975090955093507f00000000000000000000000000000000000000000000000000000000000000006001600160a01b0316906342966c6890602401600060405180830381600087803b158015610ec157600080fd5b505af1158015610ed5573d6000803e3d6000fd5b50505050610f0f7f0000000000000000000000000000000000000000000000000000000000000000338685610f0a9190612991565b612272565b610f3e7f000000000000000000000000000000000000000000000000000000000000000033610f0a8685612991565b337f9292b1de86834b12fcdc5d8fc52cca04b266ebc75a61d49888ec43218a7e6029868d8d610f6d8988612991565b610f778988612991565b604080516001600160801b0390961686526020860194909452928401919091526060830152608082015260a00160405180910390a25050505050505050505050565b60086020528160005260406000208181548110610fd557600080fd5b90600052602060002001600091509150505481565b808042111561100b5760405162461bcd60e51b81526004016106b09061289f565b6000838152600760205260409020546001600160a01b031633146110635760405162461bcd60e51b815260206004820152600f60248201526e37bbb732b9103337b93134b23232b760891b60448201526064016106b0565b6000611071610e1042612947565b6000858152600760205260409020600301549091508110156110c35760405162461bcd60e51b815260206004820152600b60248201526a6c6f636b65642074696d6560a81b60448201526064016106b0565b336000908152600860205260408120905b8154811015611210578181815481106110ef576110ef6128e9565b906000526020600020015486036111fe578154829061111090600190612991565b81548110611120576111206128e9565b906000526020600020015482828154811061113d5761113d6128e9565b90600052602060002001819055508180548061115b5761115b6129a4565b600082815260208120820160001990810191909155019055604051632142170760e11b8152306004820152336024820152604481018790526001600160a01b037f000000000000000000000000000000000000000000000000000000000000000016906342842e0e90606401600060405180830381600087803b1580156111e157600080fd5b505af11580156111f5573d6000803e3d6000fd5b50505050611210565b806112088161292e565b9150506110d4565b5060405185815233907f884edad9ce6fa2440d8a54cc123490eb96d2768479d49ff9c7366125a9424364906020015b60405180910390a25050505050565b6000546001600160a01b031633146112785760405162461bcd60e51b81526004016106b0906128c6565b600180546001600160a01b0319166001600160a01b0392909216919091179055565b80804211156112bb5760405162461bcd60e51b81526004016106b09061289f565b6000546001600160a01b031633146112e55760405162461bcd60e51b81526004016106b0906128c6565b6113107f00000000000000000000000000000000000000000000000000000000000000003385612272565b505050565b6001546001600160a01b0316331461133f5760405162461bcd60e51b81526004016106b0906128c6565b60018054600080546001600160a01b03199081166001600160a01b03841617909155169055565b60008060ff7f000000000000000000000000000000000000000000000000000000000000000016611399610e1042612947565b6113a39190612991565b33600090815260036020526040812054919250905b3360009081526003602052604090206001015481101561144d5782811161144d576000818152600460205260409020541561143b576000818152600460209081526040808320543384526002835281842085855283528184205460059093529220546114249190612b30565b61142e9190612947565b6114389083612915565b91505b806114458161292e565b9150506113b8565b5092915050565b600060608160ff7f000000000000000000000000000000000000000000000000000000000000000016611489610e1042612947565b6114939190612991565b61149e906001612915565b336000908152600360205260409020909150819060010154116114d35760408051600081526020810190915290939092509050565b336000908152600360205260408120805460019091015490918383116114f957836114fb565b825b905060006115098284612991565b67ffffffffffffffff811115611521576115216124ea565b60405190808252806020026020018201604052801561154a578160200160208202803683370190505b509050815b838110156115ec57600081815260046020526040902054156115b1576000818152600460209081526040808320543384526002835281842085855283528184205460059093529220546115a29190612b30565b6115ac9190612947565b6115b4565b60005b826115bf8584612991565b815181106115cf576115cf6128e9565b6020908102919091010152806115e48161292e565b91505061154f565b5060006115fb610e1042612947565b6116288460ff7f000000000000000000000000000000000000000000000000000000000000000016612915565b6116329190612991565b989197509095505050505050565b80804211156116615760405162461bcd60e51b81526004016106b09061289f565b600060ff7f000000000000000000000000000000000000000000000000000000000000000016611693610e1042612947565b61169d9190612991565b3360009081526003602052604081205491925090805b3360009081526003602052604090206001015481101561175657838111611756576116df816001612915565b600082815260046020526040902054909250156117445760008181526004602090815260408083205433845260028352818420858552835281842054600590935292205461172d9190612b30565b6117379190612947565b6117419084612915565b92505b8061174e8161292e565b9150506116b3565b50336000908152600360205260408120829101556117957f00000000000000000000000000000000000000000000000000000000000000003384612272565b60405182815233907fba8de60c3403ec381d1d484652ea1980e3c3e56359195c92525bff4ce47ad98e9060200161123f565b600360205281600052604060002081600281106117e357600080fd5b01549150829050565b808042111561180d5760405162461bcd60e51b81526004016106b09061289f565b6000546001600160a01b031633146118375760405162461bcd60e51b81526004016106b0906128c6565b7f0000000000000000000000000000000000000000000000000000000000000000421115801561188757507f00000000000000000000000000000000000000000000000000000000000000004210155b6118c75760405162461bcd60e51b81526020600482015260116024820152701b9bdd081a5b881d1a19481c195c9a5bd9607a1b60448201526064016106b0565b6118f37f0000000000000000000000000000000000000000000000000000000000000000333086611f1b565b60008481526005602052604081208054859290611911908490612915565b90915550506006548411156119265760068490555b604080518581526020810185905233917fc3991418cacd70a010fce559a44fcbb47534ca43bf7543964bdca2639f6e6e5a910160405180910390a250505050565b600061199460017f0000000000000000000000000000000000000000000000000000000000000000612b47565b60ff1660017f000000000000000000000000000000000000000000000000000000000000000060ff166001856119ca9190612b47565b60ff166119f860017f0000000000000000000000000000000000000000000000000000000000000000612991565b611a029190612b30565b611a0c9190612915565b611a169190612991565b611a209085612b30565b611a2a9190612947565b9392505050565b8080421115611a525760405162461bcd60e51b81526004016106b09061289f565b60008360ff16118015611a8b57507f000000000000000000000000000000000000000000000000000000000000000060ff168360ff1611155b611ac05760405162461bcd60e51b8152602060048201526006602482015265359018bf1a9960d11b60448201526064016106b0565b7f00000000000000000000000000000000000000000000000000000000000000004211158015611b1057507f00000000000000000000000000000000000000000000000000000000000000004210155b611b505760405162461bcd60e51b81526020600482015260116024820152701b9bdd081a5b881d1a19481c195c9a5bd9607a1b60448201526064016106b0565b6000611b5e610e1042612947565b611b69906001612915565b90506000611b768661237f565b90506000611b848287611967565b905060005b8660ff168160ff161015611c1e578160046000611ba960ff851688612915565b81526020019081526020016000206000828254611bc69190612915565b90915550503360009081526002602052604081208391611be960ff851688612915565b81526020019081526020016000206000828254611c069190612915565b90915550819050611c1681612b60565b915050611b89565b506000611c2e60ff881685612915565b90506040518060800160405280336001600160a01b0316815260200183815260200185815260200182815250600760008a815260200190815260200160002060008201518160000160006101000a8154816001600160a01b0302191690836001600160a01b0316021790555060208201518160010155604082015181600201556060820151816003015590505060036000336001600160a01b03166001600160a01b03168152602001908152602001600020600160028110611cf257611cf26128e9565b01543360009081526003602052604090205403611d1c573360009081526003602052604090208490555b3360009081526003602052604090208190600101541015611d4d573360009081526003602052604090208190600101555b3360008181526008602090815260408083208054600181018255908452928290209092018b905581518b815290810186905260ff8a168183015290517f6fa2f6021ee337436cdf2b2570285886da18bc06402ce284d296504a0fe8f8759181900360600190a25050505050505050565b3360009081526008602052604081205460609190819067ffffffffffffffff811115611deb57611deb6124ea565b604051908082528060200260200182016040528015611e14578160200160208202803683370190505b5090506000611e25610e1042612947565b3360009081526008602052604081205491925090815b33600090815260086020526040902054811015611f0e57336000908152600860205260408120805483908110611e7357611e736128e9565b906000526020600020015490508460076000838152602001908152602001600020600301541115611ece5780868581518110611eb157611eb16128e9565b602090810291909101015283611ec68161292e565b945050611efb565b82611ed881612b7f565b93505080868481518110611eee57611eee6128e9565b6020026020010181815250505b5080611f068161292e565b915050611e3b565b5092959294509192505050565b604080516001600160a01b0385811660248301528481166044830152606480830185905283518084039091018152608490920183526020820180516001600160e01b03166323b872dd60e01b1790529151600092839290881691611f7f9190612b96565b6000604051808303816000865af19150503d8060008114611fbc576040519150601f19603f3d011682016040523d82523d6000602084013e611fc1565b606091505b5091509150818015611feb575080511580611feb575080806020019051810190611feb9190612bc5565b61202d5760405162461bcd60e51b81526020600482015260136024820152721d1c985b9cd9995c919c9bdb4819985a5b1959606a1b60448201526064016106b0565b505050505050565b60008060008060008060007f00000000000000000000000000000000000000000000000000000000000000006001600160a01b03166399fbab88896040518263ffffffff1660e01b815260040161208e91815260200190565b61018060405180830381865afa1580156120ac573d6000803e3d6000fd5b505050506040513d601f19601f820116820180604052508101906120d091906129f6565b5050505097509750975097509750975050507f00000000000000000000000000000000000000000000000000000000000000006001600160a01b0316866001600160a01b031614801561215457507f00000000000000000000000000000000000000000000000000000000000000006001600160a01b0316856001600160a01b0316145b801561218957508362ffffff167f000000000000000000000000000000000000000000000000000000000000000062ffffff16145b6121c55760405162461bcd60e51b815260206004820152600d60248201526c3638103830b4b91032b93937b960991b60448201526064016106b0565b7f000000000000000000000000000000000000000000000000000000000000000060020b8360020b14801561221f57507f000000000000000000000000000000000000000000000000000000000000000060020b8260020b145b61225e5760405162461bcd60e51b815260206004820152601060248201526f3a34b1b5903930b733b29032b93937b960811b60448201526064016106b0565b6001600160801b0316979650505050505050565b604080516001600160a01b038481166024830152604480830185905283518084039091018152606490920183526020820180516001600160e01b031663a9059cbb60e01b17905291516000928392908716916122ce9190612b96565b6000604051808303816000865af19150503d806000811461230b576040519150601f19603f3d011682016040523d82523d6000602084013e612310565b606091505b509150915081801561233a57508051158061233a57508080602001905181019061233a9190612bc5565b6123785760405162461bcd60e51b815260206004820152600f60248201526e1514905394d1915497d19052531151608a1b60448201526064016106b0565b5050505050565b60008061238b83612035565b60405163020604bf60e21b81526004810185905290915030906001600160a01b037f0000000000000000000000000000000000000000000000000000000000000000169063081812fc90602401602060405180830381865afa1580156123f5573d6000803e3d6000fd5b505050506040513d601f19601f820116820180604052508101906124199190612974565b6001600160a01b03161461245d5760405162461bcd60e51b815260206004820152600b60248201526a6e6f7420617070726f766560a81b60448201526064016106b0565b604051632142170760e11b8152336004820152306024820152604481018490527f00000000000000000000000000000000000000000000000000000000000000006001600160a01b0316906342842e0e90606401600060405180830381600087803b1580156124cb57600080fd5b505af11580156124df573d6000803e3d6000fd5b509295945050505050565b634e487b7160e01b600052604160045260246000fd5b604051601f8201601f1916810167ffffffffffffffff81118282101715612529576125296124ea565b604052919050565b600082601f83011261254257600080fd5b8135602067ffffffffffffffff82111561255e5761255e6124ea565b8160051b61256d828201612500565b928352848101820192828101908785111561258757600080fd5b83870192505b848310156125a65782358252918301919083019061258d565b979650505050505050565b6000806000606084860312156125c657600080fd5b833567ffffffffffffffff808211156125de57600080fd5b6125ea87838801612531565b9450602086013591508082111561260057600080fd5b5061260d86828701612531565b925050604084013590509250925092565b60006020828403121561263057600080fd5b5035919050565b6001600160a01b038116811461264c57600080fd5b50565b6000806000806080858703121561266557600080fd5b843561267081612637565b935060208581013561268181612637565b935060408601359250606086013567ffffffffffffffff808211156126a557600080fd5b818801915088601f8301126126b957600080fd5b8135818111156126cb576126cb6124ea565b6126dd601f8201601f19168501612500565b915080825289848285010111156126f357600080fd5b808484018584013760008482840101525080935050505092959194509250565b60008060006060848603121561272857600080fd5b505081359360208301359350604090920135919050565b6000806040838503121561275257600080fd5b823561275d81612637565b946020939093013593505050565b6000806040838503121561277e57600080fd5b50508035926020909101359150565b60006020828403121561279f57600080fd5b8135611a2a81612637565b600081518084526020808501945080840160005b838110156127da578151875295820195908201906001016127be565b509495945050505050565b8281526040602082015260006127fe60408301846127aa565b949350505050565b803560ff8116811461281757600080fd5b919050565b6000806040838503121561282f57600080fd5b8235915061283f60208401612806565b90509250929050565b60008060006060848603121561285d57600080fd5b8335925061286d60208501612806565b9150604084013590509250925092565b60408152600061289060408301856127aa565b90508260208301529392505050565b6020808252600d908201526c6f76657220646561646c696e6560981b604082015260600190565b6020808252600990820152683337b93134b23232b760b91b604082015260600190565b634e487b7160e01b600052603260045260246000fd5b634e487b7160e01b600052601160045260246000fd5b80820180821115612928576129286128ff565b92915050565b600060018201612940576129406128ff565b5060010190565b60008261296457634e487b7160e01b600052601260045260246000fd5b500490565b805161281781612637565b60006020828403121561298657600080fd5b8151611a2a81612637565b81810381811115612928576129286128ff565b634e487b7160e01b600052603160045260246000fd5b805162ffffff8116811461281757600080fd5b8051600281900b811461281757600080fd5b80516001600160801b038116811461281757600080fd5b6000806000806000806000806000806000806101808d8f031215612a1957600080fd5b8c516bffffffffffffffffffffffff81168114612a3557600080fd5b9b50612a4360208e01612969565b9a50612a5160408e01612969565b9950612a5f60608e01612969565b9850612a6d60808e016129ba565b9750612a7b60a08e016129cd565b9650612a8960c08e016129cd565b9550612a9760e08e016129df565b94506101008d015193506101208d01519250612ab66101408e016129df565b9150612ac56101608e016129df565b90509295989b509295989b509295989b565b60008060408385031215612aea57600080fd5b505080516020909101519092909150565b600080600060608486031215612b1057600080fd5b612b19846129df565b925060208401519150604084015190509250925092565b8082028115828204841417612928576129286128ff565b60ff8281168282160390811115612928576129286128ff565b600060ff821660ff8103612b7657612b766128ff565b60010192915050565b600081612b8e57612b8e6128ff565b506000190190565b6000825160005b81811015612bb75760208186018101518583015201612b9d565b506000920191825250919050565b600060208284031215612bd757600080fd5b81518015158114611a2a57600080fdfea2646970667358221220cd6a3523aac090ab098769e06a014c89cccb2a2e0d02a8f1c644ee39809f3b7e64736f6c63430008110033",
  "linkReferences": {},
  "deployedLinkReferences": {}
}