{
  "_format": "hh-sol-artifact-1",
  "contractName": "StakeNFT721",
  "sourceName": "contracts/stakeNFT721.sol",
  "abi": [
    {
      "inputs": [
        {
          "internalType": "uint8",
          "name": "maxWeeks",
          "type": "uint8"
        },
        {
          "internalType": "uint256",
          "name": "maxScale",
          "type": "uint256"
        },
        {
          "internalType": "uint8",
          "name": "lockWeeks",
          "type": "uint8"
        },
        {
          "internalType": "uint256",
          "name": "beginTime",
          "type": "uint256"
        },
        {
          "internalType": "uint256",
          "name": "endTime",
          "type": "uint256"
        },
        {
          "internalType": "address",
          "name": "_rewardToken",
          "type": "address"
        },
        {
          "internalType": "address",
          "name": "tokenA",
          "type": "address"
        },
        {
          "internalType": "address",
          "name": "tokenB",
          "type": "address"
        },
        {
          "internalType": "uint24",
          "name": "_fee",
          "type": "uint24"
        },
        {
          "internalType": "address",
          "name": "nft",
          "type": "address"
        },
        {
          "internalType": "int24",
          "name": "tickMax",
          "type": "int24"
        }
      ],
      "stateMutability": "nonpayable",
      "type": "constructor"
    },
    {
      "anonymous": false,
      "inputs": [
        {
          "indexed": true,
          "internalType": "address",
          "name": "user",
          "type": "address"
        },
        {
          "indexed": false,
          "internalType": "uint256",
          "name": "amount",
          "type": "uint256"
        }
      ],
      "name": "ClaimReward",
      "type": "event"
    },
    {
      "anonymous": false,
      "inputs": [
        {
          "indexed": true,
          "internalType": "address",
          "name": "user",
          "type": "address"
        },
        {
          "indexed": false,
          "internalType": "uint256",
          "name": "no",
          "type": "uint256"
        },
        {
          "indexed": false,
          "internalType": "uint256",
          "name": "amount",
          "type": "uint256"
        }
      ],
      "name": "SetReward",
      "type": "event"
    },
    {
      "anonymous": false,
      "inputs": [
        {
          "indexed": true,
          "internalType": "address",
          "name": "user",
          "type": "address"
        },
        {
          "indexed": false,
          "internalType": "uint256",
          "name": "tokenId",
          "type": "uint256"
        },
        {
          "indexed": false,
          "internalType": "uint256",
          "name": "amount",
          "type": "uint256"
        },
        {
          "indexed": false,
          "internalType": "uint8",
          "name": "k",
          "type": "uint8"
        }
      ],
      "name": "Stake",
      "type": "event"
    },
    {
      "anonymous": false,
      "inputs": [
        {
          "indexed": true,
          "internalType": "address",
          "name": "user",
          "type": "address"
        },
        {
          "indexed": false,
          "internalType": "uint256",
          "name": "tokenId",
          "type": "uint256"
        }
      ],
      "name": "Withdraw",
      "type": "event"
    },
    {
      "inputs": [],
      "name": "BEGIN_TIME",
      "outputs": [
        {
          "internalType": "uint256",
          "name": "",
          "type": "uint256"
        }
      ],
      "stateMutability": "view",
      "type": "function"
    },
    {
      "inputs": [],
      "name": "END_TIME",
      "outputs": [
        {
          "internalType": "uint256",
          "name": "",
          "type": "uint256"
        }
      ],
      "stateMutability": "view",
      "type": "function"
    },
    {
      "inputs": [],
      "name": "LOCK_WEEKNUM",
      "outputs": [
        {
          "internalType": "uint8",
          "name": "",
          "type": "uint8"
        }
      ],
      "stateMutability": "view",
      "type": "function"
    },
    {
      "inputs": [],
      "name": "MAX_SCALE",
      "outputs": [
        {
          "internalType": "uint256",
          "name": "",
          "type": "uint256"
        }
      ],
      "stateMutability": "view",
      "type": "function"
    },
    {
      "inputs": [],
      "name": "MAX_TICK",
      "outputs": [
        {
          "internalType": "int24",
          "name": "",
          "type": "int24"
        }
      ],
      "stateMutability": "view",
      "type": "function"
    },
    {
      "inputs": [],
      "name": "MAX_WEEKS",
      "outputs": [
        {
          "internalType": "uint8",
          "name": "",
          "type": "uint8"
        }
      ],
      "stateMutability": "view",
      "type": "function"
    },
    {
      "inputs": [],
      "name": "MIN_TICK",
      "outputs": [
        {
          "internalType": "int24",
          "name": "",
          "type": "int24"
        }
      ],
      "stateMutability": "view",
      "type": "function"
    },
    {
      "inputs": [],
      "name": "WEEK_SECONDS",
      "outputs": [
        {
          "internalType": "uint24",
          "name": "",
          "type": "uint24"
        }
      ],
      "stateMutability": "view",
      "type": "function"
    },
    {
      "inputs": [],
      "name": "acceptSetter",
      "outputs": [],
      "stateMutability": "nonpayable",
      "type": "function"
    },
    {
      "inputs": [],
      "name": "canClaimAmount",
      "outputs": [
        {
          "internalType": "uint256",
          "name": "",
          "type": "uint256"
        }
      ],
      "stateMutability": "view",
      "type": "function"
    },
    {
      "inputs": [],
      "name": "claimReward",
      "outputs": [],
      "stateMutability": "nonpayable",
      "type": "function"
    },
    {
      "inputs": [],
      "name": "fee",
      "outputs": [
        {
          "internalType": "uint24",
          "name": "",
          "type": "uint24"
        }
      ],
      "stateMutability": "view",
      "type": "function"
    },
    {
      "inputs": [
        {
          "internalType": "uint256",
          "name": "amount",
          "type": "uint256"
        },
        {
          "internalType": "uint8",
          "name": "k",
          "type": "uint8"
        }
      ],
      "name": "getScore",
      "outputs": [
        {
          "internalType": "uint256",
          "name": "score",
          "type": "uint256"
        }
      ],
      "stateMutability": "view",
      "type": "function"
    },
    {
      "inputs": [],
      "name": "getUserNFTs",
      "outputs": [
        {
          "internalType": "uint256[]",
          "name": "",
          "type": "uint256[]"
        },
        {
          "internalType": "uint256",
          "name": "",
          "type": "uint256"
        }
      ],
      "stateMutability": "view",
      "type": "function"
    },
    {
      "inputs": [],
      "name": "latestNo",
      "outputs": [
        {
          "internalType": "uint256",
          "name": "",
          "type": "uint256"
        }
      ],
      "stateMutability": "view",
      "type": "function"
    },
    {
      "inputs": [],
      "name": "lockedRewardAmount",
      "outputs": [
        {
          "internalType": "uint256",
          "name": "",
          "type": "uint256"
        },
        {
          "internalType": "uint256[]",
          "name": "",
          "type": "uint256[]"
        }
      ],
      "stateMutability": "view",
      "type": "function"
    },
    {
      "inputs": [],
      "name": "nftToken",
      "outputs": [
        {
          "internalType": "contract IIotabeeSwapNFT",
          "name": "",
          "type": "address"
        }
      ],
      "stateMutability": "view",
      "type": "function"
    },
    {
      "inputs": [
        {
          "internalType": "address",
          "name": "",
          "type": "address"
        },
        {
          "internalType": "address",
          "name": "",
          "type": "address"
        },
        {
          "internalType": "uint256",
          "name": "",
          "type": "uint256"
        },
        {
          "internalType": "bytes",
          "name": "",
          "type": "bytes"
        }
      ],
      "name": "onERC721Received",
      "outputs": [
        {
          "internalType": "bytes4",
          "name": "",
          "type": "bytes4"
        }
      ],
      "stateMutability": "pure",
      "type": "function"
    },
    {
      "inputs": [],
      "name": "owner",
      "outputs": [
        {
          "internalType": "address",
          "name": "",
          "type": "address"
        }
      ],
      "stateMutability": "view",
      "type": "function"
    },
    {
      "inputs": [],
      "name": "rewardToken",
      "outputs": [
        {
          "internalType": "address",
          "name": "",
          "type": "address"
        }
      ],
      "stateMutability": "view",
      "type": "function"
    },
    {
      "inputs": [
        {
          "internalType": "uint256",
          "name": "",
          "type": "uint256"
        }
      ],
      "name": "rewardsOf",
      "outputs": [
        {
          "internalType": "uint256",
          "name": "",
          "type": "uint256"
        }
      ],
      "stateMutability": "view",
      "type": "function"
    },
    {
      "inputs": [
        {
          "internalType": "uint256",
          "name": "no",
          "type": "uint256"
        },
        {
          "internalType": "uint256",
          "name": "amount",
          "type": "uint256"
        }
      ],
      "name": "setReward",
      "outputs": [],
      "stateMutability": "nonpayable",
      "type": "function"
    },
    {
      "inputs": [
        {
          "internalType": "uint256[]",
          "name": "nos",
          "type": "uint256[]"
        },
        {
          "internalType": "uint256[]",
          "name": "amounts",
          "type": "uint256[]"
        }
      ],
      "name": "setRewards",
      "outputs": [
        {
          "internalType": "uint256",
          "name": "total",
          "type": "uint256"
        }
      ],
      "stateMutability": "nonpayable",
      "type": "function"
    },
    {
      "inputs": [
        {
          "internalType": "uint256",
          "name": "tokenId",
          "type": "uint256"
        },
        {
          "internalType": "uint8",
          "name": "k",
          "type": "uint8"
        }
      ],
      "name": "stake",
      "outputs": [],
      "stateMutability": "nonpayable",
      "type": "function"
    },
    {
      "inputs": [
        {
          "internalType": "uint256",
          "name": "",
          "type": "uint256"
        }
      ],
      "name": "stakingNFTs",
      "outputs": [
        {
          "internalType": "address",
          "name": "owner",
          "type": "address"
        },
        {
          "internalType": "uint256",
          "name": "score",
          "type": "uint256"
        },
        {
          "internalType": "uint256",
          "name": "beginNo",
          "type": "uint256"
        },
        {
          "internalType": "uint256",
          "name": "endNo",
          "type": "uint256"
        }
      ],
      "stateMutability": "view",
      "type": "function"
    },
    {
      "inputs": [],
      "name": "token0",
      "outputs": [
        {
          "internalType": "address",
          "name": "",
          "type": "address"
        }
      ],
      "stateMutability": "view",
      "type": "function"
    },
    {
      "inputs": [],
      "name": "token1",
      "outputs": [
        {
          "internalType": "address",
          "name": "",
          "type": "address"
        }
      ],
      "stateMutability": "view",
      "type": "function"
    },
    {
      "inputs": [
        {
          "internalType": "uint256",
          "name": "",
          "type": "uint256"
        }
      ],
      "name": "totalScores",
      "outputs": [
        {
          "internalType": "uint256",
          "name": "",
          "type": "uint256"
        }
      ],
      "stateMutability": "view",
      "type": "function"
    },
    {
      "inputs": [
        {
          "internalType": "address",
          "name": "_owner",
          "type": "address"
        }
      ],
      "name": "transferOwner",
      "outputs": [],
      "stateMutability": "nonpayable",
      "type": "function"
    },
    {
      "inputs": [
        {
          "internalType": "address",
          "name": "",
          "type": "address"
        },
        {
          "internalType": "uint256",
          "name": "",
          "type": "uint256"
        }
      ],
      "name": "userCanClaimWeeks",
      "outputs": [
        {
          "internalType": "uint256",
          "name": "",
          "type": "uint256"
        }
      ],
      "stateMutability": "view",
      "type": "function"
    },
    {
      "inputs": [
        {
          "internalType": "address",
          "name": "",
          "type": "address"
        },
        {
          "internalType": "uint256",
          "name": "",
          "type": "uint256"
        }
      ],
      "name": "userNFTs",
      "outputs": [
        {
          "internalType": "uint256",
          "name": "",
          "type": "uint256"
        }
      ],
      "stateMutability": "view",
      "type": "function"
    },
    {
      "inputs": [
        {
          "internalType": "address",
          "name": "",
          "type": "address"
        },
        {
          "internalType": "uint256",
          "name": "",
          "type": "uint256"
        }
      ],
      "name": "userScores",
      "outputs": [
        {
          "internalType": "uint256",
          "name": "",
          "type": "uint256"
        }
      ],
      "stateMutability": "view",
      "type": "function"
    },
    {
      "inputs": [
        {
          "internalType": "uint256",
          "name": "tokenId",
          "type": "uint256"
        }
      ],
      "name": "withdraw",
      "outputs": [],
      "stateMutability": "nonpayable",
      "type": "function"
    },
    {
      "inputs": [
        {
          "internalType": "uint256[]",
          "name": "tokenIds",
          "type": "uint256[]"
        }
      ],
      "name": "withdraw",
      "outputs": [],
      "stateMutability": "nonpayable",
      "type": "function"
    },
    {
      "inputs": [
        {
          "internalType": "uint256",
          "name": "amount",
          "type": "uint256"
        }
      ],
      "name": "withdrawRewards",
      "outputs": [],
      "stateMutability": "nonpayable",
      "type": "function"
    }
  ],
  "bytecode": "0x6102006040523480156200001257600080fd5b50604051620026b7380380620026b783398101604081905262000035916200010c565b6001600160a01b0380871660805260ff808d1660a05260c08c90528a1660e052610100899052610120889052600080546001600160a01b0319163317905584811690861610620000875783856200008a565b84845b6001600160a01b039081166101c0529081166101a05262ffffff84166101e052821661018052600281900b61016052620000c481620001e6565b60020b6101405250620002179950505050505050505050565b805160ff81168114620000ef57600080fd5b919050565b80516001600160a01b0381168114620000ef57600080fd5b60008060008060008060008060008060006101608c8e0312156200012f57600080fd5b6200013a8c620000dd565b9a5060208c015199506200015160408d01620000dd565b985060608c0151975060808c015196506200016f60a08d01620000f4565b95506200017f60c08d01620000f4565b94506200018f60e08d01620000f4565b93506101008c015162ffffff81168114620001a957600080fd5b9250620001ba6101208d01620000f4565b91506101408c01518060020b8114620001d257600080fd5b809150509295989b509295989b9093969950565b60008160020b627fffff1981036200020e57634e487b7160e01b600052601160045260246000fd5b60000392915050565b60805160a05160c05160e05161010051610120516101405161016051610180516101a0516101c0516101e05161235162000366600039600081816105c2015261182501526000818161059b01526117e201526000818161028701526117a601526000818161057401528181610b3001528181611704015281816119400152611a1101526000818161043701526118b90152600081816104db01526118890152600081816103ca015281816106f701528181610fdb015261123c0152600081816105300152818161072201528181611006015261126701526000818161024e01528181610c8301528181610d7301528181610f19015261134a015260008181610623015261153c0152600081816105e901528181610692015281816114d8015261150301526000818161064a01528181610f8501528181611162015281816112ab015261145201526123516000f3fe608060405234801561001057600080fd5b50600436106102115760003560e01c80638da5cb5b11610125578063cd671a58116100ad578063e11400bb1161007c578063e11400bb146105e4578063ee3453ed1461060b578063f6def7cf1461061e578063f7c618c114610645578063fdc5ab8e1461066c57600080fd5b8063cd671a5814610552578063d06fcba81461056f578063d21220a714610596578063ddca3f43146105bd57600080fd5b8063a1634b14116100f4578063a1634b14146104d6578063a47bd496146104fd578063b88a802f14610510578063bb57852d14610518578063c75363b61461052b57600080fd5b80638da5cb5b1461048a5780639342c8f41461049d578063979db1c4146104b0578063983d95ce146104c357600080fd5b806329ed1cfd116101a85780635b680a45116101775780635b680a45146103ff5780635f8e422f1461042a5780636882a888146104325780638431165e1461046c5780638923de2b1461047457600080fd5b806329ed1cfd146103a95780632e1a7d4d146103b257806337ba682d146103c55780634fb2e45d146103ec57600080fd5b806310c6c1c2116101e457806310c6c1c2146102d6578063150b7a021461033f578063157775df14610376578063291c73c31461039657600080fd5b80630bce1284146102165780630d437d40146102495780630dfe16811461028257806310087fb1146102c1575b600080fd5b610236610224366004611cb2565b60056020526000908152604090205481565b6040519081526020015b60405180910390f35b6102707f000000000000000000000000000000000000000000000000000000000000000081565b60405160ff9091168152602001610240565b6102a97f000000000000000000000000000000000000000000000000000000000000000081565b6040516001600160a01b039091168152602001610240565b6102d46102cf366004611ccb565b610682565b005b6103156102e4366004611cb2565b60076020526000908152604090208054600182015460028301546003909301546001600160a01b0390921692909184565b604080516001600160a01b0390951685526020850193909352918301526060820152608001610240565b61035d61034d366004611d5d565b630a85bd0160e11b949350505050565b6040516001600160e01b03199091168152602001610240565b610236610384366004611cb2565b60046020526000908152604090205481565b6102366103a4366004611e21565b61096d565b61023660065481565b6102d46103c0366004611cb2565b61099e565b6102367f000000000000000000000000000000000000000000000000000000000000000081565b6102d46103fa366004611e4d565b610bdf565b61023661040d366004611e21565b600260209081526000928352604080842090915290825290205481565b6102d4610c2b565b6104597f000000000000000000000000000000000000000000000000000000000000000081565b60405160029190910b8152602001610240565b610236610c7c565b61047c610d6a565b604051610240929190611ea5565b6000546102a9906001600160a01b031681565b6102d46104ab366004611cb2565b610f56565b6102366104be366004611f46565b610fae565b6102d46104d1366004611faa565b6111cc565b6104597f000000000000000000000000000000000000000000000000000000000000000081565b6102d461050b366004611fdf565b611210565b6102d4611344565b610236610526366004611e21565b6114aa565b6102367f000000000000000000000000000000000000000000000000000000000000000081565b61055b61025881565b60405162ffffff9091168152602001610240565b6102a97f000000000000000000000000000000000000000000000000000000000000000081565b6102a97f000000000000000000000000000000000000000000000000000000000000000081565b61055b7f000000000000000000000000000000000000000000000000000000000000000081565b6102707f000000000000000000000000000000000000000000000000000000000000000081565b610236610619366004611ccb565b6114cf565b6102367f000000000000000000000000000000000000000000000000000000000000000081565b6102a97f000000000000000000000000000000000000000000000000000000000000000081565b610674611599565b604051610240929190612001565b60008160ff161180156106bb57507f000000000000000000000000000000000000000000000000000000000000000060ff168160ff1611155b6106f55760405162461bcd60e51b8152602060048201526006602482015265359018bf1a9960d11b60448201526064015b60405180910390fd5b7f0000000000000000000000000000000000000000000000000000000000000000421115801561074557507f00000000000000000000000000000000000000000000000000000000000000004210155b6107615760405162461bcd60e51b81526004016106ec90612023565b600061076f61025842612064565b61077a906001612086565b90506000610787846116f7565b9050600061079582856114cf565b905060005b8460ff168160ff16101561082f5781600460006107ba60ff851688612086565b815260200190815260200160002060008282546107d79190612086565b909155505033600090815260026020526040812083916107fa60ff851688612086565b815260200190815260200160002060008282546108179190612086565b909155508190506108278161209f565b91505061079a565b50600061083f60ff861685612086565b604080516080810182523380825260208083018781528385018a81526060850187815260008e815260078552878120965187546001600160a01b0319166001600160a01b039091161787559251600180880191909155915160028701555160039586015592815292905291902090810154905491925090036108ce573360009081526003602052604090208490555b33600090815260036020526040902081906001015410156108ff573360009081526003602052604090208190600101555b336000818152600860209081526040808320805460018101825590845292829020909201899055815189815290810186905260ff88168183015290517f6fa2f6021ee337436cdf2b2570285886da18bc06402ce284d296504a0fe8f8759181900360600190a2505050505050565b6008602052816000526040600020818154811061098957600080fd5b90600052602060002001600091509150505481565b6000818152600760205260409020546001600160a01b031633146109f65760405162461bcd60e51b815260206004820152600f60248201526e37bbb732b9103337b93134b23232b760891b60448201526064016106ec565b6000610a0461025842612064565b600083815260076020526040902060030154909150811015610a565760405162461bcd60e51b815260206004820152600b60248201526a6c6f636b65642074696d6560a81b60448201526064016106ec565b336000908152600860205260408120905b8154811015610ba357818181548110610a8257610a826120be565b90600052602060002001548403610b915781548290610aa3906001906120d4565b81548110610ab357610ab36120be565b9060005260206000200154828281548110610ad057610ad06120be565b906000526020600020018190555081805480610aee57610aee6120e7565b600082815260208120820160001990810191909155019055604051632142170760e11b8152306004820152336024820152604481018590526001600160a01b037f000000000000000000000000000000000000000000000000000000000000000016906342842e0e90606401600060405180830381600087803b158015610b7457600080fd5b505af1158015610b88573d6000803e3d6000fd5b50505050610ba3565b80610b9b816120fd565b915050610a67565b5060405183815233907f884edad9ce6fa2440d8a54cc123490eb96d2768479d49ff9c7366125a9424364906020015b60405180910390a2505050565b6000546001600160a01b03163314610c095760405162461bcd60e51b81526004016106ec90612116565b600180546001600160a01b0319166001600160a01b0392909216919091179055565b6001546001600160a01b03163314610c555760405162461bcd60e51b81526004016106ec90612116565b60018054600080546001600160a01b03199081166001600160a01b03841617909155169055565b60008060ff7f000000000000000000000000000000000000000000000000000000000000000016610caf61025842612064565b610cb991906120d4565b33600090815260036020526040812054919250905b33600090815260036020526040902060010154811015610d6357828111610d635760008181526004602052604090205415610d5157600081815260046020908152604080832054338452600283528184208585528352818420546005909352922054610d3a9190612139565b610d449190612064565b610d4e9083612086565b91505b80610d5b816120fd565b915050610cce565b5092915050565b600060608160ff7f000000000000000000000000000000000000000000000000000000000000000016610d9f61025842612064565b610da991906120d4565b610db4906001612086565b33600090815260036020526040902090915081906001015411610de95760408051600081526020810190915290939092509050565b33600090815260036020526040812080546001909101549091838311610e0f5783610e11565b825b90506000610e1f82846120d4565b67ffffffffffffffff811115610e3757610e37611d16565b604051908082528060200260200182016040528015610e60578160200160208202803683370190505b509050815b83811015610f025760008181526004602052604090205415610ec757600081815260046020908152604080832054338452600283528184208585528352818420546005909352922054610eb89190612139565b610ec29190612064565b610eca565b60005b82610ed585846120d4565b81518110610ee557610ee56120be565b602090810291909101015280610efa816120fd565b915050610e65565b506000610f1161025842612064565b610f3e8460ff7f000000000000000000000000000000000000000000000000000000000000000016612086565b610f4891906120d4565b989197509095505050505050565b6000546001600160a01b03163314610f805760405162461bcd60e51b81526004016106ec90612116565b610fab7f00000000000000000000000000000000000000000000000000000000000000003383611a8b565b50565b600080546001600160a01b03163314610fd95760405162461bcd60e51b81526004016106ec90612116565b7f0000000000000000000000000000000000000000000000000000000000000000421115801561102957507f00000000000000000000000000000000000000000000000000000000000000004210155b6110455760405162461bcd60e51b81526004016106ec90612023565b81518351146110895760405162461bcd60e51b815260206004820152601060248201526f3830b930b6b2ba32b9399032b93937b960811b60448201526064016106ec565b6000805b8451811015611157578381815181106110a8576110a86120be565b6020026020010151836110bb9190612086565b92508381815181106110cf576110cf6120be565b6020026020010151600560008784815181106110ed576110ed6120be565b60200260200101518152602001908152602001600020819055508185828151811061111a5761111a6120be565b602002602001015111156111455784818151811061113a5761113a6120be565b602002602001015191505b8061114f816120fd565b91505061108d565b5060068190556111897f0000000000000000000000000000000000000000000000000000000000000000333085611b98565b60408051600081526020810184905233917fc3991418cacd70a010fce559a44fcbb47534ca43bf7543964bdca2639f6e6e5a910160405180910390a25092915050565b60005b815181101561120c576111fa8282815181106111ed576111ed6120be565b602002602001015161099e565b80611204816120fd565b9150506111cf565b5050565b6000546001600160a01b0316331461123a5760405162461bcd60e51b81526004016106ec90612116565b7f0000000000000000000000000000000000000000000000000000000000000000421115801561128a57507f00000000000000000000000000000000000000000000000000000000000000004210155b6112a65760405162461bcd60e51b81526004016106ec90612023565b6112d27f0000000000000000000000000000000000000000000000000000000000000000333084611b98565b600082815260056020526040812080548392906112f0908490612086565b90915550506006548211156113055760068290555b604080518381526020810183905233917fc3991418cacd70a010fce559a44fcbb47534ca43bf7543964bdca2639f6e6e5a910160405180910390a25050565b600060ff7f00000000000000000000000000000000000000000000000000000000000000001661137661025842612064565b61138091906120d4565b3360009081526003602052604081205491925090805b3360009081526003602052604090206001015481101561143957838111611439576113c2816001612086565b60008281526004602052604090205490925015611427576000818152600460209081526040808320543384526002835281842085855283528184205460059093529220546114109190612139565b61141a9190612064565b6114249084612086565b92505b80611431816120fd565b915050611396565b50336000908152600360205260408120829101556114787f00000000000000000000000000000000000000000000000000000000000000003384611a8b565b60405182815233907fba8de60c3403ec381d1d484652ea1980e3c3e56359195c92525bff4ce47ad98e90602001610bd2565b600360205281600052604060002081600281106114c657600080fd5b01549150829050565b60006114fc60017f0000000000000000000000000000000000000000000000000000000000000000612150565b60ff1660017f000000000000000000000000000000000000000000000000000000000000000060ff166001856115329190612150565b60ff1661156060017f00000000000000000000000000000000000000000000000000000000000000006120d4565b61156a9190612139565b6115749190612086565b61157e91906120d4565b6115889085612139565b6115929190612064565b9392505050565b3360009081526008602052604081205460609190819067ffffffffffffffff8111156115c7576115c7611d16565b6040519080825280602002602001820160405280156115f0578160200160208202803683370190505b509050600061160161025842612064565b3360009081526008602052604081205491925090815b336000908152600860205260409020548110156116ea5733600090815260086020526040812080548390811061164f5761164f6120be565b9060005260206000200154905084600760008381526020019081526020016000206003015411156116aa578086858151811061168d5761168d6120be565b6020908102919091010152836116a2816120fd565b9450506116d7565b826116b481612169565b935050808684815181106116ca576116ca6120be565b6020026020010181815250505b50806116e2816120fd565b915050611617565b5092959294509192505050565b60008060008060008060007f00000000000000000000000000000000000000000000000000000000000000006001600160a01b03166399fbab88896040518263ffffffff1660e01b815260040161175091815260200190565b61018060405180830381865afa15801561176e573d6000803e3d6000fd5b505050506040513d601f19601f8201168201806040525081019061179291906121cc565b5050505097509750975097509750975050507f00000000000000000000000000000000000000000000000000000000000000006001600160a01b0316866001600160a01b031614801561181657507f00000000000000000000000000000000000000000000000000000000000000006001600160a01b0316856001600160a01b0316145b801561184b57508362ffffff167f000000000000000000000000000000000000000000000000000000000000000062ffffff16145b6118875760405162461bcd60e51b815260206004820152600d60248201526c3638103830b4b91032b93937b960991b60448201526064016106ec565b7f000000000000000000000000000000000000000000000000000000000000000060020b8360020b1480156118e157507f000000000000000000000000000000000000000000000000000000000000000060020b8260020b145b6119205760405162461bcd60e51b815260206004820152601060248201526f3a34b1b5903930b733b29032b93937b960811b60448201526064016106ec565b60405163020604bf60e21b81526004810189905230906001600160a01b037f0000000000000000000000000000000000000000000000000000000000000000169063081812fc90602401602060405180830381865afa158015611987573d6000803e3d6000fd5b505050506040513d601f19601f820116820180604052508101906119ab91906122ad565b6001600160a01b0316146119ef5760405162461bcd60e51b815260206004820152600b60248201526a6e6f7420617070726f766560a81b60448201526064016106ec565b604051632142170760e11b8152336004820152306024820152604481018990527f00000000000000000000000000000000000000000000000000000000000000006001600160a01b0316906342842e0e90606401600060405180830381600087803b158015611a5d57600080fd5b505af1158015611a71573d6000803e3d6000fd5b50506001600160801b039092169998505050505050505050565b604080516001600160a01b038481166024830152604480830185905283518084039091018152606490920183526020820180516001600160e01b031663a9059cbb60e01b1790529151600092839290871691611ae791906122ca565b6000604051808303816000865af19150503d8060008114611b24576040519150601f19603f3d011682016040523d82523d6000602084013e611b29565b606091505b5091509150818015611b53575080511580611b53575080806020019051810190611b5391906122f9565b611b915760405162461bcd60e51b815260206004820152600f60248201526e1514905394d1915497d19052531151608a1b60448201526064016106ec565b5050505050565b604080516001600160a01b0385811660248301528481166044830152606480830185905283518084039091018152608490920183526020820180516001600160e01b03166323b872dd60e01b1790529151600092839290881691611bfc91906122ca565b6000604051808303816000865af19150503d8060008114611c39576040519150601f19603f3d011682016040523d82523d6000602084013e611c3e565b606091505b5091509150818015611c68575080511580611c68575080806020019051810190611c6891906122f9565b611caa5760405162461bcd60e51b81526020600482015260136024820152721d1c985b9cd9995c919c9bdb4819985a5b1959606a1b60448201526064016106ec565b505050505050565b600060208284031215611cc457600080fd5b5035919050565b60008060408385031215611cde57600080fd5b82359150602083013560ff81168114611cf657600080fd5b809150509250929050565b6001600160a01b0381168114610fab57600080fd5b634e487b7160e01b600052604160045260246000fd5b604051601f8201601f1916810167ffffffffffffffff81118282101715611d5557611d55611d16565b604052919050565b60008060008060808587031215611d7357600080fd5b8435611d7e81611d01565b9350602085810135611d8f81611d01565b935060408601359250606086013567ffffffffffffffff80821115611db357600080fd5b818801915088601f830112611dc757600080fd5b813581811115611dd957611dd9611d16565b611deb601f8201601f19168501611d2c565b91508082528984828501011115611e0157600080fd5b808484018584013760008482840101525080935050505092959194509250565b60008060408385031215611e3457600080fd5b8235611e3f81611d01565b946020939093013593505050565b600060208284031215611e5f57600080fd5b813561159281611d01565b600081518084526020808501945080840160005b83811015611e9a57815187529582019590820190600101611e7e565b509495945050505050565b828152604060208201526000611ebe6040830184611e6a565b949350505050565b600082601f830112611ed757600080fd5b8135602067ffffffffffffffff821115611ef357611ef3611d16565b8160051b611f02828201611d2c565b9283528481018201928281019087851115611f1c57600080fd5b83870192505b84831015611f3b57823582529183019190830190611f22565b979650505050505050565b60008060408385031215611f5957600080fd5b823567ffffffffffffffff80821115611f7157600080fd5b611f7d86838701611ec6565b93506020850135915080821115611f9357600080fd5b50611fa085828601611ec6565b9150509250929050565b600060208284031215611fbc57600080fd5b813567ffffffffffffffff811115611fd357600080fd5b611ebe84828501611ec6565b60008060408385031215611ff257600080fd5b50508035926020909101359150565b6040815260006120146040830185611e6a565b90508260208301529392505050565b6020808252601190820152701b9bdd081a5b881d1a19481c195c9a5bd9607a1b604082015260600190565b634e487b7160e01b600052601160045260246000fd5b60008261208157634e487b7160e01b600052601260045260246000fd5b500490565b808201808211156120995761209961204e565b92915050565b600060ff821660ff81036120b5576120b561204e565b60010192915050565b634e487b7160e01b600052603260045260246000fd5b818103818111156120995761209961204e565b634e487b7160e01b600052603160045260246000fd5b60006001820161210f5761210f61204e565b5060010190565b6020808252600990820152683337b93134b23232b760b91b604082015260600190565b80820281158282048414176120995761209961204e565b60ff82811682821603908111156120995761209961204e565b6000816121785761217861204e565b506000190190565b805161218b81611d01565b919050565b805162ffffff8116811461218b57600080fd5b8051600281900b811461218b57600080fd5b80516001600160801b038116811461218b57600080fd5b6000806000806000806000806000806000806101808d8f0312156121ef57600080fd5b8c516bffffffffffffffffffffffff8116811461220b57600080fd5b9b5061221960208e01612180565b9a5061222760408e01612180565b995061223560608e01612180565b985061224360808e01612190565b975061225160a08e016121a3565b965061225f60c08e016121a3565b955061226d60e08e016121b5565b94506101008d015193506101208d0151925061228c6101408e016121b5565b915061229b6101608e016121b5565b90509295989b509295989b509295989b565b6000602082840312156122bf57600080fd5b815161159281611d01565b6000825160005b818110156122eb57602081860181015185830152016122d1565b506000920191825250919050565b60006020828403121561230b57600080fd5b8151801515811461159257600080fdfea2646970667358221220816dc5ffd13876a0c0a0ca3e284fcc247acbb72e09de4cbbc47663498e3d717a64736f6c63430008110033",
  "linkReferences": {},
  "deployedLinkReferences": {}
}