{
  "_format": "hh-sol-artifact-1",
  "contractName": "StakeNFT721",
  "sourceName": "contracts/stakeNFT721.sol",
  "abi": [
    {
      "inputs": [
        {
          "internalType": "uint8",
          "name": "maxWeeks",
          "type": "uint8"
        },
        {
          "internalType": "uint256",
          "name": "maxScale",
          "type": "uint256"
        },
        {
          "internalType": "uint8",
          "name": "lockWeeks",
          "type": "uint8"
        },
        {
          "internalType": "uint256",
          "name": "beginTime",
          "type": "uint256"
        },
        {
          "internalType": "uint256",
          "name": "endTime",
          "type": "uint256"
        },
        {
          "internalType": "address",
          "name": "_rewardToken",
          "type": "address"
        },
        {
          "internalType": "address",
          "name": "tokenA",
          "type": "address"
        },
        {
          "internalType": "address",
          "name": "tokenB",
          "type": "address"
        },
        {
          "internalType": "uint24",
          "name": "_fee",
          "type": "uint24"
        },
        {
          "internalType": "address",
          "name": "nft",
          "type": "address"
        },
        {
          "internalType": "int24",
          "name": "tickMax",
          "type": "int24"
        }
      ],
      "stateMutability": "nonpayable",
      "type": "constructor"
    },
    {
      "anonymous": false,
      "inputs": [
        {
          "indexed": true,
          "internalType": "address",
          "name": "user",
          "type": "address"
        },
        {
          "indexed": false,
          "internalType": "uint256",
          "name": "amount",
          "type": "uint256"
        }
      ],
      "name": "ClaimReward",
      "type": "event"
    },
    {
      "anonymous": false,
      "inputs": [
        {
          "indexed": true,
          "internalType": "address",
          "name": "user",
          "type": "address"
        },
        {
          "indexed": false,
          "internalType": "uint256",
          "name": "no",
          "type": "uint256"
        },
        {
          "indexed": false,
          "internalType": "uint256",
          "name": "amount",
          "type": "uint256"
        }
      ],
      "name": "SetReward",
      "type": "event"
    },
    {
      "anonymous": false,
      "inputs": [
        {
          "indexed": true,
          "internalType": "address",
          "name": "user",
          "type": "address"
        },
        {
          "indexed": false,
          "internalType": "uint256",
          "name": "tokenId",
          "type": "uint256"
        },
        {
          "indexed": false,
          "internalType": "uint256",
          "name": "amount",
          "type": "uint256"
        },
        {
          "indexed": false,
          "internalType": "uint8",
          "name": "k",
          "type": "uint8"
        }
      ],
      "name": "Stake",
      "type": "event"
    },
    {
      "anonymous": false,
      "inputs": [
        {
          "indexed": true,
          "internalType": "address",
          "name": "user",
          "type": "address"
        },
        {
          "indexed": false,
          "internalType": "uint256",
          "name": "tokenId",
          "type": "uint256"
        }
      ],
      "name": "Withdraw",
      "type": "event"
    },
    {
      "anonymous": false,
      "inputs": [
        {
          "indexed": true,
          "internalType": "address",
          "name": "user",
          "type": "address"
        },
        {
          "indexed": false,
          "internalType": "uint128",
          "name": "liquidity",
          "type": "uint128"
        },
        {
          "indexed": false,
          "internalType": "uint256",
          "name": "tokenId",
          "type": "uint256"
        },
        {
          "indexed": false,
          "internalType": "uint256",
          "name": "mergeId",
          "type": "uint256"
        },
        {
          "indexed": false,
          "internalType": "uint256",
          "name": "token0Fee",
          "type": "uint256"
        },
        {
          "indexed": false,
          "internalType": "uint256",
          "name": "token1Fee",
          "type": "uint256"
        }
      ],
      "name": "WithdrawAndMerge",
      "type": "event"
    },
    {
      "inputs": [],
      "name": "BEGIN_TIME",
      "outputs": [
        {
          "internalType": "uint256",
          "name": "",
          "type": "uint256"
        }
      ],
      "stateMutability": "view",
      "type": "function"
    },
    {
      "inputs": [],
      "name": "END_TIME",
      "outputs": [
        {
          "internalType": "uint256",
          "name": "",
          "type": "uint256"
        }
      ],
      "stateMutability": "view",
      "type": "function"
    },
    {
      "inputs": [],
      "name": "LOCK_WEEKNUM",
      "outputs": [
        {
          "internalType": "uint8",
          "name": "",
          "type": "uint8"
        }
      ],
      "stateMutability": "view",
      "type": "function"
    },
    {
      "inputs": [],
      "name": "MAX_SCALE",
      "outputs": [
        {
          "internalType": "uint256",
          "name": "",
          "type": "uint256"
        }
      ],
      "stateMutability": "view",
      "type": "function"
    },
    {
      "inputs": [],
      "name": "MAX_TICK",
      "outputs": [
        {
          "internalType": "int24",
          "name": "",
          "type": "int24"
        }
      ],
      "stateMutability": "view",
      "type": "function"
    },
    {
      "inputs": [],
      "name": "MAX_WEEKS",
      "outputs": [
        {
          "internalType": "uint8",
          "name": "",
          "type": "uint8"
        }
      ],
      "stateMutability": "view",
      "type": "function"
    },
    {
      "inputs": [],
      "name": "MIN_TICK",
      "outputs": [
        {
          "internalType": "int24",
          "name": "",
          "type": "int24"
        }
      ],
      "stateMutability": "view",
      "type": "function"
    },
    {
      "inputs": [],
      "name": "WEEK_SECONDS",
      "outputs": [
        {
          "internalType": "uint24",
          "name": "",
          "type": "uint24"
        }
      ],
      "stateMutability": "view",
      "type": "function"
    },
    {
      "inputs": [],
      "name": "acceptSetter",
      "outputs": [],
      "stateMutability": "nonpayable",
      "type": "function"
    },
    {
      "inputs": [
        {
          "internalType": "address",
          "name": "user",
          "type": "address"
        }
      ],
      "name": "canClaimAmount",
      "outputs": [
        {
          "internalType": "uint256",
          "name": "",
          "type": "uint256"
        }
      ],
      "stateMutability": "view",
      "type": "function"
    },
    {
      "inputs": [
        {
          "internalType": "uint256",
          "name": "deadline",
          "type": "uint256"
        }
      ],
      "name": "claimReward",
      "outputs": [],
      "stateMutability": "nonpayable",
      "type": "function"
    },
    {
      "inputs": [],
      "name": "fee",
      "outputs": [
        {
          "internalType": "uint24",
          "name": "",
          "type": "uint24"
        }
      ],
      "stateMutability": "view",
      "type": "function"
    },
    {
      "inputs": [
        {
          "internalType": "uint256",
          "name": "amount",
          "type": "uint256"
        },
        {
          "internalType": "uint8",
          "name": "k",
          "type": "uint8"
        }
      ],
      "name": "getScore",
      "outputs": [
        {
          "internalType": "uint256",
          "name": "score",
          "type": "uint256"
        }
      ],
      "stateMutability": "view",
      "type": "function"
    },
    {
      "inputs": [],
      "name": "getUserNFTs",
      "outputs": [
        {
          "internalType": "uint256[]",
          "name": "",
          "type": "uint256[]"
        },
        {
          "internalType": "uint256",
          "name": "",
          "type": "uint256"
        }
      ],
      "stateMutability": "view",
      "type": "function"
    },
    {
      "inputs": [],
      "name": "latestNo",
      "outputs": [
        {
          "internalType": "uint256",
          "name": "",
          "type": "uint256"
        }
      ],
      "stateMutability": "view",
      "type": "function"
    },
    {
      "inputs": [
        {
          "internalType": "address",
          "name": "user",
          "type": "address"
        }
      ],
      "name": "lockedRewardAmount",
      "outputs": [
        {
          "internalType": "uint256",
          "name": "",
          "type": "uint256"
        },
        {
          "internalType": "uint256[]",
          "name": "",
          "type": "uint256[]"
        }
      ],
      "stateMutability": "view",
      "type": "function"
    },
    {
      "inputs": [],
      "name": "nftToken",
      "outputs": [
        {
          "internalType": "contract IIotabeeSwapNFT",
          "name": "",
          "type": "address"
        }
      ],
      "stateMutability": "view",
      "type": "function"
    },
    {
      "inputs": [
        {
          "internalType": "address",
          "name": "",
          "type": "address"
        },
        {
          "internalType": "address",
          "name": "",
          "type": "address"
        },
        {
          "internalType": "uint256",
          "name": "",
          "type": "uint256"
        },
        {
          "internalType": "bytes",
          "name": "",
          "type": "bytes"
        }
      ],
      "name": "onERC721Received",
      "outputs": [
        {
          "internalType": "bytes4",
          "name": "",
          "type": "bytes4"
        }
      ],
      "stateMutability": "pure",
      "type": "function"
    },
    {
      "inputs": [],
      "name": "owner",
      "outputs": [
        {
          "internalType": "address",
          "name": "",
          "type": "address"
        }
      ],
      "stateMutability": "view",
      "type": "function"
    },
    {
      "inputs": [],
      "name": "rewardToken",
      "outputs": [
        {
          "internalType": "address",
          "name": "",
          "type": "address"
        }
      ],
      "stateMutability": "view",
      "type": "function"
    },
    {
      "inputs": [
        {
          "internalType": "uint256",
          "name": "",
          "type": "uint256"
        }
      ],
      "name": "rewardsOf",
      "outputs": [
        {
          "internalType": "uint256",
          "name": "",
          "type": "uint256"
        }
      ],
      "stateMutability": "view",
      "type": "function"
    },
    {
      "inputs": [
        {
          "internalType": "uint256",
          "name": "no",
          "type": "uint256"
        },
        {
          "internalType": "uint256",
          "name": "amount",
          "type": "uint256"
        },
        {
          "internalType": "uint256",
          "name": "deadline",
          "type": "uint256"
        }
      ],
      "name": "setReward",
      "outputs": [],
      "stateMutability": "nonpayable",
      "type": "function"
    },
    {
      "inputs": [
        {
          "internalType": "uint256[]",
          "name": "nos",
          "type": "uint256[]"
        },
        {
          "internalType": "uint256[]",
          "name": "amounts",
          "type": "uint256[]"
        },
        {
          "internalType": "uint256",
          "name": "deadline",
          "type": "uint256"
        }
      ],
      "name": "setRewards",
      "outputs": [
        {
          "internalType": "uint256",
          "name": "total",
          "type": "uint256"
        }
      ],
      "stateMutability": "nonpayable",
      "type": "function"
    },
    {
      "inputs": [
        {
          "internalType": "uint256",
          "name": "tokenId",
          "type": "uint256"
        },
        {
          "internalType": "uint8",
          "name": "k",
          "type": "uint8"
        },
        {
          "internalType": "uint256",
          "name": "deadline",
          "type": "uint256"
        }
      ],
      "name": "stake",
      "outputs": [],
      "stateMutability": "nonpayable",
      "type": "function"
    },
    {
      "inputs": [
        {
          "internalType": "uint256",
          "name": "",
          "type": "uint256"
        }
      ],
      "name": "stakingNFTs",
      "outputs": [
        {
          "internalType": "address",
          "name": "owner",
          "type": "address"
        },
        {
          "internalType": "uint256",
          "name": "score",
          "type": "uint256"
        },
        {
          "internalType": "uint256",
          "name": "beginNo",
          "type": "uint256"
        },
        {
          "internalType": "uint256",
          "name": "endNo",
          "type": "uint256"
        }
      ],
      "stateMutability": "view",
      "type": "function"
    },
    {
      "inputs": [],
      "name": "token0",
      "outputs": [
        {
          "internalType": "address",
          "name": "",
          "type": "address"
        }
      ],
      "stateMutability": "view",
      "type": "function"
    },
    {
      "inputs": [],
      "name": "token1",
      "outputs": [
        {
          "internalType": "address",
          "name": "",
          "type": "address"
        }
      ],
      "stateMutability": "view",
      "type": "function"
    },
    {
      "inputs": [
        {
          "internalType": "uint256",
          "name": "",
          "type": "uint256"
        }
      ],
      "name": "totalScores",
      "outputs": [
        {
          "internalType": "uint256",
          "name": "",
          "type": "uint256"
        }
      ],
      "stateMutability": "view",
      "type": "function"
    },
    {
      "inputs": [
        {
          "internalType": "address",
          "name": "_owner",
          "type": "address"
        }
      ],
      "name": "transferOwner",
      "outputs": [],
      "stateMutability": "nonpayable",
      "type": "function"
    },
    {
      "inputs": [
        {
          "internalType": "address",
          "name": "",
          "type": "address"
        },
        {
          "internalType": "uint256",
          "name": "",
          "type": "uint256"
        }
      ],
      "name": "userCanClaimWeeks",
      "outputs": [
        {
          "internalType": "uint256",
          "name": "",
          "type": "uint256"
        }
      ],
      "stateMutability": "view",
      "type": "function"
    },
    {
      "inputs": [
        {
          "internalType": "address",
          "name": "",
          "type": "address"
        },
        {
          "internalType": "uint256",
          "name": "",
          "type": "uint256"
        }
      ],
      "name": "userNFTs",
      "outputs": [
        {
          "internalType": "uint256",
          "name": "",
          "type": "uint256"
        }
      ],
      "stateMutability": "view",
      "type": "function"
    },
    {
      "inputs": [
        {
          "internalType": "address",
          "name": "",
          "type": "address"
        },
        {
          "internalType": "uint256",
          "name": "",
          "type": "uint256"
        }
      ],
      "name": "userScores",
      "outputs": [
        {
          "internalType": "uint256",
          "name": "",
          "type": "uint256"
        }
      ],
      "stateMutability": "view",
      "type": "function"
    },
    {
      "inputs": [
        {
          "internalType": "uint256",
          "name": "tokenId",
          "type": "uint256"
        },
        {
          "internalType": "uint256",
          "name": "deadline",
          "type": "uint256"
        }
      ],
      "name": "withdraw",
      "outputs": [],
      "stateMutability": "nonpayable",
      "type": "function"
    },
    {
      "inputs": [
        {
          "internalType": "uint256",
          "name": "tokenId",
          "type": "uint256"
        },
        {
          "internalType": "uint256",
          "name": "mergeTokenId",
          "type": "uint256"
        },
        {
          "internalType": "uint256",
          "name": "deadline",
          "type": "uint256"
        }
      ],
      "name": "withdrawAndMerge",
      "outputs": [],
      "stateMutability": "nonpayable",
      "type": "function"
    },
    {
      "inputs": [
        {
          "internalType": "uint256",
          "name": "amount",
          "type": "uint256"
        },
        {
          "internalType": "uint256",
          "name": "deadline",
          "type": "uint256"
        }
      ],
      "name": "withdrawRewards",
      "outputs": [],
      "stateMutability": "nonpayable",
      "type": "function"
    }
  ],
  "bytecode": "0x6102006040523480156200001257600080fd5b506040516200312d3803806200312d833981016040819052620000359162000205565b6001600160a01b0380871660805260ff808d1660a05260c08c90528a1660e052610100899052610120889052600080546001600160a01b0319163317905584811690861610620000875783856200008a565b84845b6001600160a01b039081166101c0529081166101a05262ffffff84166101e052821661018052600281900b61016052620000c481620002df565b60020b610140526101a05160405163095ea7b360e01b81526001600160a01b03848116600483015260001960248301529091169063095ea7b3906044016020604051808303816000875af115801562000121573d6000803e3d6000fd5b505050506040513d601f19601f8201168201806040525081019062000147919062000310565b506101c05160405163095ea7b360e01b81526001600160a01b03848116600483015260001960248301529091169063095ea7b3906044016020604051808303816000875af11580156200019e573d6000803e3d6000fd5b505050506040513d601f19601f82011682018060405250810190620001c4919062000310565b5050505050505050505050506200033b565b805160ff81168114620001e857600080fd5b919050565b80516001600160a01b0381168114620001e857600080fd5b60008060008060008060008060008060006101608c8e0312156200022857600080fd5b620002338c620001d6565b9a5060208c015199506200024a60408d01620001d6565b985060608c0151975060808c015196506200026860a08d01620001ed565b95506200027860c08d01620001ed565b94506200028860e08d01620001ed565b93506101008c015162ffffff81168114620002a257600080fd5b9250620002b36101208d01620001ed565b91506101408c01518060020b8114620002cb57600080fd5b809150509295989b509295989b9093969950565b60008160020b627fffff1981036200030757634e487b7160e01b600052601160045260246000fd5b60000392915050565b6000602082840312156200032357600080fd5b815180151581146200033457600080fd5b9392505050565b60805160a05160c05160e05161010051610120516101405161016051610180516101a0516101c0516101e051612c79620004b4600039600081816105af01526121bf0152600081816105880152818161113b015261217c0152600081816102bf01528181611105015261214001526000818161056101528181610b9601528181610d2201528181610da801528181610f1201528181610f840152818161109c015281816113c50152818161209e0152818161240a01526124db01526000818161048201526122530152600081816104cf01526122230152600081816103ef015281816117880152611a1101526000818161051c015281816117b30152611a3c015260008181610286015281816106b101528181610875015281816115b50152611d1401526000818161062301526119230152600081816105d6015281816118bf015281816118ea01526119b101526000818161064a01528181610a2601528181611512015281816116be015261181b0152612c796000f3fe608060405234801561001057600080fd5b50600436106102115760003560e01c80636882a88811610125578063ddca3f43116100ad578063f6def7cf1161007c578063f6def7cf1461061e578063f7c618c114610645578063f99b7d751461066c578063fa60c77c1461067f578063fdc5ab8e1461069257600080fd5b8063ddca3f43146105aa578063e11400bb146105d1578063e1c05d93146105f8578063ee3453ed1461060b57600080fd5b8063bb57852d116100f4578063bb57852d14610504578063c75363b614610517578063cd671a581461053e578063d06fcba81461055c578063d21220a71461058357600080fd5b80636882a8881461047d5780638da5cb5b146104b7578063a1634b14146104ca578063ae169a50146104f157600080fd5b80631a906d65116101a8578063441a3e7011610177578063441a3e70146104115780634fb2e45d1461042457806352cb5133146104375780635b680a451461044a5780635f8e422f1461047557600080fd5b80631a906d65146103b9578063291c73c3146103ce57806329ed1cfd146103e157806337ba682d146103ea57600080fd5b80630dfe1681116101e45780630dfe1681146102ba57806310c6c1c2146102f9578063150b7a0214610362578063157775df1461039957600080fd5b806302e9e4951461021657806307c6e2fa146102405780630bce1284146102615780630d437d4014610281575b600080fd5b61022961022436600461255e565b6106a8565b6040516102379291906125b6565b60405180910390f35b61025361024e36600461269e565b6108b3565b604051908152602001610237565b61025361026f36600461270b565b60056020526000908152604090205481565b6102a87f000000000000000000000000000000000000000000000000000000000000000081565b60405160ff9091168152602001610237565b6102e17f000000000000000000000000000000000000000000000000000000000000000081565b6040516001600160a01b039091168152602001610237565b61033861030736600461270b565b60076020526000908152604090208054600182015460028301546003909301546001600160a01b0390921692909184565b604080516001600160a01b0390951685526020850193909352918301526060820152608001610237565b610380610370366004612724565b630a85bd0160e11b949350505050565b6040516001600160e01b03199091168152602001610237565b6102536103a736600461270b565b60046020526000908152604090205481565b6103cc6103c73660046127e8565b610a92565b005b6102536103dc366004612814565b6111e0565b61025360065481565b6102537f000000000000000000000000000000000000000000000000000000000000000081565b6103cc61041f366004612840565b611211565b6103cc61043236600461255e565b611476565b6103cc610445366004612840565b6114c2565b610253610458366004612814565b600260209081526000928352604080842090915290825290205481565b6103cc61153d565b6104a47f000000000000000000000000000000000000000000000000000000000000000081565b60405160029190910b8152602001610237565b6000546102e1906001600160a01b031681565b6104a47f000000000000000000000000000000000000000000000000000000000000000081565b6103cc6104ff36600461270b565b61158e565b610253610512366004612814565b611716565b6102537f000000000000000000000000000000000000000000000000000000000000000081565b61054862093a8081565b60405162ffffff9091168152602001610237565b6102e17f000000000000000000000000000000000000000000000000000000000000000081565b6102e17f000000000000000000000000000000000000000000000000000000000000000081565b6105487f000000000000000000000000000000000000000000000000000000000000000081565b6102a87f000000000000000000000000000000000000000000000000000000000000000081565b6103cc6106063660046127e8565b61173b565b610253610619366004612878565b6118b6565b6102537f000000000000000000000000000000000000000000000000000000000000000081565b6102e17f000000000000000000000000000000000000000000000000000000000000000081565b6103cc61067a3660046128a4565b611980565b61025361068d36600461255e565b611d0d565b61069a611e18565b6040516102379291906128d9565b600060608160ff7f0000000000000000000000000000000000000000000000000000000000000000166106de62093a8042612911565b6106e89190612933565b6106f390600161294c565b6001600160a01b038516600090815260036020526040902090915081906001015411610732576040805160008152602081019091529094909350915050565b6001600160a01b0384166000908152600360205260408120805460019091015490918383116107615783610763565b825b905060006107718284612933565b67ffffffffffffffff811115610789576107896125d7565b6040519080825280602002602001820160405280156107b2578160200160208202803683370190505b509050815b8381101561085d5760008181526004602052604090205415610822576000818152600460209081526040808320546001600160a01b038d1684526002835281842085855283528184205460059093529220546108139190612975565b61081d9190612911565b610825565b60005b826108308584612933565b815181106108405761084061295f565b6020908102919091010152806108558161298c565b9150506107b7565b50600061086d62093a8042612911565b61089a8460ff7f00000000000000000000000000000000000000000000000000000000000000001661294c565b6108a49190612933565b99919850909650505050505050565b600081804211156108df5760405162461bcd60e51b81526004016108d6906129a5565b60405180910390fd5b6000546001600160a01b031633146109095760405162461bcd60e51b81526004016108d6906129cc565b835185511461094d5760405162461bcd60e51b815260206004820152601060248201526f3830b930b6b2ba32b9399032b93937b960811b60448201526064016108d6565b6000805b8651811015610a1b5785818151811061096c5761096c61295f565b60200260200101518461097f919061294c565b93508581815181106109935761099361295f565b6020026020010151600560008984815181106109b1576109b161295f565b6020026020010151815260200190815260200160002081905550818782815181106109de576109de61295f565b60200260200101511115610a09578681815181106109fe576109fe61295f565b602002602001015191505b80610a138161298c565b915050610951565b506006819055610a4d7f0000000000000000000000000000000000000000000000000000000000000000333086611f77565b60408051600081526020810185905233917fc3991418cacd70a010fce559a44fcbb47534ca43bf7543964bdca2639f6e6e5a910160405180910390a250509392505050565b8080421115610ab35760405162461bcd60e51b81526004016108d6906129a5565b6000848152600760205260409020546001600160a01b03163314610b0b5760405162461bcd60e51b815260206004820152600f60248201526e37bbb732b9103337b93134b23232b760891b60448201526064016108d6565b6000610b1a62093a8042612911565b600086815260076020526040902060030154909150811015610b6c5760405162461bcd60e51b815260206004820152600b60248201526a6c6f636b65642074696d6560a81b60448201526064016108d6565b610b7584612091565b506040516331a9108f60e11b81526004810185905233906001600160a01b037f00000000000000000000000000000000000000000000000000000000000000001690636352211e90602401602060405180830381865afa158015610bdd573d6000803e3d6000fd5b505050506040513d601f19601f82011682018060405250810190610c0191906129fa565b6001600160a01b031614610c435760405162461bcd60e51b8152602060048201526009602482015268369037bbb732b9103360b91b60448201526064016108d6565b336000908152600860205260408120905b8154811015610d0857818181548110610c6f57610c6f61295f565b90600052602060002001548703610cf65781548290610c9090600190612933565b81548110610ca057610ca061295f565b9060005260206000200154828281548110610cbd57610cbd61295f565b906000526020600020018190555081805480610cdb57610cdb612a17565b60019003818190600052602060002001600090559055610d08565b80610d008161298c565b915050610c54565b5060405163133f757160e31b8152600481018790526000907f00000000000000000000000000000000000000000000000000000000000000006001600160a01b0316906399fbab889060240161018060405180830381865afa158015610d72573d6000803e3d6000fd5b505050506040513d601f19601f82011682018060405250810190610d969190612a69565b505050509750505050505050506000807f00000000000000000000000000000000000000000000000000000000000000006001600160a01b0316630c49ccbe6040518060a001604052808c8152602001866001600160801b0316815260200160008152602001600081526020018a8152506040518263ffffffff1660e01b8152600401610e619190600060a082019050825182526001600160801b03602084015116602083015260408301516040830152606083015160608301526080830151608083015292915050565b60408051808303816000875af1158015610e7f573d6000803e3d6000fd5b505050506040513d601f19601f82011682018060405250810190610ea39190612b4a565b604080516080810182528c815230602082019081526001600160801b0382840181815260608401828152945163fc6f786560e01b81529351600485015291516001600160a01b0390811660248501529151811660448401529251909216606482015292945090925060009182917f0000000000000000000000000000000000000000000000000000000000000000169063fc6f78659060840160408051808303816000875af1158015610f5a573d6000803e3d6000fd5b505050506040513d601f19601f82011682018060405250810190610f7e9190612b4a565b915091507f00000000000000000000000000000000000000000000000000000000000000006001600160a01b031663219f5d176040518060c001604052808d815260200187815260200186815260200160008152602001600081526020018c8152506040518263ffffffff1660e01b815260040161103b9190600060c082019050825182526020830151602083015260408301516040830152606083015160608301526080830151608083015260a083015160a083015292915050565b6060604051808303816000875af115801561105a573d6000803e3d6000fd5b505050506040513d601f19601f8201168201806040525081019061107e9190612b6e565b604051630852cd8d60e31b8152600481018f905292975090955093507f00000000000000000000000000000000000000000000000000000000000000006001600160a01b0316906342966c6890602401600060405180830381600087803b1580156110e857600080fd5b505af11580156110fc573d6000803e3d6000fd5b505050506111367f00000000000000000000000000000000000000000000000000000000000000003386856111319190612933565b6122ce565b6111657f0000000000000000000000000000000000000000000000000000000000000000336111318685612933565b337f9292b1de86834b12fcdc5d8fc52cca04b266ebc75a61d49888ec43218a7e6029868d8d6111948988612933565b61119e8988612933565b604080516001600160801b0390961686526020860194909452928401919091526060830152608082015260a00160405180910390a25050505050505050505050565b600860205281600052604060002081815481106111fc57600080fd5b90600052602060002001600091509150505481565b80804211156112325760405162461bcd60e51b81526004016108d6906129a5565b6000838152600760205260409020546001600160a01b0316331461128a5760405162461bcd60e51b815260206004820152600f60248201526e37bbb732b9103337b93134b23232b760891b60448201526064016108d6565b600061129962093a8042612911565b6000858152600760205260409020600301549091508110156112eb5760405162461bcd60e51b815260206004820152600b60248201526a6c6f636b65642074696d6560a81b60448201526064016108d6565b336000908152600860205260408120905b8154811015611438578181815481106113175761131761295f565b90600052602060002001548603611426578154829061133890600190612933565b815481106113485761134861295f565b90600052602060002001548282815481106113655761136561295f565b90600052602060002001819055508180548061138357611383612a17565b600082815260208120820160001990810191909155019055604051632142170760e11b8152306004820152336024820152604481018790526001600160a01b037f000000000000000000000000000000000000000000000000000000000000000016906342842e0e90606401600060405180830381600087803b15801561140957600080fd5b505af115801561141d573d6000803e3d6000fd5b50505050611438565b806114308161298c565b9150506112fc565b5060405185815233907f884edad9ce6fa2440d8a54cc123490eb96d2768479d49ff9c7366125a9424364906020015b60405180910390a25050505050565b6000546001600160a01b031633146114a05760405162461bcd60e51b81526004016108d6906129cc565b600180546001600160a01b0319166001600160a01b0392909216919091179055565b80804211156114e35760405162461bcd60e51b81526004016108d6906129a5565b6000546001600160a01b0316331461150d5760405162461bcd60e51b81526004016108d6906129cc565b6115387f000000000000000000000000000000000000000000000000000000000000000033856122ce565b505050565b6001546001600160a01b031633146115675760405162461bcd60e51b81526004016108d6906129cc565b60018054600080546001600160a01b03199081166001600160a01b03841617909155169055565b80804211156115af5760405162461bcd60e51b81526004016108d6906129a5565b600060ff7f0000000000000000000000000000000000000000000000000000000000000000166115e262093a8042612911565b6115ec9190612933565b3360009081526003602052604081205491925090805b336000908152600360205260409020600101548110156116a5578381116116a55761162e81600161294c565b600082815260046020526040902054909250156116935760008181526004602090815260408083205433845260028352818420858552835281842054600590935292205461167c9190612975565b6116869190612911565b611690908461294c565b92505b8061169d8161298c565b915050611602565b50336000908152600360205260408120829101556116e47f000000000000000000000000000000000000000000000000000000000000000033846122ce565b60405182815233907fba8de60c3403ec381d1d484652ea1980e3c3e56359195c92525bff4ce47ad98e90602001611467565b6003602052816000526040600020816002811061173257600080fd5b01549150829050565b808042111561175c5760405162461bcd60e51b81526004016108d6906129a5565b6000546001600160a01b031633146117865760405162461bcd60e51b81526004016108d6906129cc565b7f000000000000000000000000000000000000000000000000000000000000000042111580156117d657507f00000000000000000000000000000000000000000000000000000000000000004210155b6118165760405162461bcd60e51b81526020600482015260116024820152701b9bdd081a5b881d1a19481c195c9a5bd9607a1b60448201526064016108d6565b6118427f0000000000000000000000000000000000000000000000000000000000000000333086611f77565b6000848152600560205260408120805485929061186090849061294c565b90915550506006548411156118755760068490555b604080518581526020810185905233917fc3991418cacd70a010fce559a44fcbb47534ca43bf7543964bdca2639f6e6e5a910160405180910390a250505050565b60006118e360017f0000000000000000000000000000000000000000000000000000000000000000612ba3565b60ff1660017f000000000000000000000000000000000000000000000000000000000000000060ff166001856119199190612ba3565b60ff1661194760017f0000000000000000000000000000000000000000000000000000000000000000612933565b6119519190612975565b61195b919061294c565b6119659190612933565b61196f9085612975565b6119799190612911565b9392505050565b80804211156119a15760405162461bcd60e51b81526004016108d6906129a5565b60008360ff161180156119da57507f000000000000000000000000000000000000000000000000000000000000000060ff168360ff1611155b611a0f5760405162461bcd60e51b8152602060048201526006602482015265359018bf1a9960d11b60448201526064016108d6565b7f00000000000000000000000000000000000000000000000000000000000000004211158015611a5f57507f00000000000000000000000000000000000000000000000000000000000000004210155b611a9f5760405162461bcd60e51b81526020600482015260116024820152701b9bdd081a5b881d1a19481c195c9a5bd9607a1b60448201526064016108d6565b6000611aae62093a8042612911565b611ab990600161294c565b90506000611ac6866123db565b90506000611ad482876118b6565b905060005b8660ff168160ff161015611b6e578160046000611af960ff85168861294c565b81526020019081526020016000206000828254611b16919061294c565b90915550503360009081526002602052604081208391611b3960ff85168861294c565b81526020019081526020016000206000828254611b56919061294c565b90915550819050611b6681612bbc565b915050611ad9565b506000611b7e60ff88168561294c565b90506040518060800160405280336001600160a01b0316815260200183815260200185815260200182815250600760008a815260200190815260200160002060008201518160000160006101000a8154816001600160a01b0302191690836001600160a01b0316021790555060208201518160010155604082015181600201556060820151816003015590505060036000336001600160a01b03166001600160a01b03168152602001908152602001600020600160028110611c4257611c4261295f565b01543360009081526003602052604090205403611c6c573360009081526003602052604090208490555b3360009081526003602052604090208190600101541015611c9d573360009081526003602052604090208190600101555b3360008181526008602090815260408083208054600181018255908452928290209092018b905581518b815290810186905260ff8a168183015290517f6fa2f6021ee337436cdf2b2570285886da18bc06402ce284d296504a0fe8f8759181900360600190a25050505050505050565b60008060ff7f000000000000000000000000000000000000000000000000000000000000000016611d4162093a8042612911565b611d4b9190612933565b6001600160a01b038416600090815260036020526040812054919250905b6001600160a01b038516600090815260036020526040902060010154811015611e1057828111611e105760008181526004602052604090205415611dfe576000818152600460209081526040808320546001600160a01b0389168452600283528184208585528352818420546005909352922054611de79190612975565b611df19190612911565b611dfb908361294c565b91505b80611e088161298c565b915050611d69565b509392505050565b3360009081526008602052604081205460609190819067ffffffffffffffff811115611e4657611e466125d7565b604051908082528060200260200182016040528015611e6f578160200160208202803683370190505b5090506000611e8162093a8042612911565b3360009081526008602052604081205491925090815b33600090815260086020526040902054811015611f6a57336000908152600860205260408120805483908110611ecf57611ecf61295f565b906000526020600020015490508460076000838152602001908152602001600020600301541115611f2a5780868581518110611f0d57611f0d61295f565b602090810291909101015283611f228161298c565b945050611f57565b82611f3481612bdb565b93505080868481518110611f4a57611f4a61295f565b6020026020010181815250505b5080611f628161298c565b915050611e97565b5092959294509192505050565b604080516001600160a01b0385811660248301528481166044830152606480830185905283518084039091018152608490920183526020820180516001600160e01b03166323b872dd60e01b1790529151600092839290881691611fdb9190612bf2565b6000604051808303816000865af19150503d8060008114612018576040519150601f19603f3d011682016040523d82523d6000602084013e61201d565b606091505b50915091508180156120475750805115806120475750808060200190518101906120479190612c21565b6120895760405162461bcd60e51b81526020600482015260136024820152721d1c985b9cd9995c919c9bdb4819985a5b1959606a1b60448201526064016108d6565b505050505050565b60008060008060008060007f00000000000000000000000000000000000000000000000000000000000000006001600160a01b03166399fbab88896040518263ffffffff1660e01b81526004016120ea91815260200190565b61018060405180830381865afa158015612108573d6000803e3d6000fd5b505050506040513d601f19601f8201168201806040525081019061212c9190612a69565b5050505097509750975097509750975050507f00000000000000000000000000000000000000000000000000000000000000006001600160a01b0316866001600160a01b03161480156121b057507f00000000000000000000000000000000000000000000000000000000000000006001600160a01b0316856001600160a01b0316145b80156121e557508362ffffff167f000000000000000000000000000000000000000000000000000000000000000062ffffff16145b6122215760405162461bcd60e51b815260206004820152600d60248201526c3638103830b4b91032b93937b960991b60448201526064016108d6565b7f000000000000000000000000000000000000000000000000000000000000000060020b8360020b14801561227b57507f000000000000000000000000000000000000000000000000000000000000000060020b8260020b145b6122ba5760405162461bcd60e51b815260206004820152601060248201526f3a34b1b5903930b733b29032b93937b960811b60448201526064016108d6565b6001600160801b0316979650505050505050565b604080516001600160a01b038481166024830152604480830185905283518084039091018152606490920183526020820180516001600160e01b031663a9059cbb60e01b179052915160009283929087169161232a9190612bf2565b6000604051808303816000865af19150503d8060008114612367576040519150601f19603f3d011682016040523d82523d6000602084013e61236c565b606091505b50915091508180156123965750805115806123965750808060200190518101906123969190612c21565b6123d45760405162461bcd60e51b815260206004820152600f60248201526e1514905394d1915497d19052531151608a1b60448201526064016108d6565b5050505050565b6000806123e783612091565b60405163020604bf60e21b81526004810185905290915030906001600160a01b037f0000000000000000000000000000000000000000000000000000000000000000169063081812fc90602401602060405180830381865afa158015612451573d6000803e3d6000fd5b505050506040513d601f19601f8201168201806040525081019061247591906129fa565b6001600160a01b0316146124b95760405162461bcd60e51b815260206004820152600b60248201526a6e6f7420617070726f766560a81b60448201526064016108d6565b604051632142170760e11b8152336004820152306024820152604481018490527f00000000000000000000000000000000000000000000000000000000000000006001600160a01b0316906342842e0e90606401600060405180830381600087803b15801561252757600080fd5b505af115801561253b573d6000803e3d6000fd5b509295945050505050565b6001600160a01b038116811461255b57600080fd5b50565b60006020828403121561257057600080fd5b813561197981612546565b600081518084526020808501945080840160005b838110156125ab5781518752958201959082019060010161258f565b509495945050505050565b8281526040602082015260006125cf604083018461257b565b949350505050565b634e487b7160e01b600052604160045260246000fd5b604051601f8201601f1916810167ffffffffffffffff81118282101715612616576126166125d7565b604052919050565b600082601f83011261262f57600080fd5b8135602067ffffffffffffffff82111561264b5761264b6125d7565b8160051b61265a8282016125ed565b928352848101820192828101908785111561267457600080fd5b83870192505b848310156126935782358252918301919083019061267a565b979650505050505050565b6000806000606084860312156126b357600080fd5b833567ffffffffffffffff808211156126cb57600080fd5b6126d78783880161261e565b945060208601359150808211156126ed57600080fd5b506126fa8682870161261e565b925050604084013590509250925092565b60006020828403121561271d57600080fd5b5035919050565b6000806000806080858703121561273a57600080fd5b843561274581612546565b935060208581013561275681612546565b935060408601359250606086013567ffffffffffffffff8082111561277a57600080fd5b818801915088601f83011261278e57600080fd5b8135818111156127a0576127a06125d7565b6127b2601f8201601f191685016125ed565b915080825289848285010111156127c857600080fd5b808484018584013760008482840101525080935050505092959194509250565b6000806000606084860312156127fd57600080fd5b505081359360208301359350604090920135919050565b6000806040838503121561282757600080fd5b823561283281612546565b946020939093013593505050565b6000806040838503121561285357600080fd5b50508035926020909101359150565b803560ff8116811461287357600080fd5b919050565b6000806040838503121561288b57600080fd5b8235915061289b60208401612862565b90509250929050565b6000806000606084860312156128b957600080fd5b833592506128c960208501612862565b9150604084013590509250925092565b6040815260006128ec604083018561257b565b90508260208301529392505050565b634e487b7160e01b600052601160045260246000fd5b60008261292e57634e487b7160e01b600052601260045260246000fd5b500490565b81810381811115612946576129466128fb565b92915050565b80820180821115612946576129466128fb565b634e487b7160e01b600052603260045260246000fd5b8082028115828204841417612946576129466128fb565b60006001820161299e5761299e6128fb565b5060010190565b6020808252600d908201526c6f76657220646561646c696e6560981b604082015260600190565b6020808252600990820152683337b93134b23232b760b91b604082015260600190565b805161287381612546565b600060208284031215612a0c57600080fd5b815161197981612546565b634e487b7160e01b600052603160045260246000fd5b805162ffffff8116811461287357600080fd5b8051600281900b811461287357600080fd5b80516001600160801b038116811461287357600080fd5b6000806000806000806000806000806000806101808d8f031215612a8c57600080fd5b8c516bffffffffffffffffffffffff81168114612aa857600080fd5b9b50612ab660208e016129ef565b9a50612ac460408e016129ef565b9950612ad260608e016129ef565b9850612ae060808e01612a2d565b9750612aee60a08e01612a40565b9650612afc60c08e01612a40565b9550612b0a60e08e01612a52565b94506101008d015193506101208d01519250612b296101408e01612a52565b9150612b386101608e01612a52565b90509295989b509295989b509295989b565b60008060408385031215612b5d57600080fd5b505080516020909101519092909150565b600080600060608486031215612b8357600080fd5b612b8c84612a52565b925060208401519150604084015190509250925092565b60ff8281168282160390811115612946576129466128fb565b600060ff821660ff8103612bd257612bd26128fb565b60010192915050565b600081612bea57612bea6128fb565b506000190190565b6000825160005b81811015612c135760208186018101518583015201612bf9565b506000920191825250919050565b600060208284031215612c3357600080fd5b8151801515811461197957600080fdfea26469706673582212205ef344ca88f5fdde71ec20de6e694cde2eac8864f3b3a45547211dee05ad0eec64736f6c63430008110033",
  "linkReferences": {},
  "deployedLinkReferences": {}
}