{
  "_format": "hh-sol-artifact-1",
  "contractName": "StakeNFT721",
  "sourceName": "contracts/stakeNFT721.sol",
  "abi": [
    {
      "inputs": [
        {
          "internalType": "uint24",
          "name": "weekSeconds",
          "type": "uint24"
        },
        {
          "internalType": "uint8",
          "name": "maxWeeks",
          "type": "uint8"
        },
        {
          "internalType": "uint256",
          "name": "maxScale",
          "type": "uint256"
        },
        {
          "internalType": "uint8",
          "name": "lockWeeks",
          "type": "uint8"
        },
        {
          "internalType": "uint256",
          "name": "beginTime",
          "type": "uint256"
        },
        {
          "internalType": "uint256",
          "name": "endTime",
          "type": "uint256"
        },
        {
          "internalType": "address",
          "name": "_rewardToken",
          "type": "address"
        },
        {
          "internalType": "address",
          "name": "tokenA",
          "type": "address"
        },
        {
          "internalType": "address",
          "name": "tokenB",
          "type": "address"
        },
        {
          "internalType": "uint24",
          "name": "_fee",
          "type": "uint24"
        },
        {
          "internalType": "address",
          "name": "nft",
          "type": "address"
        },
        {
          "internalType": "int24",
          "name": "tickMax",
          "type": "int24"
        }
      ],
      "stateMutability": "nonpayable",
      "type": "constructor"
    },
    {
      "anonymous": false,
      "inputs": [
        {
          "indexed": true,
          "internalType": "address",
          "name": "user",
          "type": "address"
        },
        {
          "indexed": false,
          "internalType": "uint256",
          "name": "amount",
          "type": "uint256"
        }
      ],
      "name": "ClaimReward",
      "type": "event"
    },
    {
      "anonymous": false,
      "inputs": [
        {
          "indexed": true,
          "internalType": "address",
          "name": "user",
          "type": "address"
        },
        {
          "indexed": false,
          "internalType": "uint256",
          "name": "no",
          "type": "uint256"
        },
        {
          "indexed": false,
          "internalType": "uint256",
          "name": "amount",
          "type": "uint256"
        }
      ],
      "name": "SetReward",
      "type": "event"
    },
    {
      "anonymous": false,
      "inputs": [
        {
          "indexed": true,
          "internalType": "address",
          "name": "user",
          "type": "address"
        },
        {
          "indexed": false,
          "internalType": "uint256",
          "name": "tokenId",
          "type": "uint256"
        },
        {
          "indexed": false,
          "internalType": "uint256",
          "name": "amount",
          "type": "uint256"
        },
        {
          "indexed": false,
          "internalType": "uint8",
          "name": "k",
          "type": "uint8"
        }
      ],
      "name": "Stake",
      "type": "event"
    },
    {
      "anonymous": false,
      "inputs": [
        {
          "indexed": true,
          "internalType": "address",
          "name": "user",
          "type": "address"
        },
        {
          "indexed": false,
          "internalType": "uint256",
          "name": "tokenId",
          "type": "uint256"
        }
      ],
      "name": "Withdraw",
      "type": "event"
    },
    {
      "anonymous": false,
      "inputs": [
        {
          "indexed": true,
          "internalType": "address",
          "name": "user",
          "type": "address"
        },
        {
          "indexed": false,
          "internalType": "uint128",
          "name": "liquidity",
          "type": "uint128"
        },
        {
          "indexed": false,
          "internalType": "uint256",
          "name": "tokenId",
          "type": "uint256"
        },
        {
          "indexed": false,
          "internalType": "uint256",
          "name": "mergeId",
          "type": "uint256"
        },
        {
          "indexed": false,
          "internalType": "uint256",
          "name": "token0Fee",
          "type": "uint256"
        },
        {
          "indexed": false,
          "internalType": "uint256",
          "name": "token1Fee",
          "type": "uint256"
        }
      ],
      "name": "WithdrawAndMerge",
      "type": "event"
    },
    {
      "inputs": [],
      "name": "BEGIN_TIME",
      "outputs": [
        {
          "internalType": "uint256",
          "name": "",
          "type": "uint256"
        }
      ],
      "stateMutability": "view",
      "type": "function"
    },
    {
      "inputs": [],
      "name": "END_TIME",
      "outputs": [
        {
          "internalType": "uint256",
          "name": "",
          "type": "uint256"
        }
      ],
      "stateMutability": "view",
      "type": "function"
    },
    {
      "inputs": [],
      "name": "LOCK_WEEKNUM",
      "outputs": [
        {
          "internalType": "uint8",
          "name": "",
          "type": "uint8"
        }
      ],
      "stateMutability": "view",
      "type": "function"
    },
    {
      "inputs": [],
      "name": "MAX_SCALE",
      "outputs": [
        {
          "internalType": "uint256",
          "name": "",
          "type": "uint256"
        }
      ],
      "stateMutability": "view",
      "type": "function"
    },
    {
      "inputs": [],
      "name": "MAX_TICK",
      "outputs": [
        {
          "internalType": "int24",
          "name": "",
          "type": "int24"
        }
      ],
      "stateMutability": "view",
      "type": "function"
    },
    {
      "inputs": [],
      "name": "MAX_WEEKS",
      "outputs": [
        {
          "internalType": "uint8",
          "name": "",
          "type": "uint8"
        }
      ],
      "stateMutability": "view",
      "type": "function"
    },
    {
      "inputs": [],
      "name": "MIN_TICK",
      "outputs": [
        {
          "internalType": "int24",
          "name": "",
          "type": "int24"
        }
      ],
      "stateMutability": "view",
      "type": "function"
    },
    {
      "inputs": [],
      "name": "WEEK_SECONDS",
      "outputs": [
        {
          "internalType": "uint24",
          "name": "",
          "type": "uint24"
        }
      ],
      "stateMutability": "view",
      "type": "function"
    },
    {
      "inputs": [],
      "name": "acceptSetter",
      "outputs": [],
      "stateMutability": "nonpayable",
      "type": "function"
    },
    {
      "inputs": [
        {
          "internalType": "address",
          "name": "user",
          "type": "address"
        }
      ],
      "name": "canClaimAmount",
      "outputs": [
        {
          "internalType": "uint256",
          "name": "",
          "type": "uint256"
        }
      ],
      "stateMutability": "view",
      "type": "function"
    },
    {
      "inputs": [
        {
          "internalType": "uint256",
          "name": "deadline",
          "type": "uint256"
        }
      ],
      "name": "claimReward",
      "outputs": [],
      "stateMutability": "nonpayable",
      "type": "function"
    },
    {
      "inputs": [],
      "name": "fee",
      "outputs": [
        {
          "internalType": "uint24",
          "name": "",
          "type": "uint24"
        }
      ],
      "stateMutability": "view",
      "type": "function"
    },
    {
      "inputs": [
        {
          "internalType": "uint256",
          "name": "amount",
          "type": "uint256"
        },
        {
          "internalType": "uint8",
          "name": "k",
          "type": "uint8"
        }
      ],
      "name": "getScore",
      "outputs": [
        {
          "internalType": "uint256",
          "name": "score",
          "type": "uint256"
        }
      ],
      "stateMutability": "view",
      "type": "function"
    },
    {
      "inputs": [],
      "name": "getUserNFTs",
      "outputs": [
        {
          "internalType": "uint256[]",
          "name": "",
          "type": "uint256[]"
        },
        {
          "internalType": "uint256",
          "name": "",
          "type": "uint256"
        }
      ],
      "stateMutability": "view",
      "type": "function"
    },
    {
      "inputs": [],
      "name": "latestNo",
      "outputs": [
        {
          "internalType": "uint256",
          "name": "",
          "type": "uint256"
        }
      ],
      "stateMutability": "view",
      "type": "function"
    },
    {
      "inputs": [
        {
          "internalType": "address",
          "name": "user",
          "type": "address"
        }
      ],
      "name": "lockedRewardAmount",
      "outputs": [
        {
          "internalType": "uint256",
          "name": "",
          "type": "uint256"
        },
        {
          "internalType": "uint256[]",
          "name": "",
          "type": "uint256[]"
        }
      ],
      "stateMutability": "view",
      "type": "function"
    },
    {
      "inputs": [],
      "name": "nftToken",
      "outputs": [
        {
          "internalType": "contract IIotabeeSwapNFT",
          "name": "",
          "type": "address"
        }
      ],
      "stateMutability": "view",
      "type": "function"
    },
    {
      "inputs": [
        {
          "internalType": "address",
          "name": "",
          "type": "address"
        },
        {
          "internalType": "address",
          "name": "",
          "type": "address"
        },
        {
          "internalType": "uint256",
          "name": "",
          "type": "uint256"
        },
        {
          "internalType": "bytes",
          "name": "",
          "type": "bytes"
        }
      ],
      "name": "onERC721Received",
      "outputs": [
        {
          "internalType": "bytes4",
          "name": "",
          "type": "bytes4"
        }
      ],
      "stateMutability": "pure",
      "type": "function"
    },
    {
      "inputs": [],
      "name": "owner",
      "outputs": [
        {
          "internalType": "address",
          "name": "",
          "type": "address"
        }
      ],
      "stateMutability": "view",
      "type": "function"
    },
    {
      "inputs": [],
      "name": "rewardToken",
      "outputs": [
        {
          "internalType": "address",
          "name": "",
          "type": "address"
        }
      ],
      "stateMutability": "view",
      "type": "function"
    },
    {
      "inputs": [
        {
          "internalType": "uint256",
          "name": "",
          "type": "uint256"
        }
      ],
      "name": "rewardsOf",
      "outputs": [
        {
          "internalType": "uint256",
          "name": "",
          "type": "uint256"
        }
      ],
      "stateMutability": "view",
      "type": "function"
    },
    {
      "inputs": [
        {
          "internalType": "uint256",
          "name": "no",
          "type": "uint256"
        },
        {
          "internalType": "uint256",
          "name": "amount",
          "type": "uint256"
        },
        {
          "internalType": "uint256",
          "name": "deadline",
          "type": "uint256"
        }
      ],
      "name": "setReward",
      "outputs": [],
      "stateMutability": "nonpayable",
      "type": "function"
    },
    {
      "inputs": [
        {
          "internalType": "uint256[]",
          "name": "nos",
          "type": "uint256[]"
        },
        {
          "internalType": "uint256[]",
          "name": "amounts",
          "type": "uint256[]"
        },
        {
          "internalType": "uint256",
          "name": "deadline",
          "type": "uint256"
        }
      ],
      "name": "setRewards",
      "outputs": [],
      "stateMutability": "nonpayable",
      "type": "function"
    },
    {
      "inputs": [
        {
          "internalType": "uint256",
          "name": "tokenId",
          "type": "uint256"
        },
        {
          "internalType": "uint8",
          "name": "k",
          "type": "uint8"
        },
        {
          "internalType": "uint256",
          "name": "deadline",
          "type": "uint256"
        }
      ],
      "name": "stake",
      "outputs": [],
      "stateMutability": "nonpayable",
      "type": "function"
    },
    {
      "inputs": [
        {
          "internalType": "uint256",
          "name": "",
          "type": "uint256"
        }
      ],
      "name": "stakingNFTs",
      "outputs": [
        {
          "internalType": "address",
          "name": "owner",
          "type": "address"
        },
        {
          "internalType": "uint256",
          "name": "score",
          "type": "uint256"
        },
        {
          "internalType": "uint256",
          "name": "beginNo",
          "type": "uint256"
        },
        {
          "internalType": "uint256",
          "name": "endNo",
          "type": "uint256"
        }
      ],
      "stateMutability": "view",
      "type": "function"
    },
    {
      "inputs": [],
      "name": "token0",
      "outputs": [
        {
          "internalType": "address",
          "name": "",
          "type": "address"
        }
      ],
      "stateMutability": "view",
      "type": "function"
    },
    {
      "inputs": [],
      "name": "token1",
      "outputs": [
        {
          "internalType": "address",
          "name": "",
          "type": "address"
        }
      ],
      "stateMutability": "view",
      "type": "function"
    },
    {
      "inputs": [
        {
          "internalType": "uint256",
          "name": "",
          "type": "uint256"
        }
      ],
      "name": "totalScores",
      "outputs": [
        {
          "internalType": "uint256",
          "name": "",
          "type": "uint256"
        }
      ],
      "stateMutability": "view",
      "type": "function"
    },
    {
      "inputs": [
        {
          "internalType": "address",
          "name": "_owner",
          "type": "address"
        }
      ],
      "name": "transferOwner",
      "outputs": [],
      "stateMutability": "nonpayable",
      "type": "function"
    },
    {
      "inputs": [
        {
          "internalType": "address",
          "name": "",
          "type": "address"
        },
        {
          "internalType": "uint256",
          "name": "",
          "type": "uint256"
        }
      ],
      "name": "userCanClaimWeeks",
      "outputs": [
        {
          "internalType": "uint256",
          "name": "",
          "type": "uint256"
        }
      ],
      "stateMutability": "view",
      "type": "function"
    },
    {
      "inputs": [
        {
          "internalType": "address",
          "name": "",
          "type": "address"
        },
        {
          "internalType": "uint256",
          "name": "",
          "type": "uint256"
        }
      ],
      "name": "userNFTs",
      "outputs": [
        {
          "internalType": "uint256",
          "name": "",
          "type": "uint256"
        }
      ],
      "stateMutability": "view",
      "type": "function"
    },
    {
      "inputs": [
        {
          "internalType": "address",
          "name": "",
          "type": "address"
        },
        {
          "internalType": "uint256",
          "name": "",
          "type": "uint256"
        }
      ],
      "name": "userScores",
      "outputs": [
        {
          "internalType": "uint256",
          "name": "",
          "type": "uint256"
        }
      ],
      "stateMutability": "view",
      "type": "function"
    },
    {
      "inputs": [
        {
          "internalType": "uint256",
          "name": "tokenId",
          "type": "uint256"
        },
        {
          "internalType": "uint256",
          "name": "deadline",
          "type": "uint256"
        }
      ],
      "name": "withdraw",
      "outputs": [],
      "stateMutability": "nonpayable",
      "type": "function"
    },
    {
      "inputs": [
        {
          "internalType": "uint256",
          "name": "tokenId",
          "type": "uint256"
        },
        {
          "internalType": "uint256",
          "name": "mergeTokenId",
          "type": "uint256"
        },
        {
          "internalType": "uint256",
          "name": "deadline",
          "type": "uint256"
        }
      ],
      "name": "withdrawAndMerge",
      "outputs": [],
      "stateMutability": "nonpayable",
      "type": "function"
    }
  ],
  "bytecode": "0x6102206040523480156200001257600080fd5b5060405162002f8b38038062002f8b833981016040819052620000359162000224565b6001600160a01b0380871660805262ffffff8d1660a05260ff808d1660c05260e08c90528a1661010052610120899052610140889052600080546001600160a01b03191633179055848116908616106200009157838562000094565b84845b6001600160a01b039081166101e0529081166101c05262ffffff84166102005282166101a052600281900b61018052620000ce8162000307565b60020b610160526101c05160405163095ea7b360e01b81526001600160a01b03848116600483015260001960248301529091169063095ea7b3906044016020604051808303816000875af11580156200012b573d6000803e3d6000fd5b505050506040513d601f19601f8201168201806040525081019062000151919062000338565b506101e05160405163095ea7b360e01b81526001600160a01b03848116600483015260001960248301529091169063095ea7b3906044016020604051808303816000875af1158015620001a8573d6000803e3d6000fd5b505050506040513d601f19601f82011682018060405250810190620001ce919062000338565b5050505050505050505050505062000363565b805162ffffff81168114620001f557600080fd5b919050565b805160ff81168114620001f557600080fd5b80516001600160a01b0381168114620001f557600080fd5b6000806000806000806000806000806000806101808d8f0312156200024857600080fd5b620002538d620001e1565b9b506200026360208e01620001fa565b9a5060408d015199506200027a60608e01620001fa565b985060808d0151975060a08d015196506200029860c08e016200020c565b9550620002a860e08e016200020c565b9450620002b96101008e016200020c565b9350620002ca6101208e01620001e1565b9250620002db6101408e016200020c565b91506101608d01518060020b8114620002f357600080fd5b809150509295989b509295989b509295989b565b60008160020b627fffff1981036200032f57634e487b7160e01b600052601160045260246000fd5b60000392915050565b6000602082840312156200034b57600080fd5b815180151581146200035c57600080fd5b9392505050565b60805160a05160c05160e05161010051610120516101405161016051610180516101a0516101c0516101e05161020051612a8f620004fc600039600081816105ae0152611fd50152600081816105870152818161110a0152611f920152600081816102b6015281816110d40152611f5601526000818161056001528181610b6501528181610cf101528181610d7701528181610ee101528181610f530152818161106b015281816113b601528181611eb40152818161222001526122f101526000818161046401526120690152600081816104b101526120390152600081816103e401526118db0152600081816104fe015261190601526000818161027d015281816106b0015281816108b80152818161152b0152611c0001526000818161062201526117ed0152600081816105d501528181611789015281816117b4015261187b015260008181610525015281816106d90152818161088a01528181610ac301528181611264015281816115540152818161197401528181611c290152611d8b01526000818161064901526116560152612a8f6000f3fe608060405234801561001057600080fd5b50600436106102065760003560e01c80638da5cb5b1161011a578063ddca3f43116100ad578063f6def7cf1161007c578063f6def7cf1461061d578063f7c618c114610644578063f99b7d751461066b578063fa60c77c1461067e578063fdc5ab8e1461069157600080fd5b8063ddca3f43146105a9578063e11400bb146105d0578063e1c05d93146105f7578063ee3453ed1461060a57600080fd5b8063c75363b6116100e9578063c75363b6146104f9578063cd671a5814610520578063d06fcba81461055b578063d21220a71461058257600080fd5b80638da5cb5b14610499578063a1634b14146104ac578063ae169a50146104d3578063bb57852d146104e657600080fd5b80631a906d651161019d578063441a3e701161016c578063441a3e70146104065780634fb2e45d146104195780635b680a451461042c5780635f8e422f146104575780636882a8881461045f57600080fd5b80631a906d65146103b0578063291c73c3146103c357806329ed1cfd146103d657806337ba682d146103df57600080fd5b80630dfe1681116101d95780630dfe1681146102b157806310c6c1c2146102f0578063150b7a0214610359578063157775df1461039057600080fd5b806302e9e4951461020b57806307c6e2fa146102355780630bce12841461024a5780630d437d4014610278575b600080fd5b61021e610219366004612374565b6106a7565b60405161022c9291906123cc565b60405180910390f35b6102486102433660046124b4565b6108f6565b005b61026a610258366004612521565b60056020526000908152604090205481565b60405190815260200161022c565b61029f7f000000000000000000000000000000000000000000000000000000000000000081565b60405160ff909116815260200161022c565b6102d87f000000000000000000000000000000000000000000000000000000000000000081565b6040516001600160a01b03909116815260200161022c565b61032f6102fe366004612521565b60076020526000908152604090208054600182015460028301546003909301546001600160a01b0390921692909184565b604080516001600160a01b039095168552602085019390935291830152606082015260800161022c565b61037761036736600461253a565b630a85bd0160e11b949350505050565b6040516001600160e01b0319909116815260200161022c565b61026a61039e366004612521565b60046020526000908152604090205481565b6102486103be3660046125fe565b610a3f565b61026a6103d136600461262a565b6111af565b61026a60065481565b61026a7f000000000000000000000000000000000000000000000000000000000000000081565b610248610414366004612656565b6111e0565b610248610427366004612374565b611467565b61026a61043a36600461262a565b600260209081526000928352604080842090915290825290205481565b6102486114b3565b6104867f000000000000000000000000000000000000000000000000000000000000000081565b60405160029190910b815260200161022c565b6000546102d8906001600160a01b031681565b6104867f000000000000000000000000000000000000000000000000000000000000000081565b6102486104e1366004612521565b611504565b61026a6104f436600461262a565b6116ae565b61026a7f000000000000000000000000000000000000000000000000000000000000000081565b6105477f000000000000000000000000000000000000000000000000000000000000000081565b60405162ffffff909116815260200161022c565b6102d87f000000000000000000000000000000000000000000000000000000000000000081565b6102d87f000000000000000000000000000000000000000000000000000000000000000081565b6105477f000000000000000000000000000000000000000000000000000000000000000081565b61029f7f000000000000000000000000000000000000000000000000000000000000000081565b6102486106053660046125fe565b6116d3565b61026a61061836600461268e565b611780565b61026a7f000000000000000000000000000000000000000000000000000000000000000081565b6102d87f000000000000000000000000000000000000000000000000000000000000000081565b6102486106793660046126ba565b61184a565b61026a61068c366004612374565b611bf9565b610699611d26565b60405161022c9291906126ef565b600060608160ff7f0000000000000000000000000000000000000000000000000000000000000000166106ff62ffffff7f00000000000000000000000000000000000000000000000000000000000000001642612727565b6107099190612749565b610714906001612762565b6001600160a01b038516600090815260036020526040902090915081906001015411610753576040805160008152602081019091529094909350915050565b6001600160a01b0384166000908152600360205260408120805460019091015490918383116107825783610784565b825b905060006107928284612749565b67ffffffffffffffff8111156107aa576107aa6123ed565b6040519080825280602002602001820160405280156107d3578160200160208202803683370190505b509050815b8381101561087e5760008181526004602052604090205415610843576000818152600460209081526040808320546001600160a01b038d168452600283528184208585528352818420546005909352922054610834919061278b565b61083e9190612727565b610846565b60005b826108518584612749565b8151811061086157610861612775565b602090810291909101015280610876816127a2565b9150506107d8565b5060006108b062ffffff7f00000000000000000000000000000000000000000000000000000000000000001642612727565b6108dd8460ff7f000000000000000000000000000000000000000000000000000000000000000016612762565b6108e79190612749565b99919850909650505050505050565b80804211156109205760405162461bcd60e51b8152600401610917906127bb565b60405180910390fd5b6000546001600160a01b0316331461094a5760405162461bcd60e51b8152600401610917906127e2565b825184511461098e5760405162461bcd60e51b815260206004820152601060248201526f3830b930b6b2ba32b9399032b93937b960811b6044820152606401610917565b6000805b8551811015610a35578481815181106109ad576109ad612775565b6020026020010151600560008884815181106109cb576109cb612775565b6020026020010151815260200190815260200160002081905550818682815181106109f8576109f8612775565b60200260200101511115610a2357858181518110610a1857610a18612775565b602002602001015191505b80610a2d816127a2565b915050610992565b5060065550505050565b8080421115610a605760405162461bcd60e51b8152600401610917906127bb565b6000848152600760205260409020546001600160a01b03163314610ab85760405162461bcd60e51b815260206004820152600f60248201526e37bbb732b9103337b93134b23232b760891b6044820152606401610917565b6000610ae962ffffff7f00000000000000000000000000000000000000000000000000000000000000001642612727565b600086815260076020526040902060030154909150811015610b3b5760405162461bcd60e51b815260206004820152600b60248201526a6c6f636b65642074696d6560a81b6044820152606401610917565b610b4484611ea7565b506040516331a9108f60e11b81526004810185905233906001600160a01b037f00000000000000000000000000000000000000000000000000000000000000001690636352211e90602401602060405180830381865afa158015610bac573d6000803e3d6000fd5b505050506040513d601f19601f82011682018060405250810190610bd09190612810565b6001600160a01b031614610c125760405162461bcd60e51b8152602060048201526009602482015268369037bbb732b9103360b91b6044820152606401610917565b336000908152600860205260408120905b8154811015610cd757818181548110610c3e57610c3e612775565b90600052602060002001548703610cc55781548290610c5f90600190612749565b81548110610c6f57610c6f612775565b9060005260206000200154828281548110610c8c57610c8c612775565b906000526020600020018190555081805480610caa57610caa61282d565b60019003818190600052602060002001600090559055610cd7565b80610ccf816127a2565b915050610c23565b5060405163133f757160e31b8152600481018790526000907f00000000000000000000000000000000000000000000000000000000000000006001600160a01b0316906399fbab889060240161018060405180830381865afa158015610d41573d6000803e3d6000fd5b505050506040513d601f19601f82011682018060405250810190610d65919061287f565b505050509750505050505050506000807f00000000000000000000000000000000000000000000000000000000000000006001600160a01b0316630c49ccbe6040518060a001604052808c8152602001866001600160801b0316815260200160008152602001600081526020018a8152506040518263ffffffff1660e01b8152600401610e309190600060a082019050825182526001600160801b03602084015116602083015260408301516040830152606083015160608301526080830151608083015292915050565b60408051808303816000875af1158015610e4e573d6000803e3d6000fd5b505050506040513d601f19601f82011682018060405250810190610e729190612960565b604080516080810182528c815230602082019081526001600160801b0382840181815260608401828152945163fc6f786560e01b81529351600485015291516001600160a01b0390811660248501529151811660448401529251909216606482015292945090925060009182917f0000000000000000000000000000000000000000000000000000000000000000169063fc6f78659060840160408051808303816000875af1158015610f29573d6000803e3d6000fd5b505050506040513d601f19601f82011682018060405250810190610f4d9190612960565b915091507f00000000000000000000000000000000000000000000000000000000000000006001600160a01b031663219f5d176040518060c001604052808d815260200187815260200186815260200160008152602001600081526020018c8152506040518263ffffffff1660e01b815260040161100a9190600060c082019050825182526020830151602083015260408301516040830152606083015160608301526080830151608083015260a083015160a083015292915050565b6060604051808303816000875af1158015611029573d6000803e3d6000fd5b505050506040513d601f19601f8201168201806040525081019061104d9190612984565b604051630852cd8d60e31b8152600481018f905292975090955093507f00000000000000000000000000000000000000000000000000000000000000006001600160a01b0316906342966c6890602401600060405180830381600087803b1580156110b757600080fd5b505af11580156110cb573d6000803e3d6000fd5b505050506111057f00000000000000000000000000000000000000000000000000000000000000003386856111009190612749565b6120e4565b6111347f0000000000000000000000000000000000000000000000000000000000000000336111008685612749565b337f9292b1de86834b12fcdc5d8fc52cca04b266ebc75a61d49888ec43218a7e6029868d8d6111638988612749565b61116d8988612749565b604080516001600160801b0390961686526020860194909452928401919091526060830152608082015260a00160405180910390a25050505050505050505050565b600860205281600052604060002081815481106111cb57600080fd5b90600052602060002001600091509150505481565b80804211156112015760405162461bcd60e51b8152600401610917906127bb565b6000838152600760205260409020546001600160a01b031633146112595760405162461bcd60e51b815260206004820152600f60248201526e37bbb732b9103337b93134b23232b760891b6044820152606401610917565b600061128a62ffffff7f00000000000000000000000000000000000000000000000000000000000000001642612727565b6000858152600760205260409020600301549091508110156112dc5760405162461bcd60e51b815260206004820152600b60248201526a6c6f636b65642074696d6560a81b6044820152606401610917565b336000908152600860205260408120905b81548110156114295781818154811061130857611308612775565b90600052602060002001548603611417578154829061132990600190612749565b8154811061133957611339612775565b906000526020600020015482828154811061135657611356612775565b9060005260206000200181905550818054806113745761137461282d565b600082815260208120820160001990810191909155019055604051632142170760e11b8152306004820152336024820152604481018790526001600160a01b037f000000000000000000000000000000000000000000000000000000000000000016906342842e0e90606401600060405180830381600087803b1580156113fa57600080fd5b505af115801561140e573d6000803e3d6000fd5b50505050611429565b80611421816127a2565b9150506112ed565b5060405185815233907f884edad9ce6fa2440d8a54cc123490eb96d2768479d49ff9c7366125a9424364906020015b60405180910390a25050505050565b6000546001600160a01b031633146114915760405162461bcd60e51b8152600401610917906127e2565b600180546001600160a01b0319166001600160a01b0392909216919091179055565b6001546001600160a01b031633146114dd5760405162461bcd60e51b8152600401610917906127e2565b60018054600080546001600160a01b03199081166001600160a01b03841617909155169055565b80804211156115255760405162461bcd60e51b8152600401610917906127bb565b600060ff7f00000000000000000000000000000000000000000000000000000000000000001661157a62ffffff7f00000000000000000000000000000000000000000000000000000000000000001642612727565b6115849190612749565b3360009081526003602052604081205491925090805b3360009081526003602052604090206001015481101561163d5783811161163d576115c6816001612762565b6000828152600460205260409020549092501561162b57600081815260046020908152604080832054338452600283528184208585528352818420546005909352922054611614919061278b565b61161e9190612727565b6116289084612762565b92505b80611635816127a2565b91505061159a565b503360009081526003602052604081208291015561167c7f000000000000000000000000000000000000000000000000000000000000000033846120e4565b60405182815233907fba8de60c3403ec381d1d484652ea1980e3c3e56359195c92525bff4ce47ad98e90602001611458565b600360205281600052604060002081600281106116ca57600080fd5b01549150829050565b80804211156116f45760405162461bcd60e51b8152600401610917906127bb565b6000546001600160a01b0316331461171e5760405162461bcd60e51b8152600401610917906127e2565b600084815260056020526040902083905560065484111561173f5760068490555b604080518581526020810185905233917fc3991418cacd70a010fce559a44fcbb47534ca43bf7543964bdca2639f6e6e5a910160405180910390a250505050565b60006117ad60017f00000000000000000000000000000000000000000000000000000000000000006129b9565b60ff1660017f000000000000000000000000000000000000000000000000000000000000000060ff166001856117e391906129b9565b60ff1661181160017f0000000000000000000000000000000000000000000000000000000000000000612749565b61181b919061278b565b6118259190612762565b61182f9190612749565b611839908561278b565b6118439190612727565b9392505050565b808042111561186b5760405162461bcd60e51b8152600401610917906127bb565b60008360ff161180156118a457507f000000000000000000000000000000000000000000000000000000000000000060ff168360ff1611155b6118d95760405162461bcd60e51b8152602060048201526006602482015265359018bf1a9960d11b6044820152606401610917565b7f0000000000000000000000000000000000000000000000000000000000000000421115801561192957507f00000000000000000000000000000000000000000000000000000000000000004210155b6119695760405162461bcd60e51b81526020600482015260116024820152701b9bdd081a5b881d1a19481c195c9a5bd9607a1b6044820152606401610917565b600061199a62ffffff7f00000000000000000000000000000000000000000000000000000000000000001642612727565b6119a5906001612762565b905060006119b2866121f1565b905060006119c08287611780565b905060005b8660ff168160ff161015611a5a5781600460006119e560ff851688612762565b81526020019081526020016000206000828254611a029190612762565b90915550503360009081526002602052604081208391611a2560ff851688612762565b81526020019081526020016000206000828254611a429190612762565b90915550819050611a52816129d2565b9150506119c5565b506000611a6a60ff881685612762565b90506040518060800160405280336001600160a01b0316815260200183815260200185815260200182815250600760008a815260200190815260200160002060008201518160000160006101000a8154816001600160a01b0302191690836001600160a01b0316021790555060208201518160010155604082015181600201556060820151816003015590505060036000336001600160a01b03166001600160a01b03168152602001908152602001600020600160028110611b2e57611b2e612775565b01543360009081526003602052604090205403611b58573360009081526003602052604090208490555b3360009081526003602052604090208190600101541015611b89573360009081526003602052604090208190600101555b3360008181526008602090815260408083208054600181018255908452928290209092018b905581518b815290810186905260ff8a168183015290517f6fa2f6021ee337436cdf2b2570285886da18bc06402ce284d296504a0fe8f8759181900360600190a25050505050505050565b60008060ff7f000000000000000000000000000000000000000000000000000000000000000016611c4f62ffffff7f00000000000000000000000000000000000000000000000000000000000000001642612727565b611c599190612749565b6001600160a01b038416600090815260036020526040812054919250905b6001600160a01b038516600090815260036020526040902060010154811015611d1e57828111611d1e5760008181526004602052604090205415611d0c576000818152600460209081526040808320546001600160a01b0389168452600283528184208585528352818420546005909352922054611cf5919061278b565b611cff9190612727565b611d099083612762565b91505b80611d16816127a2565b915050611c77565b509392505050565b3360009081526008602052604081205460609190819067ffffffffffffffff811115611d5457611d546123ed565b604051908082528060200260200182016040528015611d7d578160200160208202803683370190505b5090506000611db162ffffff7f00000000000000000000000000000000000000000000000000000000000000001642612727565b3360009081526008602052604081205491925090815b33600090815260086020526040902054811015611e9a57336000908152600860205260408120805483908110611dff57611dff612775565b906000526020600020015490508460076000838152602001908152602001600020600301541115611e5a5780868581518110611e3d57611e3d612775565b602090810291909101015283611e52816127a2565b945050611e87565b82611e64816129f1565b93505080868481518110611e7a57611e7a612775565b6020026020010181815250505b5080611e92816127a2565b915050611dc7565b5092959294509192505050565b60008060008060008060007f00000000000000000000000000000000000000000000000000000000000000006001600160a01b03166399fbab88896040518263ffffffff1660e01b8152600401611f0091815260200190565b61018060405180830381865afa158015611f1e573d6000803e3d6000fd5b505050506040513d601f19601f82011682018060405250810190611f42919061287f565b5050505097509750975097509750975050507f00000000000000000000000000000000000000000000000000000000000000006001600160a01b0316866001600160a01b0316148015611fc657507f00000000000000000000000000000000000000000000000000000000000000006001600160a01b0316856001600160a01b0316145b8015611ffb57508362ffffff167f000000000000000000000000000000000000000000000000000000000000000062ffffff16145b6120375760405162461bcd60e51b815260206004820152600d60248201526c3638103830b4b91032b93937b960991b6044820152606401610917565b7f000000000000000000000000000000000000000000000000000000000000000060020b8360020b14801561209157507f000000000000000000000000000000000000000000000000000000000000000060020b8260020b145b6120d05760405162461bcd60e51b815260206004820152601060248201526f3a34b1b5903930b733b29032b93937b960811b6044820152606401610917565b6001600160801b0316979650505050505050565b604080516001600160a01b038481166024830152604480830185905283518084039091018152606490920183526020820180516001600160e01b031663a9059cbb60e01b17905291516000928392908716916121409190612a08565b6000604051808303816000865af19150503d806000811461217d576040519150601f19603f3d011682016040523d82523d6000602084013e612182565b606091505b50915091508180156121ac5750805115806121ac5750808060200190518101906121ac9190612a37565b6121ea5760405162461bcd60e51b815260206004820152600f60248201526e1514905394d1915497d19052531151608a1b6044820152606401610917565b5050505050565b6000806121fd83611ea7565b60405163020604bf60e21b81526004810185905290915030906001600160a01b037f0000000000000000000000000000000000000000000000000000000000000000169063081812fc90602401602060405180830381865afa158015612267573d6000803e3d6000fd5b505050506040513d601f19601f8201168201806040525081019061228b9190612810565b6001600160a01b0316146122cf5760405162461bcd60e51b815260206004820152600b60248201526a6e6f7420617070726f766560a81b6044820152606401610917565b604051632142170760e11b8152336004820152306024820152604481018490527f00000000000000000000000000000000000000000000000000000000000000006001600160a01b0316906342842e0e90606401600060405180830381600087803b15801561233d57600080fd5b505af1158015612351573d6000803e3d6000fd5b509295945050505050565b6001600160a01b038116811461237157600080fd5b50565b60006020828403121561238657600080fd5b81356118438161235c565b600081518084526020808501945080840160005b838110156123c1578151875295820195908201906001016123a5565b509495945050505050565b8281526040602082015260006123e56040830184612391565b949350505050565b634e487b7160e01b600052604160045260246000fd5b604051601f8201601f1916810167ffffffffffffffff8111828210171561242c5761242c6123ed565b604052919050565b600082601f83011261244557600080fd5b8135602067ffffffffffffffff821115612461576124616123ed565b8160051b612470828201612403565b928352848101820192828101908785111561248a57600080fd5b83870192505b848310156124a957823582529183019190830190612490565b979650505050505050565b6000806000606084860312156124c957600080fd5b833567ffffffffffffffff808211156124e157600080fd5b6124ed87838801612434565b9450602086013591508082111561250357600080fd5b5061251086828701612434565b925050604084013590509250925092565b60006020828403121561253357600080fd5b5035919050565b6000806000806080858703121561255057600080fd5b843561255b8161235c565b935060208581013561256c8161235c565b935060408601359250606086013567ffffffffffffffff8082111561259057600080fd5b818801915088601f8301126125a457600080fd5b8135818111156125b6576125b66123ed565b6125c8601f8201601f19168501612403565b915080825289848285010111156125de57600080fd5b808484018584013760008482840101525080935050505092959194509250565b60008060006060848603121561261357600080fd5b505081359360208301359350604090920135919050565b6000806040838503121561263d57600080fd5b82356126488161235c565b946020939093013593505050565b6000806040838503121561266957600080fd5b50508035926020909101359150565b803560ff8116811461268957600080fd5b919050565b600080604083850312156126a157600080fd5b823591506126b160208401612678565b90509250929050565b6000806000606084860312156126cf57600080fd5b833592506126df60208501612678565b9150604084013590509250925092565b6040815260006127026040830185612391565b90508260208301529392505050565b634e487b7160e01b600052601160045260246000fd5b60008261274457634e487b7160e01b600052601260045260246000fd5b500490565b8181038181111561275c5761275c612711565b92915050565b8082018082111561275c5761275c612711565b634e487b7160e01b600052603260045260246000fd5b808202811582820484141761275c5761275c612711565b6000600182016127b4576127b4612711565b5060010190565b6020808252600d908201526c6f76657220646561646c696e6560981b604082015260600190565b6020808252600990820152683337b93134b23232b760b91b604082015260600190565b80516126898161235c565b60006020828403121561282257600080fd5b81516118438161235c565b634e487b7160e01b600052603160045260246000fd5b805162ffffff8116811461268957600080fd5b8051600281900b811461268957600080fd5b80516001600160801b038116811461268957600080fd5b6000806000806000806000806000806000806101808d8f0312156128a257600080fd5b8c516bffffffffffffffffffffffff811681146128be57600080fd5b9b506128cc60208e01612805565b9a506128da60408e01612805565b99506128e860608e01612805565b98506128f660808e01612843565b975061290460a08e01612856565b965061291260c08e01612856565b955061292060e08e01612868565b94506101008d015193506101208d0151925061293f6101408e01612868565b915061294e6101608e01612868565b90509295989b509295989b509295989b565b6000806040838503121561297357600080fd5b505080516020909101519092909150565b60008060006060848603121561299957600080fd5b6129a284612868565b925060208401519150604084015190509250925092565b60ff828116828216039081111561275c5761275c612711565b600060ff821660ff81036129e8576129e8612711565b60010192915050565b600081612a0057612a00612711565b506000190190565b6000825160005b81811015612a295760208186018101518583015201612a0f565b506000920191825250919050565b600060208284031215612a4957600080fd5b8151801515811461184357600080fdfea2646970667358221220cca08ac56c2d427be349ca6093ad663ac63d04397386fef1196dc37f0d2fdbf564736f6c63430008110033",
  "linkReferences": {},
  "deployedLinkReferences": {}
}