{
  "_format": "hh-sol-artifact-1",
  "contractName": "StakeNFT721",
  "sourceName": "contracts/stakeNFT721.sol",
  "abi": [
    {
      "inputs": [
        {
          "internalType": "uint8",
          "name": "maxWeeks",
          "type": "uint8"
        },
        {
          "internalType": "uint256",
          "name": "maxScale",
          "type": "uint256"
        },
        {
          "internalType": "uint8",
          "name": "lockWeeks",
          "type": "uint8"
        },
        {
          "internalType": "uint256",
          "name": "beginTime",
          "type": "uint256"
        },
        {
          "internalType": "uint256",
          "name": "endTime",
          "type": "uint256"
        },
        {
          "internalType": "address",
          "name": "_rewardToken",
          "type": "address"
        },
        {
          "internalType": "address",
          "name": "tokenA",
          "type": "address"
        },
        {
          "internalType": "address",
          "name": "tokenB",
          "type": "address"
        },
        {
          "internalType": "uint24",
          "name": "_fee",
          "type": "uint24"
        },
        {
          "internalType": "address",
          "name": "nft",
          "type": "address"
        },
        {
          "internalType": "int24",
          "name": "tickMax",
          "type": "int24"
        }
      ],
      "stateMutability": "nonpayable",
      "type": "constructor"
    },
    {
      "anonymous": false,
      "inputs": [
        {
          "indexed": true,
          "internalType": "address",
          "name": "user",
          "type": "address"
        },
        {
          "indexed": false,
          "internalType": "uint256",
          "name": "amount",
          "type": "uint256"
        }
      ],
      "name": "ClaimReward",
      "type": "event"
    },
    {
      "anonymous": false,
      "inputs": [
        {
          "indexed": true,
          "internalType": "address",
          "name": "user",
          "type": "address"
        },
        {
          "indexed": false,
          "internalType": "uint256",
          "name": "no",
          "type": "uint256"
        },
        {
          "indexed": false,
          "internalType": "uint256",
          "name": "amount",
          "type": "uint256"
        }
      ],
      "name": "SetReward",
      "type": "event"
    },
    {
      "anonymous": false,
      "inputs": [
        {
          "indexed": true,
          "internalType": "address",
          "name": "user",
          "type": "address"
        },
        {
          "indexed": false,
          "internalType": "uint256",
          "name": "tokenId",
          "type": "uint256"
        },
        {
          "indexed": false,
          "internalType": "uint256",
          "name": "amount",
          "type": "uint256"
        },
        {
          "indexed": false,
          "internalType": "uint8",
          "name": "k",
          "type": "uint8"
        }
      ],
      "name": "Stake",
      "type": "event"
    },
    {
      "anonymous": false,
      "inputs": [
        {
          "indexed": true,
          "internalType": "address",
          "name": "user",
          "type": "address"
        },
        {
          "indexed": false,
          "internalType": "uint256",
          "name": "tokenId",
          "type": "uint256"
        }
      ],
      "name": "Withdraw",
      "type": "event"
    },
    {
      "anonymous": false,
      "inputs": [
        {
          "indexed": true,
          "internalType": "address",
          "name": "user",
          "type": "address"
        },
        {
          "indexed": false,
          "internalType": "uint128",
          "name": "liquidity",
          "type": "uint128"
        },
        {
          "indexed": false,
          "internalType": "uint256",
          "name": "tokenId",
          "type": "uint256"
        },
        {
          "indexed": false,
          "internalType": "uint256",
          "name": "mergeId",
          "type": "uint256"
        },
        {
          "indexed": false,
          "internalType": "uint256",
          "name": "token0Fee",
          "type": "uint256"
        },
        {
          "indexed": false,
          "internalType": "uint256",
          "name": "token1Fee",
          "type": "uint256"
        }
      ],
      "name": "WithdrawAndMerge",
      "type": "event"
    },
    {
      "inputs": [],
      "name": "BEGIN_TIME",
      "outputs": [
        {
          "internalType": "uint256",
          "name": "",
          "type": "uint256"
        }
      ],
      "stateMutability": "view",
      "type": "function"
    },
    {
      "inputs": [],
      "name": "END_TIME",
      "outputs": [
        {
          "internalType": "uint256",
          "name": "",
          "type": "uint256"
        }
      ],
      "stateMutability": "view",
      "type": "function"
    },
    {
      "inputs": [],
      "name": "LOCK_WEEKNUM",
      "outputs": [
        {
          "internalType": "uint8",
          "name": "",
          "type": "uint8"
        }
      ],
      "stateMutability": "view",
      "type": "function"
    },
    {
      "inputs": [],
      "name": "MAX_SCALE",
      "outputs": [
        {
          "internalType": "uint256",
          "name": "",
          "type": "uint256"
        }
      ],
      "stateMutability": "view",
      "type": "function"
    },
    {
      "inputs": [],
      "name": "MAX_TICK",
      "outputs": [
        {
          "internalType": "int24",
          "name": "",
          "type": "int24"
        }
      ],
      "stateMutability": "view",
      "type": "function"
    },
    {
      "inputs": [],
      "name": "MAX_WEEKS",
      "outputs": [
        {
          "internalType": "uint8",
          "name": "",
          "type": "uint8"
        }
      ],
      "stateMutability": "view",
      "type": "function"
    },
    {
      "inputs": [],
      "name": "MIN_TICK",
      "outputs": [
        {
          "internalType": "int24",
          "name": "",
          "type": "int24"
        }
      ],
      "stateMutability": "view",
      "type": "function"
    },
    {
      "inputs": [],
      "name": "WEEK_SECONDS",
      "outputs": [
        {
          "internalType": "uint24",
          "name": "",
          "type": "uint24"
        }
      ],
      "stateMutability": "view",
      "type": "function"
    },
    {
      "inputs": [],
      "name": "acceptSetter",
      "outputs": [],
      "stateMutability": "nonpayable",
      "type": "function"
    },
    {
      "inputs": [],
      "name": "canClaimAmount",
      "outputs": [
        {
          "internalType": "uint256",
          "name": "",
          "type": "uint256"
        }
      ],
      "stateMutability": "view",
      "type": "function"
    },
    {
      "inputs": [
        {
          "internalType": "uint256",
          "name": "deadline",
          "type": "uint256"
        }
      ],
      "name": "claimReward",
      "outputs": [],
      "stateMutability": "nonpayable",
      "type": "function"
    },
    {
      "inputs": [],
      "name": "fee",
      "outputs": [
        {
          "internalType": "uint24",
          "name": "",
          "type": "uint24"
        }
      ],
      "stateMutability": "view",
      "type": "function"
    },
    {
      "inputs": [
        {
          "internalType": "uint256",
          "name": "amount",
          "type": "uint256"
        },
        {
          "internalType": "uint8",
          "name": "k",
          "type": "uint8"
        }
      ],
      "name": "getScore",
      "outputs": [
        {
          "internalType": "uint256",
          "name": "score",
          "type": "uint256"
        }
      ],
      "stateMutability": "view",
      "type": "function"
    },
    {
      "inputs": [],
      "name": "getUserNFTs",
      "outputs": [
        {
          "internalType": "uint256[]",
          "name": "",
          "type": "uint256[]"
        },
        {
          "internalType": "uint256",
          "name": "",
          "type": "uint256"
        }
      ],
      "stateMutability": "view",
      "type": "function"
    },
    {
      "inputs": [],
      "name": "latestNo",
      "outputs": [
        {
          "internalType": "uint256",
          "name": "",
          "type": "uint256"
        }
      ],
      "stateMutability": "view",
      "type": "function"
    },
    {
      "inputs": [],
      "name": "lockedRewardAmount",
      "outputs": [
        {
          "internalType": "uint256",
          "name": "",
          "type": "uint256"
        },
        {
          "internalType": "uint256[]",
          "name": "",
          "type": "uint256[]"
        }
      ],
      "stateMutability": "view",
      "type": "function"
    },
    {
      "inputs": [],
      "name": "nftToken",
      "outputs": [
        {
          "internalType": "contract IIotabeeSwapNFT",
          "name": "",
          "type": "address"
        }
      ],
      "stateMutability": "view",
      "type": "function"
    },
    {
      "inputs": [
        {
          "internalType": "address",
          "name": "",
          "type": "address"
        },
        {
          "internalType": "address",
          "name": "",
          "type": "address"
        },
        {
          "internalType": "uint256",
          "name": "",
          "type": "uint256"
        },
        {
          "internalType": "bytes",
          "name": "",
          "type": "bytes"
        }
      ],
      "name": "onERC721Received",
      "outputs": [
        {
          "internalType": "bytes4",
          "name": "",
          "type": "bytes4"
        }
      ],
      "stateMutability": "pure",
      "type": "function"
    },
    {
      "inputs": [],
      "name": "owner",
      "outputs": [
        {
          "internalType": "address",
          "name": "",
          "type": "address"
        }
      ],
      "stateMutability": "view",
      "type": "function"
    },
    {
      "inputs": [],
      "name": "rewardToken",
      "outputs": [
        {
          "internalType": "address",
          "name": "",
          "type": "address"
        }
      ],
      "stateMutability": "view",
      "type": "function"
    },
    {
      "inputs": [
        {
          "internalType": "uint256",
          "name": "",
          "type": "uint256"
        }
      ],
      "name": "rewardsOf",
      "outputs": [
        {
          "internalType": "uint256",
          "name": "",
          "type": "uint256"
        }
      ],
      "stateMutability": "view",
      "type": "function"
    },
    {
      "inputs": [
        {
          "internalType": "uint256",
          "name": "no",
          "type": "uint256"
        },
        {
          "internalType": "uint256",
          "name": "amount",
          "type": "uint256"
        },
        {
          "internalType": "uint256",
          "name": "deadline",
          "type": "uint256"
        }
      ],
      "name": "setReward",
      "outputs": [],
      "stateMutability": "nonpayable",
      "type": "function"
    },
    {
      "inputs": [
        {
          "internalType": "uint256[]",
          "name": "nos",
          "type": "uint256[]"
        },
        {
          "internalType": "uint256[]",
          "name": "amounts",
          "type": "uint256[]"
        },
        {
          "internalType": "uint256",
          "name": "deadline",
          "type": "uint256"
        }
      ],
      "name": "setRewards",
      "outputs": [
        {
          "internalType": "uint256",
          "name": "total",
          "type": "uint256"
        }
      ],
      "stateMutability": "nonpayable",
      "type": "function"
    },
    {
      "inputs": [
        {
          "internalType": "uint256",
          "name": "tokenId",
          "type": "uint256"
        },
        {
          "internalType": "uint8",
          "name": "k",
          "type": "uint8"
        },
        {
          "internalType": "uint256",
          "name": "deadline",
          "type": "uint256"
        }
      ],
      "name": "stake",
      "outputs": [],
      "stateMutability": "nonpayable",
      "type": "function"
    },
    {
      "inputs": [
        {
          "internalType": "uint256",
          "name": "",
          "type": "uint256"
        }
      ],
      "name": "stakingNFTs",
      "outputs": [
        {
          "internalType": "address",
          "name": "owner",
          "type": "address"
        },
        {
          "internalType": "uint256",
          "name": "score",
          "type": "uint256"
        },
        {
          "internalType": "uint256",
          "name": "beginNo",
          "type": "uint256"
        },
        {
          "internalType": "uint256",
          "name": "endNo",
          "type": "uint256"
        }
      ],
      "stateMutability": "view",
      "type": "function"
    },
    {
      "inputs": [],
      "name": "token0",
      "outputs": [
        {
          "internalType": "address",
          "name": "",
          "type": "address"
        }
      ],
      "stateMutability": "view",
      "type": "function"
    },
    {
      "inputs": [],
      "name": "token1",
      "outputs": [
        {
          "internalType": "address",
          "name": "",
          "type": "address"
        }
      ],
      "stateMutability": "view",
      "type": "function"
    },
    {
      "inputs": [
        {
          "internalType": "uint256",
          "name": "",
          "type": "uint256"
        }
      ],
      "name": "totalScores",
      "outputs": [
        {
          "internalType": "uint256",
          "name": "",
          "type": "uint256"
        }
      ],
      "stateMutability": "view",
      "type": "function"
    },
    {
      "inputs": [
        {
          "internalType": "address",
          "name": "_owner",
          "type": "address"
        }
      ],
      "name": "transferOwner",
      "outputs": [],
      "stateMutability": "nonpayable",
      "type": "function"
    },
    {
      "inputs": [
        {
          "internalType": "address",
          "name": "",
          "type": "address"
        },
        {
          "internalType": "uint256",
          "name": "",
          "type": "uint256"
        }
      ],
      "name": "userCanClaimWeeks",
      "outputs": [
        {
          "internalType": "uint256",
          "name": "",
          "type": "uint256"
        }
      ],
      "stateMutability": "view",
      "type": "function"
    },
    {
      "inputs": [
        {
          "internalType": "address",
          "name": "",
          "type": "address"
        },
        {
          "internalType": "uint256",
          "name": "",
          "type": "uint256"
        }
      ],
      "name": "userNFTs",
      "outputs": [
        {
          "internalType": "uint256",
          "name": "",
          "type": "uint256"
        }
      ],
      "stateMutability": "view",
      "type": "function"
    },
    {
      "inputs": [
        {
          "internalType": "address",
          "name": "",
          "type": "address"
        },
        {
          "internalType": "uint256",
          "name": "",
          "type": "uint256"
        }
      ],
      "name": "userScores",
      "outputs": [
        {
          "internalType": "uint256",
          "name": "",
          "type": "uint256"
        }
      ],
      "stateMutability": "view",
      "type": "function"
    },
    {
      "inputs": [
        {
          "internalType": "uint256",
          "name": "tokenId",
          "type": "uint256"
        },
        {
          "internalType": "uint256",
          "name": "deadline",
          "type": "uint256"
        }
      ],
      "name": "withdraw",
      "outputs": [],
      "stateMutability": "nonpayable",
      "type": "function"
    },
    {
      "inputs": [
        {
          "internalType": "uint256",
          "name": "tokenId",
          "type": "uint256"
        },
        {
          "internalType": "uint256",
          "name": "mergeTokenId",
          "type": "uint256"
        },
        {
          "internalType": "uint256",
          "name": "deadline",
          "type": "uint256"
        }
      ],
      "name": "withdrawAndMerge",
      "outputs": [],
      "stateMutability": "nonpayable",
      "type": "function"
    },
    {
      "inputs": [
        {
          "internalType": "uint256",
          "name": "amount",
          "type": "uint256"
        },
        {
          "internalType": "uint256",
          "name": "deadline",
          "type": "uint256"
        }
      ],
      "name": "withdrawRewards",
      "outputs": [],
      "stateMutability": "nonpayable",
      "type": "function"
    }
  ],
  "bytecode": "0x6102006040523480156200001257600080fd5b50604051620030da380380620030da833981016040819052620000359162000205565b6001600160a01b0380871660805260ff808d1660a05260c08c90528a1660e052610100899052610120889052600080546001600160a01b0319163317905584811690861610620000875783856200008a565b84845b6001600160a01b039081166101c0529081166101a05262ffffff84166101e052821661018052600281900b61016052620000c481620002df565b60020b610140526101a05160405163095ea7b360e01b81526001600160a01b03848116600483015260001960248301529091169063095ea7b3906044016020604051808303816000875af115801562000121573d6000803e3d6000fd5b505050506040513d601f19601f8201168201806040525081019062000147919062000310565b506101c05160405163095ea7b360e01b81526001600160a01b03848116600483015260001960248301529091169063095ea7b3906044016020604051808303816000875af11580156200019e573d6000803e3d6000fd5b505050506040513d601f19601f82011682018060405250810190620001c4919062000310565b5050505050505050505050506200033b565b805160ff81168114620001e857600080fd5b919050565b80516001600160a01b0381168114620001e857600080fd5b60008060008060008060008060008060006101608c8e0312156200022857600080fd5b620002338c620001d6565b9a5060208c015199506200024a60408d01620001d6565b985060608c0151975060808c015196506200026860a08d01620001ed565b95506200027860c08d01620001ed565b94506200028860e08d01620001ed565b93506101008c015162ffffff81168114620002a257600080fd5b9250620002b36101208d01620001ed565b91506101408c01518060020b8114620002cb57600080fd5b809150509295989b509295989b9093969950565b60008160020b627fffff1981036200030757634e487b7160e01b600052601160045260246000fd5b60000392915050565b6000602082840312156200032357600080fd5b815180151581146200033457600080fd5b9392505050565b60805160a05160c05160e05161010051610120516101405161016051610180516101a0516101c0516101e051612c26620004b4600039600081816105a8015261216c01526000818161058101528181610f16015261212901526000818161029a01528181610ee001526120ed01526000818161055a0152818161097101528181610afd01528181610b8301528181610ced01528181610d5f01528181610e77015281816111a00152818161204b015281816123b7015261248801526000818161045d01526122000152600081816104c801526121d00152600081816103ca015281816118400152611ac90152600081816105150152818161186b0152611af4015260008181610261015281816113700152818161146101528181611609015261166d01526000818161061c01526119db0152600081816105cf01528181611977015281816119a20152611a6901526000818161064301528181610801015281816112ed0152818161177601526118d30152612c266000f3fe608060405234801561001057600080fd5b50600436106102115760003560e01c80638431165e11610125578063d21220a7116100ad578063ee3453ed1161007c578063ee3453ed14610604578063f6def7cf14610617578063f7c618c11461063e578063f99b7d7514610665578063fdc5ab8e1461067857600080fd5b8063d21220a71461057c578063ddca3f43146105a3578063e11400bb146105ca578063e1c05d93146105f157600080fd5b8063ae169a50116100f4578063ae169a50146104ea578063bb57852d146104fd578063c75363b614610510578063cd671a5814610537578063d06fcba81461055557600080fd5b80638431165e146104925780638923de2b1461049a5780638da5cb5b146104b0578063a1634b14146104c357600080fd5b8063291c73c3116101a85780634fb2e45d116101775780634fb2e45d146103ff57806352cb5133146104125780635b680a45146104255780635f8e422f146104505780636882a8881461045857600080fd5b8063291c73c3146103a957806329ed1cfd146103bc57806337ba682d146103c5578063441a3e70146103ec57600080fd5b806310c6c1c2116101e457806310c6c1c2146102d4578063150b7a021461033d578063157775df146103745780631a906d651461039457600080fd5b806307c6e2fa146102165780630bce12841461023c5780630d437d401461025c5780630dfe168114610295575b600080fd5b6102296102243660046125ba565b61068e565b6040519081526020015b60405180910390f35b61022961024a366004612627565b60056020526000908152604090205481565b6102837f000000000000000000000000000000000000000000000000000000000000000081565b60405160ff9091168152602001610233565b6102bc7f000000000000000000000000000000000000000000000000000000000000000081565b6040516001600160a01b039091168152602001610233565b6103136102e2366004612627565b60076020526000908152604090208054600182015460028301546003909301546001600160a01b0390921692909184565b604080516001600160a01b0390951685526020850193909352918301526060820152608001610233565b61035b61034b366004612658565b630a85bd0160e11b949350505050565b6040516001600160e01b03199091168152602001610233565b610229610382366004612627565b60046020526000908152604090205481565b6103a76103a236600461271c565b61086d565b005b6102296103b7366004612748565b610fbb565b61022960065481565b6102297f000000000000000000000000000000000000000000000000000000000000000081565b6103a76103fa366004612774565b610fec565b6103a761040d366004612796565b611251565b6103a7610420366004612774565b61129d565b610229610433366004612748565b600260209081526000928352604080842090915290825290205481565b6103a7611318565b61047f7f000000000000000000000000000000000000000000000000000000000000000081565b60405160029190910b8152602001610233565b610229611369565b6104a2611458565b6040516102339291906127ee565b6000546102bc906001600160a01b031681565b61047f7f000000000000000000000000000000000000000000000000000000000000000081565b6103a76104f8366004612627565b611646565b61022961050b366004612748565b6117ce565b6102297f000000000000000000000000000000000000000000000000000000000000000081565b61054162093a8081565b60405162ffffff9091168152602001610233565b6102bc7f000000000000000000000000000000000000000000000000000000000000000081565b6102bc7f000000000000000000000000000000000000000000000000000000000000000081565b6105417f000000000000000000000000000000000000000000000000000000000000000081565b6102837f000000000000000000000000000000000000000000000000000000000000000081565b6103a76105ff36600461271c565b6117f3565b610229610612366004612825565b61196e565b6102297f000000000000000000000000000000000000000000000000000000000000000081565b6102bc7f000000000000000000000000000000000000000000000000000000000000000081565b6103a7610673366004612851565b611a38565b610680611dc5565b604051610233929190612886565b600081804211156106ba5760405162461bcd60e51b81526004016106b1906128a8565b60405180910390fd5b6000546001600160a01b031633146106e45760405162461bcd60e51b81526004016106b1906128cf565b83518551146107285760405162461bcd60e51b815260206004820152601060248201526f3830b930b6b2ba32b9399032b93937b960811b60448201526064016106b1565b6000805b86518110156107f657858181518110610747576107476128f2565b60200260200101518461075a919061291e565b935085818151811061076e5761076e6128f2565b60200260200101516005600089848151811061078c5761078c6128f2565b6020026020010151815260200190815260200160002081905550818782815181106107b9576107b96128f2565b602002602001015111156107e4578681815181106107d9576107d96128f2565b602002602001015191505b806107ee81612937565b91505061072c565b5060068190556108287f0000000000000000000000000000000000000000000000000000000000000000333086611f24565b60408051600081526020810185905233917fc3991418cacd70a010fce559a44fcbb47534ca43bf7543964bdca2639f6e6e5a910160405180910390a250509392505050565b808042111561088e5760405162461bcd60e51b81526004016106b1906128a8565b6000848152600760205260409020546001600160a01b031633146108e65760405162461bcd60e51b815260206004820152600f60248201526e37bbb732b9103337b93134b23232b760891b60448201526064016106b1565b60006108f562093a8042612950565b6000868152600760205260409020600301549091508110156109475760405162461bcd60e51b815260206004820152600b60248201526a6c6f636b65642074696d6560a81b60448201526064016106b1565b6109508461203e565b506040516331a9108f60e11b81526004810185905233906001600160a01b037f00000000000000000000000000000000000000000000000000000000000000001690636352211e90602401602060405180830381865afa1580156109b8573d6000803e3d6000fd5b505050506040513d601f19601f820116820180604052508101906109dc919061297d565b6001600160a01b031614610a1e5760405162461bcd60e51b8152602060048201526009602482015268369037bbb732b9103360b91b60448201526064016106b1565b336000908152600860205260408120905b8154811015610ae357818181548110610a4a57610a4a6128f2565b90600052602060002001548703610ad15781548290610a6b9060019061299a565b81548110610a7b57610a7b6128f2565b9060005260206000200154828281548110610a9857610a986128f2565b906000526020600020018190555081805480610ab657610ab66129ad565b60019003818190600052602060002001600090559055610ae3565b80610adb81612937565b915050610a2f565b5060405163133f757160e31b8152600481018790526000907f00000000000000000000000000000000000000000000000000000000000000006001600160a01b0316906399fbab889060240161018060405180830381865afa158015610b4d573d6000803e3d6000fd5b505050506040513d601f19601f82011682018060405250810190610b7191906129ff565b505050509750505050505050506000807f00000000000000000000000000000000000000000000000000000000000000006001600160a01b0316630c49ccbe6040518060a001604052808c8152602001866001600160801b0316815260200160008152602001600081526020018a8152506040518263ffffffff1660e01b8152600401610c3c9190600060a082019050825182526001600160801b03602084015116602083015260408301516040830152606083015160608301526080830151608083015292915050565b60408051808303816000875af1158015610c5a573d6000803e3d6000fd5b505050506040513d601f19601f82011682018060405250810190610c7e9190612ae0565b604080516080810182528c815230602082019081526001600160801b0382840181815260608401828152945163fc6f786560e01b81529351600485015291516001600160a01b0390811660248501529151811660448401529251909216606482015292945090925060009182917f0000000000000000000000000000000000000000000000000000000000000000169063fc6f78659060840160408051808303816000875af1158015610d35573d6000803e3d6000fd5b505050506040513d601f19601f82011682018060405250810190610d599190612ae0565b915091507f00000000000000000000000000000000000000000000000000000000000000006001600160a01b031663219f5d176040518060c001604052808d815260200187815260200186815260200160008152602001600081526020018c8152506040518263ffffffff1660e01b8152600401610e169190600060c082019050825182526020830151602083015260408301516040830152606083015160608301526080830151608083015260a083015160a083015292915050565b6060604051808303816000875af1158015610e35573d6000803e3d6000fd5b505050506040513d601f19601f82011682018060405250810190610e599190612b04565b604051630852cd8d60e31b8152600481018f905292975090955093507f00000000000000000000000000000000000000000000000000000000000000006001600160a01b0316906342966c6890602401600060405180830381600087803b158015610ec357600080fd5b505af1158015610ed7573d6000803e3d6000fd5b50505050610f117f0000000000000000000000000000000000000000000000000000000000000000338685610f0c919061299a565b61227b565b610f407f000000000000000000000000000000000000000000000000000000000000000033610f0c868561299a565b337f9292b1de86834b12fcdc5d8fc52cca04b266ebc75a61d49888ec43218a7e6029868d8d610f6f898861299a565b610f79898861299a565b604080516001600160801b0390961686526020860194909452928401919091526060830152608082015260a00160405180910390a25050505050505050505050565b60086020528160005260406000208181548110610fd757600080fd5b90600052602060002001600091509150505481565b808042111561100d5760405162461bcd60e51b81526004016106b1906128a8565b6000838152600760205260409020546001600160a01b031633146110655760405162461bcd60e51b815260206004820152600f60248201526e37bbb732b9103337b93134b23232b760891b60448201526064016106b1565b600061107462093a8042612950565b6000858152600760205260409020600301549091508110156110c65760405162461bcd60e51b815260206004820152600b60248201526a6c6f636b65642074696d6560a81b60448201526064016106b1565b336000908152600860205260408120905b8154811015611213578181815481106110f2576110f26128f2565b9060005260206000200154860361120157815482906111139060019061299a565b81548110611123576111236128f2565b9060005260206000200154828281548110611140576111406128f2565b90600052602060002001819055508180548061115e5761115e6129ad565b600082815260208120820160001990810191909155019055604051632142170760e11b8152306004820152336024820152604481018790526001600160a01b037f000000000000000000000000000000000000000000000000000000000000000016906342842e0e90606401600060405180830381600087803b1580156111e457600080fd5b505af11580156111f8573d6000803e3d6000fd5b50505050611213565b8061120b81612937565b9150506110d7565b5060405185815233907f884edad9ce6fa2440d8a54cc123490eb96d2768479d49ff9c7366125a9424364906020015b60405180910390a25050505050565b6000546001600160a01b0316331461127b5760405162461bcd60e51b81526004016106b1906128cf565b600180546001600160a01b0319166001600160a01b0392909216919091179055565b80804211156112be5760405162461bcd60e51b81526004016106b1906128a8565b6000546001600160a01b031633146112e85760405162461bcd60e51b81526004016106b1906128cf565b6113137f0000000000000000000000000000000000000000000000000000000000000000338561227b565b505050565b6001546001600160a01b031633146113425760405162461bcd60e51b81526004016106b1906128cf565b60018054600080546001600160a01b03199081166001600160a01b03841617909155169055565b60008060ff7f00000000000000000000000000000000000000000000000000000000000000001661139d62093a8042612950565b6113a7919061299a565b33600090815260036020526040812054919250905b3360009081526003602052604090206001015481101561145157828111611451576000818152600460205260409020541561143f576000818152600460209081526040808320543384526002835281842085855283528184205460059093529220546114289190612b39565b6114329190612950565b61143c908361291e565b91505b8061144981612937565b9150506113bc565b5092915050565b600060608160ff7f00000000000000000000000000000000000000000000000000000000000000001661148e62093a8042612950565b611498919061299a565b6114a390600161291e565b336000908152600360205260409020909150819060010154116114d85760408051600081526020810190915290939092509050565b336000908152600360205260408120805460019091015490918383116114fe5783611500565b825b9050600061150e828461299a565b67ffffffffffffffff811115611526576115266124f3565b60405190808252806020026020018201604052801561154f578160200160208202803683370190505b509050815b838110156115f157600081815260046020526040902054156115b6576000818152600460209081526040808320543384526002835281842085855283528184205460059093529220546115a79190612b39565b6115b19190612950565b6115b9565b60005b826115c4858461299a565b815181106115d4576115d46128f2565b6020908102919091010152806115e981612937565b915050611554565b50600061160162093a8042612950565b61162e8460ff7f00000000000000000000000000000000000000000000000000000000000000001661291e565b611638919061299a565b989197509095505050505050565b80804211156116675760405162461bcd60e51b81526004016106b1906128a8565b600060ff7f00000000000000000000000000000000000000000000000000000000000000001661169a62093a8042612950565b6116a4919061299a565b3360009081526003602052604081205491925090805b3360009081526003602052604090206001015481101561175d5783811161175d576116e681600161291e565b6000828152600460205260409020549092501561174b576000818152600460209081526040808320543384526002835281842085855283528184205460059093529220546117349190612b39565b61173e9190612950565b611748908461291e565b92505b8061175581612937565b9150506116ba565b503360009081526003602052604081208291015561179c7f0000000000000000000000000000000000000000000000000000000000000000338461227b565b60405182815233907fba8de60c3403ec381d1d484652ea1980e3c3e56359195c92525bff4ce47ad98e90602001611242565b600360205281600052604060002081600281106117ea57600080fd5b01549150829050565b80804211156118145760405162461bcd60e51b81526004016106b1906128a8565b6000546001600160a01b0316331461183e5760405162461bcd60e51b81526004016106b1906128cf565b7f0000000000000000000000000000000000000000000000000000000000000000421115801561188e57507f00000000000000000000000000000000000000000000000000000000000000004210155b6118ce5760405162461bcd60e51b81526020600482015260116024820152701b9bdd081a5b881d1a19481c195c9a5bd9607a1b60448201526064016106b1565b6118fa7f0000000000000000000000000000000000000000000000000000000000000000333086611f24565b6000848152600560205260408120805485929061191890849061291e565b909155505060065484111561192d5760068490555b604080518581526020810185905233917fc3991418cacd70a010fce559a44fcbb47534ca43bf7543964bdca2639f6e6e5a910160405180910390a250505050565b600061199b60017f0000000000000000000000000000000000000000000000000000000000000000612b50565b60ff1660017f000000000000000000000000000000000000000000000000000000000000000060ff166001856119d19190612b50565b60ff166119ff60017f000000000000000000000000000000000000000000000000000000000000000061299a565b611a099190612b39565b611a13919061291e565b611a1d919061299a565b611a279085612b39565b611a319190612950565b9392505050565b8080421115611a595760405162461bcd60e51b81526004016106b1906128a8565b60008360ff16118015611a9257507f000000000000000000000000000000000000000000000000000000000000000060ff168360ff1611155b611ac75760405162461bcd60e51b8152602060048201526006602482015265359018bf1a9960d11b60448201526064016106b1565b7f00000000000000000000000000000000000000000000000000000000000000004211158015611b1757507f00000000000000000000000000000000000000000000000000000000000000004210155b611b575760405162461bcd60e51b81526020600482015260116024820152701b9bdd081a5b881d1a19481c195c9a5bd9607a1b60448201526064016106b1565b6000611b6662093a8042612950565b611b7190600161291e565b90506000611b7e86612388565b90506000611b8c828761196e565b905060005b8660ff168160ff161015611c26578160046000611bb160ff85168861291e565b81526020019081526020016000206000828254611bce919061291e565b90915550503360009081526002602052604081208391611bf160ff85168861291e565b81526020019081526020016000206000828254611c0e919061291e565b90915550819050611c1e81612b69565b915050611b91565b506000611c3660ff88168561291e565b90506040518060800160405280336001600160a01b0316815260200183815260200185815260200182815250600760008a815260200190815260200160002060008201518160000160006101000a8154816001600160a01b0302191690836001600160a01b0316021790555060208201518160010155604082015181600201556060820151816003015590505060036000336001600160a01b03166001600160a01b03168152602001908152602001600020600160028110611cfa57611cfa6128f2565b01543360009081526003602052604090205403611d24573360009081526003602052604090208490555b3360009081526003602052604090208190600101541015611d55573360009081526003602052604090208190600101555b3360008181526008602090815260408083208054600181018255908452928290209092018b905581518b815290810186905260ff8a168183015290517f6fa2f6021ee337436cdf2b2570285886da18bc06402ce284d296504a0fe8f8759181900360600190a25050505050505050565b3360009081526008602052604081205460609190819067ffffffffffffffff811115611df357611df36124f3565b604051908082528060200260200182016040528015611e1c578160200160208202803683370190505b5090506000611e2e62093a8042612950565b3360009081526008602052604081205491925090815b33600090815260086020526040902054811015611f1757336000908152600860205260408120805483908110611e7c57611e7c6128f2565b906000526020600020015490508460076000838152602001908152602001600020600301541115611ed75780868581518110611eba57611eba6128f2565b602090810291909101015283611ecf81612937565b945050611f04565b82611ee181612b88565b93505080868481518110611ef757611ef76128f2565b6020026020010181815250505b5080611f0f81612937565b915050611e44565b5092959294509192505050565b604080516001600160a01b0385811660248301528481166044830152606480830185905283518084039091018152608490920183526020820180516001600160e01b03166323b872dd60e01b1790529151600092839290881691611f889190612b9f565b6000604051808303816000865af19150503d8060008114611fc5576040519150601f19603f3d011682016040523d82523d6000602084013e611fca565b606091505b5091509150818015611ff4575080511580611ff4575080806020019051810190611ff49190612bce565b6120365760405162461bcd60e51b81526020600482015260136024820152721d1c985b9cd9995c919c9bdb4819985a5b1959606a1b60448201526064016106b1565b505050505050565b60008060008060008060007f00000000000000000000000000000000000000000000000000000000000000006001600160a01b03166399fbab88896040518263ffffffff1660e01b815260040161209791815260200190565b61018060405180830381865afa1580156120b5573d6000803e3d6000fd5b505050506040513d601f19601f820116820180604052508101906120d991906129ff565b5050505097509750975097509750975050507f00000000000000000000000000000000000000000000000000000000000000006001600160a01b0316866001600160a01b031614801561215d57507f00000000000000000000000000000000000000000000000000000000000000006001600160a01b0316856001600160a01b0316145b801561219257508362ffffff167f000000000000000000000000000000000000000000000000000000000000000062ffffff16145b6121ce5760405162461bcd60e51b815260206004820152600d60248201526c3638103830b4b91032b93937b960991b60448201526064016106b1565b7f000000000000000000000000000000000000000000000000000000000000000060020b8360020b14801561222857507f000000000000000000000000000000000000000000000000000000000000000060020b8260020b145b6122675760405162461bcd60e51b815260206004820152601060248201526f3a34b1b5903930b733b29032b93937b960811b60448201526064016106b1565b6001600160801b0316979650505050505050565b604080516001600160a01b038481166024830152604480830185905283518084039091018152606490920183526020820180516001600160e01b031663a9059cbb60e01b17905291516000928392908716916122d79190612b9f565b6000604051808303816000865af19150503d8060008114612314576040519150601f19603f3d011682016040523d82523d6000602084013e612319565b606091505b50915091508180156123435750805115806123435750808060200190518101906123439190612bce565b6123815760405162461bcd60e51b815260206004820152600f60248201526e1514905394d1915497d19052531151608a1b60448201526064016106b1565b5050505050565b6000806123948361203e565b60405163020604bf60e21b81526004810185905290915030906001600160a01b037f0000000000000000000000000000000000000000000000000000000000000000169063081812fc90602401602060405180830381865afa1580156123fe573d6000803e3d6000fd5b505050506040513d601f19601f82011682018060405250810190612422919061297d565b6001600160a01b0316146124665760405162461bcd60e51b815260206004820152600b60248201526a6e6f7420617070726f766560a81b60448201526064016106b1565b604051632142170760e11b8152336004820152306024820152604481018490527f00000000000000000000000000000000000000000000000000000000000000006001600160a01b0316906342842e0e90606401600060405180830381600087803b1580156124d457600080fd5b505af11580156124e8573d6000803e3d6000fd5b509295945050505050565b634e487b7160e01b600052604160045260246000fd5b604051601f8201601f1916810167ffffffffffffffff81118282101715612532576125326124f3565b604052919050565b600082601f83011261254b57600080fd5b8135602067ffffffffffffffff821115612567576125676124f3565b8160051b612576828201612509565b928352848101820192828101908785111561259057600080fd5b83870192505b848310156125af57823582529183019190830190612596565b979650505050505050565b6000806000606084860312156125cf57600080fd5b833567ffffffffffffffff808211156125e757600080fd5b6125f38783880161253a565b9450602086013591508082111561260957600080fd5b506126168682870161253a565b925050604084013590509250925092565b60006020828403121561263957600080fd5b5035919050565b6001600160a01b038116811461265557600080fd5b50565b6000806000806080858703121561266e57600080fd5b843561267981612640565b935060208581013561268a81612640565b935060408601359250606086013567ffffffffffffffff808211156126ae57600080fd5b818801915088601f8301126126c257600080fd5b8135818111156126d4576126d46124f3565b6126e6601f8201601f19168501612509565b915080825289848285010111156126fc57600080fd5b808484018584013760008482840101525080935050505092959194509250565b60008060006060848603121561273157600080fd5b505081359360208301359350604090920135919050565b6000806040838503121561275b57600080fd5b823561276681612640565b946020939093013593505050565b6000806040838503121561278757600080fd5b50508035926020909101359150565b6000602082840312156127a857600080fd5b8135611a3181612640565b600081518084526020808501945080840160005b838110156127e3578151875295820195908201906001016127c7565b509495945050505050565b82815260406020820152600061280760408301846127b3565b949350505050565b803560ff8116811461282057600080fd5b919050565b6000806040838503121561283857600080fd5b823591506128486020840161280f565b90509250929050565b60008060006060848603121561286657600080fd5b833592506128766020850161280f565b9150604084013590509250925092565b60408152600061289960408301856127b3565b90508260208301529392505050565b6020808252600d908201526c6f76657220646561646c696e6560981b604082015260600190565b6020808252600990820152683337b93134b23232b760b91b604082015260600190565b634e487b7160e01b600052603260045260246000fd5b634e487b7160e01b600052601160045260246000fd5b8082018082111561293157612931612908565b92915050565b60006001820161294957612949612908565b5060010190565b60008261296d57634e487b7160e01b600052601260045260246000fd5b500490565b805161282081612640565b60006020828403121561298f57600080fd5b8151611a3181612640565b8181038181111561293157612931612908565b634e487b7160e01b600052603160045260246000fd5b805162ffffff8116811461282057600080fd5b8051600281900b811461282057600080fd5b80516001600160801b038116811461282057600080fd5b6000806000806000806000806000806000806101808d8f031215612a2257600080fd5b8c516bffffffffffffffffffffffff81168114612a3e57600080fd5b9b50612a4c60208e01612972565b9a50612a5a60408e01612972565b9950612a6860608e01612972565b9850612a7660808e016129c3565b9750612a8460a08e016129d6565b9650612a9260c08e016129d6565b9550612aa060e08e016129e8565b94506101008d015193506101208d01519250612abf6101408e016129e8565b9150612ace6101608e016129e8565b90509295989b509295989b509295989b565b60008060408385031215612af357600080fd5b505080516020909101519092909150565b600080600060608486031215612b1957600080fd5b612b22846129e8565b925060208401519150604084015190509250925092565b808202811582820484141761293157612931612908565b60ff828116828216039081111561293157612931612908565b600060ff821660ff8103612b7f57612b7f612908565b60010192915050565b600081612b9757612b97612908565b506000190190565b6000825160005b81811015612bc05760208186018101518583015201612ba6565b506000920191825250919050565b600060208284031215612be057600080fd5b81518015158114611a3157600080fdfea2646970667358221220da291a85f5976cb667059882546e792891090bbbb7ab2fcb4c3943c508d27c0464736f6c63430008110033",
  "linkReferences": {},
  "deployedLinkReferences": {}
}