{
  "_format": "hh-sol-artifact-1",
  "contractName": "Reward",
  "sourceName": "contracts/claim.sol",
  "abi": [
    {
      "inputs": [
        {
          "internalType": "address[]",
          "name": "_users",
          "type": "address[]"
        },
        {
          "internalType": "uint256",
          "name": "_rewardAmount",
          "type": "uint256"
        },
        {
          "internalType": "address",
          "name": "_rewardToken",
          "type": "address"
        }
      ],
      "stateMutability": "nonpayable",
      "type": "constructor"
    },
    {
      "inputs": [],
      "name": "acceptSetter",
      "outputs": [],
      "stateMutability": "nonpayable",
      "type": "function"
    },
    {
      "inputs": [],
      "name": "claim",
      "outputs": [],
      "stateMutability": "nonpayable",
      "type": "function"
    },
    {
      "inputs": [],
      "name": "owner",
      "outputs": [
        {
          "internalType": "address",
          "name": "",
          "type": "address"
        }
      ],
      "stateMutability": "view",
      "type": "function"
    },
    {
      "inputs": [],
      "name": "rewardAmount",
      "outputs": [
        {
          "internalType": "uint256",
          "name": "",
          "type": "uint256"
        }
      ],
      "stateMutability": "view",
      "type": "function"
    },
    {
      "inputs": [],
      "name": "rewardToken",
      "outputs": [
        {
          "internalType": "address",
          "name": "",
          "type": "address"
        }
      ],
      "stateMutability": "view",
      "type": "function"
    },
    {
      "inputs": [
        {
          "internalType": "address",
          "name": "_owner",
          "type": "address"
        }
      ],
      "name": "transferOwner",
      "outputs": [],
      "stateMutability": "nonpayable",
      "type": "function"
    },
    {
      "inputs": [
        {
          "internalType": "address",
          "name": "",
          "type": "address"
        }
      ],
      "name": "userClaimed",
      "outputs": [
        {
          "internalType": "uint256",
          "name": "",
          "type": "uint256"
        }
      ],
      "stateMutability": "view",
      "type": "function"
    },
    {
      "inputs": [
        {
          "internalType": "address",
          "name": "",
          "type": "address"
        }
      ],
      "name": "users",
      "outputs": [
        {
          "internalType": "bool",
          "name": "",
          "type": "bool"
        }
      ],
      "stateMutability": "view",
      "type": "function"
    }
  ],
  "bytecode": "0x60c060405234801561001057600080fd5b5060405161076938038061076983398101604081905261002f916100f4565b60005b835181101561009757600160036000868481518110610053576100536101d4565b6020908102919091018101516001600160a01b03168252810191909152604001600020805460ff19169115159190911790558061008f816101ea565b915050610032565b5060a0919091526001600160a01b031660805250600080546001600160a01b03191633179055610211565b634e487b7160e01b600052604160045260246000fd5b80516001600160a01b03811681146100ef57600080fd5b919050565b60008060006060848603121561010957600080fd5b83516001600160401b038082111561012057600080fd5b818601915086601f83011261013457600080fd5b8151602082821115610148576101486100c2565b8160051b604051601f19603f8301168101818110868211171561016d5761016d6100c2565b60405292835281830193508481018201928a84111561018b57600080fd5b948201945b838610156101b0576101a1866100d8565b85529482019493820193610190565b8098505050808801519550505050506101cb604085016100d8565b90509250925092565b634e487b7160e01b600052603260045260246000fd5b60006001820161020a57634e487b7160e01b600052601160045260246000fd5b5060010190565b60805160a05161052561024460003960008181610148015261026601526000818161016f015261024401526105256000f3fe608060405234801561001057600080fd5b50600436106100885760003560e01c80638da5cb5b1161005b5780638da5cb5b146100e5578063a87430ba14610110578063f7b2a7be14610143578063f7c618c11461016a57600080fd5b80633b7fcdca1461008d5780634e71d92d146100c05780634fb2e45d146100ca5780635f8e422f146100dd575b600080fd5b6100ad61009b36600461046e565b60026020526000908152604090205481565b6040519081526020015b60405180910390f35b6100c8610191565b005b6100c86100d836600461046e565b61028c565b6100c86102f4565b6000546100f8906001600160a01b031681565b6040516001600160a01b0390911681526020016100b7565b61013361011e36600461046e565b60036020526000908152604090205460ff1681565b60405190151581526020016100b7565b6100ad7f000000000000000000000000000000000000000000000000000000000000000081565b6100f87f000000000000000000000000000000000000000000000000000000000000000081565b3360009081526003602052604090205460ff166101e65760405162461bcd60e51b815260206004820152600e60248201526d3ab9b2b9103337b93134b23232b760911b60448201526064015b60405180910390fd5b3360009081526002602052604090205461022c5760405162461bcd60e51b815260206004820152600760248201526618db185a5b595960ca1b60448201526064016101dd565b33600081815260026020526040902042905561028a907f0000000000000000000000000000000000000000000000000000000000000000907f0000000000000000000000000000000000000000000000000000000000000000610361565b565b6000546001600160a01b031633146102d25760405162461bcd60e51b81526020600482015260096024820152683337b93134b23232b760b91b60448201526064016101dd565b600180546001600160a01b0319166001600160a01b0392909216919091179055565b6001546001600160a01b0316331461033a5760405162461bcd60e51b81526020600482015260096024820152683337b93134b23232b760b91b60448201526064016101dd565b60018054600080546001600160a01b03199081166001600160a01b03841617909155169055565b604080516001600160a01b038481166024830152604480830185905283518084039091018152606490920183526020820180516001600160e01b031663a9059cbb60e01b17905291516000928392908716916103bd919061049e565b6000604051808303816000865af19150503d80600081146103fa576040519150601f19603f3d011682016040523d82523d6000602084013e6103ff565b606091505b509150915081801561042957508051158061042957508080602001905181019061042991906104cd565b6104675760405162461bcd60e51b815260206004820152600f60248201526e1514905394d1915497d19052531151608a1b60448201526064016101dd565b5050505050565b60006020828403121561048057600080fd5b81356001600160a01b038116811461049757600080fd5b9392505050565b6000825160005b818110156104bf57602081860181015185830152016104a5565b506000920191825250919050565b6000602082840312156104df57600080fd5b8151801515811461049757600080fdfea2646970667358221220a4216f8b01431c083315d9b6c28f887a788b114ff964c05a27a5604f98c8391f64736f6c63430008110033",
  "linkReferences": {},
  "deployedLinkReferences": {}
}