{
  "_format": "hh-sol-artifact-1",
  "contractName": "Reward",
  "sourceName": "contracts/claim.sol",
  "abi": [
    {
      "inputs": [
        {
          "internalType": "address[]",
          "name": "_users",
          "type": "address[]"
        },
        {
          "internalType": "uint256",
          "name": "_rewardAmount",
          "type": "uint256"
        },
        {
          "internalType": "address",
          "name": "_rewardToken",
          "type": "address"
        }
      ],
      "stateMutability": "nonpayable",
      "type": "constructor"
    },
    {
      "inputs": [],
      "name": "acceptSetter",
      "outputs": [],
      "stateMutability": "nonpayable",
      "type": "function"
    },
    {
      "inputs": [
        {
          "internalType": "address[]",
          "name": "_users",
          "type": "address[]"
        }
      ],
      "name": "addUser",
      "outputs": [],
      "stateMutability": "nonpayable",
      "type": "function"
    },
    {
      "inputs": [],
      "name": "claim",
      "outputs": [],
      "stateMutability": "nonpayable",
      "type": "function"
    },
    {
      "inputs": [],
      "name": "owner",
      "outputs": [
        {
          "internalType": "address",
          "name": "",
          "type": "address"
        }
      ],
      "stateMutability": "view",
      "type": "function"
    },
    {
      "inputs": [],
      "name": "rewardAmount",
      "outputs": [
        {
          "internalType": "uint256",
          "name": "",
          "type": "uint256"
        }
      ],
      "stateMutability": "view",
      "type": "function"
    },
    {
      "inputs": [],
      "name": "rewardToken",
      "outputs": [
        {
          "internalType": "address",
          "name": "",
          "type": "address"
        }
      ],
      "stateMutability": "view",
      "type": "function"
    },
    {
      "inputs": [
        {
          "internalType": "address",
          "name": "_owner",
          "type": "address"
        }
      ],
      "name": "transferOwner",
      "outputs": [],
      "stateMutability": "nonpayable",
      "type": "function"
    },
    {
      "inputs": [
        {
          "internalType": "address",
          "name": "",
          "type": "address"
        }
      ],
      "name": "userClaimed",
      "outputs": [
        {
          "internalType": "uint256",
          "name": "",
          "type": "uint256"
        }
      ],
      "stateMutability": "view",
      "type": "function"
    },
    {
      "inputs": [
        {
          "internalType": "address",
          "name": "",
          "type": "address"
        }
      ],
      "name": "users",
      "outputs": [
        {
          "internalType": "bool",
          "name": "",
          "type": "bool"
        }
      ],
      "stateMutability": "view",
      "type": "function"
    }
  ],
  "bytecode": "0x60c060405234801561001057600080fd5b5060405161092e38038061092e83398101604081905261002f916100f4565b60005b835181101561009757600160036000868481518110610053576100536101d4565b6020908102919091018101516001600160a01b03168252810191909152604001600020805460ff19169115159190911790558061008f816101ea565b915050610032565b5060a0919091526001600160a01b031660805250600080546001600160a01b03191633179055610211565b634e487b7160e01b600052604160045260246000fd5b80516001600160a01b03811681146100ef57600080fd5b919050565b60008060006060848603121561010957600080fd5b83516001600160401b038082111561012057600080fd5b818601915086601f83011261013457600080fd5b8151602082821115610148576101486100c2565b8160051b604051601f19603f8301168101818110868211171561016d5761016d6100c2565b60405292835281830193508481018201928a84111561018b57600080fd5b948201945b838610156101b0576101a1866100d8565b85529482019493820193610190565b8098505050808801519550505050506101cb604085016100d8565b90509250925092565b634e487b7160e01b600052603260045260246000fd5b60006001820161020a57634e487b7160e01b600052601160045260246000fd5b5060010190565b60805160a0516106ea61024460003960008181610166015261028401526000818161018d015261026201526106ea6000f3fe608060405234801561001057600080fd5b50600436106100935760003560e01c80638da5cb5b116100665780638da5cb5b146100f0578063a87430ba1461011b578063cdfca7f21461014e578063f7b2a7be14610161578063f7c618c11461018857600080fd5b80633b7fcdca146100985780634e71d92d146100cb5780634fb2e45d146100d55780635f8e422f146100e8575b600080fd5b6100b86100a6366004610506565b60026020526000908152604090205481565b6040519081526020015b60405180910390f35b6100d36101af565b005b6100d36100e3366004610506565b6102aa565b6100d36102f6565b600054610103906001600160a01b031681565b6040516001600160a01b0390911681526020016100c2565b61013e610129366004610506565b60036020526000908152604090205460ff1681565b60405190151581526020016100c2565b6100d361015c36600461053e565b610347565b6100b87f000000000000000000000000000000000000000000000000000000000000000081565b6101037f000000000000000000000000000000000000000000000000000000000000000081565b3360009081526003602052604090205460ff166102045760405162461bcd60e51b815260206004820152600e60248201526d3ab9b2b9103337b93134b23232b760911b60448201526064015b60405180910390fd5b3360009081526002602052604090205461024a5760405162461bcd60e51b815260206004820152600760248201526618db185a5b595960ca1b60448201526064016101fb565b3360008181526002602052604090204290556102a8907f0000000000000000000000000000000000000000000000000000000000000000907f00000000000000000000000000000000000000000000000000000000000000006103dd565b565b6000546001600160a01b031633146102d45760405162461bcd60e51b81526004016101fb90610603565b600180546001600160a01b0319166001600160a01b0392909216919091179055565b6001546001600160a01b031633146103205760405162461bcd60e51b81526004016101fb90610603565b60018054600080546001600160a01b03199081166001600160a01b03841617909155169055565b6000546001600160a01b031633146103715760405162461bcd60e51b81526004016101fb90610603565b60005b81518110156103d95760016003600084848151811061039557610395610626565b6020908102919091018101516001600160a01b03168252810191909152604001600020805460ff1916911515919091179055806103d18161063c565b915050610374565b5050565b604080516001600160a01b038481166024830152604480830185905283518084039091018152606490920183526020820180516001600160e01b031663a9059cbb60e01b17905291516000928392908716916104399190610663565b6000604051808303816000865af19150503d8060008114610476576040519150601f19603f3d011682016040523d82523d6000602084013e61047b565b606091505b50915091508180156104a55750805115806104a55750808060200190518101906104a59190610692565b6104e35760405162461bcd60e51b815260206004820152600f60248201526e1514905394d1915497d19052531151608a1b60448201526064016101fb565b5050505050565b80356001600160a01b038116811461050157600080fd5b919050565b60006020828403121561051857600080fd5b610521826104ea565b9392505050565b634e487b7160e01b600052604160045260246000fd5b6000602080838503121561055157600080fd5b823567ffffffffffffffff8082111561056957600080fd5b818501915085601f83011261057d57600080fd5b81358181111561058f5761058f610528565b8060051b604051601f19603f830116810181811085821117156105b4576105b4610528565b6040529182528482019250838101850191888311156105d257600080fd5b938501935b828510156105f7576105e8856104ea565b845293850193928501926105d7565b98975050505050505050565b6020808252600990820152683337b93134b23232b760b91b604082015260600190565b634e487b7160e01b600052603260045260246000fd5b60006001820161065c57634e487b7160e01b600052601160045260246000fd5b5060010190565b6000825160005b81811015610684576020818601810151858301520161066a565b506000920191825250919050565b6000602082840312156106a457600080fd5b8151801515811461052157600080fdfea2646970667358221220916059e5152c97f08040f6df8c5f0f12954c86e9a4068962d2ecc904b04ae13964736f6c63430008110033",
  "linkReferences": {},
  "deployedLinkReferences": {}
}