{
  "_format": "hh-sol-artifact-1",
  "contractName": "Reward",
  "sourceName": "contracts/claim.sol",
  "abi": [
    {
      "inputs": [
        {
          "internalType": "address[]",
          "name": "_users",
          "type": "address[]"
        },
        {
          "internalType": "uint256",
          "name": "_rewardAmount",
          "type": "uint256"
        },
        {
          "internalType": "address",
          "name": "_rewardToken",
          "type": "address"
        }
      ],
      "stateMutability": "nonpayable",
      "type": "constructor"
    },
    {
      "inputs": [],
      "name": "acceptSetter",
      "outputs": [],
      "stateMutability": "nonpayable",
      "type": "function"
    },
    {
      "inputs": [
        {
          "internalType": "address[]",
          "name": "_users",
          "type": "address[]"
        }
      ],
      "name": "addUser",
      "outputs": [],
      "stateMutability": "nonpayable",
      "type": "function"
    },
    {
      "inputs": [],
      "name": "claim",
      "outputs": [],
      "stateMutability": "nonpayable",
      "type": "function"
    },
    {
      "inputs": [],
      "name": "owner",
      "outputs": [
        {
          "internalType": "address",
          "name": "",
          "type": "address"
        }
      ],
      "stateMutability": "view",
      "type": "function"
    },
    {
      "inputs": [],
      "name": "rewardAmount",
      "outputs": [
        {
          "internalType": "uint256",
          "name": "",
          "type": "uint256"
        }
      ],
      "stateMutability": "view",
      "type": "function"
    },
    {
      "inputs": [],
      "name": "rewardToken",
      "outputs": [
        {
          "internalType": "address",
          "name": "",
          "type": "address"
        }
      ],
      "stateMutability": "view",
      "type": "function"
    },
    {
      "inputs": [
        {
          "internalType": "address",
          "name": "_owner",
          "type": "address"
        }
      ],
      "name": "transferOwner",
      "outputs": [],
      "stateMutability": "nonpayable",
      "type": "function"
    },
    {
      "inputs": [
        {
          "internalType": "address",
          "name": "",
          "type": "address"
        }
      ],
      "name": "userClaimed",
      "outputs": [
        {
          "internalType": "uint256",
          "name": "",
          "type": "uint256"
        }
      ],
      "stateMutability": "view",
      "type": "function"
    },
    {
      "inputs": [
        {
          "internalType": "address",
          "name": "",
          "type": "address"
        }
      ],
      "name": "users",
      "outputs": [
        {
          "internalType": "bool",
          "name": "",
          "type": "bool"
        }
      ],
      "stateMutability": "view",
      "type": "function"
    }
  ],
  "bytecode": "0x60c060405234801561001057600080fd5b5060405161092f38038061092f83398101604081905261002f916100f4565b60005b835181101561009757600160036000868481518110610053576100536101d4565b6020908102919091018101516001600160a01b03168252810191909152604001600020805460ff19169115159190911790558061008f816101ea565b915050610032565b5060a0919091526001600160a01b031660805250600080546001600160a01b03191633179055610211565b634e487b7160e01b600052604160045260246000fd5b80516001600160a01b03811681146100ef57600080fd5b919050565b60008060006060848603121561010957600080fd5b83516001600160401b038082111561012057600080fd5b818601915086601f83011261013457600080fd5b8151602082821115610148576101486100c2565b8160051b604051601f19603f8301168101818110868211171561016d5761016d6100c2565b60405292835281830193508481018201928a84111561018b57600080fd5b948201945b838610156101b0576101a1866100d8565b85529482019493820193610190565b8098505050808801519550505050506101cb604085016100d8565b90509250925092565b634e487b7160e01b600052603260045260246000fd5b60006001820161020a57634e487b7160e01b600052601160045260246000fd5b5060010190565b60805160a0516106eb61024460003960008181610166015261028501526000818161018d015261026301526106eb6000f3fe608060405234801561001057600080fd5b50600436106100935760003560e01c80638da5cb5b116100665780638da5cb5b146100f0578063a87430ba1461011b578063cdfca7f21461014e578063f7b2a7be14610161578063f7c618c11461018857600080fd5b80633b7fcdca146100985780634e71d92d146100cb5780634fb2e45d146100d55780635f8e422f146100e8575b600080fd5b6100b86100a6366004610507565b60026020526000908152604090205481565b6040519081526020015b60405180910390f35b6100d36101af565b005b6100d36100e3366004610507565b6102ab565b6100d36102f7565b600054610103906001600160a01b031681565b6040516001600160a01b0390911681526020016100c2565b61013e610129366004610507565b60036020526000908152604090205460ff1681565b60405190151581526020016100c2565b6100d361015c36600461053f565b610348565b6100b87f000000000000000000000000000000000000000000000000000000000000000081565b6101037f000000000000000000000000000000000000000000000000000000000000000081565b3360009081526003602052604090205460ff166102045760405162461bcd60e51b815260206004820152600e60248201526d3ab9b2b9103337b93134b23232b760911b60448201526064015b60405180910390fd5b336000908152600260205260409020541561024b5760405162461bcd60e51b815260206004820152600760248201526618db185a5b595960ca1b60448201526064016101fb565b3360008181526002602052604090204290556102a9907f0000000000000000000000000000000000000000000000000000000000000000907f00000000000000000000000000000000000000000000000000000000000000006103de565b565b6000546001600160a01b031633146102d55760405162461bcd60e51b81526004016101fb90610604565b600180546001600160a01b0319166001600160a01b0392909216919091179055565b6001546001600160a01b031633146103215760405162461bcd60e51b81526004016101fb90610604565b60018054600080546001600160a01b03199081166001600160a01b03841617909155169055565b6000546001600160a01b031633146103725760405162461bcd60e51b81526004016101fb90610604565b60005b81518110156103da5760016003600084848151811061039657610396610627565b6020908102919091018101516001600160a01b03168252810191909152604001600020805460ff1916911515919091179055806103d28161063d565b915050610375565b5050565b604080516001600160a01b038481166024830152604480830185905283518084039091018152606490920183526020820180516001600160e01b031663a9059cbb60e01b179052915160009283929087169161043a9190610664565b6000604051808303816000865af19150503d8060008114610477576040519150601f19603f3d011682016040523d82523d6000602084013e61047c565b606091505b50915091508180156104a65750805115806104a65750808060200190518101906104a69190610693565b6104e45760405162461bcd60e51b815260206004820152600f60248201526e1514905394d1915497d19052531151608a1b60448201526064016101fb565b5050505050565b80356001600160a01b038116811461050257600080fd5b919050565b60006020828403121561051957600080fd5b610522826104eb565b9392505050565b634e487b7160e01b600052604160045260246000fd5b6000602080838503121561055257600080fd5b823567ffffffffffffffff8082111561056a57600080fd5b818501915085601f83011261057e57600080fd5b81358181111561059057610590610529565b8060051b604051601f19603f830116810181811085821117156105b5576105b5610529565b6040529182528482019250838101850191888311156105d357600080fd5b938501935b828510156105f8576105e9856104eb565b845293850193928501926105d8565b98975050505050505050565b6020808252600990820152683337b93134b23232b760b91b604082015260600190565b634e487b7160e01b600052603260045260246000fd5b60006001820161065d57634e487b7160e01b600052601160045260246000fd5b5060010190565b6000825160005b81811015610685576020818601810151858301520161066b565b506000920191825250919050565b6000602082840312156106a557600080fd5b8151801515811461052257600080fdfea26469706673582212201d4d7041175f0acbb5a02d525578697ac371de9463d1bdfcbc3d81653b6e96e264736f6c63430008110033",
  "linkReferences": {},
  "deployedLinkReferences": {}
}